:020000040800F2
:1000000028440020E102000829980008058E000815
:100010002598000839100008EDAE00080000000027
:100020000000000000000000000000002D9D0008FE
:10003000D915000800000000619900082F9D0008F4
:10004000FF020008FF020008FF020008FF0200088C
:10005000FF020008FF020008FF020008FF0200087C
:10006000FF020008FF020008FF0200083D10000820
:100070004D1000085D100008FF020008FF02000894
:10008000FF020008FF02000829100008FF02000814
:10009000FF020008FF020008FF020008FF0200083C
:1000A000FF020008FF020008FF020008FF0200082C
:1000B000FF020008FF020008FF020008FF0200081C
:1000C000FF020008FF020008FF020008FF0200080C
:1000D000FF020008DDAC0008FF020008E5AD0008E3
:1000E000FF020008FF02000800000000FF020008F5
:1000F000FF020008FF020008FF020008FF020008DC
:10010000FF020008FF020008FF020008FF020008CB
:10011000FF020008FF020008FF020008FF020008BB
:10012000FF020008FF020008FF020008FF020008AB
:10013000FF020008FF020008FF020008FF0200089B
:1001400000000000000000000000000000000000AF
:10015000FF020008FF020008FF020008FF0200087B
:10016000FF020008FF020008FF020008FF0200086B
:10017000FF020008FF020008FF0200080000000064
:10018000FF020008FF020008FF020008FF0200084B
:10019000FF020008FF020008FF020008FF0200083B
:1001A000FF020008FF020008FF0200080000000034
:1001B000FF020008FF020008FF020008FF0200081B
:1001C000FF020008FF02000800000000000000001D
:1001D0000000000000000000FF0200080000000016
:1001E000000000000000000000000000000000000F
:1001F0000000000000000000FF020008FF020008ED
:10020000FF020008FF02000800000000FF020008D3
:10021000FF020008FF020008FF020008FF020008BA
:10022000FF02000800000000FF02000800000000BC
:10023000FF020008FF02000800000000FF020008A3
:10024000FF020008FF020008FF020008FF0200088A
:10025000FF020008FF020008FF020008FF0200087A
:10026000FF020008FF020008FF020008FF0200086A
:10027000FF020008FF020008FF0200080000000063
:10028000FF020008FF020008FF020008FF0200084A
:1002900000000000FF020008FF020008000000004C
:1002A00000000000FF020008FF020008FF02000833
:1002B000FF020008FF020008FF020008FF0200081A
:1002C000FF020008FF020008FF020008DFF80CD060
:1002D00000F0CAFA0048004771BD00082844002019
:1002E000074880470748804707480047FEE7FEE782
:1002F000FEE7FEE7FEE7FEE7FEE7FEE7FEE7FEE7D6
:10030000F5150008F99D0008CD0200082DE9F05F01
:100310000546002092469B46884606468146402474
:100320001BE0284641464746224600F09EF85346C9
:100330005A46C01A914110D311461846224600F081
:1003400016F82D1A67EB01084F46224601200021BE
:1003500000F00DF817EB00094E41201EA4F1010436
:10036000DFDC484631462A464346BDE8F09F202A56
:1003700004DB203A00FA02F1002070479140C2F1FC
:10038000200320FA03F3194390407047202A06DB2C
:10039000CB17203A41FA02F043EAE07306E041FA53
:1003A00002F3D040C2F12002914008431946704741
:1003B00040EA01039B0703D009E008C9121F08C0E7
:1003C000042AFAD203E011F8013B00F8013B521E67
:1003D000F9D27047D2B201E000F8012B491EFBD2DE
:1003E00070470022F6E710B513460A460446194640
:1003F000FFF7F0FF204610BD421C10F8011B00293A
:10040000FBD1801A704710B5002200E0521C835CBB
:100410008C5CA34201D1002BF8D1D8B2E1B2401AD2
:1004200010BD30B4044696230800214604D0B623FC
:1004300030BC002200F032B820460021F8E730B589
:100440000B46014600202022012409E021FA02F592
:100450009D4205D303FA02F5491B04FA02F528442C
:10046000151EA2F10102F1DC30BD202A04DB203A86
:1004700021FA02F00021704721FA02F3D040C2F1C4
:10048000200291400843194670470029A8BF7047D1
:10049000401C490008BF20F00100704710B4B0FABA
:1004A00080FC00FA0CF050EA010404BF10BC704755
:1004B00049B1CCF1200421FA04F411FA0CF118BF6F
:1004C000012121430843A3EB0C01CB1D4FEA00613E
:1004D0004FEA102042BF002010BC704700EBC35011
:1004E00010440029A4BF10BC7047401C490008BF3D
:1004F00020F0010010BC70472DE9FE4F804681EAD4
:100500000300C00F0C46009021F0004123F000458D
:10051000B8EB0200A94105D24046214690461C4650
:100520000B46024623F00040104347D0270DC7F387
:100530000A00C3F30A510290401A019040286BDA76
:10054000C3F3130040F4801B0098924620B10023AF
:10055000D2EB030A63EB0B0B01985946C0F1400242
:100560005046FFF704FF06460D4650465946019A8D
:10057000FFF70CFF10EB08006141002487EA1152DD
:1005800084EAE7731A4340D0009A62B3019A012AC1
:100590004FEA075215DC001B61EB02014FF00042ED
:1005A00002EA0752CDE90042001C41F580113246B3
:1005B0002B4600F07AF903B0BDE8F08F40462146A3
:1005C000F9E7001B61EB0201001C41F580130018E4
:1005D0005B412018A2F5001747EB030140EAD570F4
:1005E000B6196D4111E06D084FEA360645EAC0754F
:1005F0004FEA0752001B61EB0201001C41F580111C
:1006000049084FEA30000019514132462B4603B0E9
:10061000BDE8F04F00F03AB90098012240000023F5
:10062000D0EB020263EBE073009821464FEAE074DE
:10063000B8EB000061EB0401E9E783F000435BE7FE
:1006400081F0004158E72DE9FE4F81EA030404F0F0
:10065000004421F0004100944FF0000B23F00043D0
:1006600050EA01045ED052EA03045BD0C3F30A549B
:10067000C1F30A552C44A4F2F3340194A0FB0254B4
:10068000C1F3130141F48011C3F3130343F4801346
:1006900001FB024400FB034E840A970A44EA81549A
:1006A00047EA8357A4FB076802958D0A05FB078577
:1006B0004FEA932C04FB0C542705029D4FEA065881
:1006C00047EA1637B5EB08056EEB070C870E920E5E
:1006D00047EA811742EA8312A7FB0201B6EB0B013E
:1006E00064EB00042B0D43EA0C335E1844EB1C5002
:1006F000DA465146E7FB0201C5F313044FEA0B3318
:1007000043EA14534FEA0432019C43EA0603A4F17E
:100710000C040294009CCDE900B400F0C6F803B0CC
:10072000BDE8F08F00200146F9E72DE9F04D81EAA0
:10073000030404F0004B21F0004514464FF0000A7A
:1007400023F0004150EA050220D054EA01021DD0F6
:10075000C5F30A570246C5F31303C1F31300C1F3EF
:100760000A5640F4801543F48013A7EB0608101BCB
:10077000D64608F2FD3873EB050002D308F10108F4
:1007800001E092185B41B8F1000F03DA0020014646
:10079000BDE8F08D00204FF48011064684460EE03F
:1007A000171B73EB050705D3121B63EB0503064309
:1007B0004CEA010C49084FEA300092185B4150EABC
:1007C0000107EDD152EA030012D082EA040083EA65
:1007D0000501084305D0101BAB4106D201220023BE
:1007E00006E000224FF0004302E06FF001025310D8
:1007F0001AEB06004CEB085110EB0A0041EB0B0121
:10080000BDE8F04D00F042B8C1F30A52C1F3130144
:1008100040F2FF3341F480119A4202DA002001468F
:10082000704740F233439A42A2F2334202DC524212
:10083000FFF71BBEFFF79BBD30B5041E71F100042E
:1008400004DB4FF00044404264EB0101141E73F1DD
:10085000000405DB1C464FF00043524263EB0403E7
:10086000994208BF904230BD064C074D06E0E06853
:1008700040F0010394E8070098471034AC42F6D3E7
:10088000FFF728FDACF10008ECF1000810B5141ECC
:1008900073F1000408DA401C41F1000192185B4139
:1008A0001A4301D120F0010010BD2DE9F04D924610
:1008B0009B4611B1B1FA81F202E0B0FA80F2203227
:1008C0009046FFF754FD04460F4640EA0A0041EA0D
:1008D0000B0153465A46084313D0114653EA010010
:1008E00019D0C8F140025046FFF7BFFD05460E463D
:1008F000504659464246FFF73AFD084305D00120CD
:1009000004E020463946BDE8F08D0020054346EA64
:10091000E0762C4337430A986305E40AA0EB08000D
:100920000022FD0A44EA47540A3002D5002001465D
:10093000E9E7010510196941DDE908450019694138
:10094000BDE8F04DA2E770B58C1810F8015B15F00A
:10095000070301D110F8013B2A1106D110F8012B31
:1009600003E010F8016B01F8016B5B1EF9D12B0756
:1009700005D40023521E0DD401F8013BFAE710F80C
:10098000013BCB1A921C03E013F8015B01F8015BF9
:10099000521EF9D5A142D8D3002070BD10B508F081
:1009A00091FC10BD2DE9F0412DED048B84B007467C
:1009B000F0EE408AB0EE608A9FED750AB0EE409A84
:1009C00074A00068039074A103C9CDE90101B7EEDA
:1009D000000AF4EEC08AF1EE10FA03D2B7EE000A74
:1009E000F0EE408AB5EEC08AF1EE10FA03D29FED28
:1009F0006C0AB0EE408AB7EE000AB4EEC08AF1EE9F
:100A000010FA03DDB7EE000AB0EE408A9FED650AEA
:100A100028EE800A9FED5E1AC1EE000AB6EE000ACB
:100A200030EE800ABCEEC00A10EE105A05B901255E
:100A3000B5F5803F01D34FF6FF75280A8DF8050004
:100A4000E8B28DF8060000220421574804F088F827
:100A500000200BF0A1FA002404E003A9085D0BF0CC
:100A60009BFA641C042CF8DB012204214E4804F09C
:100A700077F8002204214C4804F072F80E200BF0A5
:100A80008BFA002404E001A9085D0BF085FA641CD0
:100A9000082CF8DB01220421434804F061F800220D
:100AA0008021424804F05CF8012280213F4804F094
:100AB00057F8002280213D4804F052F827B1012F59
:100AC00004D0022F06D103E0394E05E0394E03E091
:100AD000394E01E0364E00BF00BF002204213248EB
:100AE00004F03EF816200BF057FA002417E056F8F1
:100AF000240000EE100AF8EE400AB6EE000A00EEFE
:100B0000880ABCEEC00A10EE108AB8F5804F01D3F7
:100B100043F6FF784FEA88400AF0EAF9641CB4F51E
:100B2000806FE4DB012204211F4804F019F8002241
:100B300004211D4804F014F800200BF02DFA9DF854
:100B40000C0040F080008DF80C00002404E003A9A4
:100B5000085D0BF021FA641C042CF8DB012204214F
:100B6000114803F0FDFF00228021104803F0F8FF38
:100B7000012280210D4803F0F3FF002280210B4861
:100B800003F0EEFF04B0BDEC048BBDE8F081000083
:100B9000286B6E4E40400000000001FFC0000004C2
:100BA00000000000000080450004025800080258C0
:100BB000A4C10008A4D10008A4E1000870B504464F
:100BC00043492068884203D042492068884208D1BE
:100BD0004148006800F4403008B1012009E00020DD
:100BE00007E03E48006800F4403008B1012000E012
:100BF0000020B8B106F0EEFC05466068B0F5803F15
:100C000006D0B0F5003F04D0B0F5403F08D105E074
:100C100000BF6068000CB5FBF0F502E0AD0800E035
:100C200000BF2BE04FF40020002105F009F9054634
:100C30006068C0F31101F9B980140C281CD2DFE8F8
:100C400000F01B060708090A0B111315171900BF3E
:100C500000BF00BF00BF00BF6068800C4000B5FB54
:100C6000F0F50AE02D0908E06D0906E0AD0904E0A1
:100C7000ED0902E02D0A00E000BF00BF6D08184832
:100C8000854206D82068806820F44070216888601A
:100C90001DE01448854208D82068806820F4407020
:100CA00040F480702168886011E00F48854208D8C0
:100CB0002068806820F4407040F4007021688860EB
:100CC00005E02068806840F440702168886070BD4D
:100CD000002002400021024008230240086302581D
:100CE000105E5F0020BCBE0040787D012DE9F05F02
:100CF000044688464FF000094746206808F06CF922
:100D00008246206808F04FF98346BAF1000F02D1FD
:100D1000BBF1000F72D02068C06800F0007000B313
:100D2000607E01281DD1207E01281AD101270FE005
:100D3000334881450AD3206E40F010002066606E73
:100D400040F0010060660120BDE8F09F09F1010953
:100D500020680068C0F380100028E9D04020216896
:100D60000860022F10D0206808F036F960B12068C2
:100D700008F01EF940B920688168224A114041F00C
:100D80001001816000BF00BF012F10D0206808F063
:100D90000AF960B1206808F00BF940B92068816851
:100DA000184A114041F02001816000BF00BF022FAE
:100DB00003D0032F03D10C2503E0082501E004250F
:100DC00000BF00BF03F0D2FE064612E003F0CEFEE5
:100DD000801B05280DD920688068284048B1206E06
:100DE00040F010002066606E40F001006066012057
:100DF000AAE72068806828400028E7D10020A3E700
:100E000000DC0C00C0FFFF7F70B50546AC6B206EA8
:100E100000F0500098BB206E40F4007020662068FF
:100E2000006800F00800A8B1206808F0DFF810B3EF
:100E30002068C06800F40050E8B9206E20F480708B
:100E40002066206E00F48050A8B9206E40F00100AA
:100E5000206610E02068C06800F0030058B9206EDA
:100E600020F480702066206E00F4805018B9206E47
:100E700040F001002066204601F0C2F90CE0FFE7D7
:100E8000206E00F0100018B1204601F0CAF903E00E
:100E9000A06DC16C2846884770BD70B50546AC6B27
:100EA000206E40F040002066606E40F004006066F6
:100EB000204601F0B6F970BD70B50446A56B284612
:100EC00001F0AEF970BD000070B50446206808F06E
:100ED0006FF80646206808F070F898B396BB206853
:100EE000806800F00D0001280AD1206881681A4A44
:100EF0001140891C816000BF03202168086009E05F
:100F0000206E40F010002066606E40F001006066C8
:100F1000012070BD03F02AFE054614E003F026FE12
:100F2000401B02280FD92068806800F0010050B1F2
:100F3000206E40F010002066606E40F00100606698
:100F40000120E6E705E02068806800F00100002845
:100F5000E4D10020DDE70000C0FFFF7F70B504464C
:100F6000206808F02AF8002851D1206880682949B3
:100F7000084048B1206E40F010002066606E40F0DE
:100F800001006066012070BD206807F0F1FF03F0EA
:100F9000EDFD0546204A2168914203D01F4A216891
:100FA000914201D11E4900E01E49084607F0EDFFBD
:100FB00006461A492068884201D1174800E0206897
:100FC0002168884200D00EBB1AE0206807F0F5FFC8
:100FD00010B9206807F0CCFF03F0C8FD401B0228C1
:100FE0000ED92068006800F0010048B9206E40F07A
:100FF00010002066606E40F0010060660120C2E7CC
:101000002068006800F001000028DED000BF00204A
:10101000B9E700003F0000800020024000210240AC
:10102000002302400063025810B5024801F0FAF8AC
:1010300010BD00004C00002000BFFEE710B50248C4
:1010400002F0ECF910BD0000BC00002010B5024811
:1010500002F0E4F910BD00003803002010B502488A
:1010600002F0DCF910BD0000B00300200146374A51
:101070000868904249D0354A18320868904244D0F6
:10108000324A3032086890423FD0304A48320868CD
:1010900090423AD02D4A60320868904235D02B4AAF
:1010A00078320868904230D0284A903208689042DE
:1010B0002BD0264AA8320868904226D0244A0868D5
:1010C000904222D0224A1832086890421DD0204A0D
:1010D00030320868904218D01D4A48320868904261
:1010E00013D01B4A6032086890420ED0184A7832FA
:1010F0000868904209D0164A90320868904204D09D
:10110000134AA8320868904201D1012000E0002073
:10111000B0B10A78103A1823B2FBF3F000F00702DE
:101120000C4B9A5CCA65032805D90A686FF309025B
:10113000121D8A6503E00A686FF309028A6503E0FD
:10114000086820F0FF008865886D70471000024035
:101150001004024064C1000810B502682B4C0368FB
:10116000A34222D0294C14340368A3421DD0274C3B
:1011700028340368A34218D0244C3C340368A342AB
:1011800013D0224C50340368A3420ED01F4C643459
:101190000368A34209D01D4C78340368A34204D0ED
:1011A0001A4C8C340368A34201D1012300E00023D0
:1011B0008BB10378083B1424B3FBF4F1144B03EB1D
:1011C00081030366124B8033436601F01F04012341
:1011D000A340836618E00378103B1824B3FBF4F1B6
:1011E0000C4B9A4204D80B4BA83B9A4200D30831CF
:1011F000094B03EB81030366074B8033436601F021
:101200001F040123A340836610BD00000854025848
:1012100000580258B8040240000802400179A9B3FE
:10122000082940D8204B02689A4222D01E4B143322
:1012300002689A421DD01C4B283302689A4218D08B
:10124000194B3C3302689A4213D0174B5033026853
:101250009A420ED0144B643302689A4209D0124B62
:10126000783302689A4204D00F4B8C3302689A425A
:1012700001D1012200E000224AB14A1E0B4B03EBD0
:101280008202C266094A4032026708E00BE04A1E49
:10129000074B03EB8202C266054A403202674A1ED0
:1012A000012393404367704708540258005902587D
:1012B00000090240014600208A69D2B98A6A32B127
:1012C000012A0DD0022A03D0032A10D10EE000BF5C
:1012D000CA6A02F08072B2F1807F00D1012007E07B
:1012E000CA6AB2F1C07F00D1012001E000E000BF76
:1012F00036E08A69B2F5005F1BD18A6A32B1012AF1
:1013000007D0022A03D0032A11D10AE000BF01202E
:101310000EE0CA6A02F08072B2F1807F00D1012033
:1013200006E0CA6AB2F1C07F00D1012000E000BF30
:1013300016E08A6A32B1012A05D0022A04D0032AB3
:101340000CD103E000BF00BF012008E0CA6A02F030
:101350008072B2F1807F00D1012000E000BF00BFA9
:1013600070470000F0B5856D846D984F0668BE42E9
:1013700070D0964F18370668BE426BD0934F303707
:101380000668BE4266D0914F48370668BE4261D0BB
:101390008E4F60370668BE425CD08C4F7837066847
:1013A000BE4257D0894F90370668BE4252D0874F11
:1013B000A8370668BE424DD0854F0668BE4249D068
:1013C000834F18370668BE4244D0814F30370668D5
:1013D000BE423FD07E4F48370668BE423AD07C4F6F
:1013E00060370668BE4235D0794F78370668BE420E
:1013F00030D0774F90370668BE422BD0744FA83755
:101400000668BE4226D0734F0668BE4222D0714F96
:1014100014370668BE421DD06E4F28370668BE429C
:1014200018D06C4F3C370668BE4213D0694F503716
:101430000668BE420ED0674F64370668BE4209D0C8
:10144000644F78370668BE4204D0624F8C37066816
:10145000BE4201D1012600E000263EB1D0E9197656
:101460007E60C66E16B1D0E91C767E60574F066866
:10147000BE4249D0554F18370668BE4244D0534F3C
:1014800030370668BE423FD0504F48370668BE42EC
:101490003AD04E4F60370668BE4235D04B4F783752
:1014A0000668BE4230D0494F90370668BE422BD006
:1014B000464FA8370668BE4226D0454F0668BE4252
:1014C00022D0434F18370668BE421DD0404F3037F8
:1014D0000668BE4218D03E4F48370668BE4213D059
:1014E0003B4F60370668BE420ED0394F78370668EA
:1014F000BE4209D0364F90370668BE4204D0344F02
:10150000A8370668BE4201D1012600E00026DEB100
:1015100090F85C6006F01F073F26BE40AE6006688C
:10152000366826F4802607683E6006687360866821
:10153000402E04D10668B2600668F16044E0066897
:10154000B1600668F2603FE0224F0668BE4222D0DA
:10155000204F14370668BE421DD01E4F283706683C
:10156000BE4218D01B4F3C370668BE4213D0194FFD
:1015700050370668BE420ED0164F64370668BE422A
:1015800009D0144F78370668BE4204D0114F8C370B
:101590000668BE4201D1012600E00026A6B190F8FF
:1015A0005C6006F01F070126BE4066600668736037
:1015B0008668402E04D10668B2600668F16003E0D8
:1015C0000668B1600668F260F0BD000010000240DD
:1015D00010040240085402587047000072B606E03A
:1015E0000121034803F0B2FA642003F00DF9F7E794
:1015F000000402580748006840F0020005490860EE
:1016000000BF04480838006800F400500028F8D0F3
:10161000704700000C48025802460868B0B9D1E98A
:1016200001031843CB6818430B6918434B691843EF
:101630008B691843CB6918430B6A18434B6A1843EC
:1016400013686FF30E031843106019E0D1E9070324
:1016500018434B6A1843136823F4F8431843106087
:10166000D1E901031843CB6818430B6918434B6950
:1016700018438B69184353686FF30E031843506087
:10168000002070470246506943F6FE73984340EAD3
:10169000410050610020704710B50346D1E90004B5
:1016A00020438C68641E40EA4410CC6840EA442021
:1016B0001C696FF3150420431861002010BD000061
:1016C00030B50346FAB90868401E4C68641E40EA0B
:1016D00004148868401E44EA0024C868401E44EA96
:1016E0000034088A401E44EA0044888A401E44EAC6
:1016F0000054087E401E44EA00609C6804F0704478
:101700002043986022E0C868401E0403888A401E77
:1017100044EA00509C680E4D2C40204398600868B5
:10172000401E4C68641E40EA04148868401E44EA67
:101730000024088A401E44EA0044087E401E44EA11
:101740000060DC6804F070442043D860002030BDA5
:10175000FF0F0FFFF8B504460D4616460020009017
:1017600000BF94F85C00012801D10220F8BD0120DF
:1017700084F85C0000BF2046FFF7A6FB0746A7BB26
:10178000206E20F4885040F002002066206805F4A6
:10179000803141F0004106F0804211438268194BCC
:1017A0001A401143816000BF13E00098401C009074
:1017B0001549009888420CD3206E20F0020040F0BA
:1017C0001000206600BF002084F85C0000BF0120EC
:1017D000CCE720688168C90F0029E6D1206E20F08F
:1017E000020040F00100206604E0FFE7206E40F0B8
:1017F0001000206600BF002084F85C0000BF38465F
:10180000B4E70000C0FFFE3F00F8C32570477047F3
:1018100070477047704700002DE9F0439DB00446C3
:101820000E464FF00008306800B100BF00BF94F8CA
:101830005C00012803D102201DB0BDE8F083012027
:1018400084F85C0000BF002019901A904649206877
:10185000884202D14548019001E0002001900198A2
:1018600050B9206E40F02000206600BF002084F8B0
:101870005C0000BF0120DFE7019807F0B2FB0746DC
:10188000206807F0AEFB002861D1002F5FD13649F8
:101890002068884203D035492068884201D1344805
:1018A00000E034480546306858B3A86820F440404A
:1018B00071680843A8602C492068884203D02B49EE
:1018C0002068884201D12A4800E02A4828498842F5
:1018D00009D1254807F076FB8146244807F072FBC2
:1018E00049EA000002E0244807F06CFB70BBB168D5
:1018F00030680843A96840F61F7291430843A86006
:101900002BE0A86820F44040A8601749206888426E
:1019100003D016492068884201D1154800E01548D7
:101920001349884209D1104807F04CFB81460F4803
:1019300007F048FB49EA000002E00F4807F042FBCD
:1019400020B9A86840F61F718843A86005E0206EA2
:1019500040F0200020664FF0010800BF002084F80E
:101960005C0000BF404667E70020024000210240C3
:101970000023024000630258006002582DE9F84F2E
:1019800004460D464FF0000A0020009094F84400F1
:10199000012800D105E0F9492068884200D100E023
:1019A00000BFF749E868884200D00EE0F54920689A
:1019B000884200D100BFF4492068884200D100BFAE
:1019C000EE492068884200D100BF00BF94F85C0057
:1019D000012802D10220BDE8F88F012084F85C00C4
:1019E00000BF206807F0F8FA002871D1286800F0DD
:1019F0000040C8B9E1492068884215D02068C16913
:101A00002868C0F3130018B92868C0F3846004E0A4
:101A1000286890FAA0F0B0FA80F000F01F020120D0
:101A2000904001432068C1612168D5E9002001F19F
:101A3000300CC0F3012B0CEB8B03D3F800C000F08B
:101A40001F0E4FF01F0B0BFA0EFB2CEA0B0C00F0D5
:101A50001F0BC2F3846E0EFA0BFE4CEA0E0CC3F899
:101A600000C000BF206807F0B7FA8146206807F081
:101A70009AFA0746B9F1000F7ED1002FFCD12168F8
:101A8000AA68286801F1140CC0F3406B0CEB8B03BF
:101A9000D3F800C0C0F3045E4FF0070B0BFA0EFB47
:101AA0002CEA0B0CC0F3045B02FA0BFB4CEA0B0CA8
:101AB000C3F800C000BFB1492068884209D16869F5
:101AC0002168C968C1F3C101490000FA01F825E0A5
:101AD0004BE3AE48006800F07040B0F1805F07D182
:101AE00068692168C968C1F382014900884014E02F
:101AF0002068C06800F0100038B968692168C968BA
:101B0000C1F382014900884007E068692168C9681B
:101B100001F010018908490088408046286904289E
:101B20007CD021684346D5F810C02A6801F1600BCB
:101B30000BEB8C00DFF844B259450AD1D0F800B065
:101B400002F0F84E4EF0004E4EEA030EC0F800E0F0
:101B50000BE0D0F800B00BF0004B02F0F84E4EEA6C
:101B6000030E4BEA0E0BC0F800B000BF834920689B
:101B7000884231D1206800E016E1EA6929697F4B8B
:101B800098420CD100F1600C0CEB8103D3F800C03B
:101B90002CF0807C4CEA020CC3F800C000BF00BFF0
:101BA000206895F820202969012A01D1520600E019
:101BB00000221346714A90420CD100F1600C0CEBEC
:101BC0008102D2F800C02CF0007C4CEA030CC2F871
:101BD00000C000BF00BF20E1206895F821202969DE
:101BE000012A01D1D20700E000221346634A904245
:101BF0000CD000F1600C0CEB8102D2F800C02CF08C
:101C0000004C4CEA030CC2F800C000BF00BF2068C3
:101C10002B7E2969012B02D1DB0201E00DE00023BC
:101C20001A46036923F4F04301F01F0C02FA0CFC7E
:101C300043EA0C03036100BFEFE05049206888428B
:101C400071D10021206807F0A5F9C0F3130030B965
:101C50000021206807F09EF9C0F3846007E00021AE
:101C6000206807F097F990FAA0F0B0FA80F02968A0
:101C7000C1F3130119B92968C1F3846104E029682B
:101C800091FAA1F1B1FA81F1884204D10022114602
:101C9000206807F0C3F90121206807F07BF9C0F341
:101CA000130030B90121206807F074F9C0F3846093
:101CB00007E00121206807F06DF990FAA0F0B0FA72
:101CC00080F02968C1F3130119B92968C1F384614F
:101CD00004E0296891FAA1F1B1FA81F1884204D1B6
:101CE00000220121206807F099F90221206807F0FD
:101CF00051F9C0F3130030B90221206807F04AF906
:101D0000C0F3846007E00221206807F043F990FAED
:101D1000A0F0B0FA80F02968C1F3130121B9296855
:101D2000C1F3846105E040E0296891FAA1F1B1FABC
:101D300081F1884204D100220221206807F06EF967
:101D40000321206807F026F9C0F3130030B90321FE
:101D5000206807F01FF9C0F3846007E003212068C2
:101D600007F018F990FAA0F0B0FA80F02968C1F3F2
:101D7000130169B92968C1F384610EE0006002585B
:101D80000000FF4700200240002102400010005CDC
:101D9000296891FAA1F1B1FA81F188423DD100227E
:101DA0000321206807F03AF937E02068006E00F060
:101DB000F8402978B0EB816F05D12068006E20F0E3
:101DC0000040216808662068406E00F0F8402978DD
:101DD000B0EB816F05D12068406E20F00040216893
:101DE00048662068806E00F0F8402978B0EB816F7B
:101DF00005D12068806E20F0004021688866206848
:101E0000C06E00F0F8402978B0EB816F05D12068F2
:101E1000C06E20F000402168C866206807F0CDF849
:101E200000286FD12068EA682968D64B984212D101
:101E3000D0F8B030C1F3130C23EA0C0302F0180BF6
:101E4000DFF844C32CFA0BFC0CEA010C43EA0C0348
:101E5000C0F8B03011E0D0F8C030C1F3130C23EA61
:101E60000C0302F0180BDFF820C32CFA0BFC0CEA71
:101E7000010C43EA0C03C0F8C03000BFC349E86856
:101E8000884270D1C24B206898423ED1C14B2A682B
:101E90009A4201D10122B2E0BF4B2A689A4201D195
:101EA000BE4AACE0BE4B2A689A4201D1BD4AA6E0C8
:101EB000BD4B2A689A4201D1BC4AA0E0BC4B2A68BB
:101EC0009A4201D1BB4A9AE0BB4B2A689A4201D19F
:101ED000BA4A94E0B94B2A689A4201D1B84A8EE0D6
:101EE000B74B2A689A4201D1B64A88E0B64B2A68B5
:101EF0009A4201D1B54A82E0B54B2A689A4202D192
:101F0000B44A7CE0D6E0002279E0B34B22689A42E2
:101F100038D1A04B2A689A4201D101226FE09E4B32
:101F20002A689A4201D19D4A69E09D4B2A689A42EB
:101F300001D19C4A63E09C4B2A689A4201D19B4A9A
:101F40005DE09B4B2A689A4201D19A4A57E09A4B2E
:101F50002A689A4201D1994A51E0984B2A689A42DC
:101F600002D1974A4BE062E0954B2A689A4201D130
:101F7000944A44E0964B2A689A4201D1954A3EE041
:101F800000223CE07F4B22689A4237D1814B2A687D
:101F90009A4201D1012232E07F4B2A689A4201D154
:101FA0007E4A2CE07E4B2A689A4201D17D4A26E087
:101FB0007D4B2A689A4201D17C4A20E07C4B2A68FA
:101FC0009A4201D17B4A1AE07B4B2A689A4201D19E
:101FD0007A4A14E0794B2A689A4201D1784A0EE095
:101FE000784B2A689A4201D17C4A08E07B4B2A68E8
:101FF0009A4201D17A4A02E0002200E00022114612
:10200000604A904211D0C369C1F3130212B9C1F3FF
:10201000846203E091FAA1F2B2FA82F202F01F0C9C
:10202000012202FA0CF21343C36100BF00BF28680B
:1020300000F00040F0B3564A2168914203D0664A4E
:102040002168914201D1674900E0674908468168EB
:1020500001F0E07600BF4E492068884203D05E4917
:102060002068884201D15F4800E05F485D498842AE
:1020700009D1474806F0A1FF8346574806F09DFF67
:102080004BEA000002E03F4806F097FFF0BB5749DB
:102090002868884228D106F4000028BB3949206806
:1020A000884268D13A4B22689A4205D04A4B22684E
:1020B0009A4200E035E001D14A4A00E04A4A10461F
:1020C00046F4000106F0A4FF494800684949B0FB06
:1020D000F1F0401C4000009002E00098401E00908B
:1020E00000980028F9D146E043492868884219D170
:1020F00006F08070B0B92349206888423BD1244B58
:1021000022689A4205D0344B226800E026E09A42C9
:1021100001D1344A00E0344A104646F0807106F09E
:1021200077FF28E035492868884224D106F48000EA
:1021300008BB1449206888421DD1154B22689A4279
:1021400003D0254B22689A4201D1264A00E0264A54
:10215000104646F4800106F05BFF0CE0206E40F074
:10216000200020664FF0010A05E0206E40F02000BC
:1021700020664FF0010A00BF002084F85C0000BF19
:10218000504628E400600258FFFF0F000000FF47A0
:1021900000200240020030040400600840002019C2
:1021A0000800900C8000501D1000C010000180211C
:1021B0002000F0140002B0250004002A0008302E90
:1021C000001060320020903600002143000052478A
:1021D0000000844B0000B84F002102400040C03A8C
:1021E0000080F03E0023024000630258000052C706
:1021F00014000020400D0300000021C3000084CB28
:10220000054A0168914205D10449097811B90121B3
:10221000024A117070470000002002403C0000207C
:10222000704770472DE9F84F044600200090206861
:10223000056820684668CD4A2168914203D0CC4A9F
:102240002168914201D1CB4900E0CB49084606F014
:102250009CFE074605F00200022811D106F002009C
:1022600002280DD1206E00F0100018B9206E40F445
:10227000006020662046FFF7C9FA02202168086046
:1022800005F00400042803D106F00400042807D058
:1022900005F0080008285DD106F00800082859D18B
:1022A000206E00F0100018B9206E40F40070206617
:1022B000206806F09BFE002846D0AD492068884281
:1022C00001D1AA4800E020682168884204D01FB1EB
:1022D000052F01D0092F03D12068D0F80C8009E028
:1022E000A3492068884201D1A04800E020688346C5
:1022F000DBF80C8008F40050B0F5005F24D02068B3
:10230000006800F0080008281ED1206806F064FE6E
:1023100090B92068406820F00C0021684860206E69
:1023200020F480702066206E00F4805060B9206E2A
:1023300040F00100206607E0206E40F010002066AB
:10234000606E40F0010060662046FFF759FF0C20E8
:102350002168086005F02000202803D106F0200045
:10236000202807D005F04000402870D106F040003A
:1023700040286CD1206E00F0100018B9206E40F497
:10238000005020662068C16C01F4C07109B90121B8
:1023900000E000218A4600BF206806F027FE814643
:1023A00073492068884201D1704800E020682168A4
:1023B000884204D01FB1062F01D0072F03D1206817
:1023C000D0F80C8009E06A492068884201D167484A
:1023D00000E020688346DBF80C80BAF1000F30D0B3
:1023E00008F0007028B1B9F1000F2AD008F40050AD
:1023F00038BB2068006800F04000402821D108F474
:102400000010F0B9206806F0CEFD90B92068406851
:1024100020F0600021684860206E20F48050206623
:10242000206E00F4807060B9206E40F001002066DC
:1024300007E0206E40F010002066606E40F0010062
:1024400060662046FFF7E3F960202168086005F028
:10245000800080280DD106F08000802809D1206EF0
:1024600040F480302066204600F028FA8020216861
:10247000086005F48070B0F5807F0FD106F480709D
:10248000B0F5807F0AD1206E40F4003020662046EF
:10249000FFF7BFF94FF480702168086005F4007001
:1024A000B0F5007F0FD106F40070B0F5007F0AD1BF
:1024B000206E40F4802020662046FFF7ABF94FF4F1
:1024C00000702168086005F01000102833D106F074
:1024D000100010282FD1E06B10B90120009019E0F6
:1024E0008FB1224A2168914203D0214A216891424A
:1024F00001D1204900E02049084606F041FD48B1DD
:102500000120009006E02068C06800F0030008B1D8
:1025100001200090009801280AD1206E40F48060CC
:102520002066606E40F0020060662046FFF779FE8C
:1025300010202168086005F48060B0F5806F13D129
:1025400006F48060B0F5806F0ED1206E40F48040BC
:102550002066606E40F0080060664FF4806021687D
:1025600008602046FFF754F9BDE8F88F00200240CC
:102570000021024000230240006302582DE9F84F79
:1025800004464FF000090020009014B90120BDE876
:10259000F88F206920B12020005D012800D100BF04
:1025A000206E30B9204600F08BF90020606684F878
:1025B0005C0020688168C1F3407131B12068816896
:1025C000B24A1140816000BF00BF206806F0FFFCE6
:1025D000A8B920688168AE4A114041F080518160FD
:1025E00000BFAC480068AC49B0FBF1F0401C009063
:1025F00002E00098401E009000980028F9D1206861
:1026000006F0E5FC48B9206E40F010002066606ED0
:1026100040F0010060664FF00109206806F0DCFC24
:102620000646206E00F0100000287DD1002EFCD15F
:10263000206E20F4807040F002002066206806F0D2
:10264000BCFC78BB95492068884203D09449206837
:10265000884201D1934800E093489249884209D1C9
:102660008E4806F0AAFC82468D4806F0A6FC4AEA8F
:10267000000002E08D4806F0A0FC98B9874B226864
:102680009A4203D0864B22689A4201D1854A00E0E3
:10269000854A10466168826822F47C120A4382608F
:1026A00000BF00BF81492068884223D1607EE16B72
:1026B00041EA4030E1680843A168082901D10021BE
:1026C0000FE0A1680C2901D104210AE0A1681C29AE
:1026D00001D1082105E0A168182901D11C2100E0E1
:1026E000002101F00C0140EA41012020005D41EA97
:1026F000004509E0607EE16B41EA4030A168084393
:102700002021095D40EA01452020005D012803D118
:10271000A08C401E45EA4045A06A38B1208D00F4E7
:102720007870E16A084300E0A7E005435F4920684C
:1027300088420FD12068C0685D490840284321685D
:10274000C8602068006920F04060616B0843216820
:10275000086106E02068C06856490840284321689F
:10276000C860206806F038FC8046206806F01BFC34
:102770000746B8F1000F66D1002F64D14B4920689D
:10278000884206D1207E810394F8380041EA400552
:1027900003E0207E216B41EA80352068C06844F266
:1027A0000301884328432168C86094F84400012845
:1027B00034D13E492068884200D100E000BFA06AC1
:1027C00008B1E06A00B900BF38492068884210D1DA
:1027D000A06C40F00101E06C0843216D0843616D7D
:1027E000084321680969344A114008432168086197
:1027F0001AE0B4F84800401E012141EA0041E06CB3
:102800000843216D0843616D0843216809692A4A1C
:10281000521E114008432168086105E020680069E4
:1028200020F00100216808612068006920F07040F4
:10283000216C0843216808611C492068884202D045
:102840002046FEF7BBF92069012809D12068006BFA
:1028500020F00F00E169491E08432168086305E084
:102860002068006B20F00F0021680863206E20F0C4
:10287000020040F00100206605E0206E40F01000EC
:1028800020664FF00109484681E60000C0FFFF5F67
:10289000C0FFFF7F14000020400D03000020024015
:1028A00000210240002302400063025800600258E9
:1028B0000740F0FF03C0F0FF1FF800FC7047000066
:1028C00010B5B6B00446142130A8FDF78AFDB82132
:1028D00002A8FDF786FD3149206888425BD14FF49C
:1028E00000210020CDE9021088102A9002A803F0F0
:1028F0007DFE08B1FEF772FE00BF2948006840F077
:102900002000274908600846006800F02000019078
:1029100000BF00BF00BF22480830006840F004003C
:102920001F49083108600846006800F00400019063
:1029300000BF00BF20203090032031900020329053
:1029400030A9184802F00AF8174818490860092009
:102950004860002115488160C1604FF480610161C9
:1029600049004161890081614911C1610021016211
:10297000416201F0CFFA08B1FEF730FE00BF0B480C
:10298000A065846300BF00220121122002F0E6F955
:10299000122002F0CFF936B010BD00000020024036
:1029A000D84402580008025810000240BC00002021
:1029B0002DE9F04104460F469046514A2168914264
:1029C00003D0504A2168914201D14F4900E04F495C
:1029D000084606F0DAFA0646206806F0FDFA0028F6
:1029E0007CD100BF94F85C00012802D10220BDE830
:1029F000F081012084F85C0000BF1EB1052E01D0DB
:102A0000092E73D12046FEF7A9FA0546002D68D19C
:102A1000206E40F60161884340F480702066394999
:102A20002068884201D1364800E020682168884249
:102A300000D01EB9206E20F480102066206E00F4B5
:102A4000805020B1606E20F00600606601E000203A
:102A500060662F48A16DC8632E48A16D08642E489A
:102A6000A16DC8641C202168086000BF002084F8A4
:102A70005C0000BF2068406840F01000216848609A
:102A800026492068884213D194F8382051002068E4
:102A9000224A904204D1C26822F003020A43C26073
:102AA00000BF2068C16841F00101C16000BF08E0BB
:102AB000216B2068C26822F003020A43C26000BF93
:102AC00000BF226802F1400143463A46A06D01F082
:102AD000ABFC0546206806F093FA0EE00CE005E03A
:102AE000FFE700BF002084F85C0006E0012500BF7E
:102AF000002084F85C0000E00225284677E700000B
:102B000000200240002102400023024000630258DE
:102B1000090E0008B90E00089B0E0008006002585C
:102B200070B5044600BF94F85C00012801D1022072
:102B300070BD012084F85C0000BF03212046FEF731
:102B4000D5F805464DBB2068C06820F00300216819
:102B5000C860A06D90F83500022808D1A06D00F083
:102B600023F805461DB1206E40F040002066206825
:102B7000406820F010002168486025B92046FEF723
:102B8000A3F9054602E02046FEF79EF92DB9206E16
:102B900020F4885040F00100206600BF002084F837
:102BA0005C0000BF2846C3E72DE9F041044601F070
:102BB000DDFF804614B90120BDE8F08194F83500AE
:102BC000022808D08020606500BF002084F834000F
:102BD00000BF0120F0E7FE492068884249D0FC4947
:102BE00018312068884244D0F94930312068884241
:102BF0003FD0F7494831206888423AD0F4496031E3
:102C00002068884235D0F24978312068884230D037
:102C1000EF499031206888422BD0ED49A8312068D7
:102C2000884226D0EB492068884222D0E9491831F1
:102C3000206888421DD0E74930312068884218D08A
:102C4000E44948312068884213D0E2496031206865
:102C500088420ED0DF4978312068884209D0DD49AA
:102C600090312068884204D0DA49A831206888422F
:102C700001D1012000E0002068B12068006820F048
:102C80001E00216808602068406920F080002168EB
:102C90004861256806E02068006820F00E00216881
:102CA00008602568CA492068884270D0C849183130
:102CB000206888426BD0C64930312068884266D08F
:102CC000C34948312068884261D0C14960312068D9
:102CD00088425CD0BE4978312068884257D0BC49D0
:102CE00090312068884252D0B949A8312068884282
:102CF0004DD0B8492068884249D0B649183120687B
:102D0000884244D0B3493031206888423FD0B1492D
:102D10004831206888423AD0AE4960312068884204
:102D200035D0AC4978312068884230D0A9499031FB
:102D3000206888422BD0A749A8312068884226D035
:102D4000A5492068884222D0A349143120688842CE
:102D50001DD0A14928312068884218D09E493C31B5
:102D60002068884213D09C495031206888420ED098
:102D7000994964312068884209D0974978312068A0
:102D8000884204D094498C312068884201D10120C6
:102D900000E0002028B1206E006820F48070216ED1
:102DA00008608B492068884249D0894918312068D9
:102DB000884244D086493031206888423FD08449D7
:102DC0004831206888423AD0814960312068884281
:102DD00035D07F4978312068884230D07C499031A5
:102DE000206888422BD07A49A8312068884226D0B2
:102DF00078492068884222D0764918312068884274
:102E00001DD0744930312068884218D0714948314A
:102E10002068884213D06F496031206888420ED004
:102E20006C4978312068884209D06A49903120681D
:102E3000884204D06749A8312068884206D12068BA
:102E4000006820F001002168086005E02068006843
:102E500020F001002168086011E001F087FEA0EB7E
:102E6000080005280BD920206065032084F8350070
:102E700000BF002084F8340000BF01209CE62868D1
:102E800000F001000028E8D151492068884249D06B
:102E90004F4918312068884244D04D49303120686C
:102EA00088423FD04A494831206888423AD0484950
:102EB00060312068884235D04549783120688842A1
:102EC00030D043499031206888422BD04049A83106
:102ED0002068884226D03F492068884222D03D4958
:102EE0001831206888421DD03A4930312068884224
:102EF00018D0384948312068884213D035496031AC
:102F0000206888420ED0334978312068884209D041
:102F1000304990312068884204D02E49A831206879
:102F2000884201D1012000E0002040B1A66D94F854
:102F30005C0000F01F013F208840B06007E0A76DF3
:102F400094F85C0000F01F0101208840786020495F
:102F50002068884276D01E4918312068884271D096
:102F60001B493031206888426CD0194948312068AB
:102F7000884267D0164960312068884262D014497F
:102F80007831206888425DD01149903120688842AC
:102F900058D00F49A8312068884253D00D49206885
:102FA00088424FD00B491831206888424AD00949DD
:102FB00030312068884245D006494831206888422F
:102FC00040D004496031206888423BD0014905E087
:102FD0001000024010040240085402587831206862
:102FE00088422FD02549206888422BD023491831A8
:102FF0002068884226D022492068884222D0204971
:103000001431206888421DD01D492831206888422B
:1030100018D01B493C312068884213D018495031E0
:10302000206888420ED0164964312068884209D051
:10303000134978312068884204D011498C312068C6
:10304000884201D1012000E0002068B1D4E91910C4
:103050004860E06E40B1E06E006820F48070E16E80
:103060000860D4E91C104860012084F8350000BFD6
:10307000002084F8340000BF00BF9DE5A00402409A
:103080000854025870B504460CB9012070BD94F87C
:103090003500022803D0802060650120F6E7DC4976
:1030A0002068884249D0DA4918312068884244D0E3
:1030B000D7493031206888423FD0D549483120680F
:1030C00088423AD0D24960312068884235D0D04910
:1030D00078312068884230D0CD49903120688842CC
:1030E0002BD0CB49A8312068884226D0C949206816
:1030F000884222D0C7491831206888421DD0C5496E
:1031000030312068884218D0C2494831206888424E
:1031100013D0C0496031206888420ED0BD49783153
:103120002068884209D0BB4990312068884204D089
:10313000B849A8312068884201D1012000E0002070
:10314000F0B3042084F83500B149206888424BD0A0
:10315000AF4918312068884246D0AD4930312068E7
:10316000884241D0AA494831206888423CD0A849C9
:1031700060312068884237D0A5497831206888427C
:1031800032D0A3499031206888422DD0A049A8317F
:103190002068884228D09F492068884224D09D49D1
:1031A0001831206888421FD09A49303120688842FF
:1031B0001AD0984948312068884215D0954900E0D6
:1031C00020E06031206888420ED092497831206832
:1031D000884209D08F4990312068884204D08D49B7
:1031E000A8312068884206D12068006820F00100DC
:1031F0002168086009E12068006820F0010021686A
:10320000086002E12068006820F00E002168086074
:103210007F492068884249D07D491831206888421A
:1032200044D07B493031206888423FD078494831CA
:10323000206888423AD0764960312068884235D08B
:10324000734978312068884230D0714990312068C4
:1032500088422BD06E49A8312068884226D06D491B
:103260002068884222D06B491831206888421DD0DE
:10327000684930312068884218D066494831206852
:10328000884213D063496031206888420ED061497A
:1032900078312068884209D05E49903120688842A0
:1032A00004D05C49A8312068884206D120680068B3
:1032B00020F001002168086005E02068006820F027
:1032C00001002168086052492068884270D0504946
:1032D0001831206888426BD04D49303120688842CF
:1032E00066D04B4948312068884261D048496031F6
:1032F000206888425CD0464978312068884257D09F
:10330000434990312068884252D04149A831206811
:1033100088424DD03F492068884249D03D49183104
:103320002068884244D03B493031206888423FD0F1
:1033300038494831206888423AD03649603120689F
:10334000884235D0334978312068884230D03149BD
:103350009031206888422BD02E49A83120688842BD
:1033600026D02D492068884222D02B49143120686C
:1033700088421DD0284928312068884218D0264923
:103380003C312068884213D023495031206888425C
:103390000ED0214964312068884209D01E49783115
:1033A0002068884204D01C498C312068884201D1B1
:1033B000012000E00020D8B1206E006820F4807069
:1033C000216E0860A56D94F85C0000F01F010120DB
:1033D00088406860D4E919104860E06E40B1E06E42
:1033E000006820F48070E16E0860D4E91C10486029
:1033F000012084F8350000BF002084F8340000BFAD
:10340000206D10B12046216D884700203EE6000067
:103410001000024010040240085402582DE9F84FF1
:10342000044600200090FE4800684FF41651B0FB9F
:10343000F1FAA66DD4F858803768D8F80090F949A9
:103440002068884249D0F74918312068884244D022
:10345000F4493031206888423FD0F2494831206831
:1034600088423AD0EF4960312068884235D0ED4932
:1034700078312068884230D0EA499031206888420B
:103480002BD0E849A8312068884226D0E649206838
:10349000884222D0E4491831206888421DD0E24990
:1034A00030312068884218D0DF494831206888428E
:1034B00013D0DD496031206888420ED0DA49783176
:1034C0002068884209D0D84990312068884204D0C9
:1034D000D549A8312068884201D1012000E00020B0
:1034E00000287DD094F85C0000F01F01082088407F
:1034F0003840002868D0CB492068884249D0C94963
:1035000018312068884244D0C6493031206888424A
:103510003FD0C4494831206888423AD0C14960311F
:103520002068884235D0BF4978312068884230D041
:10353000BC499031206888422BD0BA49A831206814
:10354000884226D0B8492068884222D0B64918312E
:10355000206888421DD0B44930312068884218D094
:10356000B14948312068884213D0AF4960312068A2
:1035700088420ED0AC4978312068884209D0AA49E7
:1035800090312068884204D0A749A8312068884239
:1035900004D12068006800F0040003E0206800689F
:1035A00000F0080080B12068006820F00400216865
:1035B000086094F85C0000F01F0108208840B060AB
:1035C000606D40F00100606594F85C0000F01F0140
:1035D000012088403840E8B392492068884200E0E2
:1035E000B7E24BD08F4918312068884246D08D49C8
:1035F00030312068884241D08A4948312068884269
:103600003CD0884960312068884237D0854978317C
:103610002068884232D083499031206888422DD07A
:103620008049A8312068884228D07F492068884294
:1036300024D07D491831206888421FD07A49303122
:10364000206888421AD0784948312068884215D0CD
:10365000754900E026E06031206888420ED072494A
:1036600078312068884209D06F49903120688842BB
:1036700004D06D49A8312068884204D1206840698F
:1036800000F0800002E020680068002050B194F84B
:103690005C0000F01F0101208840B060606D40F0C8
:1036A0000200606594F85C0000F01F01042088406F
:1036B0003840E8B35B49206888424BD059491831FB
:1036C0002068884246D0574930312068884241D02E
:1036D00054494831206888423CD0524960312068C2
:1036E000884237D04F4978312068884232D04D49DE
:1036F0009031206888422DD04A49A83120688842FC
:1037000028D049492068884224D047491831206888
:1037100088421FD044493031206888421AD042493B
:1037200048312068884215D03F496031206800E068
:1037300024E088420ED03C4978312068884209D084
:10374000394990312068884204D03749A83120682F
:10375000884204D12068006800F0020002E020687E
:103760000068002050B194F85C0000F01F010420B4
:103770008840B060606D40F00400606594F85C00C3
:1037800000F01F01102088403840E8B32549206828
:10379000884251D023491831206888424CD02149B1
:1037A00030312068884247D01E494831206888421D
:1037B00042D01C496031206888423DD01949783197
:1037C0002068884238D0174990312068884233D029
:1037D0001449A831206888422ED0134920688842B5
:1037E0002AD0114918312068884225D00E4930313D
:1037F0002068884220D00C494831206888421BD07C
:1038000009496031206800E04DE0884214D0064943
:103810007831206888420FD003499031206805E054
:10382000140000201000024010040240884203D01F
:10383000FE492068884204D12068006800F0080032
:1038400003E02068006800F0040060B394F85C00B6
:1038500000F01F0110208840B0602068006800F46C
:10386000802080B12068006800F4002028B9206C16
:10387000C8B12046216C884715E0A06C98B120465D
:10388000A16C88470FE02068006800F4807028B9B8
:103890002068006820F0080021680860206C10B1E2
:1038A0002046216C884794F85C0000F01F0120201E
:1038B0008840384000287DD0DD492068884249D0C2
:1038C000DB4918312068884244D0D949303120681A
:1038D00088423FD0D6494831206888423AD0D449FE
:1038E00060312068884235D0D149783120688842DB
:1038F00030D0CF499031206888422BD0CC49A831B4
:103900002068884226D0C949A8392068884221D039
:10391000C6499039206888421CD0C449783920684B
:10392000884217D0C14960392068884212D0BF4907
:103930004839206888420DD0BC4930392068884217
:1039400008D0BA4918392068884203D0B74920689E
:10395000884204D12068006800F0100003E020686D
:10396000006800F0020028B394F85C0000F01F012A
:1039700020208840B06094F8350004282DD12068BC
:10398000006820F01600216808602068406920F077
:10399000800021684861206C08B9A06C28B12068BB
:1039A000006820F008002168086094F85C0000F0CE
:1039B0001F0100E03FE03F208840B060012084F814
:1039C000350000BF002084F8340000BF206D10B126
:1039D0002046216D8847BDE8F88F2068006800F414
:1039E000802080B12068006800F4002028B9606C55
:1039F00008B32046616C88471DE0E06BD8B12046D3
:103A0000E16B884717E02068006800F4807068B9AF
:103A10002068006820F0100021680860012084F808
:103A2000350000BF002084F8340000BFE06B10B107
:103A30002046E16B8847606D00287AD0606D00F009
:103A40000100E8B3042084F83500794920688842F1
:103A50004BD0774918312068884246D074493031BC
:103A60002068884241D072494831206888423CD061
:103A70006F4960312068884237D06D4978312068BD
:103A8000884232D06A499031206888422DD06849F6
:103A9000A8312068884228D06449A8392068884223
:103AA00023D062499039206888421ED05F49783916
:103AB0002068884219D05D4960392068884200E05A
:103AC00040E012D059494839206888420DD0574902
:103AD00030392068884208D0544918392068884213
:103AE00003D052492068884206D12068006820F03F
:103AF00001002168086005E02068006820F00100EE
:103B00002168086000BF0098401C0090504500D913
:103B100005E02068006800F001000028F3D100BF34
:103B20002068006800F0010020B1032084F835000F
:103B300003E00DE0012084F8350000BF002084F888
:103B4000340000BFE06C002802D02046E16C8847BA
:103B5000D9E138492068884222D03649143120689A
:103B600088421DD0334928312068884218D0314915
:103B70003C312068884213D02E4950312068884259
:103B80000ED02C4964312068884209D02949783107
:103B90002068884204D027498C312068884201D1AE
:103BA000012000E000200028D2D02068056894F8A9
:103BB0005C0000F01F010420884000EA0900D8B32F
:103BC00005F00400C0B394F85C0000F01F0104206D
:103BD0008840C8F8040005F4004080B105F4803046
:103BE00030B9A06C0028B3D02046A16C88478AE188
:103BF000206C0028ACD02046216C884783E105F07A
:103C00002000E8BB0A492068884253D0084918318F
:103C1000206888424ED0064930312068884249D019
:103C2000034948312068884244D006E0B804024085
:103C300010000240085402584FE0B4496031206837
:103C4000884237D0B14978312068884232D0AF49B4
:103C50009031206888422DD0AC49A8312068884234
:103C600028D0AB492068884224D0A949183120685F
:103C700088421FD0A6493031206888421AD000E01F
:103C800025E0A34948312068884213D0A04960311B
:103C9000206888420ED09E4978312068884209D039
:103CA0009B4990312068884204D09949A831206806
:103CB000884206D12068006820F00800216808606A
:103CC00005E02068006820F0040021680860206C8E
:103CD00010B32046216C884715E194F85C0000F091
:103CE0001F010220884000EA0900E8B305F0020045
:103CF000D0B394F85C0000F01F0102208840C8F89F
:103D0000040005F4004070B105F4803028B9606CFF
:103D100010B12046616C8847F5E0E06BF0B32046B7
:103D2000E16B8847EFE005F02000C0BB77492068D1
:103D300088424ED0754918312068884249D073496D
:103D400030312068884244D0704948312068884228
:103D50003FD06E496031206888423AD06B49783153
:103D60002068884235D000E04EE0684990312068F4
:103D700088422ED06549A8312068884229D06449FC
:103D80002068884225D0624918312068884220D0B6
:103D90005F493031206888421BD001E06EE02DE0A1
:103DA0005B4948312068884213D059496031206806
:103DB00088420ED0564978312068884209D054494B
:103DC00090312068884204D05149A8312068884247
:103DD00006D12068006820F014002168086005E022
:103DE0002068006820F00A0021680860012084F83B
:103DF000350000BF002084F8340000BFE06BE8B35A
:103E00002046E16B88477EE094F85C0000F01F01DB
:103E10000820884000EA090080B305F0080068B374
:103E20003A49206888424BD0384918312068884286
:103E300046D0364930312068884241D03349483134
:103E4000206888423CD0314960312068884237D0B0
:103E50002E4978312068884232D02C499031206830
:103E600088422DD02949A8312068884228D0284985
:103E70002068884224D02649183100E043E02068B9
:103E800088421DD0224930312068884218D020490C
:103E900048312068884213D01D496031206888422B
:103EA0000ED01B4978312068884209D018499031DA
:103EB0002068884204D01649A8312068884206D17B
:103EC0002068006820F01C002168086005E0206878
:103ED000006820F00E002168086094F85C0000F093
:103EE0001F0101208840C8F804000120606584F8A3
:103EF000350000BF002084F8340000BFE06C10B132
:103F00002046E16C884700BF65E5000010000240D4
:103F1000100402402DE9F041044600F027FE8046DF
:103F200014B90120BDE8F081FE492068884249D0DB
:103F3000FC4918312068884244D0FA493031206861
:103F400088423FD0F7494831206888423AD0F54945
:103F500060312068884235D0F24978312068884243
:103F600030D0F0499031206888422BD0ED49A831FB
:103F70002068884226D0EC492068884222D0EA494D
:103F80001831206888421DD0E749303120688842C6
:103F900018D0E54948312068884213D0E2496031A1
:103FA000206888420ED0E04978312068884209D0E4
:103FB000DD4990312068884204D0DB49A83120686F
:103FC000884201D1012000E00020002873D0606AFF
:103FD00000B100BF022084F8350000BF002084F843
:103FE000340000BFCF492068884249D0CD491831FC
:103FF0002068884244D0CB493031206888423FD085
:10400000C8494831206888423AD0C64960312068A2
:10401000884235D0C34978312068884230D0C149C0
:104020009031206888422BD0BE49A8312068884250
:1040300026D0BD492068884222D0BB49183120686B
:1040400088421DD0B84930312068884218D0B6491E
:1040500048312068884213D0B349603120688842D3
:104060000ED0B14978312068884209D0AE499031EC
:104070002068884204D0AC49A8312068884206D123
:104080002068006820F001002168086005E02068D1
:10409000006820F00100216808600DE000F066FD76
:1040A000A0EB0800052807D920206065032084F8CC
:1040B0003500012036E769E02068006800F0010063
:1040C0000028EBD12068056898480540D4E9020132
:1040D00008432169084361690843A1690843E1690C
:1040E0000843216A08430543606A042803D1D4E9E0
:1040F0000B01084305436068292802D360682E2815
:1041000017D960683F2802D36068422811D96068D7
:10411000472802D3606848280BD960684F2802D32B
:104120006068522805D96068742804D360687728CD
:1041300001D8012000E0002008B145F48015206876
:1041400005602068456925F00705606A0543606AD7
:1041500004280DD1A06A0543E06A48B12046FDF766
:10416000A9F828B140206065012084F83500D9E61F
:10417000206845612046FCF779FF064694F85C000C
:1041800000F01F013F208840B0609EE06849206831
:10419000884222D066491431206888421DD0644983
:1041A00028312068884218D061493C312068884213
:1041B00013D05F495031206888420ED05C49643189
:1041C0002068884209D05A4978312068884204D052
:1041D00057498C312068884201D1012000E000203D
:1041E000E0B353492068884222D0514914312068F5
:1041F00088421DD04E4928312068884218D04C4949
:104200003C312068884213D04949503120688842A7
:104210000ED0474964312068884209D0444978313A
:104220002068884204D042498C312068884201D1FC
:10423000012000E0002000B100BF022084F835001A
:1042400000BF002084F8340000BF206805683948AA
:104250000540A068402802D1102106E02EE0A068A9
:10426000802801D1C10100E00021E06841EAD001CD
:10427000206941EAD001606941EAD001A06941EAC0
:10428000D001E06941EAD001206A41EA10100543FB
:104290002068056026492068401A1421B0FBF1F01F
:1042A0008000E0652046FCF7E1FE074694F85C00DC
:1042B00000F01F0101208840786006E04020606522
:1042C000032084F8350001202CE616492068884236
:1042D0007AD0144918312068884275D0114930319C
:1042E0002068884270D00F494831206888426BD0DE
:1042F0000C4960312068884266D00A4978312068CC
:10430000884261D007499031206888425CD00549D5
:10431000A8312068884257D003492068884253D08A
:10432000014909E010000240100402403F8010FEE5
:10433000085402580F00FEFF18312068884243D00D
:104340003749206888423FD0354918312068884273
:104350003AD0334930312068884235D0304948312D
:104360002068884230D02E496031206888422BD0A6
:104370002B4978312068884226D02A492068884213
:1043800022D028491431206888421DD0254928317F
:104390002068884218D023493C312068884213D0D5
:1043A00020495031206888420ED01E49643120686F
:1043B000884209D01B4978312068884204D01949C5
:1043C0008C312068884201D1012000E0002000B338
:1043D0002046FCF7C1FEA068802801D10020606063
:1043E0002079216E0860D4E919104860606860B1D6
:1043F0006068082809D82046FCF710FF0020E16E0D
:104400000860D4E91C10486003E00020E0662067E3
:10441000606700206065012084F83500002081E598
:1044200040040240085402582DE9F04104460D466C
:1044300016461F464FF0000814B90120BDE8F08170
:1044400000BF94F83400012801D10220F6E70120D2
:1044500084F8340000BF94F8350001287ED1022092
:1044600084F8350000206065E4492068884249D01E
:10447000E24918312068884244D0E0493031206850
:1044800088423FD0DD494831206888423AD0DB4934
:1044900060312068884235D0D84978312068884218
:1044A00030D0D6499031206888422BD0D349A831EA
:1044B0002068884226D0D2492068884222D0D0493C
:1044C0001831206888421DD0CD493031206888429B
:1044D00018D0CB4948312068884213D0C849603190
:1044E000206888420ED0C64978312068884209D0B9
:1044F000C34990312068884204D0C149A83120685E
:10450000884206D12068006820F001002168086018
:1045100005E02068006820F00100216808603B4643
:10452000324629462046FCF71DFFB44920688842E0
:104530004BD0B24918312068884246D0AF4930315B
:104540002068884241D0AD494831206888423CD03B
:10455000AA4960312068884237D000E042E1A7498B
:1045600078312068884230D0A44990312068884250
:104570002BD0A249A8312068884226D0A0492068C3
:10458000884222D09E491831206888421DD09C491B
:1045900030312068884218D09949483120688842D3
:1045A00013D097496031206888420ED09449783101
:1045B0002068884209D0924990312068884204D00E
:1045C0008F49A8312068884201D1012000E00020F5
:1045D00080B12068006820F01E0040F016002168BD
:1045E0000860206CB0B12068006840F008002168C5
:1045F00008600FE02068006820F00E0040F00A001C
:1046000021680860206C28B12068006840F0040030
:104610002168086079492068884270D0774918314C
:10462000206888426BD0754930312068884266D056
:10463000724948312068884261D0704960312068F1
:1046400088425CD06D4978312068884257D06B49E8
:1046500090312068884252D06849A8312068884249
:104660004DD067492068884249D065491831206893
:10467000884244D062493031206888423FD0604946
:104680004831206888423AD05D49603120688842CC
:1046900035D05B4978312068884230D05849903114
:1046A000206888422BD05649A8312068884226D0FD
:1046B00054492068884222D05249143120688842E7
:1046C0001DD0504928312068884218D04D493C31CE
:1046D0002068884213D04B495031206888420ED060
:1046E000484964312068884209D0464978312068B9
:1046F000884204D043498C312068884201D101208E
:1047000000E0002090B1206E006800F4803028B1F5
:10471000206E006840F48070216E0860E06E28B161
:10472000E06E006840F48070E16E086033492068F4
:10473000884249D0314918312068884244D02F49F5
:104740003031206888423FD02C4948312068884267
:104750003AD02A4960312068884235D027497831DB
:104760002068884230D025499031206888422BD07B
:104770002249A8312068884226D0214920688842F1
:1047800022D01F491831206888421DD01C49303181
:104790002068884218D01A4948312068884213D0CE
:1047A00017496031206888420ED015497831206859
:1047B000884209D0124990312068884204D01049BB
:1047C000A8312068884206D12068006840F00100C6
:1047D0002168086010E02068006840F0010021684E
:1047E000086009E04FF40060606500BF002084F8B5
:1047F000340000BF4FF0010840461FE610000240A1
:10480000100402400854025870B5044600F0AEF996
:1048100006462546681C10B104480078054400BFD0
:1048200000F0A4F9801BA842FAD370BD100000204C
:1048300000B5B5B0142130A8FBF7D3FD3F480068A0
:1048400008B135B000BD01203C490860B82102A87C
:10485000FBF7C7FD4FF080710020CDE902101490E6
:1048600002A801F0C3FE08B1FCF7B8FE00BF34484F
:10487000006840F48050324908600846006800F43F
:104880008050019000BF00BF4FF63F0030900220E3
:10489000319000203290032033900C20349030A9C6
:1048A000284800F05BF80C20309002203190002066
:1048B0003290032033900C20349030A9224800F02D
:1048C0004DF880203090022031900020329003205B
:1048D00033900C20349030A91C4800F03FF848F287
:1048E0003710309002203190002032900320339016
:1048F0000C20349030A9164800F030F84FF6837041
:1049000030900220319000203290032033900C2010
:10491000349030A90F4800F021F84CF20370309029
:104920000220319000203290032033900C203490EC
:1049300030A9094800F012F800BF82E7000000200B
:10494000D4440258001402580008025800000258CB
:104950000018025800100258000C0258F8B5024620
:104960000B4600216D4DD2E001278F401E6806EAFC
:104970000704002C72D01E7906F00306012E04D025
:104980001E7906F00306022E13D190684F0003260D
:10499000BE40B0434F00DE68BE4030439060506878
:1049A00001268E40B0431E79C6F300168E40304378
:1049B00050601E7906F00306032E09D0D0684F0020
:1049C0000326BE40B0434F009E68BE403043D060D7
:1049D0001E7906F00306022E13D1CF0802F120063D
:1049E00056F827004E07F70E0F26BE40B0434F077C
:1049F000FF0E1E69BE403043CF0802F1200646F884
:104A0000270010684F000326BE40B0431E7906F011
:104A100003064F00BE40304310605E6806F4403627
:104A2000002E73D000BF3E4E366846F002063C4F63
:104A30003E603E46366806F00206009600BF00BFA4
:104A4000384E8F0856F827008E07370F0F26BE40C6
:104A5000B043354EB24202D1002629E056E0334E33
:104A6000B24201D1012623E0314EB24201D10226E9
:104A70001EE0304EB24201D1032619E02E4EB24262
:104A800001D1042614E02D4EB24201D105260FE0DB
:104A90002B4EB24201D106260AE02A4EB24201D183
:104AA000072605E0284EB24201D1092600E00A2679
:104AB0008F073F0FBE4030431A4E8F0846F827003D
:104AC0004FF0B0463068A0435E6806F4801606B129
:104AD00020434FF0B04630607068A0435E6806F433
:104AE000001606B120434FF0B04670606868A043DE
:104AF0005E6806F4003606B1204368602868A0436B
:104B00005E6806F4803606B120432860491C1E68A2
:104B1000CE40002E7FF428AFF8BD00008000005882
:104B2000F4440258080400580000025800040258D7
:104B300000080258000C02580010025800140258D5
:104B400000180258001C02580024025810B542698F
:104B500021EA020302EA010443EA0443836110BD2F
:104B60000AB1816101E00B0483617047014800686C
:104B700070470000080000200348006803490978D6
:104B80000844014908607047080000201000002018
:104B900010B5032000F020F902F066FD1049096805
:104BA000C1F303210F4A515C01F01F0120FA01F407
:104BB0000B48006800F00F001146085C00F01F0071
:104BC00024FA00F008490860084804600F2000F04B
:104BD0000FF808B1012010BD00F09AF80020FAE7A4
:104BE0001844025894C10008180000201400002046
:104BF00070B504461148007808B9012070BD0F480F
:104C000000784FF47A71B1FBF0F00D490968B1FBFF
:104C1000F0F5284603F05BFA08B10120EEE7102C0E
:104C200007D200222146501E00F098F80548046083
:104C300001E00120E2E70020E0E700001000002092
:104C4000140000200C0000204178154A116014491E
:104C50000831096821F00101114A08321160121F60
:104C600041681160017B0907C27A41EA0261827AD8
:104C700041EAC241427B41EA8241827B41EA4241B0
:104C8000C27B41EA0241427A41EA0221027A41EAC8
:104C9000420102781143024A083211607047000055
:104CA00098ED00E000BF00BF00BFBFF35F8F00BF03
:104CB00000BF00BF0548006820F480300349086049
:104CC00000200249703108607047000024ED00E0C8
:104CD00040F001010D4A11600C497039096841F436
:104CE00080310A4A703A116000BF00BF00BFBFF3B5
:104CF0004F8F00BF00BF00BF00BF00BF00BFBFF3AA
:104D00006F8F00BF00BF00BF7047000094ED00E050
:104D100008B500BF0648006840F00200044908607A
:104D20000846006800F00200009000BF00BF08BD08
:104D3000F44402580146084600280DDB00BF00BFBE
:104D400000F01F0301229A4043099B0003F1E02376
:104D5000C3F8002100BF00BF00BF70472DE9F05F1E
:104D600080460D46164606F005F9074639462A469E
:104D7000334601F00700C0F1070ABAF1040F02D967
:104D80004FF0040A01E0C0F1070AD14600F1040A1D
:104D9000BAF1070F02D24FF0000A01E0A0F1030AB6
:104DA000D4464FF0010A0AFA09FAAAF1010A0AEAFE
:104DB000020A0AFA0CFA4FF0010B0BFA0CFBABF1EA
:104DC000010B0BEA030B4AEA0B042146404606F0AE
:104DD000D9F8BDE8F09F000000BF00F00702064BC5
:104DE00019684FF6FF031940044B0B4343EA0221B5
:104DF000014B196000BF70470CED00E00000FA05A0
:104E00002DE9F04F8DB081460C4693464FF0000AD5
:104E1000D046FE49D9F80000884202D1002601257B
:104E200001E001260025002710E007EB470201AB57
:104E300003EBC2017A1CD0B204F0F8FC20B14FF0B1
:104E4000010A0820C9F85400781CC7B2022FECD31D
:104E5000BAF1000F7ED1ED48006800F0010038B1D2
:104E6000EA48006820F00100E849086048F00108BD
:104E7000E748006800F0010038B1E548006820F01C
:104E80000100E349086048F00208E24806EB4601E9
:104E900001AA02EBC1018968491E50F8210020F4E3
:104EA0008072DC4806EB460101AB03EBC101896867
:104EB000491E40F82120001F006800F00100002872
:104EC0007FD0D448001F006820F00100D149091F9D
:104ED0000860012D73D1081D05EB450101AA52F8A8
:104EE0003110491E50F8210040F00202C94805EB7C
:104EF000450153F83110491E40F8212005EB4500CB
:104F000001A901EBC0004068A0B1C24805EB450112
:104F100001AA02EBC1014968491E50F8210040F086
:104F20002002BC4805EB450103EBC1014968491E5D
:104F300040F8212005EB450001A901EBC000C06845
:104F4000D8B1B44805EB450101AA02EBC101097BC8
:104F5000491E00E0C9E201F0010150F8210040F4CF
:104F60008022AC4805EB450101AB03EBC101097B95
:104F7000491E01F0010140F8212005EB450001A97F
:104F800001EBC0000069002819D0A24805EB4501DB
:104F900001AA02EBC101097C491E01F0010150F890
:104FA000210040F080629B4805EB450101AB03EB1B
:104FB000C101097C491E01F0010140F8212079E07E
:104FC000FFE706EB460001A951F83000002871D038
:104FD000904806EB460101AA52F83110491E50F8DC
:104FE000210020F001028B4806EB460101AB53F88B
:104FF0003110491E40F8212006EB460001A901EBC3
:10500000C0004068A0B1834806EB460101AA02EB4C
:10501000C1014968491E50F8210020F010027D4866
:1050200006EB460103EBC1014968491E40F8212007
:1050300006EB460001A901EBC000C068C8B1754885
:1050400006EB460101AA02EBC101097B491E01F0F2
:10505000010150F8210020F480326E4806EB460131
:1050600001AB03EBC101097B491E01F0010140F8CE
:10507000212006EB460001A901EBC0000069C8B180
:10508000644806EB460101AA02EBC101097C491EF6
:1050900001F0010150F8210020F080725D4806EB1C
:1050A000460101AB03EBC101097C491E01F001017E
:1050B00040F8212005EB450101AA52F83110206883
:1050C000884222D005EB450102EBC101A068896846
:1050D00088421AD005EB450102EBC10160684968BE
:1050E000884201D1606880B905EB450101AA02EB55
:1050F000C101E068C968884207D005EB450102EBB1
:10510000C10120690969884227D105EB450101AA3F
:1051100052F831102068884220D105EB450102EB9E
:10512000C10160684968884218D105EB450102EB6E
:10513000C101E068C968884210D105EB450102EB66
:10514000C10120690969884208D13248001F0068FE
:1051500040F001002F49091F08608DE02D4805EB44
:10516000450101AA52F83110491E50F8210020F0E3
:105170000102284805EB450101AB53F83110491EE7
:1051800040F8212005EB450001A901EBC000406873
:10519000A0B1204805EB450101AA02EBC101496815
:1051A000491E50F8210020F010021A4805EB450175
:1051B00003EBC1014968491E40F82120154805EB61
:1051C000450101AA02EBC1018968491E50F821007E
:1051D00020F480720F4805EB450101AB03EBC101E0
:1051E0008968491E40F8212005EB450001A901EB23
:1051F000C000C068F8B1074805EB450101AA02EB01
:10520000C101097B491E01F0010105E00050005277
:1052100000A0005204B4005250F8210020F4803263
:10522000B44805EB450103EBC101097B491E01F0C0
:10523000010140F8212005EB450001A901EBC00068
:105240000069C8B1AB4805EB450101AA02EBC101F9
:10525000097C491E01F0010150F8210020F0807204
:10526000A44805EB450101AB03EBC101097C491ED4
:1052700001F0010140F821209E48A168491E50F824
:10528000210020F440714FF4807040EA4620014331
:105290009848A268521E40F822106069401E954945
:1052A000091F0968C1F3074188420BD99148001FC3
:1052B000006820F47F01A08A401E41EA00408D4929
:1052C000091F08608B48001F006800F001000028DB
:1052D00075D088482168491E50F8210020F003004D
:1052E000401C84492268521E41F82200606868B15F
:1052F00008466168491E50F8210020F0300040F057
:1053000010027C486168491E40F82120E06800F4E2
:10531000803090B17748217B491E01F0010150F89F
:10532000210020F4E02040F480327248217B491EA5
:1053300001F0010140F8212013E0E06888B16D48D8
:10534000217B491E01F0010150F8210020F0E060AE
:1053500040F080726748217B491E01F0010140F84E
:105360002120206900F4803090B16248217C491EE0
:1053700001F0010150F8210020F4E02040F4403217
:105380005C48217C491E01F0010140F821209AE08F
:105390002069002811D05748217C491E01F00101E5
:1053A00050F8210020F0E06040F040725148217C2C
:1053B000491E01F0010140F8212084E0FFE74D483B
:1053C0002168491E50F8210020F00301012040EA25
:1053D0004600014347482268521E40F82210606888
:1053E00078B144486168491E50F8210020F030002F
:1053F000102141EA461108433E496268521E41F8B5
:105400002200E06800F48030A8B13A48217B491EB0
:1054100001F0010150F8210020F4E0204FF4803128
:1054200041EA864108433349227B521E02F00102C1
:1054300041F8220016E0E068A0B12E48217B491E09
:1054400001F0010150F8210020F0E0604FF0807180
:1054500041EA866108432749227B521E02F001027D
:1054600041F82200206900F48030A8B12148217C55
:10547000491E01F0010150F8210020F4E0204FF412
:10548000403141EA864108431A49227C521E02F00B
:10549000010241F8220016E02069A0B11548217CE4
:1054A000491E01F0010150F8210020F0E0604FF0AA
:1054B000407141EA866108430E49227C521E02F087
:1054C000010241F8220008F0010028B10A480068F2
:1054D00040F001000849086008F0020028B10748C0
:1054E000006840F001000549086050460DB0BDE875
:1054F000F08F000004B400520050005200A000528F
:10550000F8B504460025FFF731FB06460CB9012526
:105510007AE000206065206D002875D1204600F0FB
:1055200077F841F28831204600F0FCF8208A401ECE
:10553000E16841EA00416069401E41EA0020616B78
:105540000843E169084321688968304A11400843EB
:10555000216888602068C06820F4E020216A084340
:105560002168C860208EA16B41EA00402168086173
:105570002168E06B48612068006820F4F851606899
:10558000401E41EA002021680860A06D33460022D9
:1055900020210090204604F0BDF905468DBB20680F
:1055A000C06820F0FF00616A491E08432168C86096
:1055B0002068006820F04000A16808432168086066
:1055C000D4E90A0108432168D1F8081121F0A0416B
:1055D00008432168C1F808012068006840F0010014
:1055E00021680860A069022805D12068806840F021
:1055F000020021688860E068B0F1806F02D101206C
:10560000206501E0022020652846F8BDF4F8E0F8A6
:1056100010B5B6B00446142130A8FAF7E2FEB8215E
:1056200002A8FAF7DEFE3B49206888426FD14FF0AE
:1056300000710020CDE90210159002A800F0D6FFFD
:1056400008B1FBF7CBFF00BF3348006840F40010FF
:10565000314908600846006800F40010019000BF5E
:1056600000BF00BF0846006840F48040086008465C
:10567000006800F48040019000BF00BF00BF2648D2
:105680000C30006840F0200023490C3108600846C7
:10569000006800F02000019000BF00BF00BF084676
:1056A000006840F0020008600846006800F0020050
:1056B000019000BF00BF4FF4707030900220319015
:1056C00000203290032033900A20349030A91348F0
:1056D000FFF744F94FF480603090022031900020B1
:1056E0003290032033900920349030A90B48FFF703
:1056F00035F9402030900220319000203290032074
:1057000033900A20349030A90548FFF727F936B0C6
:1057100010BD000000500052D4440258001402583A
:1057200000040258024691650020704770B5044697
:1057300015480068C0F3800048B91348006800F0BD
:105740000700A04201D0012070BD0020FCE70E48F8
:10575000006820F0070020430B490860FFF706FAB5
:10576000054607E0FFF702FA401BB0F57A7F01D942
:105770000120E9E7044808380068C0F340300028F9
:10578000F0D00020E0E700000C48025810B501F00E
:1057900021FF05490968C1F30211044A515C01F077
:1057A0001F01C84010BD00002044025894C10008E9
:1057B00070B50146844D2D6805F00303824D2D68B8
:1057C000C5F30510804D2D1D2D6805F001047E4D9B
:1057D0000C352D68C5F3CC0515FB04F501EE105A08
:1057E000B8EE411AF0EE410A00286FD023B1012B28
:1057F0004ED0022B6BD16BE0734D283D2D68C5F365
:1058000040153DB3704D283D2D68C5F3C1066F4D61
:1058100025FA06F201EE102AF8EE411A01EE100AFE
:10582000B8EE411A81EE812A9FED691AC0EE811A05
:10583000654D08352D68C5F3080501EE105AB8EE20
:10584000411A31EE811AF7EE001A31EE211A22EEDA
:10585000010A1CE001EE100AB8EE411ADFED5D1AF4
:1058600081EE812A9FED5A1AC0EE811A564D0835F5
:105870002D68C5F3080501EE105AB8EE411A31EE55
:10588000811AF7EE001A31EE211A22EE010A5BE0CE
:1058900001EE100AB8EE411ADFED4F1A81EE812AAF
:1058A0009FED4B1AC0EE811A474D08352D68C5F3A0
:1058B000080501EE105AB8EE411A31EE811AF7EEE2
:1058C000001A31EE211A22EE010A3DE077E01DE0D8
:1058D00001EE100AB8EE411A9FED402AC2EE011AFD
:1058E0009FED3B1A80EE812A374D08352D68C5F3B0
:1058F000080501EE105AB8EE411A32EE011AB7EE61
:10590000002A31EE021A21EE810A1DE001EE100A92
:10591000B8EE411ADFED2F1A81EE812A9FED2C1A85
:10592000C0EE811A284D08352D68C5F3080501EE33
:10593000105AB8EE411A31EE811AF7EE001A31EE24
:10594000211A22EE010A00BF00BF1F4D08352D6845
:10595000C5F3462501EE105AB8EE411AF7EE001ACB
:1059600031EE211AC0EE011ABCEEE11A81ED001AE7
:10597000154D08352D68C5F3064501EE105AB8EEF1
:10598000411AF7EE001A31EE211AC0EE011ABCEEF0
:10599000E11A81ED011A0C4D08352D68C5F3066535
:1059A00001EE105AB8EE411AF7EE001A31EE211A44
:1059B000C0EE011ABCEEE11A81ED021A03E00025E7
:1059C0000D604D608D6070BD284402580090D0037A
:1059D000000000460024744C0024744A20BCBE4BD6
:1059E00070B50146844D2D6805F00303824D2D6886
:1059F000C5F30530804D2D1D2D68C5F300147E4D77
:105A000014352D68C5F3CC0515FB04F501EE105ACD
:105A1000B8EE411AF0EE410A00286FD023B1012BF5
:105A20004ED0022B6BD16BE0734D283D2D68C5F332
:105A300040153DB3704D283D2D68C5F3C1066F4D2F
:105A400025FA06F201EE102AF8EE411A01EE100ACC
:105A5000B8EE411A81EE812A9FED691AC0EE811AD3
:105A6000654D10352D68C5F3080501EE105AB8EEE6
:105A7000411A31EE811AF7EE001A31EE211A22EEA8
:105A8000010A1CE001EE100AB8EE411ADFED5D1AC2
:105A900081EE812A9FED5A1AC0EE811A564D1035BB
:105AA0002D68C5F3080501EE105AB8EE411A31EE23
:105AB000811AF7EE001A31EE211A22EE010A5BE09C
:105AC00001EE100AB8EE411ADFED4F1A81EE812A7D
:105AD0009FED4B1AC0EE811A474D10352D68C5F366
