:020000040800F2
:10000000D0290124AD020008B58B00087D0400084A
:10001000B18B00088D05000801B800080000000041
:1000200000000000000000000000000035A50008EE
:100030006943000800000000099D000839A5000878
:10004000C7020008C7020008C7020008C70200086C
:10005000C7020008C7020008C7020008C70200085C
:10006000C7020008C7020008C7020008C70200084C
:10007000C7020008C7020008C7020008C70200083C
:10008000C7020008C7020008C7020008A14500080F
:10009000C1450008B1450008D1450008C702000865
:1000A000C7020008C7020008C7020008C70200080C
:1000B0007DA80008C7020008C7020008C7020008A0
:1000C000C7020008C7020008C7020008C7020008EC
:1000D000C702000841B50008C702000851B5000872
:1000E000C7020008C702000800000000C70200089D
:1000F000C7020008C7020008C7020008C7020008BC
:10010000C702000831A20008C7020008C7020008A1
:10011000C7020008C7020008C7020008C70200089B
:10012000C7020008C7020008C7020008C70200088B
:10013000C7020008C7020008C7020008E14500081E
:1001400000000000000000000000000000000000AF
:10015000C7020008C7020008C7020008C70200085B
:10016000C7020008C7020008C7020008C70200084B
:10017000C7020008C7020008C7020008000000000C
:10018000C7020008C7020008C7020008C70200082B
:10019000C7020008C7020008C7020008C70200081B
:1001A000C7020008C7020008C7020008C70200080B
:1001B000C7020008C7020008C7020008C7020008FB
:1001C000C7020008C7020008C7020008C7020008EB
:1001D000C7020008C7020008C7020008C7020008DB
:1001E000C7020008C7020008C7020008C7020008CB
:1001F000C7020008C7020008C7020008C7020008BB
:10020000C7020008C7020008C7020008C7020008AA
:10021000C7020008C70200086DA80008C70200084E
:10022000C7020008C7020008C7020008000000005B
:10023000C7020008C702000800000000C70200084B
:10024000C7020008C7020008C7020008C70200086A
:10025000C7020008C7020008C7020008C70200085A
:10026000C7020008C7020008C7020008C70200084A
:10027000C7020008C7020008C7020008000000000B
:10028000C7020008C7020008C702000800000000FB
:1002900000000000C7020008DFF80CD000F0B0F842
:1002A0000048004715D10008D0290124064880479E
:1002B00006480047FEE7FEE7FEE7FEE7FEE7FEE74B
:1002C000FEE7FEE7FEE7FEE769A7000899020008DF
:1002D0002DE9F05F0546002092469B46884606467B
:1002E000814640241BE0284641464746224600F00E
:1002F00076F853465A46C01A914110D31146184613
:10030000224600F05DF82D1A67EB01084F462246A1
:100310000120002100F054F817EB00094E41201E87
:10032000A4F10104DFDC484631462A464346BDE8D5
:10033000F09F10B5431A934209D28318881803E03E
:1003400010F8011D03F8011D521EF9D210BD40EA3C
:1003500001039B0703D009E008C9121F08C0042A43
:10036000FAD203E011F8013B00F8013B521EF9D22A
:1003700010BDD2B201E000F8012B491EFBD270473C
:100380000022F6E710B513460A4604461946FFF761
:10039000F0FF204610BD421C10F8011B0029FBD1C4
:1003A000801A704710B5484304460CF0BDFE002883
:1003B00005D00021002C02D0641E0155FAE710BDC3
:1003C000202A04DB203A00FA02F100207047914015
:1003D000C2F1200320FA03F3194390407047202A0A
:1003E00004DB203A21FA02F00021704721FA02F3DF
:1003F000D040C2F1200291400843194670470000E6
:10040000064C074D06E0E06840F0010394E8070061
:1004100098471034AC42F6D3FFF742FF70DF000874
:1004200090DF000870B58C1810F8015B15F0070319
:1004300001D110F8013B2A1106D110F8012B03E07D
:1004400010F8016B01F8016B5B1EF9D12B0705D485
:100450000023521E0DD401F8013BFAE710F8013BCE
:10046000CB1A921C03E013F8015B01F8015B521EEA
:10047000F9D5A142D8D3002070BD00001EF0040FB2
:100480000CBFEFF30880EFF3098008F029B90000F2
:100490000020014908737047580800241CB53148F2
:1004A000007830B12F48808818B12E48007B012891
:1004B00000D11CBD2B484078E8B92A488088002824
:1004C0004DDD28480089401C80B2264908814988B2
:1004D000884244DB002040F2DC510123224ACDE96E
:1004E0000010194621480CF0EFF900201D49088141
:1004F0000120487033E01B48407801282FD119486B
:100500000089401C80B2174908818988884226DB0F
:100510001448C088002812DD12484089401C80B26F
:1005200010494881C988884202DB00200D490870C3
:100530000C48007818B900200A498880B9E70020E3
:1005400008490881487041F2883040F2DC510123AB
:10055000054ACDE90010194604480CF0B5F900BF72
:10056000A7E7000058080024000C004000000258D3
:1005700070470000012001490860704750000024C6
:1005800001200149086070474C00002400BFFEE7CD
:100590002DE9F05F06460F4690469946DDF830A0FB
:1005A0000024B6F5FA6F03DB40F63300864202DD25
:1005B0000020BDE8F09F4FF4F8650AE0284608F0F7
:1005C0002EFA10B12C48044401E02C480444681C65
:1005D00085B2B542F2DB781EC7B2002511E028488B
:1005E000405D40F2A32110FB01F004EBC014304643
:1005F00008F015FA18B1012D01D122480444681CF5
:1006000085B2BD42EBDBA8F1010040F2A3214843D3
:1006100004EBC014C9EB4910C0EB092004EB001433
:100620000A98C0EB001004EB80040B980444C80146
:10063000B4FBF0F100FB114000EB4001C1EBC01036
:100640000AEBC00A0F48B4FBF0FBDFF83CC0DCF853
:1006500000C051461FFA8BF2DCF82C000D9B38B11C
:100660004FF0000CA0F80EC081608281C36103626C
:1006700000BF01209DE700000085E2018033E10119
:1006800004D70008805101005800002430B5002232
:1006900000BF00BFEFF31081C16272B600BFC16935
:1006A00011B10021C1610122818C00291EDD018A66
:1006B0001AE001EB4104C36803EBC4031B698BB16F
:1006C00001EB4104C36803EBC4035B6953B100232E
:1006D00001EB4105C46804EBC5042361838C5B1EF8
:1006E000838402224B1E99B20029E2D1C16A81F3B0
:1006F000108800BF1AB1418A41F08001418230BDAB
:10070000FEB504460D46164614B94FF0FF30FEBD47
:10071000002061684861284600F0BCFA0C21E068BE
:100720008DE8430012232946D4E9010200F00EF8B7
:1007300007463846EBE710B504462CB1206818B1DF
:100740002168886805F009F810BD00002DE9F84F10
:1007500004460E4615461F46DDE90B9ADDF8288053
:100760001CB115B1B8F1000F03D14FF0FF30BDE857
:10077000F88F26602A48046065602781C4F80C80E1
:10078000A4F81090002060826061A061E061012007
:1007900020620020A084A06200BF18E0002100EBCE
:1007A000400225F822104FF6FF7100EB400205EBE6
:1007B00082025180002100EB400205EB8202516071
:1007C00000EB400205EB82029160411C88B2B84206
:1007D000E4DB002007E0002100EB400208EBC2024E
:1007E0001161411C88B24845F5DBF0688047002064
:1007F0000090002302221946B06804F0DAF910B123
:100800004FF0FF30B3E74FF470620649B06804F070
:1008100033F910B14FF0FF30A9E70020A7E700003F
:1008200068000024110A801B002102689268126887
:10083000526C02F0E001826A8A4218D0428A8162D8
:1008400001F0800313B142F004020EE04FF6F843CA
:100850001A4001F0400313B140F201131A4301F0B2
:10086000200313B140F202231A43428200BF7047B3
:100870002DE9F04F8DB0044691469A46DDE91C768D
:100880000CB100BF04E04FF0FF300DB0BDE8F08FB9
:10089000B9F1000F01D1D4F81C9000202060FF2F87
:1008A00002D10120206006E0012F01DB7F2F02DD55
:1008B0004FF0FF30E9E7E06B00F024FD05460DB195
:1008C0002846E2E7206810B16FF01200DDE77648B5
:1008D0000068406818300221CDE90476CDE90210A5
:1008E0007148006840686C301121CDE90010DFF8D4
:1008F000B8C1236ADCF800C0DCF804C00CF10C02BB
:100900006168E06900F0F8F905460DB12846BCE7DA
:1009100007F5E0600A226168CDE90A06CDE9081210
:1009200000216068CDE9041006910B4607916068CC
:10093000DDE91712CDE90203CDE900125A4A126827
:10094000526802F190013B464A46206901F072F874
:1009500005460DB1284698E70922534960680968A1
:100960004968843101AB45C3009108234946D4E965
:10097000050200F045FB05460DB1284685E74A48CB
:100980000068406800F1B40B4FF0000824E008F163
:10099000080080B208F1070292B26168CDE904064E
:1009A000CDE90221606819995A460BF10C0BCDE98B
:1009B0000010C8EBC80303EB4303616A01EBC300FB
:1009C0003B46514601F080FF05460DB128465CE7E5
:1009D00008F101000FFA80F8B8F1010FD7DB3248B7
:1009E0000068406800F1C00B4FF0000820E008F1FB
:1009F000090080B208F1080292B26168CDE90306ED
:100A0000CDE9012160685A460BF10C0B0090C8EB50
:100A10000813A16A01EBC3003B46514601F071FE89
:100A200005460DB1284630E708F101000FFA80F8BD
:100A3000B8F1010FDBDB032160688DE843001A4B3E
:100A400062681B685B6803F160010223E06A02F0E0
:100A500031FD05460DB1284617E701216068CDE953
:100A60000310CDE905161048616800684068A83099
:100A70000D4A126852683C32CDE9002002910A49C1
:100A80000968496801F1300307490968496801F1BB
:100A900024024946206B02F055FB05460DB128465D
:100AA000F3E60020F1E60000A00400242DE9F04F59
:100AB00089B00446884691461E46DDF848A024B910
:100AC0004FF0FF3009B0BDE8F08F012E03DB7F2E21
:100AD00001DC206838B1206810B16FF01200F1E736
:100AE0004FF0FF30EEE73C480068406800F1CC0B67
:100AF000394800684068FC30089000252DE000204F
:100B00000790042D06DA4FF4007000EB0520304406
:100B100080B20790E81C81B26268089800F10C036B
:100B2000CDE9041A0893CDE9020258460BF10C0BEB
:100B30000799CDE90010C5EB451202EB4202616B4B
:100B400001EB820042464946236B01F02BF9074630
:100B50000FB13846B6E7681C05B2042DCFDB1E483E
:100B60000068406800F5967B1B480068406800F507
:100B7000AE70089000252BE000200790042D06DAC7
:100B80004FF4C07000EB0520304480B20790281D60
:100B900081B26268089800F10C03CDE9041A089349
:100BA000CDE9020258460BF10C0B0799CDE9001074
:100BB0005B216943A26B02EB810042464946236BED
:100BC00002F08CFD07460FB138467BE7681C05B282
:100BD000042DD1DB002075E7A00400242DE9F043AB
:100BE0000446DDE90775099E4FF0000C2CB325B3D0
:100BF0001EB32089884220DD01EB4109D4F804802E
:100C000008EB890045608660C2F30A0817B14FF40B
:100C1000004901E04FF0000948EA0908A0F8008007
:100C2000C3F30A0848F40048A0F80280D4F81880FA
:100C3000B8F1000F00D000BF01E04FF0FF3C60466C
:100C4000BDE8F08370B504460D460026286938B12A
:100C5000206A18B9608A40F0080060826FF00806C8
:100C600000BF00BFEFF31080E06272B600BF2946FC
:100C700020460CF011FB10B16869E06104E001202E
:100C80002861A08C401CA084E06A80F3108800BF1B
:100C9000304670BD10B5044614B1A06804F05DFD87
:100CA00010BD10B50446206830B12168886804F092
:100CB0003AFD08B90120606110BDF0B50446DDE9D8
:100CC00005560020B4B1278A8F4213DD01EB410C99
:100CD000E76807EBCC00C2F30A0713B14FF4004CEE
:100CE00001E04FF0000C47EA0C0707600571002790
:100CF00007614661F0BD00002DE9F04F87B0044662
:100D00000F4692469B46DDE91495DDF844800020AD
:100D10000690A4B1BAF1000F11D0BBF1000F02D1BF
:100D2000109802280BDAB8F1000F08D03FB1B9F1E2
:100D3000010F04DBB9F17F0F01DC139820B94FF0EC
:100D4000FF3007B0BDE8F08F50212046FFF718FBB9
:100D50006761002301221946504607F09AFFE060C0
:100D6000E06838B91DB1504607F06FFF28606FF09A
:100D70000B00E6E70020E1680870C4F818B010988E
:100D800020770020019005A802900120039003988D
:100D9000042300904046DDE9011208F08DF8064674
:100DA00000BF1EB923490598084040B11DB1404617
:100DB00007F04BFF286016B16FF00B00C1E709F197
:100DC000800004900121059801EBE07060622463CB
:100DD000194961631949A16304F13001404607F0E4
:100DE000EAFE06463EB11DB1404607F02EFF2860E0
:100DF0006FF00B00A5E784F8289000200821034637
:100E0000CDE900103846049A1299FFF756FFE062C8
:100E1000E06A10B94FF0FF3093E724640849616439
:100E20000849A16404F14001139807F0C4FE069834
:100E300087E7000000F8FF7F19900008759100080F
:100E4000818F0008ED9100082DE9F84F044688468F
:100E500091469A466069458A208AA84264D0208AD1
:100E600080EA0506258240F20110304070B1002072
:100E7000009040F20110284008B1012000E000205D
:100E8000014600230122204602F09DFE06F00200EA
:100E900048B1002048F220130722C5F3400100901A
:100EA000204602F090FE06F0040048B1002048F20F
:100EB00040131222C5F380010090204602F083FE09
:100EC00006F0080048B1002048F210131422C5F3C0
:100ED000C0010090204602F076FE06F0800048B186
:100EE00000204FF401431522C5F3C01100902046A5
:100EF00002F069FE06F4007048B1002048F22013A9
:100F00000622C5F340210090204602F05CFE06F464
:100F1000006040B1002013231A46C5F3C0210090A1
:100F2000204602F050FE00BF0027607908B147F06C
:100F30000107207A08B9607A08B147F08007E068B5
:100F40000770B8F1000F01D1BDE8F88F207F0228AB
:100F500045DBA67F607FB04240D0E06A006960BB9D
:100F6000A06950F8360040EA0740A16941F8360010
:100F7000A06900EBC600E16A026841F8052F4068ED
:100F80004860E16A6069FFF75DFE701CC0B206460A
:100F9000217F884201DA304600E00020A077E07F20
:100FA00001280BD10220E07700204FF4805320224B
:100FB00001210090204602F006FE0FE0E07F0228AB
:100FC0000CD1A07F617F884208D10020E0770346E2
:100FD000202201460090204602F0F5FD00BF00BF30
:100FE000B2E730B502460B794C1D012B06D12578AE
:100FF0006DB2557000BF0125D56000BF30BD000047
:101000002DE9FF4F87B004468A469346179E149DEC
:1010100044B1BAF1000F05D0BBF1000F02D00DB101
:10102000159820B94FF0FF300BB0BDE8F08F30219C
:101030002046FFF7A5F9C4F800A0C4F804B015983D
:10104000A0611698A083A878401E0A99884202DA07
:10105000A878401E00E00A9820724FF0000839E09E
:1010600008F10100C0B2019006A80290012003908F
:101070000398042300902846DDE9011207F01CFFC5
:10108000074600BF3FB11EB1284607F0E4FD3060BF
:101090006FF00B00C8E70698C0F30740059006986C
:1010A00080B2049041462046DDE9043200F032F877
:1010B0008146B9F1000F09D01EB1284607F0CBFDDB
:1010C000306009F10C0008B14846ADE708F10100B5
:1010D00000F0FF08207A4045C2DC24620B496162BF
:1010E0000B49A162284604F1200108B9052201E05C
:1010F0008160002217463FB11EB1284607F0ABFDC4
:1011000030606FF00B008FE700208DE7118F000833
:10111000F19300082DE9FF4705460E46174698460D
:101120004FF0000A15B1287AB04204DC4FF0FF30CE
:1011300004B0BDE8F087B8F1000F1CD0DFB100208B
:1011400016E0696801EB0014D4E901132268E46831
:10115000CDE90234CDE90021864207D0029929B1B8
:101160009DF80010B94201D16FF00B0A411CC8B2C2
:10117000297A8142E5DCBAF1000F30D1686800EBD2
:10118000061427704FF47A7008FB00F0A060FF206F
:10119000607000BF0020E06000BF207838B1A06818
:1011A00028B1207800F5E0690120A07004E04FF03C
:1011B00000090020A060A0700A49686800EB0610D2
:1011C0000022CDE900200291AA8B324491B240F274
:1011D000FF734A46A869FFF701FD824600BF5046EB
:1011E000A6E70000E30F00082DE9F84F05460F467B
:1011F00090464FF00109CA46002F4DD0686900287B
:101200004AD0002644E0C346686800EB0614A07884
:1012100000B93BE0E068C0B1607868B9A078022806
:1012200007D1009648F230131C220121286802F0F1
:10123000CAFC0120A07004E00220A07000206060C1
:10124000834600BF0020E06000BFA078022812D1D2
:10125000606858446060D4E9010188420BD300966D
:1012600048F230131B220121286802F0ACFCFF2059
:1012700060700320A070A078022801D04FF0000910
:101280006078052801D04FF0000A00BF701CC6B27C
:10129000287AB042B7DC19E00FB96869B0B1002113
:1012A0000EE06A6802EB0110FF22427000BF0022CC
:1012B000C26000BF82780AB101228270481CC1B2AC
:1012C000287A8842EDDC4FF00009CA46E86890B9F8
:1012D000B9F1000F0FD00020009000231B22194607
:1012E000286802F070FC0020009000231C221946A0
:1012F000286802F068FCC5F80C90C5F810A06F6172
:10130000BDE8F88F0146002209B9501E7047002041
:101310000860486088601046F8E72DE9F04F0D46F8
:1013200014469946DDE90BC8DDE909670021002272
:101330008B4603682B440360C7E090F809A00AF0CD
:10134000010A8AF001034FF0010BD0F800A0AAF5C2
:10135000404AAAF5547AC0F800A090F804A00AF117
:10136000010A0AF0FF0A80F804A0BAF1030F73DD46
:101370004FF0000A80F804A05246514690F809A0A8
:101380000AF0020ABAF1000F02D141F0020101E0B5
:1013900042F0020290F805A00AF1010A0AF0FF0AE1
:1013A00080F805A0BAF1010F06D0BAF1020F06D0FD
:1013B000BAF1060F0BD105E041F0040108E042F05C
:1013C000040205E04FF0000A80F805A000E000BF2D
:1013D00000BF90F806A00AF1010A0AF0FF0A80F89F
:1013E00006A0BAF1090F13D2DFE80AF012050906C8
:1013F0000A1212120D0000BF41F0080109E000BFFF
:1014000042F0080205E04FF0000A80F806A000E074
:1014100000BF00BF90F807A00AF1010A0AF0FF0A16
:1014200080F807A0BAF10B0F17D2DFE80AF0160612
:101430000B070C080D161616100000BF00BF41F078
:1014400010010BE000BF00BF42F0100206E04FF0B9
:10145000000A80F807A001E028E000BF00BF90F874
:1014600008A00AF1010A0AF0FF0A80F808A0BAF100
:101470000D0F19D2DFE80AF018070D080E090F0A40
:1014800010181818130000BF00BF00BF41F0200162
:101490000BE000BF00BF00BF42F0200205E04FF0AC
:1014A000000A80F808A000E000BF07E090F809A05B
:1014B0000AF07E0190F80AA00AF07E0213B141F012
:1014C000010101E042F0010200BF4CF2503A036812
:1014D0005345BFF432AFBBF1000F51D00EB1012321
:1014E00024E014B901F0010320E0BCF1000F02D0A8
:1014F00001F020031AE0B8F1000F02D001F0100350
:1015000014E0DDF834E0BEF1000F02D001F0080372
:101510000CE017B101F0040308E0DDF838E0BEF19B
:10152000000F02D001F0020300E00023B9F1000F28
:1015300002D002F0010A18E0DDF83CE0BEF1000F35
:1015400002D002F0100A10E0042C02D102F0040ACA
:101550000BE07F2C02D102F0020A06E0052C02D13A
:101560004FF0010A01E04FF0000A0BB141F0800199
:10157000BAF1000F01D042F080024172827200BFC6
:10158000BDE8F08F2DE9F04186B004468846154647
:101590001E4604B104E04FF0FF3006B0BDE8F08114
:1015A00040F2E4710B224B1C6068CDE90230CDE9BA
:1015B000042111216068CDE900012B4632464146E5
:1015C000206C00F003F807463846E6E72DE9FF5F98
:1015D0000446884616461D46DDE90FABDDF8389017
:1015E000119F0020039074B16EB165B1B9F1000F85
:1015F00009D047B12878012802DB28787F2807DD49
:101600002878FF2804D04FF0FF3004B0BDE8F09FE9
:1016100074212046FEF7B4FE98E80F0084E80F001E
:101620000020207484F83400A663E563287884F8E9
:10163000400000BF0020606400BF1048002140F25D
:10164000FF735A46CDE90014029051464846FFF711
:10165000C5FA0390E766002008210346CDE9001093
:101660003846DDE91212FFF728FB2067206F10B91A
:101670004FF0FF3003900398C7E70000811800087F
:101680002DE9FE4F044600200290606C002872D0C5
:10169000002001900021206F40F8051F416094F860
:1016A0004800512868D00EDC152866D006DC0428D6
:1016B00011D0112818D0132872D12BE0172871D01F
:1016C0004328F9D10AE05A38052869D2DFE800F04A
:1016D00089949FAAB50001200290C0E04420216FA8
:1016E000487101200190BAE04A20075D0026012FD1
:1016F00001DB7F2F01DDFF2F02D1E06B077000E0DF
:10170000012694F84800216F4871206F86710120EE
:101710000190A4E0606D00B9A1E094F84AA094F8AB
:101720004B800026B146BAF1000F17D1B8F1050F72
:1017300014D0B8F1090F11DC504830F818B05946F0
:10174000D4E9152090470090009818B1A06BA0F83C
:1017500000B002E0FF264FF0010900E0012694F8F6
:101760004800216F4871206F8671206F80F80790C4
:101770000120019073E07EE06AE0606D00B96EE0E8
:10178000E06D60B14B20005D4FEA002B4A20005D08
:1017900040EA0B0B5946D4E91720904700BF5EE0A2
:1017A0005CE0FFE70026606E08B9012610E0D4F87F
:1017B00038C0BCF80020D4F83CC09CF80010D4E934
:1017C000193098478346BBF1000F00D1022600BFB5
:1017D00094F84800216F4871206F867101200190B4
:1017E0003DE094F84800216F48712568206FC0F8EB
:1017F00006500120019032E094F84800216F4871B2
:101800006568206FC0F806500120019027E094F829
:101810004800216F4871A568206FC0F8065001206C
:1018200001901CE094F84800216F4871E568206F32
:10183000C0F806500120019011E094F84800216F93
:10184000487194F84010206F81710120019006E0EA
:101850004F20216F48710120019000E000BF00BFC0
:10186000019818B1D4E91B01FFF7ECF900BF002083
:10187000606400BF00BF0298BDE8FE8F7CD80008FE
:101880002DE9FC4F84460D46604629790191019966
:10189000082972D1416C0029FBD100230093691DF6
:1018A0000A78042A20D14B7813B1012B19D115E005
:1018B000047C012C0BD190F84040FF2C07D1C46B65
:1018C0002478FF2C03D080F84820012400940024C1
:1018D000047444618461C461046203E001240474FB
:1018E00000E000BF00BF94E0037C002B7DD1422AC2
:1018F00012D004DC402A07D0412A7ED108E0432AD6
:101900000ED0512A79D124E0D1F80130436175E03D
:10191000D1F80130836171E0D1F80130C3616DE02D
:10192000D1F80130036246688469A64210D1866806
:10193000C469A6420CD1C668046AA64208D14669A9
:101940000468B44204D10124047480F8482000944F
:1019500054E0C36B1B78FF2B4ED190F84030FF2B27
:101960004AD14B798C79CE791F2B01DD802B03D1A5
:10197000032C01DC032E01DD40E051E0D1F80180B1
:1019800047464FF00009802B0ED14FF001094FF070
:10199000000A80F834A0C0F824A0C0F828A0C0F83D
:1019A0002CA0C0F830A01AE090F834A0A24516D1BF
:1019B0004FF0FF3B0BFA03FA50F824B00BEA0A0B86
:1019C00007EA0A0EF34509D14FF0010980F83460A7
:1019D00023B9A64202DACB4680F810B000BFB9F1B5
:1019E000000F08D080F8482001E008E005E04FF043
:1019F000010ACDF800A000BF00E000BF09E00B68BD
:101A0000C0F849304B68C0F84D3080F848200123B9
:101A10000093009B1BB100BF0123436400BF00BFC4
:101A2000BDE8FC8F014609B90020704791F900001C
:101A3000FBE700002DE9FF4F85B004460D469046B8
:101A4000DDF868A0DDF85C901D9F002004905CB17B
:101A500055B1B8F1000F07D0149828B1BAF1000FB2
:101A600002D0B9F1000F04D14FF0FF3009B0BDE84A
:101A7000F08F34212046FEF783FC00202070607038
:101A80000898E0701298A080C4F820804FF47A7112
:101A900013984843E0604FF0000B03A80190012029
:101AA000029002980223009059462846019A07F0B6
:101AB00003FA064600BF3EB11FB1284607F0D1F831
:101AC00038606FF00B00D1E7BDF80C004FF47A716D
:101AD0004843A0602461294961612949A1612846E0
:101AE00004F1100108B9052201E0816000221646C8
:101AF0003EB11FB1284607F0B4F838606FF00B0014
:101B0000B4E7D4E90210884201D9A068E0601D481A
:101B1000002140F2FF73CDE90014029014A807C819
:101B2000FFF75CF80490049808B104989EE7C4F8A5
:101B30002490002002210346CDE900104846DDE94B
:101B40001812FFF7BAF8A062A06A10B94FF0FF3080
:101B50008CE7C4F82CA0002001210346CDE9001039
:101B60005046DDE91B12FFF7A8F82063206B10B97F
:101B70004FF0FF307AE7049878E70000118F0008F3
:101B800065940008CD1C00082DE9F05F04460E4660
:101B9000174694F900504FF0000A0DB9012000E0FB
:101BA00000208346E068B84202D9E068C01B00E02C
:101BB0000020E060BBF1000F07D1A068B8B1E06879
:101BC00018B194F90100A84211D0216B4D71D4E9EC
:101BD0000B01FFF737F845B9A08800F4807008B111
:101BE000052000E07F20054601E0A068E060657008
:101BF000A078E8B1A07880280ED004DC012807D0B6
:101C0000022811D106E0812808D082280CD108E0F2
:101C100005250AE0042508E07F2506E04FF0020ACA
:101C200003E04FF0010A00E000BF00BF0020A070F9
:101C3000A08800F4805080B11221206A02F0D0F810
:101C400048B91B21206A02F0CBF820B91C21206A78
:101C500002F0C6F808B1012000E000208046A0880C
:101C600000F4005060B1206A08B1C16809B90021D0
:101C700001E0C1680978A088014009B1012000E0B5
:101C800000208146052D0ED1B8F1000F02D1B9F127
:101C9000000F08D0A08800F4804008B1042000E0C4
:101CA0007F2005460CE0A08800F4004040B17F2D65
:101CB00006D1B8F1000F03D1B9F1000F00D105250D
:101CC000257006B135705046BDE8F09FF0B50D792E
:101CD0004A1D167853780446022D04D113B1E778D3
:101CE0009F4200D1A670F0BD70B504460E46154661
:101CF00014B94FF0FF3070BD15B1E078A84200D1A3
:101D0000A670A06A4671A06A8571D4E90901FEF740
:101D100099FFF0E72DE9F04102460C4610460146D6
:101D20002679671D90F860318D689DB30D7BB542B3
:101D300031DC91F80CC0B44503D1012B03D10B2346
:101D400001E003B90D230025D0F868C1BCF1000FF4
:101D50000CD0D0F864C1BCF1000F07D0D0F864C13A
:101D6000DCF80CC0BCF1000F00D0012500F5A87C08
:101D70000CEBC50CD7F80080CCF80080D7F80480B5
:101D8000CCF8048000BF4FF0010800F5A47C4CF8AB
:101D9000258000BF01E003B90C2380F86031BDE865
:101DA000F08100002DE9FF4F87B005468B46199F53
:101DB0002C4655B1BBF1000F07D0099828B11598F2
:101DC00018B1169808B1179820B94FF0FF300BB032
:101DD000BDE8F08F4FF4BA712846FEF7D1FA0998A2
:101DE0002060179860600020069006A80123CDE9C6
:101DF000007059462046169A07F08AFE8046B8F1D0
:101E0000000F01D04046E2E700200590012305AA1B
:101E10001946159807F00FF88146B9F1000F0AD05E
:101E200037B1159806F023FF012101EB002038603F
:101E30006FF00B00CBE70121059801EBE07A0598E4
:101E4000C0F30A06BAF1000F08D0607B00B12EB9CA
:101E50004FF0000A069808B901200690069868B16C
:101E60000698012801D0069800E0059800904FF4EC
:101E700002431A220121206801F0A5FEBAF1000FE9
:101E800000D1002636B14FF6807114980840B04258
:101E900000D1149E3748002140F2FF733246CDE94D
:101EA00000150290DDE91701FEF798FE8046B8F1B3
:101EB000000F01D040468AE7C4F808A0FE20049035
:101EC000012304AA0221159806F0DCFF8146B9F12E
:101ED000000F0AD037B1159806F0C9FE022101EBB8
:101EE000002038606FF00B0071E70A98C5F86401B4
:101EF0009DF81000F02801DC012000E00020C5F86A
:101F0000680100200390012303AA0521159806F01B
:101F100085FFBDF80C004FF47A714843C5F86C0199
:101F2000012004F58C742060C4F804B01898208156
:101F300014986081A6812561A4F58C740E494FF434
:101F4000967001510D49001D0151C4F838510C49DA
:101F50004FF49E7001510B49001D015104F594711D
:101F6000159806F02FFE04F59C71169806F02AFECF
:101F700000202CE7151D000865900008DD9600087C
:101F8000118F00083D9A00082DE9FF4F87B00446E5
:101F900099462546A86800287ED0B9F1000FFBD0ED
:101FA000149818B9D4F86801002875D194F8600124
:101FB0000A2820DD94F860010B2801D0012000E000
:101FC0000020074694F860010C2802D148F2102046
:101FD00001E048F220208046287B009043460422FE
:101FE0003946286801F0EFFD0FB1012000E0002024
:101FF00084F8600100BF0026D4F8680138B1D4F835
:10200000640120B1D4F86401C06800B90126002041
:10201000069048E00120069004F5A87000EBC60A7F
:1020200000BF0021083840F8261000BF8B4636E07C
:10203000CBEBCB0105F1100000EB810707F10C00A1
:102040000590059890F80080B868049004980828D6
:1020500001D908200490049840450AD90020029034
:1020600003904246514602A8FEF763F902A8019088
:1020700001E0CDF804A00021059801606B46D7F877
:1020800018C03846049A0199E0470598C0F80080C6
:10209000C2440BF1010000E043E000F0FF0B687B5D
:1020A0005845C5DC00BF04F5A47050F82600002890
:1020B000B0D1D4F86C0198B3069890B1D4F86C11F3
:1020C000D4F87001884208D9D4F870010090002338
:1020D00017221946286801F076FD0120C4F8700126
:1020E0001EE0D4F87001D8B1D4F86C11D4F87001A6
:1020F000884215D2D4F8701108980844C4F87001C9
:10210000D4F86C11D4F87001884209D9D4F8700160
:10211000009048F2502317220121286801F053FD56
:1021200012E0A86810B1B9F1000F0DD100BF002076
:10213000C4F8480100BF00BF00214FF4A670015150
:1021400000BF0020C4F870010BB0BDE8F08F2DE98E
:10215000F04106460D4634462F7905F10508082F53
:1021600012D198F80000802802D1002020750BE0E1
:10217000A06B48B93A46414604F13C00FEF7D9F855
:1021800000BF0120A06300BFBDE8F0812DE9F05F32
:1021900004468A469046DDE90A6B01274FF00009A4
:1021A0000CB1A06920B9DFF830926FF0010760E050
:1021B00094F82C0008B900275BE0E06E00284DD0B1
:1021C00094F87000802807D1606F8146002184F860
:1021D0002C106FF009073BE0B8F1000F08D00EB1EA
:1021E000306800E07C488146012084F82C002FE014
:1021F00094F82C00122824D194F8700060281AD189
:102200007222125D10027122125D10437322115D61
:10221000A28B824202D1A27F8A4207D0DFF8B89116
:10222000A9F10409012284F82C2010E0002284F88E
:102230002C20002704E0DFF8A491012084F82C0072
:1022400005E0DFF89891012084F82C0000BF00BF62
:1022500000206063824600BFE0660AE0B8F1000F2C
:1022600007D00EB1306800E05B488146012084F859
:102270002C00012F15D1D4E90C10884202D2606BDA
:1022800050446063D4E90C10884206D3DFF84C91C7
:10229000A9F10109012084F82C002069006900B12E
:1022A0000427012F6BD10021206940F8051F4160F0
:1022B00094F82C0011285FD1202021694871217FDA
:1022C00020698171A08B01122069C171A17F2069F1
:1022D000017200BFD4E91012881A002801DAE16BFC
:1022E000084400BF0546606A08B9042D04D9606A35
:1022F00078B3606A04282DD82069407940F0020044
:102300002169487125B1606A50B1606AA84207D05E
:10231000002084F82C00DFF8C8906FF008072CE04C
:10232000606A48B120694079C5F10401012242EA9E
:102330008101084321694871206900F109010023E6
:102340002A4604F1380001F0BBFCA562012020629E
:1023500008E0FFE7002084F82C00DFF888906FF099
:1023600008070AE0002060632169A068FEF76AFCA4
:10237000122084F82C0000E000BF00BF00BF012F36
:102380001ED194F82C0001281AD14D4680202169D5
:102390004871217F20698171A08B01122069C17170
:1023A000A17F206901722069C0F809502169A068E5
:1023B000FEF748FC002084F82C006FF0080700BFEF
:1023C000BBF1000F02D0A06ACBF800000EB1C6F836
:1023D00000903846BDE8F09F470004060100040560
:1023E00010000706000001062DE9F04104460D46E5
:1023F0001646002744B13DB100233246294604F178
:10240000380001F090FC07463846BDE8F0812DE920
:10241000F04704460D4616461F46DDE908890CB113
:10242000A06918B96FF00100BDE8F087A583A67711
:1024300067620020A06220624FF47A7008FB00F00F
:1024400020630020606304F1380001F067FC112074
:1024500084F82C0000BF0020E06600BF00BFE3E767
:102460002DE9F84F04468A4617461D4601264FF0CF
:1024700000080CB1A06920B9DFF804826FF00106F2
:1024800085E094F82C0008B9002680E0E06E002872
:1024900074D094F87000802807D1606F80460021C6
:1024A00084F82C106FF0090661E047B10DB128687F
:1024B00000E073488046012084F82C0057E094F82F
:1024C0002C0022284CD194F8700000F0F000402835
:1024D00040D17220005D4FEA002B7120005D40EA80
:1024E0000B0B7320005D0090A08B584503D1A17F9A
:1024F0000098814207D0DFF88881A8F10408012004
:1025000084F82C0032E094F8700000F00200D8B19A
:102510004FF0040994F8700000F0010028B194F81D
:102520007000C0F38100A9EB000900234A4604F1C2
:10253000740104F1380001F0F6FBC4F82890002083
:1025400084F82C00002604E0DFF83881012084F8AC
:102550002C0004E0DFF83081012084F82C0005E035
:10256000DFF82481012084F82C0000BF00BF002088
:102570006063824600BFE06609E0FFE73FB10DB14E
:10258000286800E03E488046012084F82C00012E97
:1025900020D1D4E90C10884202D2606B50446063B1
:1025A000D4E90C10884211D394F82C00232803D0CE
:1025B00094F82C00652802D14FF0006803E0DFF8A2
:1025C000C880A8F10108012084F82C002069006966
:1025D00000B10426012E21D10021206940F8051FF9
:1025E000416094F82C00212816D1402021694871BF
:1025F000217F20698171A08B01122069C171A17FA7
:1026000020690172002060632169A068FEF71AFB4F
:10261000222084F82C0000E000BF00BF012E1ED154
:1026200094F82C0001281AD1C146802021694871F4
:10263000217F20698171A08B01122069C171A17F66
:10264000206901722069C0F809902169A068FEF72D
:10265000F9FA002084F82C006FF0080600BF0A98F1
:1026600010B1616A0A9801600B9810B1A16A0B98C9
:1026700001600DB1C5F800803046BDE8F88F00005C
:102680004700040600000106010004052DE9F041A1
:1026900004460D461646002744B13DB1002332469C
:1026A000294604F1380001F00BFB07463846BDE827
:1026B000F0812DE9F04104460D4616461F46DDF82F
:1026C00018800CB1A06918B96FF00100BDE8F08165
:1026D000A583A67700206062A062206204F1380022
:1026E00001F01CFB4FF47A70784320630020606394
:1026F000212084F82C0000BF0020E06600BF00BF4E
:10270000E4E72DE9F04F87B004461546DDF850A008
:10271000DDF84890DDF8408094B18DB1284606F090
:10272000ACFAB0F5945F0BDB284606F0A6FAB0F5DC
:10273000985F05DAB8F1000F02D0B9F1000F04D1AB
:102740004FF0FF3007B0BDE8F08FC4F8008011985B
:10275000A080C4F808901398A081212204F14801B8
:1027600004F1380001F0A0FA012306AA002128464E
:1027700006F095FB8346012304AA1946284606F075
:1027800067FB0290012303AA0221284606F060FBA2
:102790000190012305AA0321284606F080FB064686
:1027A000BBF1000F08D19DF81800032804D102984E
:1027B00010B9019800B956B1BAF1000F04D02846FB
:1027C00006F05BFACAF800006FF00B00BAE79DF85C
:1027D00014302046DDE9032100F020F8074617B148
:1027E0004FF0FF30AEE70020ACE730B502461046B0
:1027F0000C794B1D90F82C5075B1082C0CD1C56E7E
:1028000015B11D78802D07D11D6805675D68456786
:1028100000BF0125C56600BF30BD00002DE9FE4F99
:1028200004460D4616461F461CB96FF00100BDE870
:10283000FE8F002084F82C0000BFE06600BF2775E3
:1028400005F0004010B9C5F30A0000E00020804602
:1028500006F0004010B9C6F30A0000E000208146EF
:10286000B8F1000F05D0B9F1000F02D00120A0612E
:1028700004E04FF00008C1460020A061114800218B
:10288000CDE900140290A18840F2FF734A46206807
:10289000FEF7A4F9824600200821CDE90010A189A5
:1028A00000234246A068FEF708FA2061BAF1000F43
:1028B00001D1206918B90020A061801EB7E700206F
:1028C000B5E70000EB2700082DE9F04F8BB0044678
:1028D0008B4616461D46DDF8648034B1BBF1000F0F
:1028E00003D0159808B1179820B94FF0FF300BB0FE
:1028F000BDE8F08FC4F808B025734FF47A711498CE
:1029000048436067002020756EB9012D01DB7F2DE3
:1029100002DD4FF0FF30EAE705F5C06905F5B06A62
:10292000012020618CE0304608B1018800E00021E0
:102930000F46B7F5905F19D1012D01DB7F2D02DD28
:102940004FF0FF30D3E705F5C06905F5B06A012007
:10295000206101234A461946304606F0D4FB012384
:1029600052460221304606F0CEFB68E0B7F5905F94
:1029700062DDB7F5945F5FDA002001900AA802904B
:10298000012003900398012300903046DDE90112F5
:1029900006F092FA0790012309AA1946304606F07C
:1029A00064FA0690012308AA0221304606F05DFA77
:1029B0000590079858B99DF82800022803D09DF883
:1029C0002800032803D1069808B9059838B1B8F152
:1029D000000F01D0C8F800706FF00B0087E709986E
:1029E00000F0004018B90998C0F30A0000E0002088
:1029F0008146089800F0004018B90898C0F30A0012
:102A000000E00020824664651A49A1651A49E16523
:102A1000304604F1540108B9052201E0816000222A
:102A20000492049838B1B8F1000F01D0C8F80070D2
:102A30006FF00B005BE702E04FF0FF3057E700BF9D
:102A400000BF0020A06300BF159860641698A4F82A
:102A500048001898A4F84A000020E0642065179800
:102A60002060CDE9009A2046189BDDE9151200F0A0
:102A700005F83CE7118F0008419500082DE9FF4F4C
:102A800083B004460F469046DDE91056E06CA8423C
:102A900006D1206DB04203D1002007B0BDE8F08F11
:102AA000E564266505F0004008B9A8B200E0002002
:102AB000814606F0004008B9B0B200E0002082462E
:102AC000B9F1000F05D0BAF1000F02D0012020614A
:102AD00004E04FF00009CA46002020610F480021A1
:102AE00040F2FF734A46CDE9001402904146384651
:102AF000FEF774F8834600200821CDE9001000237A
:102B0000524620680699FEF7D8F86060606818B9E8
:102B10004FF0FF3B002020615846BEE74F210008E0
:102B20002DE9FF5F04468846914624B96FF0010005
:102B300004B0BDE8F09F012700200390A06B08B10E
:102B4000012000E000208246206930B1207D20B9BC
:102B5000BAF1000F01D10027BAE1B8F1000F01D09E
:102B6000206930B90020207500BFA06300BF002796
:102B7000AEE1BAF1000FEFD0207D002875D100251D
:102B800094F83C0000F0F000202802D111202075BC
:102B90000BE094F83C00402803D10125212020754A
:102BA00003E0F7480390012020750398A8BB3D205F
:102BB000015D3E20005D41EA0020A0863F20005DCF
:102BC00084F83600A18EA06806F00AF8834694F8CF
:102BD0003610002304F1180206F08EF8064636B1CE
:102BE000304606F07BF803900120207521E0282074
:102BF000005D00F0030020B9E24803900120207539
:102C000017E05DB12820005D00F0010030B9DD481B
:102C1000401C0390012020750BE00BE04DB92820EB
:102C2000005D00F0020020B9D648801C039001200E
:102C3000207500BF1DB3039808BB0020C4F8A00096
:102C4000C4F8A400A06620670023072203A9204639
:102C50000AF08AFB98B1206F90B1206A6066606EBE
:102C600020B9D4F8A000606613E013E0D4F8A010F7
:102C7000606E88420DD0C44803900120207508E0A2
:102C80002820005D00F0800008B9206A00E00020E4
:102C9000606600BF207D002873D0207D0128FBD016
:102CA000207D112806D013286CD021286BD0232832
:102CB0006AD1E6E094F83C0000F00200002864D0FD
:102CC000256A042694F83C0000F0010028B194F82D
:102CD0003C00C0F38100361A03E015B1042D00D288
:102CE0002E46002001900290324604F1400101A8D6
:102CF000FDF71FFB2820005D00F0800058B10DB1EA
:102D0000AE4208D2A81B012801D1012100E0022116
:102D10000E4426620EE00DB926620BE0AE4209D0E9
:102D2000AE4201D9994801E09848401C0390012027
:102D30002075C6E00020009000BF00BFEFF31080B8
:102D40002168486372B600BF6B46324601A904F1A0
:102D50001800D4F830C0E04783462168486B80F300
:102D6000108800BFBBF1000F06D0584605F0B6FF33
:102D7000039001202075A4E0122020750120206717
:102D800029E09FE028E079E096E094F83C0000F02C
:102D90000100D0B1206A216C6166A8B1626E8242E6
:102DA00004D97A4A0392012222758AE0626E824235
:102DB0000AD22822125D02F080022AB9734A521CFC
:102DC0000392012222757CE001E00020606612205F
:102DD00020750020206774E094F83C0000F0E000CB
:102DE00098BB94F83C0000F00100206794F83C0088
:102DF00000F0100694F86C00B04204D064480390D0
:102E0000012020755DE094F83C00C0F34200C0F161
:102E1000070504F17C01D4F8A02050182A463F3958
:102E2000FDF787FAD4F8A0002844C4F8A000A06EEB
:102E30002844A066206A48B1A16E206A814205D963
:102E400052480390012020753BE012E0206F28B922
:102E5000D4F8A000C0F12000092807D200231A46A8
:102E600003A920460AF046FB00B92AE01420207589
:102E700003E0434803900120207522E022202075C2
:102E80001FE094F83C0000F0EF0060280FD194F8A8
:102E90003C1001F0100094F86C10814204D03C49C1
:102EA0000391012121750CE02421217503E03448B0
:102EB00003900120207504E0314803900120207523
:102EC00000BF00BF0020A067814600BFA06300BF15
:102ED000012F13D1D4E91D10884202D2A06F4844BB
:102EE000A067D4E91D10884204D32548401E0390F2
:102EF000012020756068006900B10427012F74D19A
:102F00000021606840F8051F4160207D122806D02E
:102F100014282AD022284FD0242867D18CE06020A2
:102F20006168487194F8341060688171A08E011254
:102F30006068C17194F83610606801720020A06763
:102F4000D4E90001FDF77EFE206F18B10020207546
:102F5000002709E0002084F86C00A066C4F8A000F7
:102F6000C4F8A40013202075C5E094F86C0040F06C
:102F700020006168487194F86C0058B910200AE08C
:102F800001000405000001064700040612000706C0
:102F900000000305002084F86C000020A067D4E93D
:102FA0000001FDF74FFE206F18B1002020750027AB
:102FB00001E0132020759EE0606EC0B1606E0428B1
:102FC00015D8606EC0F10400432141EA80006168B9
:102FD0004871616801F1090004F17C01626EFDF73E
:102FE000A8F900202075002715E085E082E0606EDA
:102FF00040B1606E0146412263685A716268C2F84E
:10300000091002E0402061684871002084F86C00DB
:10301000A0672320207594F8341060688171A08E19
:1030200001126068C17194F8361060680172D4E9C9
:103030000001FDF707FE5EE00023072203A92046FA
:103040000AF092F900B956E094F86C006168487192
:1030500094F86C0008B9102000E0002004F86C0F10
:10306000D4E90D016C3C451A072D02D3206F70B1D5
:103070000DD160684079C5F10701012202EB4101E1
:1030800008436168487100202075002704E0002093
:10309000A06723202075072504F17C02D4F8A43012
:1030A00099186268901D2A46FDF743F9D4F8A400E8
:1030B0002844C4F8A400A06E2844A066606EA0B1A5
:1030C000D4E91910884204D91D48039001202075C5
:1030D00011E057B9D4E91910884206D21848401CAB
:1030E000039001270120207505E0D4E90001FDF7D8
:1030F000A9FD00E000BF00BF012F1ED1207D0128E7
:103100001BD1039D80206168487194F83410606879
:103110008171A08E01126068C17194F836106068E8
:1031200001726068C0F80950D4E90001FDF78AFD1A
:10313000002020756FF0090700BF3846F8E4000052
:10314000120007062DE9F04F87B00446894616465F
:103150009A46DDE9118B169D5CB1B9F1000F08D0DC
:103160003EB1BAF1000F04D0149810B1BBF1000FBA
:1031700004D14FF0FF3007B0BDE8F08F602120464A
:10318000FDF7FEF8802006900020019006A802902E
:10319000012003900398042300903046DDE90112DA
:1031A00005F08AFE074600BF3FB11DB1304605F06D
:1031B0006AFD28606FF00B00DDE764635149A1638D
:1031C0005149E16304F13401304605F002FD00236A
:1031D00004221946504605F05CFDE061E06938B90B
:1031E0001DB1504605F04FFD28606FF00B00C2E79F
:1031F000002304221946109805F04BFD2062109818
:1032000048B1206A38B91DB1109805F03CFD28601E
:103210006FF00B00AFE700200590B8F1000F2DD044
:10322000019005A8029001200390039801230090CB
:103230004046DDE9011205F03FFE07463FB11DB1F2
:10324000404605F020FD28606FF00B0093E79DF8E5
:103250001400012802D10220059005E09DF8140019
:10326000F02801DDF0200590246526496165274995
:10327000A16504F15001404605F0ABFC9DF8140037
:103280006074C4F800900698C0F38070606206987D
:10329000C0F30A00A4F84400C4F82CB013982086A8
:1032A0001498A0641598A4F84C0019480021CDE9A1
:1032B000001402900698C0F30A0240F2FF735846C9
:1032C0001399FDF78BFC0490049808B1049852E719
:1032D00000209DF8141009B1012100E00021CDE982
:1032E00000100698C0F30A020023DDE91401FDF77F
:1032F000E4FCA062A06A10B94FF0FF303BE7002069
:1033000039E70000118F000835920008B5940008D5
:103310006B3400082DE9F84F0446884691461E4656
:103320004FF0000AB8F1000F74D0A06900EB090B50
:10333000A069584501D2C4F818B0606830B10020C7
:10334000A0614FF0010A00BF606000BFE06910B1EA
:10335000E069006800E000200746002F49D0606A5D
:1033600038B3A069B8421CD34FF0010A2546A87CA7
:10337000401CC0B2A8742C46697C884201DD012043
:10338000A8740020A861E86808B9012000E00020C6
:10339000E860A87CA96A4871A96AA86CFDF752FC8C
:1033A00000BF36B3A169781A3168814200D9306014
:1033B0001FE0207C01281CD107EB5705BD4200D23D
:1033C000851EA069A8420BD9A06900904FF4014363
:1033D00018220121206800F0F6FB0220207407E08B
:1033E00036B1A169681A3168814200D9306000BFE6
:1033F00000BF206A78B1206A006860B1216AA069C4
:103400000968884207D9606908B94FF0020A0120AB
:10341000606102E00FE000206061207A50B1207A04
:10342000009048F2402319220121206800F0CBFBD4
:103430000020207206E000BF0020606000BF207204
:10344000A074A061BAF1010F0CD1207C022807D131
:1034500000200090002318221946206800F0B3FBDA
:10346000012020745046BDE8F88F70B502460B4627
:10347000104619790024457C35B909B901240DE0BD
:1034800041F04005057209E0012904D15D1D2E7847
:103490008674012402E041F0800505724CB1C568D4
:1034A0000DB9012500E00025C56000BF012545607C
:1034B00000BF70BD2DE9FF4F85B004460D4617468D
:1034C000DDF85090DDF8488024B11DB117B1B8F196
:1034D000000F04D14FF0FF3009B0BDE8F08F3C2160
:1034E0002046FCF74DFF00200DF1100A4FF0010BB4
:1034F000029004235246CDF800B02846029905F008
:10350000DBFC064600BF66B1B9F1000F06D02846C5
:1035100008B1018800E00021C9F800106FF00B002D
:10352000DAE7E4622149216321496163284604F115
:103530002C0100B901E0816000BF0498C0F30A00CB
:1035400003900498C00F20610498C0F380706061FC
:1035500000BF0020A06100BF206990B11548002184
:1035600040F2FF73CDE9001402903846039A08999F
:10357000FDF734FB8246BAF1000F01D05046ABE7AD
:1035800000BFC4F82480002006210346CDE90010C6
:103590004046039A1399FDF790FBA062A06A10B908
:1035A0004FF0FF3098E7002096E70000118F0008E9
:1035B00055930008BD3600082DE9F84F04460D4626
:1035C00016464FF00008F5B12069E0B1A069F0B1EE
:1035D000204600F0F2FB824604F10409022249462B
:1035E0006846FCF7A6FEBDF8000083462AF070404E
:1035F000A060A4F80CB00020E0814FF0010800BFEB
:10360000A06100BF03E000BF0020A06100BF002751
:10361000B8F1000F19D1C6B1E18988194FF47A7158
:10362000B0FBF1F7B0FBF1F201FB1201E181A168FF
:103630003944A160204AA168914205D3A168891A42
:10364000A160A189491CA18100BF75B3606960B305
:10365000E06950B3D4E90710884222D3D4E90710B7
:10366000401A2062D4F808A0B4F80CB0A06A00F1A7
:103670000509CDF800A0042269464846FCF759FE2A
:1036800000BFA06A00F10909CDF800B00222694626
:103690004846FCF74EFE00BFD4E90901FDF7D2FA17
:1036A00006E0206A3844206202E0FFE7E069206219
:1036B0004046BDE8F88F0000005C260530B50246A4
:1036C0000B794C1D062B07D125681560A5889580C0
:1036D00000BF0125956100BF30BD00002DE9FF4FFF
:1036E00089B005468A4693461B9F2C465DB1BAF1C8
:1036F000000F08D0BBF1000F05D0179818B118982B
:1037000008B1199820B94FF0FF300DB0BDE8F08F27
:103710004FF4B6712846FCF733FEC4F800B0199890
:1037200060600020089008A80023CDE90070514691
:103730002046189A06F0ECF90790079808B1079808
:10374000E3E7FE200690012306AA0221179805F060
:1037500099FB8046B8F1000F0AD037B1179805F0F1
:1037600086FA022101EB002038606FF00B00CCE7F5
:103770009DF81800FE2805DA9DF81800F02801DDF4
:10378000FE2006909DF8180085F84C010120C5F830
:10379000500100200590012305AA1946179805F04D
:1037A0004AFB8046B8F1000F0AD037B1179805F0F0
:1037B0005EFA012101EB002038606FF00B00A4E7F6
:1037C0000121059801EBE0790598C0F30A06B9F1EB
:1037D000000F08D0607B00B12EB94FF000090898A7
:1037E00008B901200890089868B10898012801D00C
:1037F000089800E0059800904FF402431A22012136
:10380000206800F0E0F9B9F1000F00D1002636B1D0
:103810004FF6807116980840B04200D1169E95F878
:103820004C01F02801DC012100E00021207B002375
:103830003246CDE90001DDE91901FDF73EFAC5F890
:103840004801D5F8480110B94FF0FF305DE7E83482
:1038500044F8E09C002004900390012304AA032173
:10386000179805F0DBFA012303AA0521179805F044
:10387000D5FABDF8100064214843C5F85C01BDF8D5
:103880000C004FF47A714843C5F86001002085F8B8
:103890005801012305F5AC720621179805F0F2FADC
:1038A0000C98C5F85401FF2085F8590100202063C9
:1038B000C4F834A01A98208716986087A6872564D4
:1038C000E83C0E494FF4967001510D49001D01511D
:1038D000C4F838510B494FF49E7001510A49001D3C
:1038E000015104F59471179805F06CF904F59C7179
:1038F000189805F067F9002007E7000065900008B8
:103900007D980008118F00083D9A00082DE9F047C6
:1039100004460D4691461F46DDF820802646B068D5
:10392000002870D0002FFCD094F84C0118B194F806
:103930004C01FE282DDBD4F8600180B1D4F8680179
:10394000A84203D9D4F86801401B00E00020C4F865
:103950006801D4F8680110B90120C4F85001D4F806
:103960005001B0B9002010E006F1F00252F820102A
:1039700049B10A7806F588731B5C1A401AB901220E
:10398000C4F8502104E0411CC8B2717B8142EBDCD9
:1039900000BF94F84C01FE2816DBD4F86401A8425D
:1039A00003D9D4F86401401B00E00020C4F864018E
:1039B000D4F8500100285CD0D4F86401002858D114
:1039C000204600F058F854E0D4F85401B0B3B8F1F0
:1039D000000F4ED094F84C0130B9D4F8500168B3C0
:1039E000204600F048F844E094F85901FF2813D12C
:1039F000D4F85401407C38B194F8580120B1FE202D
:103A000084F8590108E029E094F84C0100EBD071EA
:103A10004910491C84F8591194F85901FE280ED117
:103A2000D4F85401807C94F85811884221D194F83C
:103A30004C0184F85901204600F01DF819E094F873
:103A40005901401EC0B284F8590190B994F84C0154
:103A500084F85901204600F00EF80AE00120C4F86D
:103A600050010020C4F86801C4F86401FF2084F804
:103A70005901BDE8F0872DE9F04F87B0044625468F
:103A8000D4F84801401D069094F84C0118B194F800
:103A90004C01FE2801DB012000E0002005900026FB
:103AA00041E0C6EBC60105F1100000EB81094F466D
:103AB00097F80C80D7F808A0BAF1080F01D94FF099
:103AC000080AC24505D900200390049003A802907B
:103AD00001E0069802900020F86001AB5246D9F848
:103AE00014C038460299E047C7F80C80C24504D993
:103AF000424603A90698FCF71CFC05F1F00050F8BB
:103B000026B0BBF1000F09D0059838B19BF8000032
:103B100005F58871895D08438BF8000006984044DC
:103B20000690701CC6B2687BB042BADC002004F577
:103B3000A474A060A06920626069E0612168A4F5B6
:103B4000A4746868FDF77EF807B0BDE8F08F10B583
:103B5000044604B910BD6068FCF7EDFDE06809F0AB
:103B6000B1FAA06809F0AEFA606809F0ABFA206C0F
:103B700009F0A8FAE06B09F0A5FAA06B09F0A2FA27
:103B8000606B09F09FFA206B09F09CFAE06A09F07B
:103B900099FAA06A09F096FA606A09F093FAE06966
:103BA00009F090FA206A09F08DFAA06909F08AFA02
:103BB000606909F087FA206909F084FA204609F063
:103BC00081FA00BFC6E72DE9F04F0C46984608B9C8
:103BD000BDE8F08FD51002F0070C012707FA0CF7AB
:103BE000FBB20A2D04DB052501234FF4C2480992DC
:103BF00041190F7807EA03060CB126B1E8E706B9C8
:103C0000E6E74FF0000848EA0269DDF824A000BFAB
:103C100000BFEFF31087D0F814C0CCF8307072B644
:103C200000BF1CB10F781F430F7002E00F789F4355
:103C30000F70077F022F2EDB477F07F1010B0BF080
:103C4000FF0C90F81CB0E34501DC4FF0000C90F83D
:103C50001EB0E34504D14FF0010B80F81FB019E00E
:103C6000D0F818B04BF83790D0F818B00BEBC70B62
:103C7000CBF804A080F81DC090F820E090F81CB0AC
:103C8000ABF1010BDE4505DA90F820B00BF1010B2A
:103C900080F820B000BFD0F814C0DCF8307087F393
:103CA000108800BF00BF93E710B109B1022A00D20B
:103CB00070470023C36083600160426000BFF7E784
:103CC000F0B5044615460BB10020186024B119B1B7
:103CD000D4E90270B84201D10020F0BDE768206845
:103CE000C6192A4615E03078D4E902C7674500D1E5
:103CF00011E001F8010BE7687F1CE760D4F804C00D
:103D0000674503D10027E760266800E0761C521E55
:103D100000BF002AE7D100BFA81ADEE710B10021DA
:103D2000C16081607047F0B5044615461E4614B167
:103D3000206800B109B90020F0BDA7682068C31948
:103D40002A4619E0A768781CE768874204D06768AC
:103D5000874202D1E76807B910E00F781F706768E3
:103D6000874203D10027A760236803E0A7687F1C70
:103D7000A7605B1C491C521E002AE3D100BFA81A91
:103D8000DAE738B50446022221466846FCF7D1FA44
:103D9000BDF8000038BD38B5044604222146684607
:103DA000FCF7C7FA009838BD38B50446042221460E
:103DB0006846FCF7BEFA009838BD38B504460422C0
:103DC00021466846FCF7B5FA009838BD38B5044678
:103DD000012221466846FCF7ACFA9DF8000038BD88
:103DE00030B50246CB1001F007050120A840C4B24F
:103DF00022B10A2B02DAD05C204008B1012030BD8C
:103E00000020FCE730B50246CB1001F00705012089
:103E1000A840C4B222B10A2B02DAD05C204008B11B
:103E2000012030BD0020FCE72DE9F04781460F4618
:103E30000024A046002500BF44210120FCF7B2FA6F
:103E4000041E01D0443500E0A0E034210120FCF73D
:103E5000A9FA206108B1343500E097E00826302146
:103E60000120FCF79FFA606108B1303500E08DE079
:103E700010213046FCF796FAA06118B1102000FB23
:103E8000065500E082E050210120FCF78BFAE0614A
:103E900008B1503500E079E01126022E0ADB082136
:103EA0003046FCF77FFA206218B1082000FB065567
:103EB00000E06BE0A8210120FCF774FA606208B111
:103EC000A83500E062E078210120FCF76BFAA062DF
:103ED00008B1783500E059E03C210120FCF762FA96
:103EE000E06208B13C3500E050E060210120FCF7C1
:103EF00059FA206308B1603500E047E04FF4BA7129
:103F00000420FCF74FFA606310B105F5BA6500E0D4
:103F10003CE04FF4B6710420FCF744FAA06310B102
:103F200005F5B66500E031E00C210120FCF73AFA16
:103F3000E06308B10C3500E028E074210120FCF7B3
:103F400031FA206408B1743500E01FE03821012007
:103F5000FCF728FA606008B1383500E016E00C2163
:103F60001220FCF71FFAA06008B1D83500E00DE080
:103F700018210C20FCF716FAE06010B105F59075D9
:103F800000E003E001202060A04600BF00BFB8F1C0
:103F9000000F02D12046FFF7DAFD07B13D60404631
:103FA000BDE8F0872DE9F04F8DB0044617469846DE
:103FB00000200C902069FDF735FD0B909DF82C003A
:103FC0007F2803D09DF82C00052801D1012000E0B6
:103FD00000200A906068FCF727FC206CFDF750FB7E
:103FE00008B101200C9025686068468A4FF00009EE
:103FF000206C08B9002100E0017C012900D189462C
:10400000E06908B1C16809B9002101E0C168097817
:1040100009B1012000E0002082460DB100200CE033
:104020001B21E069FFF7EEFE20B91C21E069FFF7D4
:10403000E9FE08B1012000E0002083460DB1002018
:1040400003E01821E069FFF7DDFE09900020CDE9CB
:1040500004BACDE90608002240F203313140099844
:1040600009B1012300E00023C6F38001CDE901324C
:10407000009103900DB1002101E09DF92C100A463A
:104080004B463946E06BFDF748F9206818B10C98AB
:104090000DB0BDE8F08F43463A46E0690A99FCF757
:1040A000D3FE43463A460BA92069FDF76DFD0C90FF
:1040B0009DF82C007F2803D09DF82C00052801D105
:1040C000012000E000200A904FF0000A0FE0CAEB48
:1040D000CA0202EB4202616A01EBC20043463A4661
:1040E0000A99FEF71DFD0AF1010000F0FF0ABAF17E
:1040F000010FECDB43463A4660690A99FDF774F814
:104100003A46E06A0A99FFF757FA0C98C0E72DE99A
:10411000F84304460E4617469846206808B1BDE8A5
:10412000F8832069FDF77EFC052801D1012000E01D
:104130000020814600250EE00096C5EB451202EBFB
:104140004202616B01EB82004B4642463946FDF765
:104150001BFF681C05B2042DEEDB00BFDFE72DE975
:10416000F04704460E4617464FF00009206830BB62
:1041700000BF2069FDF756FC8046B8F17F0F02D0E2
:10418000B8F1050F01D1012000E0002082463B4636
:1041900032465146206BFFF7BDF80546281E04D075
:1041A000012803D0022808D103E006E04FF00109FE
:1041B00003E06068FCF76AFA00BF00BF00BF484632
:1041C000BDE8F0872DE9F84304460E4617469846A9
:1041D000206808B1BDE8F8832069FDF723FC0528B5
:1041E00001D1012000E00020814600250CE000966E
:1041F0005B216943A26B02EB81004B464246394684
:10420000FFF784FB681C05B2042DF0DB00BFE1E77B
:1042100013B50446042201A92046FCF78AF80420BD
:104220001CBD13B50446042201A92046FCF781F801
:1042300004201CBD10B500BF2A48006800F40030FF
:1042400000B115E0BFF34F8FBFF36F8F00202649F9
:104250000860BFF34F8FBFF36F8F2248006840F4B0
:10426000003020490860BFF34F8FBFF36F8F00BF4E
:1042700000BF1C4B1B6803F4803303B130E0002304
:10428000184C70342360BFF34F8F231F1868C0F39E
:104290004E3100BFC0F3C90200BF43F6E07303EA2A
:1042A00041134FF0404404EA827423430E4C10340F
:1042B000236000BF00BF131EA2F10102EDD10B1E4F
:1042C000A1F10101E6D1BFF34F8F064B1B6843F408
:1042D0008033044C2360BFF34F8FBFF36F8F00BF59
:1042E00010BD000014ED00E050EF00E010B50446F2
:1042F0000CB9124810BD012C01D10020FAE7022CA4
:1043000001D10F48F6E7032C01D10020F2E7042C7D
:1043100001D10020EEE7052C01D10020EAE7062CB0
:1043200001D10020E6E7072C01D10020E2E74FF49D
:104330008E7104A000F030F90020DBE7E8080024CB
:10434000141100242E2E5C2E2E5C557365725C6257
:1043500073705C7372635C6273705F756172745FBB
:104360006669666F2E630000704700001FB532213A
:10437000002008F0BFFB04F0F3FB6948694988603E
:104380006948C860694848601A2008704FF4FA709C
:104390004880084608F0FCFB0020654948648864B2
:1043A0004FF4FA7000210A2200921346CDE9012150
:1043B000039005220A2140F2E770FCF7E9F8ADE02E
:1043C00008F066FC002007F091FC10B1022008F014
:1043D00022F807F0D3FD0446002CF0D0012C06D0C3
:1043E000042C13D0072C2FD0162C77D14BE0514939
:1043F0000968182208698221FDF776FC4D49096891
:10440000192208698221FDF76FFC86E000204A49E5
:10441000087048700220CDE9001046490968002361
:1044200041F21702886A182109F014F90220424962
:10443000CDE900103F490968002341F21702886A5C
:10444000192109F007F968E0E8203B4908700320CA
:1044500048700220CDE9001036490968002341F276
:104460001702886A182109F0F5F802203249CDE9CF
:10447000001030490968002341F21702886A1921A7
:1044800009F0E8F849E02A48406C401C2849486493
:104490000846806C401C886426490968886B10B106
:1044A0000121C0F8501100BF0A2000F0C7FA2348CC
:1044B0001421214ACDE9002102901E4909680023F8
:1044C0004FF40052886A182108F0CCFF1A48C078CF
:1044D0000090194883784278017800E01CE018A029
:1044E00007F090F915481421134ACDE900210290F4
:1044F0001049096800234FF40052886A192108F016
:10450000B1FF0D48C07800900B488378427801785D
:1045100016A007F077F900E000BF00BF50E70000E9
:10452000E8050024FC040024E1BF0008B0040024D6
:104530006C0200245800002414050024000000240C
:1045400043414E6F70656E536C617665494431200E
:104550003D20253032642C20253032642C2025303B
:1045600032642C20253032640000000043414E6F3D
:1045700070656E536C617665494432203D2025306C
:1045800032642C20253032642C20253032642C20DB
:10459000253032640000000001B9704700BFFEE71B
:1045A00010B5024800F024FC10BD000028050024CE
:1045B00010B5024800F01CFC10BD000028050024C6
:1045C00010B5024800F014FC10BD0000E8050024FE
:1045D00010B5024800F00CFC10BD0000E8050024F6
:1045E00010B5034800F004FC024800F001FC10BDC7
:1045F00028050024E805002410B501464A6B086828
:10460000D0F884004FF6FC74A04340EA82000C68A6
:10461000C4F884000868D0F8840020F47F04088F70
:1046200044EA00400C68C4F88400886B02440868BF
:10463000D0F888004FF6FC74A04340EA82000C6872
:10464000C4F888000868D0F8880020F4FE04888F39
:1046500044EA00400C68C4F88800C86B02EB4002D2
:104660000868D0F8A0004FF6FC74A04340EA82002E
:104670000C68C4F8A0000868D0F8A00020F4FE047C
:104680004020405A44EA00400C68C4F8A000D1E938
:10469000104004FB00220868D0F8B0004FF6FC740C
:1046A000A04340EA82000C68C4F8B0000868D0F863
:1046B000B00020F4FE04B1F8480044EA00400C6861
:1046C000C4F8B000D1E9124004FB00220868D0F819
:1046D000AC004FF6FC74A04340EA82000C68C4F8BA
:1046E000AC00D1E9144004FB00220868D0F8F000C7
:1046F0004FF6FC74A04340EA82000C68C4F8F00056
:104700000868D0F8F00020F47C14B1F8580044EAAE
:1047100000400C68C4F8F000886D02EB40020868A5
:10472000D0F8C0004FF6FC74A04340EA82000C6849
:10473000C4F8C0000868D0F8C00020F47C14B1F8B8
:104740005C0044EA00400C68C4F8C0000868D0F877
:10475000C00020F07C5491F8600044EA00600C68CE
:10476000C4F8C0002A4C486B04EB8000C866CC6ECD
:10477000886B04EB80040C670C6FC86B04EBC004FF
:104780004C67D1E9100460434C6F04EB80048C67E4
:10479000D1E9120460438C6F04EB8004CC67D1E94B
:1047A00014046043CC6F04EB8004802044504458D0
:1047B000886D04EBC004842044508C6EC86D604347
:1047C0008424645804EB8004882044508C6E086E66
:1047D00060438824645804EB80049020445040587F
:1047E0000C4CA04209D99831486840F0200048603C
:1047F000032001F89809012010BDCB6E02E00020D3
:1048000018601B1D902040589842F8D80020F3E70C
:1048100000AC0040FCD300402DE9F04105461446B1
:104820001E46D1F804C0BCF1000F0AD1D1F810C067
:10483000D1F808804CEA080CB1F800804CEA8843B3
:104840000BE0D1F810C04CF0804CD1F808804CEA55
:10485000080CD1F800804CEA080391F82080D1F8C8
:104860001CC04CEA086CD1F818804CEA080CD1F84E
:1048700014804CEA080CD1F80C804CEA0807D5F8F3
:1048800068C00CFB06FCD5F8848008EB8C02136032
:10489000121D1760121D002019E000F1030C14F81E
:1048A0000CC04FEA0C6800F1020C14F80CC048EA86
:1048B0000C4800F1010C14F80CC048EA0C2C14F858
:1048C00000804CEA080CC2F800C0121D001DDFF881
:1048D0001880D1F80CC008EB1C4C9CF800C0844533
:1048E000DBD8BDE8F0810000A8D7000870B5044609
:1048F000B3F5804F13D1D1E9000540EA05108D686A
:1049000040EA05208D6928438D8940EA054054F826
:104910002250064E3540284344F8220003E06FF051
:10492000704044F82200002070BD00000000F0CF6D
:1049300070B50246086852F8200020F001000E68A9
:1049400042F826008868082801D1402500E00025AB
:10495000486828438E683043CE6830430E69304340
:104960004E6930438E693043CE6930430E6A30431E
:104970004E6A30438E6A3043CE6A40EA0603086BC3
:104980000343486B0343886B0343114C44F4801486
:1049900044F4001444F4E024086852F82000A043D2
:1049A00018430E6842F82600086BB0F5801F07D147
:1049B000086828B1106820F480100E6B3043106036
:1049C000086818B110684E6B30431060002070BD4D
:1049D0007FFB080030B50346D1E9000540EA051029
:1049E0008D6840EA05208D8940EA0545088A401E09
:1049F00045EA0055087D801E45EA00608D69284320
:104A0000551C53F8255005F040452843551C43F8E4
:104A10002500186800F48010B0F5801F0BD158688D
:104A200020F47004088A401E44EA0054586820F4B8
:104A3000700020435860002030BD000070B504466F
:104A400001F040F806462546681C10B1044800787D
:104A5000054400BF01F036F8801BA842FAD370BDB0
:104A6000380000240348006840F001000149086054
:104A7000704700002004005830B5034693F8984072
:104A8000012C01D0022C3ED11868806D084030B94D
:104A90001868C06D40F001001D68E8650EE01868F8
:104AA000806D0840884206D11868C06D40F0020051
:104AB0001D68E86502E003201D68E86501F40070E8
:104AC00030B11868D0F8E00010431D68C5F8E00068
:104AD00001F4806030B11868D0F8E40010431D681C
:104AE000C5F8E40000BF1868406D0B4D0D40284329
:104AF0001D6868650948006840EA9170074D2860A4
:104B000000BF002030BDD3F89C0040F00200C3F885
:104B10009C000120F6E70000FFFFCF3F14A80040F3
:104B20002DE9F04104460E461746706800B900E0D2
:104B300000BF94F89800022832D12068D0F8C00055
:104B400000F07C5040B9D4F89C0040F02000C4F83C
:104B50009C000120BDE8F0812068D0F8C40000F47A
:104B6000001038B1D4F89C0040F40070C4F89C00E8
:104B70000120EFE72068D0F8C400C0F304452B46BD
:104B80003A4631462046FFF747FE0120A8402168FB
:104B9000C1F8D0000120A840C4F894000020D9E753
:104BA000D4F89C0040F00800C4F89C000120D1E734
:104BB000704770B50446049D94F8980001280AD106
:104BC000080140EA820040EA430028432668C6F80C
:104BD0008000002070BDD4F89C0040F00400C4F8B0
:104BE0009C000120F6E77047704700002DE9F04374
:104BF00004460D469C46002394F89880B8F1020FB5
:104C000074D1402D38D12068D0F8A00000F4FE0007
:104C100040B9D4F89C0040F02000C4F89C0001206A
:104C2000BDE8F0832068D0F8A40000F07F0038B918
:104C3000D4F89C0040F48070C4F89C000120EFE799
:104C40002068D0F8A400C0F3006040B12068D0F81C
:104C5000A0004FF00049B9EBD07F00D101232068BC
:104C6000D0F8A400C0F305200344606C5843D4F886
:104C7000749009EB80014BE0412D38D12068D0F8C9
:104C8000B00000F4FE0038B9D4F89C0040F02000D9
:104C9000C4F89C000120C3E72068D0F8B40000F0FD
:104CA0007F0038B9D4F89C0040F48070C4F89C00B0
:104CB0000120B5E72068D0F8B400C0F3006040B12F
:104CC0002068D0F8B0004FF00049B9EBD07F00D198
:104CD00001232068D0F8B400C0F305200344E06C41
:104CE0005843D4F8789009EB800111E06EE0206D14
:104CF000A84207D8D4F89C0040F02000C4F89C00DB
:104D000001208DE7606D6843D4F87C9009EB800149
:104D1000086800F080405060506820B90868C0F30F
:104D20008A40106003E0086820F060401060086866
:104D300000F000509060086800F000401061091D0C
:104D4000088880B2D061086800F47020D0600868DC
:104D500000F480105061086800F400109061086849
:104D6000C0F3066010620868C00F5062091D0F464C
:104D7000002603E0B85D0CF80600761CDFF85C90B6
:104D8000D06809EB10400078B042F3D8402D03D131
:104D90002068C0F8A83017E0412D03D12068C0F882
:104DA000B83011E0202D06D20120A840D4F80090A0
:104DB000C9F8980008E005F01F09012000FA09F081
:104DC000D4F80090C9F89C00002029E7D4F89C0092
:104DD00040F00800C4F89C00012021E7A8D7000893
:104DE00001460A68D2F8C42002F03F0070477047BD
:104DF0002DE9F04F89B00446F54800688507F4486E
:104E0000001D006805EA80752068006D00F470469A
:104E10002068406D06402068006D00F00F07206894
:104E2000406D07402068006D00F0F0082068406D7C
:104E300000EA08082068006D00F071592068406D94
:104E400000EA09092068006D00F0607A2068406D72
:104E500000EA0A0A2068406D00F4807080B1206882
:104E6000006D00F4807058B100BF4FF4807021686D
:104E700008650020D649086000BF2046FFF7B7FF4D
:104E80002068406D00F48060D8B12068006D00F4A7
:104E90008060B0B12068D0F8DC0007902068D0F8BE
:104EA000E40007990840079000BF4FF48060216834
:104EB00008650020C649086000BF2046079900F039
:104EC000A3FC65B100BFC348284021680865A80F4E
:104ED000BF49086000BF29462046FFF769FE66B15A
:104EE00000BFBC48304021680865B00FB849086071
:104EF00000BF3146204600F0D3FC67B100BFB54883
:104F0000384021680865B80FB149086000BF3946CC
:104F1000204600F0F0FBB8F1000F0ED000BFAD4806
:104F200008EA0000216808654FEA9870A8490860FF
:104F300000BF4146204600F0EAFB2068406D00F4C7
:104F4000006080B12068006D00F4006058B100BFBF
:104F50004FF400602168086500209D49086000BF8B
:104F6000204600F09EFC2068406D00F40070D8B12F
:104F70002068006D00F40070B0B12068D0F8D8004F
:104F800008902068D0F8E00008990840089000BF19
:104F90004FF400702168086500208D49086000BF4B
:104FA0002046089900F032FC2068406D00F4002093
:104FB00080B12068006D00F4002058B100BF4FF4AC
:104FC00000202168086500208149086000BF204654
:104FD00000F090FB2068406D00F4803080B12068C4
:104FE000006D00F4803058B100BF4FF4803021686C
:104FF000086500207649086000BF204600F003FCE9
:105000002068406D00F4802080B12068006D00F4BD
:10501000802058B100BF4FF480202168086500202F
:105020006B49086000BF204600F0ECFB2068406D33
:1050300000F4003098B12068006D00F4003070B1C9
:1050400000BF4FF400302168086500206049086007
:1050500000BFD4F89C0040F08000C4F89C00BAF176
:10506000000F0ED000BF5B480AEA00002168086507
:105070004FEA9A705649086000BF51462046FFF734
:10508000B3FDB9F1000F10D000BF524809EA00008B
:10509000216808654FEA99704D49086000BFD4F84F
:1050A0009C0040EA0900C4F89C004B4920688842F3
:1050B0007DD16068806800F0030000287ED06068C1
:1050C000006A00F00F0B6068406A00EA0B0B606832
:1050D000006A00F0300006906068406A0699084057
:1050E00006906068006A00F4C07005906068406ACD
:1050F0000599084005906068006A00F4FC4004903F
:105100006068406A0499084004906068006A00F48E
:10511000F02003906068406A039908400390BBF157
:10512000000F06D06068C0F820B05946204600F055
:1051300066FB069830B106986168086220460699B9
:1051400000F05FFB6068406A00F04000A8B1606852
:10515000006A00F0400080B16068C06B000C0290F3
:105160006068C06B00F03F000190402061680862F9
:105170002046DDE9012100F043FB059830B1059898
:10518000616808622046059900F038FB049840B138
:10519000049861680862D4F89C0004990843C4F834
:1051A0009C00039818B103986168086200E005E06C
:1051B000D4F89C0003990843C4F89C00D4F89C00E0
:1051C00010B12046FFF70FFD09B0BDE8F08F0000D9
:1051D00010A80040FFFFCF3F00A0004070B594B082
:1051E00004464C22B34901A8FBF7A3F814B90120E7
:1051F00014B070BDB0492068884203D1206800F522
:1052000080706060A068B0F5407F00D100BF206C66
:1052100000B100BFA06C00B100BF206D00B100BFA5
:10522000206E00B100BFD4E91710084400B100BFE0
:1052300094F8980028B9002084F89900204600F0DE
:105240003DF92068806920F010002168886100F035
:1052500039FC05460EE000F035FC401B0A2809D950
:105260009834606840F001006060032004F89809F9
:105270000120BDE72068806900F008000828EAD016
:105280002068806940F001002168886100F01AFC04
:1052900005460EE000F016FC401B0A2809D9983498
:1052A000606840F001006060032004F89809012064
:1052B0009EE72068806900F001000028EAD020689D
:1052C000806940F0020021688861207C012806D1B5
:1052D0002068806920F040002168886105E020682E
:1052E000806940F0400021688861607C012806D117
:1052F0002068806940F480402168886105E020686A
:10530000806920F4804021688861A07C012806D152
:105310002068806920F480502168886105E0206859
:10532000806940F48050216888612068806920F499
:105330004070A1680843216888612068806920F076
:10534000A400216888612068006920F010002168AD
:105350000861E068012806D12068806940F00400F7
:105360002168886120E0E068F0B1E068022815D08B
:105370002068806940F080002168886120680069A9
:1053800040F0100021680861E06803280CD1206813
:10539000806940F020002168886105E0206880690C
:1053A00040F0200021688861207E401E4106E069AF
:1053B000401E41EA0020216A491E0843A18A491E75
:1053C00040EA01402168C861A068B0F5407F0FD174
:1053D000A06A401EE16A491E40EA0121206B401E7E
:1053E00041EA0011A08C401E41EA00402168C860DB
:1053F000206E38B12068D0F8C000616E0843216883
:10540000C1F8C000D4E91710084460B12068D0F892
:10541000C80020F0070001AAA16E52F8211008432D
:105420002168C1F8C800206C60B12068D0F8BC00C9
:1054300020F0070001AA616C52F82110084321688E
:10544000C1F8BC00A06C68B12068D0F8BC0020F0A6
:10545000700101AAE06C52F8200041EA00102168B6
:10546000C1F8BC00206D68B12068D0F8BC0020F401
:10547000E06101AA606D52F8200041EA0020216835
:10548000C1F8BC000C492068884205D1606880687A
:1054900020F0030061688860002044F8940FA06049
:1054A00001202071943C2046FFF7A6F806463046BE
:1054B0009EE60000B8D7000800A0004010B5B6B0C6
:1054C0000446BC2102A8FAF75BFF7D48844278D1EC
:1054D00000BF7C48006840F001007A490860084637
:1054E000006800F00100019000BF00BF00BF084647
:1054F000006840F0010008600846006800F0010004
:10550000019000BF00BF4FF40040029005200390BF
:105510005021049102210591142106910221079145
:1055200080210891002109910A914FF000501D90AF
:1055300002A800F045FE20B14FF4817162A0FFF790
:105540002BF800BF5F480C30006840F480705D4964
:105550000C3108600846006800F48070019000BFBC
:1055600000BF4FF4805031900220329001203390E0
:10557000022034900920359031A95B4800F092F95F
:105580004FF4006031900920359031A9564800F061
:1055900089F900220221132000F069FB0022022178
:1055A000152000F064FB002202213F2000F05FFB89
:1055B000132000F048FB152000F045FB3F2000F0D1
:1055C00042FB4A48844278D100BF3E48006840F020
:1055D00002003C4908600846006800F002000190A3
:1055E00000BF00BF00BF0846006840F0020008602E
:1055F0000846006800F00200019000BF00BF4FF4B1
:105600000040029005200390502104910221059151
:10561000142106910221079180210891002109910E
:105620000A914FF000501D9002A800F0C9FD20B172
:105630004FF4967124A0FEF7AFFF00BF21480C3055
:10564000006840F480701F490C310860084600680B
:1056500000F48070019000BF00BF4FF40050319003
:10566000022032900120339002203490092035909E
:1056700031A91F4800F016F94FF4805031900920ED
:10568000359031A91A4800F00DF9002202211420AA
:1056900000F0EDFA00220221162000F0E8FA0022C4
:1056A00002213F2000F0E3FA142000F0CCFA16208B
:1056B00000F0C9FA3F2000F0C6FA36B010BD000075
:1056C00028050024E04402582E2E5C2E2E5C5573D3
:1056D00065725C6273705C7372635C6273705F634B
:1056E000616E2E630000000000000258E8050024EF
:1056F00000040258704770B505460C4604F00100DE
:1057000020B122464021284607F044FD70BD70B507
:1057100005460C4604F0100020B1224641212846DF
:1057200007F038FD70BD014691F8980001280CD1B2
:10573000022081F898000868806920F001000A685A
:1057400090610020C1F89C007047D1F89C0040F0A7
:105750000400C1F89C000120F6E70146002291F800
:105760009800022842D10868806940F001000B6867
:1057700098610CE0322A09D99831486840F001005C
:105780004860032001F8980901207047521C0868FE
:10579000806900F001000028ECD0002208688069D0
:1057A00020F010000B6898610CE0322A09D998317A
:1057B000486840F001004860032001F89809012082
:1057C000E3E7521C0868806900F008000828ECD064
:1057D0000868806940F002000B6898610020C1F8F9
:1057E0009400012081F898000020CEE7D1F89C00B9
:1057F00040F00800C1F89C000120C6E770477047E0
:105800007047704770477047704700002DE9F041BE
:1058100006460F4600202149096808621F490968A9
:10582000C8611E480068808C002835D01B4800687D
:10583000C46800BF00BFEFF3108018490968C86250
:1058400072B600BF15480068058A17E0206990B15C
:1058500021461248006807F01FFD60B1002020615A
:105860000E480068808C401E0C4909688884606975
:105870000A490968C861681E85B21834002DE5D14F
:105880001DB9002005490968888404490968C86A67
:1058900080F3108800BF00BFBDE8F08168000024DD
:1058A00070477047F8B502460023734DDEE00127CC
:1058B0009F400E6806EA0704002C71D04E68012E46
:1058C00008D04E68022E05D04E68112E02D04E68C8
:1058D000122E13D190685F000326BE40B0435F00D4
:1058E000CE68BE4030439060506801269E40B04371
:1058F0000E79C6F300169E4030435060D0685F00BA
:105900000326BE40B0435F008E68BE403043D06087
:105910004E68022E02D04E68122E13D1DF0802F11B
:10592000200656F827005E07F70E0F26BE40B0434C
:105930005F07FF0E0E69BE403043DF0802F120060C
:1059400046F8270010685F000326BE40B0430E797A
:1059500006F003065F00BE40304310604E6806F05C
:105960008056B6F1805F1BD100BF444E366846F0CA
:105970000206424F3E603E46366806F0020600963A
:1059800000BF00BF3E4E9F0856F827009E07370F06
:105990000F26BE40B0433B4EB24202D100262EE05D
:1059A00063E0394EB24201D1012628E0374EB242BF
:1059B00001D1022623E0364EB24201D103261EE079
:1059C000344EB24201D1042619E0334EB24201D125
:1059D000052614E0314EB24201D106260FE0304ECA
:1059E000B24201D107260AE02E4EB24201D108266A
:1059F00005E02D4EB24201D1092600E00A269F079C
:105A00003F0FBE4030431E4E9F0846F827002868CF
:105A1000A0434E6806F48036B6F5803F00D120439F
:105A200028606868A0434E6806F40036B6F5003F6B
:105A300000D1204368604FF0B0463068A0434E6804
:105A400006F48016B6F5801F00D120434FF0B04613
:105A500030607068A0434E6806F40016B6F5001F6B
:105A600000D120434FF0B04670605B1C0E68DE40F2
:105A7000002E7FF41CAFF8BD80000058F44402589B
:105A80000804005800000258000402580008025898
:105A9000000C025800100258001402580018025856
:105AA000001C025800200258002402580AB18161EB
:105AB00001E00B048361704701480068000C7047E7
:105AC0000010005C014800687047000030000024AE
:105AD0000348006803490978084401490860704791
