:020000042400D6
:1010000080100524A5130024B9130024BB13002469
:101010000D2E0024BF130024C11300240000000083
:10102000000000000000000000000000C3130024C6
:10103000C513002400000000C7130024C9130024B6
:10104000CB130024CB130024CB130024CB13002498
:10105000CB130024CB130024CB130024CB13002488
:10106000CB130024CB130024CB130024CB13002478
:10107000CB130024CB130024CB130024CB13002468
:10108000CB130024CB130024CB130024CB13002458
:10109000CB130024CB130024CB130024CB13002448
:1010A000CB130024CB130024CB130024CB13002438
:1010B000CB130024CB130024CB130024CB13002428
:1010C000CB130024CB130024CB130024CB13002418
:1010D000CB1300246D2E0024CB130024CB1300244B
:1010E000CB130024CB13002400000000CB130024FA
:1010F000CB130024CB130024CB130024CB130024E8
:10110000CB130024CB130024CB130024CB130024D7
:10111000CB130024CB130024CB130024CB130024C7
:10112000CB130024CB130024CB130024CB130024B7
:10113000CB130024CB130024CB130024CB130024A7
:10114000CB130024CB13002400000000000000009B
:10115000CB130024CB130024CB130024CB13002487
:10116000CB130024CB130024CB130024CB13002477
:10117000CB130024CB130024CB1300240000000069
:10118000CB130024CB130024CB130024CB13002457
:10119000CB130024CB130024CB130024CB13002447
:1011A000CB130024CB130024CB130024CB13002437
:1011B000CB130024CB130024CB130024CB13002427
:1011C000CB130024CB130024CB130024CB13002417
:1011D000CB130024CB130024CB130024CB13002407
:1011E000CB130024CB130024CB130024CB130024F7
:1011F000CB130024CB130024CB130024CB130024E7
:10120000CB130024CB130024CB130024CB130024D6
:10121000CB130024CB130024CB130024CB130024C6
:10122000CB130024CB130024CB130024CB130024B6
:10123000CB130024CB130024CB130024CB130024A6
:10124000CB130024CB130024CB130024CB13002496
:10125000CB130024CB130024CB130024CB13002486
:10126000CB130024CB130024CB130024CB13002476
:10127000CB130024CB130024CB130024CB13002466
:10128000CB130024CB130024CB1300240000000058
:10129000CB130024CB13002400F002F800F072F806
:1012A0000AA090E8000C82448344AAF10107DA45C1
:1012B00001D100F067F8AFF2090EBAE80F0013F0A1
:1012C000010F18BFFB1A43F001031847A0B200003A
:1012D000C0B200000A444FF0000C10F8013B13F0BC
:1012E000070408BF10F8014B1D1108BF10F8015B7F
:1012F000641E05D010F8016B641E01F8016BF9D172
:1013000013F0080F1EBF10F8014BAD1C0C1B09D1C8
:101310006D1E58BF01F801CBFAD505E014F8016B3A
:1013200001F8016B6D1EF9D59142D6D370470000CC
:101330000023002400250026103A28BF78C1FBD8DE
:10134000520728BF30C148BF0B607047662906F0BE
:101350009E81642900F09880782900F0D18073295B
:1013600000F06584002070471FB506F08BF900F08F
:1013700075FC04000020002106F06EF9E0601FBD3E
:1013800010B510BD00F06EFD1146FFF7EDFF04F043
:10139000B5F800F08CFD03B4FFF7F2FF03BC01F0D9
:1013A000CAFD0000DFF83000016841F470010160FF
:1013B000BFF34F8F09480047FEE7FEE7FEE7FEE771
:1013C000FEE7FEE7FEE7FEE7FEE7FEE70448054925
:1013D000054A064B7047000088ED00E09912002492
:1013E0008006052480100524800805248008052433
:1013F000704700000FB4044910B503AA029800F02A
:101400001BFC10BC5DF814FB040005240FB41CB5D4
:10141000074B06AA7B4469460090059800F0DDFB67
:101420000020694600F0ECFB1CBC5DF814FB0000DA
:10143000E907000070B50C460546012A05D028785A
:10144000800600D5EA69002302E0012305E05B1C69
:10145000934202D2E05C0028F9D1A869E618C01ACC
:10146000A861286A184428622846AFF3008004E087
:10147000D5E9012114F8010B9047B442F8D328466E
:10148000AFF3008070BD00002DE9F0410646002456
:1014900010687529314616A510D0AFF300800028DA
:1014A00002DA404213A507E031688A0701D512A588
:1014B00002E0490704D511A5012401E0AFF3008043
:1014C00000210A2206F1240709E0B0FBF2FCB0FB80
:1014D000F2F302FB1C00303078541846491C0028F7
:1014E000F3D123462A463046BDE8F04100F008B962
:1014F000000000002D0000002B0000002000000074
:1015000070B504460D4621461068AFF3008021886F
:10151000090502D50F4A7A4402E00E4A7A440E3297
:10152000002104F1240305E000F00F060009965D98
:101530005E54491C0028F7D120780023000704D509
:10154000702D02D009B1022311322046BDE870404F
:1015500000F0D6B808AF00002DE9F05F89460446D8
:101560004FF0000ADFF824B1FB44C0F820A0204669
:10157000E168884700287DD0252806D0D4E90121DC
:101580009047206A401C2062F1E700255F46204614
:10159000E16888472028064607DB312E05D2B819B6
:1015A00010F8200C08B10543F1E7A80701D525F094
:1015B0000405C4F81CA00027C4F818A02A2E09D0DE
:1015C000304601F0B1FC38B304EB8708303EC8F870
:1015D000186019E059F8041B204604EB870291615A
:1015E000E1688847012F064618D1E069002820DA13
:1015F00025F020051DE0D8F8180000EB800006EB70
:1016000040003038C8F818002046E1688847064690
:1016100001F08AFC0028EED1012F0AD02E2E08D12D
:101620002046E16888477F1C0646022F45F02005CA
:10163000C4DBA069002803DA404245F00105A0613F
:10164000E80701D025F01005A6B1A6F14100192840
:1016500002D8203645F400654A46314620462560CA
:101660004D46FFF773FE60B1012807D0ED1D25F050
:10167000070000E007E000F1080978E705F1040938
:1016800075E730467AE7206ABDE8F09FDEAE0000DD
:101690004FF0013C50F8042B51F8043B9A4215D10D
:1016A000A2EB0C03934313EACC130BD150F8042B99
:1016B00051F8043B9A4209D1A2EB0C03934313EA7D
:1016C000CC13E7D04FF00000704700BFD01A01BA2A
:1016D000B1FA81F101F0180122FA01F0CB40C1F119
:1016E0002001DBB2C0B2C01A2CFA01F3D11A914327
:1016F00011EAC311E6D170477047704770477047D1
:101700002DE9F0470D4699469246044600F124081B
:101710000168880604D5E06921F01001216000E02D
:101720000120A84201DD471B00E00027A1697A19CA
:1017300002EB0900081AA0612078C00602D42046F6
:10174000AFF30080002608E0D4E901211AF8060072
:101750009047206A401C761C20624E45F4DB2078BE
:10176000C0060AD52046AFF3008006E0D4E9012187
:1017700030209047206A401C2062381EA7F10107E4
:10178000F4DC07E0D4E9012118F805009047206A4D
:10179000401C2062281EA5F10105F3DC2046AFF3B2
:1017A00000802078000602D50220BDE8F0870120E5
:1017B000FBE770472DE9FF4F0C461E464FF0FF3701
:1017C0008BB0D2E90001DDF860800A908A46C1F34F
:1017D0000A5505B93D46002108464FF00000BAF110
:1017E000000F00F4400005DA00EB80004FF44001E8
:1017F00001EA50004FEA9059B9F1010F00DDB946F6
:101800000A9850EA4A000ED044F61050A5F2FF356F
:1018100045432F14B8F1000F1ED07542291E1EDD5E
:10182000C9F100021CE0B8F1010F4FF0000001D037
:10183000302103E0F24305E02154401CB042FBDBC1
:1018400030460022002121540B99C1F80880C1E9DB
:1018500000200FB0BDE8F08FBD1B6D1CDEE74A46CF
:1018600000DA694206A800F083FA06AB93E80700A5
:1018700003AB83E8070050460A9900F021FB8DE88E
:101880000700A0F500501F3800900398002D0ADDD6
:1018900042F21F014A460844002303A90390684608
:1018A00000F08AFD09E0A0F500504A461F380023E9
:1018B00003A90390684600F094FD8DE8070000043A
:1018C000000C03D04FF0FF30410800E01046B8F1A3
:1018D000000F03D00022009215461EE0751E05D4AD
:1018E00000F0C0F9303262556D1EF9D5B3460122C1
:1018F000084302D000227F1C04E02078302801D168
:1019000000227F1E002A099784D01DE0112D07DADE
:1019100000F0A8F9303262556D1C50EA0102F5D191
:10192000084302D00098C8B10EE00021681E05E00F
:10193000235C625C63542254401E491C8142F7DBE5
:10194000AB46A81B401E0990002004F80B000B9822
:10195000099AC0F80880C0E9002B7AE711264FF0F9
:10196000000857E72DE9F04F88460446D21D22F0C3
:10197000070191B0D1E90001CDE90A0101F0BCFAFB
:1019800002460B98C00F01D02D2007E02068810788
:1019900001D52B2002E0202101EAC000032A099092
:1019A00001D0072A05DB03464146204600F0A0F996
:1019B0000BE12078800601D5E06900E00620B8F14F
:1019C000650F814606D0B8F1660F18D0B8F1670FE1
:1019D00070D131E00020B9F1110F009001DB11232B
:1019E00001E009F101030AAA01A90CA8FFF7E2FE30
:1019F000DDE90C70002609F10105834647E001206E
:101A00004B4600904FF000470AAA01A90CA8FFF727
:101A1000D1FEDDE90DB00C995D46002610B909F143
:101A200001000D18B9EB050003D4C0F1FF3609F130
:101A30000105A5EB09002BE0B9F1010F01DA4FF028
:101A400001090020B9F1110F0090484601DD112372
:101A500000E003460AAA01A90CA8FFF7ABFEDDE9E6
:101A60000C704D4600268346207800070AD4AB450B
:101A700000DA5D4601A8012D04DD411911F8011CB1
:101A8000302907D04F4502DA17F1040F04DA01209C
:101A900082460FE06D1EEEE7002F02DCED1B3E4498
:101AA00003E0781CA84200DD7D1CB81B00F1010A90
:101AB0004FF000472078000703D4AA4501DB4FF020
:101AC000FF3A0021B7F1004F0DF143088DF84310A4
:101AD00024D002202B23002F01DA7F422D230A215C
:101AE000021EA0F1010000DC5FB197FBF1FC97FB47
:101AF000F1F201FB1C7C17460CF1300C08F801CD0B
:101B0000EEE7A8F1010003702188090501D5452100
:101B100000E06521A0F1010800F8011C09980FA957
:101B2000A1EB0807FF1D00B10120411901EBEA708C
:101B3000A1693844081A401EA0612078C00602D46A
:101B40002046AFF30080099828B1D4E901219047DD
:101B5000206A401C20622078C00622D52046AFF3C0
:101B600000801EE0002E04DBB34502DD01A8805D8D
:101B700000E03020D4E901219047206A401C206217
:101B8000761CAAF101005FEA000A0AD100F066F8AB
:101B9000C0680168405CD4E901219047206A401C7C
:101BA0002062281EA5F10105DCDC07E0D4E9012153
:101BB00018F8010B9047206A401C2062381EA7F1DC
:101BC0000107F3DC2046AFF30080032011B041E6AB
:101BD00001694A1C02610878704700B58FB0CDE9F1
:101BE00001310021059105497944CDE903101146E1
:101BF0006846FFF7B1FC0FB000BD0000E5FFFFFF36
:101C00000A6802F8010B0A60704710B5436913B106
:101C1000AFF3008001E0FFF70DFC012010BD12784A
:101C200000F124010A7000224A700122EDE71168D8
:101C30004FF0FF32E9E70000074B70B50D467B44DB
:101C4000FFF7CBFF0446284600F004F910B14FF02F
:101C5000FF3070BD204670BDA71B000000487047D4
:101C60003C06052430B5B0F10A024FEA900E71F13E
:101C700000034EEA817EB0EB0E0061EB91014FEA6A
:101C8000101E4EEA017E10EB0E0041EB11114FEADF
:101C9000102E4EEA016E10EB0E0041EB11214FEABF
:101CA000104E4EEA014E10EB0E0041EB1141401870
:101CB00041F100014FEAD00040EA41704FEAD10102
:101CC00010EB80054FEA810444EA907444EB010470
:101CD0006D1944EB0404521BA3414FF0000348BFAD
:101CE0000A3200D530BD401C41F1000130BD00007A
:101CF0002DE9F0411F46044603260168072A01F436
:101D0000006004DB08B116A505E016A503E008B1E4
:101D100015A500E015A521F010002060A069C01EE7
:101D2000A0610FB1401EA0612046AFF300804FB10B
:101D3000D4E9012138469047206A401C2062C01C2B
:101D4000206206E0206AFAE7D4E9012115F8010BC8
:101D50009047761EF8D22046AFF30080BDE8F081B0
:101D60004E414E006E616E00494E4600696E66003F
:101D70002DE9F047814616468AB0354878440DC8AB
:101D80008DE80D0032487844801C03AC0DC884E80F
:101D90000D0041F69B300844372190FBF1F290FB97
:101DA000F1F5A5F1800501FB12041B3C02D564424C
:101DB000012000E00020DFF898A080460027FA44C8
:101DC000AAF1BE0A0EE0E0070AD03246684607EBE9
:101DD000470101230AEB810100F003FB8DE80700B6
:101DE00064107F1C002CEED1194F7F44AE3F19E0E8
:101DF000E80715D007EB04100DF1180A90E80E0063
:101E00008AE80E00C068F04201D198190890324665
:101E1000012306A903A800F0E4FA03AB83E8070056
:101E20006D10641C002DE3D14FF00103324669466A
:101E3000B8F1000F03A802D000F0BEFA01E000F0F4
:101E4000D0FAC9E90001C9F808200AB0BDE8F08756
:101E500058A70000007B00F08000704700487047E2
:101E60001C0605247546FFF7F9FFAE4605006946D6
:101E7000534620F00700854618B020B5FFF7A6FAB4
:101E8000BDE820404FF000064FF000074FF000087B
:101E90004FF0000B21F00701AC46ACE8C009ACE8FC
:101EA000C009ACE8C009ACE8C0098D46704710B560
:101EB0000446AFF300802046BDE81040FFF76BBA40
:101EC0005FEA400C08BF91F0000F4FEA8C234FEA05
:101ED000C12243EA51514FEA1C5018BF00F5F040AF
:101EE0004FEA300018BF41F000415FEA6C5C00F03F
:101EF0002980BCF1FF3F08BF40F080407047130CC1
:101F000006BF12044FF0100C4FF0000C130E04BF6C
:101F100012020CF1080C130F04BF12010CF1040C97
:101F2000930F04BF92000CF1020CD30F04BF5200B8
:101F30000CF1010C11464FF00002A0F11F00A0EBC4
:101F40000C00704711F0004F08BF704731F000419E
:101F50003FF4D5AF0B0C06BF09044FF0100C4FF047
:101F6000000C0B0E04BF09020CF1080C0B0F04BF90
:101F700009010CF1040C8B0F04BF89000CF1020C59
:101F8000CB0F04BF49000CF1010CCCF12003A0EBF6
:101F90000C0022FA03F302FA0CF241EA030100F109
:101FA0000100704720F07F4C80EA030023F07F4758
:101FB000ACEB070303F57C5300F0004003F1FF0393
:101FC0002DE980494FEA154B09B44FEA144325EA3D
:101FD0000B4E24EA03480FF2042606EB13274908A8
:101FE0003E785FEA320203FB0667C7F5000707FB8E
:101FF00006F64FEA54374FEAD64606F1020607FBCB
:10200000066CCCF1005C4FEA1C472CEA074C07FB3E
:1020100006F40CFB06F504EB15464FEA961634BFA2
:1020200000204FF000404FEAD13706FB07FC4FEA93
:102030001C4C0CFB0BF7D21B03FB0CF761EB0701ED
:102040000CFB0EF7B0EB074072EB17420CFB08F7E6
:1020500034BFA2EB0742B2EB074261EB17414FEAF4
:102060000C444FEA910706FB07FC4FEA1C4C0CFBA3
:102070000BF7B0EBC74072EB573203FB0CF734BFE2
:10208000A2EBC742B2EBC74261EB57310CFB0EF734
:10209000B0EBC70072EB57720CFB08F734BFA2EB32
:1020A000C702B2EBC70261EB5771039F4FEA816130
:1020B00041EA921104EBCC044FEAD1374FEA826235
:1020C00006FB07FC42EA90124FEA80604FEA1C4C84
:1020D0000CFB0BF7D21B03FB0CF761EB07010CFBAE
:1020E0000EF7B0EB074072EB17420CFB08F734BF5A
:1020F000A2EB0742B2EB074261EB17414FEA8C5566
:102100004FEA910704EB9C2406FB07FC4FEA1C4CAA
:102110000CFB0BF7B0EBC74072EB573203FB0CF72D
:1021200034BFA2EBC742B2EBC74261EB57310CFBA5
:102130000EF7B0EBC70072EB57720CFB08F734BF19
:10214000A2EBC702B2EBC70261EB577115EB4C254E
:102150004FEA816141EA92114FEA82624FEAD13738
:1021600042EA901206FB07FC44F100044FEA80604B
:102170004FEA1C4C0CFB0BF7D21B03FB0CF761EB7B
:1021800007010CFB0EF7B0EB074072EB17420CFB9C
:1021900008F734BFA2EB0742B2EB074261EB1741ED
:1021A00015EB1C154FEA813141EA92414FEA823228
:1021B00042EA90424FEA80304FEA0C7644F1000444
:1021C00048EA03434EEA0B484FF0000EB2EB080C0E
:1021D00071EB030724BF624639464EEB0E0E4FF0FB
:1021E000000B0018524149414BEB0B0BB2EB080CB2
:1021F00071EB03077BF1000B24BF624639464EEBBF
:102200000E0E4FF0000B0018524149414BEB0B0BE7
:10221000B2EB080C71EB03077BF1000B24BF6246A5
:1022200039464EEB0E0E51EA020718BF46F0010682
:1022300016EB0E7655F1000254F1000103D5BDE80E
:102240008901BDE80088BDE88901BDE80048B619EC
:10225000524141EB0101A3F10103704780807F7E71
:102260007D7C7B7A7978777676757473727171700C
:102270006F6E6E6D6C6C6B6A6A69686867666665BE
:102280006464636362616160605F5F5E5E5D5D5C4C
:102290005C5B5B5A5A5959585857575656555555BD
:1022A0005454535352525251515050504F4F4F4E1D
:1022B0004E4D4D4D4C4C4C4B4B4B4A4A4A4949496B
:1022C00048484847474747464646454545444444AD
:1022D000444343434342424242414141002B9C46D6
:1022E00030D477002BD01CB54FEA370703B44FF03A
:1022F00010004FF01001BAF1000F06D0BCF1000F32
:10230000DCBF40F0080040F008014FF000000FBCB7
:10231000BDE810400BF1010BBBF1010F08BF5FEAF4
:10232000170722BF12F1010211F101014FF0004124
:1023300043F1000300F0004043EA00007047F9D386
:102340005708D0E746EA064613F1400F4FEA164613
:102350001FDD13F1200FDFBF16430A460021203393
:102360005B42BED0C3F1200746EA064602FA07F7F1
:102370004FEA164646EA0706C3F1200722FA03F29F
:1023800001FA07F721FA03F14FF0000342EA0702CE
:10239000A7E746EA020646EA06464FEA164646EA36
:1023A0000106BCBF46EA0646360C4FF000034FF06C
:1023B00000024FF0000194E72DE9804C9A469346C5
:1023C00070B491E8380007C831EA400C48BF34EADD
:1023D000430C03D5FFF7E6FDFFF780FFF0BCBDE837
:1023E000008C2DE9804C9A46934670B491E83800F1
:1023F00007C810F0804F08BF13F0804F03D100F0E2
:1024000005F8FFF76BFFF0BCBDE8008C20F07F47BC
:1024100080EA030023F07F4C07EB0C03A3F57C5309
:1024200000F00040A3F1FE0392F0000F00F0B38033
:1024300095F0000F00F077802DE901494FEA114037
:102440004FEA144621EA004800FB06FC24EA06474E
:1024500008FB06F607FB08F800FB07F718EB064831
:102460004CEB164C4FEA124B18EB07484FEA154657
:102470004CEB174022EA0B4E0BFB06FC25EA064705
:102480000EFB06F607FB0EFE0BFB07F71EEB064ED8
:102490004CEB164C4FF000061EEB074E4CEB174B67
:1024A00018EB0B0840F1000018EB0E0B58EB00087E
:1024B00040F100008F1A4FF000013CBFC943661B7A
:1024C00014BFB5EB040C00213CBFC943F61B4FEA17
:1024D00017444EEA8E0E27EA04454FEA1C4704FBD8
:1024E00007622CEA074C05FB07F70CFB05F604FB1B
:1024F0000CFC16EB074642EB174216EB0C4642EB80
:102500001C421BEB060658EB0202414146EA9E06BE
:1025100001D5BDE80189B619524141EB0101A3F192
:102520000103BDE801894FEA14454FEA114724EA47
:10253000054621EA074C05FB07F406FB07F70CFBF1
:1025400006F105FB0CFC11EB074144EB17444FEA85
:10255000124711EB0C4144EB1C4422EA074C05FBEB
:1025600007F206FB07F70CFB06F605FB0CFC16EB67
:10257000074642EB174216EB0C4642EB1C456A1825
:1025800054F1000148BF7047B619524141EB0101B7
:10259000A3F10103704795F0000F37D04FEA1142C5
:1025A0004FEA144721EA024624EA074C02FB07F1EE
:1025B00006FB07F70CFB06F402FB0CFC14EB0744CC
:1025C00041EB17414FEA154714EB0C4441EB1C411A
:1025D00025EA074C02FB07F506FB07F70CFB06F69E
:1025E00002FB0CFC16EB074645EB174516EB0C46B9
:1025F00045EB1C42121951F1000148BF7047B61952
:10260000524141EB0101A3F1010370474FEA144528
:102610004FEA114724EA054621EA074C05FB07F17A
:1026200006FB07F70CFB06F24FF0000605FB0CFC5F
:1026300012EB074241EB174112EB0C4251EB1C41EC
:1026400048BF7047921841EB0101A3F101037047A5
:1026500030B5039C42EA811545EA032545EA044565
:10266000C56630BDF0B50446059D0A2606E0C6F1F4
:102670000A00B0F57A7F01D90320F0BD2068406FD1
:1026800000F001000028F2D042EA811040EA032065
:1026900040EA05402768F8660020EEE710B50246DC
:1026A00000BF107C012801D1022010BD0120107450
:1026B00000BFD1E90040A04201D9486800E00868A5
:1026C00003461068D0F8980000F0FC201468C4F8A5
:1026D00098001068D0F8980043EA03442043146837
:1026E000C4F898001068D0F89C0000F4004014680A
:1026F000C4F89C008C89086940EA04400C7A40EADE
:1027000004601468D4F89C4020431468C4F89C000A
:102710001068D0F8A40020F47F401468C4F8A40026
:102720001068D0F8A4004C6940EA04201468C4F88A
:10273000A40000BF0020107400BF00BFB5E7024630
:1027400000BF107C012801D10220704701201074C5
:1027500000BF4868032800D100BF1068406B20F01C
:102760000100136858631068D0F8000420F00100DD
:102770001368C3F800041068806B20F0030013682E
:1027800098631068806BCB6818431368986310686F
:10279000C06B6FF30D001368D8631068C06B0B69D2
:1027A00018431368D8631068006C6FF30C0013684B
:1027B00018641068006C4B6918431368186410683B
:1027C000406C6FF30C00136858641068406C8B69A0
:1027D0001843136858641068C06820F00300136839
:1027E000D8601068C0680B6818431368D860106818
:1027F000406920F0070013685861D1E90830184398
:10280000CB69184313685B691843136858611068F3
:10281000006920F00F0013681861106800694B68A8
:102820001843136818611068D0F8000420F00E00F7
:102830001368C3F800041068D0F800044B6840EA3D
:1028400043001368C3F80004486803280BD11068DC
:10285000006920F4807013681861106800698B6843
:102860001843136818611068806C6FF30B001368CD
:1028700098641068806C8B6A1843136898641068B9
:10288000C06C6FF30B001368D8641068C06CCB6A1F
:1028900018431368D8641068006D6FF30E00136856
:1028A00018651068006D0B6B184313681865106885
:1028B000406D6FF30900136858651068406D4B6BED
:1028C0001843136858651068806D6FF3090013682A
:1028D00098651068806D8B6B184313689865106855
:1028E000C06D6FF309001368D8651068C06DCB6BBD
:1028F00018431368D8651068006E6FF30D001368F5
:1029000018661068006E0B6C184313681866106820
:10291000806B20F40040136898631068806B4B6CE8
:102920001843136898631068806920F47F00136867
:10293000986110688069B1F8483040EA0340136834
:1029400098611068806920F0FF0013689861106832
:102950008069CB6C1843136898611068806B20F411
:102960000050136898631068806B0B6D18431368F0
:1029700098631068806B20F4805013689863106827
:10298000806B4B6D1843136898631068806B20F45C
:102990000060136898631068806B8B6D1843136830
:1029A00098631068806B20F48060136898631068E7
:1029B000806BCB6D1843136898631068806B20F4AC
:1029C0000070136898631068806B0B6E184313686F
:1029D00098631068806B20F48070136898631068A7
:1029E000806B4B6E1843136898631068806B20F4FB
:1029F0008040136898631068806B8B6E184313686F
:102A0000986300BF0020107400BF00BF9DE6000067
:102A10002DE9F84304460D4614B90120BDE8F883BA
:102A2000607C10B9204600F094F90320607400BF68
:102A3000002000902068D0F8300440F080702168B9
:102A4000C1F830042068D0F8300400F080700090A5
:102A500000BF00BF0A2606E0C6F10A00B0F57A7F83
:102A600001D90320DAE72068D0F80C0400F4805084
:102A70000028F1D02068D0F830047C490840216853
:102A8000C1F8300428688000696840EAC1202989BB
:102A900040EA01402168D1F8301408432168C1F8A8
:102AA000300400BF002000902068D0F8300440F0CF
:102AB00001002168C1F830042068D0F8300400F02B
:102AC0000100009000BF00BF012000F098F90A2625
:102AD00006E0C6F10A00B0F57A7F01D903209DE730
:102AE0002068D0F80C0400F480700028F1D000BFFA
:102AF000002000902068406840F001002168486094
:102B00002068406800F00100009000BF00BF20680E
:102B1000806820F0FF002168886020688068A168D4
:102B20000843216888602068D0F8A00040F00200C7
:102B30002168C1F8A0002068D0F8A00040F004008F
:102B40002168C1F8A0002068D0F8A40020F003009C
:102B50002168C1F8A4002068D0F8A400E168084307
:102B60002168C1F8A4000A262068D0F8A40000F06B
:102B7000030098B90AE0C6F10A00B0F57A7F05D9DA
:102B800000BF0020207400BF032047E72068D0F872
:102B9000B00000F014001428EDD112E00AE0C6F1F4
:102BA0000A00B0F57A7F05D900BF0020207400BF6D
:102BB000032033E72068D0F8B00000F09400942898
:102BC000EDD1686808B1686800E0012080462848B7
:102BD00008FB00F0297A01F00302012191404843EB
:102BE00046F2A81229685143B0FBF1F72068D0F8EB
:102BF000180420F03F002168C1F818042068D0F8BC
:102C0000180438432168C1F8180400202168C1F86D
:102C1000C40000212068C0F8C8100020A06100BFD7
:102C200000902068406820F001002168486020681A
:102C3000406800F00100009000BF00BF2068D0F89D
:102C4000940020F003002168C1F894002068D0F8B7
:102C50009400616841F0010108432168C1F89400C3
:102C600000206061012060740020D7E60386FCFF2D
:102C700000093D002DE9FF4F81B004461F46DDF8F5
:102C80003CA000BF207C012803D1022005B0BDE894
:102C9000F08F0120207400BF4FF00A0B0AE0CBF147
:102CA0000A00B0F57A7F05D900BF0020207400BF6C
:102CB0000320EBE72068406F00F001000028EED011
:102CC000DDF83880032F01D2384600E003200646A5
:102CD000002507E01AF80500E9000831884040EABD
:102CE00008086D1CB542F5D32068C0F87080A7EBCA
:102CF0000609B24419E0B9F1040F01D2484600E0D8
:102D0000042006464FF00008002506E01AF80500EA
:102D1000E900884040EA08086D1CB542F6D32068F7
:102D2000C0F87080A9EB0609B244B9F1000FE2D1F6
:102D3000781CC0F30720791CCBB200902068DDE935
:102D40000212FFF785FC00BF0020207400BF00BF07
:102D50009CE770472DE9F84304460E46174698460F
:102D6000DDF8209000BF207C012802D10220BDE8C0
:102D7000F8830120207400BF43463A46314620467E
:102D8000CDF80090FFF76EFC054600BF00202074D0
:102D900000BF2846EBE708B5014600BF087C0128C4
:102DA00001D1022008BD0120087400BF00BF00202F
:102DB00000900868406840F001000A6850600868A8
:102DC000406800F00100009000BF00BF00BF00207D
:102DD00000900868D0F8040440F008000A68C2F8BF
:102DE00004040868D0F8040400F00800009000BF54
:102DF00000BF00BF0020087400BF00BFD2E710B5BD
:102E00000446A0B200F0EAFA10BD000010B500229E
:102E100002210A4803F0A0F909A0FEF7EBFA4FF4EB
:102E20007A7000F0DBFA0CA0FEF7E4FA4FF47A7047
:102E300000F0D4FA03F04CFA10BD00000004025870
:102E40004D656D20416363657373204572726F72C7
:102E500021210D0A00000000536F66742052657333
:102E60006574696E672E2E2E0D0A00001F49C96910
:102E700001F0200109B31D49496AC8B21C490988FB
:102E800001F40041C9B91A49098801F4804161B1CE
:102E90000A2803D00021164A118020E0144909882D
:102EA00041F40041124A118019E00D2806D1104961
:102EB000098841F480410E4A118010E00C490988CC
:102EC000C1F30D010B4A505409490988491C084AAD
:102ED000118011460988C72901DD002111800349AD
:102EE000096A41F00801014A11627047001001406F
:102EF000080005241405052403B401984100009836
:102F000050EAC12018BF04204A0D18BF40F001004C
:102F100040F2FF72B2EB515F08BF40F0020001289F
:102F200008BF052002B0704730380A2801D20120BE
:102F300070470020704700BF704710B501F0C0F81F
:102F400010BD70B505460C46164606E028466A1CBC
:102F500095B200F008F804F8010B301EA6F101014B
:102F60008EB2F3D170BD70B50446002601F040F971
:102F70002112A02202EB4101C8B201F011F901F0C7
:102F800071F92546E11704EB11610912A4EB012147
:102F9000C8B201F005F901F065F901F029F9A120A5
:102FA00001F0FEF801F05EF9002001F0CDF80646D0
:102FB00001F03EF9304670BD70B505460C46164628
:102FC00006E02178284600F009F8681C85B2641CE8
:102FD000301EA6F101018EB2F3D170BD70B504466A
:102FE0000E4601F005F92112A02202EB4101C8B200
:102FF00001F0D6F801F036F92546E11704EB11612E
:103000000912A4EB0121C8B201F0CAF801F02AF9B3
:10301000304601F0C5F801F025F901F009F90A2060
:1030200000F0DCF970BD000010B500224FF4006123
:103030000D4803F091F800F019F8012291020A48B6
:1030400003F08AF800F012F800224FF4806106487D
:1030500003F082F800F00AF80122D102024803F0DE
:103060007BF800F003F810BD0004025810B50220F0
:1030700000F0BEF910BD00001CB500BF114800688B
:1030800040F002000F49086000BF00BF084600681A
:1030900040F00200086000BF0120009000230246BB
:1030A00081020190084803F063F801200090034674
:1030B0000246C1020190044803F05AF800F094F867
:1030C0001CBD0000E04402580004025810B5012263
:1030D000D1020A4803F040F8FFF7C8FF012291022D
:1030E000064803F039F8FFF7C1FF00224FF4806172
:1030F000024803F031F8FFF7B9FF10BD0004025891
:1031000070B50546002400261AE06006040E012270
:103110009102104803F020F8FFF7A8FF4FF4006178
:103120000C4803F011F808B1601CC4B200224FF43F
:103130008061084803F010F8FFF798FF701CC6B2D2
:10314000082EE2DB15B9FFF7C1FF01E0FFF76CFFC6
:10315000204670BD0004025870B50446002518E0F2
:10316000E2094FF400610F4802F0F6FFFFF77EFF1F
:10317000012291020B4802F0EFFFFFF777FF0022D8
:103180004FF48061074802F0E7FF6006040E681CF8
:10319000C5B2082DE4DB0122D102024802F0DCFFB7
:1031A00070BD00000004025810B50122D1020D4884
:1031B00002F0D2FF012291020A4802F0CDFFFFF790
:1031C00055FF00224FF40061064802F0C5FFFFF7EB
:1031D0004DFF00224FF48061024802F0BDFFFFF76F
:1031E00045FF10BD0004025810B500224FF40061E5
:1031F000094802F0B1FFFFF739FF012291020648AA
:1032000002F0AAFFFFF732FF0122D102024802F0CA
:10321000A3FFFFF72BFF10BD0004025870B5002478
:1032200000250122D102144802F096FFFFF71EFF8D
:1032300001229102104802F08FFFFFF717FF09E00B
:10324000601CC4B2FA2C03DDFFF7CEFF012508E0B5
:10325000FFF70CFF4FF40061074802F075FF0028EC
:10326000EED100BF00224FF48061034802F074FFEA
:10327000FFF7FCFE284670BD000402588CB0002405
:10328000002505264648808841F21801884200D171
:103290000A2683E04348416800208847002468E00C
:1032A0004048808E0121A140084000285AD03D4866
:1032B0000C3030F814003A490988884257DA394806
:1032C000203030F814003649498888424FDA02A885
:1032D00030F824004FF6FF7188420DD131480C3090
:1032E00030F8140002A921F824002E48203030F8CC
:1032F000140001EB840148802B4850F8240002217F
:10330000284F2037CDE9001037F81430143F37F834
:10331000142002AF07EB8407798802AF37F8240046
:1033200001F05EF81F480C3030F8140002A921F8B3
:1033300024001C48203030F8140001EB8401488040
:1033400018480C3030F8141015480088183881429D
:103350000DDD1448203030F81400142807DA01F08D
:1033600047FB04E04FF6FF7002A921F82400601C1F
:10337000C4B2B44294DB052000F030F8681CC5B23A
:10338000142095FBF0F100FB115038B900BF07483D
:10339000406980F008000549486100BF7AE70000F5
:1033A00014000524C8040524947600240000025863
:1033B0004FF0E021096941F004014FF0E022116172
:1033C000054908601146096941F0010111616FF07A
:1033D0007F415161704700000000052410B504468C
:1033E0004FF47A7104FB01F000F002F810BD000008
:1033F00070B5034600224FF0E02675690D4E366821
:1034000003FB06F44FF0E026B16910E04FF0E02630
:10341000B06988420BD0884202D20E1A324402E0D0
:103420002E1A0E4432440146A24200D300E0EDE7DA
:1034300000BF70BD0000052470B5A4B05F480068EF
:1034400040F010005D4908605C485838006840F062
:1034500010005A49583908606420FFF7BFFF5748E9
:103460005838006820F010005449583908604FF06F
:10347000A04053490860002048600A2150488160FC
:103480000121C16078202190052022900020239006
:1034900021A94B48FFF7BCFA10B1012024B070BD40
:1034A0004FF46676474C484D0020069007900890F0
:1034B000022009904FF434700A9000200B9040F6DF
:1034C000FF700C9004200D9002200E9000200F90B1
:1034D00000EE104AB8EE400BB2EE002B80EE021B5D
:1034E00000EE105AB8EE402B81EE020B9FED371B19
:1034F00020EE010BBCEEC00B10EE100A80B2109053
:1035000000EE104AB8EE400BB2EE002B80EE021B2C
:1035100000EE105AB8EE402B81EE020B9FED2D1BF2
:1035200020EE010BBCEEC00B10EE100A80B2119021
:1035300000EE104AB8EE400BB2EE002B80EE021BFC
:1035400000EE105AB8EE400B81EE002B00EE106A30
:10355000B8EE400B22EE000BBCEEC00B10EE100AD2
:1035600080B212903C2013904620149015904FF496
:10357000A06016904FF40040179004201890199006
:1035800000201A901B901C901D901E901F90209060
:1035900006A90B48FFF7D3F808B101207EE72320E6
:1035A0000090019002900390002004900A20059062
:1035B00069460348FFF772F800206FE7E4440258B9
:1035C000000605240046C323008793030000000083
:1035D0000000444000000000000054401CB500BF43
:1035E0002B48006840F002002949086000BF00BF76
:1035F0000846006840F08000086000BF012000908D
:103600000023024601460190224802F0B1FD01204C
:10361000009000230246202101901F4802F0A8FDDF
:10362000012220211C4802F097FD1420FFF7D6FE4E
:1036300000222021184802F08FFD3220FFF7CEFE35
:1036400001222021144802F087FDC820FFF7C6FEA2
:10365000002201210F4802F07FFDFFF7EDFE052259
:1036600019214FF4967001F0EFF900F04DF8322077
:10367000FFF7B4FE0948FFF78EFBC820FFF7AEFE48
:1036800049F681000649888001F0C6FF00201CBD74
:10369000E044025800040258001C025800060524A9
:1036A000140005242DE9FC4107460D4614461E462C
:1036B0004FF000085EB920782B460522394600906D
:1036C0001048FFF747FBD0B14FF0010817E0012E7B
:1036D0000AD120782B461522394600900948FFF779
:1036E00039FB60B1B0460AE0334639223946054815
:1036F000CDE90054FFF7BEFA08B14FF0010840468B
:10370000BDE8FC81000605241FB500242E48006892
:1037100040F008002C49086000BF00BF00BF00BF98
:103720002A4884613B2444F41C148460812444F4BA
:10373000EE04C46040F281542548044323480461E8
:1037400040F2C754234804432048446100201F49E5
:10375000C862012001F0C0FE1F4820490860022015
:103760001F49C861002007210622CDE90002CDE9EA
:1037700002101A48FF2302220168002001F04CFDCC
:103780004FF4A0604FF434730022114600901046AD
:1037900001F0A4FD4FF43470114908604FF4A060AB
:1037A0004860084600880F4908800D488088488096
:1037B00002200B4981F82000012001F0B9F9002016
:1037C00001F084FE1FBD0000E444025800100050C8
:1037D0000000470300009703000000D01C000524F0
:1037E000DC0505241400052400BF054AD26902F057
:1037F0004002002AF9D0C2B2014B9A627047000021
:10380000001001400EB500BF3B48006840F00200C8
:103810003949086000BF00BF0846006840F0020058
:10382000086000BF012000900023024601030190C0
:10383000324802F09DFC0120009000231A4620210E
:1038400001902E4802F094FCFFF716FC00224FF482
:1038500080512A4802F080FC1420FFF7BFFD0122AE
:103860001103264802F078FC3220FFF7B7FD002054
:103870008DF80800012202A900F046F9012202A9F0
:10388000A42000F041F916208DF80800012202A9B9
:10389000802000F039F90C208DF80800012202A9DF
:1038A000882000F031F9022202A9A12000F02EF8B0
:1038B0009DF80800302803D19DF8090003280DD099
:1038C0009DF80900012809D09DF80900022805D0BB
:1038D0009DF8080068B99DF8090050B99DF80900E5
:1038E0009DF8082000EB022105A0FDF783FD0020D4
:1038F0000EBD0120FCE70000E0440258000402581D
:103900004354502049443A25780D0A002DE9F041EE
:1039100006460F461546FFF747FC7020FFF71CFCD4
:10392000FFF77CFCF0B2FFF717FCFFF777FCFFF71F
:103930003BFC7120FFF710FCFFF770FC00240BE04C
:10394000691EA14201D0012100E000210846FFF7D5
:10395000D7FB3855601CC4B2AC42F1DBFFF744FC26
:10396000BDE8F0812DE9FC410746002001900024CC
:10397000002661480078401C5F49087008460078BE
:103980000A2190FBF1F201FB120018B15A480078AD
:103990000A2867DA012201A90220FFF7B7FF9DF884
:1039A000040000F00F0000285CD09DF8040000F037
:1039B0000F0006287BDA9DF8040000F00F014FF697
:1039C000FF70884085B2E84380B240F440404B49E4
:1039D00088860420FFF702FD00245AE04748808EC5
:1039E0000121A1400840E0B3454931F81400042208
:1039F0006946FFF78BFF414890F8440000F0010052
:103A0000C0B19DF801009DF8001001F00F0100EB1E
:103A100001203A49203121F814009DF803009DF857
:103A2000021001F00F0100EB012134480C3020F8A6
:103A300014101EE09DF801009DF8001001F00F0128
:103A400000EB01202F490988081A81B22B480C305D
:103A500020F814109DF803009DF8021001F00F01EA
:103A600001E014E023E000EB01202449203121F89B
:103A700014009DF8000000F0F000802807D000211D
:103A80001E48203020F81410143820F81410601C40
:103A9000C4B2052CA2DB01261848808920B917483A
:103AA000008C08B9002001900020134908709DF88F
:103AB000040000F01F00A8B91048808E00F40040F8
:103AC00030B10E48808E20F400400C49888609E011
:103AD0004FF6FF700949888108840846808E00F4FB
:103AE0006040888604480078F02802DD0A200249F8
:103AF00008703046BDE8FC8112050524C804052481
:103B000018C40024140005242DE9F04105460E4692
:103B100017464FF00008FFF747FB7020FFF71CFB2C
:103B2000FFF77CFBE8B2FFF717FBFFF777FB0024FA
:103B30000BE0305DFFF710FBFFF770FB8046B8F13C
:103B4000000F00D003E0601CC4B2BC42F1DB00BF38
:103B5000FFF74AFB4046BDE8F08100001FB500BFFB
:103B60004348006840F002004149086000BF00BFC0
:103B70000846006840F00200086000BF0120009085
:103B800000230246010301903A4802F0F1FA0120B5
:103B9000009000231A4620210190364802F0E8FAEE
:103BA000FFF76AFA00224FF48051324802F0D4FA4B
:103BB0001E20FFF713FC012211032E4802F0CCFA5D
:103BC0001E20FFF70BFC0020012103460246CDE931
:103BD00000102021274802F0CBFA6420FFF7FEFBFB
:103BE000042202A948F2401000F05EF800208DF88F
:103BF0000C0002A920A0FDF7FDFB22A102A8FDF701
:103C000047FDB0B120A102A8FDF742FD88B120A177
:103C100002A8FDF73DFD60B11FA102A8FDF738FD28
:103C200038B11FA102A8FDF733FD10B1012004B087
:103C300010BD19A102A8FDF72BFD10B90A201949E2
:103C4000087002208DF80800012202A948F2400005
:103C500000F0E0F90A20FFF7C1FB00208DF8080012
:103C6000012202A948F2400000F0D4F90020DEE76A
:103C7000E0440258000402584354502049443A2575
:103C8000730D0A003931310039313437000000003A
:103C90003131353800000000393237310000000082
:103CA00039363700100505242DE9F04105460F4649
:103CB0001646FFF779FA2820FFF74EFAFFF7AEFA1B
:103CC0002812FFF749FAFFF7A9FAE8B2FFF744FA1A
:103CD000FFF7A4FAFFF768FA2920FFF73DFAFFF78C
:103CE0009DFA00240BE0711EA14201D0012100E0E9
:103CF00000210846FFF704FA3855601CC4B2B442EC
:103D0000F1DBFFF771FABDE8F081000071B583B017
:103D1000002001900026BA480078401CB84908707D
:103D2000084600780A2190FBF1F201FB120018B15D
:103D3000B34800780A2870DA012203A948F24E102D
:103D4000FFF7B2FF9DF80C0000F0800078B19DF8FD
:103D50000C0000F00F00AB490978884207DC002016
:103D60000190012201A948F24E1000F053F99DF88C
:103D70000C0000F00F0000284FD09DF80C0000F060
:103D80000F00A0490978884247DC9DF80C0000F03C
:103D90000F014FF6FF70884084B29B48858EE04348
:103DA00080B240F440409849888608468289954808
:103DB0000078401E0C3121F810209348028C914865
:103DC0000078401E143121F8102000200190B3E04B
:103DD0008D48808E9DF804200121914008400028E4
:103DE0004BD08A499DF8042031F81200042202A920
:103DF000FFF75AFF8648808845F21051884219D053
:103E00008348808845F21031884213D080488088EA
:103E100047F29671884201D10CE0CBE07C48808863
:103E200047F28971884205D07948808849F60601B1
:103E300088423ED1744890F8440000F00100E8B197
:103E40009DF80A009DF80B1000EB012070490988CD
:103E5000081A81B26C480C309DF8042020F812102A
:103E60009DF808009DF8091000EB012081B266481A
:103E700020309DF8042020F8121058E09DF808002A
:103E80009DF8091000EB012081B25F480C309DF8CD
:103E9000042020F812109DF80A009DF80B1000EB8A
:103EA000012081B2584820309DF8042020F81210DB
:103EB0003DE0554890F8440000F00100D0B19DF875
:103EC00008009DF8091000EB012081B24E480C302B
:103ED0009DF8042020F812109DF80A009DF80B10A0
:103EE00000EB012081B2484820309DF8042020F8E2
:103EF00012101CE09DF80A009DF80B1000EB012049
:103F000043490988081A81B23F480C309DF80420C3
:103F100020F812109DF808009DF8091000EB012010
:103F200081B2394820309DF8042020F812109DF805
:103F30000400401CC0B201909DF80400314909788A
:103F40008842FFF645AF01262F488089304909880D
:103F5000884205DC2C48008C2D494988884226DDA2
:103F60009DF80C0000F00F0001280ADD2648C089EA
:103F7000254988810846408C088400202049087023
:103F800018E020480078401E1F490C3131F810001D
:103F90000C3988811B480078401E203131F8100010
:103FA00020390884802003900846858602E000209E
:103FB000134908709DF80C0000F08F00802815D17F
:103FC0001148808E00F4004030B10F48808E20F4FC
:103FD00000400D49888609E04FF6FF700A49888144
:103FE00008840846808E00F4604088860448007883
:103FF000F02802DD0A2002490870304604B070BD86
:104000001105052410050524C804052404C4002452
:10401000140005242DE9F04104460E4617464FF0E2
:104020000008FFF7C1F82820FFF796F8FFF7F6F829
:104030002012FFF791F8FFF7F1F8E0B2FFF78CF8E4
:10404000FFF7ECF800250BE0705DFFF785F8FFF750
:10405000E5F88046B8F1000F00D003E0681CC5B257
:10406000BD42F1DB00BFFFF7BFF84046BDE8F0817D
:1040700010B500224FF400510D4802F06DF800F029
:1040800019F8012211030A4802F066F800F012F84C
:1040900000224FF48051064802F05EF800F00AF862
:1040A00001225103024802F057F800F003F810BD56
:1040B000000C025810B50220FFF79AF910BD00005D
:1040C0001CB500BF1148006840F008000F490860A7
:1040D00000BF00BF0846006840F00800086000BF4D
:1040E000012000900023024601030190084802F0DD
:1040F0003FF8012000900346024641030190044826
:1041000002F036F800F094F81CBD0000E0440258BC
:10411000000C025810B5012251030A4802F01CF8A5
:10412000FFF7C8FF01221103064802F015F8FFF758
:10413000C1FF00224FF48051024802F00DF8FFF752
:10414000B9FF10BD000C025870B5054600240026CA
:104150001AE06006040E01221103104801F0FCFF72
:10416000FFF7A8FF4FF400510C4801F0EDFF08B134
:10417000601CC4B200224FF48051084801F0ECFFEB
:10418000FFF798FF701CC6B2082EE2DB15B9FFF7E7
:10419000C1FF01E0FFF76CFF204670BD000C025824
:1041A00070B50446002518E0E2094FF400510F48AD
:1041B00001F0D2FFFFF77EFF012211030B4801F04F
:1041C000CBFFFFF777FF00224FF48051074801F043
:1041D000C3FF6006040E681CC5B2082DE4DB012293
:1041E0005103024801F0B8FF70BD0000000C0258F6
:1041F00010B5012251030D4801F0AEFF0122110359
:104200000A4801F0A9FFFFF755FF00224FF40051C3
:10421000064801F0A1FFFFF74DFF00224FF4805147
:10422000024801F099FFFFF745FF10BD000C02584E
:1042300010B500224FF40051094801F08DFFFFF73F
:1042400039FF01221103064801F086FFFFF732FF14
:1042500001225103024801F07FFFFFF72BFF10BD41
:10426000000C025870B500240025012251031348A8
:1042700001F072FFFFF71EFF012211030F4801F04A
:104280006BFFFFF717FF07E0601CC4B2FA2C03DDD9
:10429000FFF7CEFF012506E04FF40051074801F07B
:1042A00053FF0028F0D100BF00224FF48051034893
:1042B00001F052FFFFF7FEFE284670BD000C0258C9
:1042C0001CB500BF1148006840F001000F490860AC
:1042D00000BF00BF0846006840F00100086000BF52
:1042E0000220012100231A46CDE90010C10108482F
:1042F00001F03EFF0220012100231A46CDE9001003
:104300000421034801F034FF1CBD0000E0440258C2
:104310000000025870B50446002514B101201C4964
:1043200008701B48007810B34FF48071194801F0F1
:104330000BFF012805D00421164801F005FF0128D4
:1043400015D10A20FFF74AF80020114908704FF4F0
:104350008071104801F0F8FE012800D101250421E8
:104360000C4801F0F1FE01280FD102250DE04FF4B9
:104370008071084801F0E8FE38B90421054801F0D1
:10438000E3FE10B9012002490870284670BD000004
:10439000C40405240000025810B504460348006810
:1043A00010B1204600F03EFB10BD0000DC050524E6
:1043B00010B50446084884710848006850B120468A
:1043C00000F0B6FB0548C08A034908800348008B0B
:1043D000488010BD00BFFCE714000524DC0505245F
:1043E0002DE9FF4F85B080468946129F002003903B
:1043F0000290B84507DB0798B84204DBB94502DBF9
:104400000898B84202DA09B0BDE8F08F0798A0EB2F
:1044100008040898A0EB0905CDF80480CDF80090B9
:10442000002C02DD4FF0010A06E014B94FF0000A3B
:1044300002E04FF0FF3A6442002D02DD4FF0010B25
:1044400006E015B94FF0000B02E04FF0FF3B6D4264
:10445000AC4201DD264600E02E460020049023E019
:10446000009A91B2019A90B23A46139B00F012F969
:104470000398204403900298284402900398B04285
:1044800005DD0398801B0390019850440190029829
:10449000B04205DD0298801B0290009858440090BD
:1044A0000498401C80B20490711C04988842D7DDA7
:1044B00000BFA8E72DE9F04706460F4690469A460A
:1044C000002445460320A0EB480944E07A1B91B242
:1044D000321990B2524600F0B5F83A1B91B27219F7
:1044E00090B2524600F0AEF83A1991B2721990B2F9
:1044F000524600F0A7F87A1991B2321990B252469A
:1045000000F0A0F87A1991B2321B90B2524600F036
:1045100099F83A1991B2721B90B2524600F092F893
:104520007A1B91B2321B90B2524600F08BF83A1BC4
:1045300091B2721B90B2524600F084F8641CB9F13B
:10454000000F03DAA000801D814404E0601B80009E
:104550000A3081446D1EAC42B8DDBDE8F087000032
:10456000F8B504460D4616461F463EB10948008878
:10457000A04203DB07484088A84200DAF8BDA01932
:10458000401E82B22B4629462046009700F06AF86A
:1045900000BFF3E7140005242DE9FF4F85B08146E5
:1045A0008A460020039083460798A0EB09050898E7
:1045B000A0EB0A06CDF80890CDF804A0002D01DD8F
:1045C000012705E00DB9002702E04FF0FF376D42EB
:1045D000002E02DD4FF0010806E016B94FF000088A
:1045E00002E04FF0FF387642B54201DD2C4600E094
:1045F0003446002004901EE0019A91B2029A90B2D3
:10460000129A00F01FF8039828440390B3440398CB
:10461000A04205DD0398001B0390029838440290E5
:10462000A34504DDABEB040B0198404401900498D2
:10463000401C80B20490611C04988842DCDD09B003
:10464000BDE8F08F70B504460D4616460448006874
:1046500020B132462946204600F080FA70BD0000A5
:10466000DC0505242DE9F84304460D4616461F4691
:10467000DDF820800648006838B13B4632462946BE
:104680002046CDF8008000F091FABDE8F8830000E4
:10469000DC0505242DE9F05F0746884616469A4654
:1046A00040F2C32070434FF47A71B0FBF1F000F197
:1046B000010906FB06F000EB560B344671040A0CA8
:1046C000B91B88B253464146FFF74AFF012535E042
:1046D00005FB05F004FB040058451AD94C4517D9D1
:1046E0006B1E5B041A0C08EB040399B27B1B5B1C6A
:1046F00098B25346FFF734FF6B1E5B041A0CA8EB0D
:10470000040399B27B1B5B1C98B25346FFF728FF4A
:10471000641E63041A0C08EB050399B23B1B98B2A4
:104720005346FFF71DFF63041A0CA8EB050399B26B
:104730003B1B98B25346FFF713FF6D1C4D45C7D97D
:10474000BDE8F09F1CB500BF1C48006840F48070B5
:104750001A49086000BF0120032100230246CDE969
:104760000010C102164801F003FD0122D1021448D5
:1047700001F0F2FC6420FEF731FE00F053FE114917
:1047800088800846808810B100F0D0FA01E0FEF77A
:1047900025FF0C4881880CA0FCF72CFE0D48006812
:1047A00010B10120FFF704FE012211460A4801F072
:1047B000D3FC4FF6FF70FFF7EFFD1CBDE04402583D
:1047C00000200258140005244C43442049443A2553
:1047D000780D0A00DC050524000402582DE9FC5F71
:1047E00080460E4615461C46B346002001900090B8
:1047F0002046E31704EB5373DB1021464FEAE47CB9
:1048000004EB5C7C4FEAEC0CA4EBCC0CBCF1000F8D
:1048100002D04FF0010C01E04FF0000C634422463F
:1048200004EBD27C4FEA6C0C03FB0CF3DBB201937C
:10483000A5F12000C5B20C2C06D0102C0BD0182CE2
:104840000ED0202C18D112E005EB45002D4901EBCC
:104850008000009012E02C4800EB051000900DE065
:1048600005EBC500294901EB8000009006E02848CF
:1048700000EB8510009001E0BDE8FC9F00BF002721
:104880003AE0009810F807904FF0000A2EE009F087
:10489000800028B1314640460D9AFFF7D3FE07E06D
:1048A0000C9828B91B48314602684046FFF7CAFEFB
:1048B0004FEA49604FEA1069701C86B2164840887A
:1048C000B04200DCD8E7A6EB0B00A0420AD15E465E
:1048D00008F101001FFA80F80F480088404500DC0D
:1048E000CAE706E00AF1010000F0FF0ABAF1080F7A
:1048F000CDDB00BF781CC7B201988742C1DB00BF87
:10490000BAE70000BC760024307B0024208100241C
:104910007C8E002410000524140005242DE9FC5F82
:1049200004460D4690469946DDE90D7A0C9E04F04A
:10493000FF0B08EB04001FFA80F809EB05001FFAD3
:1049400080F917E0444502DB5C46A81985B24D4565
:1049500000DB15E00020CDE9000A3A78334629460D
:104960002046FFF73BFF304606EBD07104EB6101B8
:104970008CB27F1C38787E2802DC38782028E1DA77
:1049800000BFBDE8FC9F00001CB500BF15480068D3
:1049900040F001001349086000BF00BF08460068EE
:1049A00040F00200086000BF012000900023024692
:1049B000082101900C4801F0DBFB0120009000234E
:1049C000024602210190094801F0D2FB0122082190
:1049D000054801F0C1FB01220221044801F0BCFBA3
:1049E0001CBD0000E04402580000025800040258B8
:1049F0000EB54FF6FF70FFF7CFFC1F2007A1102266
:104A0000CDE90021029006490988183988B2134679
:104A1000C8220021FFF782FF0EBD00005253540050
:104A20001400052418B5044606480094008B401E67
:104A300083B20448C08A401E82B20021084600F0BA
:104A4000B5F818BDDC05052470B503460C460021F9
:104A50000020364D2D6825F08055344E356001E03C
:104A60004D1CA9B2314D2D6805F000551DB141F620
:104A7000FF75A942F4DB41F6FF75A94201D101207F
:104A800052E02A4D28352D6825F07C75274E2836B2
:104A9000356035462D6845EA04553560234D40356F
:104AA0002D686FF30805214E4036356035462D6878
:104AB0005E1E35431D4E4036356035462D6825F067
:104AC000FE45356035462E68551E46EA0565174E8B
:104AD00040363560154D2C352D6825F47065134E24
:104AE0002C36356035462D68356035462D68356085
:104AF00035462D6845F0807535600C4D2D6845F0C4
:104B000080550A4E356001E04D1CA9B2074D2D6855
:104B100005F000551DB941F6FF75A942F4DB41F6D9
:104B2000FF75A94200D1022070BD00000044025868
:104B30000949487530B98988074AD18211460988E0
:104B4000118308E0012806D103490988024AD1826D
:104B50001146898811837047DC05052470B5114B17
:104B60005B7D6BB10F4BDB690E4D2D6805FB0105BD
:104B70006B430C4D2D7D0C4E56F82550EA520FE03C
:104B8000084B1D685B681B1A5B1E05FB0313054D74
:104B9000ED696B43034D2D7D034E56F82550EA52C7
:104BA00070BD0000DC0505241C0005242DE9F04F34
:104BB00004460D461E464FF0000CDFF8609199F850
:104BC0001590B9F1000F04D0204629461346374608
:104BD0002DE0DFF84891D9F80490914507D8DFF827
:104BE0003C91B9F80490A9F101091FFA89F2DFF8A4
:104BF0002C91D9F80490A14507D8DFF82091B9F895
:104C00000490A9F101091FFA89F42846DFF80C91F4
:104C1000D9F80490A9EB0209A9F101013346DFF8A4
:104C2000FC90D9F80490A9EB0409A9F10107DFF879
:104C3000EC90B9F80090A3EB000A0AF1010AA9EB85
:104C40000A091FFA89F8DFF8D49099F81490DFF870
:104C5000D0A05AF82990DFF8C4A0DAF81CA0DFF839
:104C6000BCB0DBF800B00BFB010B0AFB0B9EDFF8BE
:104C7000B490D9F8009049F01009DFF8A8A0CAF85C
:104C80000090DFF8A490D9F8009029F00109DFF82E
:104C900098A0CAF800904FF44039CAF800904FF03D
:104CA0000209CAF83490D146C9F84080C9F83CE0FE
:104CB000A7EB010909F10109A3EB000A0AF1010AB6
:104CC00049EA0A49DFF860A0CAF84490DDF8249068
:104CD000CAF83890D146D9F8009049F00109CAF8CD
:104CE000009005E00CF1010CBCF5001F00D308E0BA
:104CF000DFF83490D9F8049009F00209B9F1000FF7
:104D0000F0D000BFDFF82090D9F8089049F00209F0
:104D1000DFF814A0CAF80890BDE8F08FDC05052480
:104D20001C000524D4440258001000527FB5002412
:104D3000002500F077FB054645F27150854201D110
:104D400001F01CFB00BFFE48006840F00200FC4977
:104D5000086000BF00BF0846006840F0800008609F
:104D600000BF00BF0846006840F48060086000BFD4
:104D700000BF0846006840F48070086000BF00BFB4
:104D80000846006840F48070086000BF00BF084615
:104D9000006840F48070086000BF012003210023F8
:104DA0000246CDE900100146E64801F0E1F9012094
:104DB000032100230246CDE900102021E24801F042
:104DC000D7F90120032100230222CDE90010802120
:104DD000DE4801F0CDF90120032100230222CDE9B4
:104DE00000104103DA4801F0C3F901200321002338
:104DF0000222CDE900100103D54801F0B9F90120E4
:104E0000032100230222CDE900108103D04801F0E4
:104E1000AFF90E228021CD4801F062F90E224FF445
:104E20000051CB4801F05CF90E224FF48051C84884
:104E300001F056F90E224FF48041C54801F050F9B7
:104E4000BF48001D006840F00800BD49091D08600A
:104E5000081F006840F4E060091F0860012003217A
:104E600000230222CDE90010C103B94801F080F906
:104E70000120032100230222CDE900104FF6FF712B
:104E8000B44801F075F90120032100230222CDE985
:104E900000107F21AD4801F06BF90E224FF4004164
:104EA000AB4801F01DF90E224FF6FF71A94801F041
:104EB00017F90E227F21A54801F012F944F2423081
:104EC000854218D14FF4F070A34908604FF4887000
:104ED000486001200881282088810520088201205F
:104EE00048810820C8814882212219214FF49670F8
:104EF000FFF7AAFDB0E047F28400854219D14FF4D4
:104F00004870954908604FF4F070486001200881AE
:104F10002E208881D2200882012048811720C88154
:104F200016204882092219214FF49670FFF78CFD54
:104F300092E047F21600854219D14FF4806086490D
:104F400008604FF416704860142008818C20888116
:104F5000A0200882032048811420C8810C204882A8
:104F6000062219214FF49670FFF76EFD74E045F2AA
:104F70007150854218D14FF43470774908604FF46E
:104F8000A06048600A200881242088812E200882A1
:104F900005204881C88110204882062219214FF43B
:104FA000A570FFF751FD57E044F28430854219D1D6
:104FB0004FF44870684908604FF4F0704860302042
:104FC00008815820888128200882032048812020D9
:104FD000C8810D204882092219214FF49670FFF7ED
:104FE00033FD39E048F28100854219D14FF4487011
:104FF000594908604FF4A0604860052008811420DA
:10500000888128200882032048811420C8811E201E
:105010004882052219214FF49670FFF715FD1BE019
:1050200041F21800854217D14FF4A0604A49086048
:105030004FF4487048600A2008818C2088810A203B
:105040000882032048810A20C8814882052219214C
:105050004FF49670FFF7F8FC41F21800854203D038
:1050600048F28100854202D14FF0805400E00024D4
:1050700000BF00BF48F28100854202D144F00044E5
:1050800000E000BF3548846133484089441E3248FF
:105090000089401E44EA0044304884602E4840891C
:1050A0002D49C9890844441E2B4800892A49898909
:1050B0000844401E44EA00442848C4602648408909
:1050C0002549C9890844244949680844441E22489E
:1050D00000892149898908441F4909880844401EDC
:1050E00044EA00441D4804611B4840891A49C989A3
:1050F00008441949496808441749498A0844441E24
:1051000015480089144989890844134909880844C5
:105110001149098A0844401E44EA00440F4844618A
:1051200000200E49C862012000F0D6F90C480D4954
:10513000086002200849C86100200721062213E008
:10514000E044025800040258001C0258002802588B
:105150000020025800240258DC05052400100050ED
:10516000000000D01C000524CDE90002CDE90210AA
:105170002448FF2302220168002000F04DF8224855
:10518000808880B200902048008883B200221146B7
:10519000104600F0A3F81C4800881C4908801A48F3
:1051A000808848800220184981F820000120FFF7FC
:1051B000BFFC002000F08AF945F27150854217D0FB
:1051C00001222021124800F0C7FF0A20FEF706F94D
:1051D000002220210E4800F0BFFF3220FEF7FEF82B
:1051E000012220210A4800F0B7FFC820FEF7F6F898
:1051F00001221146074800F0AFFF4FF0FF30FFF7E4
:1052000011FC7FBD1C000524DC05052414000524C9
:10521000001C0258000402582DE9F04106ACF0CC05
:1052200090B9DFF84CC0CCF8AC10CCF89420CCF896
:10523000983047EA046CDFF83880C8F89CC046EA2A
:10524000052CC8F8A0C011E0DFF824C0CCF82C1160
:10525000CCF81421CCF8183147EA046CDFF8108040
:10526000C8F81CC146EA052CC8F820C1BDE8F08189
:105270000010005099B140B9174A126842F001027B
:10528000154B843BC3F884201CE0134A803212681B
:1052900042F00102104B843BC3F8042112E040B9F4
:1052A0000D4A126822F001020B4B843BC3F88420A4
:1052B00008E0094A8032126822F00102064B843B62
:1052C000C3F80421044A843A526A42F00102024BB4
:1052D000843B5A6270470000841000502DE9F0476B
:1052E00082460F4690461E46DDF820900025BAF112
:1052F000000F49D1B8194849C968C1F30B410844A6
:1053000004044548C068C0F30B403844401C2043A7
:1053100041498831086008EB09003F49C968C1F379
:105320000A01084404043C48C068C0F30A00404431
:10533000401C20433849C1F88C003748943000683D
:1053400000F007050DB904240AE0012D01D1032462
:1053500006E0052D01D0062D01D1012400E0022434
:105360002E484068B0F5A06F00D1042406FB04F07D
:10537000C01D06FB04F140EA01402749B031086036
:105380002548C0F8B49041E0B8192349C968C1F371
:105390000B41084404042048C068C0F30B40384463
:1053A000401C20431E49086008EB09001A49C968DF
:1053B000C1F30A01084404041748C068C0F30A0096
:1053C0004044401C20431449C1F80C0114480C30DF
:1053D000006800F007050DB904240AE0012D01D191
:1053E000032406E0052D01D0062D01D1012400E0A3
:1053F000022406FB04F0C01D06FB04F140EA014054
:105400000749283108600448C0F83491012150460A
:10541000FFF730FFBDE8F08700100050DC050524E1
:10542000081100501CB500242548006840F4C060F5
:10543000234908600120032100231A46CDE900100A
:105440004021204800F094FE0120032100231A4649
:10545000CDE9001044211C4800F08AFE0A20FDF727
:10546000C7FF4021174800F06FFE0446042116488C
:1054700000F06AFE44EA4000C4B24021124800F045
:1054800063FE44EA8000C4B2062C16D2DFE804F0C2
:105490000306090C0F1244F242301CBD47F284008F
:1054A000FBE747F21600F8E745F27150F5E744F2E2
:1054B0008430F2E741F21800EFE70020EDE700004A
:1054C000E044025800240258002802580149087597
:1054D00070470000DC05052430B10749896941F0B7
:1054E0000101054A916105E00349896921F0010143
:1054F000014A916170470000001000500EB504236E
:1055000002220521C02000F0EBFE4FF480514FF045
:10551000105000F0D5FE4FF4F070FDF749FF4FF446
:10552000E131782002F026F8FFF72EFA00F00CF9AE
:1055300000F0FEF9FFF706F9FEF7C2FE26490868FB
:1055400080474FF4784025A110221346CDE9002171
:105550000290C82232211E20FFF7E0F94FF4784074
:1055600021A110221346CDE900210290C822462134
:105570001E20FFF7D3F94FF478401EA110221346E6
:10558000CDE900210290C8225A211E20FFF7C6F95A
:10559000114890F8440000F0800060B94FF4784062
:1055A00017A110221346CDE900210290C8226E21D6
:1055B0001E20FFF7B3F940F2DC50FDF70FFFFFF7B5
:1055C00017FA054890F8440000F0800008B1FDF794
:1055D00055FE00F055F90000C804052453544D331E
:1055E0003248373437000000544F55434820544563
:1055F00053540000574B5320534D41525400000068
:105600005072657373204B45593020746F2041648C
:105610006A75737400000000F8B500240020009043
:105620000026BF26002515E005EB4500294F07EBB6
:105630008000037A05EB450007EB8000426805EB2C
:10564000450017F82010002000F046F82044C4B2AE
:10565000681C85B2B542E7DB98208DF800008120F8
:105660008DF8010000208DF8020003236A46FF2117
:1056700000F032F82044C4B200208DF8000001236D
:105680006A46352100F028F82044C4B203208DF882
:10569000000001236A463621002000F01DF8204456
:1056A000C4B200236A461121184600F015F82044C0
:1056B000C4B27820FDF792FE00236A4629211846DD
:1056C00000F00AF82044C4B27820FDF787FE204697
:1056D000F8BD000068A700242DE9F04104460D46FE
:1056E00016461F463B46324629462046FDF7DAFF5E
:1056F000BDE8F0810146002002E04908421CD0B21A
:105700000129FAD1704700000748006820F4803072
:105710000549086004487030006820F00100024923
:10572000703108607047000024ED00E00520054955
:10573000086004487038006840F4803001497039CE
:105740000860704794ED00E01FB50120002203239C
:10575000CDE901200093039013460246410440071F
:1057600000F052F8012000220323CDE9012000932C
:10577000039013460222C1044FF0105000F044F889
:10578000012000220323CDE901200093039013465A
:105790000322C104100700F037F801200022032380
:1057A000CDE90120009303901346042201044FF039
:1057B000605000F029F800200323CDE9003002906A
:1057C000034605224FF0806103904FF0C04000F087
:1057D0001BF8012000220323CDE901200093039050
:1057E0001346062241064FF0504000F00DF800200D
:1057F0000323CDE90030029001230722190703900B
:10580000C80000F001F81FBD2DE9F84F06460D460F
:1058100017469846DDE90BABDDF828900024002000
:10582000009005F01F0000B915B90120BDE8F88F00
:105830002846FFF75FFF401EC0B20090FFF764FFED
:105840000E480760001D066044EA087444EA0964D3
:1058500000BF44EA8A4444EA4B440D9844EA0044B9
:1058600000BF009844EA400444F0010403480830B3
:105870000460FFF75BFF0020D8E7000098ED00E030
:1058800000254DE00020FEF745FD0446254841680F
:10589000002088472348808E00F4004008B3214848
:1058A00080892149098888421EDA1E48008C1E49D9
:1058B0004988884218DA1B4881891B4800881838B3
:1058C000814206DD1748008C102802DAFFF790F8B5
:1058D0000AE0144A118C90894FF4784201F054FB8D
:1058E00002E00A20FDF77AFD012C09D14FF6FF7086
:1058F000FEF752FD01F0C2F801F06AFDFFF778F8FB
:10590000681CC5B2142095FBF0F100FB115038B9AA
:1059100000BF0648406980F008000449486100BFA4
:10592000B0E70000C8040524140005240000025854
:105930007CB50024002500266C48006840F4FE7009
:105940006A49086069480C38006840F4805067492B
:105950000C3908600120032100230222CDE9001048
:105960000146634800F004FC0120032100230222C9
:10597000CDE900104CF203715E4800F0F9FB012004
:10598000032100230222CDE900104FF683715A480B
:1059900000F0EEFB0120032100230222CDE90010DC
:1059A0004FF63F01554800F0E3FB0120032100239F
:1059B0000222CDE9001048F23311514800F0D8FB23
:1059C0000120032100230222CDE900104FF6C0710F
:1059D0004C4800F0CDFB0120032100230222CDE939
:1059E000001040F2FF61484800F0C2FB0C22012188
:1059F0003F4800F075FB0C224CF203713D4800F06B
:105A00006FFB0C224FF683713B4800F069FB0C22C0
:105A10004FF63F01394800F063FB0C2248F2331186
:105A2000374800F05DFB0C224FF6C071354800F09E
:105A300057FB0C2240F2FF61334800F051FB44F465
:105A4000006444F4805444F4005430480460012459
:105A500044F0040444F0200444F0400444F480740E
:105A600000BF2B48C0F8444145F4E04545F400151B
:105A7000264808300560012545F0700545F4A0650D
:105A800045F4803545F000752048C5602048006821
:105A900040F000401E49086000231A4601210846D4
:105AA00000F038F84FF4FA70FDF7A2FC00231A4614
:105AB0000221012000F02EF80023082203210120FA
:105AC00000F028F800BF00BF46F0200600BF46F4F3
:105AD0000076334600220421012000F01BF840F636
:105AE00046500B49C1F854017CBD0000E044025807
:105AF00000080258000C0258001002580014025806
:105B000000180258001C0258002002584041005260
:105B10000040005270B504460D4600212943C4F1EF
:105B200004060120B040014341EA421141EA432109
:105B300001480160002070BD5041005210B500BF07
:105B40004C48006800F4003000B139E000BF00BFED
:105B500000BFBFF34F8F00BF00BF00BF00BF00BF3B
:105B600000BFBFF36F8F00BF00BF00BF00204249DE
:105B7000086000BF00BF00BFBFF34F8F00BF00BF72
:105B800000BF00BF00BF00BFBFF36F8F00BF00BFEB
:105B900000BF3848006840F400303649086000BF54
:105BA00000BF00BFBFF34F8F00BF00BF00BF00BFEB
:105BB00000BF00BFBFF36F8F00BF00BF00BF00BFBB
:105BC00000BF2C4B1B6803F4803303B148E0002373
:105BD000284C7034236000BF00BF00BFBFF34F8F5D
:105BE00000BF00BF00BF231F1868C0F34E3100BFC5
:105BF000C0F3C90200BF43F6E07303EA41134FF05C
:105C0000404404EA827423431B4C1034236000BFD9
:105C100000BF131EA2F10102EDD10B1EA1F1010183
:105C2000E6D100BF00BF00BFBFF34F8F00BF00BF72
:105C300000BF104B1B6843F480330E4C236000BF41
:105C400000BF00BFBFF34F8F00BF00BF00BF00BF4A
:105C500000BF00BFBFF36F8F00BF00BF00BF00BF1A
:105C600005484C30006840F0040003494C3108609E
:105C700010BD000014ED00E050EF00E02DE9F04110
:105C800004460D4616460021002200200027DFF8BA
:105C900040C4DCF800C02CF4404CDFF83484C8F871
:105CA00000C0C446DCF800C04CF4404CC8F800C04A
:105CB000DFF820C4DCF800C04CF0020CDFF81484DC
:105CC000C8F800C0DFF810C4DCF800C04CF0010CCC
:105CD000DFF80484C8F800C000BFDFF8F4C3DCF8C4
:105CE00000C00CF4005CBCF1000FF6D0DFF8E4C398
:105CF000ACF1F40CDCF800C04CF4803CDFF8D48349
:105D0000A8F1F408C8F800C000E0491CDFF8C4C3DB
:105D1000ACF1F40CDCF800C00CF4003CBCF1000F5A
:105D200003D147F6FF7C6145EFD347F6FF7C614521
:105D300001D10120C9E1DFF89CC3ACF1CC0CDCF847
:105D400000C04CF0020CDFF88C83A8F1CC08C8F836
:105D500000C0C446DCF800C04CEA051CC8F800C00E
:105D6000DFF870C3ACF1C40CDCF800C06FF3080CB2
:105D7000DFF86083A8F1C408C8F800C0C446DCF8A6
:105D800000C0A4F101084CEA080CDFF84883A8F130
:105D9000C408C8F800C0C446DCF800C02CF47E4C2F
:105DA000C8F800C0C446DCF80080A6F1010C48EA3F
:105DB0004C2CDFF82083A8F1C408C8F800C0C44602
:105DC000DCF800C02CF4FE0CC8F800C0C446DCF8B7
:105DD0000080A3F1010C48EA0C4CDFF8F882A8F12E
:105DE000C408C8F800C0C446DCF800C02CF0FE4C63
:105DF000C8F800C0C446DCF800C04CF0807CC8F88D
:105E000000C0A8F1040CDCF800C04CF0080CA8F1AC
:105E10000408C8F800C0C446DCF800C0C8F800C0D8
:105E2000C446DCF800C04CF4403CC8F800C0DFF8C1
:105E3000A4C2ACF1F40CDCF800C04CF0807CDFF8BC
:105E40009482A8F1F408C8F800C0002105E0491CBC
:105E5000B1F5001F01D302200AE0DFF878C2ACF1EF
:105E6000F40CDCF800C00CF0007CBCF1000FEED0AC
:105E700000BFDFF860C2ACF1CC0CDCF800C04CF421
:105E8000C83CDFF85082A8F1CC08C8F800C0DFF8A1
:105E900044C2ACF1BC0CDCF800C06FF3080CDFF8B6
:105EA0003482A8F1BC08C8F800C0C446DCF800C0C1
:105EB00040F2B7184CEA080CDFF81882A8F1BC08C9
:105EC000C8F800C0C446DCF800C02CF47E4CC8F80A
:105ED00000C0C446DCF800C04CF4007CC8F800C028
:105EE000C446DCF800C02CF0FE4CC8F800C0C44624
:105EF000DCF800C04CF0807CC8F800C0DFF8D4C1EA
:105F0000ACF1C80CDCF800C0DFF8C881A8F1C80803
:105F1000C8F800C0C446DCF800C0C8F800C0C446D9
:105F2000DCF800C04CF4002CC8F800C0C446DCF813
:105F300000C04CF4001CC8F800C0DFF898C1ACF1F8
:105F4000A80CDCF800C02CF0030CDFF88881A8F165
:105F5000A808C8F800C0C446DCF800C04CF0020C29
:105F6000C8F800C0DFF86CC1ACF1F40CDCF800C07C
:105F70004CF0806CDFF85C81A8F1F408C8F800C030
:105F8000002105E0491CB1F5001F01D303200AE000
:105F9000DFF840C1ACF1F40CDCF800C00CF0006C90
:105FA000BCF1000FEED000BFDFF828C1ACF1DC0C73
:105FB000DCF800C04CF0080CDFF81881A8F1DC0810
:105FC000C8F800C0C446DCF800C0C8F800C0DFF85C
:105FD00004C1ACF1E40CDCF800C04CF0030CDFF8B9
:105FE000F480A8F1E408C8F800C000210DE0DFF853
:105FF000E4C0ACF1E40CDCF800C0CCF3C207491CEF
:10600000B1F5001F01D3042001E0032FEFD100BF41
:10601000DFF8C8C0DCF8002022F00F0242F00402D2
:1060200022F0300242F02002CCF80020DFF8A4C0B9
:10603000ACF1DC0CDCF800C04CF0400CDFF89480D4
:10604000A8F1DC08C8F800C008F1040CDCF800C0B6
:106050004CF0400C08F10408C8F800C0C446DCF855
:1060600000C04CF4806CC8F800C008F1040CDCF8E7
:1060700000C04CF0400C08F10408C8F800C0DFF87C
:1060800054C0ACF1F40CDCF800C04CF0800CDFF82C
:106090004480A8F1F408C8F800C0DFF838C0DCF884
:1060A00000C04CF0020CDFF82C80C8F800C0DFF80C
:1060B00028C0ACF10C0CDCF800C04CF0010CDFF88F
:1060C0001880A8F10C08C8F800C0BDE8F0810000F5
:1060D00018480258F44402582C040058002000527A
:1060E000F0B5034600200024002500BF29E001266A
:1060F00006FA00F401EA0405A54221D1C70803F11C
:10610000200656F8276047074FEAD76C0F2707FA93
:106110000CF7BE434FEAD00C03F1200747F82C6080
:10612000C70803F1200656F827604707FF0E02FA5A
:1061300007F73E434FEAD00C03F1200747F82C60E5
:10614000401C1028D3D3F0BD02461069084008B1A6
:10615000012070470020FCE702F001031BB18369B6
:106160000B43836103E0836943EA01438361704722
:106170002DE9F04704460D46DDE9087C00210026A4
:10618000884600BF48E04FF0010909FA01F605EA28
:106190000608B0453FD120684FEA410A4FF0030995
:1061A00009FA0AF920EA09004FEA410902FA09F955
:1061B00049EA00002060012A01D0022A1BD1A06810
:1061C0004FEA410A4FF0030909FA0AF920EA0900E7
:1061D0004FEA410907FA09F949EA0000A06060683E
:1061E0004FF0010909FA01F920EA090003FA01F95F
:1061F00049EA00006060E0684FEA410A4FF0030995
:1062000009FA0AF920EA09004FEA410A0CFA0AF9E8
:1062100049EA0000E060491C1029B4D3BDE8F087CA
:106220002DE9F0410746884614461D46284600F0F1
:1062300033F8C5F1040007FA00F60F20284100EA00
:106240000800064306F00F06E21704EBD262521173
:10625000920002F1E022D2F800212146E31704EB7C
:10626000D3635B11A4EB431C012303FA0CF31A4321
:106270002046E31704EBD3635B119B0003F1E0239B
:10628000C3F800210348005D40EA061001490855A3
:10629000BDE8F08100E400E00146072323EA0102A3
:1062A0001202054B18684FF6FF031840034B1843C2
:1062B0001043014B186070470CED00E00000FA0538
:1062C0004A0A52020243014B1A60704708ED00E08F
:1062D00001480249086070470400FA050CED00E02F
:1062E000F0B504460D4616461F462048006820F0CB
:1062F00004001E4908600846006840F0020008607B
:1063000000BF1A480838006800F400500028F8D090
:106310000120174908600020154910310860144910
:1063200018310860091D0860091D086010492831EE
:106330000860091D08600E49603108600D4800685A
:106340006FF30F00B0F1005F02D201200A4908602C
:106350003B46324629462046FFF790FCFFF7EEFB0E
:1063600000214FF00060FFF7ABFFF0BD0C48025872
:10637000004402580010005C088100511CB500BFA9
:10638000FE48006840F00200FC49086000BF00BF02
:106390000846006840F48070086000BF00BF0846EF
:1063A000006840F48070086000BF00BF08460068C5
:1063B00040F08000086000BF012003210023024656
:1063C000CDE900104103EE48FFF7D2FE0120032182
:1063D00000230246CDE900104103EA48FFF7C8FE5A
:1063E0000120032100230246CDE900100103E54806
:1063F000FFF7BEFE0120032100230246CDE9001075
:106400002021E148FFF7B4FE3220FCF7E7FF01222C
:106410002021DD48FFF7A0FE0A20FCF7DFFF002265
:106420002021D948FFF798FE3220FCF7D7FF012240
:106430002021D548FFF790FEC820FCF7CFFF302180
:10644000FF2000F011FB5221FF2000F00DFB012185
:10645000FF2000F009FB0021E32000F005FBC02134
:10646000F62000F001FB0021F02000F0FDFA0021F1
:106470000A2000F0F9FAA221232000F0F5FA1021F9
:10648000242000F0F1FA0A21252000F0EDFA2E2157
:10649000262000F0E9FA2E21272000F0E5FA042159
:1064A000292000F0E1FAFF212A2000F0DDFA9C21EA
:1064B000382000F0D9FAA721392000F0D5FA5E2162
:1064C0003A2000F0D1FA3C21492000F0CDFA6721B2
:1064D000912000F0C9FA6721922000F0C5FA5521F9
:1064E000A02000F0C1FA5021A12000F0BDFA9C21AB
:1064F000A42000F0B9FA0221A72000F0B5FA01218A
:10650000A82000F0B1FA0121A92000F0ADFAFC2189
:10651000AA2000F0A9FA2821AB2000F0A5FA062154
:10652000AC2000F0A1FA0621AD2000F09DFA062172
:10653000AE2000F099FA0321AF2000F095FA08216F
:10654000B02000F091FA2621B12000F08DFA282128
:10655000B22000F089FA2821B32000F085FA032147
:10656000B42000F081FA0821B52000F07DFA262140
:10657000B62000F079FA0821B72000F075FA26213C
:10658000B82000F071FA3021FF2000F06DFA52219E
:10659000FF2000F069FA0221FF2000F065FA1121C6
:1065A000B12000F061FA1521D12000F05DFA2F2111
:1065B000B42000F059FA3121D42000F055FA13210B
:1065C000B22000F051FA1521D22000F04DFA2D2111
:1065D000B32000F049FA3321D32000F045FA2221FC
:1065E000B62000F041FA2421D62000F03DFA3D21EA
:1065F000B72000F039FA4121D72000F035FA082100
:10660000C12000F031FA0821E12000F02DFA0D211F
:10661000B82000F029FA0D21D82000F025FA042135
:10662000B92000F021FA0421D92000F01DFA15212B
:10663000BD2000F019FA1521DD2000F015FA132114
:10664000BC2000F011FA1321DC2000F00DFA11211A
:10665000BB2000F009FA1121DB2000F005FA11211E
:10666000BA2000F001FA1121DA2000F0FDF917211B
:10667000BE2000F0F9F91921DE2000F0F5F90F2114
:10668000BF2000F0F1F91121DF2000F0EDF9162113
:10669000C02000F0E9F91821E02000F0E5F93721E9
:1066A000B52000F0E1F93421D52000F0DDF9022118
:1066B000B02000F0D9F90521D02000F0D5F9302123
:1066C000FF2000F0D1F95221FF2000F0CDF9032185
:1066D000FF2000F0C9F90021052000F0C5F90021D4
:1066E000062000F0C1F90621082000F0BDF90721BD
:1066F000092000F0B9F93221252000F0B5F90A216E
:106700002A2000F0B1F90B212B2000F0ADF90F2168
:10671000702000F0A9F9C021712000F0A5F92A210C
:10672000302000F0A1F92A21312000F09DF92A2122
:10673000322000F099F92A21332000F095F9B12197
:10674000342000F091F97621352000F08DF90821F0
:10675000362000F089F90721402000F085F9082152
:10676000412000F081F90921422000F07DF90A2141
:10677000432000F079F90421452007E0E044025865
:106780000004025800200258001C025800F06CF966
:106790000521462000F068F90621482000F064F940
:1067A0000721492000F060F90B21502000F05CF92E
:1067B0000C21512000F058F90D21522000F054F91D
:1067C0000E21532000F050F90821552000F04CF91B
:1067D0000921562000F048F90A21582000F044F918
:1067E0000B21592000F040F91F21802000F03CF9D6
:1067F0000021812000F038F91621822000F034F9C0
:106800001521832000F030F90A21842000F02CF9B2
:106810000C21852000F028F90E21862000F024F9B3
:106820001021872000F020F90221882000F01CF9B7
:1068300006218F2000F018F91F21962000F014F98E
:106840000021972000F010F91821982000F00CF991
:106850001721992000F008F909219A2000F004F985
:106860000B219B2000F000F90D219C2000F0FCF88A
:106870000F219D2000F0F8F801219E2000F0F4F88F
:106880000521A52000F0F0F80021B02000F0ECF880
:106890001F21B12000F0E8F81621B22000F0E4F842
:1068A0001521B32000F0E0F80F21B42000F0DCF84F
:1068B0000D21B52000F0D8F80B21B62000F0D4F857
:1068C0000921B72000F0D0F80521B82000F0CCF85D
:1068D0000121BF2000F0C8F80021C62000F0C4F854
:1068E0001F21C72000F0C0F81821C82000F0BCF814
:1068F0001721C92000F0B8F81021CA2000F0B4F820
:106900000E21CB2000F0B0F80C21CC2000F0ACF828
:106910000A21CD2000F0A8F80621CE2000F0A4F82E
:106920000221D52000F0A0F83021FF2000F09CF8D3
:106930005221FF2000F098F80021FF2000F094F889
:106940000A21362000F090F80021112000F08CF888
:10695000C820FCF743FD0021292000F085F86420C1
:10696000FCF73CFD1CBD000070B50446002500BFCF
:1069700023E004F0800028B1012211031048FFF742
:10698000EBFB05E000224FF480510D48FFF7E4FBDC
:106990006006040E00224FF400510948FFF7DCFBAB
:1069A0000120FCF725FD012251030548FFF7D4FB28
:1069B0000120FCF71DFD681CC5B2082DD9DB70BD98
:1069C0000020025810B5044600224FF40051104830
:1069D000FFF7C2FB00224FF480510E48FFF7BCFBCB
:1069E00000224FF400510B48FFF7B6FB0122510380
:1069F0000848FFF7B1FB0220FCF7FAFC2046FFF73E
:106A0000B3FF012251030248FFF7A6FB10BD0000AF
:106A1000000402580020025810B5044600224FF42A
:106A200000510F48FFF798FB012211030D48FFF7B3
:106A300093FB00224FF400510A48FFF78DFB01221F
:106A400051030848FFF788FB0220FCF7D1FC2046E1
:106A5000FFF78AFF012251030148FFF77DFB10BDBC
:106A6000000402580020025870B505460C4628461E
:106A7000FFF7A8FF2046FFF7CFFF70BD2DE9F04FCD
:106A80002DED048B89B04FF000080020039000BF6B
:106A90004FF6FF70FDF780FC4FF47840DD49096840
:106AA00010226423CDE900210290A022282108466B
:106AB000FDF734FF4FF478421421084600F081FAC4
:106AC0000020D5498886A1E1D34841680120884744
:106AD000D148808E00F44040B0F5804F7ED1002038
