:020000040800F2
:10000000380B0024390300084D0300084F03000893
:1000100051030008530300085503000800000000C6
:10002000000000000000000000000000570300086E
:1000300059030008000000005B0300085D0300088E
:100040005F0300085F0300085F0300085F03000808
:100050005F0300085F0300085F0300085F030008F8
:10006000910400085F0300085F0300085F030008B5
:100070005F0300085F0300085F0300085F030008D8
:100080005F0300085F0300085F0300085F030008C8
:100090005F0300085F0300085F030008C90400084D
:1000A0005F0300085F0300085F0300085F030008A8
:1000B0005F0300085F0300085F0300085F03000898
:1000C0005F0300085F0300085F0300085F03000888
:1000D0005F030008010500085F0300085F030008D4
:1000E0005F0300085F030008000000005F030008D2
:1000F0005F0300085F0300085F0300085F03000858
:100100005F0300085F0300085F0300085F03000847
:100110005F0300085F0300085F0300085F03000837
:100120005F0300085F0300085F0300085F03000827
:100130005F0300085F0300085F0300085F03000817
:100140005F0300085F0300080000000000000000DB
:100150005F0300085F0300085F0300085F030008F7
:100160005F0300085F0300085F0300085F030008E7
:100170005F0300085F0300085F0300080000000041
:100180005F0300085F0300085F0300085F030008C7
:100190005F0300085F0300085F0300085F030008B7
:1001A0005F0300085F0300085F0300085F030008A7
:1001B0005F0300085F0300085F0300085F03000897
:1001C0005F0300085F0300085F0300085F03000887
:1001D0005F0300085F0300085F0300085F03000877
:1001E0005F0300085F0300085F0300085F03000867
:1001F0005F0300085F0300085F0300085F03000857
:100200005F0300085F0300085F0300085F03000846
:100210005F0300085F0300085F0300085F03000836
:100220005F0300085F0300085F0300085F03000826
:100230005F0300085F0300085F0300085F03000816
:100240005F0300085F0300085F0300085F03000806
:100250005F0300085F0300085F0300085F030008F6
:100260005F0300085F0300085F0300085F030008E6
:100270005F0300085F0300085F0300085F030008D6
:100280005F0300085F0300085F0300080000000030
:100290005F0300085F03000800F002F800F03CF87C
:1002A0000AA090E8000C82448344AAF10107DA45D1
:1002B00001D100F031F8AFF2090EBAE80F0013F0E7
:1002C000010F18BFFB1A43F001031847D80E0000B6
:1002D000F80E0000103A24BF78C878C1FAD8520747
:1002E00024BF30C830C144BF04680C6070470000B0
:1002F0000023002400250026103A28BF78C1FBD82F
:10030000520728BF30C148BF0B6070471FB500F0CF
:1003100043FF1FBD10B510BD00F074F81146FFF784
:10032000F5FF00F001FA00F0A6F803B4FFF7F2FFC2
:1003300003BC00F02BF90000DFF83000016841F445
:1003400070010160BFF34F8F09480047FEE7FEE7E9
:10035000FEE7FEE7FEE7FEE7FEE7FEE7FEE7FEE775
:1003600004480549054A064B7047000088ED00E047
:100370009902000838010024380B002438030024B7
:1003800038030024704700000FB4044910B503AAD5
:10039000029800F009F810BC5DF814FB040000247A
:1003A0007047704770477047074B70B50D467B44E8
:1003B00000F011F80446284600F020F810B14FF084
:1003C000FF3070BD204670BD9F02000001694A1CCD
:1003D00002610878704700B58FB0CDE90131002186
:1003E000059105497944CDE903101146684600F0AE
:1003F0002EF80FB000BD0000E5FFFFFF007B00F00E
:1004000080007047754600F03FF8AE46050069462B
:10041000534620F00700854618B020B5FFF7A0FF2F
:10042000BDE820404FF000064FF000074FF00008F5
:100430004FF0000B21F00701AC46ACE8C009ACE876
:10044000C009ACE8C009ACE8C0098D4670472DE989
:10045000F04106460024D6E90170F5688046304632
:1004600003E04146B847641C3046A8470028F8D14D
:100470002046BDE8F08110B50446AFF30080204669
:10048000BDE81040FFF751BF00487047D40000247A
:1004900010B5142000F092F80420084908600421E7
:1004A000074800F06FFC012807D100BF054800682D
:1004B00080F002000349086000BF10BD88000058AA
:1004C000000002581404025810B5142000F076F809
:1004D0004FF48070084908600146084800F052FC5B
:1004E000012807D100BF0548406980F00800034992
:1004F000486100BF10BD000088000058000002588D
:100500001F49C96901F0200109B31D49496AC8B2F0
:100510001C49098801F40041C9B91A49098801F444
:10052000804161B10A2803D00021164A118020E0E1
:100530001449098841F40041124A118019E00D283C
:1005400006D11049098841F480410E4A118010E01B
:100550000C490988C1F30D010B4A50540949098817
:10056000491C084A118011460988C72901DD00216C
:1005700011800349096A41F00801014A116270477C
:1005800000100140080000240C00002400BF704748
:100590004FF0E021096941F004014FF0E0221161C0
:1005A000054908601146096941F0010111616FF0C8
:1005B0007F415161704700000000002410B50446DF
:1005C0004FF47A7104FB01F000F002F810BD000056
:1005D00070B5034600224FF0E02675690D4E36686F
:1005E00003FB06F44FF0E026B16910E04FF0E0267F
:1005F000B06988420BD0884202D20E1A324402E01F
:100600002E1A0E4432440146A24200D300E0EDE728
:1006100000BF70BD0000002410B500F027F80222D2
:10062000D1010A4800F01AFC02220421074800F018
:1006300015FC022317221946002000F095FC022326
:1006400008221946012000F08FFC10BD000002585E
:1006500000BF054AD26902F04002002AF9D0C2B2B6
:10066000014B9A6270470000001001401CB500BFAA
:100670001148006840F001000F49086000BF00BF4A
:100680000846006840F00100086000BF0220012118
:1006900000231A46CDE90010C101084800F086FB8E
:1006A0000220012100231A46CDE90010042103484D
:1006B00000F07CFB1CBD0000E04402580000025822
:1006C0001CB500BF1548006840F0010013490860E0
:1006D00000BF00BF0846006840F00200086000BF8D
:1006E0000120009000230246082101900C4800F0F0
:1006F0005DFB012000900023024602210190094881
:1007000000F054FB01220821054800F043FB0122C0
:100710000221044800F03EFB1CBD0000E0440258EA
:100720000000025800040258042302220521C020C0
:1007300000F072FC4FF4F070FFF72AFF4FF4E13144
:10074000782000F0B7FCFFF7BBFFFFF765FF002242
:100750000821064800F01EFB06E005A0FFF714FE86
:100760004FF47A70FFF72AFFF7E700000000025805
:100770004F4B0D0A0000000010B500BF4C48006848
:1007800000F4003000B139E000BF00BF00BFBFF38C
:100790004F8F00BF00BF00BF00BF00BF00BFBFF34F
:1007A0006F8F00BF00BF00BF00204249086000BF3C
:1007B00000BF00BFBFF34F8F00BF00BF00BF00BF2F
:1007C00000BF00BFBFF36F8F00BF00BF00BF38483E
:1007D000006840F400303649086000BF00BF00BF29
:1007E000BFF34F8F00BF00BF00BF00BF00BF00BFFF
:1007F000BFF36F8F00BF00BF00BF00BF00BF2C4B17
:100800001B6803F4803303B148E00023284C7034A4
:10081000236000BF00BF00BFBFF34F8F00BF00BF0A
:1008200000BF231F1868C0F34E3100BFC0F3C902D8
:1008300000BF43F6E07303EA41134FF0404404EA7B
:10084000827423431B4C1034236000BF00BF131E6F
:10085000A2F10102EDD10B1EA1F10101E6D100BF11
:1008600000BF00BFBFF34F8F00BF00BF00BF104BE2
:100870001B6843F480330E4C236000BF00BF00BFF1
:10088000BFF34F8F00BF00BF00BF00BF00BF00BF5E
:10089000BFF36F8F00BF00BF00BF00BF05484C30E3
:1008A000006840F0040003494C31086010BD0000AE
:1008B00014ED00E050EF00E02DE9F04104460D4654
:1008C00016460021002200200027DFF840C4DCF893
:1008D00000C02CF4404CDFF83484C8F800C0C44693
:1008E000DCF800C04CF4404CC8F800C0DFF820C46D
:1008F000DCF800C04CF0020CDFF81484C8F800C02B
:10090000DFF810C4DCF800C04CF0010CDFF8048400
:10091000C8F800C000BFDFF8F4C3DCF800C00CF476
:10092000005CBCF1000FF6D0DFF8E4C3ACF1F40CCE
:10093000DCF800C04CF4803CDFF8D483A8F1F40864
:10094000C8F800C000E0491CDFF8C4C3ACF1F40CE7
:10095000DCF800C00CF4003CBCF1000F03D147F6FA
:10096000FF7C6145EFD347F6FF7C614501D1012053
:10097000C9E1DFF89CC3ACF1CC0CDCF800C04CF052
:10098000020CDFF88C83A8F1CC08C8F800C0C4467C
:10099000DCF800C04CEA051CC8F800C0DFF870C3E2
:1009A000ACF1C40CDCF800C06FF3080CDFF8608316
:1009B000A8F1C408C8F800C0C446DCF800C0A4F11F
:1009C00001084CEA080CDFF84883A8F1C408C8F80D
:1009D00000C0C446DCF800C02CF47E4CC8F800C04F
:1009E000C446DCF80080A6F1010C48EA4C2CDFF884
:1009F0002083A8F1C408C8F800C0C446DCF800C0D1
:100A00002CF4FE0CC8F800C0C446DCF80080A3F14A
:100A1000010C48EA0C4CDFF8F882A8F1C408C8F8C9
:100A200000C0C446DCF800C02CF0FE4CC8F800C082
:100A3000C446DCF800C04CF0807CC8F800C0A8F1C7
:100A4000040CDCF800C04CF0080CA8F10408C8F84D
:100A500000C0C446DCF800C0C8F800C0C446DCF8DA
:100A600000C04CF4403CC8F800C0DFF8A4C2ACF1B0
:100A7000F40CDCF800C04CF0807CDFF89482A8F124
:100A8000F408C8F800C0002105E0491CB1F5001FBA
:100A900001D302200AE0DFF878C2ACF1F40CDCF8F4
:100AA00000C00CF0007CBCF1000FEED000BFDFF8FE
:100AB00060C2ACF1CC0CDCF800C04CF4C83CDFF8F0
:100AC0005082A8F1CC08C8F800C0DFF844C2ACF1ED
:100AD000BC0CDCF800C06FF3080CDFF83482A8F11E
:100AE000BC08C8F800C0C446DCF800C040F2B71823
:100AF0004CEA080CDFF81882A8F1BC08C8F800C05E
:100B0000C446DCF800C02CF47E4CC8F800C0C446D3
:100B1000DCF800C04CF4007CC8F800C0C446DCF827
:100B200000C02CF0FE4CC8F800C0C446DCF800C081
:100B30004CF0807CC8F800C0DFF8D4C1ACF1C80C20
:100B4000DCF800C0DFF8C881A8F1C808C8F800C008
:100B5000C446DCF800C0C8F800C0C446DCF800C0D9
:100B60004CF4002CC8F800C0C446DCF800C04CF4BB
:100B7000001CC8F800C0DFF898C1ACF1A80CDCF884
:100B800000C02CF0030CDFF88881A8F1A808C8F891
:100B900000C0C446DCF800C04CF0020CC8F800C02D
:100BA000DFF86CC1ACF1F40CDCF800C04CF0806CE8
:100BB000DFF85C81A8F1F408C8F800C0002105E066
:100BC000491CB1F5001F01D303200AE0DFF840C142
:100BD000ACF1F40CDCF800C00CF0006CBCF1000FC0
:100BE000EED000BFDFF828C1ACF1DC0CDCF800C0AF
:100BF0004CF0080CDFF81881A8F1DC08C8F800C038
:100C0000C446DCF800C0C8F800C0DFF804C1ACF18D
:100C1000E40CDCF800C04CF0030CDFF8F480A8F121
:100C2000E408C8F800C000210DE0DFF8E4C0ACF132
:100C3000E40CDCF800C0CCF3C207491CB1F5001F7E
:100C400001D3042001E0032FEFD100BFDFF8C8C0BB
:100C5000DCF8002022F00F0242F0040222F0300201
:100C600042F02002CCF80020DFF8A4C0ACF1DC0C8C
:100C7000DCF800C04CF0400CDFF89480A8F1DC08F0
:100C8000C8F800C008F1040CDCF800C04CF0400CBF
:100C900008F10408C8F800C0C446DCF800C04CF4F1
:100CA000806CC8F800C008F1040CDCF800C04CF0FF
:100CB000400C08F10408C8F800C0DFF854C0ACF1DB
:100CC000F40CDCF800C04CF0800CDFF84480A8F194
:100CD000F408C8F800C0DFF838C0DCF800C04CF0F9
:100CE000020CDFF82C80C8F800C0DFF828C0ACF197
:100CF0000C0CDCF800C04CF0010CDFF81880A8F1F7
:100D00000C08C8F800C0BDE8F0810000184802587F
:100D1000F44402582C04005800200052F0B5034659
:100D200000200024002500BF29E0012606FA00F477
:100D300001EA0405A54221D1C70803F1200656F8AF
:100D4000276047074FEAD76C0F2707FA0CF7BE4317
:100D50004FEAD00C03F1200747F82C60C70803F1D5
:100D6000200656F827604707FF0E02FA07F73E43B2
:100D70004FEAD00C03F1200747F82C60401C1028E4
:100D8000D3D3F0BD02461069084008B10120704776
:100D90000020FCE702F001031BB183690B43836170
:100DA00003E0836943EA0143836170472DE9F0471B
:100DB00004460D46DDE9087C00210026884600BF78
:100DC00048E04FF0010909FA01F605EA0608B045C6
:100DD0003FD120684FEA410A4FF0030909FA0AF9A6
:100DE00020EA09004FEA410902FA09F949EA00003C
:100DF0002060012A01D0022A1BD1A0684FEA410AD3
:100E00004FF0030909FA0AF920EA09004FEA4109FB
:100E100007FA09F949EA0000A06060684FF001098B
:100E200009FA01F920EA090003FA01F949EA000088
:100E30006060E0684FEA410A4FF0030909FA0AF9D5
:100E400020EA09004FEA410A0CFA0AF949EA0000CF
:100E5000E060491C1029B4D3BDE8F0872DE9F043C8
:100E600003460C460026002000250027DFF8ECC0D2
:100E7000A3EB0C0C4FEA9C26DFF8E4C0DCF800C0C2
:100E80004CF0020CDFF8D880C8F800C000BF61E069
:100E90004FF0010C0CFA00F504EA0507AF4258D1F7
:100EA0004FEA807C4FEA1C71DFF8B8C04FEA900827
:100EB0005CF828C04FF00F0808FA01F82CEA080C7B
:100EC000DFF8A0804FEA900948F829C0C4464FEAED
:100ED00090085CF828C006FA01F84CEA080CDFF824
:100EE00084804FEA900948F829C04FF0B04CDCF8F4
:100EF00080804FF0010C0CFA00FC48EA0C084FF01F
:100F0000B04CCCF8808002F0010CBCF1000F0DD089
:100F10004FF0B04CDCF804C04FF0010808FA00F8BC
:100F20004CEA080C4FF0B048C8F804C002F0020CBC
:100F3000BCF1000F0DD04FF0B04CDCF800C04FF00A
:100F4000010808FA00F84CEA080C4FF0B048C8F85D
:100F500000C0401C10289BD3BDE8F083000002585D
:100F6000F4440258080400582DE9F0410746884629
:100F700014461D46284600F033F8C5F1040007FA70
:100F800000F60F20284100EA0800064306F00F068D
:100F9000E21704EBD2625211920002F1E022D2F881
:100FA00000212146E31704EBD3635B11A4EB431C40
:100FB000012303FA0CF31A432046E31704EBD3632F
:100FC0005B119B0003F1E023C3F800210348005D9F
:100FD00040EA061001490855BDE8F08100E400E050
:100FE0000146072323EA01021202054B18684FF657
:100FF000FF031840034B18431043014B1860704720
:101000000CED00E00000FA054A0A52020243014BCF
:101010001A60704708ED00E0F0B504460D4616462C
:101020001F462048006820F004001E49086008465A
:10103000006840F00200086000BF1A4808380068E5
:1010400000F400500028F8D0012017490860002063
:10105000154910310860144918310860091D0860ED
:10106000091D0860104928310860091D08600E49F3
:10107000603108600D4800686FF30F00B0F1005F49
:1010800002D201200A4908603B46324629462046E2
:10109000FFF712FCFFF770FB00214FF00060FFF735
:1010A000B3FFF0BD0C480258004402580010005C29
:1010B000088100517CB506460C4600BF32480068E6
:1010C00040F001003049086000BF00BF08460068DA
:1010D00040F00100086000BF00BF2B4810300068DE
:1010E00040F0100028491031086000BF0120009036
:1010F00000230222410201902448FFF757FE0120FD
:10110000009000230222810201902048FFF74EFE4A
:1011100007224FF400711D48FFF700FE07224FF42D
:1011200080611A48FFF7FAFD1948704300EB54003C
:10113000B0FBF4F51748C560002016490860084662
:101140000068086008460068086008460068086093
:101150000846006840F0080008600846006840F053
:10116000040008600846006840F020000860022380
:10117000252203210846FFF7F7FE0648006840F0E5
:101180000100044908607CBDE04402580000025898
:1011900040420F00001001404FF04070E1EE100A95
:1011A00070470000C4110008000000240C0000007B
:1011B000D4020008D01100080C0000242C0B000001
:1011C000F002000800000000000000000000000025
:040000050800029954
:00000001FF
