:020000040800F2
:10000000B029002479EF00087F17000825EF0008C9
:1000100081170008831700088517000800000000FA
:10002000000000000000000000000000871700082A
:1000300089170008000000008B1700082D5F0008DA
:100040009DEF0008A1EF0008A5EF0008A9EF000848
:10005000ADEF0008B1EF0008B5EF0008B9EF0008F8
:10006000BDEF0008C1EF0008C5EF0008C9EF0008A8
:10007000CDEF0008D1EF0008D5EF0008D9EF000858
:10008000DDEF0008E1EF0008E5EF00087539000832
:100090007F3900088939000893390008E9EF000822
:1000A000EDEF0008F1EF0008F5EF0008F9EF0008A8
:1000B000BF5F0008FDEF000801F0000805F0000830
:1000C00009F000080DF0000811F0000815F0000814
:1000D00019F00008516600081DF000085B66000872
:1000E00021F0000825F000080000000029F00008B9
:1000F0002DF0000831F0000835F0000839F0000854
:100100003DF00008FBE4000841F0000845F000085D
:1001100049F000084DF0000851F0000855F00008C3
:1001200059F000085DF0000861F0000865F0000873
:1001300069F000086DF0000871F000089D390008B2
:1001400000000000000000000000000000000000AF
:1001500075F0000879F000087DF0000881F00008D3
:1001600085F0000889F000088DF0000891F0000883
:1001700095F0000899F000089DF0000800000000CC
:10018000A1F00008A5F00008A9F00008ADF00008F3
:10019000B1F00008B5F00008B9F00008BDF00008A3
:1001A000C1F00008C5F00008C9F00008CDF0000853
:1001B000D1F00008D5F00008D9F00008DDF0000803
:1001C000E1F00008E5F00008E9F00008EDF00008B3
:1001D000F1F00008F5F00008F9F00008FDF0000863
:1001E00001F1000805F1000809F100080DF100080F
:1001F00011F1000815F1000819F100081DF10008BF
:1002000021F1000825F1000829F100082DF100086E
:1002100031F1000835F100085799000839F100085C
:100220003DF1000841F1000845F100080000000020
:1002300049F100084DF100080000000051F10008EC
:1002400055F1000859F100085DF1000861F100085E
:1002500065F1000869F100086DF1000871F100080E
:1002600075F1000879F100087DF1000881F10008BE
:1002700085F1000889F100088DF1000800000000F8
:1002800091F1000895F1000899F1000800000000C4
:10029000000000009DF10008F8B5040001252600CB
:1002A0006F462A003100380001F01EFA9DF8000068
:1002B000F2BDF8B50400022526006F462A00310081
:1002C000380001F011FABDF80000F2BDF8B50400E5
:1002D000042526006F462A003100380001F004FA98
:1002E0000098F2BDF2B5040004256E4627002A00EE
:1002F0003100380001F0F8F90420F2BD002801D0E7
:10030000008800E0002080B270470200002A01D17E
:10031000052001E0916000207047F8B504000D0051
:1003200016001F000097012332002900C9B22000E7
:1003300001F0C6FBF2BDF8B504000D0016001F0069
:100340000097022332002900C9B2200001F0B8FB57
:10035000F2BDF8B504000D0016001F00009704233D
:1003600032002900C9B2200001F0AAFBF2BD10B48E
:100370000400002B00D01A60002010BC70472DE94B
:10038000F04704000D0017001E00002D03D0002CC4
:1003900001D0002E01D109200FE0A068B84201D29F
:1003A000A0680700B8465FF00009AA464A464146E1
:1003B000504601F015FC37600020BDE8F0872DE9BC
:1003C000F84F8AB004000D0016009B462800000C70
:1003D000ADF802002800000A8DF800002F00380058
:1003E000C0B2C0088DF801003100C9B21C204143E1
:1003F00004EB0100103001909DF80100092801DB99
:10040000072087E0BDF80200202822DA9DF80000CE
:1004100000281ED1019802905FF014085FF00009D7
:10042000DDF808A04A464146504601F0D9FB9DF848
:1004300001000299C8600298C06802998860DFF8DC
:10044000640801994861DFF860080199886100201B
:1004500060E0BDF80210149801F02AFA80460023EB
:1004600003AA9DF80010404601F06AFA814648460A
:1004700040B2002802D0484640B24BE0BBF1000F2A
:1004800002D05FF0080A01E05FF0040A9DF81C004A
:1004900010EA0A0F07D017F0070F04D105989DF84E
:1004A0000110884201D2062034E0019803A91C22E1
:1004B00001F0DAFB9DF801000199C860BBF1000F63
:1004C00027D19DF8000020281CDAD8F80800002861
:1004D00018D0D8F808009DF80010C91008440C3056
:1004E0003100C9B204EB8101C1F8F00001209DF890
:1004F000001011F0070188403100C9B2214481F891
:10050000100106E000203100C9B204EB8101C1F8FE
:10051000F00000200BB0BDE8F08F2DE9FA4F83B05A
:10052000060017000E9CDDF83C80002500208DF8A9
:100530000400012301AA00213800FFF7EEFE8146E6
:10054000484640B2002809D0002C04D03800FFF7FC
:10055000D5FE000220607FF00B006CE05FF0000A27
:100560005046C0B208284EDA5146C9B21C20414359
:1005700006EB010010F1100B00200290012302AAEB
:100580001AF10101C9B23800FFF7E3FE814648467F
:1005900040B20E2834D0484640B200280CD0002C7F
:1005A00007D03800FFF7AAFE5146C9B251EA002130
:1005B00021607FF00B003EE003980090049B5246C0
:1005C000D2B202993000FFF7FAFE8146484640B2A7
:1005D00000280CD00020CBF80800FF20CBF80C003E
:1005E000D8F80000002802D10298C8F80000504650
:1005F0009DF80410C0B2884202D2DBF80C00451905
:100600001AF1010AACE7092D05D2002D0AD19DF897
:100610000400002806D0D8F80000002802D10120EC
:10062000C8F80000D8F80000002803D135739DF801
:1006300004007073002005B0BDE8F08F2DE9F84389
:1006400004000D0017001E00002C06D0002D04D061
:10065000002E02D0607C092801DB092067E0D4F875
:100660000480D8F80800002806D198F80D0000286A
:1006700004D0607C002801D0022058E0607C002873
:1006800039D12800FFF708FE020000211000C0B297
:10069000092801DB07204AE0002318009446C0B275
:1006A0005FFA8CFC604515D29C465FFA8CFC1C20DE
:1006B00000FB0CFC08EB0C0010F1100EDEF80890AB
:1006C000DEF80CC0E14501D2062030E01CEB010150
:1006D0005B1CE2E7092901D3072028E0002905D1A6
:1006E0001000C0B2002801D00F2020E088F80C10C4
:1006F00088F80D2015E02800FFF7E8FD8146D8F8BE
:100700001C010090D8F81831607C421ED2B24946D4
:100710004046FFF754FE010049B2002901D040B223
:1007200005E033003A002900200001F071F8BDE82F
:10073000F2832DE9F84F04000D0016001F003B0066
:1007400032002900200001F021F88046404640B2E6
:1007500000282BD1607C012828D13868042825D1B5
:10076000D4F804902800FFF7B1FD8346DA465FEA2B
:100770004A5A5FEA5A5A504680B200280CD0514675
:1007800089B2B9F822214FF680700240914203D11C
:10079000B9F8220160F30F0BD9F80800002801D145
:1007A0005BF0004B59462800FFF79CFD404640B2E5
:1007B000BDE8F28F2DE9FE4F04000D0026000096E3
:1007C0002F79681D029096F8608100988068002853
:1007D00046D038000099097BC0B288423AD338002D
:1007E0000099097BC0B2884206D14046C0B20128B8
:1007F00008D10B20804605E04046C0B2002801D158
:100800000D2080465FF00009D6F8680100280AD064
:10081000D6F86401002806D0D6F86401C068002824
:1008200001D0012081465FF0080A029801904846F5
:10083000C0B206EBC00010F5A87B5246019958469D
:1008400001F002FA01204946C9B206EB8101C1F864
:10085000480105E04046C0B2002801D10C20804686
:1008600086F86081BDE8F78F2DE9F84F84B0050068
:100870000E001700002D06D0002E04D0049800288A
:1008800001D0052F01D30920ECE0D5F80480C14642
:100890003C00B2460DF10C0B22005146584601F0C7
:1008A000D3F9687C012806D0022800F0AA80052828
:1008B00000F0C680D0E03000FFF708FD8246D34646
:1008C0005FEA4B5B5FEA5B5B5446E40F94F0010424
:1008D000DFF8C80A1AEA000F49D1002C09D0D9F86C
:1008E0000800002805D05846B9F8241180B2884283
:1008F0003DD1002C35D0584680B2802837DB584691
:1009000080B240F20111884205DB584680B240F2C5
:10091000811188422BDB584680B240F281518842D7
:1009200004DB584680B2B0F5C06F20DB584680B279
:1009300040F20161884204DB584680B2B0F5D06FC6
:1009400015DB584680B2B0F5DC6F04DB584680B248
:10095000B0F5E06F0BDB584680B240F2017188427F
:1009600005DA002C05D099F80D00002801D10F20E0
:1009700078E0D9F80800844205D15846B9F8241126
:1009800080B288423CD05846B9F8221180B28842E1
:1009900005D15FEADA11C90103A8FFF7A3FC002C17
:1009A00001D100208346DFF8F8090290CDF80480D9
:1009B0000020009040F2FF735A4692B2B9F820111D
:1009C000D9F8040001F034FA0100002C09D0080025
:1009D00040B2002805D10120C9F80800A9F824B1C7
:1009E0000EE00020C9F808000020C8F848010020E7
:1009F000C8F84C01080040B2002801D0092031E0BD
:100A00002AE03000FFF748FC01000800C0B2F128DE
:100A100005DB0800C0B2FE2801DA0F2022E0080042
:100A2000C0B2F12801DA012000E00020D8F86821E6
:100A3000824202D00022C8F84C21C8F868010BE0BD
:100A40003000FFF736FC4FF47A7101FB00F1C8F873
:100A50006C110021C8F87011049B3A0003A928000A
:100A600000F0D6FE05B0BDE8F08F2DE9FE4F86B050
:100A70000600139F179CB046002E0DD00698002844
:100A80000AD00798002807D0002F05D01498002816
:100A900002D01598002802D15FF0FF30FFE04FF43C
:100AA000BA755FF00009B2464A462900504601F087
:100AB00097F80798C8F800001598C8F804000020B7
:100AC000049004A8019000940123149A06994046CA
:100AD000FFF723FD8346584640B2002802D058460F
:100AE00040B2DCE000200590012305AA0121380076
:100AF000FFF72FFC8DF80C009DF90C0000280BD09F
:100B0000002C06D03800FFF7F9FB000250F001007E
:100B100020607FF00B00C2E0059DED0F95F0010510
:100B2000DDF814905FEA49595FEA5959002D0ED05B
:100B300098F80D00002803D0484680B2002806D15E
:100B4000002005000498002801D101200490049899
:100B500000280ED00498012801D0049800E00598E0
:100B600000904FF402431A220121D8F8000001F04E
:100B700045FE002D01D100208146484680B2002864
:100B80000BD0494689B2BDF848204FF6807002402C
:100B9000914202D1BDF848008146DFF80408029076
:100BA00001960020009040F2FF734A4692B2BDF8D1
:100BB0005810159801F03CF98246504640B2002882
:100BC00002D0504640B26AE0C8F80850FE208DF8C6
:100BD000000001236A4602213800FFF79EFB83468E
:100BE000584640B200280BD0002C06D03800FFF742
:100BF00085FB000250F0020020607FF00B004EE009
:100C00000898C6F864019DF80000F12801DA012077
:100C100000E00020C0B2C6F868010020ADF8020074
:100C200001230DF1020205213800FFF784FB8DF846
:100C30000C00BDF802104FF47A704143C6F86C11F5
:100C40000120C8F818010698C8F81C01BDF8580022
:100C5000A8F82001BDF84800A8F82201A8F82491BE
:100C6000C8F82861DFF83C07C8F82C01DFF838071E
:100C7000C8F83001C8F83861DFF83007C8F83C011F
:100C8000DFF82C07C8F8400118F594713800FFF719
:100C90003CFB18F59C711498FFF737FB002009B056
:100CA000BDE8F08F7F0300086F0300082DE9FE4FB9
:100CB0008AB00400029402988068002800F0EB805B
:100CC0000C98002800F0E7801698002804D1D4F88A
:100CD0006801002840F0DF8094F860010B2822DBD7
:100CE00094F860010B2801D0012500E00025EDB249
:100CF00094F860010C2802D148F2102601E048F275
:100D000020260298007B009033009BB20422290029
:100D10000298006801F072FD002D01D0012000E072
:100D2000002084F8600100208DF80400D4F86801E8
:100D300000280BD0D4F86401002807D0D4F864014F
:100D4000C068002802D101208DF804000020059021
:100D50009DF8040004EB8000D0F8480100285DD025
:100D6000012005909DF8040004EBC00010F5A87563
:100D700000209DF8041004EB8101C1F84801002611
:100D800030000299497BC0B28842E1D20299320018
:100D9000D2B21C20424301EB0200103003900398B2
:100DA0000C300490049800688DF800000398876860
:100DB000092F01D3082007009DF80000B84217D280
:100DC0005FF008085FF000090DF1200A4A4641462D
:100DD000504600F005FF9DF800A006950DF1200B90
:100DE00052460699584600F02FFF0DF1200B00E007
:100DF000AB4600200499086007AB3A0059460398B7
:100E0000DDF80CC0DCF818C0E0479DF8000004993C
:100E100008609DF800000544761CB1E7D4F86C0129
:100E2000002848D00598002813D0D4F86C01D4F8D5
:100E30007011884209D2D4F8700100900023172263
:100E400000210298006801F0D9FC0120C4F870016B
:100E500031E0D4F8700100282DD0D4F87001D4F816
:100E60006C11884227D2D4F870110A984118C4F83E
:100E70007011D4F86C01D4F8701188421BD2D4F8E8
:100E80007001009048F25023172201210298006857
:100E900001F0B4FC0FE002988068002802D00C98A2
:100EA000002808D10020C4F848010020C4F84C01F3
:100EB0000020C4F870010DB0BDE8F08F2DE9FC4FA3
:100EC00083B005000E001700002D06D0002E04D0C0
:100ED0000498002801D0052F01D3092012E1D5F88C
:100EE0000480C1463C00B2460DF1080B2200514679
:100EF000584600F0A9FE687C01280CD0022800F0BA
:100F0000A380032800F0C980052800F0D8800628B7
:100F100000F0E280F0E03000FFF7D8F98246D346D7
:100F20005FEA4B5B5FEA5B5B5446E40F94F00104BD
:100F3000DFF868041AEA000F49D1002C09D0D9F86B
:100F40000800002805D05846B9F8241180B288421C
:100F50003DD1002C35D0584680B2802837DB58462A
:100F600080B240F20111884205DB584680B240F25F
:100F7000811188422BDB584680B240F28151884271
:100F800004DB584680B2B0F5C06F20DB584680B213
:100F900040F20161884204DB584680B2B0F5D06F60
:100FA00015DB584680B2B0F5DC6F04DB584680B2E2
:100FB000B0F5E06F0BDB584680B240F20171884219
:100FC00005DA002C05D099F80D00002801D10F207A
:100FD00098E0D9F80800844205D15846B9F82411A0
:100FE00080B288422FD05846B9F8221180B2884288
:100FF00005D15FEADA11C90102A8FFF773F9002CE5
:1010000001D10020834698F84C01F12801DA012033
:1010100000E00020C0B2019099F80C00009000237D
:101020005A4692B2B9F82011D9F8040000F041FFF5
:101030000100002901D1092064E0C8F84811C9F86D
:101040000840A9F824B157E03000FFF725F9010066
:101050000800C0B2F12805DB0800C0B2FE2801DAA2
:101060000F204FE00800C0B2F12801DA012000E0B3
:101070000020C0B2D8F848215061FF2088F85901FB
:1010800088F84C110120C8F850010020C8F8680108
:10109000D8F86801C8F864012EE0D9F808000028E3
:1010A00001D00F202EE03000FFF703F9642101FB8F
:1010B00000F1C8F85C110021C8F864111CE0300090
:1010C000FFF7F7F84FF47A7101FB00F1C8F86011EF
:1010D0000021C8F868110FE03000FFF7DDF80100CB
:1010E000D9F80800002803D10800C0B2F12801DBBC
:1010F0000F2007E088F85811049B3A0002A9280045
:1011000000F086FB05B0BDE8F08F2DE9FE4F86B0FC
:101110000600139FDDF85480179CB146002E0DD0B9
:10112000069800280AD00798002807D0002F05D07D
:101130001498002802D0B8F1000F02D15FF0FF3000
:1011400028E14FF4B67005900025B2462A000599B3
:10115000504600F045FD0798C9F80000C9F8048022
:101160000020039003A8019000940023149A06998C
:101170004846FFF7D2F98246504640B2002802D0D6
:10118000504640B206E1FE208DF80800012302AA75
:1011900002213800FFF7C1F80500280040B20028FE
:1011A0000BD0002C06D03800FFF7A8F8000250F052
:1011B000020020607FF00B00ECE09DF80800FE28A4
:1011C00006DA9DF80800F12802DBFE208DF8080001
:1011D0009DF8080086F84C010120C6F85001002057
:1011E0000490012304AA01213800FFF7B2F88DF81A
:1011F00009009DF9090000280BD0002C06D038000A
:10120000FFF77CF8000250F0010020607FF00B0037
:10121000C0E0049DED0F95F00105DDF810B05FEA28
:101220004B5B5FEA5B5B002D0ED099F80D00002848
:1012300003D0584680B2002806D10020050003984C
:10124000002801D101200390039800280ED00398B4
:10125000012801D0039800E0049800904FF4024365
:101260001A220121D9F8000001F0C8FA002D01D19D
:1012700000208346584680B200280BD0594689B2D8
:10128000BDF848204FF680700240914202D1BDF86F
:101290004800834696F84C01F12801DA012000E06D
:1012A0000020C0B2019099F80C00009000235A462B
:1012B00092B2BDF85810404600F0FBFDC6F8480158
:1012C000D6F84801002802D15FF0FF3062E0C9F88B
:1012D00008500020ADF802000020ADF80000012306
:1012E0000DF1020203213800FFF725F88DF80900FF
:1012F00001236A4605213800FFF71DF88DF8090023
:10130000BDF8021064204143C6F85C11BDF800101E
:101310004FF47A704143C6F86011002086F85801F6
:10132000012316F5AC7206213800FEF7F6FF8DF8A2
:1013300009000898C6F85401FF2086F859010020DA
:10134000C9F818010698C9F81C01BDF85800A9F899
:101350002001BDF84800A9F82201A9F824B1C9F874
:1013600028611048C9F82C011248C9F83001C9F8A1
:1013700038610E48C9F83C010D48C9F8400119F51B
:1013800094713800FEF7C1FF19F59C711498FEF7AF
:10139000BCFF002009B0BDE8F08F000000F8FF3F5F
:1013A000B507000833070008690800088D17000812
:1013B0003D060008BD0E00082DE9F84F88B0040076
:1013C0000294D4F84801451D94F84C01002803D03C
:1013D00094F84C01FE2801DB012000E00020C0B29F
:1013E0000790002738000299497BC0B2884261D239
:1013F00002993A00D2B21C20424301EB02001030A5
:101400000390039801900198D0F80C8001988068AF
:1014100000900098092801D3082000904046C0B2EF
:10142000009988420BD25FF008095FF0000A05AE10
:1014300052464946300000F0D3FB05AE00E02E00D6
:1014400000200199C86004AB009A31000198DDF8D2
:101450000CC0DCF814C0E0474046C0B20199C86037
:101460004046C0B2009988420AD2C1465FFA89F963
:101470000DF1140AAB464A465146584600F0E4FBCB
:1014800002983900C9B200EB8100D0F8F0100029B1
:101490000BD00798002808D00A7802983B00DBB2EE
:1014A000184490F8100102430A705FFA88F8454426
:1014B0007F1C97E70020C4F85001D4F86001C4F8FD
:1014C0006801D4F85C01C4F86401D4F848110298AA
:1014D000406800F07DFD09B0BDE8F08F2DE9F843CC
:1014E00006000F0090461C00089DB146D9F8080080
:1014F000002800F0AB80002C00F0A88096F84C018A
:10150000002803D096F84C01FE2836DBD6F860019F
:10151000002811D0D6F86801874203D2D6F86801B6
:10152000C01B00E00020C6F86801D6F8680100285A
:1015300002D10120C6F85001D6F8500100281CD174
:101540000022100099F80D10C0B2884215D2100088
:10155000C0B209EB8000D0F8F00000280BD0017871
:101560001300DBB24B4493F81031194203D101212F
:10157000C6F8501101E0521CE3E796F84C01FE2832
:1015800016DBD6F86401874203D2D6F86401C01B8B
:1015900000E00020C6F86401D6F85001002862D0AF
:1015A000D6F8640100285ED13000FFF705FF5AE04D
:1015B000D6F85401002856D0002D54D096F84C018E
:1015C000002807D1D6F8500100284CD03000FFF792
:1015D000F3FE48E096F85901FF2813D1D6F85401DC
:1015E000407C002807D096F85801002803D0FE2040
:1015F00086F8590106E096F84C01C0B24008401C3C
:1016000086F8590196F85901FE280ED1D6F85401F2
:10161000807C96F85811884225D196F84C0186F8BE
:1016200059013000FFF7C8FE1DE096F85901401E31
:1016300086F8590196F85901002814D196F84C0102
:1016400086F859013000FFF7B7FE0CE00120C6F81C
:1016500050010020C6F86801D6F86801C6F8640198
:10166000FF2086F85901BDE8F183F0B40246106806
:1016700095681318506803EB5004C00748BF4D44E9
:10168000A3422DD013F8016B16F0030004BF13F82A
:10169000010BC01C31090F2907D113F8011B0F31B1
:1016A00003E013F8017B05F8017B401EF9D1002906
:1016B000E6D013F8010BC6F38106032E08BF13F81A
:1016C000016B00EB0620404228440026B71E8F42E3
:1016D0001EBF10F8017B05F8017B761CF6D1CFE721
:1016E000F0BC02F10C00704781423ABF5318984297
:1016F00000F0AABA8018990707D0521E24BF13F829
:10170000011D00F8011DF6D8704781071BD1103A62
:1017100007D330B433E93210103A20E93210F9D24D
:1017200030BC1032121F24BF53F8041D40F8041DB2
:10173000F8D838BF121D521E24BF13F8011D00F83F
:10174000011DF8D87047121FF3D3C10709D153F810
:10175000041D121F20F8041D4FEA31414180F6D2CA
:10176000E7E753F8041D121F00F8041D4FEA31216A
:10177000A0F801104FEA3141C170F2D2D9E77047A9
:10178000FEE7FEE7FEE77047704770472DE9FE4F22
:1017900004000D0090461E00002C03D0002D01D047
:1017A000002E01D1092031E0D4F808A02768002FCD
:1017B00001D10E202AE05FF00009E068002801D185
:1017C000D04516D2E068504501D309201EE0E068FC
:1017D000BAEB000AE0680744D04508D2C246E06888
:1017E0001AEB0000E0605FF0FF30814601E000206E
:1017F000E060CDF804A00097AB46019A00995846E6
:1018000000F022FAC6F800A0484640B2BDE8FE8FBC
:101810002DE9FE4F04000D0090461E00002C03D061
:10182000002D01D0002E01D1092035E0D4F808A008
:101830002768002F01D10E202EE05FF00009E0683C
:10184000002801D1D04516D2E068504501D30920C7
:1018500022E0E068BAEB000AE0680744D04508D20D
:10186000C246E0681AEB0000E0605FF0FF3081469E
:1018700001E00020E060C24501D20C200CE0CDF870
:1018800004A00095BB46019A0099584600F0DCF987
:10189000C6F800A0484640B2BDE8FE8F10B4040070
:1018A000022010BC704710B40400022010BC704726
:1018B000F0B40200002A02D01088002801D10020D4
:1018C0003CE000231088441E1800250080B2ADB211
:1018D000A84220D2200080B210FA83F56D1056681D
:1018E0002F00BFB20C20474306EB07000E0007880D
:1018F000B6B2BE4222D00E000788B6B2BE4207D2B0
:101900002E00B6B2002E01D06C1EDDE72C00DBE706
:101910006D1C2B00D8E71800250080B2ADB2A8429C
:101920000BD155681E00B6B20C20464305EB0600ED
:101930000D000688ADB2B54200D00020F0BC704763
:101940002DE9F04104000D00002C02D06068002851
:1019500001D1052098E0002A01D1092094E0160069
:10196000E07810F00F00012804D066D3032836D0A9
:101970000ED362E02800C0B2002801D00E2083E020
:10198000606801793174016831608168B16056E046
:101990002800A178C0B2884201D30E2074E06168AB
:1019A0002800C0B2002806D1087A30740868306078
:1019B0000120B06012E0487A30744868002801D1F4
:1019C000070008E00F69AC465FFA8CFCBCF1010C23
:1019D0000CFB07F707443760CF68B7602FE06768F4
:1019E00000210020844694F802E05FFA8CFCF44564
:1019F00018D25FF00C0C86465FFA8EFE0CFB0EFED2
:101A0000BE449EF804E0A8465FFA88F8C64507D1B0
:101A100086465FFA8EFE0CFB0EFCBC44614601E07C
:101A2000401CDFE7002901D10E202DE048793074F9
:101A3000086830608868B06001E0092024E0A06890
:101A4000002801D0002B06D018485061184890613A
:101A50000020706014E0A0684068002802D0A068F0
:101A6000406800E013485061A0688068002802D0F8
:101A7000A068806800E010489061A068006870600D
:101A80000020F06075740020BDE8F081010049B2CB
:101A9000002903D4010049B21A2902DB0748406A31
:101AA00003E0064940B251F8200070478D17000846
:101AB000111800089D180008A718000838E700084A
:101AC0002DE9F04788B005000E0014001F00DDF876
:101AD0004080002C01D109201FE00DF104090020F5
:101AE0000090434601AA3100C9B22800FFF728FF41
:101AF0008246504640B2002802D0504640B20CE028
:101B0000D9F80800B84201D00B2006E06B463A0035
:101B100021004846DDF818C0E04708B0BDE8F0876E
:101B20002DE9F04788B004000D0016001F00DDF815
:101B300040800DF1040900200090434601AA2900CD
:101B4000C9B22000FFF7FCFE8246504640B2002892
:101B500002D0504640B20CE0D9F80800B84201D09B
:101B60000B2006E06B463A0031004846DDF81CC009
:101B7000E04708B0BDE8F0872DE9F84187B00600DE
:101B80000F0014001D00E84601236A463900C9B25F
:101B90003000FFF7D5FE0100080040B2002812D146
:101BA000D8F80000002803D0D8F80800002802D197
:101BB0000920010007E0002C05D0D8F80800844275
:101BC00001D00B200100002D00D0297049B200295E
:101BD00002D1D8F8000000E0002008B0BDE8F08194
:101BE00062F30F2262F31F42401810F0030308D083
:101BF000C91A1FD3DB0748BF00F8012D28BF20F802
:101C0000022D130030B414461546103928BF20E9C0
:101C10003C00FAD8490728BF20E90C0048BF40F82B
:101C2000042D890028BF20F8022D48BF00F8012D9F
:101C300030BC7047C91818BF00F8012DCB0728BF6A
:101C400000F8012D70472E0062B38B0708D0521E9A
:101C500011F8013B00F8013B00F024808B07F6D11E
:101C6000830740F0208000BF103A07D330B4B1E8BA
:101C70003810103AA0E83810F9D230BC530724BF0E
:101C8000B1E80810A0E8081044BF51F8043B40F840
:101C9000043BD20724BF31F8022B20F8022B44BFAB
:101CA0000B7803707047121F17D35B0009D151F8EE
:101CB000043B20F8023B1B0C121F20F8023BF6D21B
:101CC0000BE051F8043B00F8013B1B0A20F8023BF3
:101CD0001B0C121F00F8013BF3D238BF121D521E1D
:101CE00024BF11F8013B00F8013BF8D87047000011
:101CF00010B50400002C02D0A06800F0BFFF10BD9A
:101D000010B504002068002807D02068806800F023
:101D10009AFF002801D10120606110BD2DE9F84330
:101D20000400884615009946089E099F002C03D0A0
:101D3000002D01D0002E02D15FF0FF306AE0C4F820
:101D40000080DFF86C0504606560A4F80890E66028
:101D5000278200206082002060610020A0610020B6
:101D6000E061012020620020A0840020A062002009
:101D700001004A4689B292B291421BD20C21002244
:101D800003009BB24B43EA52020092B24A432A44F8
:101D90004FF6FF735380020092B24A432A44002355
:101DA0005360020092B201FB02F1294400228A60D2
:101DB000401CDDE7002108003A0080B292B2904258
:101DC00009D200220B009BB21820434306EB03000C
:101DD0000261491CEFE7D8F80C0080470020009012
:101DE000002302220021D8F8080000F011FF00288B
:101DF00002D05FF0FF300DE05FF0FF32DFF8B41487
:101E0000D8F8080001F0CEF8002802D05FF0FF30CB
:101E100000E00020BDE8F28310B50400002C06D0DD
:101E20002068002803D02068806800F027FF10BDDC
:101E30002DE9F0410400069D079EDDF820C000203A
:101E4000002C30D0002E2ED06746002F2BD00F0054
:101E5000B4F808E0BFB2774525D2D4F804E088464C
:101E60001FFA88F80C2707FB08F8C644CEF8046070
:101E7000CEF808C0002D02D04FF4004700E0002744
:101E80005FEA42585FEA585857EA0807AEF8007010
:101E90005F057F0D57F40047AEF80270A769002F69
:101EA00004D000BF02E05FF0FF37380040B2BDE869
:101EB000F081F0B50400059D069F0020002C24D081
:101EC0000E00B4F810C0B6B266451ED2D4F80CC0ED
:101ED0008E461FFA8EFE182606FB0EFE0CEB0E0633
:101EE0003000002B02D04FF4004600E0002694465C
:101EF0001FFA8CFC5FEA4C5C5FEA5C5C56EA0C06FD
:101F000006600571002606614761F0BD70B50400EA
:101F10000D0000262068806801F03AF8002854D0AF
:101F2000DFF8941328684005400D08602868C00B4E
:101F300010F00100400788600020486000208861A0
:101F40000020486100200862002008610020C8616C
:101F5000287900280CD0022811D00CD3042816D0E0
:101F600011D306281BD016D3082820D01BD322E07B
:101F70000020C8601FE05FF48030C8601BE05FF4A1
:101F80000030C86017E05FF44030C86013E05FF4D1
:101F90008020C8600FE05FF4A020C8600BE05FF411
:101FA000C020C86007E05FF4E020C86003E05FF491
:101FB0000020C860FFE76A1D2068806800F0AFFE5F
:101FC000002801D1012600E000263000C0B270BD1B
:101FD00070B504000D0000262869002809D0206A89
:101FE000002803D1608A50F0080060827FF008006A
:101FF0000600EFF31080E06272B629002000FFF7C0
:1020000085FF002802D06869E06104E001202861B2
:10201000A08C401CA084E06A80F31088300040B29D
:1020200070BD30B401000022EFF31080C86272B6B8
:10203000C869002803D00020C86101200200888CF4
:10204000002824D00B8A180080B200281FD0182442
:10205000C8681D00ADB2654328440069002814D04B
:10206000C8681D00ADB265432844406900280CD003
:10207000C8681D00ADB204FB05F4204400240461CF
:10208000888C401E8884022002005B1EDBE7C86A41
:1020900080F31088002A03D0488A50F080004882DC
:1020A00030BC70470021026892681268526C12F0CE
:1020B000E002836A934214D0438A8262110602D5F9
:1020C00053F004030CE04FF6F8410B40510602D5E3
:1020D00040F201110B43910602D540F202210B435D
:1020E000438270472DE9FF4706000F009046002409
:1020F0005FF00009DFF8C4A10DF105035246390075
:10210000300000F050FE00287CD1DAF80800B0F171
:10211000005F02D14FF4004000E00020DAF8001028
:1021200008430090DAF80C00002818D0B0F5803F82
:1021300019D0B0F5003F1AD0B0F5403F1BD0B0F534
:10214000802F1CD0B0F5A02F1DD0B0F5C02F1ED011
:10215000B0F5E02F1FD0B0F5002F20D023E00020F5
:102160008DF8040022E001208DF804001EE002201A
:102170008DF804001AE003208DF8040016E0042016
:102180008DF8040012E005208DF804000EE0062012
:102190008DF804000AE007208DF8040006E008200E
:1021A0008DF8040002E000208DF80400DDF800A0A6
:1021B0003F4908688069002801D000BE15E0086822
:1021C00040680400086800890500280080B20028E3
:1021D0000BD0208890EA0A006188084202D10120D1
:1021E000814602E06D1E0C34EFE74846C0B200287D
:1021F00008D0002C06D0A068002803D0694660688B
:10220000A2689047BDE8FF8738B504000D00E807D5
:1022100004D52A0040212000FFF764FF31BD38B506
:1022200004000D00E80604D52A0041212000FFF734
:1022300059FF31BD2DE9F04104000D001C4E002076
:102240003168086200203168C8613068808C0028DD
:102250002BD03068C768EFF310803168C86272B65F
:102260003068B0F81080404680B2002816D0386937
:1022700000280FD039003068FFF748FE002809D049
:10228000002038613068808C401E3168888478690D
:102290003168C861B8F101081837E4E700203168F7
:1022A00088843068C06A80F31088BDE8F08100003F
:1022B0009C190024110A801B0C190024E418002426
:1022C000F8B50400012526006F462A0031003800C9
:1022D000FFF70AFA9DF80000F2BDF2B504000125EF
:1022E0006E4627002A0031003800FFF7FDF9012073
:1022F000F2BDF2B5040004256E4627002A00310025
:102300003800FFF7F1F90420F2BD002801D0008861
:1023100000E0002080B270470200002A01D10520B1
:1023200001E0916000207047F8B504000D00160030
:102330001F000097042332002900C9B22000FFF7D4
:10234000BFFBF2BD2DE9F84304000D0017001E008D
:10235000002C08D0607C002805D1002D03D0042F6C
:1023600001D3002E01D1092016E0D4F80480D8F85A
:102370002400002802D05FF0000901E05FF000496E
:1023800098F82800803050EA090949462800FFF7EC
:10239000B0FF042030600020BDE8F2832DE9F8434F
:1023A00004000D0016001F00002C0AD0002D08D0DC
:1023B000002F06D0042E02D2607C002801D1002E0E
:1023C00001D109203EE0D4F8048098F81C000228CE
:1023D00001DA092036E0607C002808D198F8201046
:1023E0002800FFF77AFF0120386000202AE098F8E3
:1023F0002000617C884224D398F81D0094F8119045
:10240000B0EB0909484600B2002804D598F81C0032
:1024100019EB000908E0484698F81C1000B209B210
:10242000884201DB09200DE0D8F81800494609B2BE
:1024300050F831102800FFF75CFF042038600020BE
:1024400000E01920BDE8F283F8B506000D00170082
:102450001C00002E08D0707C002805D1002D03D070
:10246000012F01D1002C01D109200DE02800FFF738
:1024700027FF002801D00F2006E07168002081F8B6
:102480002000012020600020F2BD2DE9F84F84B02B
:1024900005000E001700DDF83C80DDF84890139C25
:1024A0005FF0000A002D18D0002F16D004980028E5
:1024B00003D19DF8380002280FDAB8F1000F0CD0D4
:1024C000002E0AD04846C0B2002806D04846C0B206
:1024D000802802DA1198002802D15FF0FF3085E0F1
:1024E0005020019000200090AB46009A0199584678
:1024F000FFF776FB6E610023012200213800FFF711
:102500003BFBE860E868002808D1002C03D03800C5
:10251000FFF7FBFE20607FF00B0067E00020E9681A
:1025200008700498A8619DF838002877012303AA51
:1025300000214046FFF7F8FE8346584640B2002887
:1025400003D103982B4908420CD0002C03D04046FD
:10255000FFF7DBFE2060584640B2002802D07FF033
:102560000B0043E04846C0B28030ADF80A00039843
:10257000C00F90F0010068622D631F4868631F4818
:10258000A86315F130014046FFF7C6FE8DF808003C
:102590009DF90800002808D0002C03D04046FFF722
:1025A000B4FE20607FF00B0020E085F8289000202A
:1025B0000190082000900023BDF80A20BDF84010CB
:1025C0003000FFF776FCE862E86A002802D15FF08D
:1025D000FF300BE02D640A4868640A48A86415F1CE
:1025E00040011198FFF798FE504640B205B0BDE893
:1025F000F08F000000F8FF7F452300081118000845
:102600009D230008492400082DE9F74F05000C0020
:102610001E006869478A3800298A80B2884274D0CF
:10262000B5F8108098EA07082F8240F2011018EAE6
:10263000000F0CD0074201D0012100E00021002052
:10264000009000230122C9B2280000F0D7F85FEA09
:1026500088700CD50020009048F220130722390022
:10266000C9B2490811F00101280000F0C7F85FEA7B
:1026700048700CD50020009048F240131222390017
:10268000C9B2890811F00101280000F0B7F85FEA2B
:1026900008700CD50020009048F210131422390065
:1026A000C9B2C90811F00101280000F0A7F85FEADB
:1026B00008600BD5002000904FF40143152239002B
:1026C000C9B2C909C9B2280000F098F85FEA885079
:1026D0000CD50020009048F220130622390089B260
:1026E000490A11F00101280000F088F85FEA08505B
:1026F0000BD50020009013231322390089B2C90A98
:1027000011F00101280000F079F85FF00008687905
:10271000002801D058F00108A878002802D1E878F4
:10272000002801D058F01008287A002802D1687AD1
:10273000002801D058F08008E86880F80080002C5C
:102740005AD0287F022857DB95F81E904846697FAB
:10275000C0B2884250D0E86A006900284CD1A8690C
:102760004946C9B250F831004146C9B250EA014069
:10277000A9694A46D2B241F832005FF0080AA86956
:102780004946C9B200EBC1000090E86A10F1050BA0
:10279000524600995846FFF757FAE96A6869FFF709
:1027A00017FC19F101094846297FC0B2884201D2BD
:1027B000484600E00020A877E87F01280BD10220DE
:1027C000E877002000904FF4805320220121280058
:1027D00000F014F810E0E87F02280DD1A87F697F8F
:1027E000884209D10020E8770020009000232022B1
:1027F0000021280000F002F8BDE8F78F2DE9F84F1E
:102800000A9C002800F095801600F6B2F608012711
:1028100012F0070517FA05F53700FFB20A2F09DB9A
:1028200005273E0001273D004FF4C2473B0017003B
:10283000FFB23C003700FFB2074497F800E015EA0A
:102840000E0E002906D0F4465FFA8CFCBCF1000F96
:1028500009D06EE0F4465FFA8CFCBCF1000F68D042
:102860005FF0000C634694465FFA8CFC98461FFAB2
:1028700088F858EA0C680094EFF3108CD0F81490A4
:10288000C9F830C072B6002906D097F800C055EAE2
:102890000C0C87F800C005E097F800C03CEA050C76
:1028A00087F800C090F81CC0BCF1020F3BDB90F829
:1028B0001DC01CF10109CA4690F81CB05FFA8AFAE3
:1028C000DA4502D35FF0000AD146CA4690F81EB03E
:1028D0005FFA8AFADA4504D15FF0010A80F81FA096
:1028E00021E0D0F818A0E3465FFA8BFB4AF83B8062
:1028F000D0F818A0E3465FFA8BFB0AEBCB0ADDF8B1
:1029000000B0CAF804B080F81D9090F820A090F8AC
:102910001CB0BBF1010BDA4505DA90F820A01AF1E2
:10292000010A80F820A0D0F814C0DCF830C08CF385
:102930001088BDE8F18F0000F0B593B00400684640
:10294000DFF8C8124C22FFF78FF9002C01D10120CB
:102950005AE1DFF838662068B04203D1206810F5EC
:1029600080706060A068B0F5407F206C0028A06C8B
:102970000028206D0028206E0028E06D216E0818C8
:10298000002894F89800002805D1002084F89900C8
:10299000200000F0FDFE2068806930F01000216802
:1029A000886101F013F807002068806900070FD5DF
:1029B00001F00CF8C01B0B28F6D3D4F89C0050F0A3
:1029C0000100C4F89C00032084F8980001201BE15A
:1029D0002068806950F001002168886100F0F6FFEE
:1029E000050020688069C0070FD400F0EFFF401B8E
:1029F0000B28F6D3D4F89C0050F00100C4F89C00DA
:102A0000032084F898000120FEE02068806950F0DF
:102A1000020021688861207C012806D12068806935
:102A200030F040002168886105E02068806950F03E
:102A3000400021688861607C012806D12068806997
:102A400050F480402168886105E02068806930F496
:102A5000804021688861A07C012806D120688069B7
:102A600030F480502168886105E02068806950F466
:102A70008050216888612068816931F44071A068C4
:102A80000143206881612068806930F0A4002168DA
:102A900088612068006930F0100021680861E068F2
:102AA000012806D12068806950F0040021688861FF
:102AB00021E0E06800281ED0E068022815D02068D8
:102AC000806950F08000216888612068006950F0BA
:102AD000100021680861E06803280CD12068806933
:102AE00050F020002168886105E02068806950F07E
:102AF000200021688861A069401EE169491E090221
:102B000051EA4061206A401E01436069401E51EA5B
:102B100000412068C161A068B0F5407F0FD1A06A74
:102B2000401EE16A491E50EA0120216B491E50EA0D
:102B30000110616A491E50EA01402168C860206E98
:102B4000002807D02068D0F8C010606E01432068CC
:102B5000C0F8C010E06D216E081800280CD0206865
:102B6000D0F8C810C908C9006846A26E50F8220003
:102B700001432068C0F8C810206C00280CD02068E1
:102B8000D0F8BC10C908C9006846626C50F8220031
:102B900001432068C0F8BC10A06C00280DD020684C
:102BA000D0F8BC0030F070006946E26C51F8221099
:102BB00050EA01102168C1F8BC00206D00280DD03A
:102BC0002068D0F8BC0030F4E0606946626D51F8CE
:102BD000221050EA01202168C1F8BC002068B042F0
:102BE00005D1606880688008800061688860002086
:102BF000C4F894000020C4F89C00012084F89800D8
:102C0000200000F029FCC0B213B0F0BDA0E700081E
:102C100070B40400039D94F8980001280AD1900034
:102C200050EA011050EA430028432668C6F88000A5
:102C3000002006E0D4F89C0050F00400C4F89C008A
:102C4000012070BC7047010091F8980001280DD157
:102C5000022081F8980008688069400840000A68EE
:102C600090610020C1F89C00002006E0D1F89C0093
:102C700050F00400C1F89C000120704710B401001E
:102C8000002291F89800022840D10868806950F02D
:102C900001000B68986108688069C0070ED4332A68
:102CA0000AD3D1F89C0050F00100C1F89C00032029
:102CB00081F89800012030E0521CECE700230868FE
:102CC000806930F010000C68A06108688069000716
:102CD0000ED5332B0AD3D1F89C0050F00100C1F877
:102CE0009C00032081F89800012016E05B1CECE7B3
:102CF0000868806950F002000A6890610020C1F8FD
:102D00009400012081F89800002006E0D1F89C0092
:102D100050F00800C1F89C00012010BC7047F8B5C5
:102D200004000D00160068680028FFD094F8980091
:102D3000022830D12068D0F8C00010F07C5F07D1A5
:102D4000D4F89C0050F02000C4F89C00012029E039
:102D50002068D0F8C400800207D5D4F89C0050F455
:102D60000070C4F89C0001201CE02068D0F8C4006A
:102D7000C0F304473B0032002900200000F06AFC49
:102D8000012010FA07F12268C2F8D010B840C4F848
:102D90009400002006E0D4F89C0050F00800C4F82D
:102DA0009C000120F2BD2DE9F0410400002694F8BA
:102DB00098502800C0B2022840F0DF80402932D16C
:102DC0002068D0F8A00010F4FE0F07D1D4F89C00C2
:102DD00050F02000C4F89C000120D5E02068D0F815
:102DE000A40010F07F0F07D1D4F89C0050F480703D
:102DF000C4F89C000120C7E02068D0F8A400C0F30C
:102E00000060002802D02068D0F8A0002068D0F828
:102E1000A400C0F305208619676F606C00FB06F004
:102E200017EB800745E0412932D12068D0F8B00087
:102E300010F4FE0F07D1D4F89C0050F02000C4F825
:102E40009C000120A0E02068D0F8B40010F07F0FB3
:102E500007D1D4F89C0050F48070C4F89C00012085
:102E600092E02068D0F8B400C0F30060002802D0DF
:102E70002068D0F8B0002068D0F8B400C0F3052076
:102E80008619A76FE06C00FB06F017EB800710E0D7
:102E9000206D814207D3D4F89C0050F02000C4F884
:102EA0009C00012070E0E76F606D00FB01F017EB04
:102EB0008007386810F0804050605068002804D1C6
:102EC0003868C0F38A40106003E0386820F0604042
:102ED0001060386810F000509060386810F00040C2
:102EE0001061381D0768BFB2D761076817F47027F3
:102EF000D760076817F480175761076817F4001741
:102F000097610768C7F3066717620768FF0F576284
:102F1000071DBC465FF0000EDFF88400D2F80C807D
:102F20005FEA184810F80800864506D21CF80E0023
:102F300003F80E001EF1010EEEE7402903D12068D0
:102F4000C0F8A86017E0412903D12068C0F8B86034
:102F500011E0202906D201208840D4F80080C8F86A
:102F6000980008E05FF0010811F01F0018FA00F85F
:102F70002068C0F89C80002006E0D4F89C0050F047
:102F80000800C4F89C000120BDE8F08100A00040CA
:102F900001000868D0F8C40010F03F00704700003E
:102FA00058EF000830B4030093F898402000C0B2F6
:102FB000012803D02000C0B202283BD11868806DE0
:102FC000014206D11868C06D50F001001D68E86527
:102FD0000EE01868806D0840884206D11868C06D00
:102FE00050F002001D68E86502E003201D68E865F6
:102FF000880506D51868D0F8E00010431D68C5F8AC
:10300000E000480506D51868D0F8E40010431D68B4
:10301000C5F8E4001868406DDFF8D4560D40284329
:103020001D686865DFF8CC06056855EA917505608E
:10303000002006E0D3F89C0050F00200C3F89C008A
:10304000012030BC70472DE9F04F89B08246DFF88F
:10305000A8B6DBF80040A407DFF89806006814EA79
:103060008074DAF80000056D15F47045DAF8000098
:10307000406D0540DAF80000066D16F00F06DAF82C
:103080000000406D0640DAF80000076D17F0F00709
:10309000DAF80000406D0740DAF80000D0F8508000
:1030A00018F07158DAF80000406D10EA0808DAF8F4
:1030B0000000D0F8509019F06079DAF80000406D07
:1030C00010EA0909DAF80000406DC0050FD5DAF8FA
:1030D0000000006DC0050AD54FF48070DAF80010CA
:1030E00008650020CBF80000504600F075FCDAF8C7
:1030F0000000406D40051AD5DAF80000006D40056B
:1031000015D5DAF80000D0F8DC10DAF80000D0F8B5
:10311000E400014007914FF48060DAF80010086580
:103120000020CBF800000799504600F056FC002C18
:103130000DD0DFF8BC052040DAF80010086520004B
:10314000800FCBF800002100504600F047FC002D16
:103150000DD0DFF89C052840DAF80010086528003B
:10316000800FCBF800002900504600F038FC002EFC
:103170000DD0DFF87C053040DAF80010086530002B
:10318000800FCBF8000031005046FFF73DF8002FCC
:103190000DD0DFF85C053840DAF80010086538001B
:1031A000800FCBF8000039005046FFF738F8DAF806
:1031B0000000406D00050FD5DAF80000006D000535
:1031C0000AD54FF40060DAF8001008650020CBF84B
:1031D0000000504600F004FCDAF80000406D800565
:1031E0001AD5DAF80000006D800515D5DAF8000070
:1031F000D0F8D810DAF80000D0F8E00001400891CB
:103200004FF40070DAF8001008650020CBF80000D9
:1032100008995046FFF70EF8DAF80000406D0003F9
:103220000FD5DAF80000006D00030AD55FF4002026
:10323000DAF8001008650020CBF80000504600F0D6
:10324000D0FBDAF80000406DC0030FD5DAF80000BB
:10325000006DC0030AD55FF48030DAF8001008650D
:103260000020CBF80000504600F0BCFBDAF800006C
:10327000406D40030FD5DAF80000006D40030AD519
:103280005FF48020DAF8001008650020CBF8000019
:10329000504600F0A8FBDAF80000406D800312D51C
:1032A000DAF80000006D80030DD55FF40030DAF825
:1032B000001008650020CBF80000DAF89C0050F000
:1032C0008000CAF89C00B9F1000F0ED0DFF820048E
:1032D00010EA0900DAF8001008654846800FCBF8BC
:1032E00000004946504600F07FFBB8F1000F10D0B7
:1032F000DFF8FC0310EA0800DAF800100865404621
:10330000800FCBF80000DAF89C0058EA0000CAF8F9
:103310009C00DAF80000DFF8E413884240F0928065
:10332000DAF80400806810F0030F00F08B80DAF800
:103330000400016A11F00F01DAF80400406A01404C
:103340000491DAF80400016A11F03001DAF804009F
:10335000406A01400391DAF80400016A11F4C07177
:10336000DAF80400406A01400291DAF80400016AC8
:1033700011F4FC41DAF80400406A01400191DAF8E6
:103380000400016A11F4F021DAF80400406A0140F7
:1033900000910498002807D00498DAF80410086215
:1033A0000499504600F021FB0398002807D00398A9
:1033B000DAF8041008620399504600F017FBDAF8B7
:1033C0000400406A400618D5DAF80400006A400696
:1033D00013D5DAF80400C06B000C0690DAF804008C
:1033E000C06B10F03F0005904020DAF8041008622E
:1033F000059A0699504600F0FAFA0298002807D07C
:103400000298DAF8041008620299504600F0F0FAC7
:103410000198002809D00198DAF804100862DAF857
:103420009C1001980143CAF89C100098002809D00C
:103430000098DAF804100862DAF89C10009801434A
:10344000CAF89C10DAF89C00002802D0504600F020
:10345000D0FA09B0BDE8F08F10B401004A6BA84B58
:103460000868D0F88400184050EA82000C68C4F85C
:1034700084000868D0F8840030F47F008C6B50EA38
:1034800004400C68C4F88400886B82180868D0F87F
:103490008800184050EA82000C68C4F88800086868
:1034A000D0F8880030F4FE00CC6B50EA04400C6881
:1034B000C4F88800C86B12EB40020868D0F8A0007E
:1034C000184050EA82000C68C4F8A0000868D0F8E0
:1034D000A00030F4FE000C6C50EA04400C68C4F804
:1034E000A0000C6C486C00FB04220868D0F8B00007
:1034F000184050EA82000C68C4F8B0000868D0F8A0
:10350000B00030F4FE008C6C50EA04400C68C4F843
:10351000B0008C6CC86C00FB04220868D0F8AC00CA
:10352000184050EA82000C68C4F8AC000C6D486D7D
:1035300000FB04220868D0F8F000184050EA82002E
:103540000C68C4F8F0000868D0F8F00030F47C1083
:103550008C6D50EA04400C68C4F8F000886D12EBE2
:1035600040020868D0F8C000034053EA82030868AC
:10357000C0F8C0300868D0F8C00030F47C10CB6DC3
:1035800050EA03400B68C3F8C0000868D0F8C000D8
:1035900030F07C500B6E50EA03600B68C3F8C0003B
:1035A000486B584B13EB8003CB66C86E8B6B10EBEC
:1035B00083000867086FCB6B10EBC30048674B6F45
:1035C0000C6C486C444313EB84038B678B6F8C6CDF
:1035D000C86C444313EB8403CB67CB6F0C6D486D11
:1035E000444313EB8403C1F88030D1F880008B6D25
:1035F00010EBC300C1F88400D1F88430CC6D886E24
:10360000444313EB8403C1F88830D1F888300C6E42
:10361000886E444313EB8403C1F89030D1F89000D6
:10362000394B98420AD3D1F89C0050F02000C1F8E1
:103630009C00032081F89800012009E0CB6ED1F8AE
:103640009000834203D2002018601B1DF7E7002082
:1036500010BC7047F0B54C68002C06D10D698C6821
:1036600025430C6855EA844506E00D698C682543BE
:103670000C68254355F080450C6ACE6956EA04660D
:103680008C6926434C692643CC682643D0F8844095
:10369000876E07FB03F714EB87042560241D266063
:1036A000271D5FF0000C194CD1F80CE05FEA1E4EAC
:1036B00014F80E40A44519D202EB0C04E47802EB96
:1036C0000C0E9EF802E05FEA0E4E5EEA046E02EB1C
:1036D0000C0464785EEA042E12F80C4054EA0E0ED4
:1036E000C7F800E03F1D1CF1040CDCE7F0BD000052
:1036F000FFFFCF3F14A8004010A8004000A00040EA
:103700000300FFFF00AC0040FDD3004058EF00086D
:1037100080B5DFF89C02DFF89C1201600021816017
:103720000021C160012101740021417401218174D3
:1037300004214161082181611F21C16108210162C9
:1037400002214162042181620521C16204210163D9
:103750004FF4A0614163042181630421C16303210B
:10376000016404214164032181640421C1640221B4
:10377000016504214165102181650821C165082189
:1037800001660021416604218166FFF7D5F801BD7D
:1037900030B5B5B00400BC21002206AD2800FEF70C
:1037A0001FFADFF80802844271D1DFF80C020168C9
:1037B00051F001010160016811F0010105910599C5
:1037C000016851F001010160006810F001000590EE
:1037D00005984FF40040069005200790502008906F
:1037E0000220099014200A9002200B9080200C9057
:1037F00000200D9000200E905FF00050219006A850
:1038000000F0F8F8002805D040F2DD11DFF8AC0137
:1038100001F052FADFF8A801016851F480710160EB
:10382000006810F48070059005984FF48050009067
:1038300002200190012002900220039009200490B0
:10384000DFF880516946280001F012FB4FF4006058
:103850000090092004906946280001F009FB00222D
:103860000221132001F0B8FC00220221152001F0F2
:10387000B3FC002202213F2001F0AEFC132001F036
:10388000BDFC152001F0BAFC3F2001F0B7FC484810
:1038900084426DD14848016851F00201016001681D
:1038A00011F0020105910599016851F002010160D2
:1038B000006810F00200059005984FF40040069053
:1038C00005200790502008900220099014200A90AB
:1038D00002200B9080200C9000200D9000200E9074
:1038E0005FF00050219006A800F084F8002804D072
:1038F00040F20721314801F0DFF93148016851F405
:1039000080710160006810F48070059005984FF494
:1039100000500090022001900120029002200390AC
:1039200009200490284D6946280001F0A1FA4FF4BF
:1039300080500090092004906946280001F098FA10
:1039400000220221142001F047FC0022022116204F
:1039500001F042FC002202213F2001F03DFC142036
:1039600001F04CFC162001F049FC3F2001F046FC20
:1039700035B030BD80B50D48FFF765FB01BD80B5A2
:103980000B48FFF760FB01BD80B50848FFF75BFB04
:1039900001BD80B50648FFF756FB01BD80B5034861
:1039A000FFF751FB0248FFF74EFB01BD1015002445
:1039B000B015002400A40040E044025844E9000887
:1039C000EC44025800000258000402580148006804
:1039D000704700BFA01900247047704770477047B8
:1039E000704770477047704770477047704770471F
:1039F000704770472DE9F843040000275FF0000886
:103A00002068000131D5606E002809D0B0F5801F14
:103A10000DD0B0F5001F10D0B0F5401F14D014E049
:103A2000DFF8280A016851F4003101600FE002213B
:103A3000201D00F05BFF070009E0022114F12400C3
:103A400000F0E2FF070002E001E00120070038007B
:103A5000C0B2002808D1DFF8F8190A6832F4401221
:103A6000606E02430A6000E0B8462068C0052FD5AA
:103A7000606D002806D0022811D00AD3042816D081
:103A800014D315E0DFF8C409016851F40031016076
:103A900010E00021201D00F029FF07000AE00021AE
:103AA00014F1240000F0B0FF070003E002E001E0A1
:103AB000012007003800C0B2002808D1DFF89019B3
:103AC0000A68D208D200606D02430A6000E0B8467E
:103AD0002068800532D5A06D002809D040280ED07E
:103AE000802812D0C02817D0B0F5807F15D015E0FF
:103AF000DFF85809016851F40031016010E000213D
:103B0000201D00F0F3FE07000AE0002114F124005C
:103B100000F07AFF070003E002E001E00120070067
:103B20003800C0B2002808D1DFF824190A6832F43E
:103B3000E072A06D02430A6000E0B84620684005CC
:103B400037D5D4F8A40000280CD0B0F5001F10D051
:103B5000B0F5800F13D0B0F5C00F17D0B0F5000F3F
:103B600015D015E0DFF8E408016851F40031016078
:103B700010E00021201D00F0B9FE07000AE000213E
:103B800014F1240000F040FF070003E002E001E030
:103B9000012007003800C0B2002809D1DFF8B418AE
:103BA0000A6832F46002D4F8A40002430A6000E01C
:103BB000B8462068000537D5D4F8A80000280CD0F6
:103BC000B0F1807F10D0B0F1007F13D0B0F1407F12
:103BD00017D0B0F1806F15D015E0DFF870080168DC
:103BE00051F40031016010E00021201D00F07EFE44
:103BF00007000AE0002114F1240000F005FF07008F
:103C000003E002E001E0012007003800C0B2002814
:103C100009D1DFF840180A6832F0E062D4F8A80051
:103C200002430A6000E0B8462068800128D5A06CF5
:103C3000002814D0102804D0202809D030280DD016
:103C40000EE0DFF80808016851F40031016009E076
:103C50000221201D00F04AFE070003E002E001E01F
:103C6000012007003800C0B2002808D1DFF8E817AB
:103C70000A6832F03002A06C02430A6000E0B846E5
:103C80002068C00435D5E06D00280CD0B0F5805F09
:103C900010D0B0F5005F13D0B0F5405F17D0B0F58D
:103CA000804F15D015E0DFF8A407016851F400310A
:103CB000016010E00021201D00F018FE07000AE05E
:103CC000002114F1240000F09FFE070003E002E051
:103CD00001E0012007003800C0B2002808D1DFF859
:103CE00070170A6832F4E042E06D02430A6000E0B7
:103CF000B8462068800433D5206E00280FD0B0F578
:103D0000803F0DD0B0F5003F10D0B0F5403F14D04B
:103D1000B0F5802F12D0B0F5A02F10D010E011E038
:103D20000121201D00F0E2FD07000BE0012114F14C
:103D3000240000F069FE070004E003E002E001E077
:103D4000012007003800C0B2002808D1DFF80017B2
:103D50000A6832F4E022206E02430A6000E0B846AE
:103D60002068400435D5D4F8AC0000280FD0B0F15D
:103D7000805F0DD0B0F1005F10D0B0F1405F14D083
:103D8000B0F1804F12D0B0F1A04F10D010E011E090
:103D90000121201D00F0AAFD07000BE0012114F114
:103DA000240000F031FE070004E003E002E001E03F
:103DB000012007003800C0B2002809D1DFF89416AE
:103DC0000A6832F0E042D4F8AC0002430A6000E036
:103DD000B8462068000427D5E06E002813D0B0F163
:103DE000805F03D0B0F1005F07D00DE0DFF85C0624
:103DF000016851F40031016008E00121201D00F04C
:103E000075FD070002E001E0012007003800C0B2A4
:103E1000002808D1DFF838160A6832F04052E06E08
:103E200002430A6000E0B8462068C00127D5606CF4
:103E3000002813D002280AD002D303280DD00EE0A8
:103E4000DFF80806016851F40031016009E0022141
:103E5000201D00F04BFD070003E002E001E001201F
:103E600007003800C0B2002808D1DFF8EC150A6856
:103E700092089200606C02430A6000E0B846206835
:103E8000400279D5DFF8D495D9F8000050F480705D
:103E9000C9F80000FFF79AFD0600D9F80000C00538
:103EA00006D4FFF793FD801B6528F6D30320070097
:103EB0003800C0B200285ED1DFF8A495D9F8000020
:103EC00010F44070D4F8B01011F44071884212D050
:103ED000D9F8000030F440700500D9F8000050F423
:103EE0008030C9F80000D9F8000030F48030C9F8FB
:103EF0000000C9F80050D4F8B000B0F5807F0FD1B1
:103F0000FFF764FD0600D9F80000800708D4FFF72A
:103F10005DFD801B41F289318842F4D30320070004
:103F20003800C0B2002824D1D4F8B00010F440709A
:103F3000B0F5407F0DD1DFF84C05016831F47C51BC
:103F4000D4F8B020DFF8403513EA121319430160AA
:103F500005E0DFF83005016831F47C510160D9F8E3
:103F60000000D4F8B0100905090D0843C9F8000095
:103F700002E0B84600E0B8462078C0072ED5A06F12
:103F800000280AD0082809D010280DD0182812D0EF
:103F9000202811D0282810D010E011E00121201D88
:103FA00000F0A4FC07000BE0012114F1240000F054
:103FB0002BFD070004E003E002E001E00120070020
:103FC0003800C0B2002808D1DFF8C0140A6832F007
:103FD0003802A06F02430A6000E0B84620788007EC
:103FE0002CD5606F002808D002280DD006D30428F5
:103FF00012D010D3052810D010E011E00121201DAF
:1040000000F074FC07000BE0012114F1240000F023
:10401000FBFC070004E003E002E001E001200700F0
:104020003800C0B2002808D1DFF860140A68D2084E
:10403000D200606F02430A6000E0B8462078400773
:104040002ED5D4F89000002808D002280DD006D331
:10405000042812D010D3052810D010E011E001215F
:10406000201D00F043FC07000BE0012114F12400A7
:1040700000F0CAFC070004E003E002E001E00120D8
:1040800007003800C0B2002809D1DFF8C8130A6859
:10409000D208D200D4F8900002430A6000E0B8468B
:1040A0002078800635D5D4F88C0000280FD0B0F1E8
:1040B000805F0DD0B0F1005F10D0B0F1405F14D040
:1040C000B0F1804F12D0B0F1A04F10D010E011E04D
:1040D0000021201D00F00AFC07000BE0022114F172
:1040E000240000F091FC070004E003E002E001E09E
:1040F000012007003800C0B2002809D1DFF88C1376
:104100000A6832F0E042D4F88C0002430A6000E012
:10411000B8462078400635D5D4F8980000280FD04E
:10412000B0F5806F0DD0B0F5006F10D0B0F5406FD6
:1041300014D0B0F5805F12D0B0F5A05F10D010E0C1
:1041400011E00021201D00F0D1FB07000BE002214F
:1041500014F1240000F058FC070004E003E002E042
:1041600001E0012007003800C0B2002809D1DFF8C3
:10417000E4120A6832F4E052D4F8980002430A606C
:1041800000E0B8462078000635D5D4F89C00002819
:104190000FD0B0F5005F0DD0B0F5804F10D0B0F566
:1041A000C04F14D0B0F5004F12D0B0F5204F10D052
:1041B00010E011E00021201D00F098FB07000BE04B
:1041C000022114F1240000F01FFC070004E003E0CA
:1041D00002E001E0012007003800C0B2002809D148
:1041E000DFF870120A6832F46042D4F89C0002438F
:1041F0000A6000E0B8462078000716D5D4F88000A1
:10420000B0F5805F08D1022114F1240000F0FCFB1E
:10421000002801D001208046DFF870120A6832F4CD
:104220004052D4F8800002430A602078C00616D5B8
:10423000D4F89400B0F5807F08D1022114F1240055
:1042400000F0E2FB002801D001208046DFF80412D4
:104250000A6832F44072D4F8940002430A6020687D
:10426000000329D5D4F8A000002806D0B0F5803F7F
:1042700009D0B0F5003F0DD00DE00021201D00F069
:1042800035FB070009E0022114F1240000F0BCFB1B
:10429000070002E001E0012007003800C0B200285A
:1042A00009D1DFF8B0110A6832F44032D4F8A00026
:1042B00002430A6000E0B846206840032AD5D4F8DB
:1042C0008400B0F5801F06D0B0F5001F09D0B0F50E
:1042D000401F0DD00DE05D48016851F400310160D0
:1042E00009E0012114F1240000F08EFB070002E038
:1042F00001E0012007003800C0B2002809D1DFF832
:104300008C110A6832F44012D4F8840002430A6027
:1043100000E0B8462068C00321D5E06C002803D037
:10432000B0F5803F06D00BE04848016851F40031F9
:10433000016007E00221201D00F0D8FA070001E02B
:10434000012007003800C0B2002807D142490A689E
:1043500032F48032E06C02430A6000E0B846206824
:10436000800008D5022114F1240000F04DFB002844
:1043700001D0012080462068800325D5E06F002809
:1043800011D0B0F5807F06D0B0F5007F09D0B0F530
:10439000407F07D008E02D48016851F400310160EA
:1043A00004E003E002E001E0012007003800C0B2B1
:1043B000002808D1DFF8D4100A6832F44072E06FA8
:1043C00002430A6000E0B8462068C00206D52049D2
:1043D0000A6822F00042206F02430A602068C00091
:1043E00008D5DFF8A0100A6832F48042D4F8B4008F
:1043F00002430A602068800206D515490A6832F037
:104400008072A06E02430A60206840000AD5DFF87F
:104410007410086830F4004008600A68D4F8B800E6
:1044200002430A602068002806D50B490A6832F06A
:104430004052206D02430A604046C0B2002801D1BC
:10444000002000E00120BDE8F28300002C44025867
:1044500050440258584402584C44025800480258EC
:104460007044025880B501F08FF9DFF8B816DFF814
:10447000B8261268C2F30212895C11F01F01C8400D
:1044800002BD000010440258CFFFFF005444025800
:1044900030B4DFF84C140A6812F003020968C1F363
:1044A0000531DFF840341B68C3F30013DFF87C46A6
:1044B0002468C4F3CC0404FB03F401EE104AB8EE04
:1044C000411A002900F0EA80002A03D0022A70D0A5
:1044D0004FD38EE0DFF858462568AD0629D5DFF8C2
:1044E00008542468C4F3C104E54001EE905AB0EECC
:1044F000610AF8EE401A02EE101AB8EE422AC1EE36
:10450000821ADFF830462468E405E40D02EE104A12
:10451000B8EE422ADFED652AC1EE222A32EE222AC7
:10452000F7EE002A32EE222A61EE821AF0EE610ADC
:104530001EE001EE901AF8EE611A9FED5D2AC2EEC0
:10454000211ADFF8F0452468E405E40D02EE104A74
:10455000B8EE422ADFED552AC1EE222A32EE222A97
:10456000F7EE002A32EE222A61EE821AF0EE610A9C
:104570005EE001EE901AF8EE611A9FED4E2AC2EE4F
:10458000211ADFF8B0452468E405E40D02EE104A74
:10459000B8EE422ADFED452AC1EE222A32EE222A67
:1045A000F7EE002A32EE222A61EE821AF0EE610A5C
:1045B0003EE001EE901AF8EE611A9FEDC52AC2EEB8
:1045C000211ADFF870452468E405E40D02EE104A74
:1045D000B8EE422ADFED352AC1EE222A32EE222A37
:1045E000F7EE002A32EE222A61EE821AF0EE610A1C
:1045F0001EE001EE901AF8EE611A9FED2E2AC2EE2F
:10460000211ADFF830452468E405E40D02EE104A73
:10461000B8EE422ADFED252AC1EE222A32EE222A06
:10462000F7EE002A32EE222A61EE821AF0EE610ADB
:10463000DFF800452568C5F3462501EE905AF8EEEF
:10464000611AB7EE002A71EE821AC0EEA11AFCEED2
:10465000E11AC0ED001A2568C5F3064501EE905A2F
:10466000F8EE611AB7EE002A71EE821AC0EEA11AB6
:10467000FCEEE11AC0ED011A2468C4F3066401EEF1
:10468000904AF8EE611AB7EE002A71EE821AC0EE77
:10469000A11AFCEEE11AC0ED021A05E00024046044
:1046A000002444600024846030BC70470000004651
:1046B0000024744C0024744A30B489490A6812F00A
:1046C00003020968C1F30551864B1B68C3F300233D
:1046D000DFF864442468C4F3CC0404FB03F401EE63
:1046E000104AB8EE411A002900F0EA80002A03D0EF
:1046F000022A70D04FD38EE0DFF834442568AD062F
:1047000029D5DFF8E4512468C4F3C104E54001EE83
:10471000905AB0EE610AF8EE401A02EE101AB8EEA6
:10472000422AC1EE821ADFF814442468E405E40D3D
:1047300002EE104AB8EE422ADFED662AC1EE222AC6
:1047400032EE222AF7EE002A32EE222A61EE821A97
:10475000F0EE610A1EE001EE901AF8EE611A9FED8C
:104760005E2AC2EE211ADFF8D4432468E405E40D82
:1047700002EE104AB8EE422ADFED562AC1EE222A96
:1047800032EE222AF7EE002A32EE222A61EE821A57
:10479000F0EE610A5EE001EE901AF8EE611A9FED0C
:1047A0004F2AC2EE211ADFF894432468E405E40D91
:1047B00002EE104AB8EE422ADFED462AC1EE222A66
:1047C00032EE222AF7EE002A32EE222A61EE821A17
:1047D000F0EE610A3EE001EE901AF8EE611A9FEDEC
:1047E0003C2AC2EE211ADFF854432468E405E40DA4
:1047F00002EE104AB8EE422ADFED362AC1EE222A36
:1048000032EE222AF7EE002A32EE222A61EE821AD6
:10481000F0EE610A1EE001EE901AF8EE611A9FEDCB
:104820002F2AC2EE211ADFF814432468E405E40DB0
:1048300002EE104AB8EE422ADFED262AC1EE222A05
:1048400032EE222AF7EE002A32EE222A61EE821A96
:10485000F0EE610ADFF8E4422568C5F3462501EE73
:10486000905AF8EE611AB7EE002A71EE821AC0EE85
:10487000A11AFCEEE11AC0ED001A2568C5F3064541
:1048800001EE905AF8EE611AB7EE002A71EE821A24
:10489000C0EEA11AFCEEE11AC0ED011A2468C4F3BF
:1048A000066401EE904AF8EE611AB7EE002A71EE46
:1048B000821AC0EEA11AFCEEE11AC0ED021A05E060
:1048C00000240460002444600024846030BC7047ED
:1048D00020BCBE4B000000460024744C0024744AE7
:1048E000284402582C4402580090D0032DE9F84384
:1048F00005000C000026DFF84892D9F8000010F0FF
:104900000300032801D101207CE0DFF82482D8F8DD
:10491000000030F08060C8F80000FFF757F807008B
:10492000D8F80000000106D5FFF750F8C01B032897
:10493000F6D3032066E0D9F8000030F47C30296813
:1049400050EA0130C9F800006868401EC005C00D7B
:10495000A968491E490211F47E410843E968491ECD
:10496000090411F4FE0108432969491E090611F0E2
:10497000FE4108436F49086072490A6832F0C0027C
:10498000686902430A600A6832F02002A86902439B
:104990000A60086830F010000860644802686FF32D
:1049A000CF02EB6952EAC3020260086850F01000BF
:1049B0000860002C04D1086850F4002008600AE068
:1049C000012C04D1086850F48010086003E00868E6
:1049D00050F400100860D8F8000050F08060C8F86B
:1049E0000000FEF7F3FF8146D8F80000000107D46D
:1049F000FEF7ECFFB0EB09000328F5D3032001E03C
:104A00003000C0B2BDE8F2832DE9F84305000C0088
:104A10000026DFF82C91D9F8000010F003000328DD
:104A200001D101207CE0DFF80881D8F8000030F0E7
:104A30008050C8F80000FEF7C9FF0700D8F8000052
:104A4000800006D5FEF7C2FFC01B0328F6D3032063
:104A500066E0D9F8000030F07C70296850EA015017
:104A6000C9F800006868401EC005C00DA968491E4D
:104A7000490211F47E410843E968491E090411F412
:104A8000FE0108432969491E090611F0FE41084349
:104A90002A4908602B490A6832F440626869024377
:104AA0000A600A6832F40072A86902430A60086862
:104AB00030F480700860204802686FF3CF02EB6921
:104AC00052EAC3020260086850F480700860002C4B
:104AD00004D1086850F4800008600AE0012C04D179
:104AE000086850F40000086003E0086850F0807027
:104AF0000860D8F8000050F08050C8F80000FEF7B9
:104B000065FF8146D8F80000800007D4FEF75EFFFD
:104B1000B0EB09000328F5D3032001E03000C0B258
:104B2000BDE8F28368EF0008204402583C44025874
:104B30000044025838440258444402584044025841
:104B4000284402582C44025880B500F0B9F800F00F
:104B50002AF900F079FE00F00FF800F0B7FE00F03F
:104B600015FF00F093FF01F01CF901F0B9FA01F014
:104B7000CFFD01F0CBFE01BD38B59CB02021002255
:104B800001AC2000FDF72CF84C21002209AC2000DC
:104B9000FDF726F80025A548016831F00401016001
:104BA00000200090A248016849084900016000689F
:104BB00010F0010000909F48016851F440410160ED
:104BC000016811F440410091009901688904FCD505
:104BD000012009905FF480300A9000200C900020A2
:104BE0001090022012900220139005201490A02013
:104BF0001590022016900220189004201790002093
:104C00001A900820199009A801F0E6FE040020007F
:104C1000C0B2002803D09121874800F04DF83F2012
:104C2000019003200290002003900820049040206F
:104C30000590402006904FF4806007904020089037
:104C4000042101A800F04CFB05002800C0B2002898
:104C500003D0AC21784800F02FF87848016851F073
:104C6000800101607648016851F00201016000682E
:104C700010F002000090009800F016FE71480168E4
:104C800051F000510160016811F00051009100994C
:104C9000016851F080410160016811F0804100918C
:104CA0000099016851F000410160006810F0004077
:104CB000009000981DB030BD002900D0FEE770477D
:104CC000F8B500F0ACFA01208DF800005FF010504C
:104CD000019012208DF8080003208DF80B000020B1
:104CE0008DF80F0000208DF80E0000208DF80D00CB
:104CF00000208DF8010001208DF80A0000208DF8B9
:104D0000090000208DF80C00684600F0A1FA01208F
:104D10008DF800005FF0C04001900F208DF8080072
:104D200003208DF80B0001208DF80F0000208DF876
:104D30000E0000208DF80D0001208DF801000020EC
:104D40008DF80A0000208DF8090000208DF80C0075
:104D5000684600F07DFA01208DF800003A48019085
:104D60000D208DF8080003208DF80B0000208DF831
:104D70000F0000208DF80E0000208DF80D0002209D
:104D80008DF8010001208DF80A0000208DF809003F
:104D900000208DF80C00684600F05AFA042000F05C
:104DA00049FA05B000BD30B428490868800312D420
:104DB000BFF34F8FBFF36F8F0020254A1060BFF302
:104DC0004F8FBFF36F8F086850F400300860BFF357
:104DD0004F8FBFF36F8F0868C00325D400201D4B91
:104DE0001860BFF34F8F1C480368C3F34E34C3F3FE
:104DF000C900020043F6E07010EA441050EA8270E5
:104E0000164D28601000421E0028F3D12000441ED9
:104E10000028ECD1BFF34F8F086850F48030086051
:104E2000BFF34F8FBFF36F8F30BC70470C480258F1
:104E30002C0400581848025804EA0008004402589C
:104E4000F4440258DC44025800AC004014ED00E089
:104E500050EF00E084ED00E080ED00E060EF00E066
:104E600080B500F037FD00F05BFF01BD704700002A
:104E7000F8B504000025DFF818620868E84000284B
:104E800000F0F8800127D1F800C017FA05F010EA09
:104E90000C0C6246002A00F0EB804868012808D01C
:104EA0004868022805D04868112802D048681228AE
:104EB0001BD1D4F808C05FF0030E68001EFA00FE94
:104EC0003CEA0E0CD1F80CE068001EFA00FE5EEA27
:104ED0000C0CC4F808C06068AF40B8434F68C7F313
:104EE0000017AF40384303006360E7685FF0030CCE
:104EF00068001CFA00F08743D1F808E068001EFA49
:104F000000FE5EEA0707E7604868022802D04868AA
:104F100012281AD12800C00804EB8000006A0F2371
:104F20005FEA850E1EF01C0E13FA0EF398430B6910
:104F30005FEA850E1EF01C0E13FA0EF318430700ED
:104F40002800C00804EB80000762236868001CFA90
:104F500000FC33EA0C0391F804C01CF0030C680059
:104F60001CFA00FC5CEA030323604868C00040F1BF
:104F70007F80DFF82001076857F0020707600068AC
:104F800010F0020000900098DFF80C012F00BF081D
:104F900050F827705FF00F0C5FEA850E1EF00C0EC4
:104FA0001CFA0EFC37EA0C07DFF8F0C0644501D1AB
:104FB00000232FE0DFF8E8309C4201D1012329E0F3
:104FC000DFF8E0309C4201D1022323E0364B9C42C3
:104FD00001D103231EE0354B9C4201D1042319E08B
:104FE000334B9C4201D1052314E0324B9C4201D14A
:104FF00006230FE0304B9C4201D107230AE02F4BE0
:105000009C4201D1082305E02D4B9C4201D109238C
:1050100000E00A235FEA850C1CF00C0C13FA0CF379
:105020001F432B009B0840F82370306890434B6867
:10503000DB0300D510433060736893434F68BF03B0
:1050400000D5134373605FF0B04738689043D1F8E0
:1050500004C05FEACC2C00D510433860194F3B6880
:105060009343D1F804C05FEA8C2C00D513433B6016
:105070006D1C02E7F1BD1300DBB2002B03D00B0067
:105080009BB2836103E00B009BB21B0483617047FA
:1050900080000058F44402580804005800000258E8
:1050A0000004025800080258000C02580010025870
:1050B0000014025800180258001C02580020025820
:1050C000002402580400005810B410F00703DFF861
:1050D000D84122684FF6FF010A4052EA0322DFF866
:1050E000CC110A43226010BC7047DFF8BC01006895
:1050F000C0F3022070470000010009B2002909D462
:10510000012210F01F018A40694903001BB25B09AC
:1051100041F82320704710B4020012B2002A05D4CF
:105120000A01644B040024B21A5508E00A01624BDC
:10513000040024B214F00F04234403F8042C10BC20
:10514000704770B4030013F00704D4F1070005287A
:1051500001D3042001E0D4F10700251D072D01D261
:10516000002500E0E51E012616FA00F0401E014071
:10517000A94016FA05F56D1E2A401143080070BCBF
:105180007047BFF34F8F48490A6812F4E0624B48FA
:1051900002430A60BFF34F8F00BFFDE710B5040064
:1051A000601EB0F1807F01D301200EE0601E4449F3
:1051B00008600F215FF0FF30FFF7ADFF002041498D
:1051C0000860072040490860002010BD10B50400A9
:1051D0002000FFF779FF10BDF8B504000D001600A0
:1051E000FFF783FF0700320029003800FFF7A9FF0F
:1051F0000100200000B2FFF78EFFF1BD10B50400E2
:10520000200000B2FFF778FF10BD80B5FFF7B9FFAF
:1052100001BD10B504002000FFF7C0FF10BDBFF3B3
:105220005F8F2A48016831F48031016000202849ED
:105230000860704750F00101254A116023490A684F
:1052400052F480320A60BFF34F8FBFF36F8F704705
:105250004178204A1160017800291ED041681E4A19
:105260001160017BC27A120652EA0172817A52EA17
:10527000C142417B52EA8142817B52EA4142C17B79
:1052800052EA0142417A52EA0122017A52EA41028B
:1052900001780A4311490A6005E000210E4A1160B5
:1052A00000210E4A116070470CED00E00000FA0585
:1052B00000E100E000E400E018ED00E00400FA0581
:1052C00014E000E018E000E010E000E024ED00E071
:1052D00094ED00E098ED00E09CED00E0A0ED00E032
:1052E0002DE9F04104000D00002C01D101203DE129
:1052F000DFF81075386810F00F00A8420BD238683C
:105300000009000128433860386810F00F00A842F7
:1053100001D001202AE1207840070DD5DFF80015E3
:10532000086810F070002269904205D20A6832F0D5
:105330007002206902430A60207800070DD5DFF86B
:10534000E414086810F070006269904205D20A689F
:1053500032F07002606902430A602078C0060DD501
:10536000DFF8C014086810F4E060A269904205D22A
:105370000A6832F4E062A06902430A60207880067D
:105380000DD5DFF8A414086810F07000E2699042AF
:1053900005D20A6832F07002E06902430A602078A0
:1053A00080070DD5DFF87814086810F00F00E26868
:1053B000904205D20A6812091201E06802430A60AD
:1053C0002078C0074AD5DFF858140A6832F47062B2
:1053D000A06802430A606068022806D1DFF828044A
:1053E000006880031CD40120C0E06068032806D157
:1053F000DFF814040068800112D40120B6E0606870
:10540000012806D1DFF800040068C00508D4012097
:10541000ACE0DFF8F4030068400701D40120A5E008
:10542000DFF8E883D8F80010C908C90060680143B4
:10543000C8F80010FEF7CAFA0600D8F8000010F00D
:1054400038006168B0EBC10F08D0FEF7BFFA801BCF
:1054500041F289318842F0D3032087E02078800729
:105460000DD5DFF8BC13E0680A6812F00F02904215
:1054700005D20A6812091201E06802430A6038681E
:1054800010F00F0085420BD2386800090001284354
:105490003860386810F00F00A84201D0012065E0A4
:1054A000207840070DD5DFF8781320690A6812F0DC
:1054B0007002904205D20A6832F0700220690243FD
:1054C0000A60207800070DD5DFF8581360690A6874
:1054D00012F07002904205D20A6832F070026069E0
:1054E00002430A602078C0060DD5DFF83813A069A2
:1054F0000A6812F4E062904205D20A6832F4E0626F
:10550000A06902430A60207880060DD5DFF81813E1
:10551000E0690A6812F07002904205D20A6832F01F
:105520007002E06902430A6000F022F80700DFF829
:105530000C13DFF8EC020268C2F303228A5C12F05B
:105540001F02D740006810F00F00085C10F01F0029
:105550003900C140DFF8C0020160DFF8B80207601F
:10556000DFF8B802006801F07FFDC0B2BDE8F0814D
:1055700010B4DFF89802006810F03800002806D058
:10558000082813D0102814D0182815D0F9E0DFF817
:1055900078422068800606D5DFF874022468C4F3D8
:1055A000C104E04001E0DFF86802EBE0DFF89002C0
:1055B000E8E0DFF89002E5E0DFF87002046814F03C
:1055C000030422000068C0F305100100DFF8600248
:1055D000006810F001000300DFF85C020068C0F30F
:1055E000CC0000FB03F002EE100AB8EE422AB0EE47
:1055F000421A002900F0C380002A03D0022A6FD08B
:105600004FD38CE0DFF800020468A40629D5DFF848
:1056100000420068C0F3C100C44002EE104AF0EE40
:10562000420AB8EE602A02EE901AF8EE622A82EE82
:10563000222ADFF800020068C005C00D02EE900AC1
:10564000F8EE622A9FED6B3A81EE033A72EE832AFE
:10565000B7EE003A72EE832A22EE222AF0EE421AC8
:105660001EE002EE101AB8EE422ADFED632A82EE47
:10567000822ADFF8C0010068C005C00D02EE900A62
:10568000F8EE622A9FED5B3A81EE033A72EE832ACE
:10569000B7EE003A72EE832A22EE222AF0EE421A88
:1056A0005BE002EE101AB8EE422ADFED542A82EED9
:1056B000822A60480068C005C00D02EE900AF8EE2C
:1056C000622A9FED4C3A81EE033A72EE832AB7EEDE
:1056D000003A72EE832A22EE222AF0EE421A3CE0D1
:1056E00002EE101AB8EE422ADFED452A82EE822A37
:1056F00050480068C005C00D02EE900AF8EE622A1C
:105700009FED3C3A81EE033A72EE832AB7EE003AFF
:1057100072EE832A22EE222AF0EE421A1DE002EEF9
:10572000101AB8EE422ADFED352A82EE822A41486D
:105730000068C005C00D02EE900AF8EE622A9FEDE7
:105740002D3A81EE033A72EE832AB7EE003A72EEFA
:10575000832A22EE222AF0EE421A36480068C0F36D
:105760004620401C02EE100AB0EE420AB8EE402A73
:1057700081EE822ABCEEC22A12EE100A00E000205E
:1057800000E02F4810BC704780B5FFF7F1FE010024
:1057900023482A4A0368C3F30323D35C13F01F038F
:1057A000D9401D4B006810F00F00105C10F01F0076
:1057B0000A00C2401A6017480160186802BD80B52F
:1057C000FFF7E2FF1D49174A1268C2F30212895C13
:1057D00011F01F01C84002BD80B5FFF7D5FF174982
:1057E000104A1268C2F30222895C11F01F01C840FE
:1057F00002BD0000000000460024744C0024744ADE
:1058000020BCBE4B002000520044025810440258F5
:105810000090D003D4030024D8030024D003002434
:10582000184402581C440258204402582844025884
:105830002C440258304402583444025868EF00089F
:1058400000093D0040787D0110B50320FFF7BEFC44
:10585000FFF78EFE0400DFF85C00DFF85C100268E2
:10586000C2F303228A5C12F01F02D440006810F0D9
:105870000F00085C10F01F002100C140DFF83C0061
:105880000160DFF83C0004600F2001F0EDFB002810
:1058900001D0012002E001F013FC002010BDDFF870
:1058A00024000068000C70470748016851F00101AE
:1058B000016070471844025868EF0008D8030024BC
:1058C000D40300240010005C2004005800202C4960
:1058D000087370471CB52A4C2078002805D0A08892
:1058E000002802D0207B012800D148E06078002801
:1058F00019D1A088002842D02089401C208120890D
:10590000618888423BD30020019040F2DC50009037
:1059100001231C4A01211C4801F0FFFD00202081C9
:10592000012060702BE06078012828D12089401C7C
:1059300020812089A188884221D3E08800280ED0C8
:105940006089401C60816089E188884201D3002021
:1059500020702078002802D10020A0800FE00020D5
:1059600020810020607041F28830019040F2DC50CC
:1059700000900123034A0121034801F0CEFD13BD2D
:1059800048190024000C0040000002580648016835
:1059900051F08071016000200449086004480168EA
:1059A00051F0010101607047FCED00E0041000E0DF
:1059B000001000E010B40100DFF854030A00D2B276
:1059C00050F8322012690B00DBB200EBC3039B8856
:1059D0001A4201D1002200E0012213000C00E4B2BF
:1059E00000EBC4008079DBB2834201D1012000E0EA
:1059F000002010BC7047F8B504002000C0B2082891
:105A00001EDA0026FF2700252800C0B2082809DA80
:105A10002800C0B2FFF7CEFF002801D0761C2F006F
:105A20006D1CF1E73000C0B2012807D13800210019
:105A3000C0B2C9B2884201D1012026E0002024E092
:105A40002000C0B208280DD10020FFF7B3FF0028C6
:105A500006D00120FFF7AEFF002801D0012014E09E
:105A6000002012E02000C0B209280DD10120FFF76C
:105A7000A1FF002806D00220FFF79CFF002801D0DC
:105A8000012002E0002000E00020F2BD80B500F01F
:105A900051F800F001F801BD10B586B0DFF87402CE
:105AA000016851F002010160016811F002010091EA
:105AB0000099016851F004010160016811F00401CE
:105AC00000910099016851F040010160016811F0F6
:105AD000400100910099016851F080010160016866
