:020000040800F2
:10000000380B0024390300084D0300084F03000893
:1000100051030008530300085503000800000000C6
:10002000000000000000000000000000570300086E
:1000300059030008000000005B0300085D0300088E
:100040005F0300085F0300085F0300085F03000808
:100050005F0300085F0300085F0300085F030008F8
:100060005F0300085F0300085F0300085F030008E8
:100070005F0300085F0300085F0300085F030008D8
:100080005F0300085F0300085F0300085F030008C8
:100090005F0300085F0300085F0300085F030008B8
:1000A0005F0300085F0300085F0300085F030008A8
:1000B0005F0300085F0300085F0300085F03000898
:1000C0005F0300085F0300085F0300085F03000888
:1000D0005F030008F50300085F0300085F030008E2
:1000E0005F0300085F030008000000005F030008D2
:1000F0005F0300085F0300085F0300085F03000858
:100100005F0300085F0300085F0300085F03000847
:100110005F0300085F0300085F0300085F03000837
:100120005F0300085F0300085F0300085F03000827
:100130005F0300085F0300085F0300085F03000817
:100140005F0300085F0300080000000000000000DB
:100150005F0300085F0300085F0300085F030008F7
:100160005F0300085F0300085F0300085F030008E7
:100170005F0300085F0300085F0300080000000041
:100180005F0300085F0300085F0300085F030008C7
:100190005F0300085F0300085F0300085F030008B7
:1001A0005F0300085F0300085F0300085F030008A7
:1001B0005F0300085F0300085F0300085F03000897
:1001C0005F0300085F0300085F0300085F03000887
:1001D0005F0300085F0300085F0300085F03000877
:1001E0005F0300085F0300085F0300085F03000867
:1001F0005F0300085F0300085F0300085F03000857
:100200005F0300085F0300085F0300085F03000846
:100210005F0300085F0300085F0300085F03000836
:100220005F0300085F0300085F0300085F03000826
:100230005F0300085F0300085F0300085F03000816
:100240005F0300085F0300085F0300085F03000806
:100250005F0300085F0300085F0300085F030008F6
:100260005F0300085F0300085F0300085F030008E6
:100270005F0300085F0300085F0300085F030008D6
:100280005F0300085F0300085F0300080000000030
:100290005F0300085F03000800F002F800F03CF87C
:1002A0000AA090E8000C82448344AAF10107DA45D1
:1002B00001D100F031F8AFF2090EBAE80F0013F0E7
:1002C000010F18BFFB1A43F001031847340B00005D
:1002D000540B0000103A24BF78C878C1FAD85207EE
:1002E00024BF30C830C144BF04680C6070470000B0
:1002F0000023002400250026103A28BF78C1FBD82F
:10030000520728BF30C148BF0B6070471FB500F0CF
:1003100071FD1FBD10B510BD00F039F81146FFF793
:10032000F5FF00F093F900F057F803B4FFF7F2FF80
:1003300003BC00F0A5F80000DFF83000016841F4CC
:1003400070010160BFF34F8F09480047FEE7FEE7E9
:10035000FEE7FEE7FEE7FEE7FEE7FEE7FEE7FEE775
:1003600004480549054A064B7047000088ED00E047
:100370009902000838010024380B002438030024B7
:1003800038030024704770477047704770477546C0
:1003900000F02CF8AE4605006946534620F00700F1
:1003A000854618B020B5FFF7DBFFBDE820404FF0D1
:1003B00000064FF000074FF000084FF0000B21F04F
:1003C0000701AC46ACE8C009ACE8C009ACE8C0091C
:1003D000ACE8C0098D46704710B50446AFF3008005
:1003E0002046BDE81040FFF7A0BF0000004870475E
:1003F000D40000241F49C96901F0200109B31D4937
:10040000496AC8B21C49098801F40041C9B91A49AE
:10041000098801F4804161B10A2803D00021164AFD
:10042000118020E01449098841F40041124A1180EA
:1004300019E00D2806D11049098841F480410E4A7F
:10044000118010E00C490988C1F30D010B4A50548A
:1004500009490988491C084A118011460988C72999
:1004600001DD002111800349096A41F00801014AB8
:100470001162704700100140080000240C000024A5
:1004800000BF70474FF0E021096941F004014FF0CF
:10049000E0221161054908601146096941F0010136
:1004A00011616FF07F41516170470000000000242E
:1004B00010B504464FF47A7104FB01F000F002F825
:1004C00010BD000070B5034600224FF0E0267569AC
:1004D0000D4E366803FB06F44FF0E026B16910E0DC
:1004E0004FF0E026B06988420BD0884202D20E1A43
:1004F000324402E02E1A0E4432440146A24200D396
:1005000000E0EDE700BF70BD000000241CB500BF97
:100510001148006840F001000F49086000BF00BFAB
:100520000846006840F00100086000BF0220012179
:1005300000231A46CDE90010C101084800F0ACFBC9
:100540000220012100231A46CDE9001004210348AE
:1005500000F0A2FB1CBD0000E0440258000002585D
:1005600070B50446002514B101201C4908701B48D1
:10057000007810B34FF48071194800F079FB01281E
:1005800005D00421164800F073FB012815D10A207C
:10059000FFF78EFF0020114908704FF4807110485A
:1005A00000F066FB012800D1012504210C4800F071
:1005B0005FFB01280FD102250DE04FF48071084840
:1005C00000F056FB38B90421054800F051FB10B982
:1005D000012002490870284670BD00000A0000246E
:1005E000000002581CB500BF1548006840F001002B
:1005F0001349086000BF00BF0846006840F00200D1
:10060000086000BF012000900023024608210190ED
:100610000C4800F041FB012000900023024602211B
:100620000190094800F038FB01220821054800F03C
:1006300027FB01220221044800F022FB1CBD000020
:10064000E044025800000258000402580423022229
:100650000521C02000F080FB4FF4F070FFF712FF7F
:10066000FFF7C0FFFFF752FF00220821154800F0F6
:1006700007FB25E00020FFF773FF0446ECB1012CD7
:1006800002D0022C18D10BE000BF0E48406980F068
:1006900008000C49486100BF6420FFF709FF0BE028
:1006A00000BF0948006880F002000749086000BFE9
:1006B0006420FFF7FDFE00BF02E00A20FFF7F8FE0E
:1006C000D8E70000000002581404025810B500BF1B
:1006D0004C48006800F4003000B139E000BF00BFB2
:1006E00000BFBFF34F8F00BF00BF00BF00BF00BF00
:1006F00000BFBFF36F8F00BF00BF00BF00204249A3
:10070000086000BF00BF00BFBFF34F8F00BF00BF36
:1007100000BF00BF00BF00BFBFF36F8F00BF00BFAF
:1007200000BF3848006840F400303649086000BF18
:1007300000BF00BFBFF34F8F00BF00BF00BF00BFAF
:1007400000BF00BFBFF36F8F00BF00BF00BF00BF7F
:1007500000BF2C4B1B6803F4803303B148E0002337
:10076000284C7034236000BF00BF00BFBFF34F8F21
:1007700000BF00BF00BF231F1868C0F34E3100BF89
:10078000C0F3C90200BF43F6E07303EA41134FF020
:10079000404404EA827423431B4C1034236000BF9E
:1007A00000BF131EA2F10102EDD10B1EA1F1010148
:1007B000E6D100BF00BF00BFBFF34F8F00BF00BF37
:1007C00000BF104B1B6843F480330E4C236000BF06
:1007D00000BF00BFBFF34F8F00BF00BF00BF00BF0F
:1007E00000BF00BFBFF36F8F00BF00BF00BF00BFDF
:1007F00005484C30006840F0040003494C31086063
:1008000010BD000014ED00E050EF00E02DE9F041D4
:1008100004460D4616460021002200200027DFF87E
:1008200040C4DCF800C02CF4404CDFF83484C8F835
:1008300000C0C446DCF800C04CF4404CC8F800C00E
:10084000DFF820C4DCF800C04CF0020CDFF81484A0
:10085000C8F800C0DFF810C4DCF800C04CF0010C90
:10086000DFF80484C8F800C000BFDFF8F4C3DCF888
:1008700000C00CF4005CBCF1000FF6D0DFF8E4C35C
:10088000ACF1F40CDCF800C04CF4803CDFF8D4830D
:10089000A8F1F408C8F800C000E0491CDFF8C4C3A0
:1008A000ACF1F40CDCF800C00CF4003CBCF1000F1F
:1008B00003D147F6FF7C6145EFD347F6FF7C6145E6
:1008C00001D10120C9E1DFF89CC3ACF1CC0CDCF80C
:1008D00000C04CF0020CDFF88C83A8F1CC08C8F8FB
:1008E00000C0C446DCF800C04CEA051CC8F800C0D3
:1008F000DFF870C3ACF1C40CDCF800C06FF3080C77
:10090000DFF86083A8F1C408C8F800C0C446DCF86A
:1009100000C0A4F101084CEA080CDFF84883A8F1F4
:10092000C408C8F800C0C446DCF800C02CF47E4CF3
:10093000C8F800C0C446DCF80080A6F1010C48EA03
:100940004C2CDFF82083A8F1C408C8F800C0C446C6
:10095000DCF800C02CF4FE0CC8F800C0C446DCF87B
:100960000080A3F1010C48EA0C4CDFF8F882A8F1F2
:10097000C408C8F800C0C446DCF800C02CF0FE4C27
:10098000C8F800C0C446DCF800C04CF0807CC8F851
:1009900000C0A8F1040CDCF800C04CF0080CA8F171
:1009A0000408C8F800C0C446DCF800C0C8F800C09D
:1009B000C446DCF800C04CF4403CC8F800C0DFF886
:1009C000A4C2ACF1F40CDCF800C04CF0807CDFF881
:1009D0009482A8F1F408C8F800C0002105E0491C81
:1009E000B1F5001F01D302200AE0DFF878C2ACF1B4
:1009F000F40CDCF800C00CF0007CBCF1000FEED071
:100A000000BFDFF860C2ACF1CC0CDCF800C04CF4E5
:100A1000C83CDFF85082A8F1CC08C8F800C0DFF865
:100A200044C2ACF1BC0CDCF800C06FF3080CDFF87A
:100A30003482A8F1BC08C8F800C0C446DCF800C085
:100A400040F2B7184CEA080CDFF81882A8F1BC088D
:100A5000C8F800C0C446DCF800C02CF47E4CC8F8CE
:100A600000C0C446DCF800C04CF4007CC8F800C0EC
:100A7000C446DCF800C02CF0FE4CC8F800C0C446E8
:100A8000DCF800C04CF0807CC8F800C0DFF8D4C1AE
:100A9000ACF1C80CDCF800C0DFF8C881A8F1C808C8
:100AA000C8F800C0C446DCF800C0C8F800C0C4469E
:100AB000DCF800C04CF4002CC8F800C0C446DCF8D8
:100AC00000C04CF4001CC8F800C0DFF898C1ACF1BD
:100AD000A80CDCF800C02CF0030CDFF88881A8F12A
:100AE000A808C8F800C0C446DCF800C04CF0020CEE
:100AF000C8F800C0DFF86CC1ACF1F40CDCF800C041
:100B00004CF0806CDFF85C81A8F1F408C8F800C0F4
:100B1000002105E0491CB1F5001F01D303200AE0C4
:100B2000DFF840C1ACF1F40CDCF800C00CF0006C54
:100B3000BCF1000FEED000BFDFF828C1ACF1DC0C37
:100B4000DCF800C04CF0080CDFF81881A8F1DC08D4
:100B5000C8F800C0C446DCF800C0C8F800C0DFF820
:100B600004C1ACF1E40CDCF800C04CF0030CDFF87D
:100B7000F480A8F1E408C8F800C000210DE0DFF817
:100B8000E4C0ACF1E40CDCF800C0CCF3C207491CB3
:100B9000B1F5001F01D3042001E0032FEFD100BF06
:100BA000DFF8C8C0DCF8002022F00F0242F0040297
:100BB00022F0300242F02002CCF80020DFF8A4C07E
:100BC000ACF1DC0CDCF800C04CF0400CDFF8948099
:100BD000A8F1DC08C8F800C008F1040CDCF800C07B
:100BE0004CF0400C08F10408C8F800C0C446DCF81A
:100BF00000C04CF4806CC8F800C008F1040CDCF8AC
:100C000000C04CF0400C08F10408C8F800C0DFF840
:100C100054C0ACF1F40CDCF800C04CF0800CDFF8F0
:100C20004480A8F1F408C8F800C0DFF838C0DCF848
:100C300000C04CF0020CDFF82C80C8F800C0DFF8D0
:100C400028C0ACF10C0CDCF800C04CF0010CDFF853
:100C50001880A8F10C08C8F800C0BDE8F0810000B9
:100C600018480258F44402582C040058002000523E
:100C700002461069084008B1012070470020FCE7D7
:100C800002F001031BB183690B43836103E08369B5
:100C900043EA0143836170472DE9F04704460D465E
:100CA000DDE9087C00210026884600BF48E04FF0BF
:100CB000010909FA01F605EA0608B0453FD12068A6
:100CC0004FEA410A4FF0030909FA0AF920EA09003C
:100CD0004FEA410902FA09F949EA00002060012AB5
:100CE00001D0022A1BD1A0684FEA410A4FF0030944
:100CF00009FA0AF920EA09004FEA410907FA09F955
:100D000049EA0000A06060684FF0010909FA01F9A2
:100D100020EA090003FA01F949EA00006060E0688E
:100D20004FEA410A4FF0030909FA0AF920EA0900DB
:100D30004FEA410A0CFA0AF949EA0000E060491C4E
:100D40001029B4D3BDE8F0874A0A52020243014B8E
:100D50001A60704708ED00E0F0B504460D461646EF
:100D60001F462048006820F004001E49086008461D
:100D7000006840F00200086000BF1A4808380068A8
:100D800000F400500028F8D0012017490860002026
:100D9000154910310860144918310860091D0860B0
:100DA000091D0860104928310860091D08600E49B6
:100DB000603108600D4800686FF30F00B0F1005F0C
:100DC00002D201200A4908603B46324629462046A5
:100DD000FFF71CFDFFF77AFC00214FF00060FFF7E2
:100DE000B3FFF0BD0C480258004402580010005CEC
:100DF000088100514FF04070E1EE100A704700008A
:100E0000200E0008000000240C000000D40200089E
:100E10002C0E00080C0000242C0B0000F00200082F
:0C0E2000000000000000000000000100C5
:040000050800029954
:00000001FF
