:020000040800F2
:10000000480D002465030008595E0008B35D000830
:10001000B95D0008F91600084173000800000000EF
:10002000000000000000000000000000D161000896
:10003000691C0008000000005B5E0008D361000836
:100040008303000883030008830300088303000878
:100050008303000883030008830300088303000868
:100060008303000883030008830300088303000858
:100070008303000883030008830300088303000848
:100080008303000883030008830300088303000838
:100090008303000883030008830300088303000828
:1000A0008303000883030008830300088303000818
:1000B0008303000883030008830300088303000808
:1000C00083030008830300088303000883030008F8
:1000D00083030008317300088303000883030008CA
:1000E0008303000883030008000000008303000866
:1000F00083030008830300088303000883030008C8
:1001000083030008830300088303000883030008B7
:1001100083030008830300088303000883030008A7
:100120008303000883030008830300088303000897
:100130008303000883030008830300088303000887
:100140008303000883030008000000000000000093
:100150008303000883030008830300088303000867
:100160008303000883030008830300088303000857
:1001700083030008830300088303000800000000D5
:100180008303000883030008830300088303000837
:100190008303000883030008830300088303000827
:1001A0008303000883030008830300088303000817
:1001B0008303000883030008830300088303000807
:1001C00083030008830300088303000883030008F7
:1001D00083030008830300088303000883030008E7
:1001E00083030008830300088303000883030008D7
:1001F00083030008830300088303000883030008C7
:1002000083030008830300088303000883030008B6
:1002100083030008830300088303000883030008A6
:100220008303000883030008830300088303000896
:100230008303000883030008830300088303000886
:100240008303000883030008830300088303000876
:100250008303000883030008830300088303000866
:100260008303000883030008830300088303000856
:100270008303000883030008830300088303000846
:1002800083030008830300088303000800000000C4
:10029000830300088303000800F002F800F052F81E
:1002A0000AA090E8000C82448344AAF10107DA45D1
:1002B00001D100F047F8AFF2090EBAE80F0013F0D1
:1002C000010F18BFFB1A43F001031847F8E00000C4
:1002D00018E10000103A24BF78C878C1FAD8520754
:1002E00024BF30C830C144BF04680C6070470000B0
:1002F0000023002400250026103A28BF78C1FBD82F
:10030000520728BF30C148BF0B60704766290AF00A
:10031000B487642900F00C81782900F045817329A5
:1003200000F0D984002070471FB50AF0A1FF00F04B
:10033000E9FC0400002000210AF084FFE0601FBDFA
:1003400010B510BD00F0E2FD1146FFF7EDFF09F01A
:100350001DFA00F000FE03B4FFF7F2FF03BC07F044
:100360002CF800000A4880470A4880470A4800479E
:10037000FEE7FEE7FEE7FEE7FEE7FEE7FEE7FEE755
:10038000FEE7FEE705480649064A074B70470000AE
:100390006D1C0008DD610008990200084803002474
:1003A000480D00244805002448050024704753EAFE
:1003B000020C00F069802DE9F04B4FF00006002B95
:1003C0001FBFB3FA83F503FA05F424FA05F65E407D
:1003D00012BF1643B2FA82F502FA05F4C5F1200500
:1003E0001EBF22FA05FC44EA0C04203556EA044CF0
:1003F0004FEA144418BF641C4FF000084FF0000986
:10040000904271EB030C39D3002919BFB1FA81F77F
:1004100001FA07F6B0FA80F700FA07F6C7F12007ED
:100420001EBF20FA07FC46EA0C062037B6FBF4FC98
:10043000A7EB0507103F07F01F0BCBF120060CFAC6
:100440000BFB2CFA06F644BFB3460026202FA4BFB0
:100450005E464FF0000B5BEA060C08BF4FF0010B45
:1004600019EB0B09ABFB027C48EB0608C01B06FB33
:1004700002CC0BFB03CC71EB0C01C1E70B4602462F
:1004800041464846BDE8F08B13B54FF000004FF0F1
:100490000001AFF30080BDE81C4070470FB4044971
:1004A00010B503AA029800F01BFC10BC5DF814FB09
:1004B0000C0000240FB41CB5074B06AA7B44694608
:1004C0000090059800F0DDFB0020694600F0ECFB91
:1004D0001CBC5DF814FB0000E907000070B50C4679
:1004E0000546012A05D02878800600D5EA69002350
:1004F00002E0012305E05B1C934202D2E05C00288D
:10050000F9D1A869E618C01AA861286A18442862B7
:100510002846AFF3008004E0D5E9012114F8010B6F
:100520009047B442F8D32846AFF3008070BD000076
:100530002DE9F0410646002410687529314616A5BC
:1005400010D0AFF30080002802DA404213A507E084
:1005500031688A0701D512A502E0490704D511A523
:10056000012401E0AFF3008000210A2206F12407F4
:1005700009E0B0FBF2FCB0FBF2F302FB1C003030F0
:1005800078541846491C0028F3D123462A463046A1
:10059000BDE8F04100F008B9000000002D000000A7
:1005A0002B0000002000000070B504460D462146D7
:1005B0001068AFF300802188090502D50F4A7A44FC
:1005C00002E00E4A7A440E32002104F1240305E0D1
:1005D00000F00F060009965D5E54491C0028F7D113
:1005E00020780023000704D5702D02D009B1022322
:1005F00011322046BDE8704000F0D6B8B8DC0000EB
:100600002DE9F05F894604464FF0000ADFF824B177
:10061000FB44C0F820A02046E168884700287DD030
:10062000252806D0D4E901219047206A401C206289
:10063000F1E700255F462046E16888472028064606
:1006400007DB312E05D2B81910F8200C08B105438C
:10065000F1E7A80701D525F00405C4F81CA0002780
:10066000C4F818A02A2E09D0304606F09FFE38B3F1
:1006700004EB8708303EC8F8186019E059F8041BED
:10068000204604EB87029161E1688847012F064606
:1006900018D1E069002820DA25F020051DE0D8F8FF
:1006A000180000EB800006EB40003038C8F8180056
:1006B0002046E1688847064606F078FE0028EED11D
:1006C000012F0AD02E2E08D12046E16888477F1CD2
:1006D0000646022F45F02005C4DBA069002803DA96
:1006E000404245F00105A061E80701D025F0100562
:1006F000A6B1A6F14100192802D8203645F40065BC
:100700004A463146204625604D46FFF7FFFD60B161
:10071000012807D0ED1D25F0070000E007E000F1FB
:10072000080978E705F1040975E730467AE7206A99
:10073000BDE8F09F8EDC00004FF0013C50F8042B28
:1007400051F8043B9A4215D1A2EB0C03934313EAF0
:10075000CC130BD150F8042B51F8043B9A4209D129
:10076000A2EB0C03934313EACC13E7D04FF0000045
:10077000704700BFD01A01BAB1FA81F101F0180137
:1007800022FA01F0CB40C1F12001DBB2C0B2C01AA5
:100790002CFA01F3D11A914311EAC311E6D1704743
:1007A00070477047704770472DE9F0470D469946EE
:1007B0009246044600F124080168880604D5E069E1
:1007C00021F01001216000E00120A84201DD471B5B
:1007D00000E00027A1697A1902EB0900081AA0615C
:1007E0002078C00602D42046AFF30080002608E03F
:1007F000D4E901211AF806009047206A401C761CB3
:1008000020624E45F4DB2078C0060AD52046AFF3BF
:10081000008006E0D4E9012130209047206A401C86
:100820002062381EA7F10107F4DC07E0D4E90121BA
:1008300018F805009047206A401C2062281EA5F188
:100840000105F3DC2046AFF300802078000602D5D6
:100850000220BDE8F0870120FBE770472DE9FF4F3C
:100860000C461E464FF0FF378BB0D2E90001DDF891
:1008700060800A908A46C1F30A5505B93D460021B9
:1008800008464FF00000BAF1000F00F4400005DA0E
:1008900000EB80004FF4400101EA50004FEA90590C
:1008A000B9F1010F00DDB9460A9850EA4A000ED0AE
:1008B00044F61050A5F2FF3545432F14B8F1000F50
:1008C0001ED07542291E1EDDC9F100021CE0B8F1E0
:1008D000010F4FF0000001D0302103E0F24305E0AA
:1008E0002154401CB042FBDB304600220021215441
:1008F0000B99C1F80880C1E900200FB0BDE8F08F66
:10090000BD1B6D1CDEE74A4600DA694206A800F00E
:1009100083FA06AB93E8070003AB83E80700504671
:100920000A9900F021FB8DE80700A0F500501F3860
:1009300000900398002D0ADD42F21F014A46084448
:10094000002303A90390684600F08AFD09E0A0F5A2
:1009500000504A461F38002303A90390684600F060
:1009600094FD8DE807000004000C03D04FF0FF3029
:10097000410800E01046B8F1000F03D000220092B9
:1009800015461EE0751E05D400F0C0F930326255E0
:100990006D1EF9D5B3460122084302D000227F1C08
:1009A00004E02078302801D100227F1E002A099718
:1009B00084D01DE0112D07DA00F0A8F9303262551D
:1009C0006D1C50EA0102F5D1084302D00098C8B16D
:1009D0000EE00021681E05E0235C625C6354225433
:1009E000401E491C8142F7DBAB46A81B401E099004
:1009F000002004F80B000B98099AC0F80880C0E9A1
:100A0000002B7AE711264FF0000857E72DE9F04F49
:100A100088460446D21D22F0070191B0D1E90001B9
:100A2000CDE90A0106F08EFC02460B98C00F01D0FA
:100A30002D2007E02068810701D52B2002E020212E
:100A400001EAC000032A099001D0072A05DB03460A
:100A50004146204600F0A0F90BE12078800601D540
:100A6000E06900E00620B8F1650F814606D0B8F1D4
:100A7000660F18D0B8F1670F70D131E00020B9F1DE
:100A8000110F009001DB112301E009F101030AAA13
:100A900001A90CA8FFF7E2FEDDE90C70002609F1C0
:100AA0000105834647E001204B4600904FF0004788
:100AB0000AAA01A90CA8FFF7D1FEDDE90DB00C9937
:100AC0005D46002610B909F101000D18B9EB0500CB
:100AD00003D4C0F1FF3609F10105A5EB09002BE0B5
:100AE000B9F1010F01DA4FF001090020B9F1110F3E
:100AF0000090484601DD112300E003460AAA01A93F
:100B00000CA8FFF7ABFEDDE90C704D4600268346CE
:100B1000207800070AD4AB4500DA5D4601A8012D14
:100B200004DD411911F8011C302907D04F4502DAC4
:100B300017F1040F04DA012082460FE06D1EEEE784
:100B4000002F02DCED1B3E4403E0781CA84200DDD0
:100B50007D1CB81B00F1010A4FF000472078000708
:100B600003D4AA4501DB4FF0FF3A0021B7F1004F53
:100B70000DF143088DF8431024D002202B23002FC1
:100B800001DA7F422D230A21021EA0F1010000DCC0
:100B90005FB197FBF1FC97FBF1F201FB1C7C174660
:100BA0000CF1300C08F801CDEEE7A8F1010003705C
:100BB0002188090501D5452100E06521A0F1010842
:100BC00000F8011C09980FA9A1EB0807FF1D00B14F
:100BD0000120411901EBEA70A1693844081A401E4E
:100BE000A0612078C00602D42046AFF300800998A7
:100BF00028B1D4E901219047206A401C2062207866
:100C0000C00622D52046AFF300801EE0002E04DB94
:100C1000B34502DD01A8805D00E03020D4E9012168
:100C20009047206A401C2062761CAAF101005FEA0E
:100C3000000A0AD100F066F8C0680168405CD4E997
:100C400001219047206A401C2062281EA5F1010561
:100C5000DCDC07E0D4E9012118F8010B9047206A99
:100C6000401C2062381EA7F10107F3DC2046AFF3D9
:100C70000080032011B041E601694A1C0261087836
:100C8000704700B58FB0CDE90131002105910549CC
:100C90007944CDE9031011466846FFF7B1FC0FB067
:100CA00000BD0000E5FFFFFF0A6802F8010B0A60C3
:100CB000704710B5436913B1AFF3008001E0FFF74F
:100CC0000DFC012010BD127800F124010A700022F1
:100CD0004A700122EDE711684FF0FF32E9E70000AA
:100CE000074B70B50D467B44FFF7CBFF0446284603
:100CF00000F004F910B14FF0FF3070BD204670BD18
:100D00009B6C0000004870470403002430B5B0F12C
:100D10000A024FEA900E71F100034EEA817EB0EBB9
:100D20000E0061EB91014FEA101E4EEA017E10EBBE
:100D30000E0041EB11114FEA102E4EEA016E10EB3E
:100D40000E0041EB11214FEA104E4EEA014E10EB1E
:100D50000E0041EB1141401841F100014FEAD00073
:100D600040EA41704FEAD10110EB80054FEA81045F
:100D700044EA907444EB01046D1944EB0404521BE3
:100D8000A3414FF0000348BF0A3200D530BD401CDC
:100D900041F1000130BD00002DE9F0411F4604463D
:100DA00003260168072A01F4006004DB08B116A5D8
:100DB00005E016A503E008B115A500E015A521F092
:100DC00010002060A069C01EA0610FB1401EA0618C
:100DD0002046AFF300804FB1D4E901213846904757
:100DE000206A401C2062C01C206206E0206AFAE7EC
:100DF000D4E9012115F8010B9047761EF8D2204660
:100E0000AFF30080BDE8F0814E414E006E616E0090
:100E1000494E4600696E66002DE9F0478146164648
:100E20008AB0354878440DC88DE80D0032487844C2
:100E3000801C03AC0DC884E80D0041F69B300844CB
:100E4000372190FBF1F290FBF1F5A5F1800501FB54
:100E500012041B3C02D56442012000E00020DFF8B0
:100E600098A080460027FA44AAF1BE0A0EE0E007E7
:100E70000AD03246684607EB470101230AEB81019D
:100E800000F003FB8DE8070064107F1C002CEED1FE
:100E9000194F7F44AE3F19E0E80715D007EB041067
:100EA0000DF1180A90E80E008AE80E00C068F042C2
:100EB00001D1981908903246012306A903A800F031
:100EC000E4FA03AB83E807006D10641C002DE3D146
:100ED0004FF0010332466946B8F1000F03A802D073
:100EE00000F0BEFA01E000F0D0FAC9E90001C9F84B
:100EF00008200AB0BDE8F08708D50000007B00F0AC
:100F00008000704700487047E40200247546FFF7F0
:100F1000F9FFAE4605006946534620F007008546B6
:100F200018B020B5FFF72EFABDE820404FF00006BC
:100F30004FF000074FF000084FF0000B21F00701C1
:100F4000AC46ACE8C009ACE8C009ACE8C009ACE804
:100F5000C0098D46704710B50446AFF300802046A7
:100F6000BDE81040FFF7F7B95FEA400C08BF91F009
:100F7000000F4FEA8C234FEAC12243EA51514FEA56
:100F80001C5018BF00F5F0404FEA300018BF41F088
:100F900000415FEA6C5C00F02980BCF1FF3F08BFB4
:100FA00040F080407047130C06BF12044FF0100C45
:100FB0004FF0000C130E04BF12020CF1080C130FBB
:100FC00004BF12010CF1040C930F04BF92000CF14A
:100FD000020CD30F04BF52000CF1010C11464FF06C
:100FE0000002A0F11F00A0EB0C00704711F0004FB1
:100FF00008BF704731F000413FF4D5AF0B0C06BF7E
:1010000009044FF0100C4FF0000C0B0E04BF090246
:101010000CF1080C0B0F04BF09010CF1040C8B0F31
:1010200004BF89000CF1020CCB0F04BF49000CF186
:10103000010CCCF12003A0EB0C0022FA03F302FA1E
:101040000CF241EA030100F10100704720F07F4CEF
:1010500080EA030023F07F47ACEB070303F57C53E2
:1010600000F0004003F1FF032DE980494FEA154BE2
:1010700009B44FEA144325EA0B4E24EA03480FF261
:10108000042606EB132749083E785FEA320203FB89
:101090000667C7F5000707FB06F64FEA54374FEA25
:1010A000D64606F1020607FB066CCCF1005C4FEA5F
:1010B0001C472CEA074C07FB06F40CFB06F504EB77
:1010C00015464FEA961634BF00204FF000404FEA15
:1010D000D13706FB07FC4FEA1C4C0CFB0BF7D21B6D
:1010E00003FB0CF761EB07010CFB0EF7B0EB0740BD
:1010F00072EB17420CFB08F734BFA2EB0742B2EBCE
:10110000074261EB17414FEA0C444FEA910706FB97
:1011100007FC4FEA1C4C0CFB0BF7B0EBC74072EB23
:10112000573203FB0CF734BFA2EBC742B2EBC74206
:1011300061EB57310CFB0EF7B0EBC70072EB577247
:101140000CFB08F734BFA2EBC702B2EBC70261EB9E
:101150005771039F4FEA816141EA921104EBCC047D
:101160004FEAD1374FEA826206FB07FC42EA90124F
:101170004FEA80604FEA1C4C0CFB0BF7D21B03FBC1
:101180000CF761EB07010CFB0EF7B0EB074072EBBD
:1011900017420CFB08F734BFA2EB0742B2EB074241
:1011A00061EB17414FEA8C554FEA910704EB9C2401
:1011B00006FB07FC4FEA1C4C0CFB0BF7B0EBC740DF
:1011C00072EB573203FB0CF734BFA2EBC742B2EB12
:1011D000C74261EB57310CFB0EF7B0EBC70072EB67
:1011E00057720CFB08F734BFA2EBC702B2EBC70281
:1011F00061EB577115EB4C254FEA816141EA921181
:101200004FEA82624FEAD13742EA901206FB07FCAE
:1012100044F100044FEA80604FEA1C4C0CFB0BF7D2
:10122000D21B03FB0CF761EB07010CFB0EF7B0EBD5
:10123000074072EB17420CFB08F734BFA2EB0742E2
:10124000B2EB074261EB174115EB1C154FEA8131F8
:1012500041EA92414FEA823242EA90424FEA8030BC
:101260004FEA0C7644F1000448EA03434EEA0B4887
:101270004FF0000EB2EB080C71EB030724BF62467F
:1012800039464EEB0E0E4FF0000B0018524149410B
:101290004BEB0B0BB2EB080C71EB03077BF1000B74
:1012A00024BF624639464EEB0E0E4FF0000B00187D
:1012B000524149414BEB0B0BB2EB080C71EB0307AE
:1012C0007BF1000B24BF624639464EEB0E0E51EA0D
:1012D000020718BF46F0010616EB0E7655F1000224
:1012E00054F1000103D5BDE88901BDE80088BDE8DF
:1012F0008901BDE80048B619524141EB0101A3F153
:101300000103704780807F7E7D7C7B7A7978777659
:1013100076757473727171706F6E6E6D6C6C6B6AD2
:101320006A69686867666665646463636261616070
:10133000605F5F5E5E5D5D5C5C5B5B5A5A595958ED
:101340005857575656555555545453535252525157
:10135000515050504F4F4F4E4E4D4D4D4C4C4C4BAD
:101360004B4B4A4A4A4949494848484747474746F4
:101370004646454545444444444343434342424230
:1013800042414141002B9C4630D477002BD01CB504
:101390004FEA370703B44FF010004FF01001BAF1D5
:1013A000000F06D0BCF1000FDCBF40F0080040F099
:1013B00008014FF000000FBCBDE810400BF1010B1D
:1013C000BBF1010F08BF5FEA170722BF12F101024C
:1013D00011F101014FF0004143F1000300F0004022
:1013E00043EA00007047F9D35708D0E746EA0646BB
:1013F00013F1400F4FEA16461FDD13F1200FDFBF38
:1014000016430A46002120335B42BED0C3F12007B9
:1014100046EA064602FA07F74FEA164646EA070684
:10142000C3F1200722FA03F201FA07F721FA03F1C8
:101430004FF0000342EA0702A7E746EA020646EA3F
:1014400006464FEA164646EA0106BCBF46EA06468D
:10145000360C4FF000034FF000024FF0000194E70C
:101460002DE9804C9A46934670B491E8380007C83D
:1014700031EA400C48BF34EA430C03D5FFF7E6FDE0
:10148000FFF780FFF0BCBDE8008C2DE9804C9A4648
:10149000934670B491E8380007C810F0804F08BF39
:1014A00013F0804F03D100F005F8FFF76BFFF0BC9D
:1014B000BDE8008C20F07F4780EA030023F07F4CDA
:1014C00007EB0C03A3F57C5300F00040A3F1FE03EF
:1014D00092F0000F00F0B38095F0000F00F07780DD
:1014E0002DE901494FEA11404FEA144621EA00482C
:1014F00000FB06FC24EA064708FB06F607FB08F893
:1015000000FB07F718EB06484CEB164C4FEA124B62
:1015100018EB07484FEA15464CEB174022EA0B4EF2
:101520000BFB06FC25EA06470EFB06F607FB0EFE44
:101530000BFB07F71EEB064E4CEB164C4FF000066C
:101540001EEB074E4CEB174B18EB0B0840F100005D
:1015500018EB0E0B58EB000840F100008F1A4FF00B
:1015600000013CBFC943661B14BFB5EB040C00214E
:101570003CBFC943F61B4FEA17444EEA8E0E27EADA
:1015800004454FEA1C4704FB07622CEA074C05FBA5
:1015900007F70CFB05F604FB0CFC16EB074642EBC9
:1015A000174216EB0C4642EB1C421BEB060658EBAF
:1015B0000202414146EA9E0601D5BDE80189B619FD
:1015C000524141EB0101A3F10103BDE801894FEA5A
:1015D00014454FEA114724EA054621EA074C05FB6A
:1015E00007F406FB07F70CFB06F105FB0CFC11EBFF
:1015F000074144EB17444FEA124711EB0C4144EB0F
:101600001C4422EA074C05FB07F206FB07F70CFB1C
:1016100006F605FB0CFC16EB074642EB174216EBF1
:101620000C4642EB1C456A1854F1000148BF704754
:10163000B619524141EB0101A3F10103704795F046
:10164000000F37D04FEA11424FEA144721EA024611
:1016500024EA074C02FB07F106FB07F70CFB06F434
:1016600002FB0CFC14EB074441EB17414FEA154712
:1016700014EB0C4441EB1C4125EA074C02FB07F537
:1016800006FB07F70CFB06F602FB0CFC16EB074605
:1016900045EB174516EB0C4645EB1C42121951F170
:1016A000000148BF7047B619524141EB0101A3F157
:1016B000010370474FEA14454FEA114724EA0546F3
:1016C00021EA074C05FB07F106FB07F70CFB06F2C6
:1016D0004FF0000605FB0CFC12EB074241EB1741F3
:1016E00012EB0C4251EB1C4148BF7047921841EB82
:1016F0000101A3F10103704700BFFEE70146374A2D
:101700000868904249D0354A18320868904244D05F
:10171000324A3032086890423FD0304A4832086836
:1017200090423AD02D4A60320868904235D02B4A18
:1017300078320868904230D0284A90320868904247
:101740002BD0264AA8320868904226D0244A08683E
:10175000904222D0224A1832086890421DD0204A76
:1017600030320868904218D01D4A483208689042CA
:1017700013D01B4A6032086890420ED0184A783263
:101780000868904209D0164A90320868904204D006
:10179000134AA8320868904201D1012000E00020DD
:1017A000B0B10A78103A1823B2FBF3F000F0070248
:1017B0000C4B9A5CCA65032805D90A686FF30902C5
:1017C000121D8A6503E00A686FF309028A6503E067
:1017D000086820F0FF008865886D7047100002409F
:1017E00010040240B8B2000810B502682B4C036820
:1017F000A34222D0294C14340368A3421DD0274CA5
:1018000028340368A34218D0244C3C340368A34214
:1018100013D0224C50340368A3420ED01F4C6434C2
:101820000368A34209D01D4C78340368A34204D056
:101830001A4C8C340368A34201D1012300E0002339
:101840008BB10378083B1424B3FBF4F1144B03EB86
:1018500081030366124B8033436601F01F040123AA
:10186000A340836618E00378103B1824B3FBF4F11F
:101870000C4B9A4204D80B4BA83B9A4200D3083138
:10188000094B03EB81030366074B8033436601F08A
:101890001F040123A340836610BD000008540258B2
:1018A00000580258B8040240000802400179A9B368
:1018B000082940D8204B02689A4222D01E4B14338C
:1018C00002689A421DD01C4B283302689A4218D0F5
:1018D000194B3C3302689A4213D0174B50330268BD
:1018E0009A420ED0144B643302689A4209D0124BCC
:1018F000783302689A4204D00F4B8C3302689A42C4
:1019000001D1012200E000224AB14A1E0B4B03EB39
:101910008202C266094A4032026708E00BE04A1EB2
:10192000074B03EB8202C266054A403202674A1E39
:1019300001239340436770470854025800590258E6
:1019400000090240014600208A69D2B98A6A32B190
:10195000012A0DD0022A03D0032A10D10EE000BFC5
:10196000CA6A02F08072B2F1807F00D1012007E0E4
:10197000CA6AB2F1C07F00D1012001E000E000BFDF
:1019800036E08A69B2F5005F1BD18A6A32B1012A5A
:1019900007D0022A03D0032A11D10AE000BF012098
:1019A0000EE0CA6A02F08072B2F1807F00D101209D
:1019B00006E0CA6AB2F1C07F00D1012000E000BF9A
:1019C00016E08A6A32B1012A05D0022A04D0032A1D
:1019D0000CD103E000BF00BF012008E0CA6A02F09A
:1019E0008072B2F1807F00D1012000E000BF00BF13
:1019F00070470000F0B5856D846D984F0668BE4253
:101A000070D0964F18370668BE426BD0934F303770
:101A10000668BE4266D0914F48370668BE4261D024
:101A20008E4F60370668BE425CD08C4F78370668B0
:101A3000BE4257D0894F90370668BE4252D0874F7A
:101A4000A8370668BE424DD0854F0668BE4249D0D1
:101A5000834F18370668BE4244D0814F303706683E
:101A6000BE423FD07E4F48370668BE423AD07C4FD8
:101A700060370668BE4235D0794F78370668BE4277
:101A800030D0774F90370668BE422BD0744FA837BE
:101A90000668BE4226D0734F0668BE4222D0714F00
:101AA00014370668BE421DD06E4F28370668BE4206
:101AB00018D06C4F3C370668BE4213D0694F503780
:101AC0000668BE420ED0674F64370668BE4209D032
:101AD000644F78370668BE4204D0624F8C37066880
:101AE000BE4201D1012600E000263EB1D0E91976C0
:101AF0007E60C66E16B1D0E91C767E60574F0668D0
:101B0000BE4249D0554F18370668BE4244D0534FA5
:101B100030370668BE423FD0504F48370668BE4255
:101B20003AD04E4F60370668BE4235D04B4F7837BB
:101B30000668BE4230D0494F90370668BE422BD06F
:101B4000464FA8370668BE4226D0454F0668BE42BB
:101B500022D0434F18370668BE421DD0404F303761
:101B60000668BE4218D03E4F48370668BE4213D0C2
:101B70003B4F60370668BE420ED0394F7837066853
:101B8000BE4209D0364F90370668BE4204D0344F6B
:101B9000A8370668BE4201D1012600E00026DEB16A
:101BA00090F85C6006F01F073F26BE40AE600668F6
:101BB000366826F4802607683E600668736086688B
:101BC000402E04D10668B2600668F16044E0066801
:101BD000B1600668F2603FE0224F0668BE4222D044
:101BE000204F14370668BE421DD01E4F28370668A6
:101BF000BE4218D01B4F3C370668BE4213D0194F67
:101C000050370668BE420ED0164F64370668BE4293
:101C100009D0144F78370668BE4204D0114F8C3774
:101C20000668BE4201D1012600E00026A6B190F868
:101C30005C6006F01F070126BE40666006687360A0
:101C40008668402E04D10668B2600668F16003E041
:101C50000668B1600668F260F0BD00001000024046
:101C600010040240085402587047000008480068F9
:101C700020F0040040F002000549086000BF04485D
:101C80000838006800F400500028F8D070470000C1
:101C90000C4802582DE9F041044601F01DFA804637
:101CA00014B90120BDE8F08194F83500022808D06D
:101CB0008020606500BF002084F8340000BF012050
:101CC000F0E7FE492068884249D0FC491831206875
:101CD000884244D0F9493031206888423FD0F749E2
:101CE0004831206888423AD0F449603120688842FF
:101CF00035D0F24978312068884230D0EF499031B0
:101D0000206888422BD0ED49A8312068884226D02F
:101D1000EB492068884222D0E9491831206888427E
:101D20001DD0E74930312068884218D0E449483155
:101D30002068884213D0E2496031206888420ED082
:101D4000DF4978312068884209D0DD499031206828
:101D5000884204D0DA49A8312068884201D10120A4
:101D600000E0002068B12068006820F01E002168B3
:101D700008602068406920F080002168486125687B
:101D800006E02068006820F00E00216808602568E1
:101D9000CA492068884270D0C849183120688842F2
:101DA0006BD0C64930312068884266D0C34948317B
:101DB0002068884261D0C1496031206888425CD087
:101DC000BE4978312068884257D0BC49903120689C
:101DD000884252D0B949A831206888424DD0B849CC
:101DE0002068884249D0B64918312068884244D0DA
:101DF000B3493031206888423FD0B149483120682A
:101E000088423AD0AE4960312068884235D0AC492A
:101E100078312068884230D0A949903120688842C2
:101E20002BD0A749A8312068884226D0A549206830
:101E3000884222D0A3491431206888421DD0A1498C
:101E400028312068884218D09E493C312068884259
:101E500013D09C495031206888420ED09949643192
:101E60002068884209D0974978312068884204D098
:101E700094498C312068884201D1012000E0002083
:101E800028B1206E006820F48070216E08608B49B4
:101E90002068884249D0894918312068884244D056
:101EA00086493031206888423FD0844948312068D3
:101EB00088423AD0814960312068884235D07F49D4
:101EC00078312068884230D07C499031206888423F
:101ED0002BD07A49A8312068884226D078492068DA
:101EE000884222D076491831206888421DD0744932
:101EF00030312068884218D07149483120688842C2
:101F000013D06F496031206888420ED06C49783117
:101F10002068884209D06A4990312068884204D0FC
:101F20006749A8312068884206D12068006820F0FF
:101F300001002168086005E02068006820F00100C9
:101F40002168086011E001F0C7F8A0EB080005283F
:101F50000BD920206065032084F8350000BF0020E5
:101F600084F8340000BF01209CE6286800F00100DE
:101F70000028E8D151492068884249D04F4918319A
:101F80002068884244D04D493031206888423FD093
:101F90004A494831206888423AD04849603120682F
:101FA000884235D0454978312068884230D043494D
:101FB0009031206888422BD04049A831206888425F
:101FC00026D03F492068884222D03D4918312068F8
:101FD00088421DD03A4930312068884218D03849AB
:101FE00048312068884213D03549603120688842E2
:101FF0000ED0334978312068884209D03049903179
:102000002068884204D02E49A8312068884201D136
:10201000012000E0002040B1A66D94F85C0000F0C3
:102020001F013F208840B06007E0A76D94F85C0076
:1020300000F01F0101208840786020492068884214
:1020400076D01E4918312068884271D01B49303142
:10205000206888426CD0194948312068884267D08E
:10206000164960312068884262D01449783120686E
:1020700088425DD0114990312068884258D00F497C
:10208000A8312068884253D00D49206888424FD03B
:102090000B491831206888424AD0094930312068FC
:1020A000884245D0064948312068884240D00449DA
:1020B0006031206888423BD0014905E010000240B1
:1020C00010040240085402587831206888422FD00A
:1020D0002549206888422BD023491831206888423E
:1020E00026D022492068884222D020491431206815
:1020F00088421DD01D4928312068884218D01B49CC
:102100003C312068884213D01849503120688842F9
:102110000ED0164964312068884209D013497831BD
:102120002068884204D011498C312068884201D14E
:10213000012000E0002068B1D4E919104860E06E89
:1021400040B1E06E006820F48070E16E0860D4E970
:102150001C104860012084F8350000BF002084F87E
:10216000340000BF00BF9DE5A0040240085402589F
:1021700070B504460CB9012070BD94F835000228F2
:1021800003D0802060650120F6E7DC4920688842A2
:1021900049D0DA4918312068884244D0D7493031D3
:1021A000206888423FD0D5494831206888423AD0DB
:1021B000D24960312068884235D0D04978312068D2
:1021C000884230D0CD499031206888422BD0CB490D
:1021D000A8312068884226D0C9492068884222D088
:1021E000C7491831206888421DD0C5493031206860
:1021F000884218D0C24948312068884213D0C0496B
:102200006031206888420ED0BD497831206888420C
:1022100009D0BB4990312068884204D0B849A83120
:102220002068884201D1012000E00020F0B30420A2
:1022300084F83500B149206888424BD0AF49183145
:102240002068884246D0AD4930312068884241D06C
:10225000AA494831206888423CD0A84960312068AA
:10226000884237D0A54978312068884232D0A349C6
:102270009031206888422DD0A049A831206888423A
:1022800028D09F492068884224D09D491831206871
:1022900088421FD09A493031206888421AD0984924
:1022A00048312068884215D0954900E020E060312F
:1022B000206888420ED0924978312068884209D03F
:1022C0008F4990312068884204D08D49A831206818
:1022D000884206D12068006820F00100216808606B
:1022E00009E12068006820F001002168086002E12F
:1022F0002068006820F00E00216808607F4920688F
:10230000884249D07D4918312068884244D07B49B1
:102310003031206888423FD078494831206888426F
:102320003AD0764960312068884235D07349783197
:102330002068884230D071499031206888422BD083
:102340006E49A8312068884226D06D4920688842AD
:1023500022D06B491831206888421DD0684930313D
:102360002068884218D0664948312068884213D0D6
:1023700063496031206888420ED061497831206815
:10238000884209D05E4990312068884204D05C4977
:10239000A8312068884206D12068006820F001003A
:1023A0002168086005E02068006820F001002168CD
:1023B000086052492068884270D05049183120681E
:1023C00088426BD04D4930312068884266D04B49F5
:1023D00048312068884261D048496031206888428D
:1023E0005CD0464978312068884257D043499031C3
:1023F0002068884252D04149A831206888424DD097
:102400003F492068884249D03D49183120688842B8
:1024100044D03B493031206888423FD03849483168
:10242000206888423AD0364960312068884235D0E9
:10243000334978312068884230D031499031206862
:1024400088422BD02E49A8312068884226D02D49B9
:102450002068884222D02B491431206888421DD040
:10246000284928312068884218D026493C31206804
:10247000884213D023495031206888420ED0214928
:1024800064312068884209D01E497831206888422A
:1024900004D01C498C312068884201D1012000E021
:1024A0000020D8B1206E006820F48070216E086092
:1024B000A56D94F85C0000F01F0101208840686061
:1024C000D4E919104860E06E40B1E06E006820F475
:1024D0008070E16E0860D4E91C104860012084F827
:1024E000350000BF002084F8340000BF206D10B11B
:1024F0002046216D884700203EE600001000024083
:10250000100402400854025870B504460CB901206A
:1025100070BD9B492068884249D09949183120688C
:10252000884244D096493031206888423FD094494F
:102530004831206888423AD0914960312068884209
:1025400035D08F4978312068884230D08C4990311D
:10255000206888422BD08A49A8312068884226D03A
:1025600088492068884222D08649183120688842EC
:102570001DD0844930312068884218D081494831C3
:102580002068884213D07F496031206888420ED08D
:102590007C4978312068884209D07A499031206896
:1025A000884204D07749A8312068884206D1206843
:1025B000006820F001002168086005E020680068DC
:1025C00020F00100216808606D492068884249D0E8
:1025D0006B4918312068884244D0694930312068FD
:1025E00088423FD066494831206888423AD06449E1
:1025F00060312068884235D061497831206888424E
:1026000030D05F499031206888422BD05C49A83196
:102610002068884226D05B492068884222D05949E8
:102620001831206888421DD05649303120688842D0
:1026300018D0544948312068884213D0514960313C
:10264000206888420ED04F4978312068884209D0EE
:102650004C4990312068884204D04A49A83120680A
:10266000884201D1012000E00020C8B1002021688B
:10267000086021684860216888602168C860216816
:1026800008612120216848612046FFF737F8064697
:1026900094F85C0000F01F013F208840B06043E0E8
:1026A00039492068884222D037491431206888424D
:1026B0001DD0354928312068884218D032493C3134
:1026C0002068884213D030495031206888420ED0AB
:1026D0002D4964312068884209D02B49783120681F
:1026E000884204D028498C312068884201D10120D9
:1026F00000E00020B0B10020216808602168486037
:10270000216888602168C860216808612046FEF75A
:10271000F5FF054694F85C0000F01F010120884099
:10272000686001E00120F3E62046FFF75DF8206EC7
:1027300028B10020216E0860D4E919104860606853
:1027400058B16068082808D82046FFF7AFF8002085
:10275000E16E0860D4E91C1048600020E066206744
:102760006067E06320646064A064E0642065606585
:1027700084F8350000BF84F8340000BF00BFC7E60E
:102780001000024010040240085402582DE9F041A4
:10279000044600F0A1FC804614B90120BDE8F08198
:1027A000FE492068884249D0FC4918312068884297
:1027B00044D0FA493031206888423FD0F749483147
:1027C000206888423AD0F54960312068884235D087
:1027D000F24978312068884230D0F0499031206841
:1027E00088422BD0ED49A8312068884226D0EC4998
:1027F0002068884222D0EA491831206888421DD0DA
:10280000E74930312068884218D0E54948312068CE
:10281000884213D0E2496031206888420ED0E049F6
:1028200078312068884209D0DD499031206888429B
:1028300004D0DB49A8312068884201D1012000E0A2
:102840000020002873D0606A00B100BF022084F825
:10285000350000BF002084F8340000BFCF49206855
:10286000884249D0CD4918312068884244D0CB49AC
:102870003031206888423FD0C849483120688842BA
:102880003AD0C64960312068884235D0C349783192
:102890002068884230D0C1499031206888422BD0CE
:1028A000BE49A8312068884226D0BD4920688842A8
:1028B00022D0BB491831206888421DD0B849303138
:1028C0002068884218D0B64948312068884213D021
:1028D000B3496031206888420ED0B1497831206810
:1028E000884209D0AE4990312068884204D0AC4972
:1028F000A8312068884206D12068006820F00100D5
:102900002168086005E02068006820F00100216867
:1029100008600DE000F0E0FBA0EB0800052807D9F7
:1029200020206065032084F83500012036E76AE046
:102930002068006800F001000028EBD120680568DD
:1029400098480540D4E902010843216908436169B8
:102950000843A1690843E1690843216A0843054324
:10296000606A042803D1D4E90B01084305438E486B
:1029700000686FF30F00B0F1005F1DD36068292875
:1029800002D360682E2811D960683F2802D360689E
:1029900042280BD96068472802D36068482805D9C7
:1029A00060684F2804D36068522801D8012000E0F5
:1029B000002008B145F4801520680560206845694D
:1029C00025F00705606A0543606A04280DD1A06AF6
:1029D0000543E06A48B12046FEF7B4FF28B1402025
:1029E0006065012084F83500D8E6206845612046FE
:1029F000FEF784FE064694F85C0000F01F013F20BD
:102A00008840B0609EE069492068884222D06749CA
:102A10001431206888421DD06449283120688842DA
:102A200018D062493C312068884213D05F49503148
:102A3000206888420ED05D4964312068884209D000
:102A40005A4978312068884204D058498C3120682E
:102A5000884201D1012000E00020E0B35349206802
:102A6000884222D051491431206888421DD04F49F4
:102A700028312068884218D04C493C31206888426F
:102A800013D04A495031206888420ED047496431FA
:102A90002068884209D0454978312068884204D0AE
:102AA00042498C312068884201D1012000E0002099
:102AB00000B100BF022084F8350000BF002084F878
:102AC000340000BF2068056839480540A0684028E8
:102AD00002D1102106E02EE0A068802801D1C101BA
:102AE00000E00021E06841EAD001206941EAD0011C
:102AF000606941EAD001A06941EAD001E06941EA98
:102B0000D001206A41EA101005432068056027497A
:102B10002068401A1421B0FBF1F08000E0652046E7
:102B2000FEF7ECFD074694F85C0000F01F01012061
:102B30008840786006E040206065032084F8350016
:102B400001202BE61549206888427FD013491831AF
:102B5000206888427AD0114930312068884275D087
:102B60000E4948312068884270D00C496031206895
:102B700088426BD0094978312068884266D007497D
:102B800090312068884261D00449A8312068884289
:102B90005CD003492068884258D00BE01000024006
:102BA000100402403F8010FE0010005C08540258E0
:102BB0000F00FEFF3B4918312068884246D0394952
:102BC00030312068884241D03649483120688842F7
:102BD0003CD0344960312068884237D0314978315F
:102BE0002068884232D02F499031206888422DD009
:102BF0002C49A8312068884228D02B492068884277
:102C000024D029491431206888421FD02649283110
:102C1000206888421AD024493C312068884215D067
:102C2000214950312068884210D01F496431206802
:102C300088420BD01C4978312068884206D01A4956
:102C40008C312068884200E000E001D1012000E0E2
:102C5000002000B32046FEF7C7FDA068802801D100
:102C6000002060602079216E0860D4E91910486066
:102C7000606860B16068082809D82046FEF716FE33
:102C80000020E16E0860D4E91C10486003E00020D9
:102C9000E0662067606700206065012084F83500E9
:102CA00000207BE510040240085402582DE9F04151
:102CB00004460D4616461F464FF0000814B9012081
:102CC000BDE8F08100BF94F83400012801D1022052
:102CD000F6E7012084F8340000BF94F8350001289D
:102CE0007ED1022084F835000020606565492068A7
:102CF000884249D0634918312068884244D06149EC
:102D00003031206888423FD05E494831206888428F
:102D10003AD05C4960312068884235D059497831D1
:102D20002068884230D057499031206888422BD0A3
:102D30005449A8312068884226D0534920688842E7
:102D400022D051491831206888421DD04E49303177
:102D50002068884218D04C4948312068884213D0F6
:102D600049496031206888420ED04749783120684F
:102D7000884209D0444990312068884204D04249B1
:102D8000A8312068884206D12068006820F0010040
:102D90002168086005E02068006820F001002168D3
:102DA00008603B46324629462046FEF723FE354959
:102DB000206888424BD0334918312068884246D079
:102DC000304930312068884241D02E49483120684E
:102DD00088423CD02B4960312068884237D000E0DF
:102DE00043E0284978312068884230D02549903125
:102DF000206888422BD02349A8312068884226D0F9
:102E000021492068884222D01F4918312068884211
:102E10001DD01D4930312068884218D01A494831E8
:102E20002068884213D018496031206888420ED04B
:102E3000154978312068884209D0134990312068BB
:102E4000884204D01049A8312068884206D1206801
:102E5000006840F001002168086010E02068006808
:102E600040F001002168086009E04FF400606065EF
:102E700000BF002084F8340000BF4FF00108404636
:102E80001EE70000100002401004024003480068E2
:102E900040F001000149086070470000200400581C
:102EA000F8B502460B4600216F4DD7E001278F4051
:102EB0001E6806EA0704002C72D01E7906F003068D
:102EC000012E04D01E7906F00306022E13D190685D
:102ED0004F000326BE40B0434F00DE68BE40304383
:102EE0009060506801268E40B0431E79C6F30016EC
:102EF0008E40304350601E7906F00306032E09D041
:102F0000D0684F000326BE40B0434F009E68BE40CD
:102F10003043D0601E7906F00306022E13D1CF088D
:102F200002F1200656F827004E07F70E0F26BE4086
:102F3000B0434F07FF0E1E69BE403043CF0802F179
:102F4000200646F8270010684F000326BE40B04315
:102F50001E7906F003064F00BE40304310605E68E5
:102F600006F44036002E78D000BF404E366846F05A
:102F700002063E4F3E603E46366806F00206009668
:102F800000BF00BF3A4E8F0856F827008E07370F54
:102F90000F26BE40B043374EB24202D100262EE08B
:102FA0005BE0354EB24201D1012628E0334EB242F9
:102FB00001D1022623E0324EB24201D103261EE0A7
:102FC000304EB24201D1042619E02F4EB24201D157
:102FD000052614E02D4EB24201D106260FE02C4EFC
:102FE000B24201D107260AE02A4EB24201D1082698
:102FF00005E0294EB24201D1092600E00A268F07DA
:103000003F0FBE4030431A4E8F0846F827004FF05E
:10301000B0463068A0435E6806F4801606B12043CF
:103020004FF0B04630607068A0435E6806F400164A
:1030300006B120434FF0B04670606868A0435E68F8
:1030400006F4003606B1204368602868A0435E6835
:1030500006F4803606B120432860491C1E68CE4025
:10306000002E7FF423AFF8BD80000058F4440258CE
:1030700008040058000002580004025800080258D2
:10308000000C025800100258001402580018025890
:10309000001C0258002002580024025802461369FE
:1030A0000B400BB1012000E00020704710B54269D1
:1030B00021EA020302EA010443EA0443836110BDEA
:1030C0000AB1816101E00B04836170470148006827
:1030D000000C70470010005C014800687047000059
:1030E0001400002403480068034909780844014992
:1030F00008607047140000241C00002410B505204F
:1031000000F00EF901F024FC10490968C1F3032115
:103110000F4A515C01F01F0120FA01F40B480068CE
:1031200000F00F001146085C00F01F0024FA00F0C8
:1031300008490860084804600F2000F00FF808B143
:10314000012010BD00F09AF80020FAE71844025858
:10315000A8B20008040000240000002470B5044652
:103160001148007808B9012070BD0F4800784FF46D
:103170007A71B1FBF0F00D490968B1FBF0F5284612
:1031800002F083FA08B10120EEE7102C07D20022EA
:103190002146501E00F087F80548046001E0012038
:1031A000E2E70020E0E700001C000024000000240B
:1031B000180000244178154A116014490831096843
:1031C00021F00101114A08321160121F416811609B
:1031D000017B0907C27A41EA0261827A41EAC2416F
:1031E000427B41EA8241827B41EA4241C27B41EA21
:1031F0000241427A41EA0221027A41EA420102781E
:103200001143024A083211607047000098ED00E057
:1032100000BF00BF00BFBFF35F8F00BF00BF00BF94
:103220000548006820F48030034908600020024906
:10323000703108607047000024ED00E040F00101AB
:103240000D4A11600C497039096841F480310A4A0D
:10325000703A116000BF00BF00BFBFF34F8F00BFC7
:1032600000BF00BF00BF00BF00BFBFF36F8F00BF34
:1032700000BF00BF7047000094ED00E070470146BA
:10328000084600280DDB00BF00BF00F01F0301222D
:103290009A4043099B0003F1E023C3F8002100BFDB
:1032A00000BF00BF70472DE9F05F80460D4616460F
:1032B00004F060F8074639462A46334601F0070015
:1032C000C0F1070ABAF1040F02D94FF0040A01E075
:1032D000C0F1070AD14600F1040ABAF1070F02D281
:1032E0004FF0000A01E0A0F1030AD4464FF0010AB2
:1032F0000AFA09FAAAF1010A0AEA020A0AFA0CFA17
:103300004FF0010B0BFA0CFBABF1010B0BEA030BBB
:103310004AEA0B042146404604F034F8BDE8F09F29
:1033200000BF00F00702064B19684FF6FF03194073
:10333000044B0B4343EA0221014B196000BF704765
:103340000CED00E00000FA050348006840F08070D2
:1033500001490860704700000C48025810B501F0A0
:10336000ADFA05490968C1F30211044A515C01F044
:103370001F01C84010BD000020440258A8B2000838
:1033800070B50146844D2D6805F00303824D2D680C
:10339000C5F30530804D2D1D2D68C5F300147E4DFD
:1033A00014352D68C5F3CC0515FB04F501EE105A54
:1033B000B8EE411AF0EE410A00286FD023B1012B7C
:1033C0004ED0022B6BD16BE0734D283D2D68C5F3B9
:1033D00040153DB3704D283D2D68C5F3C1066F4DB6
:1033E00025FA06F201EE102AF8EE411A01EE100A53
:1033F000B8EE411A81EE812A9FED691AC0EE811A5A
:10340000654D10352D68C5F3080501EE105AB8EE6C
:10341000411A31EE811AF7EE001A31EE211A22EE2E
:10342000010A1CE001EE100AB8EE411ADFED5D1A48
:1034300081EE812A9FED5A1AC0EE811A564D103541
:103440002D68C5F3080501EE105AB8EE411A31EEA9
:10345000811AF7EE001A31EE211A22EE010A5BE022
:1034600001EE100AB8EE411ADFED4F1A81EE812A03
:103470009FED4B1AC0EE811A474D10352D68C5F3EC
:10348000080501EE105AB8EE411A31EE811AF7EE36
:10349000001A31EE211A22EE010A3DE077E01DE02C
:1034A00001EE100AB8EE411A9FED402AC2EE011A51
:1034B0009FED3B1A80EE812A374D10352D68C5F3FC
:1034C000080501EE105AB8EE411A32EE011AB7EEB5
:1034D000002A31EE021A21EE810A1DE001EE100AE7
:1034E000B8EE411ADFED301A81EE812A9FED2C1AD9
:1034F000C0EE811A284D10352D68C5F3080501EE80
:10350000105AB8EE411A31EE811AF7EE001A31EE78
:10351000211A22EE010A00BF00BF1F4D10352D6891
:10352000C5F3462501EE105AB8EE411AF7EE001A1F
:1035300031EE211AC0EE011ABCEEE11A81ED001A3B
:10354000154D10352D68C5F3064501EE105AB8EE3D
:10355000411AF7EE001A31EE211AC0EE011ABCEE44
:10356000E11A81ED011A0C4D10352D68C5F3066581
:1035700001EE105AB8EE411AF7EE001A31EE211A98
:10358000C0EE011ABCEEE11A81ED021A03E000253B
:103590000D604D608D6070BD284402580090D003CE
:1035A000000000460024744C0024744A20BCBE4B2A
:1035B00070B50146844D2D6805F00303824D2D68DA
:1035C000C5F30550804D2D1D2D68C5F300247E4D9B
:1035D0001C352D68C5F3CC0515FB04F501EE105A1A
:1035E000B8EE411AF0EE410A00286FD023B1012B4A
:1035F0004ED0022B6BD16BE0734D283D2D68C5F387
:1036000040153DB3704D283D2D68C5F3C1066F4D83
:1036100025FA06F201EE102AF8EE411A01EE100A20
:10362000B8EE411A81EE812A9FED691AC0EE811A27
:10363000654D18352D68C5F3080501EE105AB8EE32
:10364000411A31EE811AF7EE001A31EE211A22EEFC
:10365000010A1CE001EE100AB8EE411ADFED5D1A16
:1036600081EE812A9FED5A1AC0EE811A564D183507
:103670002D68C5F3080501EE105AB8EE411A31EE77
:10368000811AF7EE001A31EE211A22EE010A5BE0F0
:1036900001EE100AB8EE411ADFED4F1A81EE812AD1
:1036A0009FED4B1AC0EE811A474D18352D68C5F3B2
:1036B000080501EE105AB8EE411A31EE811AF7EE04
:1036C000001A31EE211A22EE010A3DE077E01DE0FA
:1036D00001EE100AB8EE411A9FED402AC2EE011A1F
:1036E0009FED3B1A80EE812A374D18352D68C5F3C2
:1036F000080501EE105AB8EE411A32EE011AB7EE83
:10370000002A31EE021A21EE810A1DE001EE100AB4
:10371000B8EE411ADFED301A81EE812A9FED2C1AA6
:10372000C0EE811A284D18352D68C5F3080501EE45
:10373000105AB8EE411A31EE811AF7EE001A31EE46
:10374000211A22EE010A00BF00BF1F4D18352D6857
:10375000C5F3462501EE105AB8EE411AF7EE001AED
:1037600031EE211AC0EE011ABCEEE11A81ED001A09
:10377000154D18352D68C5F3064501EE105AB8EE03
:10378000411AF7EE001A31EE211AC0EE011ABCEE12
:10379000E11A81ED011A0C4D18352D68C5F3066547
:1037A00001EE105AB8EE411AF7EE001A31EE211A66
:1037B000C0EE011ABCEEE11A81ED021A03E0002509
:1037C0000D604D608D6070BD284402580090D0039C
:1037D000000000460024744C0024744A20BCBE4BF8
:1037E0002DE9F04104460025A8464FF00062D4E9D7
:1037F000000110400021134658404940084331D190
:10380000E06E48B1B0F5801F0DD0B0F5001F11D0AB
:10381000B0F5401F16D114E0FB48006840F40030BA
:10382000F949086010E0022104F1080002F016FBDB
:10383000054609E0022104F1280002F0C1FB05461B
:1038400002E001E0012500BF00BF55B9EE48243079
:10385000006820F44010E16E0843EB492431086011
:1038600000E0A8464FF48072D4E900011040002126
:1038700013465840494008432ED1E06D05281BD21D
:10388000DFE800F0030A11181900DF48006840F46F
:103890000030DD49086011E0002104F1080002F069
:1038A000DDFA05460AE0002104F1280002F088FB59
:1038B000054603E002E001E0012500BF00BF55B965
:1038C000D1482430006820F00700E16D0843CE495C
:1038D0002431086000E0A8464FF40072D4E90001EA
:1038E00010400021134658404940084334D1206E0F
:1038F000802818D003DC40B140281DD10CE0C0283E
:1039000018D0B0F5807F17D115E0BF48006840F4AB
:103910000030BD49086011E0002104F1080002F008
:103920009DFA05460AE0002104F1280002F048FB58
:10393000054603E002E001E0012500BF00BF55B9E4
:10394000B1482430006820F4E070216E0843AE498D
:103950002431086000E0A8464FF48062D4E90010EA
:1039600011400020134659404040014339D1D4F85A
:10397000AC00B0F5800F1AD004DC50B1B0F5001FD8
:103980001ED10DE0B0F5C00F18D0B0F5000F17D163
:1039900015E09D48006840F400309B49086011E044
:1039A000002104F1080002F059FA05460AE000215E
:1039B00004F1280002F004FB054603E002E001E008
:1039C000012500BF00BF5DB98F482C30006820F48E
:1039D0006000D4F8AC1008438B492C31086000E03B
:1039E000A8464FF40063D4E9001019400020594064
:1039F0004040014339D1D4F8B000B0F1007F1AD073
:103A000004DC50B1B0F1807F1ED10DE0B0F1407FF9
:103A100018D0B0F1806F17D115E07B48006840F4F2
:103A200000307949086011E0002104F1080002F03B
:103A300015FA05460AE0002104F1280002F0C0FA58
:103A4000054603E002E001E0012500BF00BF5DB9CB
:103A50006D482C30006820F0E060D4F8B0100843C6
:103A600069492C31086000E0A8464FF00072D4E9A3
:103A7000000110400021134658404940084328D116
:103A8000E06CA8B1102804D0202809D0302810D12B
:103A90000DE05D48006840F400305B4908600AE0D2
:103AA000022104F1080002F0D9F9054603E002E022
:103AB00001E0012500BF00BF55B953482030006820
:103AC00020F03000E16C08434F492031086000E0ED
:103AD000A8464FF48053D4E9001019400020594003
:103AE0004040014337D1606EB0F5005F1AD004DC6E
:103AF00050B1B0F5805F1ED10DE0B0F5405F18D039
:103B0000B0F5804F17D115E03F48006840F4003011
:103B10003D49086011E0002104F1080002F09EF91F
:103B200005460AE0002104F1280002F049FA0546A2
:103B300003E002E001E0012500BF00BF55B93248B3
:103B40002430006820F4E040616E08432E4924319F
:103B5000086000E0A8464FF40053D4E90010194073
:103B6000002059404040014335D1A06EB0F5403FA0
:103B70001ED007DC68B1B0F5803F0BD0B0F5003F38
:103B800019D10EE0B0F5802F13D0B0F5A02F12D1CF
:103B900010E012E0012104F1080002F05FF905468F
:103BA0000BE0012104F1280002F00AFA054604E0C6
:103BB00003E002E001E0012500BF00BF55B9124853
:103BC0002430006820F4E020A16E08430E4924311F
:103BD000086000E0A8464FF48043D4E90010194083
:103BE000002059404040014338D1D4F8B400B0F12E
:103BF000405F21D00ADC80B1B0F1805F0ED0B0F11F
:103C0000005F1CD111E000002C440258B0F1804F3D
:103C100013D0B0F1A04F12D110E012E0012104F155
:103C2000080002F01BF905460BE0012104F1280011
:103C300002F0C6F9054604E003E002E001E00125D8
:103C400000BF00BF4DB9F748006820F0E040D4F84D
:103C5000B4100843F349086000E0A8464FF08063C1
:103C6000D4E90010194000205940404001431CD1C4
:103C7000206D48B1B0F5807F07D1012104F1080023
:103C800002F0ECF8054602E001E0012500BF00BFAC
:103C900055B9E4480C38006820F48070216D084361
:103CA000E0490C39086000E0A8464FF40043D4E92D
:103CB00000011840002158404940084329D1606F55
:103CC000B0B1B0F1805F03D0B0F1005F11D108E076
:103CD000D4482C38006840F40030D2492C390860B0
:103CE00009E0012104F1080002F0B8F8054602E0FD
:103CF00001E0012500BF00BF55B9CA480838006877
:103D000020F04050616F0843C6490839086000E060
:103D1000A8464FF08072D4E90010114000201346ED
:103D20005940404001432AD1A06CB8B1012804D0C9
:103D300002280BD0032812D10FE0BA482C380068B3
:103D400040F40030B7492C3908600AE0022104F140
:103D5000080002F083F8054603E002E001E00125D7
:103D600000BF00BF55B9AF480C38006820F0030011
:103D7000A16C0843AB490C39086000E0A8464FF439
:103D80008002D4E900011040002113465840494008
:103D900008437DD1A448006840F48070A2490860BF
:103DA000FFF79AF9064606E0FFF796F9801B6428AC
:103DB00001D9032505E09C48006800F480700028C4
:103DC000F2D000BF85BB97481830006800F44070FF
:103DD000B4F8B81001F44071884213D091481830FB
:103DE000006820F440778F481830006840F4803035
:103DF0008C49183108600846006820F4803008605B
:103E000008460760D4F8B800B0F5807F15D1FFF7F9
:103E100063F9064609E0FFF75FF9801B41F288313C
:103E2000884202D9032507E038E07E481830006850
:103E3000C0F340000028EED000BF55BB00BFB4F86F
:103E4000B80000F44070B0F5407F0ED17548483896
:103E5000006820F47C51754AD4F8B800104041EA5B
:103E6000101070494839086007E06E48483800680B
:103E700020F47C506B49483908606A481830006863
:103E8000B4F8B810C1F30B0108436649183101E0DA
:103E900005E001E0086002E0A84600E0A846012233
:103EA000D4E900101140002013465940404001431E
:103EB00032D1D4F8800018281AD005DC48B108287F
:103EC00008D0102817D10CE0202812D0282812D1B1
:103ED00010E012E0012104F1080001F0BFFF0546E7
:103EE0000BE0012104F1280002F06AF8054604E025
:103EF00003E002E001E0012500BF00BF5DB94948D1
:103F0000001F006820F03800D4F8801008434549AD
:103F1000091F086000E0A8460223D4E90001184008
:103F2000002158404940084329D1E06F062816D2A5
:103F3000DFE800F003040B12131412E0012104F176
:103F4000080001F08BFF05460BE0012104F1280079
:103F500002F036F8054604E003E002E001E0012546
:103F600000BF00BF55B92F48001F006820F00700B0
:103F7000E16F08432B49091F086000E0A8460423AD
:103F8000D4E900011840002158404940084329D194
:103F9000D4F89800062816D2DFE800F003040B12CC
:103FA000131412E0012104F1080001F057FF054647
:103FB0000BE0012104F1280002F002F8054604E0BC
:103FC00003E002E001E0012500BF00BF4DB9154844
:103FD000006820F00700D4F89810084311490860E1
:103FE00000E0A8462023D4E90001184000215840F1
:103FF000494008433CD1D4F89400B0F1405F25D04B
:1040000007DC68B1B0F1805F12D0B0F1005F20D161
:1040100015E0B0F1804F1AD0B0F1A04F19D117E0E0
:1040200019E000005844025800480258FFFCFF0FF6
:10403000002104F1080001F011FF05460BE0022108
:1040400004F1280001F0BCFF054604E003E002E0B3
:1040500001E0012500BF00BF4DB9FE48006820F017
:10406000E040D4F894100843FA49086000E0A846FC
:104070004022D4E90010114000201346594040402E
:10408000014337D1D4F8A000B0F5406F1ED007DC53
:1040900068B1B0F5806F0BD0B0F5006F19D10EE0AC
:1040A000B0F5805F13D0B0F5A05F12D110E012E040
:1040B000002104F1080001F0D1FE05460BE00221C9
:1040C00004F1280001F07CFF054604E003E002E073
:1040D00001E0012500BF00BF5DB9DE48001D00689A
:1040E00020F4E050D4F8A0100843DA49091D086014
:1040F00000E0A8468022D4E90010114000201346B9
:1041000059404040014337D1D4F8A400B0F5C04F26
:104110001ED007DC68B1B0F5005F0BD0B0F5804F62
:1041200019D10EE0B0F5004F13D0B0F5204F12D1E9
:1041300010E012E0002104F1080001F08FFE0546B6
:104140000BE0022104F1280001F03AFF054604E0EB
:1041500003E002E001E0012500BF00BF5DB9BD48FA
:10416000001D006820F46040D4F8A4100843B94949
:10417000091D086000E0A8460823D4E90010194092
:10418000002059404040014315D1D4F88800B0F5D3
:10419000805F07D1022104F1280001F011FF08B16E
:1041A0004FF00108AB48006820F44050D4F8881064
:1041B0000843A84908601022D4E9000110400021FA
:1041C000134658404940084317D1D4F89C00B0F535
:1041D000807F07D1022104F1280001F0F1FE08B12F
:1041E0004FF001089B48001D006820F44070D4F88F
:1041F0009C1008439749091D08604FF40022D4E938
:10420000000110400021134658404940084329D17D
:10421000D4F8A80030B1B0F5803F0AD0B0F5003F27
:104220000FD10DE0002104F1080001F017FE054652
:1042300009E0022104F1280001F0C2FE054602E077
:1042400001E0012500BF00BF5DB98248001D006884
:1042500020F44030D4F8A81008437E49091D0860B6
:1042600000E0A8464FF48023D4E900101940002054
:104270005940404001432BD1D4F88C00B0F5801F49
:1042800006D0B0F5001F0CD0B0F5401F11D10FE0E3
:1042900070482838006840F400306E4928390860BA
:1042A00009E0012104F1280001F08AFE054602E040
:1042B00001E0012500BF00BF4DB96648006820F449
:1042C0004010D4F88C1008436249086000E0A8460A
:1042D0004FF48032D4E900011040002113465840C9
:1042E0004940084325D1606D18B1B0F5803F10D129
:1042F00008E058482838006840F40030554928390B
:10430000086008E0022104F1080001F0A7FD05465D
:1043100001E0012500BF00BF55B94E4808380068CC
:1043200020F48030616D08434A490839086000E094
:10433000A8464FF00053D4E900011840002158402E
:104340004940084307D1022104F1280001F038FE5A
:1043500008B14FF001084FF40032D4E900011040D9
:104360000021134658404940084327D1D4F884001F
:10437000A0B1B0F5807F06D0B0F5007F0CD0B0F5CD
:10438000407F0CD109E033482838006840F4003001
:1043900030492839086004E003E002E001E001252B
:1043A00000BF00BF4DB92B48006820F44070D4F81E
:1043B000841008432749086000E0A8464FF48013A2
:1043C000D4E900101940002059404040014309D170
:1043D0002048001F006820F00040A16F08431D49DD
:1043E000091F08604FF08052D4E9001011400020EE
:1043F00013465940404001430AD1164844380068EA
:1044000020F48040D4F8BC100843124944390860B5
:104410004FF40013D4E900011840002158404940EE
:10442000084309D10B48001F006820F08070216FFD
:1044300008430849091F08604FF08043D4E9000190
:104440001840002158404940084312D100BF01489C
:10445000443801E054440258006820F400404E49BA
:10446000086008460068D4F8C01008434A4908604C
:1044700000BF4FF00042D4E9000110400021134674
:1044800058404940084309D143483C30006820F077
:104490004050A16D084340493C3108604FF400038F
:1044A000D4E90010194000205940404001430AD18E
:1044B00039484430006820F44000D4F89010084394
:1044C00035494431086001220020616811404040B4
:1044D0005140084307D1002104F1080001F0BEFC5F
:1044E000054605B1A84602220020616811404040FF
:1044F0005140084307D1012104F1080001F0AEFC4E
:10450000054605B1A84604220021606810404940D4
:104510005040014307D1022104F1080001F09EFC44
:10452000054605B1A84608220021606810404940B0
:104530005040014306D104F1280001F041FD054639
:1045400005B1A84610220021606810404940504043
:10455000014307D1012104F1280001F031FD054696
:1045600005B1A84620230020616819402022404060
:104570005140084307D1022104F1280001F020FD39
:10458000054605B1A846B8F1000F02D10020BDE8EC
:10459000F0810120FBE70000104402582DE9F041B2
:1045A00004460D4614B90120BDE8F081BD480068FD
:1045B00000F00F00A8420ED2BA48006820F00F00A9
:1045C0002843B84908600846006800F00F00A84278
:1045D00001D00120E8E7207800F0040004280ED183
:1045E000B1492069096801F07001884207D9AE48D5
:1045F000006820F0700021690843AB49086020780A
:1046000000F00800082811D1A749091D6069096850
:1046100001F07001884209D9A348001D006820F00C
:10462000700061690843A049091D0860207800F006
:104630001000102811D19C49091DA069096801F4D6
:10464000E061884209D99848001D006820F4E060C4
:10465000A16908439449091D0860207800F02000F2
:10466000202811D190490831E069096801F07001F2
:10467000884209D98C480830006820F07000E16950
:104680000843894908310860207800F002000228B8
:104690000ED18549E068096801F00F01884207D909
:1046A0008148006820F00F00E16808437E490860F7
:1046B000207800F00100002850D07B48006820F4EA
:1046C0007060A1680843784908606068022807D1D3
:1046D000754818380068C0F34040F8B9012063E716
:1046E0006068032807D1704818380068C0F340603C
:1046F000A0B9012058E76068012807D16A48183836
:104700000068C0F3002048B901204DE7664818381A
:104710000068C0F3800008B9012045E76248083806
:10472000006820F00700616808435F4908390860A5
:10473000FEF7D2FC064608E0FEF7CEFC801B41F2F5
:104740008831884201D903202EE75748083800688D
:1047500000F038006168B0EBC10FEDD1207800F0B7
:10476000020002280ED15049E068096801F00F01EB
:10477000884207D24C48006820F00F00E1680843E7
:10478000494908604748006800F00F00A8420ED968
:104790004448006820F00F0028434249086008465A
:1047A000006800F00F00A84201D00120FCE620784C
:1047B00000F0040004280ED13B492069096801F08B
:1047C0007001884207D23848006820F070002169E3
:1047D000084335490860207800F00800082811D106
:1047E0003149091D6069096801F07001884209D2E8
:1047F0002D48001D006820F07000616908432A49B7
:10480000091D0860207800F01000102811D12649F9
:10481000091DA069096801F4E061884209D22248B3
:10482000001D006820F4E060A16908431E49091DCD
:104830000860207800F02000202811D11A490831A2
:10484000E069096801F07001884209D21648083011
:10485000006820F07000E1690843134908310860DE
:1048600000F076F810490968C1F303210F4A515C42
:1048700001F01F0120FA01F70B48006800F00F005B
:104880001146085C00F01F0027FA00F00849086094
:104890000848076008480068FEF760FC804640460C
:1048A00082E600000020005218440258A8B2000816
:1048B00004000024000000241800002410B500F0BB
:1048C00047F80D490968C1F303210C4A515C01F016
:1048D0001F0120FA01F40848006800F00F0011469B
:1048E000085C00F01F0024FA00F005490860054844
:1048F00004600846006810BD18440258A8B20008B9
:10490000040000240000002400B5FFF7D7FF05498C
:104910000968C1F30211044A515C01F01F01C8404B
:1049200000BD00001C440258A8B2000800B5FFF703
:10493000C5FF05490968C1F30221044A515C01F031
:104940001F01C84000BD00001C440258A8B2000866
:10495000F0B5824E366806F0380636B1082E15D00E
:10496000102E15D0182E7DD114E07C4E103E3668E6
:10497000C6F3401646B1794E103E3668C6F3C107FD
:10498000774E26FA07F000E07548E5E07548E3E069
:104990007548E1E0714E1836366806F003046F4E34
:1049A00018363668C6F305116C4E1C36366806F0AC
:1049B00001056A4E24363668C6F3CC0616FB05F6AA
:1049C00001EE106AB8EE410A002971D024B1012C21
:1049D00050D0022C6DD16DE0604E103E3668C6F3AB
:1049E00040163EB35D4E103E3668C6F3C1075C4EBE
:1049F00026FA07F301EE103AF8EE411A01EE101A0A
:104A0000B8EE411A81EE812A9FED581AC0EE011AC4
:104A1000524E20363668C6F3080601EE106AB8EE2C
:104A2000411A31EE811AF7EE001A31EE211A62EEC8
:104A3000010A1EE001EE101AB8EE411ADFED4C1A21
:104A400081EE812A9FED491AC0EE011A434E2036AD
:104A50003668C6F3080601EE106AB8EE411A31EE68
:104A6000811A00E076E0F7EE001A31EE211A62EECC
:104A7000010A5BE001EE101AB8EE411A9FED3D2AE3
:104A8000C2EE011A9FED391A80EE012A334E20360C
:104A90003668C6F3080601EE106AB8EE411A32EE27
:104AA000011AB7EE002A31EE021A61EE810A3DE0EA
:104AB0004EE01DE001EE101AB8EE411ADFED2E1A9D
:104AC00081EE812A9FED291AC0EE011A234E20366D
:104AD0003668C6F3080601EE106AB8EE411A31EEE8
:104AE000811AF7EE001A31EE211A62EE010A1DE07A
:104AF00001EE101AB8EE411A9FED1E2AC2EE011AFD
:104B00009FED1A1A80EE012A144E20363668C6F33D
:104B1000080601EE106AB8EE411A32EE011AB7EE3D
:104B2000002A31EE021A61EE810A00BF00BF0B4E6F
:104B300020363668C6F34626721C01EE102AB8EEFF
:104B4000411AC0EE811ABCEEE11A11EE100A00E023
:104B5000002001E0034800BF00BFF0BD1044025830
:104B60000090D00300093D0040787D010000004620
:104B70000024744C0024744A20BCBE4B2DE9F0473D
:104B8000044614B90120BDE8F087207800F0010048
:104B9000002870D0FA48006800F03808F84818304B
:104BA000D0F80090B8F1100F06D0B8F1180F0FD15F
:104BB00009F0030002280BD1F14810380068C0F357
:104BC000404000286AD06068002867D10120DAE7F9
:104BD00000BF6068B0F5803F08D1E9481038006830
:104BE00040F48030E649103908602EE0606868B90A
:104BF000E3481038006820F48030E149103908603B
:104C00000846006820F4802008601EE06068B0F567
:104C1000A02F0DD1DA481038006840F48020D84920
:104C2000103908600846006840F4803008600CE0E5
:104C3000D3481038006820F48030D149103908601A
:104C40000846006820F48020086000BF606898B1C2
:104C5000FEF742FA054606E0FEF73EFA401B6428DE
:104C600001D903208FE7C64810380068C0F34040E0
:104C70000028F1D012E012E0FEF72EFA054606E019
:104C8000FEF72AFA401B642801D903207BE7BC48C1
:104C900010380068C0F340400028F1D100BF2078F0
:104CA00000F00200022874D1B548006800F038080E
:104CB000B3481830D0F80090B8F1000F05D0B8F123
:104CC000180F56D109F00300D0BBAD48103800686A
:104CD000C0F3800018B1E06808B9012053E7A84884
:104CE0001038006820F01900E1680843A449103921
:104CF0000860FEF7F1F9054606E0FEF7EDF9401B06
:104D0000022801D903203EE79D4810380068C0F30F
:104D100080000028F1D000BFFEF7D8F941F203016E
:104D200088421AD8206940280BD195480C38006871
:104D300020F47C3040F4003091490C39086017E0D1
:104D400017E08F480C38006820F47C30216940EA75
:104D500001308B490C3908600AE089480C3800683A
:104D600020F0FE40217C40EA016085490C39086052
:104D700066E0E06888B382481038006820F01900C7
:104D8000E16808437E4910390860FEF7A5F9054639
:104D900007E056E0FEF7A0F9401B022801D90320E6
:104DA000F1E6774810380068C0F380000028F1D0A1
:104DB00000BFFEF78BF941F2030188421AD820693F
:104DC00040280BD16E480C38006820F47C3040F449
:104DD00000306B490C39086017E017E068480C3860
:104DE000006820F47C30216940EA013064490C39C4
:104DF00008600AE062480C38006820F0FE40217C20
:104E000040EA01605E490C39086019E05C481038DE
:104E1000006820F001005A4910390860FEF75CF97B
:104E2000054606E0FEF758F9401B022801D9032089
:104E3000A9E6534810380068C0F380000028F1D17B
:104E400000BF207800F0100010287CD14C4800688A
:104E500000F038084A481830D0F80090B8F1080F30
:104E600006D0B8F1180F3DD109F00300012839D15F
:104E7000434810380068C0F3002020B1E069802862
:104E800001D001207FE600BFFEF720F941F20301C7
:104E900088421AD8206A20280AD139480C3800687C
:104EA00020F0F84040F0804035490C39086018E0A7
:104EB00033480C38006820F0F84094F8201040EA9D
:104EC00081602F490C3908600BE02D48001F0068F5
:104ED00020F07C5094F8201040EA01602849091F16
:104EE000086066E0E06978B325481038006840F053
:104EF0008000234910390860FEF7EEF8054606E009
:104F0000FEF7EAF8401B022801D903203BE61C48C3
:104F100010380068C0F300200028F1D000BFFEF771
:104F2000D5F841F2030188421CD8206A20280CD110
:104F300013480C38006820F0F84040F080401049D9
:104F40000C3908601AE035E01CE00D480C380068A8
:104F500020F0F84094F8201040EA816008490C39AC
:104F600008600BE00648001F006820F07C5094F8B1
:104F7000201040EA01600249091F086019E00000A2
:104F800010440258FA48006820F08000F849086090
:104F9000FEF7A2F8054606E0FEF79EF8401B022841
:104FA00001D90320EFE5F2480068C0F30020002893
:104FB000F2D100BF207800F00800082836D16069DF
:104FC000D0B1EB487430006840F00100E84974311A
:104FD0000860FEF781F8054606E0FEF77DF8401B05
:104FE000022801D90320CEE5E14874300068C0F3FF
:104FF00040000028F1D019E0DD487430006820F04E
:105000000100DB4974310860FEF766F8054606E0EA
:10501000FEF762F8401B022801D90320B3E5D4480B
:1050200074300068C0F340000028F1D1207800F00F
:105030002000202830D1A069B8B1CD48006840F4E4
:105040008050CB490860FEF747F8054606E0FEF7BA
:1050500043F8401B022801D9032094E5C4480068A6
:10506000C0F340300028F2D016E0C148006820F4B8
:105070008050BF490860FEF72FF8054606E0FEF7AE
:105080002BF8401B022801D903207CE5B8480068B2
:10509000C0F340300028F2D1207800F0040004284A
:1050A0007DD1B448006840F48070B2490860FEF7D2
:1050B00013F8054606E0FEF70FF8401B642801D9F7
:1050C000032060E5AB48006800F480700028F2D04F
:1050D00000BFA068012808D1A5487030006840F0E2
:1050E0000100A349703108602DE0A06868B9A048AC
:1050F0007030006820F001009D497031086008465A
:10510000006820F0040008601DE0A06805280DD1AB
:1051100097487030006840F004009549703108608D
:105120000846006840F0010008600CE090487030CC
:10513000006820F001008E49703108600846006860
:1051400020F00400086000BFA068A0B1FDF7C4FF14
:10515000054608E0FDF7C0FF401B41F28831884258
:1051600001D903200FE5824870300068C0F3400089
:105170000028EFD013E0FDF7AFFF054608E0FDF78C
:10518000ABFF401B41F28831884201D90320FAE489
:10519000774870300068C0F340000028EFD1606AA3
:1051A00000287DD072481030006800F038001828C0
:1051B00077D0606A022875D16D48006820F0807051
:1051C0006B490860FDF788FF054606E0FDF784FFA0
:1051D000401B022801D90320D5E465480068C0F3CC
:1051E00040600028F2D100BFD4E90A1041EA001063
:1051F0005F492831096840F2F332914308435C4922
:1052000028310860208E401EC0F30800616B491EE3
:105210004FF47E4202EA41210843218F491ED20108
:1052200002EA014108433C21095D491E120202EADB
:10523000016108434E493031086000BF081F006813
:1052400020F00100091F08604948343000684FF61B
:10525000F8718843A16C40EAC100454934310860C7
:1052600043482C30006820F00C00216C0843404972
:105270002C3108600846006820F00200616C084389
:105280003B492C3108600846006840F480300860D3
:105290000846006840F4003008600846006802E0F4
:1052A00093E038E01FE040F4802008600846006882
:1052B00040F0010008602E48006840F080702C49E2
:1052C0000860FDF709FF054606E0FDF705FF401BF6
:1052D000022801D9032056E425480068C0F3406045
:1052E0000028F2D071E02248006820F08070204948
:1052F0000860FDF7F1FE054606E0FDF7EDFE401BF8
:10530000022801D903203EE419480068C0F3406038
:105310000028F2D159E01648283007681448303088
:105320000668606A012821D007F00301A06A814263
:105330001CD1C7F30511E06A884217D1C6F30801F2
:10534000206B401E814211D1606B401EC6F3462186
:1053500088420BD1A06B401EC6F30641884205D19E
:10536000E06B401EC6F30661884205D001200AE4C6
:10537000004402580048025815480068C0F3CC07A2
:10538000A06CB84221D012480838006820F0010013
:105390000F4908390860FDF79FFE054600BFFDF77D
:1053A0009BFE401BFBD00A4800684FF6F87188430B
:1053B000A16C40EAC1000649086005480838006849
:1053C00040F0010002490839086000204AE400006A
:1053D000344402582DE9F041044614B90120BDE8D7
:1053E000F081606A00B900BFA06AB0F5800F00D1FB
:1053F00000BFA249206888420CD0A1492068884299
:1054000008D0A0492068884204D0E0680F2801D95C
:105410000120E4E7204600F0CEFE064697492068CA
:10542000884209D096492068884205D0954920686D
:10543000884201D0082E0DD890492068884207D0B4
:105440008F492068884203D08E492068884203D162
:10545000102E01D90120C2E7A06AB0F5800F1DD13E
:105460008649206888420DD085492068884209D045
:1054700084492068884205D0206BB0F5702F01D98F
:105480000120ACE7206B10B9A089050400E0256B72
:10549000E068B0EB154F03D90120A0E7A08905040F
:1054A00094F8810028B9002084F88000204600F09C
:1054B000EBF8022084F881002068006820F00100E9
:1054C00021680860A069B0F1806F11D16068B0F503
:1054D000800F01D1A06B28B1606848B9A06BB0F112
:1054E000805F05D12068006840F480502168086022
:1054F000606800F48000B0F5800F0BD1E0680728E9
:1055000008D32068006820F48070216D084321686A
:10551000086005E02068006820F480702168086059
:10552000A16AE06908432843E16B0843E168084346
:1055300021688860616A606B0843A16B0843A169B8
:1055400008432169084361690843216A0843616887
:105550000843E16C0843A1680843A16C0843A16DAE
:1055600008432168C860A06AB0F5800F56D1206C4E
:10557000012806D12068006840F4004021680860D6
:1055800005E02068006820F4004021680860606C35
:10559000012806D12068006840F480402168086036
:1055A00005E02068006820F48040216808603349E5
:1055B000206888420AD032492068884206D03149A2
:1055C0002068884202D0B5F5702F0ED02B49206894
:1055D000884207D02A492068884203D02949206898
:1055E00088420CD1B5F5F81F09D12068006840F455
:1055F0000050216808602168E06A08640EE02068B5
:10560000006820F4005021680860012000EB15417B
:1056100000FA01F7E06A384321680864606888B9D5
:10562000A06A38B92068806820F4C05040F4006057
:10563000216888602068806820F4C06040F4806041
:10564000216888602068006D20F0010021680865ED
:10565000606800F48000B0F5800F07D12068C06852
:1056600020F00040616D08432168C8600020C4F844
:105670008400012084F881000020B0E60030014061
:1056800000380040003C0040704770B50446254695
:10569000681EB0F1807F01D301200FE0681E4FF03B
:1056A000E02148610F214FF0FF3001F06BFE002038
:1056B0004FF0E021886107200861002070BD70472D
:1056C00070477047704770472DE9F04704462068DF
:1056D000C569206806682068876840F60F0005EAFB
:1056E0000009B9F1000F0FD105F0200060B106F0FC
:1056F000200010B907F0805030B1606F10B1204623
:10570000616F8847BDE8F087B9F1000F7ED0F84897
:10571000384018B9F74830400028F7D005F00100AC
:1057200058B106F4807040B1012021680862D4F8B5
:10573000900040F00100C4F8900005F0020058B15C
:1057400007F0010040B1022021680862D4F89000FF
:1057500040F00400C4F8900005F0040058B107F0D0
:10576000010040B1042021680862D4F8900040F0A4
:105770000200C4F8900005F0080070B106F02000A7
:1057800010B9DB48384040B1082021680862D4F8DD
:10579000900040F00800C4F8900005F4006060B18B
:1057A00006F0806048B14FF4006021680862D4F8C8
:1057B000900040F02000C4F89000D4F89000002839
:1057C00052D005F0200050B106F0200010B907F0CB
:1057D000805020B1606F10B12046616F8847D4F8C7
:1057E00090A02068806800F04000402802D00AF0B5
:1057F000280070B3204600F081FE2068806800F029
:105800004000402826D100BF00BF00E02DE0216805
:10581000083151E8001F21F040002168083141E8BB
:105820000002002AF1D100BFD4F8800068B1B2486C
:10583000D4F880100865D4F88000FCF799FC98B182
:10584000D4F88000016D88470EE02046FFF73BFF4B
:105850000AE003E02046FFF736FF05E02046FFF7A9
:1058600032FF0020C4F890004CE7E06E01287DD1A3
:1058700005F01000002879D006F010000028FAD0BA
:105880001020216808622068806800F040004028ED
:105890006DD1D4F880000068984988426BD0D4F864
:1058A0008000006895491831884264D0D4F880009F
:1058B00000689249303188425DD0D4F88000006899
:1058C0008E494831884256D0D4F8800000688B4910
:1058D000603188424FD0D4F8800000688749783121
:1058E000884248D0D4F880000068844990318842CA
:1058F00041D0D4F8800000688049A83188423AD06D
:10590000D4F8800000687E49884234D0D4F8800002
:1059100000687B49183188422DD0D4F88000006897
:1059200077493031884226D0D4F880000068744925
:10593000483188421FD0D4F8800000687049603137
:10594000884218D0D4F8800000686D4978318842C8
:1059500011D0D4F8800000686949903188420AD09B
:10596000D4F8800000686649A83102E0CAE07BE014
:1059700001E0884204D1D4F880000068406803E068
:10598000D4F88000006840681FFA80F8B8F1000F72
:1059900058D0B4F85C00404554DDA4F85E80D4F8DB
:1059A0008000C069B0F5807F40D000BF00BF216893
:1059B00051E8001F21F48070226842E800010029AC
:1059C000F5D100BF00BF00BF2168083151E8001FBA
:1059D00021F001002168083141E80002002AF3D1DA
:1059E00000BF00BF00BF2168083151E8001F21F04F
:1059F00040002168083141E80002002AF3D100BFCD
:105A00002020C4F88C000020E06600BF00BF2168A1
:105A100051E8001F21F01000226842E8000100292F
:105A2000F5D100BFD4F88000FCF734F902202067DC
:105A3000B4F85C00B4F85E20801A81B22046FFF70B
:105A40003EFE10E0B4F85C0040450CD1D4F8800074
:105A5000C069B0F5807F06D102202067B4F85C10E1
:105A60002046FFF72CFE4DE634F85C0F6188401AA3
:105A70001FFA80F860885C3CC8B3B8F1000F36D0DC
:105A800000BF00BF216851E8001F21F49070226818
:105A900042E800010029F5D100BF00BF00BF216826
:105AA000083151E8001F124AD24301EA020021687E
:105AB000083141E80002002AF1D100BF2020C4F8DB
:105AC0008C000020E066606700BF00BF216851E8DD
:105AD000001F21F01000226842E800010029F5D1E2
