:020000040800F2
:10000000D0A00724A503000871980008EB9500080C
:10001000D1970008AD34000831BE00080000000090
:10002000000000000000000000000000C1AC00085B
:10003000113500080000000073980008C3AC0008E8
:10004000C3030008C3030008C3030008C303000878
:10005000C3030008C3030008C3030008C303000868
:10006000C3030008C3030008C3030008C303000858
:10007000C3030008C3030008C3030008C303000848
:10008000C3030008C3030008C3030008C303000838
:10009000C3030008C3030008C3030008C303000828
:1000A000C3030008C3030008C3030008C303000818
:1000B000C3030008C3030008C3030008C303000808
:1000C000C3030008C3030008C3030008C3030008F8
:1000D000C303000821BE0008C3030008C3030008CF
:1000E000C3030008C303000800000000C3030008A6
:1000F000C3030008C3030008C3030008C3030008C8
:10010000C3030008C3030008C3030008C3030008B7
:10011000C3030008C3030008C3030008C3030008A7
:10012000C3030008C3030008C3030008C303000897
:10013000C3030008C3030008C3030008C303000887
:10014000C3030008C3030008000000000000000013
:10015000C3030008C3030008C3030008C303000867
:10016000C3030008C3030008C3030008C303000857
:10017000C3030008C3030008C30300080000000015
:10018000C3030008C3030008C3030008C303000837
:10019000C3030008C3030008C3030008C303000827
:1001A000C3030008C3030008C3030008C303000817
:1001B000C3030008C3030008C3030008C303000807
:1001C000C3030008C3030008C3030008C3030008F7
:1001D000C3030008C3030008C3030008C3030008E7
:1001E000C3030008C3030008C3030008C3030008D7
:1001F000C3030008C3030008C3030008C3030008C7
:10020000C3030008C3030008C3030008C3030008B6
:10021000C3030008C3030008C3030008C3030008A6
:10022000C3030008C3030008C3030008C303000896
:10023000C3030008C3030008C3030008C303000886
:10024000C3030008C3030008C3030008C303000876
:10025000C3030008C3030008C3030008C303000866
:10026000C3030008C3030008C3030008C303000856
:10027000C3030008C3030008C3030008C303000846
:10028000C3030008C3030008C30300080000000004
:10029000C3030008C303000800F002F800F072F87E
:1002A0000AA090E8000C82448344AAF10107DA45D1
:1002B00001D100F067F8AFF2090EBAE80F0013F0B1
:1002C000010F18BFFB1A43F001031847D8F00100D3
:1002D000F8F001000A444FF0000C10F8013B13F055
:1002E000070408BF10F8014B1D1108BF10F8015B8F
:1002F000641E05D010F8016B641E01F8016BF9D182
:1003000013F0080F1EBF10F8014BAD1C0C1B09D1D8
:100310006D1E58BF01F801CBFAD505E014F8016B4A
:1003200001F8016B6D1EF9D59142D6D370470000DC
:100330000023002400250026103A28BF78C1FBD8EE
:10034000520728BF30C148BF0B607047662911F0C3
:100350009886642901F0EC86782901F025877329B5
:1003600002F0D583002070471FB511F07CFE02F02B
:10037000E5FB04000020002111F052FDE0601FBDEC
:1003800010B510BD02F09CFC1146FFF7EDFF0EF01A
:1003900083FD02F0BAFC03B4FFF7F2FF03BC0CF0DC
:1003A000ECF800000A4880470A4880470A4800479E
:1003B000FEE7FEE7FEE7FEE7FEE7FEE7FEE7FEE715
:1003C000FEE7FEE705480649064A074B704700006E
:1003D00015350008CDAC000899020008D096072416
:1003E000D0A00724D0980724D098072410B5FF4840
:1003F00000680CF0C4F8FE4800680CF0C0F8FD4836
:1004000000680CF0BCF8FC4800680CF0B8F8FB4839
:1004100000680CF0B4F8FA4800680CF0B0F8F9483D
:1004200000680CF0ACF810BD10B500244FF400705B
:100430000CF0ACF8ED4908600846006800B90124EA
:100440004FF400700CF0A2F8E94908600846006813
:1004500000B901244FF400700CF098F8E5490860E9
:100460000846006800B90124A0200CF08FF8E2498A
:1004700008600846006800B9012440200CF086F8A6
:10048000DE4908600846006800B9012440200CF0ED
:100490007DF8DB4908600846006800B901244FF484
:1004A000F8700CF073F8D74908600846006800B986
:1004B00001240CB1FFF79AFF204610BD2DE9F0474B
:1004C00004460D461646701B00EBD07105EB610922
:1004D00054F8397004EBC901486811F04EFD8046AC
:1004E00054F8350044F8390004EBC500406804EBCB
:1004F000C9014860A94605F1010A1DE054F83A0017
:10050000394611F049FD15D854F83A0044F839003D
:1005100004EBCA00406804EBC901486009F1010915
:1005200054F8390044F83A0004EBC900406804EB81
:10053000CA0148600AF1010AB245DFDDA9EB0500F6
:10054000012805DDA9F1010229462046FFF7B6FF83
:10055000A6EB0900012805DD324609F1010120461C
:10056000FFF7ACFF44F83970404611F00DFD04EB85
:10057000C9014860BDE8F0872DE9F84F04460D46F3
:1005800016461F464FF0000828E04FF0000920E013
:100590004FF0000BDA4612E00B9A0AFB029255F874
:1005A00022100A9A08FB02A254F8220011F00CFD56
:1005B0005946009011F0C3FC83460AF1010A0A98DB
:1005C0008245E9DB0B9808FB009046F820B009F162
:1005D00001090B988145DBDB08F10108B845D4DB44
:1005E000BDE8F88F024612B909B900207047002A09
:1005F00002DD09B90020F9E7002903DD8A4201DDA7
:100600000120F3E7002A03DD914201D10220EDE74A
:10061000002A03DD8A4201DA0320E7E71AB900293C
:1006200001DD0420E2E7002A08DA101E01DB0346A0
:1006300000E043428B4201DA0520D7E7002A08DABE
:10064000101E01DB034600E043428B4201D106202D
:10065000CCE7002A0ADA101E01DB034600E0434221
:100660008B4203DD002901DD0720BFE719B9002A0D
:1006700001DA0820BAE7002903DA914201DD0920F6
:10068000B4E7002A03DA914201D10A20AEE7002A3A
:1006900003DA914201DA0B20A8E71AB9002901DA3E
:1006A0000C20A3E700290ADA081E01DB034600E05C
:1006B0004342934203DD002A01DD0D2096E7002925
:1006C00008DA081E01DB034600E04342934201D1F1
:1006D0000E208BE7002908DA081E01DB034600E044
:1006E0004342934201DA0F2080E700207EE730B5D5
:1006F000034601B10AB9002030BD412901D0412A89
:1007000001D10020F8E7491E521E03EBC20000EBA6
:10071000E100047801F007050120A840044201D05F
:100720000120E9E70020E7E72DE9FE4F04460D46EA
:1007300016461F4600200190781C82000021324896
:100740000BF02BFF781C8200002130480BF025FFB6
:100750004FF0000819E04FF0000912E004EBC80068
:1007600000EBE900017809F0070201209040014206
:1007700005D04FF07E51019811F0E1FB019009F195
:100780000109B145EADB08F10108A845E3DB384679
:1007900011F0FAFB82460146019811F0E5FB019049
:1007A0000120029049E04FF0000AD0463AE04FF0B5
:1007B000000912E004EBC90000EBE800017808F042
:1007C000070201209040014205D04FF07E51504673
:1007D00011F0B5FB824609F10109A945EADB02984F
:1007E00011F0D2FB0090019912E0000034040024C3
:1007F000380400243C040024400400244404002461
:10080000480400244C0400244496072458960724E6
:1008100011F0DAFB8346514611F0BEFB00D804E02C
:1008200008F10108701E4045C1DC00BFFD48029977
:1008300040F821800298401C0290781C0299814265
:10084000B1DB0120029035E04FF0000AD14626E0EE
:100850004FF0000812E004EBC90000EBE80001785B
:1008600008F0070201209040014205D04FF07E5170
:10087000504611F064FB824608F10108B045EADBFE
:10088000029811F081FB0090019911F09DFB8346C5
:10089000514611F081FB00D804E009F10109681EFE
:1008A0004845D5DC00BFE049029841F82090029805
:1008B000401C0290781C02998142C5DB0020029006
:1008C00032E0029991FBF7F1D74A52F821200299C0
:1008D00091FBF7F1491CD44B53F82110501800EB51
:1008E000D0714910D14A1268029B42F82310029934
:1008F00091FBF7F207FB1211CA4A52F82120029924
:1009000091FBF7F307FB1311491CC64B53F8211059
:10091000501800EBD0714910C54A1268029B42F88A
:1009200023100298401C029007FB07F002998842AE
:10093000C7DCBDE8FE8F2DE9F34F8FB04024402087
:100940000A901025AA000021B94800680BF025FE86
:10095000AA000021B54800680BF01FFE04232146C1
:100960000A9A0F98FFF7E0FEE2000021B148006804
:100970000BF013FE00200B9060E3AC4801680B986D
:1009800051F820000290AA4801680B9851F8200005
:10099000019002980830402801DD402001E00298D3
:1009A0000830089001980830402801DD402001E01F
:1009B0000198083006900298083801D5002001E01F
:1009C0000298083809900198083801D5002001E004
:1009D00001980838079009980E9027E307980D9022
:1009E0001CE3DDE90D120F98FFF781FE8146DDE97A
:1009F0000D12491C0F98FFF77AFE022101FB0099A6
:100A0000DDE90D12891C0F98FFF771FE81440E9AE3
:100A1000921C0D990F98FFF76AFEA9EB00090E9A38
:100A2000921C0D99491C0F98FFF761FE022101FBF2
:100A300010990E9A921C0D99891C0F98FFF757FE7A
:100A4000A9EB000007B2DDE90D12891C0F98FFF732
:100A50004EFE81460E9A521C0D99891C0F98FFF785
:100A600046FE022101FB00990E9A921C0D99891CE9
:100A70000F98FFF73CFE8144DDE90D120F98FFF758
:100A800036FEA9EB00090E9A521C0D990F98FFF73C
:100A90002EFE022101FB10990E9A921C0D990F98BF
:100AA000FFF725FEA9EB00000FFA80F8002F02DB0C
:100AB000B8F1000F00DA00BF41463846FFF792FD5B
:100AC0000390039841100B9801FB05060398401C06
:100AD00040100B9900FB0510059002990E98401AE2
:100AE000083000EB0010019A0D99891A084408306B
:100AF000514951F820000490039810281CD2DFE8D7
:100B000000F0081C4A629FB3F2F0EFEEEDECEBEA66
:100B1000E9E8384611F038FA8246049911F054FA9F
:100B200081464448006850F82610484611F007FAFC
:100B30004049096841F826006CE2A7EB080011F073
:100B400023FA8246049911F03FFA81463948006839
:100B500050F82610484611F0F2F93649096841F874
:100B60002600404611F010FA8346344911F02CFA61
:100B70008246049911F028FA81462E4802680598A9
:100B800052F82010484611F0DAF92A490968059A06
:100B900041F822003EE2404611F0F6F9834627492B
:100BA00011F012FA8246049911F00EFA814621489A
:100BB000006850F82610484611F0C1F91D4909682F
:100BC00041F8260026E2384611F0DEF983461B493B
:100BD00011F0FAF98246049911F0F6F981461548A8
:100BE000006850F82610484611F0A9F91149096823
:100BF00041F82600A8EB070011F0C6F982460499D7
:100C000011F0E2F981460B480268059852F820106D
:100C1000484611F094F907490A68059942F82100FD
:100C2000F8E100004496072458960724480400245D
:100C3000440400243804002458700108F704B53F28
:100C4000404611F0A1F98246049911F0BDF98146A0
:100C5000FE48006850F82610484611F070F9FB492C
:100C6000096841F82600D5E107EB080011F08CF97E
:100C70008246049911F0A8F98146F448006850F8BA
:100C80002610484611F05BF9F049096841F8260042
:100C9000B7F1000901DB494601E0C9F1000108464E
:100CA00011F072F9EA49009011F08EF98346049927
:100CB00011F08AF98246E5480068059A50F822103A
:100CC000504611F03CF9E1490968059A41F82200C3
:100CD000A0E166E14DE111E1F5E0BFE09FE069E0F0
:100CE0004DE018E0FFE7404611F04EF98346D84941
:100CF00011F06AF98246049911F066F98146D348E9
:100D0000006850F82610484611F019F9CF490968D3
:100D100041F826007EE1404611F036F98346CC4981
:100D200011F052F98246049911F04EF98146C748F4
:100D3000006850F82610484611F001F9C3490968C7
:100D400041F8260017EB080901D4494601E0C9F132
:100D50000001084611F018F98346049911F034F99E
:100D60008246BA480068059A50F82210504611F0A1
:100D7000E6F8B6490968059A41F822004AE1B7F158
:100D8000000901DB494601E0C9F10001084611F004
:100D9000FBF88346049911F017F98246AB480068C6
:100DA00050F82610504611F0CAF8A849096841F8D1
:100DB00026002FE1A8EB070011F0E6F8824604991F
:100DC00011F002F98146A148006850F82610484603
:100DD00011F0B5F89D49096841F82600B8F10009FD
:100DE00001DB494601E0C9F10001084611F0CCF8E9
:100DF0009749009011F0E8F88346049911F0E4F85F
:100E0000824692480068059A50F82210504611F028
:100E100096F88E490A68059942F82100FAE0B8F17F
:100E2000000901DB494601E0C9F10001084611F063
:100E3000ABF88749009011F0C7F88346049911F088
:100E4000C3F882468148006850F82610504611F0D9
:100E500076F87E49096841F82600DBE0B7F1000921
:100E600001DB494601E0C9F10001084611F08CF8A8
:100E70007749009011F0A8F88346049911F0A4F87E
:100E800082467248006850F82610504611F057F814
:100E90006E49096841F82600A7EB080011F074F8C4
:100EA0008246049911F090F88146684802680598D6
:100EB00052F82010484611F042F864490A68059932
:100EC00042F82100A6E0B8F1000901DB494601E043
:100ED000C9F10001084611F057F88346049911F052
:100EE00073F882465948006850F82610504611F0B1
:100EF00026F85649096841F826008BE017EB0809E7
:100F000001D4494601E0C9F10001084611F03CF85E
:100F10008346049911F058F882464C48006850F80E
:100F20002610504611F00BF84849096841F8260090
:100F3000B7F1000901DB494601E0C9F100010846AB
:100F400011F022F84249009011F03EF883460499CE
:100F500011F03AF882463D480068059A50F8221090
:100F6000504610F0ECFF39490A68059942F8210013
:100F700050E0384611F008F88346354911F024F85E
:100F80008246049911F020F881463048006850F8F4
:100F90002610484610F0D3FF2C49096841F8260076
:100FA00038E0B8F1000901DB494601E0C9F1000170
:100FB000084610F0E9FF2649009011F005F8834635
:100FC000049911F001F882462048006850F8261074
:100FD000504610F0B4FF1D49096841F8260017EB90
:100FE000080901D4494601E0C9F10001084610F0A2
:100FF000CBFF8346049910F0E7FF82461348006850
:1010000050F82610504610F09AFF1049096841F830
:10101000260000BF00BF0D98401C0D9006990D984A
:1010200088427FF7DEAC0E98401C0E9008990E980F
:1010300088427FF7D3AC0B98401C0B900B98A842CA
:101040007FF49BAC00200B901FE0000038040024CC
:10105000F704B53F00200C9011E0DDE90B0101FB26
:101060000506FF49096851F82600FE490EF088FF81
:10107000FD49096841F826000C98401C0C900C981A
:101080000828EADB0B98401C0B900B981028E1DB3A
:1010900011B0BDE8F08F2DE9FF4F8BB004460D462F
:1010A0001E46199F0020079090E2079805EB8000EC
:1010B0000088ADF82800079805EB80004088ADF85F
:1010C0002A000798401C05EB80000088ADF824003A
:1010D0000798401C05EB80004088ADF82600BDF95C
:1010E0002800BDF92410884272D1BDF92A00089069
:1010F00067E0002E41D04FF0FF383AE04FF0FF306C
:10110000069031E0089810EB08002AD4089800EB0C
:1011100008011898814224DABDF928000699401880
:101120001FD4BDF9281006980844B84219DABDF951
:1011300028100698084405900898404404EBC00025
:10114000059900EBE100007801F0070201219140D0
:1011500008430899414404EBC101059A01EBE201FF
:1011600008700698401C069006980228CAD108F11B
:101170000108B8F1020FC1D116E0BDF928000590B1
:10118000089804EBC001059801EBE0000078059990
:1011900001F00702012191400843089904EBC102C4
:1011A000059902EBE1010870BDF92600BDF92A108E
:1011B000884203DD0898401C089002E00898401E11
:1011C0000890BDF926100898814292D1FBE1FFE713
:1011D000BDF92A00BDF92610884275D1BDF9280055
:1011E00008906AE0002E42D04FF0FF383BE04FF00D
:1011F000FF30069032E00699089840182BD40699E3
:10120000089808441899884225DABDF92A0010EB9D
:10121000080020D4BDF92A004044B8421BDA0699E0
:10122000089808440590BDF92A00404404EBC00129
:10123000059801EBE0000078059901F00702012113
:1012400091400843BDF92A10414404EBC1020599BD
:1012500002EBE10108700698401C069006980228EF
:10126000C9D108F10108B8F1020FC0D118E00898FF
:101270000590BDF92A0004EBC001059801EBE000E0
:101280000178059800F00702012090400143C8B2A0
:10129000BDF92A1004EBC101059A01EBE2010870C7
:1012A000BDF92400BDF92810884203DD0898401CD0
:1012B000089002E00898401E0890BDF92410089894
:1012C00081428FD17FE1FFE7BDF92410BDF92820CD
:1012D000881A10F059FE8246BDF92610BDF92A2061
:1012E000881A10F051FE8346514610F03DFE8146AB
:1012F00010F01EFECDE9020121F00041CDE9000110
:101300005AA00CC8009810F0ADFD13D2BDF92410FE
:10131000BDF92820881A10F037FE8146BDF9261045
:10132000BDF92A20881A10F02FFE8246494610F097
:101330001BFE12E0BDF92610BDF92A20881A10F014
:1013400023FE8146BDF92410BDF92820881A10F02B
:101350001BFE8246494610F007FE0490BDF924208A
:10136000BDF92830D01ABDF92620BDF92A30D11A8E
:1013700001D40B4600E04B42002801DB024600E0AE
:10138000424293426BDA002008907EE0089810F009
:10139000FBFD0390049910F017FE834610F0EDFD5D
:1013A000BDF92A1000EB0109BDF92800089900EBEE
:1013B000010A002E3CD04FF0FF3835E04FF0FF30EF
:1013C00006902CE019EB080026D409EB08001899C8
:1013D000884221DA06981AEB00001DD40698504482
:1013E000B84219DA0AF10100059009EB080004EB94
:1013F000C000059900EBE1000178059800F00702B4
:10140000012090400143C8B209EB080104EBC1017F
:10141000059A01EBE20108700698401C06900698B8
:101420000228CFD108F10108B8F1020FC6D113E0AC
:10143000CDF814A004EBC900DDF814A000EBEA001D
:1014400001780AF00702012090400143C8B204EB82
:10145000C90101EBEA010870BDF924000AE01EE0B1
:101460003804002485EBD13E3C0400240000000039
:101470000000F03FBDF92810884203DD0898401CA9
:10148000089002E00898401E0890BDF92400BDF9BC
:101490002810401A089988427FF478AF92E0BDF98D
:1014A0002420BDF92830D01ABDF92620BDF92A30F4
:1014B000D11A01D40B4600E04B42002801DB024662
:1014C00000E0424293427DDB0020089072E0BDF9CB
:1014D0002A10089801EB0009089810F055FD0390B8
:1014E000049910F071FD834610F047FDBDF92810F6
:1014F00000EB010A002E3CD04FF0FF3835E04FF0F2
:10150000FF3006902CE019EB080026D409EB080107
:101510001898814221DA06981AEB00001DD406982B
:101520005044B84219DA06985044059009EB080077
:1015300004EBC000059900EBE1000178059800F08C
:101540000702012090400143C8B209EB080104EBF7
:10155000C101059A01EBE20108700698401C069053
:1015600006980228CFD108F10108B8F1020FC6D1C0
:1015700013E0CDF814A004EBC900DDF814A000EBD3
:10158000EA0001780AF00702012090400143C8B246
:1015900004EBC90101EBEA010870BDF92600BDF9B1
:1015A0002A10884203DD0898401C089002E0089841
:1015B000401E0890BDF92600BDF92A10411A08986E
:1015C000814284D100BF0798401C07900D98411EAE
:1015D000079881427FF469AD0FB0BDE8F08F2DE927
:1015E000F04F099C15464FF0FF360F46B4464FF0BA
:1015F000000935E000EB890ABAF902A0BA4504DA1D
:1016000000EB890ABAF902A000E0BA46574600EB9F
:10161000890ABAF900A0AA4504DA00EB890ABAF9E6
:1016200000A000E0AA46554600EB890ABAF902A0DC
:10163000E24504DD00EB890ABAF902A000E0E246C7
:10164000D44600EB890ABAF900A0B24504DD00EBEC
:10165000890ABAF900A000E0B246564609F101092C
:10166000DDF828A0D145C5DBACEB070A0AF1010A79
:1016700093FBFAFA0AF1010EA6EB050A0AF1010A38
:1016800094FBFAFA0AF101084FF000092BE000EB95
:10169000890ABAF902A0AAEB070A0AFB03FAACEB23
:1016A000070B0BF1010B9AFBFBFAF2440FFA8AFAD3
:1016B00000EB890BABF802A000EB890ABAF900A095
:1016C000AAEB050A0AFB04FAA6EB050B0BF1010BCA
:1016D0009AFBFBFAC2440FFA8AFA00EB890BABF8CB
:1016E00000A009F10109DDF828A0D145CFDBBDE854
:1016F000F08F2DE9FF4784B014461D46BDF9100058
:10170000BDF91410884223D1002619E0BDF810005D
:10171000296804EB81010880BDF81200304400B252
:10172000296804EB810148802868401C2860BDF9C5
:101730001600BDF91210884201DD761C00E0761E0D
:10174000BDF91600BDF91210401AB042DED1E9E031
:10175000BDF91200BDF91610884223D1002619E008
:10176000BDF81200296804EB81014880BDF8100023
:10177000304400B2296804EB810108802868401CCD
:101780002860BDF91400BDF91010884201DD761CF7
:1017900000E0761EBDF91400BDF91010401AB042E9
:1017A000DED1BFE0BDF91410BDF91020881A10F089
:1017B000EBFB8146BDF91610BDF91220881A10F016
:1017C000E3FB8246494610F0CFFB804610F0B0FBA9
:1017D000CDE9020121F00041CDE90001AFF2743002
:1017E0000CC8009810F03EFB13D2BDF91410BDF9DF
:1017F0001020881A10F0C8FB8046BDF91610BDF9FC
:101800001220881A10F0C0FB8146414610F0ACFB54
:1018100012E0BDF91610BDF91220881A10F0B4FBC1
:101820008046BDF91410BDF91020881A10F0ACFBE9
:101830008146414610F098FB0746BDF91420BDF9DA
:101840001030D01ABDF91620BDF91230D11A01D4CA
:101850000B4600E04B42002801DB024600E042421A
:1018600093422FDC002625E0BDF81000304400B282
:10187000296804EB81010880304610F085FB814621
:10188000394610F0A1FB804610F077FBBDF812102E
:10189000084400B2296804EB810148802868401C94
:1018A0002860BDF91400BDF91010884201DD761CD6
:1018B00000E0761EBDF91400BDF91010401AB042C8
:1018C000D2D12EE0002625E0BDF81200304400B24F
:1018D000296804EB81014880304610F055FB8146B1
:1018E000394610F071FB804610F047FBBDF8101030
:1018F000084400B2296804EB810108802868401C74
:101900002860BDF91600BDF91210884201DD761C71
:1019100000E0761EBDF91600BDF91210401AB04263
:10192000D2D100BF08B0BDE8F0872DE9F84F0446DA
:101930000D461646701E00EBD0714FEA6109A5EB0B
:1019400009000090CA46A8000AF020FE8346AA00BB
:101950002146584600F044FDB54205DB06EBD67142
:101960004910B6EB410101D1BDE8F88F4F463CE08C
:10197000002004EB8701088004EB87014880CAF14E
:1019800000081BE004EB8700008807EB08010BEB65
:1019900081010988084400B204EB8701088004EB48
:1019A0008700408807EB08010BEB81014988084458
:1019B00000B204EB8701488008F10108D045E1DD61
:1019C00004EB8700B0F9000090FBF6F000B204EBE6
:1019D0008701088004EB8700B0F9020090FBF6F065
:1019E00000B204EB870148807F1C00988742BFDB70
:1019F00058460AF0C4FDB7E72DE9FF4F91B0044601
:101A00000D461E9E0327802010900F9040200E90C0
:101A10000D9000200B900A908146802009900520AF
:101A2000049029462046049AFFF77FFF4FF0010AF1
:101A300029E004EB8A01B1F90010AAF1010204EBDC
:101A40008202B2F90020881A01D4014600E0414226
:101A5000089104EB8A01B1F90210AAF1010204EB2A
:101A60008202B2F90220881A01D4014600E0414204
:101A70000791DDE90710884201DB089800E007982C
:101A800081440AF1010AAA45D3DB4FEA89000AF032
:101A90007DFD80464FEA8902002140460AF07DFD27
:101AA0004FF0000A15E00AF1010004EB8001042266
:101AB00003A800F095FC04EB8A01042202A800F0C0
:101AC0008FFC0AAB4246DDE90201FFF712FE0AF184
:101AD000010A681E5045E6D14FEA8900B0FBF7F0D5
:101AE00003900AF053FD0C904FEA8900B0FBF7F029
:101AF0000246002103900C980AF04FFD4FF0000AB7
:101B000013E008EB8A000088DDE90B2101EB82017C
:101B1000088008EB8A004088DDE90B2101EB820197
:101B200048800B98401C0B90BA44CA45E9DB4046FC
:101B30000AF025FD0B9B0E9ACDE90023DDE90C038D
:101B4000DDE90F12FFF74BFD4FF400720021FD4855
:101B500000680AF022FDDDE90D23CDE90023012311
:101B6000F848DDE90B210068FFF795FA0C980AF0B8
:101B700006FDF44809990068FEF7DDFE2823099A5E
:101B8000CDE900230123F048F0490268F0480068DD
:101B9000FEF7F2FC1498012806D0022809D0032889
:101BA0000CD0042814D10EE0002006900A200590E5
:101BB00012E00A200690242005900DE024200690D3
:101BC0003E20059008E0002006903E20059003E0AE
:101BD000002015B0BDE8F08F00BF4FF4F87200216F
:101BE000DC4800680AF0D9FC4FF0000A40E04FF0F2
:101BF000000B30E0069A524402EB8202D64B03EB14
:101C0000421252F82B10D04A126852F82B0010F0F2
:101C10002FFA0290069A524402EB8202CE4B03EB5B
:101C2000421252F82B10C84A126852F82B0010F0DA
:101C30001FFA0190029910F0C7F90390C548006897
:101C400050F83A10039810F07AF9C249096841F83F
:101C50003A000BF1010BBBF1280FCBD1504610F02D
:101C600093F9BC49096801EBCA0148600AF1010A0D
:101C7000DDE90501401A5045B9D1DDE90501401AF9
:101C8000421E0021B3480068FEF718FC4FF0000A1E
:101C90000EE0B049096801EBCA01486810F06DF91F
:101CA00006990844AD49085C06F80A000AF1010AE1
:101CB00013988245EDDB002006F80A00307888E7AB
:101CC0002DE9F84F04460D4616461F46DDF82880DC
:101CD0004FF000094FF6FF7AD346012D02DCC846CB
:101CE000BDE8F88F4FF000091CE004EB8900B0F963
:101CF000001009F1010004EB8000B0F900008142FE
:101D00000BD104EB8900B0F9021009F1010004EBDA
:101D10008000B0F90200814200D006E009F1010024
:101D20001FFA80F9681E4845DFDC00BF681E484581
:101D300000D1D5E74FF0000919E004EB8900B0F9B4
:101D40000000504504DA04EB890000881FFA80FA8D
:101D500004EB8900B0F90200584504DA04EB89006D
:101D600040881FFA80FB09F101001FFA80F9A9459C
:101D7000E3DB4FF0000915E004EB89000088A0EBDD
:101D80000A0000B204EB8901088004EB8900408856
:101D9000A0EB0B0000B204EB8901488009F10100BF
:101DA0001FFA80F9A945E7DB3B4632462946204623
:101DB000CDF80080FFF720FE92E72DE9F84F4FF0B5
:101DC0000009C3F800900124EBE0A4F1010900EB45
:101DD0008909B9F9005000EB8409B9F900A0CDF8E0
:101DE00000A0A4F1010900EB8909B9F9026000EB38
:101DF0008409B9F90270DDF800A0BAEB050901D435
:101E0000CA4601E0C9F1000AD446B7EB060901D47D
:101E1000CA4601E0C9F1000AD646F44559DD4FF043
:101E2000000853E0DDF80090A9450ADD05EB08093C
:101E30000FFA89F9D3F800A002EB8A0AAAF80090F9
:101E400009E0A5EB08090FFA89F9D3F800A002EB25
:101E50008A0AAAF80090B7421ADDD3F800A002EB74
:101E60008A0ABAF900A0BAEB050901D4CA4601E012
:101E7000C9F1000A0AFB0EFA9AFBFCFAB2440FFA07
:101E80008AFAD3F800B002EB8B0BABF802A01AE091
:101E9000D3F800A002EB8A0ABAF900A0BAEB050950
:101EA00001D4CA4601E0C9F1000A0AFB0EFA9AFB06
:101EB000FCFAA6EB0A0A0FFA8AFAD3F800B002EB92
:101EC0008B0BABF802A01B1D08F10108E045A9DB54
:101ED00066E04FF0000861E0B7420ADD06EB080952
:101EE0000FFA89F9D3F800A002EB8A0AAAF8029047
:101EF00009E0A6EB08090FFA89F9D3F800A002EB74
:101F00008A0AAAF80290DDF80090A94528DDD3F8E6
:101F100000A002EB8A0ABAF902A0BAEB060901D4C2
:101F2000CA4601E0C9F1000A0AFB0CFA9AFBFEFA64
:101F3000AA440FFA8AFAD3F800B002EB8B0BABF885
:101F400000A028E034040024400400241C7A010886
:101F50003C0400244C0400241CCA0108DCF00108E5
:101F6000D3F800A002EB8A0ABAF902A0BAEB06097C
:101F700001D4CA4601E0C9F1000A0AFB0CFA9AFB37
:101F8000FEFAA5EB0A0A0FFA8AFAD3F800B002EBC0
:101F90008B0BABF800A01B1D08F10108F0459BDB83
:101FA000641C8C42FFF611AFBDE8F88F704753EA0E
:101FB000020C00F069802DE9F04B4FF00006002B79
:101FC0001FBFB3FA83F503FA05F424FA05F65E4061
:101FD00012BF1643B2FA82F502FA05F4C5F12005E4
:101FE0001EBF22FA05FC44EA0C04203556EA044CD4
:101FF0004FEA144418BF641C4FF000084FF000096A
:10200000904271EB030C39D3002919BFB1FA81F763
:1020100001FA07F6B0FA80F700FA07F6C7F12007D1
:102020001EBF20FA07FC46EA0C062037B6FBF4FC7C
:10203000A7EB0507103F07F01F0BCBF120060CFAAA
:102040000BFB2CFA06F644BFB3460026202FA4BF94
:102050005E464FF0000B5BEA060C08BF4FF0010B29
:1020600019EB0B09ABFB027C48EB0608C01B06FB17
:1020700002CC0BFB03CC71EB0C01C1E70B46024613
:1020800041464846BDE8F08B13B54FF000004FF0D5
:102090000001AFF30080BDE81C4070470FB4044955
:1020A00010B503AA029800F037FD10BC5DF814FBD0
:1020B0000C0000240FB41CB5074B06AA7B446946EC
:1020C0000090059800F0F9FC0020694600F008FD3A
:1020D0001CBC5DF814FB0000210A000070B50C4622
:1020E0000546012A05D02878800600D5EA69002334
:1020F00002E0012305E05B1C934202D2E05C002871
:10210000F9D1A869E618C01AA861286A184428629B
:102110002846AFF3008004E0D5E9012114F8010B53
:102120009047B442F8D32846AFF3008070BD00005A
:102130002DE9F0410646002410687529314616A5A0
:1021400010D0AFF30080002802DA404213A507E068
:1021500031688A0701D512A502E0490704D511A507
:10216000012401E0AFF3008000210A2206F12407D8
:1021700009E0B0FBF2FCB0FBF2F302FB1C003030D4
:1021800078541846491C0028F3D123462A46304685
:10219000BDE8F04100F024BA000000002D0000006E
:1021A0002B0000002000000070B504460D462146BB
:1021B0001068AFF300802188090502D50F4A7A44E0
:1021C00002E00E4A7A440E32002104F1240305E0B5
:1021D00000F00F060009965D5E54491C0028F7D1F7
:1021E00020780023000704D5702D02D009B1022306
:1021F00011322046BDE8704000F0F2B958CF01001E
:102200002DE9F05F894604464FF0000ADFF874B10B
:10221000FB44C0F820A02046E1688847002874D01D
:10222000252806D0D4E901219047206A401C20626D
:10223000F1E700265F462046E168884720280546EA
:1022400007DB312D05D2781910F8200C08B10643B0
:10225000F1E7B00701D526F00406C4F81CA000275A
:10226000C4F818A02A2D09D028460AF07FF938B3FF
:1022700004EB8708303DC8F8185019E059F8041BE2
:10228000204604EB87029161E1688847012F0546EB
:1022900018D1E069002820DA26F020061DE0D8F8E1
:1022A000180000EB800005EB40003038C8F818003B
:1022B0002046E168884705460AF058F90028EED123
:1022C000012F0AD02E2D08D12046E16888477F1CB7
:1022D0000546022F46F02006C4DBA069002803DA79
:1022E000404246F00106A061F00701D026F010063A
:1022F0006C2D0BD0682D09D04C2D39D06A2D35D0DE
:10230000742D35D07A2D33D016E038E0E1682F46B1
:1023100020468847B842054609D16C2F26D04FF495
:102320008060E168064320468847054604E06C2F3C
:102330001AD04FF4807006430DB3A5F1410019285F
:1023400002D8203546F400664A46294620462660D3
:102350004E46FDF7FBFF80B101280BD0F61D26F09D
:10236000070000F1080956E74020E4E78020D8E79D
:102370000020D6E706F104094DE7284652E7206A17
:10238000BDE8F09F2ECF010040EA010310B59B0786
:102390000FD1042A0DD310C808C9121F9C42F8D0CF
:1023A00020BA19BA884201D9012010BD4FF0FF3080
:1023B00010BD1AB1D30703D0521C07E0002010BD96
:1023C00010F8013B11F8014B1B1B07D110F8013B22
:1023D00011F8014B1B1B01D1921EF1D1184610BD03
:1023E000032A40F2308010F0030C00F0158011F841
:1023F000013BBCF1020F624498BF11F801CB00F819
:10240000013B38BF11F8013BA2F1040298BF00F86C
:1024100001CB38BF00F8013B11F0030300F0258029
:10242000083AC0F0088051F8043B083A51F804CB50
:10243000A0E80810F5E7121D5CBF51F8043B40F816
:10244000043BAFF30080D20724BF11F8013B11F821
:1024500001CB48BF11F8012B24BF00F8013B00F865
:1024600001CB48BF00F8012B704710B5203AC0F0EF
:102470000B80B1E81850203AA0E81850B1E8185085
:10248000A0E81850BFF4F5AF5FEA027C24BFB1E8C2
:102490001850A0E8185044BF18C918C0BDE8104033
:1024A0005FEA827C24BF51F8043B40F8043B08BF3C
:1024B0007047D20728BF31F8023B48BF11F8012B03
:1024C00028BF20F8023B48BF00F8012B70470000EE
:1024D0004FF0013C50F8042B51F8043B9A4215D1BF
:1024E000A2EB0C03934313EACC130BD150F8042B4B
:1024F00051F8043B9A4209D1A2EB0C03934313EA2F
:10250000CC13E7D04FF00000704700BFD01A01BADB
:10251000B1FA81F101F0180122FA01F0CB40C1F1CA
:102520002001DBB2C0B2C01A2CFA01F3D11A9143D8
:1025300011EAC311E6D17047704770477047704782
:1025400030B5B0F10A024FEA900E71F100034EEA85
:10255000817EB0EB0E0061EB91014FEA101E4EEA56
:10256000017E10EB0E0041EB11114FEA102E4EEAE6
:10257000016E10EB0E0041EB11214FEA104E4EEAB6
:10258000014E10EB0E0041EB1141401841F10001EA
:102590004FEAD00040EA41704FEAD10110EB8005CC
:1025A0004FEA810444EA907444EB01046D1944EB52
:1025B0000404521BA3414FF0000348BF0A3200D568
:1025C00030BD401C41F1000130BD10B500F0BAFA39
:1025D000006810BD10B5044600F0B4FA046010BDE8
:1025E0002DE9F0470D4699469246044600F124082D
:1025F0000168880604D5E06921F01001216000E03F
:102600000120A84201DD471B00E00027A1697A19DB
:1026100002EB0900081AA0612078C00602D4204607
:10262000AFF30080002608E0D4E901211AF8060083
:102630009047206A401C761C20624E45F4DB2078CF
:10264000C0060AD52046AFF3008006E0D4E9012198
:1026500030209047206A401C2062381EA7F10107F5
:10266000F4DC07E0D4E9012118F805009047206A5E
:10267000401C2062281EA5F10105F3DC2046AFF3C3
:1026800000802078000602D50220BDE8F0870120F6
:10269000FBE770472DE9FF4F0C461E464FF0FF3712
:1026A0008BB0D2E90001DDF860800A908A46C1F360
:1026B0000A5505B93D46002108464FF00000BAF121
:1026C000000F00F4400005DA00EB80004FF44001F9
:1026D00001EA50004FEA9059B9F1010F00DDB94607
:1026E0000A9850EA4A000ED044F61050A5F2FF3581
:1026F00045432F14B8F1000F1ED07542291E1EDD70
:10270000C9F100021CE0B8F1010F4FF0000001D048
:10271000302103E0F24305E02154401CB042FBDBD2
:1027200030460022002121540B99C1F80880C1E9EC
:1027300000200FB0BDE8F08FBD1B6D1CDEE74A46E0
:1027400000DA694206A800F041FA06AB93E80700F8
:1027500003AB83E8070050460A9900F0DFFA8DE8E2
:102760000700A0F500501F3800900398002D0ADDE7
:1027700042F21F014A460844002303A90390684619
:1027800000F048FD09E0A0F500504A461F3800233C
:1027900003A90390684600F052FD8DE8070000048D
:1027A000000C03D04FF0FF30410800E01046B8F1B4
:1027B000000F03D00022009215461EE0751E05D4BE
:1027C000FFF7BEFE303262556D1EF9D5B3460122C9
:1027D000084302D000227F1C04E02078302801D179
:1027E00000227F1E002A099784D01DE0112D07DAF0
:1027F000FFF7A6FE303262556D1C50EA0102F5D19A
:10280000084302D00098C8B10EE00021681E05E020
:10281000235C625C63542254401E491C8142F7DBF6
:10282000AB46A81B401E0990002004F80B000B9833
:10283000099AC0F80880C0E9002B7AE711264FF00A
:10284000000857E72DE9F04F88460446D21D22F0D4
:10285000070191B0D1E90001CDE90A0109F0EAFAD6
:1028600002460B98C00F01D02D2007E02068810799
:1028700001D52B2002E0202101EAC000032A0990A3
:1028800001D0072A05DB03464146204600F05EF9E9
:102890000BE12078800601D5E06900E00620B8F160
:1028A000650F814606D0B8F1660F18D0B8F1670FF2
:1028B00070D131E00020B9F1110F009001DB11233C
:1028C00001E009F101030AAA01A90CA8FFF7E2FE41
:1028D000DDE90C70002609F10105834647E001207F
:1028E0004B4600904FF000470AAA01A90CA8FFF739
:1028F000D1FEDDE90DB00C995D46002610B909F155
:1029000001000D18B9EB050003D4C0F1FF3609F141
:102910000105A5EB09002BE0B9F1010F01DA4FF039
:1029200001090020B9F1110F0090484601DD112383
:1029300000E003460AAA01A90CA8FFF7ABFEDDE9F7
:102940000C704D4600268346207800070AD4AB451C
:1029500000DA5D4601A8012D04DD411911F8011CC2
:10296000302907D04F4502DA17F1040F04DA0120AD
:1029700082460FE06D1EEEE7002F02DCED1B3E44A9
:1029800003E0781CA84200DD7D1CB81B00F1010AA1
:102990004FF000472078000703D4AA4501DB4FF031
:1029A000FF3A0021B7F1004F0DF143088DF84310B5
:1029B00024D002202B23002F01DA7F422D230A216D
:1029C000021EA0F1010000DC5FB197FBF1FC97FB58
:1029D000F1F201FB1C7C17460CF1300C08F801CD1C
:1029E000EEE7A8F1010003702188090501D5452112
:1029F00000E06521A0F1010800F8011C09980FA969
:102A0000A1EB0807FF1D00B10120411901EBEA709D
:102A1000A1693844081A401EA0612078C00602D47B
:102A20002046AFF30080099828B1D4E901219047EE
:102A3000206A401C20622078C00622D52046AFF3D1
:102A400000801EE0002E04DBB34502DD01A8805D9E
:102A500000E03020D4E901219047206A401C206228
:102A6000761CAAF101005FEA000A0AD100F066F8BC
:102A7000C0680168405CD4E901219047206A401C8D
:102A80002062281EA5F10105DCDC07E0D4E9012164
:102A900018F8010B9047206A401C2062381EA7F1ED
:102AA0000107F3DC2046AFF30080032011B041E6BC
:102AB00001694A1C02610878704700B58FB0CDE902
:102AC00001310021059105497944CDE903101146F2
:102AD0006846FFF795FB0FB000BD0000E5FFFFFF64
:102AE0000A6802F8010B0A60704710B5436913B118
:102AF000AFF3008001E0FFF7F1FA012010BD12787A
:102B000000F124010A7000224A700122EDE71168E9
:102B10004FF0FF32E9E70000074B70B50D467B44EC
:102B2000FFF7CBFF0446284600F0C2F810B14FF083
:102B3000FF3070BD204670BD1FA7000000487047E1
:102B40008C960724004870476C9607242DE9F041C5
:102B50001F46044603260168072A01F4006004DBCF
:102B600008B116A505E016A503E008B115A500E01B
:102B700015A521F010002060A069C01EA0610FB152
:102B8000401EA0612046AFF300804FB1D4E901217F
:102B900038469047206A401C2062C01C206206E034
:102BA000206AFAE7D4E9012115F8010B9047761E57
:102BB000F8D22046AFF30080BDE8F0814E414E00D0
:102BC0006E616E00494E4600696E66002DE9F04761
:102BD000814616468AB0354878440DC88DE80D0008
:102BE00032487844801C03AC0DC884E80D0041F6DF
:102BF0009B300844372190FBF1F290FBF1F5A5F1F1
:102C0000800501FB12041B3C02D56442012000E058
:102C10000020DFF898A080460027FA44AAF1BE0AF7
:102C20000EE0E0070AD03246684607EB4701012371
:102C30000AEB810100F003FB8DE8070064107F1CA4
:102C4000002CEED1194F7F44AE3F19E0E80715D0B4
:102C500007EB04100DF1180A90E80E008AE80E0048
:102C6000C068F04201D1981908903246012306A9A4
:102C700003A800F0E4FA03AB83E807006D10641CBE
:102C8000002DE3D14FF0010332466946B8F1000F41
:102C900003A802D000F0BEFA01E000F0D0FAC9E9C2
:102CA0000001C9F808200AB0BDE8F08734C7010068
:102CB000007B00F080007047004870476C96072446
:102CC0007546FFF7F9FFAE4605006946534620F00A
:102CD0000700854618B020B5FDF774FBBDE820401D
:102CE0004FF000064FF000074FF000084FF0000BC8
:102CF00021F00701AC46ACE8C009ACE8C009ACE87B
:102D0000C009ACE8C0098D46704710B50446AFF362
:102D100000802046BDE81040FDF73DBB5FEA400C57
:102D200008BF91F0000F4FEA8C234FEAC12243EA1B
:102D300051514FEA1C5018BF00F5F0404FEA3000E7
:102D400018BF41F000415FEA6C5C00F02980BCF1E3
:102D5000FF3F08BF40F080407047130C06BF1204CD
:102D60004FF0100C4FF0000C130E04BF12020CF1C8
:102D7000080C130F04BF12010CF1040C930F04BFD5
:102D800092000CF1020CD30F04BF52000CF1010CA5
:102D900011464FF00002A0F11F00A0EB0C0070479D
:102DA00011F0004F08BF704731F000413FF4D5AF3C
:102DB0000B0C06BF09044FF0100C4FF0000C0B0E6B
:102DC00004BF09020CF1080C0B0F04BF09010CF140
:102DD000040C8B0F04BF89000CF1020CCB0F04BF55
:102DE00049000CF1010CCCF12003A0EB0C0022FAFD
:102DF00003F302FA0CF241EA030100F1010070470B
:102E000020F07F4C80EA030023F07F47ACEB070300
:102E100003F57C5300F0004003F1FF032DE98049E6
:102E20004FEA154B09B44FEA144325EA0B4E24EA46
:102E300003480FF2042606EB132749083E785FEAA1
:102E4000320203FB0667C7F5000707FB06F64FEAE9
:102E500054374FEAD64606F1020607FB066CCCF162
:102E6000005C4FEA1C472CEA074C07FB06F40CFBFE
:102E700006F504EB15464FEA961634BF00204FF0D6
:102E800000404FEAD13706FB07FC4FEA1C4C0CFB15
:102E90000BF7D21B03FB0CF761EB07010CFB0EF7E2
:102EA000B0EB074072EB17420CFB08F734BFA2EB04
:102EB0000742B2EB074261EB17414FEA0C444FEA7D
:102EC000910706FB07FC4FEA1C4C0CFB0BF7B0EB21
:102ED000C74072EB573203FB0CF734BFA2EBC7427B
:102EE000B2EBC74261EB57310CFB0EF7B0EBC700FA
:102EF00072EB57720CFB08F734BFA2EBC702B2EBC0
:102F0000C70261EB5771039F4FEA816141EA921159
:102F100004EBCC044FEAD1374FEA826206FB07FC90
:102F200042EA90124FEA80604FEA1C4C0CFB0BF710
:102F3000D21B03FB0CF761EB07010CFB0EF7B0EBA8
:102F4000074072EB17420CFB08F734BFA2EB0742B5
:102F5000B2EB074261EB17414FEA8C554FEA9107FC
:102F600004EB9C2406FB07FC4FEA1C4C0CFB0BF704
:102F7000B0EBC74072EB573203FB0CF734BFA2EB48
:102F8000C742B2EBC74261EB57310CFB0EF7B0EB17
:102F9000C70072EB57720CFB08F734BFA2EBC702F5
:102FA000B2EBC70261EB577115EB4C254FEA81611B
:102FB00041EA92114FEA82624FEAD13742EA901217
:102FC00006FB07FC44F100044FEA80604FEA1C4C0A
:102FD0000CFB0BF7D21B03FB0CF761EB07010CFB9F
:102FE0000EF7B0EB074072EB17420CFB08F734BF4B
:102FF000A2EB0742B2EB074261EB174115EB1C1540
:103000004FEA813141EA92414FEA823242EA9042EC
:103010004FEA80304FEA0C7644F1000448EA03435B
:103020004EEA0B484FF0000EB2EB080C71EB0307B1
:1030300024BF624639464EEB0E0E4FF0000B0018CF
:10304000524149414BEB0B0BB2EB080C71EB030700
:103050007BF1000B24BF624639464EEB0E0E4FF05B
:10306000000B0018524149414BEB0B0BB2EB080C23
:1030700071EB03077BF1000B24BF624639464EEB30
:103080000E0E51EA020718BF46F0010616EB0E7647
:1030900055F1000254F1000103D5BDE88901BDE8F6
:1030A0000088BDE88901BDE80048B619524141EBEE
:1030B0000101A3F10103704780807F7E7D7C7B7AD4
:1030C0007978777676757473727171706F6E6E6DD4
:1030D0006C6C6B6A6A69686867666665646463637A
:1030E00062616160605F5F5E5E5D5D5C5C5B5B5A00
:1030F0005A5959585857575656555555545453536D
:1031000052525251515050504F4F4F4E4E4D4D4DC7
:103110004C4C4C4B4B4B4A4A4A4949494848484712
:103120004747474646464545454444444443434350
:103130004342424242414141002B9C4630D47700F9
:103140002BD01CB54FEA370703B44FF010004FF0F7
:103150001001BAF1000F06D0BCF1000FDCBF40F047
:10316000080040F008014FF000000FBCBDE810401F
:103170000BF1010BBBF1010F08BF5FEA170722BF7C
:1031800012F1010211F101014FF0004143F100037E
:1031900000F0004043EA00007047F9D35708D0E739
:1031A00046EA064613F1400F4FEA16461FDD13F1BB
:1031B000200FDFBF16430A46002120335B42BED0FA
:1031C000C3F1200746EA064602FA07F74FEA164619
:1031D00046EA0706C3F1200722FA03F201FA07F7CD
:1031E00021FA03F14FF0000342EA0702A7E746EA9B
:1031F000020646EA06464FEA164646EA0106BCBF04
:1032000046EA0646360C4FF000034FF000024FF03E
:10321000000194E72DE9804C9A46934670B491E8FA
:10322000380007C831EA400C48BF34EA430C03D5E4
:10323000FFF7E6FDFFF780FFF0BCBDE8008C2DE94D
:10324000804C9A46934670B491E8380007C810F055
:10325000804F08BF13F0804F03D100F005F8FFF74F
:103260006BFFF0BCBDE8008C20F07F4780EA0300D4
:1032700023F07F4C07EB0C03A3F57C5300F00040D8
:10328000A3F1FE0392F0000F00F0B38095F0000F61
:1032900000F077802DE901494FEA11404FEA1446CA
:1032A00021EA004800FB06FC24EA064708FB06F674
:1032B00007FB08F800FB07F718EB06484CEB164C29
:1032C0004FEA124B18EB07484FEA15464CEB1740F4
:1032D00022EA0B4E0BFB06FC25EA06470EFB06F620
:1032E00007FB0EFE0BFB07F71EEB064E4CEB164CD6
:1032F0004FF000061EEB074E4CEB174B18EB0B087C
:1033000040F1000018EB0E0B58EB000840F10000F4
:103310008F1A4FF000013CBFC943661B14BFB5EBC9
:10332000040C00213CBFC943F61B4FEA17444EEA88
:103330008E0E27EA04454FEA1C4704FB07622CEA7D
:10334000074C05FB07F70CFB05F604FB0CFC16EB22
:10335000074642EB174216EB0C4642EB1C421BEBB6
:10336000060658EB0202414146EA9E0601D5BDE839
:103370000189B619524141EB0101A3F10103BDE8F6
:1033800001894FEA14454FEA114724EA054621EA2C
:10339000074C05FB07F406FB07F70CFB06F105FBE2
:1033A0000CFC11EB074144EB17444FEA124711EBB9
:1033B0000C4144EB1C4422EA074C05FB07F206FBD8
:1033C00007F70CFB06F605FB0CFC16EB074642EB79
:1033D000174216EB0C4642EB1C456A1854F10001EB
:1033E00048BF7047B619524141EB0101A3F10103F7
:1033F000704795F0000F37D04FEA11424FEA14475B
:1034000021EA024624EA074C02FB07F106FB07F714
:103410000CFB06F402FB0CFC14EB074441EB1741D8
:103420004FEA154714EB0C4441EB1C4125EA074CCD
:1034300002FB07F506FB07F70CFB06F602FB0CFC8C
:1034400016EB074645EB174516EB0C4645EB1C42C1
:10345000121951F1000148BF7047B619524141EBB2
:103460000101A3F1010370474FEA14454FEA1147E8
:1034700024EA054621EA074C05FB07F106FB07F79E
:103480000CFB06F24FF0000605FB0CFC12EB0742AA
:1034900041EB174112EB0C4251EB1C4148BF704706
:1034A000921841EB0101A3F10103704700BFFEE751
:1034B00030B5039C42EA811545EA032545EA0445F7
:1034C000C56630BD2DE9F04704460D4616461F4639
:1034D000DDF8208001F064FA814609E001F060FA2D
:1034E000A0EB0900B0F57A7F02D90320BDE8F08790
:1034F0002068406F00F001000028EFD046EA8510F8
:1035000040EA072040EA08402168C8660020EDE74D
:10351000704700000848006820F0040040F00200F6
:103520000549086000BF04480838006800F40050EE
:103530000028F8D0704700000C480258024608687E
:10354000B0B9D1E901031843CB6818430B6918439C
:103550004B6918438B691843CB6918430B6A1843AE
:103560004B6A184313686FF30E031843106019E099
:10357000D1E9070318434B6A1843136823F4F8434F
:1035800018431060D1E901031843CB6818430B6955
:1035900018434B6918438B69184353686FF30E0344
:1035A00018435060002070470246506943F6FE738E
:1035B000984340EA410050610020704710B503462F
:1035C000D1E9000420438C68641E40EA4410CC68B2
:1035D00040EA44201C696FF3150420431861002061
:1035E00010BD000030B50346FAB90868401E4C68AB
:1035F000641E40EA04148868401E44EA0024C86837
:10360000401E44EA0034088A401E44EA0044888A86
:10361000401E44EA0054087E401E44EA00609C6854
:1036200004F070442043986022E0C868401E040300
:10363000888A401E44EA00509C680E4D2C4020436E
:1036400098600868401E4C68641E40EA041488684C
:10365000401E44EA0024088A401E44EA0044087ED2
:10366000401E44EA0060DC6804F070442043D860E7
:10367000002030BDFF0F0FFF2DE9F041044601F09F
:103680008FF9804614B90120BDE8F08194F8350027
:10369000022808D08020606500BF002084F8340034
:1036A00000BF0120F0E7FE492068884249D0FC496C
:1036B00018312068884244D0F94930312068884266
:1036C0003FD0F7494831206888423AD0F449603108
:1036D0002068884235D0F24978312068884230D05D
:1036E000EF499031206888422BD0ED49A8312068FD
:1036F000884226D0EB492068884222D0E949183117
:10370000206888421DD0E74930312068884218D0AF
:10371000E44948312068884213D0E249603120688A
:1037200088420ED0DF4978312068884209D0DD49CF
:1037300090312068884204D0DA49A8312068884254
:1037400001D1012000E0002068B12068006820F06D
:103750001E00216808602068406920F08000216810
:103760004861256806E02068006820F00E002168A6
:1037700008602568CA492068884270D0C849183155
:10378000206888426BD0C64930312068884266D0B4
:10379000C34948312068884261D0C14960312068FE
:1037A00088425CD0BE4978312068884257D0BC49F5
:1037B00090312068884252D0B949A83120688842A7
:1037C0004DD0B8492068884249D0B64918312068A0
:1037D000884244D0B3493031206888423FD0B14953
:1037E0004831206888423AD0AE496031206888422A
:1037F00035D0AC4978312068884230D0A949903121
:10380000206888422BD0A749A8312068884226D05A
:10381000A5492068884222D0A349143120688842F3
:103820001DD0A14928312068884218D09E493C31DA
:103830002068884213D09C495031206888420ED0BD
:10384000994964312068884209D0974978312068C5
:10385000884204D094498C312068884201D10120EB
:1038600000E0002028B1206E006820F48070216EF6
:1038700008608B492068884249D0894918312068FE
:10388000884244D086493031206888423FD08449FC
:103890004831206888423AD08149603120688842A6
:1038A00035D07F4978312068884230D07C499031CA
:1038B000206888422BD07A49A8312068884226D0D7
:1038C00078492068884222D0764918312068884299
:1038D0001DD0744930312068884218D07149483170
:1038E0002068884213D06F496031206888420ED02A
:1038F0006C4978312068884209D06A499031206843
:10390000884204D06749A8312068884206D12068DF
:10391000006820F001002168086005E02068006868
:1039200020F001002168086011E001F039F8A0EBF7
:10393000080005280BD920206065032084F8350095
:1039400000BF002084F8340000BF01209CE62868F6
:1039500000F001000028E8D151492068884249D090
:103960004F4918312068884244D04D493031206891
:1039700088423FD04A494831206888423AD0484975
:1039800060312068884235D04549783120688842C6
:1039900030D043499031206888422BD04049A8312B
:1039A0002068884226D03F492068884222D03D497D
:1039B0001831206888421DD03A4930312068884249
:1039C00018D0384948312068884213D035496031D1
:1039D000206888420ED0334978312068884209D067
:1039E000304990312068884204D02E49A83120689F
:1039F000884201D1012000E0002040B1A66D94F87A
:103A00005C0000F01F013F208840B06007E0A76D18
:103A100094F85C0000F01F01012088407860204984
:103A20002068884276D01E4918312068884271D0BB
:103A30001B493031206888426CD0194948312068D0
:103A4000884267D0164960312068884262D01449A4
:103A50007831206888425DD01149903120688842D1
:103A600058D00F49A8312068884253D00D492068AA
:103A700088424FD00B491831206888424AD0094902
:103A800030312068884245D0064948312068884254
:103A900040D004496031206888423BD0014905E0AC
:103AA0001000024010040240085402587831206887
:103AB00088422FD02549206888422BD023491831CD
:103AC0002068884226D022492068884222D0204996
:103AD0001431206888421DD01D4928312068884251
:103AE00018D01B493C312068884213D01849503106
:103AF000206888420ED0164964312068884209D077
:103B0000134978312068884204D011498C312068EB
:103B1000884201D1012000E0002068B1D4E91910E9
:103B20004860E06E40B1E06E006820F48070E16EA5
:103B30000860D4E91C104860012084F8350000BFFB
:103B4000002084F8340000BF00BF9DE5A0040240BF
:103B50000854025870B504460CB9012070BD94F8A1
:103B60003500022803D0802060650120F6E7DC499B
:103B70002068884249D0DA4918312068884244D008
:103B8000D7493031206888423FD0D5494831206834
:103B900088423AD0D24960312068884235D0D04935
:103BA00078312068884230D0CD49903120688842F1
:103BB0002BD0CB49A8312068884226D0C94920683B
:103BC000884222D0C7491831206888421DD0C54993
:103BD00030312068884218D0C24948312068884274
:103BE00013D0C0496031206888420ED0BD49783179
:103BF0002068884209D0BB4990312068884204D0AF
:103C0000B849A8312068884201D1012000E0002095
:103C1000F0B3042084F83500B149206888424BD0C5
:103C2000AF4918312068884246D0AD49303120680C
:103C3000884241D0AA494831206888423CD0A849EE
:103C400060312068884237D0A549783120688842A1
:103C500032D0A3499031206888422DD0A049A831A4
:103C60002068884228D09F492068884224D09D49F6
:103C70001831206888421FD09A4930312068884224
:103C80001AD0984948312068884215D0954900E0FB
:103C900020E06031206888420ED092497831206857
:103CA000884209D08F4990312068884204D08D49DC
:103CB000A8312068884206D12068006820F0010001
:103CC0002168086009E12068006820F0010021688F
:103CD000086002E12068006820F00E00216808609A
:103CE0007F492068884249D07D4918312068884240
:103CF00044D07B493031206888423FD078494831F0
:103D0000206888423AD0764960312068884235D0B0
:103D1000734978312068884230D0714990312068E9
:103D200088422BD06E49A8312068884226D06D4940
:103D30002068884222D06B491831206888421DD003
:103D4000684930312068884218D066494831206877
:103D5000884213D063496031206888420ED061499F
:103D600078312068884209D05E49903120688842C5
:103D700004D05C49A8312068884206D120680068D8
:103D800020F001002168086005E02068006820F04C
:103D900001002168086052492068884270D050496B
:103DA0001831206888426BD04D49303120688842F4
:103DB00066D04B4948312068884261D0484960311B
:103DC000206888425CD0464978312068884257D0C4
:103DD000434990312068884252D04149A831206837
:103DE00088424DD03F492068884249D03D4918312A
:103DF0002068884244D03B493031206888423FD017
:103E000038494831206888423AD0364960312068C4
:103E1000884235D0334978312068884230D03149E2
:103E20009031206888422BD02E49A83120688842E2
:103E300026D02D492068884222D02B491431206891
:103E400088421DD0284928312068884218D0264948
:103E50003C312068884213D0234950312068884281
:103E60000ED0214964312068884209D01E4978313A
:103E70002068884204D01C498C312068884201D1D6
:103E8000012000E00020D8B1206E006820F480708E
:103E9000216E0860A56D94F85C0000F01F01012000
:103EA00088406860D4E919104860E06E40B1E06E67
:103EB000006820F48070E16E0860D4E91C1048604E
:103EC000012084F8350000BF002084F8340000BFD2
:103ED000206D10B12046216D884700203EE600008D
:103EE000100002401004024008540258024600BF6D
:103EF000107C012801D1022070470120107400BFFE
:103F00001068C06A20F01F001368D8621068C06A89
:103F100008431368D86200BF0020107400BF00BFC0
:103F2000EAE7024600BF107C012801D10220704759
:103F30000120107400BF4868032800D100BF10683A
:103F4000406B20F00100136858631068D0F800043B
:103F500020F001001368C3F800041068806B20F0A3
:103F60000300136898631068806BCB68184313686C
:103F700098631068C06B6FF30D001368D863106806
:103F8000C06B0B6918431368D8631068006C6FF33B
:103F90000C00136818641068006C4B6918431368B0
:103FA00018641068406C6FF30C0013685864106854
:103FB000406C8B691843136858641068C06820F01F
:103FC00003001368D8601068C0680B681843136852
:103FD000D8601068406920F0070013685861D1E983
:103FE00008301843CB69184313685B69184313689A
:103FF00058611068006920F00F001368186110689C
:1040000000694B681843136818611068D0F8000401
:1040100020F00E001368C3F800041068D0F8000404
:104020004B6840EA43001368C3F80004486803285B
:104030000BD11068006920F4807013681861106853
:1040400000698B681843136818611068806C6FF3FF
:104050000B00136898641068806C8B6A18431368AF
:1040600098641068C06C6FF30B001368D864106814
:10407000C06CCB6A18431368D8641068006D6FF386
:104080000E00136818651068006D0B6B18431368F9
:1040900018651068406D6FF3090013685865106863
:1040A000406D4B6B1843136858651068806D6FF353
:1040B0000900136898651068806D8B6B184313684E
:1040C00098651068C06D6FF309001368D8651068B3
:1040D000C06DCB6B18431368D8651068006E6FF322
:1040E0000D00136818661068006E0B6C1843136897
:1040F00018661068806B20F400401368986310689D
:10410000806B4B6C1843136898631068806920F4C7
:104110007F001368986110688069B1F8483040EA00
:104120000340136898611068806920F0FF001368ED
:10413000986110688069CB6C1843136898611068A7
:10414000806B20F40050136898631068806B0B6DCF
:104150001843136898631068806B20F480501368CC
:1041600098631068806B4B6D1843136898631068F0
:10417000806B20F40060136898631068806B8B6D0F
:104180001843136898631068806B20F4806013688C
:1041900098631068806BCB6D184313689863106840
:1041A000806B20F40070136898631068806B0B6E4E
:1041B0001843136898631068806B20F4807013684C
:1041C00098631068806B4B6E18431368986310688F
:1041D000806B20F48040136898631068806B8B6E4E
:1041E00018431368986300BF0020107400BF00BF1D
:1041F0009DE600002DE9F84304460D4614B9012060
:10420000BDE8F883607C10B9204600F0A1F90320D6
:10421000607400BF002000902068D0F8300440F0A7
:1042200080702168C1F830042068D0F8300400F0B4
:104230008070009000BF00BF00F0B2FB064607E0B0
:1042400000F0AEFB801BB0F57A7F01D90320D7E7E1
:104250002068D0F80C0400F480500028F0D02068CA
:10426000D0F830047F4908402168C1F8300428683C
:104270008000696840EAC120298940EA014021683C
:10428000D1F8301408432168C1F8300400BF002081
:1042900000902068D0F8300440F001002168C1F897
:1042A00030042068D0F8300400F00100009000BF16
:1042B00000BF012000F048FA00F072FB064607E05C
:1042C00000F06EFB801BB0F57A7F01D9032097E7E1
:1042D0002068D0F80C0400F480700028F0D000BFF3
:1042E000002000902068406840F00100216848608C
:1042F0002068406800F00100009000BF00BF206807
:10430000806820F0FF002168886020688068A168CC
:104310000843216888602068D0F8A00040F00200BF
:104320002168C1F8A0002068D0F8A00040F0040087
:104330002168C1F8A0002068D0F8A40020F0030094
:104340002168C1F8A4002068D0F8A400E1680843FF
:104350002168C1F8A40000F023FB06462068D0F8CD
:10436000A40000F00300A0B90BE000F019FB801BD3
:10437000B0F57A7F05D900BF0020207400BF03206C
:104380003EE72068D0F8B00000F014001428ECD10B
:1043900013E00BE000F004FB801BB0F57A7F05D939
:1043A00000BF0020207400BF032029E72068D0F858
:1043B000B00000F094009428ECD1686808B16868F7
:1043C00000E001208046284808FB00F0297A01F02F
:1043D000030201219140484346F2A8122968514343
:1043E000B0FBF1F72068D0F8180420F03F002168F6
:1043F000C1F818042068D0F8180438432168C1F8BF
:10440000180400202168C1F8C40000212068C0F809
:10441000C8100020A06100BF00902068406820F014
:104420000100216848602068406800F001000090A9
:1044300000BF00BF2068D0F8940020F0030021687E
:10444000C1F894002068D0F89400616841F001013F
:1044500008432168C1F89400002060610120607465
:104460000020CDE60386FCFF00093D002DE9FF4F4B
:1044700081B004461F46DDF83CA000BF207C012827
:1044800003D1022005B0BDE8F08F0120207400BFE9
:1044900000F086FA83460CE000F082FAA0EB0B00F5
:1044A000B0F57A7F05D900BF0020207400BF03203B
:1044B000E8E72068406F00F001000028ECD0DDF84C
:1044C0003880032F01D2384600E00320064600253D
:1044D00007E01AF80500E9000831884040EA0808BA
:1044E0006D1CB542F5D32068C0F87080A7EB0609B3
:1044F000B24419E0B9F1040F01D2484600E00420AB
:1045000006464FF00008002506E01AF80500E9000D
:10451000884040EA08086D1CB542F6D32068C0F810
:104520007080A9EB0609B244B9F1000FE2D1781C02
:10453000C0F30720791CCBB200902068DDE902129D
:10454000FEF7B6FF00BF0020207400BF00BF99E750
:1045500070472DE9FF4F85B0044692469B46149F55
:10456000129ECDF810A05D4600BF207C012803D12B
:10457000022009B0BDE8F08F0120207400BF022D99
:104580000FD9C5F30720EBB23722009020460699D9
:10459000FEF798FF28B100BF0020207400BF012063
:1045A000E7E7062E08D10020009020683246139BD2
:1045B0000699FEF77DFF26E0042E08D1002000902A
:1045C0000023324620680699FEF772FF1BE0142E86
:1045D00008D1002000903B78324620680699FEF70B
:1045E00067FF10E0242E08D1787800903B7832469F
:1045F00020680699FEF75CFF05E000BF00202074EC
:1046000000BF0120B5E700F0CBF980463FE020680D
:10461000406F00F01000D8B92068006F0390042D9F
:1046200001D2284600E0042002904FF000090CE07F
:104630004FEAC9010398C840C1B2049801700498B8
:10464000401C04906D1E09F1010902988145EFD3C9
:1046500000F0A6F9A0EB0800B0F57A7F05D900BFFD
:104660000020207400BF032083E72068406F00F023
:10467000400060B92068D0F8C00000F02000202879
:1046800005D100BF0020207400BF012071E7002D7C
:10469000BDDC00BF0020207400BF00BF69E72DE92A
:1046A000F84304460E4617469846DDF8209000BFB2
:1046B000207C012802D10220BDE8F883012020746B
:1046C00000BF43463A4631462046CDF80090FEF7FB
:1046D000F9FE054600BF0020207400BF2846EBE726
:1046E00008B5014600BF087C012801D1022008BDA1
:1046F0000120087400BF00BF0020009008684068D7
:1047000040F001000A6850600868406800F001004D
:10471000009000BF00BF00BF002000900868D0F8E4
:10472000040440F008000A68C2F804040868D0F8DD
:10473000040400F00800009000BF00BF00BF00208C
:10474000087400BF00BFD2E710B50446A0B208F05D
:10475000AFF910BD0348006840F00100014908604E
:104760007047000020040058F8B502460B460021AF
:104770006F4DD7E001278F401E6806EA0704002C22
:1047800072D01E7906F00306012E04D01E7906F0C1
:104790000306022E13D190684F000326BE40B0439B
:1047A0004F00DE68BE4030439060506801268E4066
:1047B000B0431E79C6F300168E40304350601E7918
:1047C00006F00306032E09D0D0684F000326BE4032
:1047D000B0434F009E68BE403043D0601E7906F063
:1047E0000306022E13D1CF0802F1200656F8270047
:1047F0004E07F70E0F26BE40B0434F07FF0E1E694F
:10480000BE403043CF0802F1200646F8270010686A
:104810004F000326BE40B0431E7906F003064F004A
:10482000BE40304310605E6806F44036002E78D0FB
:1048300000BF404E366846F002063E4F3E603E46A0
:10484000366806F00206009600BF00BF3A4E8F0899
:1048500056F827008E07370F0F26BE40B043374E5D
:10486000B24202D100262EE05BE0354EB24201D1C9
:10487000012628E0334EB24201D1022623E0324E17
:10488000B24201D103261EE0304EB24201D10426CD
:1048900019E02F4EB24201D1052614E02D4EB2424E
:1048A00001D106260FE02C4EB24201D107260AE0C4
:1048B0002A4EB24201D1082605E0294EB24201D16A
:1048C000092600E00A268F073F0FBE4030431A4EEC
:1048D0008F0846F827004FF0B0463068A0435E6866
:1048E00006F4801606B120434FF0B0463060706881
:1048F000A0435E6806F4001606B120434FF0B046B0
:1049000070606868A0435E6806F4003606B1204314
:1049100068602868A0435E6806F4803606B12043CC
:104920002860491C1E68CE40002E7FF423AFF8BDDE
:1049300080000058F444025808040058000002584F
:104940000004025800080258000C025800100258D7
:104950000014025800180258001C02580020025887
:1049600000240258024613690B400BB1012000E0FD
:104970000020704710B5426921EA020302EA0104EF
:1049800043EA0443836110BD0AB1816101E00B0475
:104990008361704701480068000C70470010005C9C
:1049A00001480068704700001400002403480068B4
:1049B000034909780844014908607047140000243D
:1049C0001C00002410B5052000F036FB02F0F4FDB9
:1049D00010490968C1F303210F4A515C01F01F011E
:1049E00020FA01F40B48006800F00F001146085C43
:1049F00000F01F0024FA00F008490860084804602D
:104A00000F2000F00FF808B1012010BD00F0C2FA2D
:104A10000020FAE718440258862001080400002408
:104A20000000002470B504461148007808B9012040
:104A300070BD0F4800784FF47A71B1FBF0F00D496A
:104A40000968B1FBF0F5284604F03AFA08B10120F4
:104A5000EEE7102C07D200222146501E00F0AFFADC
:104A60000548046001E00120E2E70020E0E70000E3
:104A70001C000024000000241800002470B5044627
:104A80000E46154600BF94F8A000012801D102206F
:104A900070BD012084F8A00000BF022084F8A100AE
:104AA00005EB850101EBC50204F1380101EB820041
:104AB00034223146FDF7D9FC2A463146204604F01F
:104AC00096FD01202168486284F8A10000BF002003
:104AD00084F8A00000BF00BFDAE770B504460CB947
:104AE000012070BD94F8A10028B9002084F8A0002E
:104AF000204600F057F8022084F8A1002068806961
:104B000020F0704021688861D4E901010843E16820
:104B1000084321690843216889690843216888613D
:104B2000A08A0504A069284321688860A08B050439
:104B3000206A28432168C860A08C0504A06A284325
:104B400021680861A08D0504206B28432168486115
:104B500094F83500050294F8360006042068C06A0F
:104B600000F07F402168C86246EA050094F83410DE
:104B700008432168C96A08432168C8622068406BFD
:104B800040F00600216848632068806940F0010019
:104B9000216888610020C4F8A400012084F8A100E5
:104BA00000209EE710B586B0044600BF8A48006822
:104BB00040F00800884908600846006800F00800D6
:104BC000009000BF00BF00BF83481038006840F06D
:104BD00010008149103908600846006800F0100094
:104BE000009000BF00BF7D48808844F24231884277
:104BF0001DD07A48808847F28401884217D07748D0
:104C0000808847F21601884211D07448808845F2A6
:104C1000715188420BD07148808844F284318842B7
:104C200005D06E48808841F2180188427ED100BFCD
:104C300000BF6948001F006840F002006649091F74
:104C400008600846006800F00200009000BF00BF46
:104C500000BF00BF00BF0846006840F08000086049
:104C60000846006800F08000009000BF00BF00BF51
:104C700000BF00BF0846006840F480600860084636
:104C8000006800F48060009000BF00BF00BF00BF5C
:104C900000BF0846006840F480700860084600685D
:104CA00000F48070009000BF00BF00BF00BF00BFD5
:104CB0000846006840F4807008600846006800F408
:104CC0008070009000BF00BF00BF00BF00BF08465B
:104CD000006840F4807008600846006800F4807046
:104CE000009000BF00BF00BF012001900290039020
:104CF0000320049001A93A48FFF736FD20200190D7
:104D000001A93848FFF730FD802001900220029071
:104D100000200390032004900E20059001A9324842
:104D2000FFF722FD4FF40050019000E051E001A98F
:104D30002E48FFF719FD4FF48050019001A92B4830
:104D4000FFF712FD4FF48040019001A92748FFF7BB
:104D50000BFD00BF2048001F006840F480701E4912
:104D6000091F08600846006800F48070009000BFCA
:104D700000BF00BF0846006840F4007008600846A5
:104D8000006800F40070009000BF00BF00BF08463C
:104D9000006840F4806008600846006800F48060A5
:104DA000009000BF00BF4FF4004001900E2005901E
:104DB00001A90E48FFF7D8FC4FF6FF70019001A93A
:104DC0000B48FFF7D1FC7F20019001A90648FFF7AF
:104DD000CBFC06B010BD0000E444025828000024BB
:104DE00000040258001C02580028025800200258F3
:104DF000002402582DE9F04104460E461746984615
:104E000000BF94F8A000012802D10220BDE8F08183
:104E1000012084F8A00000BF022084F8A10008EB64
:104E2000880000EBC80104F1380000EB81052E601A
:104E3000A86A30446860AF60E86A3844E860424677
:104E40002946204604F0D3FB01202168486284F8FB
:104E5000A10000BF002084F8A00000BF00BFD5E77C
:104E60002DE9F04104460E461746984600BF94F8D7
:104E7000A000012802D10220BDE8F081012084F8C1
:104E8000A00000BF022084F8A10008EB880000EB1E
:104E9000C80104F1380000EB8105286830446860DF
:104EA000A8683844E860AE62EF6242462946204670
:104EB00004F09DFB01202168486284F8A10000BF36
:104EC000002084F8A00000BF00BFD5E74178154A54
:104ED000116014490831096821F00101114A0832B2
:104EE0001160121F41681160017B0907C27A41EA13
:104EF0000261827A41EAC241427B41EA8241827B7D
:104F000041EA4241C27B41EA0241427A41EA02213E
:104F1000027A41EA420102781143024A08321160E2
:104F20007047000098ED00E000BF00BF00BFBFF376
:104F30005F8F00BF00BF00BF0548006820F48030CD
:104F40000349086000200249703108607047000082
:104F500024ED00E040F001010D4A11600C49703968
:104F6000096841F480310A4A703A116000BF00BFFD
:104F700000BFBFF34F8F00BF00BF00BF00BF00BF27
:104F800000BFBFF36F8F00BF00BF00BF70470000BE
:104F900094ED00E070470146084600280DDB00BF95
:104FA00000BF00F01F0301229A4043099B0003F158
:104FB000E023C3F8002100BF00BF00BF70472DE908
:104FC000F05F80460D46164606F060FF07463946FC
:104FD0002A46334601F00700C0F1070ABAF1040F70
:104FE00002D94FF0040A01E0C0F1070AD14600F1EE
:104FF000040ABAF1070F02D24FF0000A01E0A0F153
:10500000030AD4464FF0010A0AFA09FAAAF1010A82
:105010000AEA020A0AFA0CFA4FF0010B0BFA0CFB2F
:10502000ABF1010B0BEA030B4AEA0B0421464046A5
:1050300006F034FFBDE8F09F00BF00F00702064B0A
:1050400019684FF6FF031940044B0B4343EA022152
:10505000014B196000BF70470CED00E00000FA053D
:105060000348006840F08070014908607047000004
:105070000C4802582DE9F84304460D461746FFF741
:105080008FFC8046A86900B100BFE86900B100BF8D
:10509000286A00B100BF00BF94F84000012802D187
:1050A0000220BDE8F883012084F8400000BF94F896
:1050B0004100012828D100206064022084F84100CA
:1050C0004346002220212046009704F0D4FC0646E7
:1050D000DEB900222946204604F0CCFB686A78B984
:1050E0004346012202212046009704F0C4FC0646F4
:1050F0005EB902202168C860012084F8410004E004
:10510000012084F8410000E0022600BF002084F85E
:10511000400000BF3046C4E7F8B50446FFF740FC46
:1051200006460CB90120F8BD206A402800D000BF17
:1051300094F8410038B9204600F046F841F2883131
:10514000204600F063F92068006820F4F851A06858
:10515000401E41EA002021680860A06C334600220E
:1051600020210090204604F086FC054635BB2179BD
:10517000E06840EA0160E1690843216A0843216868
:1051800009680F4A1140084321680860208A616954
:1051900041EA0040A169084321684968094A114071
:1051A0000843216848602068006840F001002168D9
:1051B000086000206064012084F841002846B2E7BE
:1051C0002FFFFF00FEF8E0FF10B586B0044600BFD9
:1051D0005248006840F48040504908600846006822
:1051E00000F48040009000BF00BF00BF00BF4B48EC
:1051F0000C30006840F0200048490C310860084637
:10520000006800F02000009000BF00BF00BF00BF9A
:1052100000BF0846006840F040000860084600688B
:1052200000F04000009000BF00BF00BF00BF00BF03
:105230000846006840F0200008600846006800F05A
:105240002000009000BF00BF00BF00BF00BF0846A5
:10525000006840F0200008600846006800F0200068
:10526000009000BF00BF00BF00BF00BF084600683D
:1052700040F0200008600846006800F02000009020
:1052800000BF00BF00BF00BF00BF0846006840F07D
:10529000200008600846006800F02000009000BF71
:1052A00000BF00BF4FF480600190022002900120F7
:1052B0000390032004900920059001A91848FFF7E6
:1052C00053FA402001900A20059001A91548FFF7E4
:1052D0004BFA4FF4807001900A20059001A9104804
:1052E000FFF742FA4FF4007001900A20059001A9DF
:1052F0000B48FFF739FA802001900920059001A999
:105300000748FFF731FA402001900920059001A9D4
:105310000348FFF729FA06B010BD0000D444025834
:1053200000140258001802582DE9F84F04460E46A2
:1053300017460025FFF734FB80462068D0F8189008
:10534000206800F1200A00BF94F84000012802D133
:105350000220BDE8F88F012084F8400000BF94F8D7
:10536000410001284AD100206064002E40D0222054
:1053700084F8410020680069401CA063206800692F
:10538000401C606326632068406920F0406040F064
:105390008060216848612068C0F8189013E0434697
:1053A000012206212046009704F065FB054605B161
:1053B0000CE09AF80000216B0870206B401C206301
:1053C000A06B401EA063A06B0028E8D100BF5DB9B0
:1053D0004346012202212046009704F04CFB05467B
:1053E00015B902202168C860012084F8410006E058
:1053F000606C40F008006064012500E0022500BFF9
:10540000002084F8400000BF2846A2E7816470476E
:105410002DE9F84304460E4617460025FFF7C0FA6B
:105420008046206800F1200900BF94F84000012860
:1054300002D10220BDE8F883012084F8400000BFBB
:1054400094F84100012845D100206064002E3BD033
:10545000122084F8410020680069401CE062206846
:105460000069401CA06266622068406920F04060CC
:105470002168486113E04346012204212046009739
:1054800004F0F9FA054605B10CE0606A007889F885
:105490000000606A401C6062E06A401EE062E06AF0
:1054A0000028E8D100BF5DB9434601220221204611
:1054B000009704F0E0FA054615B902202168C8609B
:1054C000012084F8410006E0606C40F00800606450
:1054D000012500E0022500BF002084F8400000BF45
:1054E0002846A7E710B502F01DF805490968C1F381
:1054F0000211044A515C01F01F01C84010BD0000B8
:10550000204402588620010870B50146844D2D685C
:1055100005F00303824D2D68C5F30510804D2D1D48
:105520002D6805F001047E4D0C352D68C5F3CC05C2
:1055300015FB04F501EE105AB8EE411AF0EE410ADF
:1055400000286FD023B1012B4ED0022B6BD16BE022
:10555000734D283D2D68C5F340153DB3704D283D72
:105560002D68C5F3C1066F4D25FA06F201EE102A2B
:10557000F8EE411A01EE100AB8EE411A81EE812AC6
:105580009FED691AC0EE811A654D08352D68C5F387
:10559000080501EE105AB8EE411A31EE811AF7EE05
:1055A000001A31EE211A22EE010A1CE001EE100A67
:1055B000B8EE411ADFED5D1A81EE812A9FED5A1A8D
:1055C000C0EE811A564D08352D68C5F3080501EE69
:1055D000105AB8EE411A31EE811AF7EE001A31EE88
:1055E000211A22EE010A5BE001EE100AB8EE411A20
:1055F000DFED4F1A81EE812A9FED4B1AC0EE811A22
:10560000474D08352D68C5F3080501EE105AB8EE70
:10561000411A31EE811AF7EE001A31EE211A22EE0C
:10562000010A3DE077E01DE001EE100AB8EE411AF4
:105630009FED402AC2EE011A9FED3B1A80EE812AAF
:10564000374D08352D68C5F3080501EE105AB8EE40
:10565000411A32EE011AB7EE002A31EE021A21EE9B
:10566000810A1DE001EE100AB8EE411ADFED2F1A93
:1056700081EE812A9FED2C1AC0EE811A284D083543
:105680002D68C5F3080501EE105AB8EE411A31EE47
:10569000811AF7EE001A31EE211A22EE010A00BF3C
:1056A00000BF1F4D08352D68C5F3462501EE105A81
:1056B000B8EE411AF7EE001A31EE211AC0EE011AC7
:1056C000BCEEE11A81ED001A154D08352D68C5F3C1
:1056D000064501EE105AB8EE411AF7EE001A31EE07
:1056E000211AC0EE011ABCEEE11A81ED011A0C4D2F
:1056F00008352D68C5F3066501EE105AB8EE411A5B
:10570000F7EE001A31EE211AC0EE011ABCEEE11AD2
:1057100081ED021A03E000250D604D608D6070BDC3
:10572000284402580090D003000000460024744C26
:105730000024744A20BCBE4B70B50146844D2D68D0
:1057400005F00303824D2D68C5F30530804D2D1DF6
:105750002D68C5F300147E4D14352D68C5F3CC05B6
:1057600015FB04F501EE105AB8EE411AF0EE410AAD
:1057700000286FD023B1012B4ED0022B6BD16BE0F0
:10578000734D283D2D68C5F340153DB3704D283D40
:105790002D68C5F3C1066F4D25FA06F201EE102AF9
:1057A000F8EE411A01EE100AB8EE411A81EE812A94
:1057B0009FED691AC0EE811A654D10352D68C5F34D
:1057C000080501EE105AB8EE411A31EE811AF7EED3
:1057D000001A31EE211A22EE010A1CE001EE100A35
:1057E000B8EE411ADFED5D1A81EE812A9FED5A1A5B
:1057F000C0EE811A564D10352D68C5F3080501EE2F
:10580000105AB8EE411A31EE811AF7EE001A31EE55
:10581000211A22EE010A5BE001EE100AB8EE411AED
:10582000DFED4F1A81EE812A9FED4B1AC0EE811AEF
:10583000474D10352D68C5F3080501EE105AB8EE36
:10584000411A31EE811AF7EE001A31EE211A22EEDA
:10585000010A3DE077E01DE001EE100AB8EE411AC2
:105860009FED402AC2EE011A9FED3B1A80EE812A7D
:10587000374D10352D68C5F3080501EE105AB8EE06
:10588000411A32EE011AB7EE002A31EE021A21EE69
:10589000810A1DE001EE100AB8EE411ADFED301A60
:1058A00081EE812A9FED2C1AC0EE811A284D103509
:1058B0002D68C5F3080501EE105AB8EE411A31EE15
:1058C000811AF7EE001A31EE211A22EE010A00BF0A
:1058D00000BF1F4D10352D68C5F3462501EE105A47
:1058E000B8EE411AF7EE001A31EE211AC0EE011A95
:1058F000BCEEE11A81ED001A154D10352D68C5F387
:10590000064501EE105AB8EE411AF7EE001A31EED4
:10591000211AC0EE011ABCEEE11A81ED011A0C4DFC
:1059200010352D68C5F3066501EE105AB8EE411A20
:10593000F7EE001A31EE211AC0EE011ABCEEE11AA0
:1059400081ED021A03E000250D604D608D6070BD91
:10595000284402580090D003000000460024744CF4
:105960000024744A20BCBE4B70B50146844D2D689E
:1059700005F00303824D2D68C5F30550804D2D1DA4
:105980002D68C5F300247E4D1C352D68C5F3CC056C
:1059900015FB04F501EE105AB8EE411AF0EE410A7B
:1059A00000286FD023B1012B4ED0022B6BD16BE0BE
:1059B000734D283D2D68C5F340153DB3704D283D0E
:1059C0002D68C5F3C1066F4D25FA06F201EE102AC7
:1059D000F8EE411A01EE100AB8EE411A81EE812A62
:1059E0009FED691AC0EE811A654D18352D68C5F313
:1059F000080501EE105AB8EE411A31EE811AF7EEA1
:105A0000001A31EE211A22EE010A1CE001EE100A02
:105A1000B8EE411ADFED5D1A81EE812A9FED5A1A28
:105A2000C0EE811A564D18352D68C5F3080501EEF4
:105A3000105AB8EE411A31EE811AF7EE001A31EE23
:105A4000211A22EE010A5BE001EE100AB8EE411ABB
:105A5000DFED4F1A81EE812A9FED4B1AC0EE811ABD
:105A6000474D18352D68C5F3080501EE105AB8EEFC
:105A7000411A31EE811AF7EE001A31EE211A22EEA8
:105A8000010A3DE077E01DE001EE100AB8EE411A90
:105A90009FED402AC2EE011A9FED3B1A80EE812A4B
:105AA000374D18352D68C5F3080501EE105AB8EECC
:105AB000411A32EE011AB7EE002A31EE021A21EE37
:105AC000810A1DE001EE100AB8EE411ADFED301A2E
:105AD00081EE812A9FED2C1AC0EE811A284D1835CF
