:020000040800F2
:10000000109D072499030008AD030008AF03000802
:1000100031160008B3030008B50300080000000013
:10002000000000000000000000000000B70300080E
:10003000B903000800000000BB030008BD0300086E
:10004000BF030008BF030008BF030008BF03000888
:10005000BF030008BF030008BF030008BF03000878
:10006000BF030008BF030008BF030008BF03000868
:10007000BF030008BF030008BF030008BF03000858
:10008000BF030008BF030008BF030008BF03000848
:10009000BF030008BF030008BF030008BF03000838
:1000A000BF030008BF030008BF030008BF03000828
:1000B000BF030008BF03000891160008BF03000833
:1000C000BF030008BF030008BF030008BF03000808
:1000D000BF030008CD160008BF030008BF030008D7
:1000E000BF030008BF03000800000000BF030008B2
:1000F000BF030008BF030008BF030008BF030008D8
:10010000BF030008BF030008BF030008BF030008C7
:10011000BF030008BF030008BF030008BF030008B7
:10012000BF030008BF030008BF030008BF030008A7
:10013000BF030008BF030008BF030008BF03000897
:10014000BF030008BF03000800000000000000001B
:10015000BF030008BF030008BF030008BF03000877
:10016000BF030008BF030008BF030008BF03000867
:10017000BF030008BF030008BF0300080000000021
:10018000BF030008BF030008BF030008BF03000847
:10019000BF030008BF030008BF030008BF03000837
:1001A000BF030008BF030008BF030008BF03000827
:1001B000BF030008BF030008BF030008BF03000817
:1001C000BF030008BF030008BF030008BF03000807
:1001D000BF030008BF030008BF030008BF030008F7
:1001E000BF030008BF030008BF030008BF030008E7
:1001F000BF030008BF030008BF030008BF030008D7
:10020000BF030008BF030008BF030008BF030008C6
:10021000BF030008BF030008BF030008BF030008B6
:10022000BF0300082D150008A5150008BF0300082E
:10023000BF030008BF030008BF030008BF03000896
:10024000BF030008BF030008BF030008BF03000886
:10025000BF030008BF030008BF030008BF03000876
:10026000BF030008BF030008BF030008BF03000866
:10027000BF030008BF030008BF030008BF03000856
:10028000BF030008BF030008BF0300080000000010
:10029000BF030008BF03000800F002F800F06DF88B
:1002A0000AA090E8000C82448344AAF10107DA45D1
:1002B00001D100F062F8AFF2090EBAE80F0013F0B6
:1002C000010F18BFFB1A43F0010318471454010033
:1002D000345401000A444FF0000C10F8013B13F0B5
:1002E000070408BF10F8014B1D1108BF10F8015B8F
:1002F000641E05D010F8016B641E01F8016BF9D182
:1003000013F0080F1EBF10F8014BAD1C0C1B09D1D8
:100310006D1E58BF01F801CBFAD505E014F8016B4A
:1003200001F8016B6D1EF9D59142D6D370470000DC
:100330000023002400250026103A28BF78C1FBD8EE
:10034000520728BF30C148BF0B607047642900F0D6
:100350004181752900F03E81782900F07781632979
:1003600000F02D84732900F03284002070471FB5FF
:100370000FF0C7FD1FBD10B510BD00F05BFC1146AE
:10038000FFF7F5FF08F094F900F079FC03B4FFF7EC
:10039000F2FF03BC01F0E7F9DFF83000016841F437
:1003A00070010160BFF34F8F09480047FEE7FEE789
:1003B000FEE7FEE7FEE7FEE7FEE7FEE7FEE7FEE715
:1003C00004480549054A064B7047000088ED00E0E7
:1003D0009902000810930724109D07241095072404
:1003E00010950724704753EA020C00F069802DE94C
:1003F000F04B4FF00006002B1FBFB3FA83F503FA52
:1004000005F424FA05F65E4012BF1643B2FA82F5EF
:1004100002FA05F4C5F120051EBF22FA05FC44EAE4
:100420000C04203556EA044C4FEA144418BF641CEF
:100430004FF000084FF00009904271EB030C39D3E4
:10044000002919BFB1FA81F701FA07F6B0FA80F76F
:1004500000FA07F6C7F120071EBF20FA07FC46EA9C
:100460000C062037B6FBF4FCA7EB0507103F07F09E
:100470001F0BCBF120060CFA0BFB2CFA06F644BF3F
:10048000B3460026202FA4BF5E464FF0000B5BEA68
:10049000060C08BF4FF0010B19EB0B09ABFB027CFC
:1004A00048EB0608C01B06FB02CC0BFB03CC71EB30
:1004B0000C01C1E70B46024641464846BDE8F08BB9
:1004C00013B54FF000004FF00001AFF30080BDE81E
:1004D0001C40704710B54C1084EA530404D54042C8
:1004E000C1F1000138BF491E1B4204D55242C3F17D
:1004F000000338BF5B1EFFF776FF14F0804F04D077
:100500004042C1F1000138BF491E14F0004F04D031
:100510005242C3F1000338BF5B1E10BD0FB4044943
:1005200010B503AA029800F057FB10BC5DF814FB4D
:100530000400002470B5044685690068C10601D531
:10054000302600E02026C00707D070BDD4E9012185
:1005500030469047206A401C20626D1EF6D570BD63
:1005600070B5044685690078C00707D170BDD4E92D
:10057000012120209047206A401C20626D1EF6D584
:1005800070BD70B50C460546012A05D02878800656
:1005900000D5EA69002302E0012305E05B1C9342D9
:1005A00002D2E05C0028F9D1A869E618C01AA86157
:1005B000286A184428622846FFF7BCFF04E0D5E902
:1005C000012114F8010B9047B442F8D32846FFF7F5
:1005D000C7FF70BD2DE9F04106460024106875295B
:1005E000314616A510D0AFF30080002802DA404251
:1005F00013A507E031688A0701D512A502E0490773
:1006000004D511A5012401E0AFF3008000210A22E6
:1006100006F1240709E0B0FBF2FCB0FBF2F302FBA9
:100620001C00303078541846491C0028F3D123466A
:100630002A463046BDE8F04100F05EBA00000000F6
:100640002D0000002B0000002000000070B50446C3
:100650000D4621461068AFF300802188090502D5B8
:100660000F4A7A4402E00E4A7A440E32002104F125
:10067000240305E000F00F060009965D5E54491C56
:100680000028F7D120780023000704D5702D02D070
:1006900009B1022311322046BDE8704000F02CBAA7
:1006A000D04D01002DE9F05F894604464FF0000A65
:1006B000DFF874B1FB44C0F820A02046E168884709
:1006C000002874D0252806D0D4E901219047206A5B
:1006D000401C2062F1E700265F462046E16888471B
:1006E0002028054607DB312D05D2781910F8200C9B
:1006F00008B10643F1E7B00701D526F00406C4F8B7
:100700001CA00027C4F818A02A2D09D0284601F003
:1007100023F838B304EB8708303DC8F8185019E0C7
:1007200059F8041B204604EB87029161E168884771
:10073000012F054618D1E069002820DA26F02006AE
:100740001DE0D8F8180000EB800005EB40003038C1
:10075000C8F818002046E1688847054600F0FCFF0D
:100760000028EED1012F0AD02E2D08D12046E168B5
:1007700088477F1C0546022F46F02006C4DBA0698F
:10078000002803DA404246F00106A061F00701D0DC
:1007900026F010066C2D0BD0682D09D04C2D39D0C9
:1007A0006A2D35D0742D35D07A2D33D016E038E04F
:1007B000E1682F4620468847B842054609D16C2F8C
:1007C00026D04FF48060E1680643204688470546FE
:1007D00004E06C2F1AD04FF4807006430DB3A5F1DE
:1007E0004100192802D8203546F400664A462946B9
:1007F000204626604E46FFF7A9FD80B101280BD0A8
:10080000F61D26F0070000F1080956E74020E4E74E
:100810008020D8E70020D6E706F104094DE72846F6
:1008200052E7206ABDE8F09FA64D0100401ECAB203
:1008300010F8011F8A4202D00029F9D10020704728
:1008400040EA010310B59B070FD1042A0DD310C84D
:1008500008C9121F9C42F8D020BA19BA884201D99F
:10086000012010BD4FF0FF3010BD1AB1D30703D0E7
:10087000521C07E0002010BD10F8013B11F8014B9D
:100880001B1B07D110F8013B11F8014B1B1B01D1B9
:10089000921EF1D1184610BD40EA0103024630B560
:1008A0009B0710D14FF0013400E008C208C91D1B9E
:1008B0009D4315EAC41FF8D013F0FF0102F8011B95
:1008C0000DD01B0AF8E711F8013B002B02F8013BA1
:1008D00005D011F8013B002B02F8013BF3D130BDEC
:1008E000421E12F8013F002BFBD111F8013B002BF7
:1008F00002F8013BF9D17047032A40F2308010F032
:10090000030C00F0158011F8013BBCF1020F6244AA
:1009100098BF11F801CB00F8013B38BF11F8013B3B
:10092000A2F1040298BF00F801CB38BF00F8013BE8
:1009300011F0030300F02580083AC0F0088051F858
:10094000043B083A51F804CBA0E80810F5E7121D63
:100950005CBF51F8043B40F8043BAFF30080D20782
:1009600024BF11F8013B11F801CB48BF11F8012B4E
:1009700024BF00F8013B00F801CB48BF00F8012B71
:10098000704710B5203AC0F00B80B1E81850203AFB
:10099000A0E81850B1E81850A0E81850BFF4F5AF1F
:1009A0005FEA027C24BFB1E81850A0E8185044BFA9
:1009B00018C918C0BDE810405FEA827C24BF51F816
:1009C000043B40F8043B08BF7047D20728BF31F80A
:1009D000023B48BF11F8012B28BF20F8023B48BF5B
:1009E00000F8012B704702F0FF0343EA032242EABA
:1009F000024200F002B84FF000020429C0F0128059
:100A000010F0030C00F01B80CCF1040CBCF1020FC1
:100A100018BF00F8012BA8BF20F8022BA1EB0C0196
:100A200000F00DB85FEAC17C24BF00F8012B00F88C
:100A3000012B48BF00F8012B70474FF0000200B5B2
:100A4000134694469646203922BFA0E80C50A0E8F1
:100A50000C50B1F12001BFF4F7AF090728BFA0E89F
:100A60000C5048BF0CC05DF804EB890028BF40F86B
:100A7000042B08BF704748BF20F8022B11F0804FAD
:100A800018BF00F8012B70474FF0013C50F8042BC1
:100A900051F8043B9A4215D1A2EB0C03934313EA9D
:100AA000CC130BD150F8042B51F8043B9A4209D1D6
:100AB000A2EB0C03934313EACC13E7D04FF00000F2
:100AC000704700BFD01A01BAB1FA81F101F01801E4
:100AD00022FA01F0CB40C1F12001DBB2C0B2C01A52
:100AE0002CFA01F3D11A914311EAC311E6D17047F0
:100AF00070477047704770472DE9F0470D4699469B
:100B00009246044600F124080168880604D5E0698D
:100B100021F01001216000E00120A84201DD471B07
:100B200000E00027A1697A1902EB0900081AA06108
:100B30002078C00602D42046FFF7FCFC002608E01F
:100B4000D4E901211AF806009047206A401C761C5F
:100B500020624E45F4DB2078C0060AD52046FFF718
:100B6000E9FC06E0D4E9012130209047206A401CCE
:100B70002062381EA7F10107F4DC07E0D4E9012167
:100B800018F805009047206A401C2062281EA5F135
:100B90000105F3DC2046FFF7E3FC2078000602D5D0
:100BA0000220BDE8F0870120FBE710B5436913B1CF
:100BB000AFF3008001E0FFF7E4FC012010BD1278E4
:100BC00000F124010A7000224A700122EDE7116849
:100BD0004FF0FF32E9E70000074B70B50D467B444C
:100BE00000F011F80446284600F020F810B14FF04C
:100BF000FF3070BD204670BDCB3B000001694A1C30
:100C000002610878704700B58FB0CDE9013100214D
:100C1000059105497944CDE9031011466846FFF76F
:100C200041FD0FB000BD0000E5FFFFFF007B00F0BD
:100C300080007047754600F02BF8AE460500694607
:100C4000534620F00700854618B020B5FFF7B8FBE3
:100C5000BDE820404FF000064FF000074FF00008BD
:100C60004FF0000B21F00701AC46ACE8C009ACE83E
:100C7000C009ACE8C009ACE8C0098D46704710B5A2
:100C80000446AFF300802046BDE81040FFF77EBB6E
:100C900000487047B092072430B5039C42EA8115A2
:100CA00045EA032545EA0445C56630BDF0B504466E
:100CB000059D0A2606E0C6F10A00B0F57A7F01D943
:100CC0000320F0BD2068406F00F001000028F2D042
:100CD00042EA811040EA032040EA05402768F866AE
:100CE0000020EEE7024600BF107C012801D102205F
:100CF00070470120107400BF1068C06A20F01F0008
:100D00001368D8621068C06A08431368D86200BFCD
:100D10000020107400BF00BFEAE7024600BF107C4D
:100D2000012801D1022070470120107400BF4868DB
:100D3000032800D100BF1068406B20F00100136849
:100D400058631068D0F8000420F001001368C3F85D
:100D500000041068806B20F003001368986310682B
:100D6000806BCB681843136898631068C06B6FF38F
:100D70000D001368D8631068C06B0B6918431368C3
:100D8000D8631068006C6FF30C0013681864106867
:100D9000006C4B691843136818641068406C6FF35B
:100DA0000C00136858641068406C8B691843136812
:100DB00058641068C06820F003001368D860106899
:100DC000C0680B6818431368D8601068406920F049
:100DD000070013685861D1E908301843CB691843FC
:100DE00013685B691843136858611068006920F044
:100DF0000F0013681861106800694B681843136886
:100E000018611068D0F8000420F00E001368C3F8D1
:100E100000041068D0F800044B6840EA43001368EF
:100E2000C3F80004486803280BD11068006920F457
:100E3000807013681861106800698B681843136824
:100E400018611068806C6FF30B0013689864106869
:100E5000806C8B6A1843136898641068C06C6FF3D9
:100E60000B001368D8641068C06CCB6A1843136811
:100E7000D8641068006D6FF30E0013681865106871
:100E8000006D0B6B1843136818651068406D6FF3A5
:100E90000900136858651068406D4B6B1843136860
:100EA00058651068806D6FF30900136898651068C5
:100EB000806D8B6B1843136898651068C06D6FF375
:100EC00009001368D8651068C06DCB6B18431368B0
:100ED000D8651068006E6FF30D001368186610680F
:100EE000006E0B6C1843136818661068806B20F452
:100EF0000040136898631068806B4B6C184313684C
:100F000098631068806920F47F0013689861106806
:100F10008069B1F8483040EA03401368986110686E
:100F2000806920F0FF001368986110688069CB6CBD
:100F30001843136898611068806B20F400501368A0
:100F400098631068806B0B6D184313689863106882
:100F5000806B20F48050136898631068806B4B6D31
:100F60001843136898631068806B20F4006013685E
:100F700098631068806B8B6D1843136898631068D2
:100F8000806B20F48060136898631068806BCB6D71
:100F90001843136898631068806B20F4007013681E
:100FA00098631068806B0B6E184313689863106821
:100FB000806B20F48070136898631068806B4B6EB0
:100FC0001843136898631068806B20F4804013689E
:100FD00098631068806B8B6E18431368986300BF2A
:100FE0000020107400BF00BF9DE600002DE9F8430B
:100FF00004460D4614B90120BDE8F883607C10B9A1
:10100000204600F094F90320607400BF0020009097
:101010002068D0F8300440F080702168C1F83004B6
:101020002068D0F8300400F08070009000BF00BF4E
:101030000A2606E0C6F10A00B0F57A7F01D903203E
:10104000DAE72068D0F80C0400F480500028F1D0D2
:101050002068D0F830047C4908402168C1F8300489
:1010600028688000696840EAC120298940EA014077
:101070002168D1F8301408432168C1F8300400BF5A
:10108000002000902068D0F8300440F00100216872
:10109000C1F830042068D0F8300400F0010000905E
:1010A00000BF00BF012000F03BFA0A2606E0C6F1AF
:1010B0000A00B0F57A7F01D903209DE72068D0F8B7
:1010C0000C0400F480700028F1D000BF00200090D4
:1010D0002068406840F0010021684860206840684E
:1010E00000F00100009000BF00BF2068806820F081
:1010F000FF002168886020688068A1680843216833
:1011000088602068D0F8A00040F002002168C1F893
:10111000A0002068D0F8A00040F004002168C1F8C9
:10112000A0002068D0F8A40020F003002168C1F8D6
:10113000A4002068D0F8A400E16808432168C1F841
:10114000A4000A262068D0F8A40000F0030098B993
:101150000AE0C6F10A00B0F57A7F05D900BF002089
:10116000207400BF032047E72068D0F8B00000F0EB
:1011700014001428EDD112E00AE0C6F10A00B0F51F
:101180007A7F05D900BF0020207400BF032033E719
:101190002068D0F8B00000F094009428EDD1686881
:1011A00008B1686800E001208046284808FB00F08C
:1011B000297A01F0030201219140484346F2A81226
:1011C00029685143B0FBF1F72068D0F8180420F0EB
:1011D0003F002168C1F818042068D0F8180438438B
:1011E0002168C1F8180400202168C1F8C40000215A
:1011F0002068C0F8C8100020A06100BF00902068DF
:10120000406820F00100216848602068406800F0D4
:101210000100009000BF00BF2068D0F8940020F0CB
:1012200003002168C1F894002068D0F89400616838
:1012300041F0010108432168C1F894000020606179
:10124000012060740020D7E60386FCFF00093D0002
:101250002DE9FF4F81B004461F46DDF83CA000BFDA
:10126000207C012803D1022005B0BDE8F08F0120C9
:10127000207400BF4FF00A0B0AE0CBF10A00B0F572
:101280007A7F05D900BF0020207400BF0320EBE760
:101290002068406F00F001000028EED0DDF83880B3
:1012A000032F01D2384600E003200646002507E060
:1012B0001AF80500E9000831884040EA08086D1C6A
:1012C000B542F5D32068C0F87080A7EB0609B24498
:1012D00019E0B9F1040F01D2484600E004200646A7
:1012E0004FF00008002506E01AF80500E9008840E4
:1012F00040EA08086D1CB542F6D32068C0F870803B
:10130000A9EB0609B244B9F1000FE2D1781CC0F391
:101310000720791CCBB200902068DDE90212FFF7AC
:10132000BBFC00BF0020207400BF00BF9CE77047DB
:101330002DE9FF4F85B0044691469A46149F129EB0
:10134000CDF81090554600BF207C012803D1022023
:1013500009B0BDE8F08F0120207400BF022D0FD925
:10136000C5F30720EBB23722009020460699FFF71D
:101370009DFC28B100BF0020207400BF0120E7E7DA
:10138000062E08D10020009020683246139B069953
:10139000FFF782FC26E0042E08D1002000900023F5
:1013A000324620680699FFF777FC1BE0142E08D11F
:1013B000002000903B78324620680699FFF76CFCCD
:1013C00010E0242E08D1787800903B7832462068CF
:1013D0000699FFF761FC05E000BF0020207400BF04
:1013E0000120B5E74FF00A0B3DE02068406F00F0A8
:1013F0001000D8B92068006F0390042D01D2284650
:1014000000E0042002904FF000080CE04FEAC80111
:101410000398C840C1B2049801700498401C04901D
:101420006D1E08F1010802988045EFD3CBF10A0048
:10143000B0F57A7F05D900BF0020207400BF0320DB
:1014400086E72068406F00F0400060B92068D0F85F
:10145000C00000F02000202805D100BF002020742B
:1014600000BF012074E7002DBFDC00BF0020207406
:1014700000BF00BF6CE72DE9F84304460E4617464F
:101480009846DDF8209000BF207C012802D1022080
:10149000BDE8F8830120207400BF43463A46314638
:1014A0002046CDF80090FFF701FC054600BF002064
:1014B000207400BF2846EBE708B5014600BF087C52
:1014C000012801D1022008BD0120087400BF00BF1F
:1014D000002000900868406840F001000A685060F1
:1014E0000868406800F00100009000BF00BF00BF26
:1014F000002000900868D0F8040440F008000A6852
:10150000C2F804040868D0F8040400F00800009051
:1015100000BF00BF00BF0020087400BF00BFD2E7BB
:1015200010B50446A0B201F03BF810BD10B5194843
:10153000406B00F0400068B11748006880471548CC
:10154000006B20F04000134908630846806B40F0B0
:10155000400088630F48406B00F02000C8B105F0E0
:10156000C5FA0E48006880470A48806B40F02000AA
:10157000084988630A48006820F001004FF0A44140
:10158000C1F8CC010846D0F80C0220F00100C1F8E7
:101590000C0210BD00300052E0030024DC030024E4
:1015A000CC01005210B51E48006800F00200B8B12E
:1015B0001B48001D006840F002004FF0A441C1F834
:1015C00004021848006B20F07E0016490863164894
:1015D000006880471348006B40F0600011490863C1
:1015E0000F484038006800F00200B8B10C483C38A1
:1015F000006840F002004FF0A441C1F8C40109485E
:10160000006B20F07E0007490863084800688047A7
:101610000448006B40F060000249086310BD000000
:101620000002005200300052D4030024D8030024EA
:1016300010B5002202210A480CF0ECFC09A0FEF7CC
:101640006DFF4FF47A7000F0ABFF0CA0FEF766FF61
:101650004FF47A7000F0A4FF0CF09CFD10BD000068
:10166000000402584D656D20416363657373204526
:1016700072726F7221210D0A00000000536F6674B0
:10168000205265736574696E672E2E2E0D0A000058
:1016900010B50C48006800F0010058B10A4908690B
:1016A000804700200749143108604FF47A700549DB
:1016B0001C3108600348006820F0010001490860FF
:1016C00010BD000010080040380400241F49C969FB
:1016D00001F0200109B31D49496AC8B21C490988B3
:1016E00001F40041C9B91A49098801F4804161B186
:1016F0000A2803D00021164A118020E014490988E5
:1017000041F40041124A118019E00D2806D1104918
:10171000098841F480410E4A118010E00C49098883
:10172000C1F30D010B4A505409490988491C084A64
:10173000118011460988C72901DD00211180034964
:10174000096A41F00801014A116270470010014026
:10175000080000247C05002430380A2801D201202A
:1017600070470020704700BF704702460020CB1C26
:1017700023F00301D2F888308B4207D384325368B8
:101780005B1A53601068431842F8843970472DE99A
:10179000F05F04460E462768D4F804804FF0000B33
:1017A000207BC11700EBD1614911A0EB411501204D
:1017B000A840401E216E01EA000A2FE094F8640060
:1017C00010B14FF0FF0925E077B9D4F808804FF445
:1017D000806241462046D4F88C30984707461FB9AE
:1017E0006FF00100BDE8F09F18F8019B7F1EBBF170
:1017F000000F09D04FF0000BB9F1000F01D084F8B1
:1018000064904FF0FF0905E0B9F1FF0F02D14FF0EE
:10181000010B03E049EA0A2A083500BFB542CDD3DF
:10182000C4F860A0A81B20732760C4F80480A81B1C
:1018300000F01F012AFA01F0D4E72DE9F04F87B03C
:101840000C464FF4B55BCDF818B041F2511BCDF802
:1018500014B042F6CF1BCDF810B041F6905BCDF836
:101860000CB04FF0000BCDF800B080E0D0F800C015
:10187000D0F84080D0F88090D0F8C0100CEB090A66
:10188000ACEB090BCDF808B0A8EB010B4FF4B55E3B
:101890000BFB0EFB4FEA2B3741447F1A0AEB010C7E
:1018A000AAEB0101DDF808B007EB0B08DDF808B082
:1018B000ABEB0709D0F8E050036AD0F8A060026EE5
:1018C000A3EB050A5F19A6EB020BCDF808B0324472
:1018D000A7EB020B0BFB0EFB4FEA2B333A44DDF870
:1018E00008B0D34441F6905E0BFB0EFB4FEA2B3B56
:1018F000CDF804B041F2511B0AFB0BFEDDF804B039
:10190000ABEB2E3542F6CF1EDDF808B00BFB0EFE1A
:10191000DDF804B0ABEB2E3BABEB02069B1BED1AE4
:101920000CEB020BC0F800B0ACEB020BC0F8E0B05F
:1019300008EB060BC0F820B0A8EB060BC0F8C0B04F
:1019400009EB030BC0F840B0A9EB030BC0F8A0B043
:1019500001EB050BC0F860B0A1EB050BC0F880B03F
:10196000001DDDF800B00BF1010BCDF800B0DDF883
:1019700000B0BBF1080FFFF679AF20384FF0000B35
:10198000CDF800B0A0E0D0F800B00BF5004CD0F8D6
:101990000880D0F8109081690CEB090AACEB090BB8
:1019A000CDF808B0A8EB010B4FF4B55E0BFB0EFBB6
:1019B0004FEA2B3741447F1A0AEB010CAAEB0101D5
:1019C000DDF808B007EB0B08DDF808B0ABEB070952
:1019D000C56943684669C268A3EB050A5F19A6EBAF
:1019E000020BCDF808B03244A7EB020B0BFB0EFB49
:1019F0004FEA2B333A44DDF808B0D34441F6905E09
:101A00000BFB0EFB4FEA2B3BCDF804B041F2511B10
:101A10000AFB0BFEDDF804B0ABEB2E3542F6CF1E11
:101A2000DDF808B00BFB0EFEDDF804B0ABEB2E3B8F
:101A3000ABEB02069B1BED1A0CEB020B4FEA2B2BB8
:101A40000FFA8BFBA4F800B0ACEB020B4FEA2B2B88
:101A50000FFA8BFBA4F80EB008EB060B4FEA2B2B0A
:101A60000FFA8BFBA4F802B0A8EB060B4FEA2B2B66
:101A70000FFA8BFBA4F80CB009EB030B4FEA2B2BEE
:101A80000FFA8BFBA4F804B0A9EB030B4FEA2B2B46
:101A90000FFA8BFBA4F80AB001EB050B4FEA2B2BD6
:101AA0000FFA8BFBA4F806B0A1EB050B4FEA2B2B2A
:101AB0000FFA8BFBA4F808B010342030DDF800B02A
:101AC0000BF1010BCDF800B0DDF800B0BBF1080F51
:101AD000FFF659AF07B0BDE8F08F2DE9F047044697
:101AE0000D4690469946AD1E606B00EB153AC5F366
:101AF000C80605F0070101208840C7B200BF514663
:101B00000AF1010A204608F013F810B10120BDE8DF
:101B1000F08700BF00BF04F13C00805D384008B191
:101B2000012000E00020484501D10220EFE704F148
:101B30003C00805D784004F13C0188550120E07054
:101B4000A8F10100B0F1000800D1E0E77806000E2E
:101B5000071EE0D10127701C0646B0F5007FD9D3DF
:101B60000026CCE72DE9F041044688460020E070CD
:101B7000401EA0634146204607F0DAFF10B1042062
:101B8000BDE8F08104F23A2005F071FE07464AF6FE
:101B90005520874208D10B222DA104F13C00FEF70D
:101BA0004FFE08B90120EBE794F83C50EB2D03D031
:101BB000E92D01D0E82D43D14AF65520874208D1BE
:101BC000082226A104F18E00FEF73AFE08B9002093
:101BD000D6E704F1470005F04AFE06464920055DB8
:101BE000701E304060BBB6F5007F29DBB6F5007F84
:101BF00026DC2DB3681E284010BB04F14A0005F016
:101C000036FEE8B14C20005D401E012818D804F1D2
:101C10004D0005F02CFE98B104F14F0005F027FEB1
:101C2000802806DA04F15C0005F0E4FDB0F5803FA1
:101C300006D304F1520005F01AFE08B100209FE718
:101C40004AF65520874201D1022099E7032097E701
:101C5000EB769045584641542020200046415433AD
:101C600032202020000000002DE9F84F8246154662
:101C70001E46DAF800000090DAF8500000F104097E
:101C80004FF40072002328463146FEF7ACFB0746AE
:101C90000098B0F80AC0624600233846FEF7A3FB5E
:101CA000834600BF59F8044B14B90020BDE8F88FF3
:101CB000A34500D204E0ABEB040B09F10409F1E702
:101CC00000BFD9F800005844F0E70246891ED069E9
:101CD000801E884201D8002070475389106B03FB97
:101CE0000100F9E72DE9F04780460C4604F11A009F
:101CF00005F0BDFD10B10020BDE8F087207800F0B0
:101D00003F00401E00EB800101EBC0054FF00109D0
:101D1000002621E01849895D081905F0A8FD07464D
:101D2000B9F1000F11D0FF2D0BD8384602F098FB07
:101D3000824629466D1C38F8110002F091FB82455D
:101D400001D00020D8E7B94605E04FF6FF70874282
:101D500001D00020D0E7761C0D2EDBD3207800F0D8
:101D6000400038B1B9F1000F04D038F8150008B1BF
:101D70000020C1E70120BFE7844B01082DE9F047AF
:101D800006468A463468BAF1000F0AD1D4F81480A6
:101D9000B8F1000F02D0E069404516D84FF00108B5
:101DA00013E05146304602F079FD0746022F02D279
:101DB0000120BDE8F087781C08B93846F9E7E069EA
:101DC000B84201D93846F4E7D046A06908B90020E6
:101DD000EFE7207804284ED101224146204602F048
:101DE000D4FB05460DB1681C08B92846E1E701237C
:101DF0001A4629462046FFF770FE8146B9F1020FC8
:101E000001D10120D5E7B9F1010F02D14FF0FF3028
:101E1000CFE7BAF1000F02D10220F0710CE0F079A7
:101E2000022809D108F10100854205D0B068A8EB6D
:101E30000000B0610320F071F079022869D00AF146
:101E40000100854207D1F06910B1F069401C00E043
:101E50000220F0615DE0F06908B90120F0612A46D6
:101E60005146304602F06FFB8146B9F1000F50D168
:101E70000120F0614DE00025D04519D108F10105A0
:101E8000E069A84200D802252946304602F006FD46
:101E90000746012F01D0781C08B9384689E73FB1C1
:101EA0006769022F03D3E069B84200D9B84600251C
:101EB000E5B9454600BF6D1CE069A84204D802257B
:101EC000454501D9002074E72946304602F0E6FC7A
:101ED000074607B909E0012F01D0781C08B9384638
:101EE00067E74545E7D1002063E700BF4FF0FF32C9
:101EF0002946204608F0FEFB8146B9F1000F08D1C3
:101F0000BAF1000F05D02A465146204608F0F2FBF0
:101F10008146B9F1000F0DD16561D4E90610801E2C
:101F2000814202D8A069401EA061207940F00100E2
:101F3000207107E0B9F1010F02D14FF0FF3000E04E
:101F400001200546284634E72DE9F74F8AB00746B9
:101F500088461AE10C98112803D206200DB0BDE87E
:101F6000F08F0C9811380C9018F8010B0790079817
:101F700000F0EE0008B10620F0E707980611079878
:101F800000F00F0910213846FFF7EFFB8246BAF147
:101F9000000F01D10320E1E707F1200000EBC900A9
:101FA00040F826A000200446089007E018F8011B1E
:101FB0000AF80410089808440890641C102CF5D303
:101FC000089841003846FFF7D0FB0590059808B9FE
:101FD0000320C3E707F1300101EBC901059841F87F
:101FE0002600002006900446099018E01AF80450D4
:101FF0000AE00998421C06990992059A22F81010E5
:102000000698401C80B20690281EA5F10105F0D16B
:102010004FF6FF71069801EA40000690641C102CF0
:10202000E4D308990C98884201D2062096E70899D3
:102030000C98401A0C9038460899FFF796FB834697
:10204000BBF1000F01D1032088E707F1400000EB4E
:10205000C90040F826B000240CE018F8010B0790E6
:1020600026B907980B2801DD062077E707980BF8BB
:102070000400641C08988442EFD300200190009073
:10208000AEB14FF400613846FFF76FFB0190019845
:1020900008B9032062E707F16C01019841F82900B3
:1020A000FF224FF400610198FEF79DFC14E04FF40D
:1020B00080613846FFF759FB0090009808B903206B
:1020C0004CE707F17401009841F82900FF224FF412
:1020D00080610098FEF787FC0020054604464CE02E
:1020E0001AF80500099044E0059830F81400C5F18D
:1020F00009018840C0F309000290E6B12046641C43
:102100001BF80010681C41EA00200390C5F109018A
:102110000120884004900AE00498401E049003982F
:1021200082B20298411C0291019921F81020049872
:102130000028F1D11AE02046641C1BF80010681C2E
:1021400041EA00100390C5F1090101208840049084
:1021500009E00498401E04900398C2B20298411C02
:10216000029100990A5404980028F2D10998401E5F
:10217000099009980028B7D16D1C0A2DB0D307F13A
:10218000650000EB4900845500BF0C9800287FF4DF
:10219000E1AE00BFE2E600002DE9F34F85B08146D5
:1021A000069800680290D9F80000D0F80CA000252D
:1021B00000BF02A80CF044F883460BF1010018B9E7
:1021C000062007B0BDE8F08FBBF5803F05D34FEA8E
:1021D0001B4228466D1C2AF810201FFA8BF4202C75
:1021E00003DB2F2C01D05C2C00D111E0802C06DA0F
:1021F00021467BA0FEF71AFB08B10620E1E7FF2D80
:1022000001D30620DDE728466D1C2AF81040D0E7F0
:1022100000BF202C01DA042611E002E00298401CE5
:102220000290029800782F28F8D0029800785C2855
:10223000F4D0002602980078202800D204260299C3
:102240000698016008E0681E3AF81040202C02D081
:102250002E2C00D002E06D1E002DF4D100BF002016
:102260002AF815000DB90620ABE7002700E07F1C17
:102270003AF817002028FAD01FB93AF817002E288C
:1022800001D146F0030600E06D1E25B1681E3AF844
:1022900010002E28F8D120220B2109F14000FEF772
:1022A000A2FB4FF00008CDF810800820039000BF7B
:1022B00038467F1C3AF8104004B966E0202C03D061
:1022C0002E2C04D1AF4202D046F00306F0E7DDE940
:1022D0000310884201D2AF4216D103980B2802D1D5
:1022E00046F0030651E0AF4201D046F00306AF428C
:1022F00000D94AE02F46082004900B2003904FEAB3
:1023000088604FEA1068D3E7802C0ADB46F00206AB
:10231000204602F0A5F84FF46A71019002F05EF8D1
:102320000446FF2C11DD0398401E0499884204D80E
:1023300046F0030603980490BAE722120498411C61
:10234000049109F140010A5418E024B1214627A064
:10235000FEF76CFA18B15F2446F003060EE0412C3C
:1023600003DB5A2C01DC48F00208612C06DB7A2CD6
:1023700004DC48F00108A4F1200084B20498411C58
:10238000049109F140010C5492E700BF99F8400014
:10239000E52802D1052089F840000398082803D1D8
:1023A0004FEA88604FEA106808F00C000C2803D050
:1023B00008F00300032801D146F0020606F00200EF
:1023C00048B908F0010008B146F0100608F0040012
:1023D00008B146F008064B2000F809600020F0E63E
:1023E0002A3A3C3E7C223F7F000000002B2C3B3DE4
:1023F0005B5D00002DE9F04782460C4616462BE057
:10240000412E02D20620BDE8F087413E14F8019B20
:1024100009F0F00008B10620F5E709F003074FF4D2
:1024200080715046FFF7A1F905460DB90320EAE790
:102430000AF1500040F8275000270BE0084810F838
:10244000078014F8010B074931F81810484345F884
:1024500028007F1C402FF1D3002ED1D10020D2E7DD
:10246000764F0108B64F01082DE9F04704460E46A5
:1024700040212046FEF7BFFA85202070C02084F856
:10248000200040250020804607464FF0010900BF8C
:10249000C12228466D1C2254002228466D1C22545D
:1024A00000BFB9F1000F06D036F81700B0F10009EF
:1024B00001D0781CC7B2601949460BF05DF8AD1C1D
:1024C00005F01F000028ECD108F1010000F0FF0822
:1024D00036F817000028DBD184F8237008F10100DA
:1024E000607030460DF0E7FC8246514604F124004E
:1024F0000BF042F8BDE8F08701460B4800788842AF
:102500000FDC09484078884201DB0120704706480B
:102510008078884205DC0448C078884201DB0120CD
:10252000F4E70020F2E70000914B01080146104853
:102530000079884219DC0E484079884201DB01208D
:1025400070470B488079884205DC0948C079884289
:1025500001DB0120F4E70648007A884205DC0448E4
:10256000407A884201DB0120EAE70020E8E700002A
:10257000914B01084FF0E021096941F004014FF04F
:10258000E0221161054908601146096941F0010125
:1025900011616FF07F41516170470000000000241D
:1025A00010B504464FF47A7104FB01F000F002F814
:1025B00010BD000070B5034600224FF0E02675699B
:1025C0000D4E366803FB06F44FF0E026B16910E0CB
:1025D0004FF0E026B06988420BD0884202D20E1A32
:1025E000324402E02E1A0E4432440146A24200D385
:1025F00000E0EDE700BF70BD000000242DE9F041D0
:1026000004460E46D4F800800021204600F06FFBFF
:1026100005465DBB002700BF4046A16B07F088FA66
:10262000054605B121E098F80000042805D1E06BCB
:102630000078012121EAD01009E0E06B0078E5285C
:1026400002D0E06B007808B9012000E0002020B142
:10265000781C0746B04201D107E00027012120463F
:1026600000F03FF90546002DD6D000BF042D00D163
:1026700007252846BDE8F0812DE9F0470446894644
:1026800020460BF093F910B10120BDE8F0874946D0
:102690002046FFF71AFB0746A7634FF4007104F1C9
:1026A0003C00FEF7CAF960894FF40041B1EB402FBE
:1026B00001D8084601E06089400206464FF0000854
:1026C00000E07608B6F5007F05D9304601F033FE0C
:1026D000B0F10008F5D0B6F5007F16D93146404676
:1026E000FEF789F9760A002500E035446089A842A2
:1026F00007D97A1960783346414600F038FC002843
:10270000F3D0404601F01EFE10E004F13C08012623
:10271000002500E035446089A84207D97A1960781D
:102720003346414600F023FC0028F3D06089A842DC
:1027300001D00120A9E70020A7E72DE9F04F85B0DF
:10274000044625680021204600F0D1FA07461FB153
:10275000384605B0BDE8F08F287804284CD1E868E9
:102760000DF0A9FB01903EE0296901F1240005F07C
:102770007EF80199884200D035E0286990F823005E
:1027800003904FF0400A002002901FE00AF01F0063
:1027900008B90AF1020A296901EB0A0005F067F895
:1027A000009001F05DFE8346EA68029932F811005C
:1027B00001F056FE834500D00BE00398401EC0B2E6
:1027C00003900AF1020A0298401C02900398002824
:1027D000DCD100BF039828B9E968029831F81000ED
:1027E00000B906E000BF0021204600F0EAF8071E0D
:1027F000BAD000BF3846ACE74FF0FF09CDF81090D3
:102800004FF0FF30E06400BF2846A16B07F090F95D
:10281000074607B162E0E06B06780EB904275DE079
:10282000E06BC07A00F03F0884F80680E52E05D002
:1028300008F0080040B1B8F10F0F05D04FF0FF09C4
:102840004FF0FF30E06442E0B8F10F0F22D14B208F
:10285000005D00F04000A0BB06F0400038B1E06B26
:10286000407B049006F0BF06B146206BE0644E4505
:102870000CD1E06B417B0498814207D1E16BE868A1
:10288000FFF730FA10B1A9F1010000E0FF2000F0DD
:10289000FF091CE0B9F1000F06D1E06B0BF02FF837
:1028A0000499884200D119E04B20005D00F001003E
:1028B00040B90B2204F14001E06BFDF7C1FF08B9FC
:1028C0000CE004E04FF0FF094FF0FF30E06400211E
:1028D000204600F006F80746002F95D000BF384686
:1028E00037E72DE9F041044688462768206B00F160
:1028F00020063878042801D1800601E04FF400104A
:10290000B04201D80020A063A06B10B90420BDE83C
:10291000F081C6F3080000284AD1A06B401CA063D8
:10292000606B38B93889B0EB561F41D80020A063DE
:102930000420ECE77889401E00EA5620002837D1B1
:102940002046616B01F0AAFF0546012D01D8022047
:10295000DDE7681C08B90120D9E7F869A84221D849
:10296000B8F1000F03D10020A0630420CFE7204678
:10297000616BFFF703FA05460DB90720C7E7012D84
:1029800001D10220C3E7681C08B90120BFE729462E
:102990003846FFF771FE08B10120B8E7E07940F052
:1029A0000400E071656329463846FFF78EF9A0639D
:1029B0002663C6F3080107F13C000844E0630020E9
:1029C000A5E72DE9F05F04468846042627684FF006
:1029D000FF0AD3466CE03846A16B07F0A9F806461B
:1029E00006B168E0E06B05780DB9042663E038783D
:1029F000042814D1B8F1000F02D0832D51D15AE030
:102A0000852D4ED1206BE064204604F08BFF0646F6
:102A100026B93869007900F03F00A0714BE0E06B07
:102A2000C07A00F03F0984F80690E52D0AD02E2DDB
:102A300008D029F02000082801D1012000E0002062
:102A4000404502D04FF0FF0A2BE0B9F10F0F1CD127
:102A500005F0400038B1E06B90F80DB005F0BF050F
:102A6000AA46206BE06455450BD1E06B407B58458E
:102A700007D1E16BF86807F0E5FB10B1AAF101009E
:102A800000E0FF2000F0FF0A0BE0BAF1000F04D1D4
:102A9000E06B0AF034FF584502D04FF0FF30E0649D
:102AA00009E000212046FFF71CFF064606B102E0C0
:102AB000A06B00288FD100BF0EB10020A06330466C
:102AC000BDE8F09F2DE9F04F99B0044626684B20F1
:102AD000005D00F0A00018B1062019B0BDE8F08F2D
:102AE0004FF0000B01E00BF1010BF06830F81B0018
:102AF0000028F8D13078042866D10BF10E000F21A0
:102B0000B0FBF1F000F1020949462046FFF776FDDF
:102B100005460DB12846E0E7A9F101002022216B0E
:102B200002FB1010E064E07900F00400002845D0BA
:102B3000E07920F00400E071204601F0E9FC054650
:102B40000DB12846C9E74FF0FF322046616B01F016
:102B5000FAFC05460DB12846BFE7A06870B32146D0
:102B6000684604F0BFFE05460DB12846B5E77089FA
:102B70004002D4E90431181841F10001C4E904010C
:102B8000D4E90473316901F138003A460AF0C6FC11
:102B9000D4E90473316901F128003A460AF0BEFC19
:102BA000E07940F00100316981F8210068460AF0BF
:102BB0006DFE05460DB128468FE700BFD6E903102C
:102BC000FFF752FC002088E7D4E91112206C15AB06
:102BD00007C39DF85F0000F0010028B340214B209F
:102BE00001554FF0010A0EE0534615A904F14000CB
:102BF000F26801F0E9FD2046FFF79FFD054605B1AB
:102C000004E00AF1010ABAF1640FEDD300BFBAF192
:102C1000640F01D1072060E7042D01D028465CE74E
:102C20009DF85F104B2001559DF85F0000F00200F9
:102C300030B10BF10C000D21B0FBF1F0401C00E0B5
:102C40000120814649462046FFF7D8FC054675BB62
:102C5000A9F10100B0F1000929D0206BA0EB4911C6
:102C6000204600F044F805460DBB04F140000AF090
:102C700046FE149000BF3046A16B06F059FF054692
:102C800005B113E009F0FF02E16BF068149B07F057
:102C9000D3FD0120F07000212046FFF722FE0546FB
:102CA00025B9A9F10100B0F10009E4D100BFE5B9EF
:102CB0003046A16B06F03CFF0546B5B92021E06B1C
:102CC000FDF799FEE06B216C0160616C4160B4F826
:102CD0004810018194F84A1081724B20005D00F089
:102CE0001800E16B08730120F0702846F5E62DE925
:102CF000F04104460D4626683078042801D180064C
:102D000001E04FF40010A84202D905F01F0010B1F5
:102D10000220BDE8F0812563A7682FB93078032829
:102D200002DBF76A0020E07147B93089B0EB551F2C
:102D300001D80220EDE7F06AA0631CE070894FEA39
:102D4000402811E03946204601F0A8FD0746781CCE
:102D500008B90120DDE7022F02D3F069B84201D89B
:102D60000220D6E7A5EB08054545EBD239463046AB
:102D7000FEF7ABFFA0636763A06B08B90220C8E74A
:102D8000A06B00EB5520A063C5F3080106F13C00E1
:102D90000844E0630020BCE770B50446002524B178
:102DA000012C06D0022C0AD106E008F055F80546A1
:102DB00007E007F0A7F804E00AF058F901E0012560
:102DC00000BF00BF0DB1012070BD0020FCE7000076
:102DD0002DE9F04706468946154646BBB9F1000F76
:102DE00009D0B9F1010F13D0B9F1020F05D0B9F133
:102DF000030F19D106E0002418E04FF4007028609A
:102E0000002413E03248B0F85000288000240DE080
:102E10002F484FF400720023D0E912713846FDF7B5
:102E200059FB2860002401E0042400BF4DE0012E7E
:102E30001FD1B9F1000F09D0B9F1010F11D0B9F1CB
:102E4000020F05D0B9F1030F10D106E000240FE006
:102E50004FF40070288000240AE008202880002415
:102E600006E04FF448402860002401E0042400BF3D
:102E70002BE0022E28D1B9F1000F09D0B9F1010FD2
:102E800013D0B9F1020F05D0B9F1030F19D106E043
:102E9000002418E04FF400702860002413E00D486F
:102EA000B0F85000288000240DE00A484FF400726A
:102EB0000023D0E912713846FDF70CFB286000248E
:102EC00001E0042400BF00E001242046BDE8F087B3
:102ED000A8160024201700242DE9F04107460E46CD
:102EE00014461D464FF0000815B90420BDE8F081D6
:102EF00027B1012F15D0022F2BD123E02A462146DE
:102F0000304608F0ABF8804607E007F0A5FF2A46F8
:102F10002146304608F0A2F88046B8F1000FF4D1FF
:102F20001AE00BE0002000EB44214FF40072304621
:102F300007F036F8641C06F500766D1E002DF1D101
:102F4000A84609E02A46214630460AF083F9804621
:102F500002E04FF0010800BF00BFB8F1000F01D13F
:102F60000020C3E70120C1E70146002070472DE99A
:102F7000F04107460E4614461D464FF0000815B9AD
:102F80000420BDE8F08127B1012F15D0022F2BD1ED
:102F900023E02A462146304608F080F8804607E0C4
:102FA00007F05AFF2A462146304608F077F8804657
:102FB000B8F1000FF4D11AE00BE0002000EB44213F
:102FC0004FF40072304607F04DF8641C06F50076A9
:102FD0006D1E002DF1D1A84609E02A462146304653
:102FE0000AF058F9804602E04FF0010800BF00BF28
:102FF000B8F1000F01D10020C3E70120C1E70000B4
:1030000070B59EB05948006840F0100057490860FC
:1030100056485838006840F0100054495839086044
:103020000846006820F0100008604FF0A0405049AA
:1030300008600020486004214D4881600121C16082
:103040001C201B9001201C9000201D901BA94848AB
:10305000FDF7CCFF10B101201EB070BD40F2373635
:10306000444C454D002000900190029002200390B6
:103070004FF4347004900020059040F6FF700690E5
:1030800004200790022008900020099000EE104ACA
:10309000B8EE400BB2EE002B80EE021B00EE105A91
:1030A000B8EE402B81EE020BB2EE001B20EE010BBE
:1030B000BCEEC00B10EE100A80B20A9000EE104A6F
:1030C000B8EE400BB2EE002B80EE021B00EE105A61
:1030D000B8EE402B81EE020B9FED281B20EE010B7A
:1030E000BCEEC00B10EE100A80B20B9000EE104A3E
:1030F000B8EE400BB2EE002B80EE021B00EE105A31
:10310000B8EE400B81EE002B00EE106AB8EE400BDB
:1031100022EE000BBCEEC00B10EE100A80B20C9039
:1031200005200D900F200E9010200F904FF4A060FE
:1031300010904FF400401190042012901390C002A0
:1031400014904010159040101690401017904010A9
:1031500018904010199000201A9069460448FDF715
:10316000DCFD08B1012077E7002075E7E444025850
:10317000680600240027B929008793030000000097
:1031800000004A401FB50020029000BF834800683D
:1031900040F002008149086000BF00BF0846006897
:1031A00040F08000086000BF01200090002302462C
:1031B000014601907A480AF039FF0120009000236F
:1031C00002462021019077480AF030FF0122202199
:1031D00074480AF01FFF1420FFF7E2F900222021B3
:1031E00070480AF017FF3220FFF7DAF90122202198
:1031F0006C480AF00FFFC820FFF7D2F90022012126
:1032000067480AF007FFFFF7FBFE052219214FF47C
:10321000967004F021FC00F017F93220FFF7C0F996
:103220006148FEF749F904215F48FDF75BFD0A207C
:10323000FFF7B6F9032303AAD321002000F0B8F862
:103240009DF80E009DF80D1040EA01205749888036
:103250000846808847F29671884229D098208DF8D8
:10326000080081208DF8090000208DF80A00032352
:1032700002AAFF2106F014FA002302AA19461846F2
:1032800006F00EFA032303AA0421002000F090F8B0
:103290009DF80C0038280CD19DF80D00212808D18C
:1032A0009DF80E001F2804D147F203703F49888023
:1032B0005BE098208DF8080081208DF80900062039
:1032C0008DF80A00032302AAFF21002006F0E8F986
:1032D000012303AAF021002000F06AF801230DF178
:1032E0000D02F121002000F063F801230DF10E0220
:1032F000F221002000F05CF89DF80D009DF80C1004
:1033000040EA0120294988800846808849F68101E1
:1033100088422AD098208DF8080081208DF8090075
:1033200001208DF80A00032302AAFF21002006F0E5
:10333000B7F9012303AA0021084600F039F8012358
:103340000DF10D021946002000F032F801230DF1B5
:103350000E020221002000F02BF89DF80D009DF8D0
:103360000C1040EA0120114988801048808847F2FB
:10337000967188420BD00D48808847F203718842CD
:1033800005D00A48808849F68101884204D106F0B8
:1033900027F9002004B010BD0120FBE7E0440258EB
:1033A00000040258001C025868060024140000247F
:1033B0002DE9FE4304460D4616461F464FF0000811
:1033C00006203B46324621468DE861000448FDF761
:1033D000AFFF08B14FF001084046BDE8FE83000092
:1033E000680600242DE9FC4107460D4614461E469A
:1033F0004FF000085EB920782B4605223946009030
:103400001048FEF738F8D0B14FF0010817E0012E50
:103410000AD120782B461522394600900948FEF73C
:103420002AF860B1B0460AE03346392239460548E9
:10343000CDE90054FDF70CFF08B14FF001084046FC
:10344000BDE8FC81680600241FB500242D480068F3
:1034500040F008002B49086000BF00BF00BF00BF5C
:1034600029488461042444F4E0248460132444F44F
:103470006C14C46040F2135424480443224804618D
:1034800040F22354224804431F48446100201E494F
:10349000C862012005F0FAF81E481F4908600020A4
:1034A00007210622CDE90002CDE902101A48FF23C8
:1034B00002220168002004F061FF4FF4A0604FF485
:1034C0003473002211460090104604F0B9FF4FF407
:1034D0003470124908604FF4A060486008460088C4
:1034E0000F4908800D488088488002200B4981F8E8
:1034F0002000C861012004F0CDFB002005F0C0F8D9
:103500001FBD0000E44402580010005000000B03EF
:1035100000003603000000D01C00002444060024F4
:10352000140000240146412901DA08467047612948
:1035300003DBA1F12000C0B2F8E70846F6E700007F
:103540002DE9FC4105460027002405E0601CC4B2BB
:10355000287800B902E06D1CFA2CF7DB00BFFA2CCA
:1035600002D1FF20BDE8FC81002408E06D1E287810
:103570002E2802D16D1C2F4603E0601CC4B2052C1E
:10358000F4DB00BF0FB9FF20ECE739466846FDF7D2
:1035900083F9002407E01DF80400FFF7C3FF0DF8CE
:1035A0000400601CC4B2042CF5DB002421E00026DA
:1035B0001AE0C4EBC400114901EB800050F826006A
:1035C000007800B912E0C4EBC4010C4A02EB81019F
:1035D00051F826006946FDF757FA18B946EA041073
:1035E000C0B2BFE7701CC6B2072EE2DB00BF601C92
:1035F000C4B2072CDBDBFF20B4E70000DC4B010882
:1036000070B5002500240EE04FF40F71002006F085
:103610004DFC0B4941F82400084650F8240000B93D
:1036200003E0601CC4B2032CEEDB00BF05F068FDB4
:103630000546032C02D10DB9002070BD0120FCE726
:103640000C90072438B50546284600F0A0FD044636
:103650004CB9694628460CF0F1FB04461CB9002021
:103660002860204638BD2046FCE72DE9F04F8FB09A
:10367000804614461D460DA940460CF0DFFB0E9017
:103680000E9810B998F831000E900E9850B90D9818
:103690000078042806D1421F4046D8F8401000F0B8
:1036A00052FF0E900E9818B10E980FB0BDE8F08F33
:1036B000D8F8500000287ED04FF0FF3184EA010096
:1036C0006940084355D1D8F850100491049802C8B5
:1036D0000691049002200590D8F808B0BBF1000FC5
:1036E00038D000BFCDF81CB0002008900598801C91
:1036F000059000BFCDF824B00898401C08905946AA
:10370000404601F0CBF88346BBF1010F03D80220FD
:1037100088F83100C9E70BF1010018B9012088F8D9
:103720003100C2E70998401C8345E3D0DDE905017B
:1037300088420BD80499089808600498001D0490EA
:103740000499079808600498001D04900D98C069BA
:103750005845C7D80598D8F850100860DDE905012C
:10376000884203D8002104980160B3E111200E9033
:10377000B0E1D8E90410091BA84101D2D8E90445F9
:10378000C8E90E45002184EA010069400843ECD0F5
:10379000661E65F1000332464046FEF765FAC8F83A
:1037A0004000D8F840100D98FEF78FFA0390039868
:1037B00028B9022000E04EE088F8310075E7661E67
:1037C00065F100014FF4007200233046FCF70BFE58
:1037D0000D994989491E08400399084403904FF404
:1037E00000720023D8E90E613046FCF7FCFD002191
:1037F0004A404B401A43B8D0D8F84410039881424D
:10380000B3D098F8300000F0800098B1D8F8442088
:103810000D994878012308F15401FFF7A8FB18B16E
:10382000012088F8310040E798F8300000F07F0070
:1038300088F830000D994878012308F15401039A63
:10384000FFF74AFB18B1012088F831002DE70398F3
:10385000C8F844003EE10D980078042806D0211EE7
:1038600075F1010002D34FF0FF340025D8E90410B0
:10387000091BA84106D298F8300000F0020008B9F0
:10388000D8E90445D8E90E01CDE90A0100200C90E1
:10389000C8F83800C8F83C00002184EA01006940FB
:1038A00008437ED00D9840894FEA40290023DDE986
:1038B0000A015840594008432BD0661E65F10001AB
:1038C0004A463046FCF78FFD06460F46DDE90A10F2
:1038D000491E60F10002CDE900124A460023084665
:1038E0000199FCF780FD301A8F4112D3DDE90A10EF
:1038F0004A1E60F10001A9F1010022EA0000C8E9B6
:103900000E01D8E90E12641A65EB0205D8F840A042
:103910001BE0D8F808A0BAF1000F14D100214046EE
:10392000FEF72CFA8246BAF1010F03D1022088F883
:103930003100BAE60AF1010018B9012088F8310017
:10394000B3E6C8F808A0C8F840A0BAF1000F75D0D7
:1039500047E0B4EB090465F10005D8E90E2012EB4D
:10396000090240F10000C8E90E2098F8300000F08C
:103970000200E8B1D8E90430D8E90E12591A904192
:1039800009D2D8E90E01C8E9040198F8300040F0E6
:10399000400088F8300051464046FEF7EFF9824675
:1039A00000E04BE0BAF1000F07D1002425461DE0EE
:1039B0005146404600F072FF82460AF1010018B9F4
:1039C000012088F8310070E6BAF1010F03D90D9893
:1039D000C069504503D8022088F8310065E6C8F870
:1039E00040A00020B9EB0401A841B2D300BFD8E940
:1039F0000E1009196841C8E90E104FF40072002337
:103A000020462946FCF7EFFC00214A404B401A4370
:103A100014D051460D98FEF758F90C900C9818B92F
:103A2000022088F8310040E64FF40072002320465F
:103A30002946FCF7D8FC0C9908440C90D8E90430CE
:103A4000D8E90E219A1A884109D2D8E90E01C8E9AD
:103A5000040198F8300040F0400088F830004FF43E
:103A600000720023D8E90E613046FCF7BCFC00214F
:103A70004A404B401A432DD0D8F844100C9881424C
:103A800028D098F8300000F0800098B1D8F8442091
:103A90000D994878012308F15401FFF768FA18B12D
:103AA000012088F8310000E698F8300000F07F002F
:103AB00088F830000D994878012308F154010C9AD8
:103AC000FFF70AFA18B1012088F83100EDE50C98EB
:103AD000C8F844000E98E8E5F7B582B0164603989A
:103AE000019001A801F0E3F80546002D02DA0B2051
:103AF00005B0F0BD0C4850F825400CB100202070F6
:103B0000029810B10020029908700749029841F804
:103B100025000EB90020EBE7002202A903A805F05A
:103B2000CDFD07463846E3E7009007242DE9F74F1F
:103B30009AB0044616461CB909201DB0BDE8F08FA6
:103B400006F03F06324605A91BA805F0B7FD05465D
:103B5000002D7BD1059806904FF48C6000F0EBFBB4
:103B60008346BBF1000F01D11120E6E70598C0F8AC
:103B70000CB00BF500700599086106A81B9900F0C0
:103B800092FD05462DB99DF8630000F0800000B15C
:103B9000062506F01C0000287ED045B1042D03D177
:103BA00006A8FEF78FFF054646F008060AE09DF8D6
:103BB0001E0000F0110008B1072503E006F0040024
:103BC00000B10825002D40D106F0080000283CD0A7
:103BD0000598007804283AD1059820602146059878
:103BE00002F02CFB05990969881C1E21FCF703FFD4
:103BF0000599096901F126001A21FCF7FCFE202035
:103C000005990969087100F013FF01900599096988
:103C100001F10800019909F075FC01200599096975
:103C200081F8210006A809F031FE0546002D5CD17F
:103C3000A068002859D000222046A16807F013F898
:103C40000546A068401E059948614EE0F2E000F08C
:103C5000EFFE0390159901F10E00039909F052FC53
:103C6000159901F11600039909F04CFC1599059876
:103C700003F0ADFD049020201599C872002215991B
:103C8000059809F02DFC159901F11C00002109F09F
:103C900039FC0120059900E016E0C870049820B3B3
:103CA0000598806B0290002206A8049906F0DBFFBD
:103CB0000546D5B90299059805F03AFF05460498DE
:103CC000401E0599486110E07DB99DF81E0000F086
:103CD000100008B1042508E006F0020028B19DF8A4
:103CE0001E0000F0010000B107254DB906F00800E4
:103CF00008B146F040060598806BA0641598E06412
:103D0000002D7DD10598007804280FD108982062F5
:103D10000A9820F0FF009DF81F1008436062199870
:103D2000A0622146059802F089FA0CE015990598E1
:103D300003F04DFDA060159901F11C0003F05AFD40
:103D40000021C4E904010020206505982060059841
:103D5000C088A08084F83060002084F8310060645E
:103D60000021A163E1634FF4007104F15400FCF7FA
:103D700064FE06F02000002859D00023D4E9041086
:103D800059405840014352D0D4E90401C4E90E011E
:103D9000059840894FEA4029D4F808A0D4E904786E
:103DA00010E05146204600F079FD8246BAF1010F3D
:103DB00000D802250AF1010000B90125B7EB090777
:103DC00068F100082DB90020B9EB070170EB08007D
:103DD000E7D3C4F840A09DB94FF4007200233846E1
:103DE0004146FCF700FB00214A404B401A431ED0DD
:103DF00051460598FDF769FF0290029818B900E056
:103E000015E0022513E04FF40072002338464146C6
:103E1000FCF7E9FA029908446064626C05994878F5
:103E2000012304F15401FFF757F800B1012558466A
:103E300000F088FA0DB10020206028467DE673B5B9
:103E400082B0044614B9092004B070BD002201A953
:103E500003A805F033FC0546002D47D101982060EA
:103E60004FF48C6000F067FA06460EB91120EBE7BC
:103E70000198C66006F50070019908612046039913
:103E800000F011FC05465DBB4B20005D00F080009A
:103E9000E8B9A07900F01000C0B1019800780428BA
:103EA0000ED1A0682062206920F0FF00E17908436C
:103EB0006062E06CA0622146019802F0BFF906E062
:103EC000E16B019803F083FCA06000E005253DB99B
:103ED0000198C088A08000212046FEF708FF054613
:103EE000304600F02FFA042D00D105250DB1002039
:103EF00020602846A8E72DE9FF4F87B00446154605
:103F00000898039000210A98016005A920460BF04B
:103F100095FF0690069818B994F83100069018B1EC
:103F200006980BB0BDE8F08F94F8300000F0010067
:103F300008B90720F5E7D4E90E23D4E904108F1A55
:103F400060EB0308791B78F1000000D23D46E1E008
:103F5000D4E90E014FF400720023CDE90001FCF713
:103F600042FA00214A404B401A437DD1D4E90E0168
:103F70004FF400720023CDE90001FCF734FA0599F3
:103F80004989491E00EA010ABAF1000F2BD100232A
:103F9000D4E90E0158405940084302D1A06804906A
:103FA00011E0206D50B1D4E90E0102460B46CDE977
:103FB00000012046FDF758FE049004E02046216CE5
:103FC00000F06CFC04900498022803D2022084F8CC
:103FD0003100A6E70498401C18B9012084F831008C
:103FE0009FE704982064216C0598FDF76EFE8146DA
:103FF000B9F1000F03D1022084F8310091E7D144D8
:104000004FEA552BBBF1000F2FD00AEB0B0005999F
:104010004989884203D905984089A0EB0A0B059984
:1040200048785B464A460399FEF756FF18B10120CF
:1040300084F8310075E794F8300000F0800080B11A
:10404000606CA0EB090058450BD2616CA1EB090133
:10405000039A02EB41204FF4007204F15401FCF783
:104060004BFC4FEA4B2645E029E0606C484524D0E4
:1040700094F8300000F0800090B1626C05994878A7
:10408000012304F15401FEF772FF18B1012084F8F6
:10409000310046E794F8300000F07F0084F83000EB
:1040A0000599487801234A4604F15401FEF714FFAC
:1040B00018B1012084F8310033E7C4F84490208F10
:1040C000C0F30800C0F50076AE4200D92E46D4E910
:1040D0000E014FF400720023CDE90001FCF783F9D3
:1040E00004F1540010443246014602900398FCF754
:1040F00003FC00BFAD1B0A98006881190A98016093
:10410000039830440390D4E90E10891940F100005F
:10411000C4E90E10002D7FF41BAF002001E7F8B5B5
:1041200007460E46694638460BF088FE044664BBD7
:104130002EB900213846FEF7DAFD044625E04FF49B
:104140008C6000F0F8F805460DB91120F8BD009814
:10415000C56005F500700099086100213846FEF73A
:1041600030FC0446042C00D100245CB931463846AA
:1041700000F060FC00213846FEF7B3FB0446042C37
:1041800000D10024284600F0DDF82046DEE72DE9C6
:10419000F04796B0044614A920460BF04FFE0546A2
:1041A000002D7ED194F8300000F04000002878D037
:1041B00094F8300000F0800090B1626C1499487857
:1041C000012304F15401FEF7D2FE18B1012016B00C
:1041D000BDE8F08794F8300000F07F0084F83000EC
:1041E00000F026FC824614980078042875D12046F9
:1041F00000F08EF9054635B94FF0FF322046216CAC
:1042000000F0A1F90546002DCBD14FF48C6000F0F1
:1042100092F88146B9F1000F01D11120D7E7149827
:10422000C0F80C9009F500701499086121466846A1
:1042300003F058FB0546002D4AD114980069007917
:1042400040F02000149909690871E07940F00100FC
:104250001499096981F82100A168149A126902F180
:10426000340009F04FF9D4E904731499096901F194
:1042700038003A4609F052F9D4E9047314990969EF
:1042800001F128003A4609F049F91499096901F148
:104290000C00514609F036F9002014990969487557
:1042A00000E046E01499096901F11000002109F0CD
:1042B00029F9684609F0EAFA05464DB9149809F05B
:1042C0002FFB054694F8300000F0BF0084F8300062
:1042D000484600F037F82CE0FFE7A16C149805F091
:1042E00027FC05462DBBE66CF07A40F02000F0720A
:1042F0003146A268206809F0F3F806F11C00216934
:1043000009F000F9514606F1160009F0FBF800210A
:1043100006F1120009F030F901201499C8701498C0
:1043200009F0FEFA054694F8300000F0BF0084F86A
:10433000300028464BE710B504462146002005F022
:10434000B5FD10BD10B504462146002005F09CFDCA
:1043500010BD00002DE9F84F04468B461E48D0F8EA
:1043600005004FEA500A802C01DAA04630E01A48D6
:10437000D0F805004FEA50090120C0EB9909002749
:1043800010261CE0A9EB070007EB50051248D0F8F7
:10439000010000EB850000EB0A010422684605F0ED
:1043A000FFFDBDF80000A04200D10AE0BDF800000A
:1043B000A04201DA2F4600E0A946701E86B2002E08
:1043C000E0D100BF16B1BDF8020000E00020804639
:1043D0004046BDE8F88F0000989107242DE9F84F7A
:1043E00004468B464FF0000A802C02D21FFA84F854
:1043F00030E01A48D0F805004FEA50090120C0EB20
:104400009909002710261CE0A9EB070007EB5005CF
:104410001248D0F8010000EB850000EB0A010422ED
:10442000684605F0BDFDBDF80000A04200D10AE0DD
:10443000BDF80000A04201D22F4600E0A946701E40
:1044400086B2002EE0D100BF16B1BDF8020000E038
:10445000002080464046BDE8F88F00009891072470
:1044600070B5B0F5803F4DD281B2B1F5805F01DA11
:10447000254E00E0254E324600BF32F8023B0BB11C
:10448000994200DA3CE032F8024B2512E4B21E19E0
:104490008E4230DD092D2CD2DFE805F005090F131F
:1044A000171B1F232700CE1A32F8161021E0CE1A50
:1044B00006F001068E1BB1B21BE0A1F11006B1B2ED
:1044C00017E0A1F12006B1B213E0A1F13006B1B2BC
:1044D0000FE0A1F11A06B1B20BE001F10806B1B28A
:1044E00007E0A1F15006B1B203E0A1F5E356B1B285
:1044F00000BF00BF04E0002DBFD102EB4402BCE7C7
:1045000000BF084670BD0000A04C0108924E010893
:104510002DE9F0410446E079032812D1A568A76986
:104520000BE06A1C2946206806F0E4F8064616B13E
:104530003046BDE8F0816D1C7F1E002FF1D10020B8
:10454000E0710020F5E72DE9F04104460D461746DD
:1045500016E0E369012B03D9E369EB1A9B1C00E029
:104560003B461A46E369EB1A591C206806F0C2F86C
:10457000064616B13046BDE8F081E069401EE061B4
:10458000E0690028E5D100BFF5E72DE9F74F0546C2
:104590000E46B61EE869801EB04200D8002634469A
:1045A000A2464FF0000B00BF686B00EB14312846A9
:1045B00005F0BEFA18B14FF0FF30BDE8FE8FC4F32E
:1045C000C80904F0070101208840C7B200BF00BF3E
:1045D00005F13C0010F8090000EA07087806070E0C
:1045E000601C0446E969891E884203D30024002721
:1045F0004FF40079B8F1000F08D10BF101008346A8
:104600000299884205D10AF10200D6E7A2464FF08E
:10461000000BB44201D10020CFE7002FD8D10127F1
:1046200009F101008146B0F5007FD0D3BCE72DE948
:10463000FF4107460D4600213846FDF793FA06462E
:10464000022E06D0032E00D21DB9304604B0BDE8BC
:10465000F08100BF00240AE007F5FD7101EB0411B1
:1046600001F1080003F0C6F84DF82400641C042C86
:10467000F2D30DB1681E00E00020044600BF5DF8D3
:10468000240028B15DF824103846FDF76BFA00E0ED
:10469000032006462DB9022E03D3601C04460428CD
:1046A000EDD33046D2E72DE9F3410446276802E016
:1046B0000198401C0190019800782F28F8D00198AB
:1046C00000785C28F4D00020A060E06101980078B8
:1046D000202808D280214B20015500212046FEF7DA
:1046E00006FB05463EE000BF01A92046FDF754FD4C
:1046F000054605B135E02046FEF71FF805464B207C
:10470000065D3DB1042D04D100BF06F0040000B9E0
:10471000052526E006F0040000B122E0A07900F0B3
:10472000100008B905251CE0387804280ED1A068CF
:104730002062206920F0FF00E17908436062E06CAC
:10474000A0622146384601F079FD09E0208EC0F3D1
:10475000080207F13C001118384603F038F8A06051
:10476000C2E700BF2846BDE8FC81000010B5002468
:104770000FE0601CC4B229224FF0C8710A4805F04E
:104780000FFC09480078AA2800D104E01420FDF7A6
:1047900007FF0A2CEDDB00BF03480078AA2801D0F0
:1047A000012010BD0020FCE79891072400BF054AB6
:1047B000D26902F04002002AF9D0C2B2014B9A62DB
:1047C00070470000001001402DE9FF4F83B00746FD
:1047D00091461E46049801683960416879600189F4
:1047E0003981807AB872052E19D9B04612E039F8AD
:1047F00002BB00240CE0584668F35F0080464FEA95
:104800006B0B08F4803010B1234888EA0008641C60
:10481000102CF0D3B9F800000028E8D14646072450
:1048200000BF06F00F0000F1300A3609BAF1390F67
:1048300003DD0AF1070000F0FF0A2046641E01A90B
:1048400001F800A00CB1002EEBD17E2001A9085583
:10485000002509E0785DFDF74FFE20B1601EA842FB
:1048600000D106E06D1C6D1CA54202D2785D2028A7
:10487000F0D100BF00BF082C04D22046641C01A95F
:10488000085C00E0202029466D1C7854082DF2D3E6
:1048900007B0BDE8F08F0000211001002DE9FC5F9A
:1048A00006460C463568022C02D3E869A04202D8BD
:1048B0004FF00109B9E04FF0FF392878012806D000
:1048C000022830D0032841D004287CD152E027466A
:1048D00007EB5707A86A00EB5721284605F028F98F
:1048E00000B1A1E038467F1CC0F3080105F13C008F
:1048F00010F80180A86A00EB5721284605F018F946
:1049000000B191E0C7F3080105F13C00405C48EAC2
:10491000002804F0010010B14FEA181001E0C8F3BC
:104920000B00814680E0A86A00EB1421284605F0C0
:10493000FFF800B178E040F2FF1101EA440205F10E
:104940003C01501802F093FF81466DE0A86A00EB2D
:10495000D411284605F0ECF800B165E040F2FF11F3
:1049600001EA840205F13C01501802F043FF20F0F7
:10497000704959E00023D6E90410594058400143DA
:1049800001D0B06808B9F07990BBB068A4EB000A18
:10499000D6E904305A1E60F10000CDE900204FF442
:1049A00000720023DDE90001FBF71DFD6989B0FB02
:1049B000F1FBF07902280AD1DA4508D8DA4503D1AB
:1049C0006FF0004001E02CE0601C81462CE0F079A3
:1049D000032805D1B069504502D904F1010923E04B
:1049E000F079022819D0F06918B16FF0004913E08E
:1049F00014E0A86A00EBD411284605F099F800B13C
:104A000012E040F2FF1101EA840205F13C01501866
:104A100002F0F0FE20F0004906E000BF4FF001096F
:104A200002E04FF0010900BF00BF4846BDE8FC9F0F
:104A3000002070472DE9FC5F80460C46D8F80090B6
:104A40000020A076D8F8380008B9BDE8FC9F99F896
:104A50000000042874D100200090402700258246E1
:104A600030E0B7F5187F01D3002532E007F01F00D2
:104A700000B9BF1CD9F81010C81902F0F8FE06469C
:104A8000BF1C0098401C0090BAF1000F07D1B6F58A
:104A9000584F04DBB6F5604F01DAB24612E0C5F1BB
:104AA000FF0204F11A03591946EA0A4005F004FF0F
:104AB0008346BBF1000F01D100250AE05D444FF0B1
:104AC000000A00BFD9F8100090F823100098814226
:104AD000C7D800BFBAF1000F00D000252DB93F2282
:104AE00028466D1C04F11A010A54002104F11A0031
:104AF000415500206073D9F81000007900F03700AC
:104B00002073207B00F0100010B10020014605E06A
:104B1000D9F8101001F1380002F078FEC4E9000164
:104B2000D9F8101001F10C0002F0A1FE6081D9F853
:104B3000101001F10E0002F09AFE208185E7FFE7D8
:104B4000D8F84C00401CB0B300252F46AA4623E0FD
:104B500038467F1CD9F80C2032F81060BAF1000FEB
:104B600007D1B6F5584F04DBB6F5604F01DAB2460F
:104B700012E0C5F1FF0204F11A03591946EA0A408E
:104B800005F09AFE8346BBF1000F01D1002509E034
:104B90005D444FF0000A00BFD9F80C0030F8170050
:104BA0000028D5D100BFBAF1000F00D000250021A8
:104BB00004F11A0041550020054607461AE0384620
:104BC0007F1CD8F83C20165C202E00D112E0052E68
:104BD00000D1E526092F07D10C2D05D22E2228461B
:104BE0006D1C04F10D010A5428466D1C04F10D01E1
:104BF0000E5400BF0B2FE2D3002104F10D004155EC
:104C0000A07EA8BB35B93F2228466D1C04F11A01CD
:104C10000A5423E00020054607460820019018E0CA
:104C200004F10D00C65D2E2E01D110200190412E01
:104C30000ADB5A2E08DCD8F83C00007B01990840BA
:104C400010B106F1200086B204F11A0046557F1C0F
:104C50006D1C04F10D00C05D0028E1D1002104F1BC
:104C60001A004155D8F83C00007B08B90020607359
:104C7000D8F83C00C07A00F03F002073D8F83C1010
:104C800001F11C0002F0B6FD0021C4E90001D8F8D2
:104C90003C1001F1160002F0EAFD6081D8F83C10EA
:104CA00001F1180002F0E3FD208100BFCDE670B5F0
:104CB00004464FF0FF3026683146324601B970BDD8
:104CC00000BF12F8013B202B01D33A2BF9D13A2B2C
:104CD00011D103250E78302E08DB0E78392E05DC35
:104CE0008E1C964202D10E78A6F13005032D01DA12
:104CF00028462260E3E7002000BFE0E73EB5044617
:104D00006B46062201A92046FFF7F5F805460DB1CE
:104D100001203EBD9DF80400472817D19DF80500ED
:104D2000492813D19DF8060046280FD19DF80700A9
:104D300038280BD19DF80800372803D09DF80800CB
:104D4000392803D19DF80900612801D00220E0E74D
:104D50000020DEE70FB42DE9F84F074688461446D9
:104D6000617904F1100000EB4100B0F800B0BDF82B
:104D7000380010B1BDF83A0018B9BDE8F80F5DF879
:104D800014FBB4F80900BDF8361088422ADDBDF8DE
:104D9000340038441FFA80F9BDF8360040441FFA49
:104DA00080FABDF834003844BDF838100844401E7D
:104DB00085B2B4F809004044401E86B2A94511DA14
:104DC000B2450FDAB5F5A07F0CDAB6F5A07F09DAA7
:104DD0005C48CDF800B033462A465146D0F808C0AA
:104DE0004846E047B4F80700BDF8341088422ADD91
:104DF000BDF8340038441FFA80F9BDF8360040444D
:104E00001FFA80FAB4F807003844401E85B2BDF896
:104E100036004044BDF83A100844401E86B2A94509
:104E200011DAB2450FDAB5F5A07F0CDAB6F5A07F3E
:104E300009DA4448CDF800B033462A465146D0F846
:104E400008C04846E047B4F80910B4F80D0008441B
:104E5000BDF83610BDF83A201144884232DABDF868
:104E6000340038441FFA80F9B4F8090000EB080157
:104E7000B4F80D000844401E1FFA80FABDF8340053
:104E80003844BDF838100844401E85B2BDF83600DD
:104E90004044BDF83A100844401E86B2A94511DAD4
:104EA000B2450FDAB5F5A07F0CDAB6F5A07F09DAC6
:104EB0002448CDF800B033462A465146D0F808C001
:104EC0004846E047B4F80710B4F80B000844BDF8B2
:104ED0003410BDF838201144884231DAB4F80700A4
:104EE000C119B4F80B000844401E1FFA80F9BDF840
:104EF000360040441FFA80FABDF834003844BDF84B
:104F000038100844401E85B2BDF836004044BDF854
:104F10003A100844401E86B2A94511DAB2450FDAAC
:104F2000B5F5A07F0CDAB6F5A07F09DA0548CDF813
:104F300000B033462A465146D0F808C04846E047FC
:104F400000BF1AE7EC9107242DE9F84F81460E4681
:104F500017469846DDF828A00025002000904FF461
:104F6000167005F0C0FB8346BBF1000F00D1112580
:104F70004FF4836005F0B7FB044604B9112543F6EE
:104F8000F44005F0B0FBC4F81404D4F8140400B9DC
:104F90001125002D5FD1012249465846FEF7C6FD76
:104FA0000546002D54D15846FFF7A8FE00B127252D
:104FB0002146584600F0D6FA00B127252088404502
:104FC00002DC6088504501DD28250FE02188A8EB30
:104FD000010000EBD07106EB61018EB26188AAEB93
:104FE000010000EBD07107EB61018FB20120204975
:104FF000087027E03B4632462146584600F0D2F979
:105000000546E07B00F0800010B1204600F028FE4D
:10501000B4F8120418B1B4F81204009001E00A20A8
:10502000009002E00A20FDF7BBFA0098411E89B209
:10503000009118B10E4800780028F3D1022D01D15B
:10504000002504E00A48007808B1002DD2D000BF46
:105050005846FEF7F7FA584605F03EFBD4F814041C
:1050600005F03AFB204605F037FB2846BDE8F88FEF
:105070006E0500242DE9FF4F8BB00E46DDF860B0C1
:10508000B6F80B000490B6F80D0003900D99049843
:105090000844401E0590717906F1100000EB4100B4
:1050A0000088019006F1100A0AAB012209A90B98A9
:1050B000FEF721FF9DF82410304600F015FDF07B2F
:1050C00000F040000690002008900E9C079059E1E7
:1050D00000254FF0FF380D9FE3E0D6F8140400F5EB
:1050E0004050D0F8BC0CD6F8141443F2021211440C
:1050F00088420FD9D6F8140400F54050D0F8BC0C03
:10510000401ED6F8141401F54051C1F8BC0C90F8BB
:10511000009004E031460B9800F047FA814609F10F
:10512000020018B900200FB0BDE8F08FB9F1000FF0
:1051300003DBB6F81004484501DC0120F3E7C14564
:1051400004D10598874201DC6D1CA8E0002D5BD0DE
:10515000D8452ED08F4890F82000012803D08D48E4
:1051600090F8200090B93AF8180005F065FE40F07C
:105170007F406B1C9AB2A1B27B1B5B1E009098B261
:10518000854BD3F80CC0009BE0473BE03AF8183061
:1051900005F1010E1FFA8EF2A1B2A7EB050EAEF1DA
:1051A000010E1FFA8EF0DFF8F0E1DEF80CC0E047E8
:1051B00028E01998022825D1764890F82000012887
:1051C00003D0744890F8200088B9019805F034FEA7
:1051D00040F07F406B1C9AB2A1B27B1B5B1E00901B
:1051E00098B26D4BD3F80CC0009BE0470AE06B1CF3
:1051F0009AB2A1B27B1B5B1E98B2674BD3F80CC06E
:10520000019BE04700254AE0B8F1000F47DBD84595
:1052100024D0604890F82000012803D05D4890F821
:10522000200070B93AF8180005F006FE40F07F4003
:10523000A1B27A1E009090B2574A5368009A9847DC
:105240002DE03AF81820A1B2A7F1010C1FFA8CF05A
:10525000DFF844C1DCF80430984720E019980228B0
:105260001DD14C4890F82000012803D0494890F8FF
:10527000200068B9019805F0DFFD40F07F40A1B241
:105280007A1E009090B2444A5368009A984706E00C
:10529000A1B27A1E90B2404A5368019A9847C84614
:1052A0007F1C059887427FF718AFD84502D119981F
:1052B00002284FD1D84503D03AF81800029001E0F7
:1052C000019802903DB3334890F82000012803D0A4
:1052D000304890F8200090B9029988B205F0ACFDF2
:1052E00040F07F406B1C9AB2A1B27B1B5B1E00900A
:1052F00098B2294BD3F80CC0009BE0472AE06B1C06
:105300009AB2A1B27B1B5B1E98B2234BD3F80CC0A0
:10531000029BE0471EE01F4890F82000012803D0C0
:105320001C4890F8200070B9029988B205F084FDFD
:1053300040F07F40A1B20090059A90B2164A53689F
:10534000009A984706E0A1B2059A90B2124A5368B3
:10535000029A9847069888B110490798085C044457
:105360000E98211A0398814209DB0798401C079088
:105370000B490798095C0E980C1800E0641C08980B
:10538000401C0890039908988842FFF6A1AE0020BF
:10539000C9E6000044060024EC9107246E4F010882
:1053A000724F01082DE9F0438BB080460C4615463C
:1053B0001E464FF0FF30049000BF0AAB012203A944
:1053C0004046FEF798FD07461FB101200BB0BDE82F
:1053D000F0839DF80C0021287BD02C2802D03B289C
:1053E0006CD174E0B4F80700ADF81800B4F8090007
:1053F000ADF81A00B4F80B00ADF81C00B4F80D00BD
:10540000ADF81E000AAB0922E11D4046FEF773FD10
:1054100007460FB10120D9E7E07B00F0800088B19A
:10542000204600F030FCE07B00F0070102208840BD
:105430001FFA80F94A462146404600F0A1FB08B118
:105440000120C3E79DF8140002280BD107980090B3
:105450009DF820008DF80400224631462846069B20
:10546000FFF778FC9DF814000499CDE90010B4F81A
:105470000900304483B2B4F80700284482B22146C0
:105480004046FFF7F7FD17E00AAB012209A94046A5
:10549000FEF731FD9DF8240000B910E0D8F838007F
:1054A0000A909DF824200A9881180A460023404655
:1054B000FEF7DBF800B102E0E6E70AE014E000BF27
:1054C0009DF8240008B1012080E700207EE702203B
:1054D0007CE705AB04AA2146404600F071FB074675
:1054E0000FB1012072E701E001206FE700BF9DF8D6
:1054F0000C003B287FF461AF002067E72DE9FC41F9
:1055000005460E4617466B46012201A92846FEF7BE
:10551000F2FC9DF8040010B3C6B19DF80400B84237
:105520000CDDAC6B9DF8040021180A4600232846C8
:10553000FEF79BF89DF80400BDE8FC816B469DF8E2
:10554000042031462846FEF7D6FC08E0AC6B9DF8F7
:10555000040021180A4600232846FEF786F89DF825
:105560000400E9E7F8B505460C466B4607222146DC
:105570002846FEF7C0FC06460EB10120F8BD207992
:1055800000F0800078B1207900F007010220884007
:10559000A4F81004B4F810242146284600F0F0FACC
:1055A00008B10120EAE70020E8E72DE9F041804654
:1055B0000C469DE1D4F8140400F54050D0F8E40CFA
:1055C000A8427DD1D4F8140400F54050D0F8E40C82
:1055D000B0F5805F03DB4FF0FF30BDE8F081D4F819
:1055E000141401F581704FF40052002104F042FCC4
:1055F000002606E0D4F8141442F2021211448E552B
:10560000761CD4F8140400F54050D0F8E40CB042F5
:10561000F0DC04F21444206800F54050D0F8D80CB7
:10562000401C216801F54051C1F8D40C206800F5F8
:105630004050D0F8E40C4100206800F54050C0F81C
:10564000E01C206800F54050D0F8E40C801C216874
:1056500001F54051C1F8DC0C206843F2021101440D
:10566000A4F2144400F54050C0F8BC1C00BF214611
:10567000404600F047F9D4F8141401F54051C1F840
:10568000EC0CD4F8140400F54050D0F8EC1CD4F81D
:10569000140400F54050D0F8E40C8142E7D0D4F86F
:1056A000140400F54050D0F8EC1CD4F8140400F5B4
:1056B0004050C0F8F01CD4F8140400F5405000E04D
:1056C00002E0D0F8EC0C88E7D4F8140400F5405060
:1056D000D0F8E80CA84202D16FF001007DE72F4618
:1056E000D4F8140400F54050D0F8DC0CA8421EDCBD
:1056F00004F21444206800F5405090F8EC2C206827
:1057000000F54050D0F8BC3C206800F54050D0F87F
:10571000BC1C491C206800F54050C0F8BC1C1A7025
:105720002068A4F2144400F54050D0F8F05C3AE050
:1057300004F21444206842F202110844425D2068D9
:1057400000F54050D0F8BC3C206800F54050D0F83F
:10575000BC0C401C216801F54051C1F8BC0C1A700A
:105760002068A4F2144400F5817030F91500A842B5
:1057700001D1284631E7D4F8140400F54050D0F8A0
:10578000BC0CD4F8141443F202121144401A40F62F
:10579000B831884201D328461FE7D4F8140400F535
:1057A000817030F91550D4F8140400F54050D0F849
:1057B000E40CA842BCDD04F21444206842F2021159
:1057C0000844425D206800F54050C0F8EC2C206889
:1057D00000F54050D0F8BC3C206800F54050D0F8AF
:1057E000BC0C411C206800F54050C0F8BC1C1A706D
:1057F0002068A4F2144400F54050D0F8DC0C0546B3
:10580000B0F5805F52DA04F21444206800F540508D
:10581000B0F8F00C01B2206800F5817020F8151086
:10582000206800F5405090F8EC0C216842F202121A
:1058300011444855206800F54050D0F8DC0C401C5D
:10584000216801F54051C1F8DC0C206800F540509A
:10585000D0F8DC1C2068A4F2144400F54050D0F8C5
:10586000E00C814222DBD4F8140400F54050D0F85B
:10587000E00CB0F5805F19DAD4F8140400F540505C
:10588000D0F8E00C4100D4F8140400F54050C0F802
:10589000E01CD4F8140400F54050D0F8D40C401C9F
:1058A000D4F8141401F54051C1F8D40CD4F8140400
:1058B00000F54050C0F8F07CD4F8140400F54050D6
:1058C000D0F8BC0CD4F8141443F2021211448842EC
:1058D0000ED9D4F8140400F54050D0F8BC0C401E8A
:1058E000D4F8141401F54051C1F8BC0C007874E6EA
:1058F0002146404600F006F8051EBFF65BAE28467E
:105900006BE600002DE9F04782460C46D4F81404FB
:1059100000F54050D0F8D00C70B10021D4F8140438
:1059200000F54050C0F8D01CD4F8140400F54050E5
:10593000D0F8E40CBDE8F087D4F8140400F540502A
:10594000D0F8C01CD4F8140400F54050D0F8D40CA2
:1059500001EB0009D4F8140400F54050D0F8C40C51
:1059600048455FDCD4F8140400F54050D0F8C80C6A
:1059700010B14FF0FF30DDE704F21444216843F624
:10598000CC404058801E085C0870216843F6CC402B
:105990004058401E085C48702068A4F21444811CE2
:1059A0004FF496725046FFF7A9FD071E06D101215C
:1059B000D4F8140400F54050C0F8C81C002F02DAD7
:1059C0004FF0FF30B6E7B81C04F21444216801F52B
:1059D0004051C1F8CC0C206800F54050D0F8C01CF4
:1059E000206800F54050D0F8C40C081A1030216827
:1059F00001F54051C1F8C00CB81CC100206800F589
:105A00004050C0F8C41C206800F54050D0F8C01CBD
:105A10002068A4F2144400F54050D0F8D40C01EBF7
:105A2000000900BF4FEAE908D4F8140400F540501B
:105A3000D0F8C00CC510454503D1D4F81404465D18
:105A400019E0681C404508D1D4F81404415D0246B1
:105A5000681C105C41EA00260DE0D4F81404415D96
:105A60000246681C105C41EA0021D4F81424A81CEA
:105A7000105C41EA004604F21444206800F54050EE
:105A800090F8C00C00F0070146FA01F0216801F51A
:105A90004051D1F8D41C0C4A32F8111000EA01062A
:105AA000206800F54050D0F8C01C206800F5405038
:105AB000D0F8D40C01442068A4F2144400F54050FE
:105AC000C0F8C01C304635E74E4F010810B50146FE
:105AD0000878C208487883088878C40804EB431023
