:020000040800F2
:10000000C093072425040008390400083B040008B5
:10001000C93500083F040008410400080000000042
:100020000000000000000000000000004304000881
:1000300045040008000000004704000849040008C7
:100040004B0400084B0400084B0400084B04000854
:100050004B0400084B0400084B0400084B04000844
:100060004B0400084B0400084B0400084B04000834
:100070004B0400084B0400084B0400084B04000824
:100080004B0400084B0400084B0400084B04000814
:100090004B0400084B0400084B0400084B04000804
:1000A0004B0400084B0400084B0400084B040008F4
:1000B0004B0400084B0400084B0400084B040008E4
:1000C0004B0400084B0400084B0400084B040008D4
:1000D0004B040008E13800084B0400084B040008FA
:1000E0004B0400084B040008000000004B0400080B
:1000F0004B0400084B0400084B0400084B040008A4
:100100004B0400084B0400084B0400084B04000893
:100110004B0400084B0400084B0400084B04000883
:100120004B0400084B0400084B0400084B04000873
:100130004B0400084B0400084B0400084B04000863
:100140004B0400084B040008000000000000000001
:100150004B0400084B0400084B0400084B04000843
:100160004B0400084B0400084B0400084B04000833
:100170004B0400084B0400084B040008000000007A
:100180004B0400084B0400084B0400084B04000813
:100190004B0400084B0400084B0400084B04000803
:1001A0004B0400084B0400084B0400084B040008F3
:1001B0004B0400084B0400084B0400084B040008E3
:1001C0004B0400084B0400084B0400084B040008D3
:1001D0004B040008293600084B0400084B040008B3
:1001E0004B0400084B0400084B0400084B040008B3
:1001F0004B0400084B0400084B0400084B040008A3
:100200004B0400084B0400084B0400084B04000892
:100210004B0400084B0400084B0400084B04000882
:100220004B0400084B0400084B0400084B04000872
:100230004B0400084B0400084B0400084B04000862
:100240004B0400084B0400084B0400084B04000852
:100250004B0400084B0400084B0400084B04000842
:100260004B0400084B0400084B0400084B04000832
:100270004B0400084B0400084B0400084B04000822
:100280004B0400084B0400084B0400080000000069
:100290004B0400084B04000800F002F800F0B2F82C
:1002A0000AA090E8000C82448344AAF10107DA45D1
:1002B00001D100F0A7F8AFF2090EBAE80F0013F071
:1002C000010F18BFFB1A43F00103184718D60000AE
:1002D00038D600000A444FF0000C10F8013B13F030
:1002E000070408BF10F8014B1D1108BF10F8015B8F
:1002F000641E05D010F8016B641E01F8016BF9D182
:1003000013F0080F1EBF10F8014BAD1C0C1B09D1D8
:100310006D1E58BF01F801CBFAD505E014F8016B4A
:1003200001F8016B6D1EF9D59142D6D370470000DC
:100330000023002400250026103A28BF78C1FBD8EE
:10034000520728BF30C148BF0B6070476E2900F0CC
:100350000983702900F02781662908F0CC8365297C
:1003600008F0C983672908F0C683612908F0C583AE
:1003700003681B0A28BF41F08001692900F09880BA
:10038000642900F09580752900F092806F2900F0B3
:10039000EA83782900F0F380E92900F08583E429D5
:1003A00000F08283F52900F07F83EF2900F0E783D6
:1003B000F82900F0F2800368DB0928BF41F08001D2
:1003C000632900F0C387732900F0C887E32900F090
:1003D000D387F32900F0D887002070471FB508F0B5
:1003E00085FB01F027F804000020002108F068FBDD
:1003F000401C60600020002108F04CFBE0601FBD45
:1004000010B510BD00F0E8FF1146FFF7E7FF06F05A
:1004100015FE01F0C5F803B4FFF7F2FF03BC05F0C9
:1004200048FC0000DFF83000016841F47001016011
:10043000BFF34F8F09480047FEE7FEE7FEE7FEE700
:10044000FEE7FEE7FEE7FEE7FEE7FEE704480549B4
:10045000054A064B7047000088ED00E0990200084D
:10046000C0890724C0930724C08B0724C08B0724AE
:10047000704700001CB50C46064B7B446946009053
:10048000204600F088FA04460020694600F096FAFB
:1004900020461CBD3F0500000FB4044910B503AA57
:1004A000029800F091FA10BC5DF814FB04000024DF
:1004B0002DE9F0410646002410687529314616A53D
:1004C00010D000F0BBF9002802DA404213A507E083
:1004D00031688A0701D512A502E0490704D511A5A4
:1004E000012401E000F0B3F900210A2206F12407FB
:1004F00009E0B0FBF2FCB0FBF2F302FB1C00303071
:1005000078541846491C0028F3D123462A46304621
:10051000BDE8F04100F0CDB9000000002D00000062
:100520002B00000020000000F0B40D4601880905F2
:1005300002D5214C7C4402E01F4C7C440E34002147
:1005400000F1240608E002F00F071209E75D42EA15
:1005500003721B097754491C52EA0307F3D102784E
:100560000023120704D5702D06D009B102231134DF
:100570002246F0BC00F09DB901231034F8E770B5B5
:1005800004460D462146106800F061F902462946EE
:100590002046BDE870400023C6E7D21D22F00703C5
:1005A000D3E90023C0E70368126843F02003036027
:1005B0000823C3610023B7E7ACD200002DE9F05F48
:1005C000894604464FF0000ADFF874B1FB44C0F8D6
:1005D00020A02046E1688847002874D0252806D04E
:1005E000D4E901219047206A401C2062F1E70026EF
:1005F0005F462046E16888472028054607DB312D05
:1006000005D2781910F8200C08B10643F1E7B007BD
:1006100001D526F00406C4F81CA00027C4F818A0D1
:100620002A2D09D0284605F03DFB38B304EB870896
:10063000303DC8F8185019E059F8041B204604EB67
:1006400087029161E1688847012F054618D1E0696A
:10065000002820DA26F020061DE0D8F8180000EB6C
:10066000800005EB40003038C8F818002046E168EB
:100670008847054605F016FB0028EED1012F0AD069
:100680002E2D08D12046E16888477F1C0546022FA1
:1006900046F02006C4DBA069002803DA404246F099
:1006A0000106A061F00701D026F010066C2D0BD0DA
:1006B000682D09D04C2D39D06A2D35D0742D35D008
:1006C0007A2D33D016E038E0E1682F46204688477F
:1006D000B842054609D16C2F26D04FF48060E168FE
:1006E000064320468847054604E06C2F1AD04FF495
:1006F000807006430DB3A5F14100192802D82035BA
:1007000046F400664A462946204626604E46FFF7D4
:100710001DFE80B101280BD0F61D26F0070000F168
:10072000080956E74020E4E78020D8E70020D6E714
:1007300006F104094DE7284652E7206ABDE8F09F1C
:100740003CD2000010B5431C02E010F8011B71B14F
:100750008107FAD14FF0013202C88C1A8C4314EA97
:10076000C211F9D0C01A0A0603D0C01E10BDC01AAB
:1007700010BD0A0401D0801E10BD0902FCD0401E2D
:1007800010BD10B5203AC0F00B80B1E81850203AE7
:10079000A0E81850B1E81850A0E81850BFF4F5AF21
:1007A0005FEA027C24BFB1E81850A0E8185044BFAB
:1007B00018C918C0BDE810405FEA827C24BF51F818
:1007C000043B40F8043B08BF7047D20728BF31F80C
:1007D000023B48BF11F8012B28BF20F8023B48BF5D
:1007E00000F8012B7047704770477047704770B52D
:1007F000044685690068C10601D5302600E0202640
:10080000C00707D070BDD4E9012130469047206A67
:10081000401C20626D1EF6D570BD70B5044685691A
:100820000078C00707D170BDD4E90121202090478E
:10083000206A401C20626D1EF6D570BD09684A050D
:1008400001D540B27047C905FCD500B270470968B0
:100850004A0501D5C0B27047C905FCD580B27047C2
:1008600070B50C460546012A05D02878800600D5CB
:10087000EA69002302E0012305E05B1C934202D2F7
:10088000E05C0028F9D1A869E618C01AA861286AB6
:10089000184428622846FFF7AAFF04E0D5E90121A1
:1008A00014F8010B9047B442F8D32846FFF7B5FF80
:1008B00070BD2DE9F0470D4699469246044600F179
:1008C00024080168880604D5E06921F01001216040
:1008D00000E00120A84201DD471B00E00027A169DC
:1008E0007A1902EB0900081AA0612078C00602D428
:1008F0002046FFF77CFF002608E0D4E901211AF822
:1009000006009047206A401C761C20624E45F4DBAE
:100910002078C0060AD52046FFF769FF06E0D4E933
:10092000012130209047206A401C2062381EA7F128
:100930000107F4DC07E0D4E9012118F8050090472D
:10094000206A401C2062281EA5F10105F3DC204628
:10095000FFF763FF2078000602D50220BDE8F0878C
:100960000120FBE711680268006A530501D5087091
:100970000AE0D30501D5088006E0130603D5C217A7
:10098000C1E9000200E008600120704701694A1CCB
:1009900002610878704700B58FB0CDE901310021C0
:1009A000059105497944CDE9031011466846FFF7E2
:1009B00005FE0FB000BD0000E5FFFFFF0A6802F86A
:1009C000010B0A6070470000074B70B50D467B4471
:1009D000FFF7E1FF0446284600F0DAFC10B14FF0C3
:1009E000FF3070BD204670BD635800002DE9FF5FE9
:1009F00015468A460446DFF8AC80F8440027D8E95B
:100A000000103E46CDE9001010E03AF816106A4694
:100A100002A800F0C1FC411C07D02178890603D54B
:100A2000E269391891420DD80744761C2078800677
:100A300002D5E069B84205DDAE42E6DB3AF81600C1
:100A40000028E2D1A069C01BA0612046FFF7CFFEBD
:100A5000D8E90010CDE90010002017E03AF818108E
:100A60006A4602A800F098FCB0F1FF3F81460BD027
:100A700000250DF1080B05E0D4E901211BF8050064
:100A800090476D1C4D45F7D308F10100B0428046F8
:100A9000E4DB206A384420622046FFF7BEFEBDE852
:100AA000FF9F000022CE00002DE9F0418046D21DBC
:100AB00022F007020025D2E90002F52915A614D07C
:100AC000011E72F1000106DA0023D0EB030063EB94
:100AD000020211A608E0D8F800108B0701D50FA676
:100AE00002E0490701D50EA601251146002408F1B0
:100AF000240704E000F04EF830323A55641C50EA06
:100B00000102F7D12B46324621464046BDE8F0416E
:100B1000FFF7CFBE000000002D0000002B000000FA
:100B20002000000030B4002100F1240408E002F0AD
:100B30000705D208303542EA4372DB086554491C88
:100B400052EA0305F3D10468002310A2250707D554
:100B5000A40600D421B1C46901230DA2641EC4619E
:100B600030BCFFF7A6BE10B5044621461068FFF75B
:100B70006EFE02462046BDE810400023D2E7D21D9B
:100B800022F00701D1E90023CCE7000000000000BB
:100B90003000000030B5B0F10A024FEA900E71F15A
:100BA00000034EEA817EB0EB0E0061EB91014FEA4B
:100BB000101E4EEA017E10EB0E0041EB11114FEAC0
:100BC000102E4EEA016E10EB0E0041EB11214FEAA0
:100BD000104E4EEA014E10EB0E0041EB1141401851
:100BE00041F100014FEAD00040EA41704FEAD101E3
:100BF00010EB80054FEA810444EA907444EB010451
:100C00006D1944EB0404521BA3414FF0000348BF8D
:100C10000A3200D530BD401C41F1000130BD7047A3
:100C20002DE9FF4F0C461E464FF0FF378BB0D2E93F
:100C30000001DDF860800A908A46C1F30A5505B9C3
:100C40003D46002108464FF00000BAF1000F00F4C5
:100C5000400005DA00EB80004FF4400101EA50004B
:100C60004FEA9059B9F1010F00DDB9460A9850EAF0
:100C70004A000ED044F61050A5F2FF3545432F141C
:100C8000B8F1000F1ED07542291E1EDDC9F1000209
:100C90001CE0B8F1010F4FF0000001D0302103E05B
:100CA000F24305E02154401CB042FBDB30460022F9
:100CB000002121540B99C1F80880C1E900200FB030
:100CC000BDE8F08FBD1B6D1CDEE74A4600DA6942C5
:100CD00006A800F0F3FB06AB93E8070003AB83E83C
:100CE000070050460A9900F09DFC8DE80700A0F52A
:100CF00000501F3800900398002D0ADD42F21F01BA
:100D00004A460844002303A90390684600F006FF02
:100D100009E0A0F500504A461F38002303A90390BC
:100D2000684600F010FF8DE807000004000C03D0B7
:100D30004FF0FF30410800E01046B8F1000F03D03B
:100D40000022009215461EE0751E05D4FFF722FF13
:100D5000303262556D1EF9D5B3460122084302D0E8
:100D600000227F1C04E02078302801D100227F1E61
:100D7000002A099784D01DE0112D07DAFFF70AFF3A
:100D8000303262556D1C50EA0102F5D1084302D0A1
:100D90000098C8B10EE00021681E05E0235C625C8B
:100DA00063542254401E491C8142F7DBAB46A81B0A
:100DB000401E0990002004F80B000B98099AC0F817
:100DC0000880C0E9002B7AE711264FF0000857E7AA
:100DD0002DE9F04F88460446D21D22F0070191B05C
:100DE000D1E90001CDE90A0104F044FF02460B9865
:100DF000C00F01D02D2007E02068810701D52B20EE
:100E000002E0202101EAC000032A099001D0072A4C
:100E100005DB03464146204600F010FB0BE120783D
:100E2000800601D5E06900E00620B8F1650F814633
:100E300006D0B8F1660F18D0B8F1670F70D131E065
:100E40000020B9F1110F009001DB112301E009F13D
:100E500001030AAA01A90CA8FFF7E2FEDDE90C7064
:100E6000002609F10105834647E001204B4600902A
:100E70004FF000470AAA01A90CA8FFF7D1FEDDE94F
:100E80000DB00C995D46002610B909F101000D184E
:100E9000B9EB050003D4C0F1FF3609F10105A5EB5C
:100EA00009002BE0B9F1010F01DA4FF00109002030
:100EB000B9F1110F0090484601DD112300E003460F
:100EC0000AAA01A90CA8FFF7ABFEDDE90C704D469C
:100ED00000268346207800070AD4AB4500DA5D4639
:100EE00001A8012D04DD411911F8011C302907D09A
:100EF0004F4502DA17F1040F04DA012082460FE0B1
:100F00006D1EEEE7002F02DCED1B3E4403E0781C73
:100F1000A84200DD7D1CB81B00F1010A4FF000471C
:100F20002078000703D4AA4501DB4FF0FF3A0021E7
:100F3000B7F1004F0DF143088DF8431024D0022083
:100F40002B23002F01DA7F422D230A21021EA0F15C
:100F5000010000DC5FB197FBF1FC97FBF1F201FBB4
:100F60001C7C17460CF1300C08F801CDEEE7A8F117
:100F7000010003702188090501D5452100E06521A4
:100F8000A0F1010800F8011C09980FA9A1EB0807BE
:100F9000FF1D00B10120411901EBEA70A16938443D
:100FA000081A401EA0612078C00602D42046FFF730
:100FB0001EFC099828B1D4E901219047206A401C01
:100FC00020622078C00622D52046FFF710FC1EE0E4
:100FD000002E04DBB34502DD01A8805D00E0302077
:100FE000D4E901219047206A401C2062761CAAF1B6
:100FF00001005FEA000A0AD100F01CFAC06801682B
:10100000405CD4E901219047206A401C2062281EE0
:10101000A5F10105DCDC07E0D4E9012118F8010B9A
:101020009047206A401C2062381EA7F10107F3DCBC
:101030002046FFF7F2FB032011B041E62DE9F04F07
:1010400004460D46D21D22F0070089B0D0E9009772
:101050004846394604F00EFE0246F80F01D02D2313
:1010600007E02068810701D52B2302E0202101EA57
:10107000C0038DF820300BB1012000E00020032ACE
:10108000824601D0072A04DB2946204600F0D6F923
:101090003FE12078800601D40D2500E0E569C7F323
:1010A0000A560D2D49DA00214FEA175B08464FF02A
:1010B0000000002F00F4400007DA00EB80004FF43E
:1010C000400100EBD07001EA60008115012901DDCB
:1010D0004FF0FF3100224FEA850CBCF1180F06D308
:1010E0001346ACF118004FF08052C24003E04FF4B9
:1010F000801323FA0CF30CF10C0CBCF1200F04D379
:10110000ACF1200C09FA0CF001E007FA0CF0002910
:101110004FF0004801DD18B90FE00ED140450CD367
:1011200019EB02095F4121B9404502D19F4329EAE9
:101130000209BBEB175F00D0761C2088000502D5A2
:101140007B48784402E07A487844193808AA30236A
:1011500002F80A30037C0AF10101002E0AF1020AAA
:1011600053546A4602DC4FF0300101E04FF0310188
:101170004FF001088DF8001002D0A6F2FF3603E010
:1011800059EA470100D06B4E002D02DC2178090797
:1011900004D54FF002082E218DF80110C44600211D
:1011A0000BE0C7F303433F01C35C491C6D1E02F80B
:1011B0000830052908F1010801DA002DF1DC0021D1
:1011C0000CE000EB1973491C1B786D1E082902F80E
:1011D00008304FEA091908F1010801DA002DF0DCA6
:1011E00021688B0602D516E0A8F10108E04505DD6F
:1011F00002EB080313F8013C302BF5D0B8F1000FD7
:1012000009DD02EB080313F8013C2E2B03D109077B
:1012100001D4A8F10108002D05DD3E2102F80810D7
:101220006D1E08F10108407C002E02F8080008F14C
:10123000010804DA2D20764202F8080002E02B2093
:1012400002F808000A214FF47A70864208F101087A
:101250000BDB96FBF0F3303302F8083096FBF0F32B
:1012600008F1010800FB136601E0642E0CDB64202A
:1012700096FBF0F3303302F8083096FBF0F308F1F8
:10128000010800FB136601E00A2E06DB96FBF1F075
:10129000303002F8080008F1010896FBF1F001FB7C
:1012A0001060303002F80800A16908F1010808EB6D
:1012B000050202EB0A00081AA0612078C00602D4D9
:1012C0002046FFF794FA216A08AE01EB0A0020627B
:1012D00004E0D4E9012116F8010B9047BAF1010AA4
:1012E000F7D22078C00602D52046FFF780FA6E4676
:1012F00009E016F8010B3E280FD0D4E901219047F0
:10130000206A401C2062B8F10108F2D22046FFF7A3
:1013100084FA09B00320BDE8F08F206A28442062D7
:1013200003E0D4E90121302090476D1EEBD3F8E7AC
:10133000F5C6000002FCFFFF10B5436913B1AFF31F
:10134000008001E0FFF78CFA012010BD127800F157
:1013500024010A7000224A700122EDE711684FF063
:10136000FF32E9E710B5436913B1AFF3008001E044
:10137000FFF73CFB012010BD128800F1240182849C
:101380000022C2840122EDE711684FF0FF32E9E745
:10139000007B00F08000704770B516460C4605468D
:1013A00000F040F8036893F80101012806D0FF2CF3
:1013B0000FD8185D68B101202C7070BDD3F80701FB
:1013C0003246214603F2071303442846BDE8704025
:1013D00018474FF0FF3070BD754600F0EBF8AE4691
:1013E00005006946534620F00700854618B020B531
:1013F000FFF72CF8BDE820404FF000064FF0000743
:101400004FF000084FF0000B21F00701AC46ACE8AC
:10141000C009ACE8C009ACE8C009ACE8C0098D4619
:101420007047000010B500F005F8001D10BD00BFAA
:101430009176000000487047808907242DE9F0412B
:101440001F46044603260168072A01F4006004DBF6
:1014500008B116A505E016A503E008B115A500E042
:1014600015A521F010002060A069C01EA0610FB179
:10147000401EA0612046FFF7BAF94FB1D4E901211F
:1014800038469047206A401C2062C01C206206E05B
:10149000206AFAE7D4E9012115F8010B9047761E7E
:1014A000F8D22046FFF7B9F9BDE8F0814E414E0071
:1014B0006E616E00494E4600696E66002DE9F04788
:1014C000814616468AB0354878440DC88DE80D002F
:1014D00032487844801C03AC0DC884E80D0041F606
:1014E0009B300844372190FBF1F290FBF1F5A5F118
:1014F000800501FB12041B3C02D56442012000E080
:101500000020DFF898A080460027FA44AAF1BE0A1E
:101510000EE0E0070AD03246684607EB4701012398
:101520000AEB810100F00FFB8DE8070064107F1CBF
:10153000002CEED1194F7F44AE3F19E0E80715D0DB
:1015400007EB04100DF1180A90E80E008AE80E006F
:10155000C068F04201D1981908903246012306A9CB
:1015600003A800F0F0FA03AB83E807006D10641CD9
:10157000002DE3D14FF0010332466946B8F1000F68
:1015800003A802D000F0CAFA01E000F0DCFAC9E9D1
:101590000001C9F808200AB0BDE8F08700C40000C7
:1015A00010B50446AFF300802046BDE81040FEF7BA
:1015B00032BF000000487047608907244FF0013CAB
:1015C00050F8042B51F8043B9A4215D1A2EB0C03BE
:1015D000934313EACC130BD150F8042B51F8043B7E
:1015E0009A4209D1A2EB0C03934313EACC13E7D040
:1015F0004FF00000704700BFD01A01BAB1FA81F174
:1016000001F0180122FA01F0CB40C1F12001DBB258
:10161000C0B2C01A2CFA01F3D11A914311EAC311D6
:10162000E6D170475FEA400C08BF91F0000F4FEA27
:101630008C234FEAC12243EA51514FEA1C5018BF94
:1016400000F5F0404FEA300018BF41F000415FEA7A
:101650006C5C00F02980BCF1FF3F08BF40F0804087
:101660007047130C06BF12044FF0100C4FF0000C23
:10167000130E04BF12020CF1080C130F04BF120169
:101680000CF1040C930F04BF92000CF1020CD30F69
:1016900004BF52000CF1010C11464FF00002A0F102
:1016A0001F00A0EB0C00704711F0004F08BF7047FF
:1016B00031F000413FF4D5AF0B0C06BF09044FF0E9
:1016C000100C4FF0000C0B0E04BF09020CF1080CBB
:1016D0000B0F04BF09010CF1040C8B0F04BF890030
:1016E0000CF1020CCB0F04BF49000CF1010CCCF142
:1016F0002003A0EB0C0022FA03F302FA0CF241EAF9
:10170000030100F10100704720F07F4C80EA0300E4
:1017100023F07F47ACEB070303F57C5300F0004058
:1017200003F1FF032DE980494FEA154B09B44FEA55
:10173000144325EA0B4E24EA03480FF2042606EB75
:10174000132749083E785FEA320203FB0667C7F5B4
:10175000000707FB06F64FEA54374FEAD64606F174
:10176000020607FB066CCCF1005C4FEA1C472CEA32
:10177000074C07FB06F40CFB06F504EB15464FEA95
:10178000961634BF00204FF000404FEAD13706FBD9
:1017900007FC4FEA1C4C0CFB0BF7D21B03FB0CF7AE
:1017A00061EB07010CFB0EF7B0EB074072EB174241
:1017B0000CFB08F734BFA2EB0742B2EB074261EB28
:1017C00017414FEA0C444FEA910706FB07FC4FEA2A
:1017D0001C4C0CFB0BF7B0EBC74072EB573203FB12
:1017E0000CF734BFA2EBC742B2EBC74261EB5731F3
:1017F0000CFB0EF7B0EBC70072EB57720CFB08F74F
:1018000034BFA2EBC702B2EBC70261EB5771039F73
:101810004FEA816141EA921104EBCC044FEAD137DF
:101820004FEA826206FB07FC42EA90124FEA8060B0
:101830004FEA1C4C0CFB0BF7D21B03FB0CF761EBC4
:1018400007010CFB0EF7B0EB074072EB17420CFBE5
:1018500008F734BFA2EB0742B2EB074261EB174136
:101860004FEA8C554FEA910704EB9C2406FB07FCDA
:101870004FEA1C4C0CFB0BF7B0EBC74072EB573236
:1018800003FB0CF734BFA2EBC742B2EBC74261EBDC
:1018900057310CFB0EF7B0EBC70072EB57720CFB25
:1018A00008F734BFA2EBC702B2EBC70261EB577176
:1018B00015EB4C254FEA816141EA92114FEA8262B1
:1018C0004FEAD13742EA901206FB07FC44F10004CC
:1018D0004FEA80604FEA1C4C0CFB0BF7D21B03FB5A
:1018E0000CF761EB07010CFB0EF7B0EB074072EB56
:1018F00017420CFB08F734BFA2EB0742B2EB0742DA
:1019000061EB174115EB1C154FEA813141EA924119
:101910004FEA823242EA90424FEA80304FEA0C7638
:1019200044F1000448EA03434EEA0B484FF0000E2E
:10193000B2EB080C71EB030724BF624639464EEB4D
:101940000E0E4FF0000B0018524149414BEB0B0BB0
:10195000B2EB080C71EB03077BF1000B24BF62466E
:1019600039464EEB0E0E4FF0000B00185241494124
:101970004BEB0B0BB2EB080C71EB03077BF1000B8D
:1019800024BF624639464EEB0E0E51EA020718BFDD
:1019900046F0010616EB0E7655F1000254F10001F7
:1019A00003D5BDE88901BDE80088BDE88901BDE82F
:1019B0000048B619524141EB0101A3F10103704700
:1019C00080807F7E7D7C7B7A79787776767574737C
:1019D000727171706F6E6E6D6C6C6B6A6A6968683B
:1019E000676666656464636362616160605F5F5ED1
:1019F0005E5D5D5C5C5B5B5A5A5959585857575647
:101A000056555555545453535252525151505050AB
:101A10004F4F4F4E4E4D4D4D4C4C4C4B4B4B4A4AFD
:101A20004A49494948484847474747464646454541
:101A3000454444444443434343424242424141417A
:101A4000002B9C4630D477002BD01CB54FEA3707CB
:101A500003B44FF010004FF01001BAF1000F06D0A0
:101A6000BCF1000FDCBF40F0080040F008014FF06F
:101A700000000FBCBDE810400BF1010BBBF1010FE2
:101A800008BF5FEA170722BF12F1010211F101013D
:101A90004FF0004143F1000300F0004043EA000032
:101AA0007047F9D35708D0E746EA064613F1400FCE
:101AB0004FEA16461FDD13F1200FDFBF16430A461B
:101AC000002120335B42BED0C3F1200746EA064620
:101AD00002FA07F74FEA164646EA0706C3F120075F
:101AE00022FA03F201FA07F721FA03F14FF000039B
:101AF00042EA0702A7E746EA020646EA06464FEA36
:101B0000164646EA0106BCBF46EA0646360C4FF0CA
:101B100000034FF000024FF0000194E72DE9804CE4
:101B20009A46934670B491E8380007C831EA400CF1
:101B300048BF34EA430C03D5FFF7E6FDFFF780FF0B
:101B4000F0BCBDE8008C2DE9804C9A46934670B4F9
:101B500091E8380007C810F0804F08BF13F0804F9D
:101B600003D100F005F8FFF76BFFF0BCBDE8008C77
:101B700020F07F4780EA030023F07F4C07EB0C0343
:101B8000A3F57C5300F00040A3F1FE0392F0000F98
:101B900000F0B38095F0000F00F077802DE9014947
:101BA0004FEA11404FEA144621EA004800FB06FCC8
:101BB00024EA064708FB06F607FB08F800FB07F7D0
:101BC00018EB06484CEB164C4FEA124B18EB074843
:101BD0004FEA15464CEB174022EA0B4E0BFB06FC76
:101BE00025EA06470EFB06F607FB0EFE0BFB07F782
:101BF0001EEB064E4CEB164C4FF000061EEB074E4C
:101C00004CEB174B18EB0B0840F1000018EB0E0BD8
:101C100058EB000840F100008F1A4FF000013CBF64
:101C2000C943661B14BFB5EB040C00213CBFC9437C
:101C3000F61B4FEA17444EEA8E0E27EA04454FEA98
:101C40001C4704FB07622CEA074C05FB07F70CFB5B
:101C500005F604FB0CFC16EB074642EB174216EBAD
:101C60000C4642EB1C421BEB060658EB02024141BC
:101C700046EA9E0601D5BDE80189B619524141EBFD
:101C80000101A3F10103BDE801894FEA14454FEAC0
:101C9000114724EA054621EA074C05FB07F406FB39
:101CA00007F70CFB06F105FB0CFC11EB074144EBBD
:101CB00017444FEA124711EB0C4144EB1C4422EA53
:101CC000074C05FB07F206FB07F70CFB06F605FBC6
:101CD0000CFC16EB074642EB174216EB0C4642EBA8
:101CE0001C456A1854F1000148BF7047B6195241AB
:101CF00041EB0101A3F10103704795F0000F37D0CC
:101D00004FEA11424FEA144721EA024624EA074CFF
:101D100002FB07F106FB07F70CFB06F402FB0CFCC9
:101D200014EB074441EB17414FEA154714EB0C4401
:101D300041EB1C4125EA074C02FB07F506FB07F7C0
:101D40000CFB06F602FB0CFC16EB074645EB1745B1
:101D500016EB0C4645EB1C42121951F1000148BF2D
:101D60007047B619524141EB0101A3F101037047DD
:101D70004FEA14454FEA114724EA054621EA074C89
:101D800005FB07F106FB07F70CFB06F24FF0000618
:101D900005FB0CFC12EB074241EB174112EB0C4226
:101DA00051EB1C4148BF7047921841EB0101A3F170
:101DB0000103704770B505460C461646042D15D034
:101DC00007DC7DB1012D0ED0022D0DD0032D50D199
:101DD0000BE0202D0BD0212D30D0222D47D0232DEC
:101DE00047D145E046E045E044E043E042E020786A
:101DF000617840EA0120A17840EA0140E17840EAB8
:101E000001601E4908602079087160794871A079E5
:101E10008871084601791AA0FEF73EFB1748417900
:101E20001DA0FEF739FB1548817922A0FEF734FB8F
:101E30001248016826A0FEF72FFB1BE00F48007830
:101E400020700E480088000A60700C480068000C82
:101E5000A0700A480068000EE07008480079207100
:101E600006484079607105488079A07102E001E080
:101E700000E000BF00BF002070BD00006805002426
:101E80006C696E65636F64696E672E666F726D61F3
:101E9000743A25640D0A00006C696E65636F6469AD
:101EA0006E672E706172697479747970653A256411
:101EB0000D0A00006C696E65636F64696E672E645D
:101EC000617461747970653A25640D0A0000000040
:101ED0006C696E65636F64696E672E6269747261A6
:101EE00074653A25640D0A000020704710B5034957
:101EF000034801F08BFE002010BD0000D0870724AE
:101F00008805002470B505460C462846216800293E
:101F100023DD00F01F067218034600BF00BF00BF9C
:101F2000BFF34F8F00BF00BF00BF00BF104E336034
:101F30002033203A002AF9DC00BF00BF00BFBFF306
:101F40004F8F00BF00BF00BF00BF00BF00BFBFF387
:101F50006F8F00BF00BF00BF00BF00BF054801F08A
:101F600030FE2846216803F0A7FE002070BD000067
:101F700068EF00E08805002430B5039C42EA811533
:101F800045EA032545EA0445C56630BDF0B504467B
:101F9000059D0A2606E0C6F10A00B0F57A7F01D950
:101FA0000320F0BD2068406F00F001000028F2D04F
:101FB00042EA811040EA032040EA05402768F866BB
:101FC0000020EEE770B50948046845688668344427
:101FD00054B108220649204601F0D6FA04220449E9
:101FE0001031284601F0D0FA70BD00000010005CEE
:101FF0004E050024024600BF107C012801D10220BA
:1020000070470120107400BF1068C06A20F01F00E4
:102010001368D8621068C06A08431368D86200BFAA
:102020000020107400BF00BFEAE7024600BF107C2A
:10203000012801D1022070470120107400BF4868B8
:10204000032800D100BF1068406B20F00100136826
:1020500058631068D0F8000420F001001368C3F83A
:1020600000041068806B20F0030013689863106808
:10207000806BCB681843136898631068C06B6FF36C
:102080000D001368D8631068C06B0B6918431368A0
:10209000D8631068006C6FF30C0013681864106844
:1020A000006C4B691843136818641068406C6FF338
:1020B0000C00136858641068406C8B6918431368EF
:1020C00058641068C06820F003001368D860106876
:1020D000C0680B6818431368D8601068406920F026
:1020E000070013685861D1E908301843CB691843D9
:1020F00013685B691843136858611068006920F021
:102100000F0013681861106800694B681843136862
:1021100018611068D0F8000420F00E001368C3F8AE
:1021200000041068D0F800044B6840EA43001368CC
:10213000C3F80004486803280BD11068006920F434
:10214000807013681861106800698B681843136801
:1021500018611068806C6FF30B0013689864106846
:10216000806C8B6A1843136898641068C06C6FF3B6
:102170000B001368D8641068C06CCB6A18431368EE
:10218000D8641068006D6FF30E001368186510684E
:10219000006D0B6B1843136818651068406D6FF382
:1021A0000900136858651068406D4B6B184313683D
:1021B00058651068806D6FF30900136898651068A2
:1021C000806D8B6B1843136898651068C06D6FF352
:1021D00009001368D8651068C06DCB6B184313688D
:1021E000D8651068006E6FF30D00136818661068EC
:1021F000006E0B6C1843136818661068806B20F42F
:102200000040136898631068806B4B6C1843136828
:1022100098631068806920F47F00136898611068E3
:102220008069B1F8483040EA03401368986110684B
:10223000806920F0FF001368986110688069CB6C9A
:102240001843136898611068806B20F4005013687D
:1022500098631068806B0B6D18431368986310685F
:10226000806B20F48050136898631068806B4B6D0E
:102270001843136898631068806B20F4006013683B
:1022800098631068806B8B6D1843136898631068AF
:10229000806B20F48060136898631068806BCB6D4E
:1022A0001843136898631068806B20F400701368FB
:1022B00098631068806B0B6E1843136898631068FE
:1022C000806B20F48070136898631068806B4B6E8D
:1022D0001843136898631068806B20F4804013687B
:1022E00098631068806B8B6E18431368986300BF07
:1022F0000020107400BF00BF9DE600002DE9F843E8
:1023000004460D4614B90120BDE8F883607C10B97D
:10231000204600F094F90320607400BF0020009074
:102320002068D0F8300440F080702168C1F8300493
:102330002068D0F8300400F08070009000BF00BF2B
:102340000A2606E0C6F10A00B0F57A7F01D903201B
:10235000DAE72068D0F80C0400F480500028F1D0AF
:102360002068D0F830047C4908402168C1F8300466
:1023700028688000696840EAC120298940EA014054
:102380002168D1F8301408432168C1F8300400BF37
:10239000002000902068D0F8300440F0010021684F
:1023A000C1F830042068D0F8300400F0010000903B
:1023B00000BF00BF012000F03BFA0A2606E0C6F18C
:1023C0000A00B0F57A7F01D903209DE72068D0F894
:1023D0000C0400F480700028F1D000BF00200090B1
:1023E0002068406840F0010021684860206840682B
:1023F00000F00100009000BF00BF2068806820F05E
:10240000FF002168886020688068A168084321680F
:1024100088602068D0F8A00040F002002168C1F870
:10242000A0002068D0F8A00040F004002168C1F8A6
:10243000A0002068D0F8A40020F003002168C1F8B3
:10244000A4002068D0F8A400E16808432168C1F81E
:10245000A4000A262068D0F8A40000F0030098B970
:102460000AE0C6F10A00B0F57A7F05D900BF002066
:10247000207400BF032047E72068D0F8B00000F0C8
:1024800014001428EDD112E00AE0C6F10A00B0F5FC
:102490007A7F05D900BF0020207400BF032033E7F6
:1024A0002068D0F8B00000F094009428EDD168685E
:1024B00008B1686800E001208046284808FB00F069
:1024C000297A01F0030201219140484346F2A81203
:1024D00029685143B0FBF1F72068D0F8180420F0C8
:1024E0003F002168C1F818042068D0F81804384368
:1024F0002168C1F8180400202168C1F8C400002137
:102500002068C0F8C8100020A06100BF00902068BB
:10251000406820F00100216848602068406800F0B1
:102520000100009000BF00BF2068D0F8940020F0A8
:1025300003002168C1F894002068D0F89400616815
:1025400041F0010108432168C1F894000020606156
:10255000012060740020D7E60386FCFF00093D00DF
:102560002DE9FF4F81B004461F46DDF83CA000BFB7
:10257000207C012803D1022005B0BDE8F08F0120A6
:10258000207400BF4FF00A0B0AE0CBF10A00B0F54F
:102590007A7F05D900BF0020207400BF0320EBE73D
:1025A0002068406F00F001000028EED0DDF8388090
:1025B000032F01D2384600E003200646002507E03D
:1025C0001AF80500E9000831884040EA08086D1C47
:1025D000B542F5D32068C0F87080A7EB0609B24475
:1025E00019E0B9F1040F01D2484600E00420064684
:1025F0004FF00008002506E01AF80500E9008840C1
:1026000040EA08086D1CB542F6D32068C0F8708017
:10261000A9EB0609B244B9F1000FE2D1781CC0F36E
:102620000720791CCBB200902068DDE90212FFF789
:10263000A3FC00BF0020207400BF00BF9CE77047D0
:102640002DE9FF4F85B0044691469A46149F129E8D
:10265000CDF81090554600BF207C012803D1022000
:1026600009B0BDE8F08F0120207400BF022D0FD902
:10267000C5F30720EBB23722009020460699FFF7FA
:1026800085FC28B100BF0020207400BF0120E7E7CF
:10269000062E08D10020009020683246139B069930
:1026A000FFF76AFC26E0042E08D1002000900023EA
:1026B000324620680699FFF75FFC1BE0142E08D114
:1026C000002000903B78324620680699FFF754FCC2
:1026D00010E0242E08D1787800903B7832462068AC
:1026E0000699FFF749FC05E000BF0020207400BFF9
:1026F0000120B5E74FF00A0B3DE02068406F00F085
:102700001000D8B92068006F0390042D01D228462C
:1027100000E0042002904FF000080CE04FEAC801EE
:102720000398C840C1B2049801700498401C0490FA
:102730006D1E08F1010802988045EFD3CBF10A0025
:10274000B0F57A7F05D900BF0020207400BF0320B8
:1027500086E72068406F00F0400060B92068D0F83C
:10276000C00000F02000202805D100BF0020207408
:1027700000BF012074E7002DBFDC00BF00202074E3
:1027800000BF00BF6CE72DE9F84304460E4617462C
:102790009846DDF8209000BF207C012802D102205D
:1027A000BDE8F8830120207400BF43463A46314615
:1027B0002046CDF80090FFF7E9FB054600BF00205A
:1027C000207400BF2846EBE708B5014600BF087C2F
:1027D000012801D1022008BD0120087400BF00BFFC
:1027E000002000900868406840F001000A685060CE
:1027F0000868406800F00100009000BF00BF00BF03
:10280000002000900868D0F8040440F008000A682E
:10281000C2F804040868D0F8040400F0080000902E
:1028200000BF00BF00BF0020087400BF00BFD2E798
:1028300010B50446A0B203F0A7FA10BD01460A681D
:102840000120C1F8FC03002081F8F403906940F0F6
:1028500000609061506D024B184350650020704736
:102860000300001070470246106841620020704764
:10287000F0B5034615461868446A21B944EA054094
:102880001E68B06219E01868806A04EB10440022E8
:1028900008E0186800F5827050F8220004EB10443C
:1028A000501CC2B2481E9042F3D844EA054718684B
:1028B00000F582704E1E40F826700020F0BD00002A
:1028C00010B50446012003490870D4F8040401F04F
:1028D00066FD10BD1705002470B504460D46C5EB16
:1028E000C50304F13C0101EB8301CA682946D4F811
:1028F000040401F09CFC70BD70B504460D46C5EBA8
:10290000C50304F5FE7101EB8301CA682946D4F8BA
:10291000040401F0FDFC70BD10B50446002005491B
:10292000087005A0FDF7B8FDD4F8040401F03AFDE5
:1029300010BD0000170500245553422044657669F8
:10294000636520446973636F6E6E65637465642E9E
:102950000D0A000070B504460E4606F0800080287F
:102960000AD106F00F00C0EBC00104F13C0000EBFF
:1029700081050120687009E006F00F00C0EBC0017E
:1029800004F5FE7000EB81050020687006F00F0072
:10299000287000BF94F8BC03012801D1022070BD4B
:1029A000012084F8BC0300BF2946206802F0BEFA6B
:1029B00000BF002084F8BC0300BF00BFEFE770B584
:1029C00004460E4606F00F006168884201D90120D6
:1029D00070BD06F0800080280AD106F00F00C0EB21
:1029E000C00104F13C0000EB81050120687009E0A2
:1029F00006F00F00C0EBC00104F5FE7000EB81058E
:102A0000002068700020A87006F00F00287000BF3A
:102A100094F8BC03012801D10220D9E7012084F8F1
:102A2000BC0300BF2946206802F062FD00BF002001
:102A300084F8BC0300BF00BFCAE7024601F00F00E4
:102A4000C0EBC00302F5FE7000EB830080697047A5
:102A50002DE9F04705460E4690461F464FF0000907
:102A600006F0800080280AD106F00F00C0EBC001FC
:102A700005F13C0000EB81040120607009E006F0E4
:102A80000F00C0EBC00105F5FE7000EB81040020D3
:102A9000607006F00F002070C4F80880E77060785E
:102AA00008B12078E080022F01D10020207100BF02
:102AB00095F8BC03012802D10220BDE8F08701206F
:102AC00085F8BC0300BF2146286802F041F900BF29
:102AD000002085F8BC0300BF4846EEE72DE9F04131
:102AE00004460E461746984606F00F00C0EBC0019C
:102AF00004F5FE7000EB8105EF60C5F8148000203E
:102B0000A861687006F00F0028702069012800D1C4
:102B10002F6106F00F0028B9227C2946206802F0B8
:102B2000C3FB04E0227C2946206802F075FD0020EA
:102B3000BDE8F08170B504460D4605F00F006168F0
:102B4000884201D9012070BD05F0800080280AD19B
:102B500005F00F00C0EBC00104F13C0000EB810662
:102B60000120707007E0C5EBC50104F5FE7000EBB5
:102B70008106002070700120B07005F00F003070E9
:102B800000BF94F8BC03012801D10220DBE701203B
:102B900084F8BC0300BF3146206802F0F0FC05F069
:102BA0000F0028B9217C04F57172206802F068FCDE
:102BB00000BF002084F8BC0300BF00BFC3E72DE9BD
:102BC000F04104460E461746984606F00F00C0EB4B
:102BD000C00104F13C0000EB8105EF60C5F81480F2
:102BE0000020A8610120687006F00F00287020699D
:102BF000012800D12F6106F00F0028B9227C294658
:102C0000206802F051FB04E0227C2946206802F093
:102C100003FD0020BDE8F0812DE9FC5F044620683B
:102C20000190019D206802F0E2FE00287DD120681D
:102C300002F01CFF08B9BDE8FC9F206802F016FFF7
:102C400000F00200022805D12068406900F002006F
:102C500021684861206802F009FF00F01000102888
:102C600046D12068806920F01000216888610198B1
:102C7000D0F8209009F00F00C0EBC00104F5FE7001
:102C800000EB810BC9F3434002281AD147F6F070DC
:102C900009EA000030B3C9F30A12DBF80C100198FE
:102CA00002F0E9FEC9F30A11DBF80C000844CBF886
:102CB0000C00C9F30A11DBF818000844CBF818001F
:102CC00010E0C9F3434006280CD1082204F57171C5
:102CD000019802F0D0FEC9F30A11DBF8180008448D
:102CE000CBF818002068806940F0100021688861E6
:102CF000206802F0BBFE00F40020B0F5002F52D196
:102D00000026206802F082FE824649E00AF00100B7
:102D1000E8B3F1B2206802F09CFE804608F00100A2
:102D200058B1012105F5306000E040E200EB4610AB
:102D300081603146204600F0B1FC08F00800082808
:102D400009D1082105F5306000EB4610816031465D
:102D5000204600F071FC08F01000102805D1102169
:102D600005F5306000EB4610816008F02000202857
:102D700005D1202105F5306000EB4610816008F494
:102D80000050B0F5005F08D14FF4005100E004E0BE
:102D900005F5306000EB46108160761C4FEA5A0A58
:102DA000BAF1000FB2D1206802F060FE00F480207A
:102DB000B0F5802F7ED1206802F01EFE82460026EC
:102DC00083E00AF0010000287CD0F1B2206802F014
:102DD00027FE804608F00100F0B306F00F01012045
:102DE0008840009040F634004159009821EA0000E4
:102DF00040F634014851012105F5106000EB461002
:102E000081602069012824D1C6EBC60104F13C0091
:102E100000EB8100C6EBC602C16804F13C0000EB88
:102E2000820080680144C6EBC60204F13C0000EB5E
:102E30008200C1606EB9C6EBC60104F13C0000EB34
:102E40008100406928B904F571720121206802F0FF
:102E500017FBF1B2204600E001E0FFF73DFD08F06E
:102E60000800082805D1082105F5106000EB461080
:102E7000816008F01000102805D1102105F51060C0
:102E800000EB4610816008F04000402805D1402149
:102E900005F5106000EB4610816008F00200022882
:102EA00005D1022105F5106000EB4610816008F0A5
:102EB000800001E00DE005E0802803D13146204686
:102EC00000F0AAFC761C4FEA5A0ABAF1000F7FF410
:102ED00078AF206802F0CAFD00F00040B0F1004F6A
:102EE0001CD140F60400405920F0010140F60400D6
:102EF000415194F8F403012807D1002084F8F40329
:102F000000212046FFF7AEFC02E0204600F0BAFAAE
:102F10002068406900F0004021684861206802F0A4
:102F2000A5FD00F40060B0F5006F0ED140F608007A
:102F3000405900F0010010B1204600F007FB206866
:102F4000406900F4006021684861206802F08EFD4D
:102F500000F00060B0F1006F19D12068406900F006
:102F600000602168486194F8F40368B9012084F88E
:102F7000F4032068406DC0F38300C4F8F803012116
:102F80002046FFF76FFC02E0204600F0DFFA2068E1
:102F900002F06CFD00F48050B0F5805F7DD140F60A
:102FA0000400405920F0010140F604004151102175
:102FB000206802F0F1FC00273EE04FF67F3105F576
:102FC000106000EB4710816005F5106000EB4710C2
:102FD000006820F4001105F5106000EB4710016057
:102FE00005F5106000EB4710006840F0006105F542
:102FF000106000EB471001604FF67F3105F530603F
:1030000000EB4710816005F5306000EB4710006869
:1030100020F4001105F5306000EB4710016005F564
:10302000306000EB4710006840F0006105F530604B
:1030300000EB471001607F1C6068B842BDD840F6C5
:103040001C00405940F0011140F61C004151206B1A
:1030500070B1D5F8840840F00B01C5F8841840F62B
:103060004400405940F00B0140F6440041510FE04C
:1030700040F61400405942F22B01084340F6140177
:103080004851081F405940F00B014FF40160415175
:10309000D5F8000820F4FE6000E00DE0C5F8000857
:1030A000217C04F57172206802F0EAF92068406919
:1030B00000F4805021684861206802F0D7FC00F4D9
:1030C0000050B0F5005F14D1206801F0A9FE20681F
:1030D00002F07AFCE060227B3649206802F034FD81
:1030E000204600F083F92068406900F40050216810
:1030F0004861206802F0BAFC00F00800082808D1F6
:10310000204600F0D3F92068406900F008002168EB
:103110004861206802F0AAFC00F48010B0F5801F1E
:103120000AD100263146204600F046F82068406962
:1031300000F4801021684861206802F097FC00F4D8
:103140000010B0F5001F0AD100263146204600F0DD
:103150003CF82068406900F400102168486120684C
:1031600002F084FC00F08040B0F1804F08D120468E
:10317000FFF7A6FB2068406900F0804021684861A5
:10318000206802F073FC00F0040004280FD12068CE
:10319000D0F8049009F00400042802D12046FFF77B
:1031A000BBFB2068406840EA09002168486000BF16
:1031B00041E500000084D71770B504460D46294646
:1031C000D4F8040401F056F970BD70B504460D46FC
:1031D0002946D4F8040401F065F970BD70B58AB0D1
:1031E000044614B901200AB070BD266894F8BD03E6
:1031F00028B9002084F8BC03204600F0A9F8032079
:1032000084F8BD03F06B00F4807008B900212161DF
:10321000206802F041F8282204F110016846FDF709
:10322000B0FA94E80F0001F00FFE20B1022084F8FC
:10323000BD030120D7E70021206802F04CFC0025E7
:1032400031E00121C5EBC50204F13C0000EB820036
:103250004170C5EBC50104F13C0000F82150C5EBFD
:10326000C50100EB8100C5800021C5EBC50204F15A
:103270003C0000EB8200C170C5EBC50204F13C00CC
:1032800000EB82008160C5EBC50204F13C0000EB5D
:103290008200C160C5EBC50204F13C0000EB820076
:1032A0004161681CC5B26068A842CAD800252AE0FE
:1032B0000021C5EBC50204F5FE7000EB82004170F1
:1032C000C5EBC50104F5FE7000F821500021C5EBE7
:1032D000C50200EB8200C170C5EBC50204F5FE70AB
:1032E00000EB82008160C5EBC50204F5FE7000EBC7
:1032F0008200C160C5EBC50204F5FE7000EB8200E0
:103300004161681CC5B26068A842D1D8282204F186
:1033100010016846FDF735FA94E80F0001F0D0FE81
:1033200020B1022084F8BD0301205CE7002084F86E
:103330003800012084F8BD03606A012802D12046CC
:10334000FFF77CFA206801F0A9FE00204BE700009F
:103350001CB504462149206888423CD120480068B9
:1033600040F001001E4908601D480838006840F020
:1033700000601B49083908601A48006840F08070F6
:103380001849086005F046FB00200321034602228D
:10339000CDE900109102144804F000FE0020032142
:1033A00003460222CDE90010D1020F4804F0F6FDD9
:1033B0000A224FF400610C4804F0A8FD0A224FF4E1
:1033C0008051094804F0A2FD022365220321002058
:1033D00004F03CFE00E000BF1CBD000000000840FF
:1033E000E04402580C4802580000025870B50446E8
:1033F0000125E06810B102280AD104E00CA0FDF715
:103400004BF8002509E011A0FDF746F8012504E07E
:1034100015A0FDF741F8012500BF00BFD4F8040452
:1034200001F078F82946D4F8040401F0CAF870BD18
:1034300055534220446576696365204C6962726128
:10344000727920205B48535D0D0A000055534220DD
:10345000446576696365204C6962726172792020E7
:103460005B46535D0D0A0000555342204465766962
:103470006365204C69627261727920205B46533F1C
:103480005D0D0A0010B5044603A0FDF705F8D4F859
:10349000040401F075F810BD446576696365205237
:1034A0006573756D65640D0A0000000010B5044673
:1034B000D4F8040401F06FF810BD70B504460D4651
:1034C00000BF94F8BC03012801D1022070BD012087
:1034D00084F8BC0300BF84F838502946206802F005
:1034E00015FB00BF002084F8BC0300BF00BFEDE760
:1034F00010B5044604F57171D4F8040401F076F8AF
:1035000010BD70B50446256800BF94F8BC030128BF
:1035100001D1022070BD012084F8BC0300BFA06A65
:10352000012806D1A069012803D0A86B40F480309F
:10353000A863206802F012FA206801F09DFD00BF28
:10354000002084F8BC0300BF00BFE3E710B50446C9
:1035500000200549087005A0FCF79EFFD4F804047C
:1035600001F091F810BD000017050024446576694C
:10357000636520496E2073757370656E64206D6F8E
:1035800064652E0D0A00000030B50B46002100BF17
:1035900016E00A24B4EB107F05D9302404EB107434
:1035A00003F8114005E0412404EB10740A3C03F8D1
:1035B0001140000100254C00641C1D554C1CE1B25B
:1035C0009142E6DB30BD000010B5002202210A481E
:1035D00004F0D8FC09A0FCF75FFF4FF47A7002F00A
:1035E000D3FB0CA0FCF758FF4FF47A7002F0CCFB31
:1035F00004F084FD10BD0000000402584D656D20EC
:10360000416363657373204572726F7221210D0AE5
:1036100000000000536F6674205265736574696E14
:10362000672E2E2E0D0A000010B50248FFF7F4FA9F
:1036300010BD0000008207242DE9F04704460D4626
:1036400026683746D6F8408007F5306000EB451015
:10365000D0F80890104880450BD909F40040B0F527
:10366000004F06D14FF4004107F5306000EB4510E4
:1036700081602046FFF73CFF0748804508D9206954
:10368000012805D104F571720121206801F0F8FECE
:103690000020BDE8F08700000A30544F2DE9F047C4
:1036A00005460C46D5F800804646D8F8409006F509
:1036B000306000EB441087682869012873D107F057
:1036C000080008280FD1524881450BD907F4004063
:1036D000B0F5004F06D14FF4004106F5306000EB25
:1036E0004410816091E007F02000202806D12021BD
:1036F00006F5306000EB4410816086E007F028009A
:1037000000280ED1424881450CD907F40040B0F59D
:10371000004F07D14FF4004106F5306000EB441034
:10372000816072E0C4EBC40105F5FE7000EB81001E
:10373000816806F5306000EB44100069C0F31200A8
:10374000091AC4EBC40205F5FE7000EB820081612A
:10375000C4EBC40105F5FE7000EB8100C4EBC402AC
:10376000C16805F5FE7000EB820080680144C4EB7F
:10377000C40205F5FE7000EB8200C1606CB9C4EBB9
:10378000C40105F5FE7000EB8100406928B905F51C
:1037900071720121286801F073FEE1B22846FFF73B
:1037A000ABF832E0FFE71B4881451BD107F400402E
:1037B000B0F5004F07D14FF4004106F5306000EB43
:1037C0004410816021E007F02000202805D120214D
:1037D00006F5306000EB44108160E1B22846FFF747
:1037E0008BF812E06CB9C4EBC40105F5FE7000EB78
:1037F0008100406928B905F571720021286801F03F
:103800003FFEE1B22846FFF777F80020BDE8F087D9
:103810000A30544F0A31544F2DE9F84F07460E46EF
:10382000D7F80090C846C6EBC60107F13C0000EB94
:103830008104D4E90510884202D90120BDE8F88F3F
:10384000D4E90501451AA068A84200D2A568E81C81
:103850004FEA900A17E0D4E90501451AA068A8428A
:1038600000D2A568E81C4FEA900A387CABB2F2B2ED
:1038700000904846E16802F0DBF9E0682844E06027
:10388000A0692844A06108F5106000EB461080692B
:1038900080B2504506D3D4E90510884202D260694F
:1038A0000028D8D1D4E9050188420ED806F00F01CE
:1038B000012000FA01FB40F6340050F8080020EA2D
:1038C0000B0040F6340141F808000020B6E730B59F
:1038D00001460A461378521C147843EA042030BD8E
:1038E0001F49C96901F0200109B31D49496AC8B2DD
:1038F0001C49098801F40041C9B91A49098801F431
:10390000804161B10A2803D00021164A118020E0CD
:103910001449098841F40041124A118019E00D2828
:1039200006D11049098841F480410E4A118010E007
:103930000C490988C1F30D010B4A50540949098803
:10394000491C084A118011460988C72901DD002158
:1039500011800349096A41F00801014A1162704768
:103960000010014008000024580800242DE9F0410F
:1039700004460D46D4F8C472D4F8BC0210B9032032
:10398000BDE8F081D4F8BC6205EB850104F11400B8
:1039900000EB8100406808B305EB850104F11400D9
:1039A00000EB8100C5EBC502416807F13C0000EB6C
:1039B00082008068B1FBF0F200FB121070B90021A8
:1039C00005EB850204F1140000EB82004160002346
:1039D0001A462946204600F060FE0FE00020C6F897
:1039E0001402D4F8C002006940B1D6F80802D4F835
:1039F000C0122A460B6906F5047198470020BFE7FC
:103A000070B504460E46D4F8BC52D4F8BC0208B9CE
:103A1000032070BD3146204600F0D4FCC5F80C02EE
:103A2000D5F80402D4F8C012CA6805F503719047AE
:103A30000020EEE770B504460D468121204600F0D7
:103A4000ECFB002121870121204600F0E6FB00214C
:103A5000A4F878118221204600F0DFFB0021A4F8B1
:103A60004C10A4F84E10D4F8BC0258B1D4F8C012CF
:103A7000486880470020D4F8BC1203F049FE0020BB
:103A8000C4F8BC02002070BD70B50546D5F8BC4234
:103A90000CB9032070BDD5F8C00278B194F80002CB
:103AA000FF280BD094F8012294F80002D5F8C01238
:103AB0008B6821469847FF2084F800020020E9E740
:103AC00001460A20088001487047000008040024CD
:103AD00001464320088001487047000090040024FC
:103AE0000146432008800148704700004C04002430
:103AF000014643200880014870470000D404002498
:103B000070B504460E464FF40771002003F012FE14
:103B1000054625B90020C4F8BC02022070BDC4F8D7
:103B2000BC52207CA0B94FF40073022281212046B0
:103B300000F0D0FC012121874B020222204600F038
:103B4000C9FC0121A4F878111021A4F84E1012E04C
:103B5000402302228121204600F0BCFC0121218764
:103B600040230222204600F0B5FC0121A4F8781180
:103B70001021A4F84E10082303228221204600F0D1
:103B8000A9FC0121A4F84C10D4F8C01208688047A1
:103B90000020C5F81402C5F81802207C40B94FF483
:103BA000007301212046D5F8042200F0A3FC06E0B2
:103BB000402301212046D5F8042200F09BFC002080
:103BC000ACE770B50446D4F8BC52D4F8BC0208B9CE
:103BD000032070BD207C40B94FF4007301212046C2
:103BE000D5F8042200F086FC06E04023012120469F
:103BF000D5F8042200F07EFC0020EAE7024609B96D
:103C000003207047C2F8C0120020FAE702460B46B4
:103C1000D2F8BC1209B903207047C1F80432002061
:103C2000FAE710B503460C46D3F8BC1209B90320D5
:103C300010BDC1F80842C1F810220020F8E72DE9B4
:103C4000FC4105460C46D5F8BC620020019000906E
:103C5000804616B90320BDE8FC81207800F06000A2
:103C600078B320286FD1E08818B3207800F0800066
:103C700098B1E2886078D5F8C0128B6831469847D1
:103C8000E088072801D9072000E0E08807463A4687
:103C90003146284600F0F1F812E0607886F800021C
:103CA000A07986F80102E2883146284600F0C4F87F
:103CB00006E06078D5F8C01200228B68214698474C
:103CC00048E0FFE7607830B1012831D00A2813D0EE
:103CD0000B282ED121E095F89C02032805D1022261
:103CE0006946284600F0C9F805E02146284600F05C
:103CF00097F84FF0030823E095F89C02032805D1BC
:103D0000012201A9284600F0B8F805E0214628461E
:103D100000F086F84FF0030812E095F89C020328A3
:103D200005D02146284600F07BF84FF0030807E055
:103D300006E02146284600F073F84FF0030800BF64
:103D400000BF07E0FFE72146284600F069F84FF082
:103D5000030800BF00BF40467DE770B50546D5F8B3
:103D6000BC420126D5F8BC0208B9032070BDD4F8C6
:103D7000140270B90120C4F81402D4F81012E962D8
:103D800081212846D4F81032D4F8082200F085FCAE
:103D900000263046EAE770B504460D46D4F8B8026E
:103DA00028B1D4F8B802294642682046904700203E
:103DB00070BD70B504460D4694F89C02012804D0ED
:103DC000022803D003280CD101E000BF00BF68889F
:103DD000012805D10020C4F8A402204600F05EF8B6
:103DE00004E02946204600F01BF800BF00BF70BD6C
:103DF00070B506460C4615462B4622460021304635
:103E000000F078FB002070BD70B506460C461546E4
:103E10002B4622460021304600F03FFC002070BDBA
:103E200070B504460D468021204600F01AFC0021A2
:103E3000204600F016FC70BD70B504460E461546CF
:103E40000320C4F894024FF4AC700551001D0551D5
:103E50002B4632460021204600F04CFB002070BD6E
:103E600010B504460520C4F8940200231A461946EA
:103E7000204600F03FFB002010BD70B504460E4602
:103E800015460220C4F89402A561E5612B4632462E
:103E90000021204600F001FC002070BD10B5044652
:103EA0000420C4F8940200231A461946204600F064
:103EB000F4FB002010BD70B504460D46E8880128CB
:103EC00004D029462046FFF7ABFF1EE094F89C0281
:103ED000012804D0022803D0032810D109E000BF34
:103EE0000020A060012204F108012046FFF7C5FF71
:103EF0000AE00122211D2046FFF7BFFF04E029460A
:103F00002046FFF78DFF00BF00BF70BDF8B5044627
:103F10000E46002000900027002570880012082817
:103F200075D2DFE800F0C7040C20C7C7A5B5207C18
:103F3000D4F8B4120A68694690470746C1E0207C6D
:103F400040B9D4F8B802816A68468847074602201B
:103F5000787007E0D4F8B802C16A68468847074617
:103F600002207870ADE0B078062878D2DFE800F063
:103F70000316293C5063D4F8B402406838B1207C61
:103F8000D4F8B4124A6869469047074605E03146BE
:103F90002046FFF745FF681CC5B267E0D4F8B402BD
:103FA000806838B1207CD4F8B4128A68694690479A
:103FB000074605E031462046FFF732FF681CC5B2D0
:103FC00054E0D4F8B402C06838B1207CD4F8B412FC
:103FD000CA6869469047074605E031462046FFF724
:103FE0001FFF681CC5B241E0D4F8B402006938B1C3
:103FF000207CD4F8B4120A6969469047074605E068
:1040000031462046FFF70CFF681CC5B22EE051E098
:10401000D4F8B402406938B1207CD4F8B4124A69AB
:1040200069469047074605E031462046FFF7F8FE0F
:10403000681CC5B21AE0D4F8B402806940B1207C93
:10404000D4F8B4128A6969469047074606E006E04C
:1040500031462046FFF7E4FE681CC5B206E0314653
:104060002046FFF7DDFE681CC5B200BF00BF28E098
:10407000207C30B9D4F8B802416B684688470746BF
:1040800005E031462046FFF7CBFE681CC5B218E0BC
:10409000207C40B9D4F8B802016B684688470746CF
:1040A0000720787005E031462046FFF7B9FE681C0E
:1040B000C5B206E031462046FFF7B2FE681CC5B225
:1040C00000BF00BF05B1F8BDF088C0B1BDF8000069
:1040D00080B1F088BDF80010884202DDBDF8000014
:1040E00000E0F0880090BDF8002039462046FFF738
:1040F000C4FE07E031462046FFF792FE02E020466C
:10410000FFF7CCFE00BFDEE7014600200A4602E0D2
:10411000431CD8B2521C1378002BF9D1704770B5EC
:1041200004460D4694F89C02012804D0022803D0CE
:1041300003281AD101E000BF00BFE888022804D09C
:1041400029462046FFF76CFE14E00120E060D4F819
:10415000A40218B1E06840F00200E060022204F11D
:104160000C012046FFF789FE04E029462046FFF7B0
:1041700057FE00BF00BF70BD2DE9F04107460D4658
:10418000904600240FB9BDE8F0813E463046FFF767
:10419000BBFF022101EB4000A8F8000098F80000E6
:1041A0002855601CC4B203202855601CC4B208E026
:1041B00030782855761C601CC4B200202855601C3D
:1041C000C4B230780028F3D100BFDCE72DE9F0411C
:1041D00004460D46164614B90320BDE8F0810020C0
:1041E000C4F8B802C4F8C002C4F8CC020DB1C4F8D7
:1041F000B452012084F89C022670204600F0ECF8AE
:1042000007463846E9E770B504460D462946D4F816
:10421000C402FEF7D4FB002070BD70B504460D4605
:104220002946D4F8C402FEF795FB002070BD2DE9A5
:10423000F04104460F469046002F54D104F1140576
:10424000D4F89402022843D1D5E9020188420FD95B
:10425000D5E90201401AA86041462046AA68FFF746
:10426000D3FD00231A461946204600F043F92FE0FB
:10427000D5E90210884217D1E9686868884213D3EB
:104280006868D4F8981288420ED20022114620465F
:10429000FFF7BAFD0020C4F8980200231A46194619
:1042A000204600F027F913E094F89C02032808D177
:1042B000D4F8B802C06820B1D4F8B802C16820466A
:1042C00088478021204600F0CCF92046FFF7C8FD42
:1042D00094F8A002012819D1204600F020FA00200D
:1042E00084F8A00212E094F89C0203280ED1D4F8BE
:1042F000B802406950B1D4F8B80239464269204644
:104300009047064616B13046BDE8F0810020FBE735
:104310002DE9F04105460F4690465FBB05F5AA74AE
:10432000D5F89402032838D1D4E90201884210D983
:10433000D4E90201401AA060D4E90201884201D206
:10434000A06800E0E068024641462846FFF750FDBD
:1043500023E095F89C02032808D1D5F8B80200693B
:1043600020B1D5F8B8020169284688472846FFF7EA
:1043700095FD12E095F89C0203280ED1D5F8B802FD
:10438000806950B1D5F8B80239468269284690470D
:10439000064616B13046BDE8F0810020FBE7014635
:1043A0000020704710B50446012084F89C02D4F820
:1043B000B80228B12179D4F8B80242682046904763
:1043C000002010BD70B504460D462946D4F8C4023D
:1043D000FEF733FB70BD000010B5044615481649C2
:1043E00008600820486000211348016340214161B2
:1043F00000210162022181610021C1610221C160AD
:104400000021C1624162C0F80444C4F8C402FEF74E
:10441000E5FE80210848FEF726FA402200210648E2
:10442000FEF726FA802201210348FEF721FA002038
:1044300010BD0000000008400082072410B50246AD
:10444000D2F8C43201F08000802809D101F07F0049
:10445000C0EBC00403F13C0000EB8400807810BD89
:1044600001F07F00C0EBC00403F5FE7000EB840098
:104470008078F4E770B504460D46D4F8B80208B960
:10448000032070BD94F89C02032809D1D4F8B80227
:10449000006A28B1D4F8B8022946026A204690473B
:1044A0000020EEE770B504460D46D4F8B80208B90E
:1044B000032070BD94F89C02032809D1D4F8B802F7
:1044C000406A28B1D4F8B8022946426A204690478B
:1044D0000020EEE72DE9F04104460F4615461E4642
:1044E0002B4632463946D4F8C402FEF7B1FA002012
:1044F000BDE8F0812DE9F04104460D4616461F4601
:104500003B4632462946D4F8C402FEF7E7FA0020BB
:10451000BDE8F08110B50446012084F89C0200201B
:10452000C4F894026060C4F8A402D4F8B80208B9D0
:10453000032010BDD4F8BC0248B1D4F8B8024068DA
:1045400028B12179D4F8B802426820469047402328
:10455000002211462046FFF7BDFF01214FF4B27043
:1045600001534021001F0151402300228021204699
:10457000FFF7B0FF0121A184402121620020D8E78C
:10458000014691F89C02042803D191F89D0281F81C
:104590009C020020704710B50446D4F8B80208B950
:1045A000032010BD94F89C02032808D1D4F8B80267
:1045B000C06920B1D4F8B802C169204688470020FC
:1045C000EFE70246117400207047000070B5044602
:1045D0000D460120044908702946D4F8C402FEF7AC
:1045E0006CFF002070BD00001705002470B5044664
:1045F0000D46294604F2AA2000F05FF80120C4F815
:1046000094024FF42C70005BC4F8980294F8AA024C
:1046100000F01F0020B1012809D0022815D10DE0BB
:1046200004F2AA21204600F04BF9064616E004F2F7
:10463000AA21204600F0ADFA06460FE004F2AA21B6
:10464000204600F090F9064608E094F8AA0200F02F
:104650008001204600F005F8064600BF00BF304646
:1046600070BD70B504460D462946D4F8C402FEF765
:1046700061FA002070BD10B50446D4F8C402FEF7FC
:1046800040FF002010BD014691F89C0281F89D0278
:10469000042081F89C02002070472DE9F041044677
:1046A0000D4616461F463B4632462946D4F8C402FC
:1046B000FEF785FA0020BDE8F08170B505460E468C
:1046C000344620782870641C20786870641C20466A
:1046D000FFF7FDF86880641C641C2046FFF7F7F8BC
:1046E000A880641C641C2046FFF7F1F8E88070BDC8
:1046F00038B504460D46002000900DB9032038BDA2
:10470000C4F8B852D4F8B802C06A30B1D4F8B802CC
:10471000C16A68468847C4F8CC020020EFE701462A
:104720000020704770B504460D46A88810BBE88885
:1047300000BB688880281DD2A87800F07F0694F816
:104740009C02032804D129462046FFF769FB15E0A7
:1047500084F89E6231462046FFF738FF2046FFF777
:104760009DFB1EB1022084F89C0207E0012084F822
:104770009C0203E029462046FFF752FB70BD70B54E
:1047800004460D460326D4F8B80230B1D4F8B80276
:1047900029460268204690470646304670BD000014
:1047A00070B504460E460025B0783B4908700846AF
:1047B0000078012805DD31462046FFF731FB032054
:1047C00070BD94F89C02022802D0032856D11CE048
:1047D00031480078A8B13048007860602E480178F0
:1047E0002046FFF7CCFF054625B131462046FFF7AE
:1047F00017FB09E02046FFF751FB032084F89C02D9
:1048000002E02046FFF74AFB43E02348007870B9F6
:10481000022084F89C022048007860601E480178DD
:104820002046FFF7B8FA2046FFF738FB25E01A4983
:104830000978606888421DD021792046FFF7ABFADD
:10484000154800786060144801782046FFF797FF0C
:1048500005465DB131462046FFF7E2FA2179204650
:10486000FFF799FA022084F89C0206E02046FFF741
:1048700015FB02E02046FFF711FB0AE03146204617
:10488000FFF7CEFA044801782046FFF784FA0325A3
:1048900000BF00BF284693E70404002470B5054616
:1048A0000C466088012804D1C5F8A4022846FFF709
:1048B000F5FA70BD10B504462046FFF7DCFE10BDCA
:1048C00070B505460C460026207800F0600068B1FF
:1048D000202802D040283ED100E000BFD5F8B80221
:1048E0002146826828469047064639E060780A28C3
:1048F0002AD2DFE800F01A24291F290A0529150FFA
:1049000021462846FFF702FB23E021462846FFF711
:1049100009FF1EE021462846FFF742FF064618E041
:1049200021462846FFF7C7FA13E021462846FFF73D
:10493000F6FB0EE021462846FFF7B0FF09E02146CE
:104940002846FFF736FA04E021462846FFF768FAC2
:1049500000BF00BF04E021462846FFF761FA00BF10
:1049600000BF304670BD2DE9F04105460E464FF0C0
:1049700000083479307800F0600068B1202802D057
:10498000402871D100E000BFD5F8B80231468268F6
:10499000284690478046F8E07078002865D00128C6
:1049A0002FD0032870D195F89C02022802D003284A
:1049B00020D110E054B1802C08D021462846FFF7C2
:1049C00050FE80212846FFF74CFE03E03146284682
:1049D000FFF726FA13E0708840B93CB1802C05D06F
:1049E000F08818B921462846FFF73BFE2846FFF716
:1049F00055FA04E031462846FFF712FA00BF00BF1F
:104A0000BCE095F89C02022802D0032825D110E0D2
:104A100054B1802C08D021462846FFF722FE802181
:104A20002846FFF71EFE03E031462846FFF7F8F957
:104A300018E0708880B904F07F0018B1214628463C
:104A4000FFF7E1FB2846FFF729FAD5F8B80231460F
:104A5000826828469047804604E031462846FFF7A2
:104A6000DFF900BF00BF89E08AE095F89C020228C8
:104A700002D0032876D126E03CB1802C05D0314607
:104A80002846FFF7CDF972E073E004F0800080283B
:104A900008D104F07F0000EB800105F1140000EB69
:104AA000810007E004F07F0000EB800105F5AA70AB
:104AB00000EB810007460020386002223946284674
:104AC000FFF7DBF953E004F0800080280ED104F0FA
:104AD0000F0000EB800105F1140000EB8100008A5B
:104AE00098B931462846FFF79BF940E004F00F00E3
:104AF00000EB800105F5AA7000EB8100008A20B967
:104B000031462846FFF78CF931E004F08000802818
:104B100008D104F07F0000EB800105F1140000EBE8
:104B2000810007E004F07F0000EB800105F5AA702A
:104B300000EB810007460CB1802C02D100203860C8
:104B400009E021462846FFF779FC10B101203860C2
:104B500001E000203860022239462846FFF78DF92F
:104B600005E0FFE731462846FFF75AF900BF00BFCE
:104B700004E031462846FFF753F900BF00BF04E0C8
:104B800031462846FFF74CF900BF00BF4046BDE85C
:104B9000F08170B505460C460026207800F06000D4
:104BA00030B1202802D040282AD100E000BF00BF49
:104BB00095F89C02012804D0022803D0032818D1BC
:104BC00001E000BF00BF207901280DDCD5F8B80254
:104BD00021468268284690470646E08840B93EB99B
:104BE0002846FFF75BF903E021462846FFF718F94E
:104BF00004E021462846FFF713F900BF00BF04E098
:104C000021462846FFF70CF900BF00BF304670BDB3
:104C100070B505460C462DB92246064906A0FFF799
:104C2000ABFA04E02246034903A0FFF7A5FA0148C6
:104C300070BD00000886072456435020436F6E66FF
:104C40006967000002461220088001487047000092
:104C50003405002470B505460C462DB92246064998
:104C600006A0FFF789FA04E02246034903A0FFF7F4
:104C700083FA014870BD000008860724564350207F
:104C8000496E746572666163650000000246042027
:104C900008800148704700004805002470B50546AB
:104CA0000C462246024903A0FFF766FA004870BD91
:104CB0000886072453544D6963726F656C6563748D
:104CC000726F6E696373000070B505460C462DB9AE
:104CD0002246064906A0FFF74FFA04E022460349A0
:104CE0000CA0FFF749FA014870BD000008860724B0
:104CF00053544D3332205669727475616C20436F82
:104D00006D506F727420696E204853204D6F64653A
:104D10000000000053544D3332205669727475619F
:104D20006C20436F6D506F727420696E2046532063
:104D30004D6F64650000000070B505460C461A20F2
:104D40002080FDF73FF9014870BD00004C050024AC
:104D500070B504460B4622461978587801282CD1A4
:104D600040F61C0080581D7805F00F060125B5405F
:104D7000ADB2284340F61C05A85002F5106000EBC8
:104D80004110006800F40040F0BB1889C0F30A002D
:104D9000DD7840EA854040EA815040F0805040F4A0
:104DA000004002F5106505EB41152D68284302F51A
:104DB000106505EB411528602DE040F61C00805879
:104DC0001D7805F00F060125B540144E06EA05458D
:104DD000284340F61C05A85002F5306000EB411056
:104DE000006800F4004078B91889C0F30A00DD7843
:104DF00040EA854040F0805040F4004002F53065C4
:104E000005EB41152D6800E005E0284302F530650B
:104E100005EB41152860002070BD00000000FFFF79
:104E200001460A464FF410608058C30ADB024FF473
:104E30001060835040F60400805840F4807340F6C0
:104E400004008350002070470FB470B504460A98E0
:104E5000012817D1A06B20F48030A063E0681E49C0
:104E60000840E060E06820F44010E06011980128FC
:104E700003D1E06840F48010E060204600F030F894
:104E8000054612E0E06840F04000E060204600F097
:104E900027F805460E9820B9A06B40F48030A06337
:104EA00003E0A06B20F48030A063089801280ED1A5
:104EB000E06D80B2E065E06D08490843E065A068F8
:104EC00040F00600A060A06840F02000A0602846E6
:104ED00070BC5DF814FB0000BFFFBDFF0000EE03D7
:104EE0000146002200BF501C02460F4B984201D9D8
:104EF00003207047086900F000400028F3D000222A
:104F0000086940F00100086100BF501C0246064BD2
:104F1000984201D90320ECE7086900F0010000285D
:104F2000F3D100BFE5E70000400D030070B5044673
:104F30000B46224619785878012848D102F51060AE
:104F400000EB4110006800F00040B0F1004F17D1B5
:104F500002F5106000EB4110006840F0006502F5BA
:104F6000106000EB4110056002F5106000EB41108D
:104F7000006840F0804502F5106000EB41100560CC
:104F800040F63C0080581D7805F00F060125B5401D
:104F9000ADB2A84340F63C05A85040F61C0080582E
:104FA0001D7805F00F060125B540ADB2A84340F6C7
:104FB0001C05A85002F5106000EB411000682B4D55
:104FC000284002F5106505EB411528604BE002F51D
:104FD000306000EB4110006800F00040B0F1004F7D
:104FE00017D102F5306000EB4110006840F0006519
:104FF00002F5306000EB4110056002F5306000EB17
:105000004110006840F0804502F5306000EB41102F
:10501000056040F63C0080581D7805F00F0601251C
:10502000B540134E06EA0545A84340F63C05A85096
:1050300040F61C008558187800F00F060120B0409B
:105040000B4E06EA0040854340F61C00855002F5F1
:10505000306000EB41100068064D284002F53065D5
:1050600005EB41152860002070BD0000007833EC8E
:105070000000FFFF0078F3EF01460A46D2F8000E69
:1050800020F00300C2F8000E40F60400805820F023
:10509000020340F6040083500020704701460A4690
:1050A000D2F8000E20F00300C2F8000E40F6040013
:1050B000805840F0020340F60400835000207047FF
:1050C0000FB4F0B5064600273546002405E0002160
:1050D00006F5827040F82410641C0F2CF7D310984A
:1050E000A0B940F60400405940F0020140F6040027
:1050F0004151B06B20F40010B063306840F04000C4
:105100003060306840F08000306003E0B06B40F405
:105110000010B0630020C5F8000ED5F80008C5F8EF
:1051200000080B9801280BD1089820B900213046BF
:1051300000F001FD08E00121304600F0FCFC03E036
:105140000321304600F0F7FC1021304600F024FC2B
:1051500000B10127304600F009FC00B10127002111
:105160004FF401604151001D415140F61C00415176
:1051700000242EE005F5106000EB4410006800F0FC
:105180000040B0F1004F10D13CB94FF0006105F57F
:10519000106000EB441001600DE04FF0904105F508
:1051A000106000EB4410016005E0002105F510607F
:1051B00000EB44100160002105F5106000EB441085
:1051C00001614FF67F3105F5106000EB44108160FE
:1051D000641C0698A042CDD800242EE005F530606E
:1051E00000EB4410006800F00040B0F1004F10D117
:1051F0003CB94FF0006105F5306000EB44100160F0
:105200000DE04FF0904105F5306000EB4410016077
:1052100005E0002105F5306000EB4410016000213D
:1052200005F5306000EB441001614FF67F3105F564
:10523000306000EB44108160641C0698A042CDD819
:105240004FF40160405920F480714FF401604151E6
:105250000020B0616FF080407061099818B9B069A2
:1052600040F01000B061B06909490843B0610C9882
:1052700018B1B06940F00800B0611098012803D15E
:10528000B06904490843B0613846F0BC5DF814FBCE
:1052900000383C80040000400146886820F001008E
:1052A0008860002070470000F0B505460B461446A4
:1052B0002A4619785878012875D1586920BB02F51B
:1052C000106000EB411000696C4E304002F5106632
:1052D00006EB4116306102F5106000EB41100069E9
:1052E00040F4002602F5106000EB4110066102F563
:1052F000106000EB41100069C60CF60402F5106066
:1053000000EB4110066137E002F5106000EB411040
:105310000069C60CF60402F5106000EB411006614E
:1053200002F5106000EB41100069544E304002F568
:10533000106606EB411630619E685869B04201D98B
:105340009868586102F5106000EB4110006940F464
:10535000002602F5106000EB4110066102F51060B6
:1053600000EB411000695E69C6F31206304302F596
:10537000106606EB41163061012C15D1186928B171
:1053800002F5106000EB41101E69466102F51060E5
:1053900000EB4110006840F0044602F5106000EB9D
:1053A0004110066068E01BE002F5106000EB411060
:1053B000006840F0044602F5106000EB4110066002
:1053C0005869002858D040F6340080581E7806F0FE
:1053D0000F070126BE40304340F63406B0504BE084
:1053E00002F5306000EB41100069C60CF60402F5CE
:1053F000306000EB4110066102F5306000EB4110B7
:1054000000691E4E304002F5306606EB41163061F1
:10541000586908B19868586102F5306000EB411096
:10542000006940F4002602F5306000EB411006618F
:1054300002F5306000EB411000699E68C6F3120669
:10544000304302F5306606EB41163061012C07D17E
:10545000D86828B102F5306000EB4110DE68466183
:1054600002F5306000EB4110006840F0044602F5A0
:10547000306000EB411006600020F0BDFFFF07E048
:1054800070B503460C4619461D6C1848854209D96B
:105490004FF43060405800F00040B0F1004F01D1AF
:1054A000002070BD0026C1F8106BD1F8100B40F43D
:1054B0000026C1F8106BD1F8100B40F01806C1F8A7
:1054C000106BD1F8100B40F0C046C1F8106B012CE6
:1054D00009D1C1F8142B4FF43060405840F08026B9
:1054E0004FF4306046500020DBE700000A30544F94
:1054F00030B504460B4622461978587801281ED14B
:1055000002F5106000EB4110006820F4001502F570
:10551000106000EB41100560D878032802D0D878DD
:1055200002282AD102F5106000EB4110006840F01B
:10553000805502F5106000EB411005601DE002F59A
:10554000306000EB4110006820F4001502F5306077
:1055500000EB41100560D878032802D0D8780228E3
:105560000BD102F5306000EB4110006840F080552F
:1055700002F5306000EB41100560002030BD30B511
:1055800004460B46224619785878012821D102F5A5
:10559000106000EB4110006800F0004060B959B1A4
:1055A00002F5106000EB4110006820F0804502F524
:1055B000106000EB4110056002F5106000EB411037
:1055C000006840F4001502F5106000EB4110056022
:1055D00020E002F5306000EB4110006800F0004070
:1055E00060B959B102F5306000EB4110006820F05D
:1055F000804502F5306000EB4110056002F5306037
:1056000000EB4110006840F4001502F5306000EB3B
:1056100041100560002030BD2DE9F84381460E465B
:1056200017464D463478707801287DD1706920BBCB
:1056300005F5106000EB44100069C749084005F506
:10564000106101EB4411086105F5106000EB441096
:10565000006940F4002105F5106000EB4410016181
:1056600005F5106000EB44100069C10CC90405F594
:10567000106000EB4410016155E005F5106000EB8F
:1056800044100069C10CC90405F5106000EB44101A
:10569000016105F5106000EB44100069AE49084057
:1056A00005F5106101EB44110861B16870690844A7
:1056B000401EB0FBF1F0A849C94301EAC04005F51E
:1056C000106101EB44110969084305F5106101EB14
:1056D0004411086105F5106000EB44100069716920
:1056E000C1F31201084305F5106101EB4411086193
:1056F000F078012817D105F5106000EB441000691F
:1057000020F0C04105F5106000EB4410016105F583
:10571000106000EB4410006940F0005105F5106086
:1057200000EB4410016100E07FE0012F36D13069C9
:1057300028B105F5106000EB441031694161F07843
:1057400001281ED140F60800405900F4807060B96D
:1057500005F5106000EB4410006840F0005105F5BD
:10576000106000EB441001600BE005F5106000EBE9
:105770004410006840F0805105F5106000EB4410C3
:10578000016005F5106000EB4410006840F0044132
:1057900005F5106000EB44100160DAE005F51060DB
:1057A00000EB4410006840F0044105F5106000EB88
:1057B00044100160F07801280FD070690028ECD007
:1057C00040F634004059317801F00F020121914038
:1057D000084340F634014851BBE040F60800405908
:1057E00000F4807060B905F5106000EB44100068AB
:1057F00040F0005105F5106000EB441001600BE033
:1058000005F5106000EB4410006840F0805105F58C
:10581000106000EB441001600097B08A83B23278C8
:105820004846F16800F004FA93E005F5306000EBBB
:1058300044100069C10CC90405F5306000EB441048
:10584000016105F5306000EB4410006942490840F1
:1058500005F5306101EB441108617069D0B905F5B7
:10586000306000EB44100069B168C1F312010843D5
:1058700005F5306101EB4411086105F5306000EB7E
:105880004410006940F4002105F5306000EB44103D
:10589000016126E0B16870690844401EB0FBF1F078
:1058A0001FFA80F805F5306000EB441000692A49C2
:1058B000C94301EAC841084305F5306101EB4411D1
:1058C000086105F5306000EB44100069B16801FB28
:1058D00008F1C1F31201084305F5306101EB4411F1
:1058E0000861012F07D1F06828B105F5306000EBA1
:1058F0004410F1684161F07801281ED140F608009B
:10590000405900F4807060B905F5306000EB441038
:10591000006840F0005105F5306000EB4410016074
:105920000BE005F5306000EB4410006840F080515A
:1059300005F5306000EB4410016005F5306000EBC8
:105940004410006840F0044105F5306000EB44105D
:1059500001600020BDE8F883FFFF07E0014688688A
:1059600040F00100886000207047000001460022DE
:105970001020086100BF501C0246064B984201D916
:1059800003207047086900F010001028F3D00020B1
:10599000F7E70000400D030010B502460023202069
:1059A00040EA8110106100BF581C0346054CA0421C
:1059B00001D9032010BD106900F020002028F3D089
:1059C0000020F7E7400D030010B501460B4640F6F6
:1059D0000804E45804F006020AB9002006E0022A8E
:1059E00001D0062A01D1022000E00F2010BD01469F
:1059F000486900F00100704701460B4640F6180068
:105A0000C258001DC058024090B2704701460B4674
:105A100040F61800C258001DC0580240100C7047D4
:105A200070B5024613464FF40166F45840F634064A
:105A3000F55801F00F0625FA06F606F0010644EACD
:105A4000C61403F5106606EB4116B66806EA0400B4
:105A500070BD10B50246134603F5306404EB4114E3
:105A6000A06840F61404E458204010BD014648697F
:105A70008A69104070472DE9F04104460D462746DB
:105A800028464FEA920C02F0030300210AE04FF48B
:105A9000805858F80780C0F80080401C401C401C0B
:105AA000401C491C6145F2D39BB100214FF4805842
:105AB00058F8076000BF4FEAC10826FA08F880F8D6
:105AC0000080491C401CA3F101081FFA88F3002B39
:105AD000F1D1BDE8F08170B504460D46E06820F0D4
