:020000040810E2
:1000000020110010810310085B441008734210088F
:1000100057441008710710089D5710080000000091
:100020000000000000000000000000002947100848
:10003000D5071008000000005D4410082B47100889
:100040009F0310089F0310089F0310089F031008C8
:100050009F0310089F0310089F0310089F031008B8
:100060009F0310089F0310089F0310089F031008A8
:100070009F0310089F0310089F0310089F03100898
:100080009F0310089F0310089F0310089F03100888
:100090009F0310089F0310089F0310089F03100878
:1000A0009F0310089F0310089F0310089F03100868
:1000B0009F0310089F0310089F0310089F03100858
:1000C0009F0310089F0310089F0310089F03100848
:1000D0009F0310088D5710089F0310089F031008F6
:1000E0009F0310089F031008000000009F031008E2
:1000F0009F0310089F0310089F0310089F03100818
:100100009F0310089F0310089F0310089F03100807
:100110009F0310089F0310089F0310089F031008F7
:100120009F0310089F0310089F0310089F031008E7
:100130009F0310089F0310089F0310089F031008D7
:100140009F0310089F03100800000000000000003B
:100150009F0310089F0310089F0310089F031008B7
:100160009F0310089F0310089F0310089F031008A7
:100170009F0310089F0310089F0310080000000051
:100180009F0310089F0310089F0310089F03100887
:100190009F0310089F0310089F0310089F03100877
:1001A0009F0310089F0310089F0310089F03100867
:1001B0009F0310089F0310089F0310089F03100857
:1001C0009F0310089F0310089F0310089F03100847
:1001D0009F0310089F0310089F0310089F03100837
:1001E0009F0310089F0310089F0310089F03100827
:1001F0009F0310089F0310089F0310089F03100817
:100200009F0310089F0310089F0310089F03100806
:100210009F0310089F0310089F0310089F031008F6
:100220009F0310089F0310089F0310089F031008E6
:100230009F0310089F0310086B4210089F031008CB
:100240009F0310089F0310089F0310089F031008C6
:100250009F0310089F0310089F0310089F031008B6
:100260009F0310089F0310089F0310089F031008A6
:100270009F0310089F0310089F0310089F03100896
:100280009F0310089F0310089F0310080000000040
:100290009F0310089F03100800F002F800F061F8B7
:1002A0000AA090E8000C82448344AAF10107DA45D1
:1002B00001D100F056F8AFF2090EBAE80F0013F0C2
:1002C000010F18BFFB1A43F00103184744C2000096
:1002D00064C200000A444FF0000C10F8013B13F018
:1002E000070408BF10F8014B1D1108BF10F8015B8F
:1002F000641E05D010F8016B641E01F8016BF9D182
:1003000013F0080F1EBF10F8014BAD1C0C1B09D1D8
:100310006D1E58BF01F801CBFAD505E014F8016B4A
:1003200001F8016B6D1EF9D59142D6D370470000DC
:100330000023002400250026103A28BF78C1FBD8EE
:10034000520728BF30C148BF0B607047782900F0C2
:10035000F380002070471FB507F05EFA1FBD10B58F
:1003600010BD00F0D3F91146FFF7F5FF06F062FA71
:1003700000F0F1F903B4FFF7F2FF03BC05F02CFA2B
:100380000A4880470A4880470A480047FEE7FEE7D8
:10039000FEE7FEE7FEE7FEE7FEE7FEE7FEE7FEE735
:1003A00005480649064A074B70470000D907100860
:1003B000354710089902100820070010201100107E
:1003C0002009001020090010704753EA020C00F0C9
:1003D00069802DE9F04B4FF00006002B1FBFB3FAE8
:1003E00083F503FA05F424FA05F65E4012BF1643BE
:1003F000B2FA82F502FA05F4C5F120051EBF22FA11
:1004000005FC44EA0C04203556EA044C4FEA144437
:1004100018BF641C4FF000084FF00009904271EBC8
:10042000030C39D3002919BFB1FA81F701FA07F695
:10043000B0FA80F700FA07F6C7F120071EBF20FACE
:1004400007FC46EA0C062037B6FBF4FCA7EB0507D1
:10045000103F07F01F0BCBF120060CFA0BFB2CFA18
:1004600006F644BFB3460026202FA4BF5E464FF0D9
:10047000000B5BEA060C08BF4FF0010B19EB0B09F0
:10048000ABFB027C48EB0608C01B06FB02CC0BFB57
:1004900003CC71EB0C01C1E70B46024641464846CE
:1004A000BDE8F08B13B54FF000004FF00001AFF343
:1004B0000080BDE81C4070470FB4044910B503AA82
:1004C000029800F0F5F810BC5DF814FB1000001065
:1004D0002DE9F0410E460446002020622046E168E6
:1004E000884730B3252805D0D4E901219047206AF8
:1004F000401CF2E7E168204600278847050018D035
:10050000A5F14100192802D820354FF40067324682
:10051000294620462760FFF719FF40B1012804D083
:10052000F61D26F007060836D8E7361DD6E728461A
:10053000DAE7206ABDE8F08170B504460D46214631
:100540001068AFF300802188090502D50F4A7A446C
:1005500002E00E4A7A440E32002104F1240305E041
:1005600000F00F060009965D5E54491C0028F7D183
:1005700020780023000704D5702D02D009B1022392
:1005800011322046BDE8704000F038B896BF000038
:1005900010B5203AC0F00B80B1E81850203AA0E81E
:1005A0001850B1E81850A0E81850BFF4F5AF5FEA52
:1005B000027C24BFB1E81850A0E8185044BF18C905
:1005C00018C0BDE810405FEA827C24BF51F8043BAC
:1005D00040F8043B08BF7047D20728BF31F8023B00
:1005E00048BF11F8012B28BF20F8023B48BF00F894
:1005F000012B704770477047704770472DE9F047EF
:100600000D4699469246044600F124080168880682
:1006100004D5E06921F01001216000E00120A8422A
:1006200001DD471B00E00027A1697A1902EB0900F0
:10063000081AA0612078C00602D42046AFF30080DB
:10064000002608E0D4E901211AF806009047206A44
:10065000401C761C20624E45F4DB2078C0060AD58B
:100660002046AFF3008006E0D4E901213020904716
:10067000206A401C2062381EA7F10107F4DC07E065
:10068000D4E9012118F805009047206A401C206237
:10069000281EA5F10105F3DC2046AFF30080207889
:1006A000000602D50220BDE8F0870120FBE700002C
:1006B000074B70B50D467B4400F011F80446284600
:1006C00000F020F810B14FF0FF3070BD204670BD33
:1006D0006F56000001694A1C02610878704700B536
:1006E0008FB0CDE901310021059105497944CDE96B
:1006F000031011466846FFF7EBFE0FB000BD000087
:10070000E5FFFFFF007B00F080007047754600F0BA
:100710002BF8AE4605006946534620F00700854693
:1007200018B020B5FFF73CFEBDE820404FF00006B2
:100730004FF000074FF000084FF0000B21F00701C9
:10074000AC46ACE8C009ACE8C009ACE8C009ACE80C
:10075000C0098D46704710B50446AFF300802046AF
:10076000BDE81040FFF706BE00487047BC06001009
:1007700000BFFEE730B5039C42EA811545EA032538
:1007800045EA0445C56630BD2DE9F04704460D46EF
:1007900016461F46DDF8208001F056FA814609E032
:1007A00001F052FAA0EB0900B0F57A7F02D90320DC
:1007B000BDE8F0872068406F00F001000028EFD00E
:1007C00046EA851040EA072040EA08402168C866EA
:1007D0000020EDE7704700000848006820F00400A2
:1007E00040F002000549086000BF0448083800686E
:1007F00000F400500028F8D0704700000C48025860
:1008000002460868B0B9D1E901031843CB68184320
:100810000B6918434B6918438B691843CB6918431C
:100820000B6A18434B6A184313686FF30E0318439F
:10083000106019E0D1E9070318434B6A18431368A5
:1008400023F4F84318431060D1E901031843CB683F
:1008500018430B6918434B6918438B691843536855
:100860006FF30E0318435060002070470246506932
:1008700043F6FE73984340EA410050610020704700
:1008800010B50346D1E9000420438C68641E40EA99
:100890004410CC6840EA44201C696FF315042043DF
:1008A0001861002010BD000030B50346FAB9086891
:1008B000401E4C68641E40EA04148868401E44EAE6
:1008C0000024C868401E44EA0034088A401E44EAF6
:1008D0000044888A401E44EA0054087E401E44EAD0
:1008E00000609C6804F070442043986022E0C8686F
:1008F000401E0403888A401E44EA00509C680E4D46
:100900002C40204398600868401E4C68641E40EAF2
:1009100004148868401E44EA0024088A401E44EA01
:100920000044087E401E44EA0060DC6804F0704425
:100930002043D860002030BDFF0F0FFF2DE9F041AC
:10094000044601F081F9804614B90120BDE8F08128
:1009500094F83500022808D08020606500BF002090
:1009600084F8340000BF0120F0E7FE492068884287
:1009700049D0FC4918312068884244D0F9493031C7
:10098000206888423FD0F7494831206888423AD0F1
:10099000F44960312068884235D0F24978312068C6
:1009A000884230D0EF499031206888422BD0ED4901
:1009B000A8312068884226D0EB492068884222D09E
:1009C000E9491831206888421DD0E7493031206854
:1009D000884218D0E44948312068884213D0E2495F
:1009E0006031206888420ED0DF4978312068884223
:1009F00009D0DD4990312068884204D0DA49A83115
:100A00002068884201D1012000E0002068B1206800
:100A1000006820F01E00216808602068406920F00E
:100A2000800021684861256806E02068006820F0A1
:100A30000E00216808602568CA492068884270D085
:100A4000C8491831206888426BD0C64930312068C7
:100A5000884266D0C34948312068884261D0C14984
:100A60006031206888425CD0BE4978312068884275
:100A700057D0BC4990312068884252D0B949A8313A
:100A8000206888424DD0B8492068884249D0B6498C
:100A900018312068884244D0B349303120688842F8
:100AA0003FD0B1494831206888423AD0AE496031E0
:100AB0002068884235D0AC4978312068884230D0EF
:100AC000A9499031206888422BD0A749A8312068D5
:100AD000884226D0A5492068884222D0A3491431F3
:100AE000206888421DD0A14928312068884218D04A
:100AF0009E493C312068884213D09C49503120687F
:100B000088420ED0994964312068884209D09749BB
:100B100078312068884204D094498C31206888421A
:100B200001D1012000E0002028B1206E006820F4EF
:100B30008070216E08608B492068884249D08949BD
:100B400018312068884244D0864930312068884274
:100B50003FD084494831206888423AD08149603189
:100B60002068884235D07F4978312068884230D06B
:100B70007C499031206888422BD07A49A83120687E
:100B8000884226D078492068884222D07649183198
:100B9000206888421DD0744930312068884218D0BE
:100BA000714948312068884213D06F49603120680C
:100BB00088420ED06C4978312068884209D06A4951
:100BC00090312068884204D06749A8312068884263
:100BD00006D12068006820F001002168086005E067
:100BE0002068006820F001002168086011E001F031
:100BF0002BF8A0EB080005280BD920206065032006
:100C000084F8350000BF002084F8340000BF0120C4
:100C10009CE6286800F001000028E8D151492068CE
:100C2000884249D04F4918312068884244D04D4904
:100C30003031206888423FD04A4948312068884294
:100C40003AD0484960312068884235D045497831EA
:100C50002068884230D043499031206888422BD0A8
:100C60004049A8312068884226D03F492068884200
:100C700022D03D491831206888421DD03A49303190
:100C80002068884218D0384948312068884213D0FB
:100C900035496031206888420ED033497831206868
:100CA000884209D0304990312068884204D02E49CA
:100CB000A8312068884201D1012000E0002040B125
:100CC000A66D94F85C0000F01F013F208840B060E2
:100CD00007E0A76D94F85C0000F01F010120884038
:100CE000786020492068884276D01E4918312068F3
:100CF000884271D01B493031206888426CD0194934
:100D000048312068884267D016496031206888429F
:100D100062D014497831206888425DD01149903101
:100D20002068884258D00F49A8312068884253D0A3
:100D30000D49206888424FD00B49183120688842FD
:100D40004AD0094930312068884245D006494831A7
:100D50002068884240D004496031206888423BD0F6
:100D6000014905E0100002401004024008540258F6
:100D70007831206888422FD02549206888422BD0BE
:100D8000234918312068884226D0224920688842A9
:100D900022D020491431206888421DD01D492831B5
:100DA0002068884218D01B493C312068884213D003
:100DB00018495031206888420ED0164964312068A5
:100DC000884209D0134978312068884204D01149FB
:100DD0008C312068884201D1012000E0002068B1F8
:100DE000D4E919104860E06E40B1E06E006820F46C
:100DF0008070E16E0860D4E91C104860012084F81E
:100E0000350000BF002084F8340000BF00BF9DE51E
:100E1000A00402400854025870B504460CB90120E1
:100E200070BD94F83500022803D080206065012051
:100E3000F6E7DC492068884249D0DA491831206851
:100E4000884244D0D7493031206888423FD0D549C4
:100E50004831206888423AD0D249603120688842BF
:100E600035D0D04978312068884230D0CD49903192
:100E7000206888422BD0CB49A8312068884226D0F0
:100E8000C9492068884222D0C74918312068884261
:100E90001DD0C54930312068884218D0C249483138
:100EA0002068884213D0C0496031206888420ED043
:100EB000BD4978312068884209D0BB49903120680B
:100EC000884204D0B849A8312068884201D1012065
:100ED00000E00020F0B3042084F83500B149206818
:100EE00088424BD0AF4918312068884246D0AD497E
:100EF00030312068884241D0AA4948312068884270
:100F00003CD0A84960312068884237D0A549783163
:100F10002068884232D0A3499031206888422DD081
:100F2000A049A8312068884228D09F49206888427B
:100F300024D09D491831206888421FD09A49303109
:100F4000206888421AD0984948312068884215D0D4
:100F5000954900E020E06031206888420ED0924937
:100F600078312068884209D08F49903120688842C2
:100F700004D08D49A8312068884206D120680068D5
:100F800020F001002168086009E12068006820F075
:100F900001002168086002E12068006820F00E006E
:100FA000216808607F492068884249D07D4918310E
:100FB0002068884244D07B493031206888423FD045
:100FC00078494831206888423AD0764960312068B3
:100FD000884235D0734978312068884230D07149D1
:100FE0009031206888422BD06E49A8312068884211
:100FF00026D06D492068884222D06B49183120687C
:1010000088421DD0684930312068884218D066492E
:1010100048312068884213D0634960312068884293
:101020000ED0614978312068884209D05E499031FC
:101030002068884204D05C49A8312068884206D1E3
:101040002068006820F001002168086005E0206841
:10105000006820F001002168086052492068884239
:1010600070D050491831206888426BD04D493031DA
:101070002068884266D04B4948312068884261D058
:1010800048496031206888425CD046497831206800
:10109000884257D0434990312068884252D0414914
:1010A000A831206888424DD03F492068884249D005
:1010B0003D4918312068884244D03B49303120688E
:1010C00088423FD038494831206888423AD0364972
:1010D00060312068884235D03349783120688842B1
:1010E00030D031499031206888422BD02E49A83128
:1010F0002068884226D02D492068884222D02B497A
:101100001431206888421DD028492831206888423F
:1011100018D026493C312068884213D023495031E9
:10112000206888420ED0214964312068884209D065
:101130001E4978312068884204D01C498C312068CF
:10114000884201D1012000E00020D8B1206E006863
:1011500020F48070216E0860A56D94F85C0000F0AA
:101160001F01012088406860D4E919104860E06ED2
:1011700040B1E06E006820F48070E16E0860D4E950
:101180001C104860012084F8350000BF002084F85E
:10119000340000BF206D10B12046216D884700202B
:1011A0003EE60000100002401004024008540258BD
:1011B000024600BF107C012801D1022070470120A7
:1011C000107400BF1068C06A20F01F001368D86256
:1011D0001068C06A08431368D86200BF002010740A
:1011E00000BF00BFEAE7024600BF107C012801D122
:1011F000022070470120107400BF4868032800D106
:1012000000BF1068406B20F001001368586310683D
:10121000D0F8000420F001001368C3F8000410683F
:10122000806B20F00300136898631068806BCB68B4
:101230001843136898631068C06B6FF30D00136850
:10124000D8631068C06B0B6918431368D8631068C3
:10125000006C6FF30C00136818641068006C4B6925
:101260001843136818641068406C6FF30C0013681F
:1012700058641068406C8B69184313685864106890
:10128000C06820F003001368D8601068C0680B685D
:1012900018431368D8601068406920F0070013688D
:1012A0005861D1E908301843CB69184313685B696A
:1012B0001843136858611068006920F00F00136824
:1012C0001861106800694B6818431368186110684A
:1012D000D0F8000420F00E001368C3F80004106872
:1012E000D0F800044B6840EA43001368C3F80004D8
:1012F000486803280BD11068006920F480701368D7
:101300001861106800698B681843136818611068C9
:10131000806C6FF30B00136898641068806C8B6AA4
:101320001843136898641068C06C6FF30B0013685F
:10133000D8641068C06CCB6A18431368D86410680E
:10134000006D6FF30E00136818651068006D0B6B6D
:101350001843136818651068406D6FF3090013682F
:1013600058651068406D4B6B1843136858651068DA
:10137000806D6FF30900136898651068806D8B6B42
:101380001843136898651068C06D6FF309001368FF
:10139000D8651068C06DCB6B18431368D8651068AA
:1013A000006E6FF30D00136818661068006E0B6C0A
:1013B0001843136818661068806B20F400401368A7
:1013C00098631068806B4B6C1843136898631068BF
:1013D000806920F47F001368986110688069B1F813
:1013E000483040EA0340136898611068806920F033
:1013F000FF001368986110688069CB6C184313680C
:1014000098611068806B20F400501368986310682E
:10141000806B0B6D1843136898631068806B20F421
:101420008050136898631068806B4B6D1843136885
:1014300098631068806B20F40060136898631068EC
:10144000806B8B6D1843136898631068806B20F471
:101450008060136898631068806BCB6D18431368C5
:1014600098631068806B20F40070136898631068AC
:10147000806B0B6E1843136898631068806B20F4C0
:101480008070136898631068806B4B6E1843136804
:1014900098631068806B20F480401368986310682C
:1014A000806B8B6E18431368986300BF0020107424
:1014B00000BF00BF9DE600002DE9F84304460D463D
:1014C00014B90120BDE8F883607C10B9204600F013
:1014D000A1F90320607400BF002000902068D0F8BC
:1014E000300440F080702168C1F830042068D0F8E2
:1014F000300400F08070009000BF00BF00F0A4FB3B
:10150000064607E000F0A0FB801BB0F57A7F01D90A
:101510000320D7E72068D0F80C0400F4805000289E
:10152000F0D02068D0F830047F4908402168C1F825
:10153000300428688000696840EAC120298940EAAF
:1015400001402168D1F8301408432168C1F8300403
:1015500000BF002000902068D0F8300440F0010067
:101560002168C1F830042068D0F8300400F0010090
:10157000009000BF00BF012000F048FA00F064FBBB
:10158000064607E000F060FB801BB0F57A7F01D9CA
:10159000032097E72068D0F80C0400F4807000283E
:1015A000F0D000BF002000902068406840F00100AB
:1015B000216848602068406800F00100009000BF8A
:1015C00000BF2068806820F0FF00216888602068E4
:1015D0008068A1680843216888602068D0F8A0006E
:1015E00040F002002168C1F8A0002068D0F8A000F7
:1015F00040F004002168C1F8A0002068D0F8A400E1
:1016000020F003002168C1F8A4002068D0F8A400ED
:10161000E16808432168C1F8A40000F015FB064604
:101620002068D0F8A40000F00300A0B90BE000F09F
:101630000BFB801BB0F57A7F05D900BF002020741A
:1016400000BF03203EE72068D0F8B00000F014008F
:101650001428ECD113E00BE000F0F6FA801BB0F593
:101660007A7F05D900BF0020207400BF032029E73E
:101670002068D0F8B00000F094009428ECD168689D
:1016800008B1686800E001208046284808FB00F0A7
:10169000297A01F0030201219140484346F2A81241
:1016A00029685143B0FBF1F72068D0F8180420F006
:1016B0003F002168C1F818042068D0F818043843A6
:1016C0002168C1F8180400202168C1F8C400002175
:1016D0002068C0F8C8100020A06100BF00902068FA
:1016E000406820F00100216848602068406800F0F0
:1016F0000100009000BF00BF2068D0F8940020F0E7
:1017000003002168C1F894002068D0F89400616853
:1017100041F0010108432168C1F894000020606194
:10172000012060740020CDE60386FCFF00093D0027
:101730002DE9FF4F81B004461F46DDF83CA000BFF5
:10174000207C012803D1022005B0BDE8F08F0120E4
:10175000207400BF00F078FA83460CE000F074FAC1
:10176000A0EB0B00B0F57A7F05D900BF00202074F4
:1017700000BF0320E8E72068406F00F00100002868
:10178000ECD0DDF83880032F01D2384600E003208A
:101790000646002507E01AF80500E90008318840F0
:1017A00040EA08086D1CB542F5D32068C0F8708087
:1017B000A7EB0609B24419E0B9F1040F01D248467B
:1017C00000E0042006464FF00008002506E01AF865
:1017D0000500E900884040EA08086D1CB542F6D3D0
:1017E0002068C0F87080A9EB0609B244B9F1000F77
:1017F000E2D1781CC0F30720791CCBB2009020689E
:10180000DDE90212FEF7B6FF00BF0020207400BF22
:1018100000BF99E770472DE9FF4F85B00446924617
:101820009B46149F129ECDF810A05D4600BF207C01
:10183000012803D1022009B0BDE8F08F01202074F7
:1018400000BF022D0FD9C5F30720EBB2372200905D
:1018500020460699FEF798FF28B100BF00202074AB
:1018600000BF0120E7E7062E08D100200090206885
:101870003246139B0699FEF77DFF26E0042E08D121
:10188000002000900023324620680699FEF772FF80
:101890001BE0142E08D1002000903B7832462068CF
:1018A0000699FEF767FF10E0242E08D178780090A3
:1018B0003B78324620680699FEF75CFF05E000BFE2
:1018C0000020207400BF0120B5E700F0BDF980467C
:1018D0003FE02068406F00F01000D8B92068006F2A
:1018E0000390042D01D2284600E0042002904FF01E
:1018F00000090CE04FEAC9010398C840C1B204983E
:1019000001700498401C04906D1E09F101090298B1
:101910008145EFD300F098F9A0EB0800B0F57A7F8D
:1019200005D900BF0020207400BF032083E7206892
:10193000406F00F0400060B92068D0F8C00000F0AF
:101940002000202805D100BF0020207400BF012006
:1019500071E7002DBDDC00BF0020207400BF00BF78
:1019600069E72DE9F84304460E4617469846DDF828
:10197000209000BF207C012802D10220BDE8F8831E
:101980000120207400BF43463A4631462046CDF838
:101990000090FEF7F9FE054600BF0020207400BF4E
:1019A0002846EBE708B5014600BF087C012801D1B5
:1019B000022008BD0120087400BF00BF0020009075
:1019C0000868406840F001000A6850600868406894
:1019D00000F00100009000BF00BF00BF0020009099
:1019E0000868D0F8040440F008000A68C2F804044B
:1019F0000868D0F8040400F00800009000BF00BFA1
:101A000000BF0020087400BF00BFD2E710B5044635
:101A1000A0B203F0E9FE10BDF8B502460B46002166
:101A20006F4DD7E001278F401E6806EA0704002C9F
:101A300072D01E7906F00306012E04D01E7906F03E
:101A40000306022E13D190684F000326BE40B04318
:101A50004F00DE68BE4030439060506801268E40E3
:101A6000B0431E79C6F300168E40304350601E7995
:101A700006F00306032E09D0D0684F000326BE40AF
:101A8000B0434F009E68BE403043D0601E7906F0E0
:101A90000306022E13D1CF0802F1200656F82700C4
:101AA0004E07F70E0F26BE40B0434F07FF0E1E69CC
:101AB000BE403043CF0802F1200646F827001068E8
:101AC0004F000326BE40B0431E7906F003064F00C8
:101AD000BE40304310605E6806F44036002E78D079
:101AE00000BF404E366846F002063E4F3E603E461E
:101AF000366806F00206009600BF00BF3A4E8F0817
:101B000056F827008E07370F0F26BE40B043374EDA
:101B1000B24202D100262EE05BE0354EB24201D146
:101B2000012628E0334EB24201D1022623E0324E94
:101B3000B24201D103261EE0304EB24201D104264A
:101B400019E02F4EB24201D1052614E02D4EB242CB
:101B500001D106260FE02C4EB24201D107260AE041
:101B60002A4EB24201D1082605E0294EB24201D1E7
:101B7000092600E00A268F073F0FBE4030431A4E69
:101B80008F0846F827004FF0B0463068A0435E68E3
:101B900006F4801606B120434FF0B04630607068FE
:101BA000A0435E6806F4001606B120434FF0B0462D
:101BB00070606868A0435E6806F4003606B1204392
:101BC00068602868A0435E6806F4803606B120434A
:101BD0002860491C1E68CE40002E7FF423AFF8BD5C
:101BE000C0000058F444025808040058000002588D
:101BF0000004025800080258000C02580010025855
:101C00000014025800180258001C02580020025804
:101C100000240258024613690B400BB1012000E07A
:101C2000002070470AB1816101E00B0483617047B5
:101C300004480068C0F30310072801D1032070474F
:101C40000120FCE700ED00E001480068704700005B
:101C500018000010024909680143014A11607047E9
:101C6000106502580146054850F82100044A904288
:101C700001D1002070470120FCE700008064025879
:101C8000000100800121014A11607047000000102E
:101C900010B50748046806480C380068A04304499A
:101CA0000C390860081D04602046FFF7EBFF10BDEB
:101CB0001C65025810B541F48072034C04EB80039C
:101CC000C3F8002410BD00000060025803480068FB
:101CD000034909780844014908607047180000105A
:101CE0002000001038B500BF2248006840F4804052
:101CF000204908600846006800F48040009000BF5A
:101D000000BF1D4800681D49084040F401401A49C1
:101D100008600846006840F001000860052000F0F7
:101D2000DBFA01F0D3FC1349C0390968C1F3032180
:101D3000134A515C01F01F0120FA01F40D48C0382C
:101D4000006800F00F001146085C00F01F0024FA44
:101D500000F00C490860084600680B4908600F2035
:101D600000F014F808B1012038BD00F063FA00203B
:101D7000FAE70000D844025800440240FF00F0FF98
:101D800022781008080000100400001070B5044606
:101D90001148007808B9012070BD0F4800784FF451
:101DA0007A71B1FBF0F00D490968B1FBF0F52846F6
:101DB00001F0C6FE08B10120EEE7102C07D2002288
:101DC0002146501E00F04BFA0548046001E0012056
:101DD000E2E70020E0E7000020000010040000100F
:101DE0001C00001070B504460E46154600BF94F85E
:101DF000A000012801D1022070BD012084F8A000BC
:101E000000BF022084F8A10005EB850101EBC502AB
:101E100004F1380101EB820034223146FEF7B8FBB1
:101E20002A463146204602F026FA012021684862FF
:101E300084F8A10000BF002084F8A00000BF00BF0C
:101E4000DAE770B504460CB9012070BD94F8A10022
:101E500028B9002084F8A000204600F057F802209E
:101E600084F8A1002068806920F0704021688861B2
:101E7000D4E901010843E168084321690843216866
:101E80008969084321688861A08A0504A0692843FC
:101E900021688860A08B0504206A28432168C860F7
:101EA000A08C0504A06A284321680861A08D050460
:101EB000206B28432168486194F83500050294F8A6
:101EC000360006042068C06A00F07F402168C862BE
:101ED00046EA050094F8341008432168C96A0843AB
:101EE0002168C8622068406B40F0060021684863A2
:101EF0002068806940F00100216888610020C4F8F2
:101F0000A400012084F8A10000209EE710B586B04F
:101F1000044600BF8A48006840F00800884908600D
:101F20000846006800F00800009000BF00BF00BF36
:101F300083481038006840F010008149103908606B
:101F40000846006800F01000009000BF00BF7D4808
:101F5000808844F2423188421DD07A48808847F216
:101F60008401884217D07748808847F2160188425A
:101F700011D07448808845F2715188420BD0714865
:101F8000808844F28431884205D06E48808841F2CE
:101F9000180188427ED100BF00BF6948001F006859
:101FA00040F002006649091F08600846006800F01A
:101FB0000200009000BF00BF00BF00BF00BF084686
:101FC000006840F0800008600846006800F080006B
:101FD000009000BF00BF00BF00BF00BF0846006800
:101FE00040F4806008600846006800F4806000905B
:101FF00000BF00BF00BF00BF00BF0846006840F43C
:10200000807008600846006800F48070009000BF8F
:1020100000BF00BF00BF00BF0846006840F48070EA
:1020200008600846006800F48070009000BF00BFA0
:1020300000BF00BF00BF0846006840F48070086021
:102040000846006800F48070009000BF00BF00BF29
:1020500001200190029003900320049001A93A48C6
:10206000FFF7DAFC2020019001A93848FFF7D4FCE3
:102070008020019002200290002003900320049011
:102080000E20059001A93248FFF7C6FC4FF400501E
:10209000019000E051E001A92E48FFF7BDFC4FF48C
:1020A0008050019001A92B48FFF7B6FC4FF4804007
:1020B000019001A92748FFF7AFFC00BF2048001F8F
:1020C000006840F480701E49091F086008460068D7
:1020D00000F48070009000BF00BF00BF0846006899
:1020E00040F4007008600846006800F4007000903A
:1020F00000BF00BF00BF0846006840F48060086071
:102100000846006800F48060009000BF00BF4FF4F4
:10211000004001900E20059001A90E48FFF77CFCBD
:102120004FF6FF70019001A90B48FFF775FC7F2067
:10213000019001A90648FFF76FFC06B010BD000032
:10214000E44402582C00001000040258001C0258FD
:102150000028025800200258002402582DE9F041BE
:1021600004460E461746984600BF94F8A000012882
:1021700002D10220BDE8F081012084F8A00000BF58
:10218000022084F8A10008EB880000EBC80104F1EC
:10219000380000EB81052E60A86A30446860AF60AB
:1021A000E86A3844E86042462946204602F063F86F
:1021B00001202168486284F8A10000BF002084F853
:1021C000A00000BF00BFD5E72DE9F04104460E4650
:1021D0001746984600BF94F8A000012802D10220BB
:1021E000BDE8F081012084F8A00000BF022084F83F
:1021F000A10008EB880000EBC80104F1380000EBF7
:102200008105286830446860A8683844E860AE6298
:10221000EF6242462946204602F02DF8012021684F
:10222000486284F8A10000BF002084F8A00000BF2D
:1022300000BFD5E770470146084600280DDB00BF08
:1022400000BF00F01F0301229A4043099B0003F1E5
:10225000E023C3F8002100BF00BF00BF70472DE995
:10226000F05F80460D46164603F09AFA0746394657
:102270002A46334601F00700C0F1070ABAF1040FFD
:1022800002D94FF0040A01E0C0F1070AD14600F17B
:10229000040ABAF1070F02D24FF0000A01E0A0F1E0
:1022A000030AD4464FF0010A0AFA09FAAAF1010A10
:1022B0000AEA020A0AFA0CFA4FF0010B0BFA0CFBBD
:1022C000ABF1010B0BEA030B4AEA0B042146404633
:1022D00003F06EFABDE8F09F00BF00F00702064B66
:1022E00019684FF6FF031940044B0B4343EA0221E0
:1022F000014B196000BF70470CED00E00000FA05CB
:1023000010B5FFF795FC032801D120BF01E040BFC5
:1023100020BF10BD70B506460C4615463348006810
:1023200020F0010030433149086015BBFFF780FC05
:10233000032800D070BD2D481030006820F0010047
:102340002A49103108602A48006840F004002849F2
:102350000860BFF34F8FBFF36F8F012C01D130BFE7
:1023600000E020BF2248006820F0040020490860F7
:1023700039E0012D22D1FFF75BFC012800D0D9E71D
:102380001A481430006820F002001849143108601F
:102390001748006840F0040015490860BFF34F8FEC
:1023A000BFF36F8F012C01D130BF00E020BF104878
:1023B000006820F004000E49086014E0FFF738FCC4
:1023C000032808D109481030006820F004000749AC
:1023D0001031086007E005481430006820F0040060
:1023E00002491431086000BFA4E700000048025809
:1023F00010ED00E010B501F01DF905490968C1F3C1
:102400000211044A515C01F01F01C84010BD0000D8
:10241000204402582278100870B50146844D2D687A
:1024200005F00303824D2D68C5F30530804D2D1D49
:102430002D68C5F300147E4D14352D68C5F3CC0509
:1024400015FB04F501EE105AB8EE411AF0EE410A00
:1024500000286FD023B1012B4ED0022B6BD16BE043
:10246000734D283D2D68C5F340153DB3704D283D93
:102470002D68C5F3C1066F4D25FA06F201EE102A4C
:10248000F8EE411A01EE100AB8EE411A81EE812AE7
:102490009FED691AC0EE811A654D10352D68C5F3A0
:1024A000080501EE105AB8EE411A31EE811AF7EE26
:1024B000001A31EE211A22EE010A1CE001EE100A88
:1024C000B8EE411ADFED5D1A81EE812A9FED5A1AAE
:1024D000C0EE811A564D10352D68C5F3080501EE82
:1024E000105AB8EE411A31EE811AF7EE001A31EEA9
:1024F000211A22EE010A5BE001EE100AB8EE411A41
:10250000DFED4F1A81EE812A9FED4B1AC0EE811A42
:10251000474D10352D68C5F3080501EE105AB8EE89
:10252000411A31EE811AF7EE001A31EE211A22EE2D
:10253000010A3DE077E01DE001EE100AB8EE411A15
:102540009FED402AC2EE011A9FED3B1A80EE812AD0
:10255000374D10352D68C5F3080501EE105AB8EE59
:10256000411A32EE011AB7EE002A31EE021A21EEBC
:10257000810A1DE001EE100AB8EE411ADFED301AB3
:1025800081EE812A9FED2C1AC0EE811A284D10355C
:102590002D68C5F3080501EE105AB8EE411A31EE68
:1025A000811AF7EE001A31EE211A22EE010A00BF5D
:1025B00000BF1F4D10352D68C5F3462501EE105A9A
:1025C000B8EE411AF7EE001A31EE211AC0EE011AE8
:1025D000BCEEE11A81ED001A154D10352D68C5F3DA
:1025E000064501EE105AB8EE411AF7EE001A31EE28
:1025F000211AC0EE011ABCEEE11A81ED011A0C4D50
:1026000010352D68C5F3066501EE105AB8EE411A73
:10261000F7EE001A31EE211AC0EE011ABCEEE11AF3
:1026200081ED021A03E000250D604D608D6070BDE4
:10263000284402580090D003000000460024744C47
:102640000024744A20BCBE4B70B50146844D2D68F1
:1026500005F00303824D2D68C5F30550804D2D1DF7
:102660002D68C5F300247E4D1C352D68C5F3CC05BF
:1026700015FB04F501EE105AB8EE411AF0EE410ACE
:1026800000286FD023B1012B4ED0022B6BD16BE011
:10269000734D283D2D68C5F340153DB3704D283D61
:1026A0002D68C5F3C1066F4D25FA06F201EE102A1A
:1026B000F8EE411A01EE100AB8EE411A81EE812AB5
:1026C0009FED691AC0EE811A654D18352D68C5F366
:1026D000080501EE105AB8EE411A31EE811AF7EEF4
:1026E000001A31EE211A22EE010A1CE001EE100A56
:1026F000B8EE411ADFED5D1A81EE812A9FED5A1A7C
:10270000C0EE811A564D18352D68C5F3080501EE47
:10271000105AB8EE411A31EE811AF7EE001A31EE76
:10272000211A22EE010A5BE001EE100AB8EE411A0E
:10273000DFED4F1A81EE812A9FED4B1AC0EE811A10
:10274000474D18352D68C5F3080501EE105AB8EE4F
:10275000411A31EE811AF7EE001A31EE211A22EEFB
:10276000010A3DE077E01DE001EE100AB8EE411AE3
:102770009FED402AC2EE011A9FED3B1A80EE812A9E
:10278000374D18352D68C5F3080501EE105AB8EE1F
:10279000411A32EE011AB7EE002A31EE021A21EE8A
:1027A000810A1DE001EE100AB8EE411ADFED301A81
:1027B00081EE812A9FED2C1AC0EE811A284D183522
:1027C0002D68C5F3080501EE105AB8EE411A31EE36
:1027D000811AF7EE001A31EE211A22EE010A00BF2B
:1027E00000BF1F4D18352D68C5F3462501EE105A60
:1027F000B8EE411AF7EE001A31EE211AC0EE011AB6
:10280000BCEEE11A81ED001A154D18352D68C5F39F
:10281000064501EE105AB8EE411AF7EE001A31EEF5
:10282000211AC0EE011ABCEEE11A81ED011A0C4D1D
:1028300018352D68C5F3066501EE105AB8EE411A39
:10284000F7EE001A31EE211AC0EE011ABCEEE11AC1
:1028500081ED021A03E000250D604D608D6070BDB2
:10286000284402580090D003000000460024744C15
:102870000024744A20BCBE4B2DE9F04104460025DB
:10288000A8464FF00062D4E9000110400021134631
:1028900058404940084331D1E06E48B1B0F5801F3F
:1028A0000DD0B0F5001F11D0B0F5401F16D114E0C7
:1028B000FB48006840F40030F949086010E002214C
:1028C00004F1080001F0CCFD054609E0022104F105
:1028D000280001F077FE054602E001E0012500BF77
:1028E00000BF55B9EE482430006820F44010E16E76
:1028F0000843EB492431086000E0A8464FF4807299
:10290000D4E90001104000211346584049400843D3
:102910002ED1E06D05281BD2DFE800F0030A111864
:102920001900DF48006840F40030DD49086011E01C
:10293000002104F1080001F093FD05460AE00021A2
:1029400004F1280001F03EFE054603E002E001E04C
:10295000012500BF00BF55B9D1482430006820F0E0
:102960000700E16D0843CE492431086000E0A84625
:102970004FF40072D4E90001104000211346584082
:102980004940084334D1206E802818D003DC40B180
:1029900040281DD10CE0C02818D0B0F5807F17D199
:1029A00015E0BF48006840F40030BD49086011E000
:1029B000002104F1080001F053FD05460AE0002162
:1029C00004F1280001F0FEFD054603E002E001E00D
:1029D000012500BF00BF55B9B1482430006820F47C
:1029E000E070216E0843AE492431086000E0A8463B
:1029F0004FF48062D4E90010114000201346594082
:102A00004040014339D1D4F8AC00B0F5800F1AD062
:102A100004DC50B1B0F5001F1ED10DE0B0F5C00FC1
:102A200018D0B0F5000F17D115E09D48006840F4AC
:102A300000309B49086011E0002104F1080001F01A
:102A40000FFD05460AE0002104F1280001F0BAFD5F
:102A5000054603E002E001E0012500BF00BF5DB9CB
:102A60008F482C30006820F46000D4F8AC10084384
:102A70008B492C31086000E0A8464FF40063D4E98C
:102A800000101940002059404040014339D1D4F88A
:102A9000B000B0F1007F1AD004DC50B1B0F1807FFB
:102AA0001ED10DE0B0F1407F18D0B0F1806F17D18A
:102AB00015E07B48006840F400307949086011E077
:102AC000002104F1080001F0CBFC05460AE00021DA
:102AD00004F1280001F076FD054603E002E001E084
:102AE000012500BF00BF5DB96D482C30006820F0A3
:102AF000E060D4F8B010084369492C31086000E068
:102B0000A8464FF00072D4E900011040002113469E
:102B100058404940084328D1E06CA8B1102804D09F
:102B2000202809D0302810D10DE05D48006840F41D
:102B300000305B4908600AE0022104F1080001F05E
:102B40008FFC054603E002E001E0012500BF00BF65
:102B500055B953482030006820F03000E16C08433C
:102B60004F492031086000E0A8464FF48053D4E973
:102B700000101940002059404040014337D1606E99
:102B8000B0F5005F1AD004DC50B1B0F5805F1ED103
:102B90000DE0B0F5405F18D0B0F5804F17D115E0CB
:102BA0003F48006840F400303D49086011E00021D2
:102BB00004F1080001F054FC05460AE0002104F18C
:102BC000280001F0FFFC054603E002E001E00125DA
:102BD00000BF00BF55B932482430006820F4E040FF
:102BE000616E08432E492431086000E0A8464FF486
:102BF0000053D4E9001019400020594040400143DF
:102C000035D1A06EB0F5403F1ED007DC68B1B0F5FD
:102C1000803F0BD0B0F5003F19D10EE0B0F5802F0A
:102C200013D0B0F5A02F12D110E012E0012104F171
:102C3000080001F015FC05460BE0012104F1280015
:102C400001F0C0FC054604E003E002E001E00125DC
:102C500000BF00BF55B912482430006820F4E020BE
:102C6000A16E08430E492431086000E0A8464FF4E5
:102C70008043D4E9001019400020594040400143EE
:102C800038D1D4F8B400B0F1405F21D00ADC80B173
:102C9000B0F1805F0ED0B0F1005F1CD111E00000F8
:102CA0002C440258B0F1804F13D0B0F1A04F12D194
:102CB00010E012E0012104F1080001F0D1FB05460B
:102CC0000BE0012104F1280001F07CFC054604E042
:102CD00003E002E001E0012500BF00BF4DB9F74865
:102CE000006820F0E040D4F8B4100843F3490860CD
:102CF00000E0A8464FF08063D4E90010194000209E
:102D00005940404001431CD1206D48B1B0F5807F4F
:102D100007D1012104F1080001F0A2FB054602E001
:102D200001E0012500BF00BF55B9E4480C38006838
:102D300020F48070216D0843E0490C39086000E000
:102D4000A8464FF40043D4E9000118400021584040
:102D50004940084329D1606FB0B1B0F1805F03D022
:102D6000B0F1005F11D108E0D4482C38006840F47D
:102D70000030D2492C39086009E0012104F1080033
:102D800001F06EFB054602E001E0012500BF00BF37
:102D900055B9CA480838006820F04050616F0843B0
:102DA000C6490839086000E0A8464FF08072D4E9AF
:102DB00000101140002013465940404001432AD1E1
:102DC000A06CB8B1012804D002280BD0032812D17E
:102DD0000FE0BA482C38006840F40030B7492C396D
:102DE00008600AE0022104F1080001F039FB054601
:102DF00003E002E001E0012500BF00BF55B9AF4884
:102E00000C38006820F00300A16C0843AB490C3972
:102E1000086000E0A8464FF48002D4E900011040A9
:102E2000002113465840494008437DD1A44800681A
:102E300040F48070A2490860FEF706FF064606E0EF
:102E4000FEF702FF801B642801D9032505E09C489A
:102E5000006800F480700028F2D000BF85BB97485E
:102E60001830006800F44070B4F8B81001F44071F4
:102E7000884213D091481830006820F440778F487A
:102E80001830006840F480308C49183108600846DA
:102E9000006820F48030086008460760D4F8B80065
:102EA000B0F5807F15D1FEF7CFFE064609E0FEF7AC
:102EB000CBFE801B41F28831884202D9032507E00E
:102EC00038E07E4818300068C0F340000028EED09B
:102ED00000BF55BB00BFB4F8B80000F44070B0F5B7
:102EE000407F0ED175484838006820F47C51754AFF
:102EF000D4F8B800104041EA101070494839086011
:102F000007E06E484838006820F47C506B49483927
:102F100008606A4818300068B4F8B810C1F30B01B3
:102F200008436649183101E005E001E0086002E06D
:102F3000A84600E0A8460122D4E900101140002074
:102F4000134659404040014332D1D4F8800018283C
:102F50001AD005DC48B1082808D0102817D10CE099
:102F6000202812D0282812D110E012E0012104F10B
:102F7000080001F075FA05460BE0012104F1280074
:102F800001F020FB054604E003E002E001E001253A
:102F900000BF00BF5DB94948001F006820F038003D
:102FA000D4F8801008434549091F086000E0A8468E
:102FB0000223D4E900011840002158404940084349
:102FC00029D1E06F062816D2DFE800F003040B12C7
:102FD000131412E0012104F1080001F041FA054642
:102FE0000BE0012104F1280001F0ECFA054604E0B1
:102FF00003E002E001E0012500BF00BF55B92F4802
:10300000001F006820F00700E16F08432B49091FEB
:10301000086000E0A8460423D4E90001184000211C
:1030200058404940084329D1D4F89800062816D2C0
:10303000DFE800F003040B12131412E0012104F185
:10304000080001F00DFA05460BE0012104F128000B
:1030500001F0B8FA054604E003E002E001E00125D2
:1030600000BF00BF4DB91548006820F00700D4F834
:10307000981008431149086000E0A8462023D4E9CD
:103080000001184000215840494008433CD1D4F881
:103090009400B0F1405F25D007DC68B1B0F1805FEB
:1030A00012D0B0F1005F20D115E0B0F1804F1AD0FE
:1030B000B0F1A04F19D117E019E0000058440258B0
:1030C00000480258FFFCFF0F002104F1080001F046
:1030D000C7F905460BE0022104F1280001F072FA5D
:1030E000054604E003E002E001E0012500BF00BF67
:1030F0004DB9FE48006820F0E040D4F89410084331
:10310000FA49086000E0A8464022D4E900101140C6
:103110000020134659404040014337D1D4F8A00065
:10312000B0F5406F1ED007DC68B1B0F5806F0BD0F2
:10313000B0F5006F19D10EE0B0F5805F13D0B0F597
:10314000A05F12D110E012E0002104F1080001F0AC
:1031500087F905460BE0022104F1280001F032FA5C
:10316000054604E003E002E001E0012500BF00BFE6
:103170005DB9DE48001D006820F4E050D4F8A010CE
:103180000843DA49091D086000E0A8468022D4E916
:10319000001011400020134659404040014337D1F0
:1031A000D4F8A400B0F5C04F1ED007DC68B1B0F56C
:1031B000005F0BD0B0F5804F19D10EE0B0F5004F95
:1031C00013D0B0F5204F12D110E012E0002104F12D
:1031D000080001F045F905460BE0022104F1280042
:1031E00001F0F0F9054604E003E002E001E001250A
:1031F00000BF00BF5DB9BD48001D006820F46040FD
:10320000D4F8A4100843B949091D086000E0A84695
:103210000823D4E9001019400020594040400143E0
:1032200015D1D4F88800B0F5805F07D1022104F1F0
:10323000280001F0C7F908B14FF00108AB48006859
:1032400020F44050D4F888100843A84908601022A0
:10325000D4E900011040002113465840494008437A
:1032600017D1D4F89C00B0F5807F07D1022104F17A
:10327000280001F0A7F908B14FF001089B48001D94
:10328000006820F44070D4F89C1008439749091D49
:1032900008604FF40022D4E90001104000211346D9
:1032A00058404940084329D1D4F8A80030B1B0F5BE
:1032B000803F0AD0B0F5003F0FD10DE0002104F1AE
:1032C000080001F0CDF8054609E0022104F12800CC
:1032D00001F078F9054602E001E0012500BF00BFDA
:1032E0005DB98248001D006820F44030D4F8A81071
:1032F00008437E49091D086000E0A8464FF480237A
:10330000D4E90010194000205940404001432BD11E
:10331000D4F88C00B0F5801F06D0B0F5001F0CD09B
:10332000B0F5401F11D10FE070482838006840F414
:1033300000306E492839086009E0012104F12800B5
:1033400001F040F9054602E001E0012500BF00BFA1
:103350004DB96648006820F44010D4F88C1008433A
:103360006249086000E0A8464FF48032D4E90001C9
:1033700010400021134658404940084325D1606D54
:1033800018B1B0F5803F10D108E0584828380068DF
:1033900040F4003055492839086008E0022104F162
:1033A000080001F05DF8054601E0012500BF00BFFF
:1033B00055B94E480838006820F48030616D0843E4
:1033C0004A490839086000E0A8464FF00053D4E9A4
:1033D00000011840002158404940084307D102210C
:1033E00004F1280001F0EEF808B14FF001084FF4A5
:1033F0000032D4E9000110400021134658404940F2
:10340000084327D1D4F88400A0B1B0F5807F06D05E
:10341000B0F5007F0CD0B0F5407F0CD109E0334807
:103420002838006840F4003030492839086004E04A
:1034300003E002E001E0012500BF00BF4DB92B48C9
:10344000006820F44070D4F88410084327490860CD
:1034500000E0A8464FF48013D4E900101940002082
:1034600059404040014309D12048001F006820F026
:103470000040A16F08431D49091F08604FF08052AA
:10348000D4E9001011400020134659404040014348
:103490000AD116484438006820F48040D4F8BC10A3
:1034A00008431249443908604FF40013D4E900017D
:1034B0001840002158404940084309D10B48001FDB
:1034C000006820F08070216F08430849091F0860D8
:1034D0004FF08043D4E90001184000215840494092
:1034E000084312D100BF0148443801E05444025857
:1034F000006820F400404E49086008460068D4F88F
:10350000C01008434A49086000BF4FF00042D4E9A8
:10351000000110400021134658404940084309D19A
:1035200043483C30006820F04050A16D08434049BA
:103530003C3108604FF40003D4E90010194000202A
:103540005940404001430AD139484430006820F4D2
:103550004000D4F8901008433549443108600122F6
:1035600000206168114040405140084307D10021CC
:1035700004F1080000F074FF054605B1A8460222D8
:1035800000206168114040405140084307D10121AB
:1035900004F1080000F064FF054605B1A8460422C6
:1035A00000216068104049405040014307D102218A
:1035B00004F1080000F054FF054605B1A8460822B2
:1035C00000216068104049405040014306D104F199
:1035D000280000F0F7FF054605B1A846102200219B
:1035E0006068104049405040014307D1012104F177
:1035F000280000F0E7FF054605B1A846202300207B
:1036000061681940202240405140084307D10221FF
:1036100004F1280000F0D6FF054605B1A846B8F130
:10362000000F02D10020BDE8F0810120FBE700007F
:103630001044025810B500F049F80E490968C1F36A
:1036400003210D4A515C01F01F0120FA01F40948E1
:10365000006800F00F001146085C00F01F0024FA1B
:1036600000F00649086008460068054908600348FC
:10367000006810BD18440258227810080800001095
:103680000400001000B5FFF7D5FF05490968C1F334
:103690000211044A515C01F01F01C84000BD000046
:1036A0001C4402582278100800B5FFF7C3FF0549F3
:1036B0000968C1F30221044A515C01F01F01C840AE
:1036C00000BD00001C44025822781008F0B5824E5C
:1036D000366806F0380636B1082E15D0102E15D0F3
:1036E000182E7DD114E07C4E103E3668C6F340168D
:1036F00046B1794E103E3668C6F3C107774E26FABA
:1037000007F000E07548E5E07548E3E07548E1E062
:10371000714E1836366806F003046F4E1836366858
:10372000C6F305116C4E1C36366806F001056A4E6C
:1037300024363668C6F3CC0616FB05F601EE106A91
:10374000B8EE410A002971D024B1012C50D0022CCE
:103750006DD16DE0604E103E3668C6F340163EB344
:103760005D4E103E3668C6F3C1075C4E26FA07F37D
:1037700001EE103AF8EE411A01EE101AB8EE411AB5
:1037800081EE812A9FED581AC0EE011A524E203662
:103790003668C6F3080601EE106AB8EE411A31EE3B
:1037A000811AF7EE001A31EE211A62EE010A1EE0CC
:1037B00001EE101AB8EE411ADFED4C1A81EE812AA3
:1037C0009FED491AC0EE011A434E20363668C6F303
:1037D000080601EE106AB8EE411A31EE811A00E0D7
:1037E00076E0F7EE001A31EE211A62EE010A5BE094
:1037F00001EE101AB8EE411A9FED3D2AC2EE011AF1
:103800009FED391A80EE012A334E20363668C6F312
:10381000080601EE106AB8EE411A32EE011AB7EE50
:10382000002A31EE021A61EE810A3DE04EE01DE011
:1038300001EE101AB8EE411ADFED2E1A81EE812A40
:103840009FED291AC0EE011A234E20363668C6F3C2
:10385000080601EE106AB8EE411A31EE811AF7EE51
:10386000001A31EE211A62EE010A1DE001EE101A73
:10387000B8EE411A9FED1E2AC2EE011A9FED1A1AE8
:1038800080EE012A144E20363668C6F3080601EE93
:10389000106AB8EE411A32EE011AB7EE002A31EE84
:1038A000021A61EE810A00BF00BF0B4E2036366857
:1038B000C6F34626721C01EE102AB8EE411AC0EE7D
:1038C000811ABCEEE11A11EE100A00E0002001E0BE
:1038D000034800BF00BFF0BD104402580090D00361
:1038E00000093D0040787D01000000460024744C32
:1038F0000024744A20BCBE4B70B504460D460CB97A
:10390000012070BD94F82C0028B9002084F82D0007
:10391000204600F019F8022084F82C00211D2068B0
:10392000FCF76EFF2946D4E90002FCF7BDFF05480D
:10393000006840F0004003490860012084F82C0032
:103940000020DEE70040005210B586B0044600BFFC
:103950005248006840F480505049086008460068AA
:1039600000F48050009000BF00BF00BF4B480C30F7
:10397000006840F0040049490C31086008460068BE
:1039800000F00400009000BF00BF00BF08460068C0
:1039900040F0080008600846006800F00800009049
:1039A00000BF00BF00BF0846006840F0100008607C
:1039B0000846006800F01000009000BF00BF00BF84
:1039C0000846006840F0200008600846006800F0E3
:1039D0002000009000BF00BF00BF0846006840F014
:1039E000400008600846006800F04000009000BFFA
:1039F00000BF00BF0846006840F08000086008462D
:103A0000006800F08000009000BF00BF00BF0846C3
:103A1000006840F4807008600846006800F4807018
:103A2000009000BF00BF0120019002200290012001
:103A30000390032004900C20059001A91848FDF77D
:103A4000EBFF4CF20370019001A91648FDF7E4FF6B
:103A50004FF68370019001A91348FDF7DDFF4FF683
:103A60003F00019001A91148FDF7D6FF48F233103D
:103A7000019001A90E48FDF7CFFF4FF6C0700190ED
:103A800001A90C48FDF7C8FF40F2FF60019001A9B1
:103A90000948FDF7C1FF06B010BD0000D44402582C
:103AA00000080258000C0258001002580014025876
:103AB00000180258001C02580020025870B5044635
:103AC0000D4694F82C00022800D170BD94F82C000B
:103AD00001280AD1022084F82C0029462068FCF72E
:103AE000C5FE012084F82C0001E00120EDE7002054
:103AF000EBE72DE9F04104460E46174694F82C50AA
:103B0000022D02D10220BDE8F081012D01D0052D4A
:103B100012D1022084F82C003A4631462068FCF786
:103B2000AFFE3068022803D1052084F82C0005E0A0
:103B3000012084F82C0001E00120E4E70020E2E706
:103B400070B504462546681EB0F1807F01D3012080
:103B50000FE0681E4FF0E02148610F214FF0FF3069
:103B600001F026FE00204FF0E02188610720086167
:103B7000002070BD70477047704770477047000065
:103B80002DE9F04704462068C5692068066820686A
:103B9000876840F60F0005EA0009B9F1000F0FD160
:103BA00005F0200060B106F0200010B907F0805049
:103BB00030B1606F10B12046616F8847BDE8F08773
:103BC000B9F1000F7ED0F848384018B9F7483040B6
:103BD0000028F7D005F0010058B106F4807040B11C
:103BE000012021680862D4F8900040F00100C4F878
:103BF000900005F0020058B107F0010040B102202A
:103C000021680862D4F8900040F00400C4F89000E5
:103C100005F0040058B107F0010040B1042021680C
:103C20000862D4F8900040F00200C4F8900005F05B
:103C3000080070B106F0200010B9DB48384040B1F0
:103C4000082021680862D4F8900040F00800C4F809
:103C5000900005F4006060B106F0806048B14FF458
:103C6000006021680862D4F8900040F02000C4F899
:103C70009000D4F89000002852D005F0200050B1F8
:103C800006F0200010B907F0805020B1606F10B12D
:103C90002046616F8847D4F890A02068806800F0C3
:103CA0004000402802D00AF0280070B3204600F0FF
:103CB00053FE2068806800F04000402826D100BFF5
:103CC00000BF00E02DE02168083151E8001F21F01D
:103CD00040002168083141E80002002AF1D100BF0C
:103CE000D4F8800068B1B248D4F880100865D4F8E0
:103CF0008000FDF791F898B1D4F88000016D8847F5
:103D00000EE02046FFF73AFF0AE003E02046FFF707
:103D100035FF05E02046FFF731FF0020C4F8900092
:103D20004CE7E06E01287DD105F01000002879D025
:103D300006F010000028FAD01020216808622068E0
:103D4000806800F0400040286DD1D4F88000006801
:103D5000984988426BD0D4F88000006895491831A2
:103D6000884264D0D4F8800000689249303188429B
:103D70005DD0D4F8800000688E494831884256D022
:103D8000D4F8800000688B49603188424FD0D4F865
:103D90008000006887497831884248D0D4F8800094
:103DA000006884499031884241D0D4F8800000688E
:103DB0008049A83188423AD0D4F8800000687E4912
:103DC000884234D0D4F8800000687B49183188429A
:103DD0002DD0D4F88000006877493031884226D051
:103DE000D4F8800000687449483188421FD0D4F864
:103DF0008000006870496031884218D0D4F8800093
:103E000000686D497831884211D0D4F8800000688C
:103E10006949903188420AD0D4F880000068664928
:103E2000A83102E0CAE07BE001E0884204D1D4F886
:103E300080000068406803E0D4F8800000684068B3
:103E40001FFA80F8B8F1000F58D0B4F85C00404574
:103E500054DDA4F85E80D4F88000C069B0F5807F9E
:103E600040D000BF00BF216851E8001F21F48070DE
:103E7000226842E800010029F5D100BF00BF00BF61
:103E80002168083151E8001F21F001002168083144
:103E900041E80002002AF3D100BF00BF00BF216843
:103EA000083151E8001F21F040002168083141E845
:103EB0000002002AF3D100BF2020C4F88C000020AB
:103EC000E06600BF00BF216851E8001F21F010002C
:103ED000226842E800010029F5D100BFD4F8800033
:103EE000FCF72CFD02202067B4F85C00B4F85E20DB
:103EF000801A81B22046FFF73DFE10E0B4F85C0066
:103F000040450CD1D4F88000C069B0F5807F06D15F
:103F100002202067B4F85C102046FFF72BFE4DE628
:103F200034F85C0F6188401A1FFA80F860885C3CA6
:103F3000C8B3B8F1000F36D000BF00BF216851E808
:103F4000001F21F49070226842E800010029F5D199
:103F500000BF00BF00BF2168083151E8001F124AAE
:103F6000D24301EA02002168083141E80002002A38
:103F7000F1D100BF2020C4F88C000020E06660670B
:103F800000BF00BF216851E8001F21F01000226827
:103F900042E800010029F5D100BF02202067414618
:103FA0002046FFF7E7FD09E60100001020010004AC
:103FB00043491008100002401004024005F480102C
:103FC00050B107F4800038B14FF4801021680862C6
:103FD0002046FFF7D2FDF1E505F0800058B106F06C
:103FE000800010B907F4000028B1A06F10B120467E
:103FF000A16F8847E2E505F0400030B106F04000CF
:1040000018B1204600F0DEFCD8E505F4000030B120
:1040100006F0804018B12046FFF7AEFDCEE505F072
:10402000807030B106F0004018B12046FFF7A3FDC4
:10403000C4E500BFC2E510B504460CB9012010BDAF
:10404000A06900B100E000BFD4F8880028B90020C2
:1040500084F88400204600F02BF82420C4F888005F
:104060002068006820F0010021680860A06A10B193
:10407000204600F075FB204600F0BEFF012800D16D
:10408000DDE72068406820F490402168486020689F
:10409000806820F02A00216888602068006840F06D
:1040A000010021680860204600F0D6FBC7E7000049
:1040B00010B586B004462B492068884250D100BF15
:1040C00000BF2948006840F01000274908600846F2
:1040D000006800F01000009000BF00BF00BF00BFEC
:1040E00000BF21481038006840F001001E49103917
:1040F00008600846006800F00100009000BF00BFA3
:1041000000BF00BF00BF0846006840F00100086023
:104110000846006800F00100009000BF00BF00BF2B
:104120004FF40070019002200290012003900220C1
:1041300004900720059001A90C48FDF76DFC4FF491
:10414000806001900720059001A90848FDF764FCF4
:104150002520FEF770F8032211462520FEF77FF890
:1041600006B010BD00100140F04402580000025893
:1041700070B504460D461646D4F88C00202821D18F
:1041800005B10EB9012070BD0020E0660E4920681F
:10419000884211D02068406800F4000060B100BF80
:1041A00000BF216851E8001F41F08060226842E8AA
:1041B00000010029F5D100BF32462946204601F012
:1041C000E1F9E0E70220DEE7000C005810B50446F4
:1041D0002049206888423BD11F48008800F40040F5
:1041E00088BB1D48008800F4804070B11B480078EF
:1041F0000A2803D000201849088024E016480088C7
:1042000040F40040144908801DE0144800780D284F
:1042100006D11148008840F480400F49088012E020
:104220000E4800780C490988C1F30D010C4A50541E
:1042300009480088401C0849088008460088C728AB
:1042400001DD00200880012204490648FFF790FFA5
:1042500010BD0000001001401400001016000010F6
:10426000DC030010A4040010704710B5FDF710FD2A
:1042700010BD00BFFEE7F0B58E880768FF68C7F382
:104280000B473E44330406688436802707FB0266EA
:10429000766806F47047066884364FF0800C0CFB95
:1042A000026677600E680768FF68C7F30B473E44F5
:1042B000761C1E43076884370CFB02777E608E896C
:1042C0000768FF68C7F30A073E443304066884366C
:1042D000802707FB0266B66806F4704706688436D6
:1042E0000CFB0266B7608E680768FF68C7F30A07B1
:1042F0003E44761C46EA0307066884360CFB0266D9
:10430000B76006688436802707FB0266366926F0A8
:104310000707066884360CFB026637610F6906687A
:1043200084360CFB026637613126765C3302322616
:10433000765C34040E7E350691F830601E432643C9
:1043400046EA0507066884360CFB0266B761066814
:104350008436802707FB0266766926F0FF07066829
:1043600084360CFB026677614F69066884360CFB65
:104370000266776106688436802707FB0266F76964
:1043800040F20776B743066884360CFB0266F76195
:10439000D1E907763743066884360CFB0266F7617D
:1043A0004F6A066884360CFB0266B7620E690EB966
:1043B000042313E00E69012E01D103230EE00E69E0
:1043C000042E08D00E69022E05D00E69032E02D0ED
:1043D0000E69072E01D1022300E00123066884360E
:1043E000802707FB0266F66A06F0E0270668843637
:1043F0004FF0800C0CFB0266F762D1E90076F61BE9
:104400005E43F71D0E8D5E4347EA06470668843615
:104410000CFB0266F76206688436802707FB02669B
:10442000366BF70AFF02066884360CFB02663763B8
:10443000CF6A066884360CFB0266376306688436EA
:10444000D701F65946F00107066884364FEAC21CC8
:1044500046F80C70F0BD00BFFEE7704770470000E3
:104460002DE9F04104460E4600275548006800F04B
:104470000300032802D10120BDE8F081504828380C
:10448000006820F080604E4928390860FDF7DCFBA9
:10449000054606E0FDF7D8FB401B022801D90320A2
:1044A000EAE7474828380068C0F3C0600028F1D127
:1044B00000BF4348006820F47C30216840EA0130A6
:1044C0003F490860A088401EC0F30800A168491E4B
:1044D0004FF47E4202EA41210843A189491ED201DC
:1044E00002EA01410843217C491E120202EA0161ED
:1044F000084333491031086000BF3148001D00688F
:1045000020F0C000616908432D49091D0860084674
:10451000006820F02000A16908432949091D0860AE
:104520000846006820F01000086025481430006834
:104530004FF6F8718843E16940EAC100204914311F
:1045400008601F48001D006840F010001C49091D4C
:1045500008602EB90846006840F40020086012E0A8
:10456000012E08D11648001D006840F4801014493F
:10457000091D086007E01248001D006840F40010A3
:104580000F49091D08600E482838006840F0806017
:104590000B4928390860FDF757FB054606E0FDF793
:1045A00053FB401B022801D9032065E70448283843
:1045B0000068C0F3C0600028F1D038465CE7000016
:1045C000284402582DE9F04104460E46002755487C
:1045D000006800F00300032802D10120BDE8F0814B
:1045E00050482838006820F080504E49283908602B
:1045F000FDF72AFB054606E0FDF726FB401B0228D7
:1046000001D90320EAE7474828380068C0F3407022
:104610000028F1D100BF4348006820F07C70218859
:1046200040EA01503F490860A088401EC0F30800DE
:10463000A168491E4FF47E4202EA41210843A18944
:10464000491ED20102EA01410843217C491E12029F
:1046500002EA0161084333491831086000BF31485C
:10466000001D006820F44060616908432D49091D60
:1046700008600846006820F40070A16908432949D1
:10468000091D08600846006820F48070086025480D
:104690001C3000684FF6F8718843E16940EAC100B8
:1046A00020491C3108601F48001D006840F48070DC
:1046B0001C49091D08602EB90846006840F48000B6
:1046C000086012E0012E08D11648001D006840F471
:1046D00000001449091D086007E01248001D006829
:1046E00040F080700F49091D08600E4828380068A6
:1046F00040F080500B4928390860FDF7A5FA0546BF
:1047000006E0FDF7A1FA401B022801D9032065E766
:10471000044828380068C0F340700028F1D03846BB
:104720005CE7000028440258704710B5FDF7CEFA48
:1047300010BD00000948006840F470000749086097
:1047400006487838006840F010000449783908605D
:104750004FF00160014980390860704788ED00E042
:1047600090F8281001F00801082907D1016849686C
:1047700021F40041826B11430268516090F82810C7
:1047800001F0010139B10168496821F40031C26AC0
:1047900011430268516090F8281001F002010229CB
:1047A00007D10168496821F48031026B1143026826
:1047B000516090F8281001F00401042907D1016824
:1047C000496821F48021426B11430268516090F8DE
:1047D000281001F01001102907D10168896821F41F
:1047E0008051C26B11430268916090F8281001F06B
:1047F0002001202907D10168896821F40051026C49
:1048000011430268916090F8281001F0400140299E
:1048100013D10168496821F48011426C1143026888
:104820005160416CB1F5801F07D10168496821F4DE
:10483000C001826C11430268516090F8281001F0A9
:104840008001802907D10168496821F40021C26CE8
:10485000114302685160704738B504460020C4F81F
:104860009000FDF7F1F905462068006800F00800A7
:10487000082821D16FF07E402B4600224FF4001112
:104880000090204600F02CFFB0B100BF00BF2168AF
:1048900051E8001F21F08000226842E80001002951
:1048A000F5D100BF2020C4F8880000BF002084F8A4
:1048B000840000BF032038BD2068006800F00400B9
:1048C000042830D16FF07E402B4600224FF4800147
:1048D0000090204600F004FF28B300BF00BF21680D
:1048E00051E8001F21F49070226842E8000100297D
:1048F000F5D100BF00BF00BF2168083151E8001F9B
:1049000021F001002168083141E80002002AF3D1BA
:1049100000BF2020C4F88C0000BF002084F8840071
:1049200000BF0320C7E72020C4F88800C4F88C002B
:104930000020E066206700BF84F8840000BF00BF4D
:10494000B9E770B50446A56B0020A5F85E002846BF
:10495000FFF714F970BD000000BF00BF026852E805
:10496000002F22F49071036843E80012002AF5D169
:1049700000BF00BF00BF0268083252E8002F104B92
:1049800002EA03010268083242E80013002BF2D168
:1049900000BFC16E01290CD100BF00BF026852E800
:1049A000002F22F01001036843E80012002AF5D11D
:1049B00000BF2021C0F88C100021C16641677047FC
:1049C000FEFFFFEF10B5044600BF00BF216851E8AD
:1049D000001F21F04000226842E800010029F5D1C3
:1049E00000BF2020C4F888000020A0672046FFF701
:1049F0003BFC10BD2DE9F0410446B4F86070D4F8DA
:104A00008C0022286ED12068406A86B2A56D06EA25
:104A100007002880A06D801CA065B4F85E00401ED1
:104A2000A4F85E00B4F85E00002861D100BF00BFAA
:104A3000216851E8001F21F49070226842E80001CB
:104A40000029F5D100BF00BF00BF2168083151E83F
:104A5000001F21F001002168083141E80002002A0E
:104A6000F3D100BF2020C4F88C00002060672067CD
:104A700020492068884211D02068406800F4000076
:104A800060B100BF00BF216851E8001F21F08060C5
:104A9000226842E800010029F5D100BFE06E01283C
:104AA0001CD10020E06600BF00BF216851E8001F54
:104AB00021F01000226842E800010029F5D100BF72
:104AC0002068C069C0F3001010B11020216808628E
:104AD000B4F85C102046FFF74DF809E02046FFF7D8
:104AE00075FB05E02068806940F008002168886156
:104AF000BDE8F081000C00582DE9F84F0446B4F8E9
:104B000060B02068C5692068006800902068D0F80F
:104B100008A0D4F88C0022287ED1B4F86890AEE0CA
:104B20002068406A1FFA80F8A76D08EA0B003880F9
:104B3000A06D801CA065B4F85E00401EA4F85E0065
:104B40002068C56905F00700B0B305F0010060B149
:104B5000009800F4807040B1012021680862D4F808
:104B6000900040F00100C4F8900005F0020058B138
:104B70000AF0010040B1022021680862D4F89000D8
:104B800040F00400C4F8900005F0040058B10AF0A9
:104B9000010040B1042021680862D4F8900040F080
:104BA0000200C4F89000D4F8900028B12046FEF727
:104BB000E5FF0020C4F89000B4F85E0000285ED144
:104BC00000BF00BF216851E8001F21F480702268F7
:104BD00042E800010029F5D100BF00BF00BF2168F5
:104BE000083151E8001F414A01EA020021680831FA
:104BF00041E80002002AF2D100BF2020C4F88C0056
:104C00000020606720673A492068884213D02068F6
:104C1000406800F4000000E05FE060B100BF00BF4A
:104C2000216851E8001F21F08060226842E80001FD
:104C30000029F5D100BFE06E01281CD10020E066FC
:104C400000BF00BF216851E8001F21F0100022685A
:104C500042E800010029F5D100BF2068C069C0F317
:104C6000001010B1102021680862B4F85C102046D2
:104C7000FEF780FF02E02046FFF7A8FA07E0B9F14F
:104C8000000F04D005F0200000287FF449AF00BFDA
:104C9000B4F85E6006B3B4F86800B04223DD00BF2C
:104CA00000BF2168083151E8001F21F080502168C1
:104CB000083141E80002002AF3D100BF0D486067C7
:104CC00000BF00BF216851E8001F41F020002268AA
:104CD00042E800010029F5D105E02068806940F034
:104CE000080021688861BDE8F88F0000FEFFFFEF33
:104CF000000C0058F549100870B50446B4F860601F
:104D0000D4F88C0022286FD12068406A85B2F0B2B6
:104D10002840A16D0870A06D401CA065B4F85E002D
:104D2000401EA4F85E00B4F85E00002862D100BF07
:104D300000BF216851E8001F21F49070226842E80A
:104D400000010029F5D100BF00BF00BF2168083174
:104D500051E8001F21F001002168083141E80002FC
:104D6000002AF3D100BF2020C4F88C000020606727
:104D7000206721492068884211D02068406800F4EB
:104D8000000060B100BF00BF216851E8001F21F0A2
:104D90008060226842E800010029F5D100BFE06E82
:104DA00001281CD10020E06600BF00BF216851E847
:104DB000001F21F01000226842E800010029F5D10F
:104DC00000BF2068C069C0F3001010B11020216836
:104DD0000862B4F85C102046FEF7CCFE0AE02046DC
:104DE000FFF7F4F906E0FFE72068806940F008006B
:104DF0002168886170BD0000000C00582DE9F05F4B
:104E00000446B4F860A02068C5692068D0F800B0F6
:104E10002068D0F80890D4F88C0022287ED1B4F80D
:104E20006880ADE02068406A87B20AF0FF00384031
:104E3000A16D0870A06D401CA065B4F85E00401E16
:104E4000A4F85E002068C56905F00700A8B305F066
:104E5000010058B10BF4807040B101202168086254
:104E6000D4F8900040F00100C4F8900005F0020072
:104E700058B109F0010040B1022021680862D4F85D
:104E8000900040F00400C4F8900005F0040058B110
:104E900009F0010040B1042021680862D4F89000B4
:104EA00040F00200C4F89000D4F8900028B12046E9
:104EB000FEF764FE0020C4F89000B4F85E000028FD
:104EC0005ED100BF00BF216851E8001F21F480704F
:104ED000226842E800010029F5D100BF00BF00BFF1
:104EE0002168083151E8001F404A01EA02002168A8
:104EF000083141E80002002AF2D100BF2020C4F8A6
:104F00008C0000206067206739492068884213D0F0
:104F10002068406800F4000070B100E05EE000BF6F
:104F200000BF216851E8001F21F08060226842E83C
:104F300000010029F5D100BFE06E01281CD100203E
:104F4000E06600BF00BF216851E8001F21F010009B
:104F5000226842E800010029F5D100BF2068C0693D
:104F6000C0F3001010B1102021680862B4F85C1082
:104F70002046FEF7FFFD02E02046FFF727F907E095
:104F8000B8F1000F04D005F0200000287FF44AAFEC
:104F900000BFB4F85E6006B3B4F86800B04223DD29
:104FA00000BF00BF2168083151E8001F21F0805088
:104FB0002168083141E80002002AF3D100BF0D4802
:104FC000606700BF00BF216851E8001F41F020006A
:104FD000226842E800010029F5D105E020688069D7
:104FE00040F0080021688861BDE8F09FFEFFFFEFF8
:104FF000000C0058F94C10082DE9F04F89B0054617
:1050000000200890F8492868884200D100E000BFDD
:105010002969A868084369690843E96940EA010801
:1050200028680068F149084040EA080029680860DB
:105030002868406820F44050E968084329684860BF
:10504000D5F81880E8492868884202D0286A40EAE2
:10505000080828688068E649084040EA080029688E
:1050600088602868C06A20F00F00696A08432968D0
:10507000C86200BFDF492868884220D1DE48006846
:1050800000F03800182811D005DC48B1082809D0F4
:10509000102811D108E020280AD028280CD109E0D6
:1050A00001240BE0042409E0082407E0102405E0B3
:1050B000202403E0402401E0802400BFF8E0CF4931
:1050C0002868884219D1CC48006800F007000628FB
:1050D00010D2DFE800F0030507090B0D00240BE0F8
:1050E000042409E0082407E0102405E0202403E05C
:1050F000402401E0802400BFDAE0C14928688842EA
:1051000019D1BD48006800F00700062810D2DFE87A
:1051100000F0030507090B0D00240BE0042409E04F
:10512000082407E0102405E0202403E0402401E0E7
:10513000802400BFBCE0B3492868884219D1AE483A
:10514000006800F00700062810D2DFE800F0030531
:1051500007090B0D00240BE0042409E0082407E0F4
:10516000102405E0202403E0402401E0802400BF57
:105170009EE0A5492868884219D19F48006800F040
:105180000700062810D2DFE800F0030507090B0D21
:1051900000240BE0042409E0082407E0102405E0C3
:1051A000202403E0402401E0802400BF80E09749F0
:1051B0002868884220D19048006800F038001828FC
:1051C00011D005DC48B1082809D0102811D108E019
:1051D00020280AD028280CD109E001240BE004245F
:1051E00009E0082407E0102405E0202403E040241F
:1051F00001E0802400BF5BE085492868884219D11E
:105200007D48006800F00700062810D2DFE800F0B3
:10521000030507090B0D00240BE0042409E0082412
:1052200007E0102405E0202403E0402401E080246E
:1052300000BF3DE077492868884219D16E48006870
:1052400000F00700062810D2DFE800F00305070988
:105250000B0D00240BE0042409E0082407E01024CF
:1052600005E0202403E0402401E0802400BF1FE08B
:105270005D49286888421AD15F48001D006800F027
:105280000700062810D2DFE800F0030507090B0D20
:1052900002240BE0042409E0082407E0102405E0C0
:1052A000202403E0402401E0802400BF00E08024AB
:1052B00000BF4D49286888427DD1102C1AD006DCE9
:1052C000022C09D0042C0BD0082C29D10DE0202C65
:1052D00021D0402C24D120E0FDF78CF8064623E0B5
:1052E00005A8FDF799F8069E1EE002A8FDF7ACF9A7
:1052F000039E19E0404854380068C0F3401040B1A4
:105300003D4854380068C0F3C101434820FA01F613
:1053100000E0414E08E0414E06E04FF4004603E055
:1053200000260120089000BF00BF002E10D03C498D
:10533000686A31F81000B6FBF0F9686800EB4000CD
:10534000484503D868680003484502D20120089008
:1053500003E13349686A31F810C0624600233046E1
:105360001946FBF732F84FF4807300228446ACFBF9
:10537000030B01FB03B10CFB021C696849080346DF
:1053800059184CEB0200CDE90010D5F804C0624674
:10539000002308460199FBF718F80746B7F5407F48
:1053A00006D3B7F5801F03D22868C760D5E002E0B6
:1053B00001200890D1E0E869B0F5004F7BD1082CBE
:1053C00039D005DC5CB1012C2CD0042C4CD12DE063
:1053D000102C35D0202C42D0402C45D141E0FEF796
:1053E00051F9064644E00000000C0058F369FFCF75
:1053F000FFF4FF11001001405444025800440040E3
:1054000000480040004C00400050004000140140A3
:1054100000780040007C00400090D00300093D006F
:1054200032781008FEF740F9064621E005A8FCF79F
:10543000F3FF069E1CE002A8FDF706F9039E17E0A5
:105440004C480068C0F3401038B14A480068C0F3C7
:10545000C101494820FA01F600E0474E08E0474EF6
:1054600006E04FF4004603E000260120089000BF4C
:1054700000BFFEB14249686A31F81000B6FBF0F097
:105480004000696800EB5100B0FBF1F7102F0FD31B
:10549000B7F5803F0CD24FF6F07007EA000AC7F369
:1054A00042004AEA000A2868C0F80CA055E002E071
:1054B0000120089051E0082C1AD005DC5CB1012CC9
:1054C0000DD0042C2DD10EE0102C16D0202C23D082
:1054D000402C26D122E0FEF7D5F8064625E0FEF75F
:1054E000E3F8064621E005A8FCF796FF069E1CE0BF
:1054F00002A8FDF7A9F8039E17E01E480068C0F354
:10550000401038B11B480068C0F3C1011A4820FAA6
:1055100001F600E0184E08E0184E06E04FF4004691
:1055200003E000260120089000BF00BFAEB114497F
:10553000686A31F81000B6FBF0F0696800EB5100C2
:10554000B0FBF1F7102F06D3B7F5803F03D2B8B206
:105550002968C86001E0012008900120A5F86A00D0
:10556000A5F8680000206867A867089809B0BDE83A
:10557000F08F0000004402580090D00300093D0065
:105580003278100830B503469965A3F85C20A3F87B
:105590005E200020586700BF9868B0F5805F0AD190
:1055A000186920B940F2FF10A3F8600020E0FF2046
:1055B000A3F860001CE0986848B9186918B9FF2082
:1055C000A3F8600014E07F20A3F8600010E0986862
:1055D000B0F1805F09D1186918B97F20A3F8600085
:1055E00006E03F20A3F8600002E00020A3F860007E
:1055F00000BF0020C3F890002220C3F88C0000BF39
:1056000000BF1C68083454E8004F44F001001C68D7
:10561000083444E80005002DF3D100BF586EB0F106
:10562000005F2CD1B3F86800904228DC9868B0F590
:10563000805F04D1186910B92548586701E02548F2
:105640005867186960B100BF00BF1C6854E8004F7C
:1056500044F480701D6845E80004002CF5D100BFBB
:1056600000BF00BF1C68083454E8004F44F080506D
:105670001C68083444E80005002DF3D126E0986842
:10568000B0F5805F04D1186910B91348586701E07C
:1056900012485867186960B100BF00BF1C6854E821
:1056A000004F44F490701D6845E80004002CF5D1CB
:1056B0000CE000BF00BF1C6854E8004F44F020001D
:1056C0001D6845E80004002CF5D100BF002030BD66
:1056D000F94A1008FD4D1008F5491008F94C10085A
:1056E0002DE9F04104460D4617469846069E41E0D6
:1056F000701C00283ED0FCF7A7FAA0EB0800B042CF
:1057000000D816B90320BDE8F0812068006800F0D9
:10571000040070B3802D2DD0402D2BD02068C0699F
:10572000C0F3C00078B10820216808622046FFF766
:1057300013F90820C4F8900000BF002084F884000A
:1057400000BF0120DFE72068C069C0F3C02080B13E
:105750004FF40060216808622046FFF7FDF8202022
:10576000C4F8900000BF002084F8840000BF03202C
:10577000C9E7FFE72068C0692840A84201D101209D
:1057800000E00020B842B3D00020BCE710B50248CA
:10579000FEF7F6F910BD0000A404001000BFFEE7FC
:1057A00002480068C0F30220704700000CED00E0E2
:1057B00010B5002804DB0A07130E054A135406E04F
:1057C0000A07140E034A00F00F031B1FD45410BD28
:1057D00000E400E018ED00E000BF704701490860F8
:1057E000704700000C00001010B504464FF47A71A9
:1057F00004FB01F000F002F810BD000070B5034694
:1058000000224FF0E02675690D4E366803FB06F462
:105810004FF0E026B16910E04FF0E026B069884211
:105820000BD0884202D20E1A324402E02E1A0E44E5
:1058300032440146A24200D300E0EDE700BF70BD54
:105840000C00001070B52DED0C8BA0B000BF71489E
:10585000006840F010006F4908600846006800F0DA
:105860001000019000BF00BF6A485838006840F03F
:1058700010006849583908600846006820F0100098
:1058800008604FF0A040644908600020486004218F
:10589000614881600121C1601C201D9001201E9083
:1058A00000201F901DA95C48FBF706FE20B10120D7
:1058B00020B0BDEC0C8B70BD40F23736574C584DC4
:1058C0000020029003900490022005904FF4347061
:1058D00006900020079040F6FF7008900420099081
:1058E00002200A9000200B90284601F084FE41EC33
:1058F000180B204601F07FFE41EC1C0B9FED490B7D
:1059000053EC102B01F0F2FC41EC1B0B53EC182B69
:1059100001F0ECFC41EC1A0B9FED420B53EC102B09
:1059200001F07CFE41EC190B01F038FE80B20C90C6
:10593000284601F060FE41EC1B0B204601F05BFEA7
:1059400041EC1C0B9FED370B53EC102B01F0CEFC00
:1059500041EC190B53EC1B2B01F0C8FC41EC180B6C
:105960009FED320B53EC102B01F058FE41EC1A0B5B
:1059700001F014FE80B20D90284601F03CFE41EC8F
:105980001B0B204601F037FE41EC1D0B9FED250B54
:1059900053EC102B01F0AAFC41EC1C0B53EC1B2B1D
:1059A00001F0A4FC41EC190B304601F024FE41EC5F
:1059B0001A0B53EC192B01F031FE41EC180B01F0DE
:1059C000EDFD80B20E9005200F900F20109010205A
:1059D00011904FF4A06012904FF4004013900420F7
:1059E00014901590C0021690401017904010189017
:1059F0004010199040101A9040101B9000201C90ED
:105A000002A90548FBF7EFFB08B1012050E7002091
:105A10004EE70000E4440258A00600100027B92910
:105A200000879303000000000000204000000000F9
:105A300000004A4000B589B00020029000BF00BFBE
:105A40005948006840F0020057490860084600685D
:105A500000F00200019000BF00BF00BF00BF00BF08
:105A60000846006840F0800008600846006800F0C2
:105A70008000019000BF00BF00BF0120049005908E
:105A800006900320079004A94848FBF7C5FF202093
:105A9000049004A94648FBF7BFFF00BF0122202164
:105AA0004348FCF7BFF800BF1420FFF79DFE00BF7E
:105AB000002220213E48FCF7B5F800BF3220FFF756
:105AC00093FE00BF012220213948FCF7ABF800BF4C
:105AD000C820FFF789FE00BF002201213348FCF7F0
