:020000040800F2
:10000000A00B002465030008790300087B030008A7
:10001000111600087F03000881030008000000009B
:100020000000000000000000000000008303000842
:10003000850300080000000087030008890300080A
:100040008B0300088B0300088B0300088B03000858
:100050008B0300088B0300088B0300088B03000848
:100060008B0300088B0300088B0300088B03000838
:100070008B0300088B0300088B0300088B03000828
:100080008B0300088B0300088B0300088B03000818
:100090008B0300088B0300088B0300088B03000808
:1000A0008B0300088B0300088B0300088B030008F8
:1000B0008B0300088B0300088B0300088B030008E8
:1000C0008B0300088B0300088B0300088B030008D8
:1000D0008B030008ED1600088B0300088B03000853
:1000E0008B0300088B030008000000008B0300084E
:1000F0008B0300088B0300088B0300088B030008A8
:100100008B0300088B0300088B0300088B03000897
:100110008B0300088B0300088B0300088B03000887
:100120008B0300088B0300088B0300088B03000877
:100130008B0300088B0300088B0300088B03000867
:100140008B0300088B030008000000000000000083
:100150008B0300088B0300088B0300088B03000847
:100160008B0300088B0300088B0300088B03000837
:100170008B0300088B0300088B03000800000000BD
:100180008B0300088B0300088B0300088B03000817
:100190008B0300088B0300088B0300088B03000807
:1001A0008B0300088B0300088B0300088B030008F7
:1001B0008B0300088B0300088B0300088B030008E7
:1001C0008B0300088B0300088B0300088B030008D7
:1001D0008B0300088B0300088B0300088B030008C7
:1001E0008B0300088B0300088B0300088B030008B7
:1001F0008B0300088B0300088B0300088B030008A7
:100200008B0300088B0300088B0300088B03000896
:100210008B0300088B0300088B0300088B03000886
:100220008B0300088B0300088B0300088B03000876
:100230008B0300088B0300088B0300088B03000866
:100240008B0300088B0300088B0300088B03000856
:100250008B0300088B0300088B0300088B03000846
:100260008B0300088B0300088B0300088B03000836
:100270008B0300088B0300088B0300088B03000826
:100280008B0300088B0300088B03000800000000AC
:100290008B0300088B03000800F002F800F052F80E
:1002A0000AA090E8000C82448344AAF10107DA45D1
:1002B00001D100F047F8AFF2090EBAE80F0013F0D1
:1002C000010F18BFFB1A43F0010318470C8400000C
:1002D0002C840000103A24BF78C878C1FAD852079D
:1002E00024BF30C830C144BF04680C6070470000B0
:1002F0000023002400250026103A28BF78C1FBD82F
:10030000520728BF30C148BF0B607047662905F00F
:100310005681642900F09880782900F0D1807329F3
:1003200000F06584002070471FB505F043F900F028
:1003300075FC04000020002105F026F9E0601FBDD7
:1003400010B510BD00F06EFD1146FFF7EDFF03F094
:1003500023FB00F08CFD03B4FFF7F2FF03BC01F0B8
:100360002AFA0000DFF83000016841F470010160F2
:10037000BFF34F8F09480047FEE7FEE7FEE7FEE7C1
:10038000FEE7FEE7FEE7FEE7FEE7FEE70448054975
:10039000054A064B7047000088ED00E0990200080E
:1003A000A0010024A00B0024A0030024A00300242B
:1003B000704700000FB4044910B503AA029800F07A
:1003C0001BFC10BC5DF814FB040000240FB41CB52A
:1003D000074B06AA7B4469460090059800F0DDFBB8
:1003E0000020694600F0ECFB1CBC5DF814FB00002B
:1003F000E907000070B50C460546012A05D02878AB
:10040000800600D5EA69002302E0012305E05B1CB9
:10041000934202D2E05C0028F9D1A869E618C01A1C
:10042000A861286A184428622846AFF3008004E0D7
:10043000D5E9012114F8010B9047B442F8D32846BE
:10044000AFF3008070BD00002DE9F04106460024A6
:1004500010687529314616A510D0AFF3008000282A
:1004600002DA404213A507E031688A0701D512A5D8
:1004700002E0490704D511A5012401E0AFF3008093
:1004800000210A2206F1240709E0B0FBF2FCB0FBD0
:10049000F2F302FB1C00303078541846491C002847
:1004A000F3D123462A463046BDE8F04100F008B9B2
:1004B000000000002D0000002B00000020000000C4
:1004C00070B504460D4621461068AFF300802188C0
:1004D000090502D50F4A7A4402E00E4A7A440E32E8
:1004E000002104F1240305E000F00F060009965DE9
:1004F0005E54491C0028F7D120780023000704D55A
:10050000702D02D009B1022311322046BDE870409F
:1005100000F0D6B8B48000002DE9F05F89460446AB
:100520004FF0000ADFF824B1FB44C0F820A02046B9
:10053000E168884700287DD0252806D0D4E901212C
:100540009047206A401C2062F1E700255F46204664
:10055000E16888472028064607DB312E05D2B81906
:1005600010F8200C08B10543F1E7A80701D525F0E4
:100570000405C4F81CA00027C4F818A02A2E09D02E
:10058000304601F011F938B304EB8708303EC8F863
:10059000186019E059F8041B204604EB87029161AA
:1005A000E1688847012F064618D1E069002820DA63
:1005B00025F020051DE0D8F8180000EB800006EBC0
:1005C00040003038C8F818002046E16888470646E1
:1005D00001F0EAF80028EED1012F0AD02E2E08D122
:1005E0002046E16888477F1C0646022F45F020051B
:1005F000C4DBA069002803DA404245F00105A06190
:10060000E80701D025F01005A6B1A6F14100192890
:1006100002D8203645F400654A463146204625601A
:100620004D46FFF773FE60B1012807D0ED1D25F0A0
:10063000070000E007E000F1080978E705F1040988
:1006400075E730467AE7206ABDE8F09F8A800000AF
:100650004FF0013C50F8042B51F8043B9A4215D15D
:10066000A2EB0C03934313EACC130BD150F8042BE9
:1006700051F8043B9A4209D1A2EB0C03934313EACD
:10068000CC13E7D04FF00000704700BFD01A01BA7A
:10069000B1FA81F101F0180122FA01F0CB40C1F169
:1006A0002001DBB2C0B2C01A2CFA01F3D11A914377
:1006B00011EAC311E6D17047704770477047704721
:1006C0002DE9F0470D4699469246044600F124086C
:1006D0000168880604D5E06921F01001216000E07E
:1006E0000120A84201DD471B00E00027A1697A191B
:1006F00002EB0900081AA0612078C00602D4204647
:10070000AFF30080002608E0D4E901211AF80600C2
:100710009047206A401C761C20624E45F4DB20780E
:10072000C0060AD52046AFF3008006E0D4E90121D7
:1007300030209047206A401C2062381EA7F1010734
:10074000F4DC07E0D4E9012118F805009047206A9D
:10075000401C2062281EA5F10105F3DC2046AFF302
:1007600000802078000602D50220BDE8F087012035
:10077000FBE770472DE9FF4F0C461E464FF0FF3751
:100780008BB0D2E90001DDF860800A908A46C1F39F
:100790000A5505B93D46002108464FF00000BAF160
:1007A000000F00F4400005DA00EB80004FF4400138
:1007B00001EA50004FEA9059B9F1010F00DDB94646
:1007C0000A9850EA4A000ED044F61050A5F2FF35C0
:1007D00045432F14B8F1000F1ED07542291E1EDDAF
:1007E000C9F100021CE0B8F1010F4FF0000001D088
:1007F000302103E0F24305E02154401CB042FBDB12
:1008000030460022002121540B99C1F80880C1E92B
:1008100000200FB0BDE8F08FBD1B6D1CDEE74A461F
:1008200000DA694206A800F083FA06AB93E80700F5
:1008300003AB83E8070050460A9900F021FB8DE8DE
:100840000700A0F500501F3800900398002D0ADD26
:1008500042F21F014A460844002303A90390684658
:1008600000F08AFD09E0A0F500504A461F38002339
:1008700003A90390684600F094FD8DE8070000048A
:10088000000C03D04FF0FF30410800E01046B8F1F3
:10089000000F03D00022009215461EE0751E05D4FD
:1008A00000F0C0F9303262556D1EF9D5B346012211
:1008B000084302D000227F1C04E02078302801D1B8
:1008C00000227F1E002A099784D01DE0112D07DA2F
:1008D00000F0A8F9303262556D1C50EA0102F5D1E2
:1008E000084302D00098C8B10EE00021681E05E060
:1008F000235C625C63542254401E491C8142F7DB36
:10090000AB46A81B401E0990002004F80B000B9872
:10091000099AC0F80880C0E9002B7AE711264FF049
:10092000000857E72DE9F04F88460446D21D22F013
:10093000070191B0D1E90001CDE90A0100F01CFFE7
:1009400002460B98C00F01D02D2007E020688107D8
:1009500001D52B2002E0202101EAC000032A0990E2
:1009600001D0072A05DB03464146204600F0A0F9E6
:100970000BE12078800601D5E06900E00620B8F19F
:10098000650F814606D0B8F1660F18D0B8F1670F31
:1009900070D131E00020B9F1110F009001DB11237B
:1009A00001E009F101030AAA01A90CA8FFF7E2FE80
:1009B000DDE90C70002609F10105834647E00120BE
:1009C0004B4600904FF000470AAA01A90CA8FFF778
:1009D000D1FEDDE90DB00C995D46002610B909F194
:1009E00001000D18B9EB050003D4C0F1FF3609F181
:1009F0000105A5EB09002BE0B9F1010F01DA4FF079
:100A000001090020B9F1110F0090484601DD1123C2
:100A100000E003460AAA01A90CA8FFF7ABFEDDE936
:100A20000C704D4600268346207800070AD4AB455B
:100A300000DA5D4601A8012D04DD411911F8011C01
:100A4000302907D04F4502DA17F1040F04DA0120EC
:100A500082460FE06D1EEEE7002F02DCED1B3E44E8
:100A600003E0781CA84200DD7D1CB81B00F1010AE0
:100A70004FF000472078000703D4AA4501DB4FF070
:100A8000FF3A0021B7F1004F0DF143088DF84310F4
:100A900024D002202B23002F01DA7F422D230A21AC
:100AA000021EA0F1010000DC5FB197FBF1FC97FB97
:100AB000F1F201FB1C7C17460CF1300C08F801CD5B
:100AC000EEE7A8F1010003702188090501D5452151
:100AD00000E06521A0F1010800F8011C09980FA9A8
:100AE000A1EB0807FF1D00B10120411901EBEA70DD
:100AF000A1693844081A401EA0612078C00602D4BB
:100B00002046AFF30080099828B1D4E9012190472D
:100B1000206A401C20622078C00622D52046AFF310
:100B200000801EE0002E04DBB34502DD01A8805DDD
:100B300000E03020D4E901219047206A401C206267
:100B4000761CAAF101005FEA000A0AD100F066F8FB
:100B5000C0680168405CD4E901219047206A401CCC
:100B60002062281EA5F10105DCDC07E0D4E90121A3
:100B700018F8010B9047206A401C2062381EA7F12C
:100B80000107F3DC2046AFF30080032011B041E6FB
:100B900001694A1C02610878704700B58FB0CDE941
:100BA00001310021059105497944CDE90310114631
:100BB0006846FFF7B1FC0FB000BD0000E5FFFFFF86
:100BC0000A6802F8010B0A60704710B5436913B157
:100BD000AFF3008001E0FFF70DFC012010BD12789B
:100BE00000F124010A7000224A700122EDE7116829
:100BF0004FF0FF32E9E70000074B70B50D467B442C
:100C0000FFF7CBFF0446284600F004F910B14FF07F
:100C1000FF3070BD204670BD0311000000487047D2
:100C20005C01002430B5B0F10A024FEA900E71F178
:100C300000034EEA817EB0EB0E0061EB91014FEABA
:100C4000101E4EEA017E10EB0E0041EB11114FEA2F
:100C5000102E4EEA016E10EB0E0041EB11214FEA0F
:100C6000104E4EEA014E10EB0E0041EB11414018C0
:100C700041F100014FEAD00040EA41704FEAD10152
:100C800010EB80054FEA810444EA907444EB0104C0
:100C90006D1944EB0404521BA3414FF0000348BFFD
:100CA0000A3200D530BD401C41F1000130BD0000CA
:100CB0002DE9F0411F46044603260168072A01F486
:100CC000006004DB08B116A505E016A503E008B135
:100CD00015A500E015A521F010002060A069C01E38
:100CE000A0610FB1401EA0612046AFF300804FB15C
:100CF000D4E9012138469047206A401C2062C01C7C
:100D0000206206E0206AFAE7D4E9012115F8010B18
:100D10009047761EF8D22046AFF30080BDE8F08100
:100D20004E414E006E616E00494E4600696E66008F
:100D30002DE9F047814616468AB0354878440DC8FB
:100D40008DE80D0032487844801C03AC0DC884E85F
:100D50000D0041F69B300844372190FBF1F290FBE7
:100D6000F1F5A5F1800501FB12041B3C02D564429C
:100D7000012000E00020DFF898A080460027FA4418
:100D8000AAF1BE0A0EE0E0070AD03246684607EB39
:100D9000470101230AEB810100F003FB8DE8070006
:100DA00064107F1C002CEED1194F7F44AE3F19E038
:100DB000E80715D007EB04100DF1180A90E80E00B3
:100DC0008AE80E00C068F04201D1981908903246B6
:100DD000012306A903A800F0E4FA03AB83E80700A7
:100DE0006D10641C002DE3D14FF0010332466946BB
:100DF000B8F1000F03A802D000F0BEFA01E000F045
:100E0000D0FAC9E90001C9F808200AB0BDE8F087A6
:100E100004790000007B00F08000704700487047B4
:100E20003C0100247546FFF7F9FFAE460500694610
:100E3000534620F00700854618B020B5FFF7A6FA04
:100E4000BDE820404FF000064FF000074FF00008CB
:100E50004FF0000B21F00701AC46ACE8C009ACE84C
:100E6000C009ACE8C009ACE8C0098D46704710B5B0
:100E70000446AFF300802046BDE81040FFF76BBA90
:100E80005FEA400C08BF91F0000F4FEA8C234FEA55
:100E9000C12243EA51514FEA1C5018BF00F5F040FF
:100EA0004FEA300018BF41F000415FEA6C5C00F08F
:100EB0002980BCF1FF3F08BF40F080407047130C11
:100EC00006BF12044FF0100C4FF0000C130E04BFBD
:100ED00012020CF1080C130F04BF12010CF1040CE8
:100EE000930F04BF92000CF1020CD30F04BF520009
:100EF0000CF1010C11464FF00002A0F11F00A0EB15
:100F00000C00704711F0004F08BF704731F00041EE
:100F10003FF4D5AF0B0C06BF09044FF0100C4FF097
:100F2000000C0B0E04BF09020CF1080C0B0F04BFE0
:100F300009010CF1040C8B0F04BF89000CF1020CA9
:100F4000CB0F04BF49000CF1010CCCF12003A0EB46
:100F50000C0022FA03F302FA0CF241EA030100F159
:100F60000100704720F07F4C80EA030023F07F47A8
:100F7000ACEB070303F57C5300F0004003F1FF03E3
:100F80002DE980494FEA154B09B44FEA144325EA8D
:100F90000B4E24EA03480FF2042606EB13274908F8
:100FA0003E785FEA320203FB0667C7F5000707FBDE
:100FB00006F64FEA54374FEAD64606F1020607FB1B
:100FC000066CCCF1005C4FEA1C472CEA074C07FB8F
:100FD00006F40CFB06F504EB15464FEA961634BFF3
:100FE00000204FF000404FEAD13706FB07FC4FEAE4
:100FF0001C4C0CFB0BF7D21B03FB0CF761EB07013E
:101000000CFB0EF7B0EB074072EB17420CFB08F736
:1010100034BFA2EB0742B2EB074261EB17414FEA44
:101020000C444FEA910706FB07FC4FEA1C4C0CFBF3
:101030000BF7B0EBC74072EB573203FB0CF734BF32
:10104000A2EBC742B2EBC74261EB57310CFB0EF784
:10105000B0EBC70072EB57720CFB08F734BFA2EB82
:10106000C702B2EBC70261EB5771039F4FEA816180
:1010700041EA921104EBCC044FEAD1374FEA826285
:1010800006FB07FC42EA90124FEA80604FEA1C4CD4
:101090000CFB0BF7D21B03FB0CF761EB07010CFBFE
:1010A0000EF7B0EB074072EB17420CFB08F734BFAA
:1010B000A2EB0742B2EB074261EB17414FEA8C55B6
:1010C0004FEA910704EB9C2406FB07FC4FEA1C4CFB
:1010D0000CFB0BF7B0EBC74072EB573203FB0CF77E
:1010E00034BFA2EBC742B2EBC74261EB57310CFBF6
:1010F0000EF7B0EBC70072EB57720CFB08F734BF6A
:10110000A2EBC702B2EBC70261EB577115EB4C259E
:101110004FEA816141EA92114FEA82624FEAD13788
:1011200042EA901206FB07FC44F100044FEA80609B
:101130004FEA1C4C0CFB0BF7D21B03FB0CF761EBCB
:1011400007010CFB0EF7B0EB074072EB17420CFBEC
:1011500008F734BFA2EB0742B2EB074261EB17413D
:1011600015EB1C154FEA813141EA92414FEA823278
:1011700042EA90424FEA80304FEA0C7644F1000494
:1011800048EA03434EEA0B484FF0000EB2EB080C5E
:1011900071EB030724BF624639464EEB0E0E4FF04B
:1011A000000B0018524149414BEB0B0BB2EB080C02
:1011B00071EB03077BF1000B24BF624639464EEB0F
:1011C0000E0E4FF0000B0018524149414BEB0B0B38
:1011D000B2EB080C71EB03077BF1000B24BF6246F6
:1011E00039464EEB0E0E51EA020718BF46F00106D3
:1011F00016EB0E7655F1000254F1000103D5BDE85F
:101200008901BDE80088BDE88901BDE80048B6193C
:10121000524141EB0101A3F10103704780807F7EC1
:101220007D7C7B7A7978777676757473727171705C
:101230006F6E6E6D6C6C6B6A6A696868676666650E
:101240006464636362616160605F5F5E5E5D5D5C9C
:101250005C5B5B5A5A59595858575756565555550D
:101260005454535352525251515050504F4F4F4E6D
:101270004E4D4D4D4C4C4C4B4B4B4A4A4A494949BB
:1012800048484847474747464646454545444444FD
:10129000444343434342424242414141002B9C4626
:1012A00030D477002BD01CB54FEA370703B44FF08A
:1012B00010004FF01001BAF1000F06D0BCF1000F82
:1012C000DCBF40F0080040F008014FF000000FBC08
:1012D000BDE810400BF1010BBBF1010F08BF5FEA45
:1012E000170722BF12F1010211F101014FF0004175
:1012F00043F1000300F0004043EA00007047F9D3D7
:101300005708D0E746EA064613F1400F4FEA164663
:101310001FDD13F1200FDFBF16430A4600212033E3
:101320005B42BED0C3F1200746EA064602FA07F741
:101330004FEA164646EA0706C3F1200722FA03F2EF
:1013400001FA07F721FA03F14FF0000342EA07021E
:10135000A7E746EA020646EA06464FEA164646EA86
:101360000106BCBF46EA0646360C4FF000034FF0BC
:1013700000024FF0000194E72DE9804C9A46934615
:1013800070B491E8380007C831EA400C48BF34EA2D
:10139000430C03D5FFF7E6FDFFF780FFF0BCBDE887
:1013A000008C2DE9804C9A46934670B491E8380041
:1013B00007C810F0804F08BF13F0804F03D100F032
:1013C00005F8FFF76BFFF0BCBDE8008C20F07F470D
:1013D00080EA030023F07F4C07EB0C03A3F57C535A
:1013E00000F00040A3F1FE0392F0000F00F0B38084
:1013F00095F0000F00F077802DE901494FEA114088
:101400004FEA144621EA004800FB06FC24EA06479E
:1014100008FB06F607FB08F800FB07F718EB064881
:101420004CEB164C4FEA124B18EB07484FEA1546A7
:101430004CEB174022EA0B4E0BFB06FC25EA064755
:101440000EFB06F607FB0EFE0BFB07F71EEB064E28
:101450004CEB164C4FF000061EEB074E4CEB174BB7
:1014600018EB0B0840F1000018EB0E0B58EB0008CE
:1014700040F100008F1A4FF000013CBFC943661BCA
:1014800014BFB5EB040C00213CBFC943F61B4FEA67
:1014900017444EEA8E0E27EA04454FEA1C4704FB28
:1014A00007622CEA074C05FB07F70CFB05F604FB6B
:1014B0000CFC16EB074642EB174216EB0C4642EBD0
:1014C0001C421BEB060658EB0202414146EA9E060F
:1014D00001D5BDE80189B619524141EB0101A3F1E3
:1014E0000103BDE801894FEA14454FEA114724EA98
:1014F000054621EA074C05FB07F406FB07F70CFB42
:1015000006F105FB0CFC11EB074144EB17444FEAD5
:10151000124711EB0C4144EB1C4422EA074C05FB3B
:1015200007F206FB07F70CFB06F605FB0CFC16EBB7
:10153000074642EB174216EB0C4642EB1C456A1875
:1015400054F1000148BF7047B619524141EB010107
:10155000A3F10103704795F0000F37D04FEA114215
:101560004FEA144721EA024624EA074C02FB07F13E
:1015700006FB07F70CFB06F402FB0CFC14EB07441C
:1015800041EB17414FEA154714EB0C4441EB1C416A
:1015900025EA074C02FB07F506FB07F70CFB06F6EE
:1015A00002FB0CFC16EB074645EB174516EB0C4609
:1015B00045EB1C42121951F1000148BF7047B619A2
:1015C000524141EB0101A3F1010370474FEA144579
:1015D0004FEA114724EA054621EA074C05FB07F1CB
:1015E00006FB07F70CFB06F24FF0000605FB0CFCB0
:1015F00012EB074241EB174112EB0C4251EB1C413D
:1016000048BF7047921841EB0101A3F101037047F5
:1016100010B5002202210A4803F0B4F809A0FEF731
:10162000C9FE4FF47A7000F019FB0CA0FEF7C2FE61
:101630004FF47A7000F012FB03F060F910BD000067
:10164000000402584D656D20416363657373204546
:1016500072726F7221210D0A00000000536F6674D0
:10166000205265736574696E672E2E2E0D0A000078
:1016700010B5044600221021084803F083F8002228
:101680000821074803F07EF8204602F029FB0122DA
:101690001021024803F076F810BD00000010025837
:1016A0000008025810B5044600221021084803F033
:1016B00069F801220821074803F064F8204602F087
:1016C0000FFB01221021024803F05CF810BD00005E
:1016D000001002580008025810B504462012FFF707
:1016E000E1FFE0B2FFF7DEFF10BD00001F49C9694E
:1016F00001F0200109B31D49496AC8B21C49098893
:1017000001F40041C9B91A49098801F4804161B165
:101710000A2803D00021164A118020E014490988C4
:1017200041F40041124A118019E00D2806D11049F8
:10173000098841F480410E4A118010E00C49098863
:10174000C1F30D010B4A505409490988491C084A44
:10175000118011460988C72901DD00211180034944
:10176000096A41F00801014A116270470010014006
:10177000080000246400002403B40198410000988C
:1017800050EAC12018BF04204A0D18BF40F00100E4
:1017900040F2FF72B2EB515F08BF40F00200012837
:1017A00008BF052002B0704730380A2801D2012056
:1017B00070470020704700BF704710B500F00EFF63
:1017C00010BD70B505460C46164606E028466A1C54
:1017D00095B200F008F804F8010B301EA6F10101E3
:1017E0008EB2F3D170BD70B50446002600F08EFFB6
:1017F0002112A02202EB4101C8B200F05FFF00F00D
:10180000BFFF2546E11704EB11610912A4EB01218A
:10181000C8B200F053FF00F0B3FF00F077FFA12043
:1018200000F04CFF00F0ACFF002000F01BFF06466C
:1018300000F08CFF304670BD70B505460C4616466C
:1018400006E02178284600F009F8681C85B2641C7F
:10185000301EA6F101018EB2F3D170BD70B5044601
:101860000E4600F053FF2112A02202EB4101C8B244
:1018700000F024FF00F084FF2546E11704EB11611E
:101880000912A4EB0121C8B200F018FF00F078FFA4
:10189000304600F013FF00F073FF00F057FF0A20FE
:1018A00000F0DCF970BD000010B500224FF40061BB
:1018B0000D4802F067FF00F019F8012291020A4872
:1018C00002F060FF00F012F800224FF48061064839
:1018D00002F058FF00F00AF80122D102024802F09B
:1018E00051FF00F003F810BD0004025810B50220AB
:1018F00000F0BEF910BD00001CB500BF1148006823
:1019000040F002000F49086000BF00BF08460068B1
:1019100040F00200086000BF012000900023024652
:1019200081020190084802F039FF0120009003462F
:101930000246C1020190044802F030FF00F094F822
:101940001CBD0000E04402580004025810B50122FA
:10195000D1020A4802F016FFFFF7C8FF01229102E8
:10196000064802F00FFFFFF7C1FF00224FF480612D
:10197000024802F007FFFFF7B9FF10BD000402584C
:1019800070B50546002400261AE06006040E012208
:101990009102104802F0F6FEFFF7A8FF4FF4006135
:1019A0000C4802F0E7FE08B1601CC4B200224FF4FC
:1019B0008061084802F0E6FEFFF798FF701CC6B28F
:1019C000082EE2DB15B9FFF7C1FF01E0FFF76CFF5E
:1019D000204670BD0004025870B50446002518E08A
:1019E000E2094FF400610F4802F0CCFEFFF77EFFE2
:1019F000012291020B4802F0C5FEFFF777FF00229B
:101A00004FF48061074802F0BDFE6006040E681CBA
:101A1000C5B2082DE4DB0122D102024802F0B2FE79
:101A200070BD00000004025810B50122D1020D481B
:101A300002F0A8FE012291020A4802F0A3FEFFF77D
:101A400055FF00224FF40061064802F09BFEFFF7AD
:101A50004DFF00224FF48061024802F093FEFFF731
:101A600045FF10BD0004025810B500224FF400617C
:101A7000094802F087FEFFF739FF0122910206486C
:101A800002F080FEFFF732FF0122D102024802F08D
:101A900079FEFFF72BFF10BD0004025870B500243B
:101AA00000250122D102144802F06CFEFFF71EFF50
:101AB00001229102104802F065FEFFF717FF09E0CE
:101AC000601CC4B2FA2C03DDFFF7CEFF012508E04D
:101AD000FFF70CFF4FF40061074802F04BFE0028AF
:101AE000EED100BF00224FF48061034802F04AFEAD
:101AF000FFF7FCFE284670BD000402588CB000249D
:101B0000002505264648808841F21801884200D108
:101B10000A2683E04348416800208847002468E0A3
:101B20004048808E0121A140084000285AD03D48FD
:101B30000C3030F814003A490988884257DA39489D
:101B4000203030F814003649498888424FDA02A81C
:101B500030F824004FF6FF7188420DD131480C3027
:101B600030F8140002A921F824002E48203030F863
:101B7000140001EB840148802B4850F82400022116
:101B8000284F2037CDE9001037F81430143F37F8CC
:101B9000142002AF07EB8407798802AF37F82400DE
:101BA00000F030FF1F480C3030F8140002A921F873
:101BB00024001C48203030F8140001EB84014880D8
:101BC00018480C3030F81410154800881838814235
:101BD0000DDD1448203030F81400142807DA01F025
:101BE000C1FE04E04FF6FF7002A921F82400601C3A
:101BF000C4B2B44294DB052000F030F8681CC5B2D2
:101C0000142095FBF0F100FB115038B900BF0748D4
:101C1000406980F008000549486100BF7AE700008C
:101C20002C01002418000024C455000800000258AC
:101C30004FF0E021096941F004014FF0E022116109
:101C4000054908601146096941F0010111616FF011
:101C50007F415161704700000000002410B5044628
:101C60004FF47A7104FB01F000F002F810BD00009F
:101C700070B5034600224FF0E02675690D4E3668B8
:101C800003FB06F44FF0E026B16910E04FF0E026C8
:101C9000B06988420BD0884202D20E1A324402E068
:101CA0002E1A0E4432440146A24200D300E0EDE772
:101CB00000BF70BD000000241CB5012003210023DB
:101CC0000246CDE9001004210D4802F067FD002214
:101CD00004210B4802F056FD0120FFF7C9FF012245
:101CE0000421074802F04EFD0120032100230222B7
:101CF000CDE900100421024802F050FD1CBD000097
:101D00000010025800BF054AD26902F04002002AC2
:101D1000F9D0C2B2014B9A62704700000010014036
:101D20000EB500BF3B48006840F00200394908602A
:101D300000BF00BF0846006840F00200086000BF16
:101D4000012000900023024601030190324802F076
:101D500025FD0120009000231A46202101902E48E5
:101D600002F01CFDFFF7C8FD00224FF480512A4805
:101D700002F008FD1420FFF771FF0122110326482D
:101D800002F000FD3220FFF769FF00208DF8080007
:101D9000012202A900F046F9012202A9A42000F0C4
:101DA00041F916208DF80800012202A9802000F0D8
:101DB00039F90C208DF80800012202A9882000F0D2
:101DC00031F9022202A9A12000F02EF89DF80800A6
:101DD000302803D19DF8090003280DD09DF8090093
:101DE000012809D09DF80900022805D09DF80800B7
:101DF00068B99DF8090050B99DF809009DF80820C0
:101E000000EB022105A0FEF7D5FA00200EBD01204F
:101E1000FCE70000E04402580004025843545020FC
:101E200049443A25780D0A002DE9F04106460F464F
:101E30001546FFF7F9FD7020FFF7CEFDFFF72EFEE8
:101E4000F0B2FFF7C9FDFFF729FEFFF7EDFD7120A6
:101E5000FFF7C2FDFFF722FE00240BE0691EA1423E
:101E600001D0012100E000210846FFF789FD385527
:101E7000601CC4B2AC42F1DBFFF7F6FDBDE8F081B7
:101E80002DE9FC410746002001900024002661480E
:101E90000078401C5F490870084600780A2190FBD2
:101EA000F1F201FB120018B15A4800780A2867DAEB
:101EB000012201A90220FFF7B7FF9DF8040000F0FE
:101EC0000F0000285CD09DF8040000F00F000628E9
:101ED0007BDA9DF8040000F00F014FF6FF70884098
:101EE00085B2E84380B240F440404B4988860420E4
:101EF000FFF7B4FE00245AE04748808E0121A1403C
:101F00000840E0B3454931F8140004226946FFF760
:101F10008BFF414890F8440000F00100C0B19DF8EB
:101F200001009DF8001001F00F0100EB01203A497B
:101F3000203121F814009DF803009DF8021001F0F3
:101F40000F0100EB012134480C3020F814101EE082
:101F50009DF801009DF8001001F00F0100EB012039
:101F60002F490988081A81B22B480C3020F8141028
:101F70009DF803009DF8021001F00F0101E014E04C
:101F800023E000EB01202449203121F814009DF8C2
:101F9000000000F0F000802807D000211E4820300B
:101FA00020F81410143820F81410601CC4B2052C4A
:101FB000A2DB01261848808920B91748008C08B98F
:101FC000002001900020134908709DF8040000F0E3
:101FD0001F00A8B91048808E00F4004030B10E48B0
:101FE000808E20F400400C49888609E04FF6FF708F
:101FF0000949888108840846808E00F460408886FC
:1020000004480078F02802DD0A20024908703046B2
:10201000BDE8FC81620000241800002484850008CB
:102020002C0100242DE9F04105460E4617464FF0DD
:102030000008FFF7F9FC7020FFF7CEFCFFF72EFD3C
:10204000E8B2FFF7C9FCFFF729FD00240BE0305D83
:10205000FFF7C2FCFFF722FD8046B8F1000F00D069
:1020600003E0601CC4B2BC42F1DB00BFFFF7FCFC24
:102070004046BDE8F08100001FB500BF434800683E
:1020800040F002004149086000BF00BF08460068F8
:1020900040F00200086000BF0120009000230246CB
:1020A000010301903A4802F079FB012000900023DF
:1020B0001A4620210190364802F070FBFFF71CFC05
:1020C00000224FF48051324802F05CFB1E20FFF7E3
:1020D000C5FD012211032E4802F054FB1E20FFF71C
:1020E000BDFD0020012103460246CDE9001020215C
:1020F000274802F053FB6420FFF7B0FD042202A939
:1021000048F2401000F05EF800208DF80C0002A9A3
:1021100020A0FEF74FF922A102A8FEF799FAB0B16C
:1021200020A102A8FEF794FA88B120A102A8FEF728
:102130008FFA60B11FA102A8FEF78AFA38B11FA179
:1021400002A8FEF785FA10B1012004B010BD19A154
:1021500002A8FEF77DFA10B90A201949087002207A
:102160008DF80800012202A948F2400000F0E0F9D1
:102170000A20FFF773FD00208DF80800012202A954
:1021800048F2400000F0D4F90020DEE7E0440258B5
:10219000000402584354502049443A25730D0A0064
:1021A00039313100393134370000000031313538F0
:1021B00000000000393237310000000039363700A6
:1021C000600000242DE9F04105460F461646FFF752
:1021D0002BFC2820FFF700FCFFF760FC2812FFF71C
:1021E000FBFBFFF75BFCE8B2FFF7F6FBFFF756FCE3
:1021F000FFF71AFC2920FFF7EFFBFFF74FFC002445
:102200000BE0711EA14201D0012100E0002108462F
:10221000FFF7B6FB3855601CC4B2B442F1DBFFF7E0
:1022200023FCBDE8F081000071B583B0002001906F
:102230000026BA480078401CB84908700846007863
:102240000A2190FBF1F201FB120018B1B3480078AB
:102250000A287DDA012203A948F24E10FFF7B2FFE7
:102260009DF80C0000F0800078B19DF80C0000F0A3
:102270000F00AB490978884207DC00200190012259
:1022800001A948F24E1000F053F99DF80C0000F03F
:102290000F0000285CD09DF80C0000F00F00A04952
:1022A0000978884254DC9DF80C0000F00F014FF6CD
:1022B000FF70884084B29B48858EE04380B240F432
:1022C0004040984988860846828995480078401E93
:1022D0000C3121F810209348028C91480078401E60
:1022E000143121F8102000200190B3E08D48808E39
:1022F0009DF8042001219140084000284BD08A49D4
:102300009DF8042031F81200042202A9FFF75AFFB9
:102310008648808845F21051884217D083488088CB
:1023200045F21031884211D08048808847F296717A
:1023300088420BD07D48808847F28971884205D059
:102340007A48808849F60601884240D1754800E005
:10235000BEE090F8440000F00100E8B19DF80A00EA
:102360009DF80B1000EB012070490988081A81B212
:102370006C480C309DF8042020F812109DF80800DD
:102380009DF8091000EB012081B2664820309DF8CD
:10239000042020F8121058E09DF808009DF809105C
:1023A00000EB012081B25F480C309DF8042020F83A
:1023B00012109DF80A009DF80B1000EB012081B26D
:1023C000584820309DF8042020F812103DE0554870
:1023D00090F8440000F00100D0B19DF808009DF88D
:1023E000091000EB012081B24E480C309DF804200A
:1023F00020F812109DF80A009DF80B1000EB012048
:1024000081B2484820309DF8042020F812101CE0CA
:102410009DF80A009DF80B1000EB01204349098844
:10242000081A81B23F480C309DF8042020F81210A1
:102430009DF808009DF8091000EB012081B2394891
:1024400020309DF8042020F812109DF80400401C54
:10245000C0B201909DF80400314909788842FFF626
:1024600045AF01262F48808930490988884205DC1C
:102470002C48008C2D494988884226DD9DF80C00A7
:1024800000F00F0001280ADD2648C089254988810F
:102490000846408C088400202049087018E0204835
:1024A0000078401E1F490C3131F810000C3988812A
:1024B0001B480078401E203131F810002039088474
:1024C000802003900846858602E0002013490870AA
:1024D0009DF80C0000F08F00802815D11148808EE7
:1024E00000F4004030B10F48808E20F400400D49C8
:1024F000888609E04FF6FF700A49888108840846FB
:10250000808E00F46040888604480078F02802DD60
:102510000A2002490870304604B070BD61000024F2
:102520006000002418000024708500082C0100249D
:102530002DE9F04104460E4617464FF00008FFF71C
:1025400073FA2820FFF748FAFFF7A8FA2012FFF7DE
:1025500043FAFFF7A3FAE0B2FFF73EFAFFF79EFA5D
:1025600000250BE0705DFFF737FAFFF797FA80461A
:10257000B8F1000F00D003E0681CC5B2BD42F1DB2A
:1025800000BFFFF771FA4046BDE8F08110B50022A8
:102590004FF400510D4802F0F5F800F019F801224F
:1025A00011030A4802F0EEF800F012F800224FF48E
:1025B0008051064802F0E6F800F00AF801225103C3
:1025C000024802F0DFF800F003F810BD000C0258DA
:1025D00010B50220FFF74CFB10BD00001CB500BF7A
:1025E0001148006840F008000F49086000BF00BFB4
:1025F0000846006840F00800086000BF0120009015
:102600000023024601030190084802F0C7F80120A8
:1026100000900346024641030190044802F0BEF8D0
:1026200000F094F81CBD0000E0440258000C025871
:1026300010B5012251030A4802F0A4F8FFF7C8FFC1
:1026400001221103064802F09DF8FFF7C1FF0022A6
:102650004FF48051024802F095F8FFF7B9FF10BD22
:10266000000C025870B50546002400261AE06006EA
:10267000040E01221103104802F084F8FFF7A8FFAE
:102680004FF400510C4802F075F808B1601CC4B258
:1026900000224FF48051084802F074F8FFF798FFC9
:1026A000701CC6B2082EE2DB15B9FFF7C1FF01E0CE
:1026B000FFF76CFF204670BD000C025870B5044651
:1026C000002518E0E2094FF400510F4802F05AF8D3
:1026D000FFF77EFF012211030B4802F053F8FFF7CA
:1026E00077FF00224FF48051074802F04BF8600654
:1026F000040E681CC5B2082DE4DB01225103024818
:1027000002F040F870BD0000000C025810B5012224
:1027100051030D4802F036F8012211030A4802F075
:1027200031F8FFF755FF00224FF40051064802F040
:1027300029F8FFF74DFF00224FF48051024802F0C4
:1027400021F8FFF745FF10BD000C025810B500221C
:102750004FF40051094802F015F8FFF739FF012244
:102760001103064802F00EF8FFF732FF0122510371
:10277000024802F007F8FFF72BFF10BD000C0258CB
:1027800070B50024002501225103134801F0FAFF1F
:10279000FFF71EFF012211030F4801F0F3FFFFF7BF
:1027A00017FF07E0601CC4B2FA2C03DDFFF7CEFF71
:1027B000012506E04FF40051074801F0DBFF002837
:1027C000F0D100BF00224FF48051034801F0DAFF3E
:1027D000FFF7FEFE284670BD000C02581CB500BF76
:1027E0001148006840F001000F49086000BF00BFB9
:1027F0000846006840F00100086000BF0220012187
:1028000000231A46CDE90010C101084801F0C6FFB7
:102810000220012100231A46CDE9001004210348BB
:1028200001F0BCFF1CBD0000E0440258000002584B
:1028300070B50446002514B101201C4908701B48DE
:10284000007810B34FF48071194801F093FF01280C
:1028500005D00421164801F08DFF012815D10A206A
:10286000FFF7FCF90020114908704FF480711048FF
:1028700001F080FF012800D1012504210C4801F05E
:1028800079FF01280FD102250DE04FF4807108482F
:1028900001F070FF38B90421054801F06BFF10B951
:1028A000012002490870284670BD00001400002471
:1028B0000000025838B50446064800944088401E7F
:1028C00083B204480088401E82B20021084601F00D
:1028D000A3FA38BD2C01002410B504464848847181
:1028E000002C44D1F020464908804FF4A070488065
:1028F0000846808845F21051884210D14FF430507C
:102900003F4908814FF4285048814FF42C5088816A
:102910004FF4F07008804FF44870488006E02C2097
:10292000374908812A2048812B20888134488088B3
:1029300045F21031884205D03148808847F29671BF
:10294000884206D14FF4A0702D4908804FF4F070F2
:1029500048802B48808849F6060188424BD14FF4C5
:10296000F070274908804FF44870488043E04FF4E6
:10297000A07023490880F02048800846808845F2EE
:102980001051884210D14FF430501D4908814FF446
:10299000285048814FF42C5088814FF448700880AB
:1029A0004FF4F070488006E02C20154908812A2059
:1029B00048812B2088811248808845F21031884256
:1029C00005D00F48808847F29671884206D14FF4AF
:1029D000F0700B4908804FF4A07048800848808848
:1029E00049F60601884206D14FF448700449088030
:1029F0004FF4F0704880002000F03EFC10BD000055
:102A00002C0100242DE9FF4F85B080468946129F96
:102A1000002003900290B84507DB0798B84204DB1A
:102A2000B94502DB0898B84202DA09B0BDE8F08F78
:102A30000798A0EB08040898A0EB0905CDF80480DE
:102A4000CDF80090002C02DD4FF0010A06E014B929
:102A50004FF0000A02E04FF0FF3A6442002D02DD21
:102A60004FF0010B06E015B94FF0000B02E04FF0FC
:102A7000FF3B6D42AC4201DD264600E02E460020C1
:102A8000049024E0139A93B2009A91B2019A90B202
:102A90003A4600F001FB0398204403900298284432
:102AA00002900398B04205DD0398801B03900198C3
:102AB000504401900298B04205DD0298801B0290BC
:102AC0000098584400900498401C80B20490711CF7
:102AD00004988842D6DD00BFA7E72DE9F0470646F7
:102AE0000F4690469A46002445460320A0EB48092D
:102AF00044E07A1B91B2321990B2524600F0B4F819
:102B00003A1B91B2721990B2524600F0ADF83A19E0
:102B100091B2721990B2524600F0A6F87A1991B2A9
:102B2000321990B2524600F09FF87A1991B2321BD6
:102B300090B2524600F098F83A1991B2721B90B2D6
:102B4000524600F091F87A1B91B2321B90B2524675
:102B500000F08AF83A1B91B2721B90B2524600F014
:102B600083F8641CB9F1000F03DAA000801D8144D2
:102B700004E0601B80000A3081446D1EAC42B8DD69
:102B8000BDE8F087F8B504460D4616461F463EB12F
:102B900009480088A04203DB07484088A84200DAC1
:102BA000F8BDA019401E82B22B4629462046009748
:102BB00000F032FA00BFF3E72C0100242DE9FF4FAB
:102BC00085B081468A460020039083460798A0EB93
:102BD00009050898A0EB0A06CDF80890CDF804A0E6
:102BE000002D01DD012705E00DB9002702E04FF0BF
:102BF000FF376D42002E02DD4FF0010806E016B9E6
:102C00004FF0000802E04FF0FF387642B54201DD98
:102C10002C4600E03446002004901EE0019A91B258
:102C2000029A90B2129A00F01FF803982844039079
:102C3000B3440398A04205DD0398001B039002985B
:102C400038440290A34504DDABEB040B01984044EB
:102C500001900498401C80B20490611C0498884242
:102C6000DCDD09B0BDE8F08F70B505460E461446B0
:102C70003146284600F000FC00F02EFE2046FEF70C
:102C80002BFD70BD10B5112000F01CFE7820FEF762
:102C9000E5FF362000F016FE002000F009FE3A2085
:102CA00000F010FE552000F003FEB22000F00AFEF6
:102CB0000C2000F0FDFD0C2000F0FAFD002000F0DB
:102CC000F7FD332000F0F4FD332000F0F1FDB720D4
:102CD00000F0F8FD562000F0EBFDBB2000F0F2FD07
:102CE000202000F0E5FDC02000F0ECFD2C2000F0DD
:102CF000DFFDC22000F0E6FD012000F0D9FDC32079
:102D000000F0E0FD0F2000F0D3FDC42000F0DAFD5C
:102D1000202000F0CDFDC62000F0D4FD0F2000F0F3
:102D2000C7FDD02000F0CEFDA42000F0C1FDA12001
:102D300000F0BEFDD62000F0C5FDA12000F0B8FDDA
:102D4000E02000F0BFFDF02000F0B2FD002000F018
:102D5000AFFD062000F0ACFD062000F0A9FD072025
:102D600000F0A6FD052000F0A3FD302000F0A0FD3E
:102D7000442000F09DFD482000F09AFD382000F02E
:102D800097FD112000F094FD102000F091FD2E2001
:102D900000F08EFD342000F08BFDE12000F092FD6C
:102DA000F02000F085FD0A2000F082FD0E2000F0EA
:102DB0007FFD0D2000F07CFD0B2000F079FD272029
:102DC00000F076FD2F2000F073FD442000F070FD30
:102DD000472000F06DFD352000F06AFD122000F064
:102DE00067FD122000F064FD2C2000F061FD322010
:102DF00000F05EFD352000F065FD002000F058FD7C
:102E0000212000F05FFD292000F05CFD2A2000F069
:102E100059FD002000F04CFD002000F049FD01208C
:102E200000F046FD3F2000F043FD2B2000F04AFD5E
:102E3000002000F03DFD002000F03AFD002000F0F1
:102E400037FDEF2000F034FD2C2000F03BFD10BDDD
:102E500010B5112000F036FD7820FEF7FFFE362079
:102E600000F030FD482000F023FD3A2000F02AFD5C
:102E7000552000F01DFDF02000F024FDC32000F0DF
:102E800017FDF02000F01EFD962000F011FDB4208B
:102E900000F018FD012000F00BFDB62000F012FD3F
:102EA0000A2000F005FDA22000F002FDB72000F08E
:102EB00009FDC62000F0FCFCB92000F003FD022053
:102EC00000F0F6FCE02000F0F3FCC02000F0FAFC7B
:102ED000802000F0EDFC162000F0EAFCC12000F09C
:102EE000F1FC192000F0E4FCC22000F0EBFCA7206C
:102EF00000F0DEFCC52000F0E5FC162000F0D8FC58
:102F0000E82000F0DFFC402000F0D2FC8A2000F036
:102F1000CFFC002000F0CCFC002000F0C9FC2920F0
:102F200000F0C6FC192000F0C3FCA52000F0C0FC96
:102F3000332000F0BDFCE02000F0C4FCF02000F0E5
:102F4000B7FC072000F0B4FC0D2000F0B1FC042019
:102F500000F0AEFC052000F0ABFC142000F0A8FC53
:102F6000362000F0A5FC542000F0A2FC4C2000F01C
:102F70009FFC382000F09CFC132000F099FC1420EA
:102F800000F096FC2E2000F093FC342000F090FC22
:102F9000E12000F097FCF02000F08AFC102000F007
:102FA00087FC142000F084FC0E2000F081FC0C2033
:102FB00000F07EFC082000F07BFC352000F078FC5F
:102FC000442000F075FC4C2000F072FC262000F03C
:102FD0006FFC102000F06CFC122000F069FC2C202B
:102FE00000F066FC322000F063FCF02000F06AFC88
:102FF0003C2000F05DFCF02000F064FC692000F053
:1030000057FC7820FEF72AFE212000F05BFC2920E7
:1030100000F058FC10BD00002DE9FC5F05460E468F
:1030200017469846DDF830904FF0000B781B401C97
:10303000A8EB0601491C48430190164801880198F5
:10304000814208D243463A4631462846CDF80090A0
:1030500000F0E2FE1BE0781B401C1FFA80FB3446A8
:1030600013E02146284600F007FA00F035FC4FF047
:10307000000A06E04846FEF72FFB0AF101001FFA9E
:1030800080FADA45F6DB601C84B24445E9DDBDE830
:10309000FC9F00002C0100242DE9F05F07468846C4
:1030A00016469A4640F2C32070434FF47A71B0FB43
:1030B000F1F000F1010906FB06F000EB560B344677
:1030C00071040A0CB91B88B253464146FFF75AFDFA
:1030D000012535E005FB05F004FB040058451AD92D
:1030E0004C4517D96B1E5B041A0C08EB040399B20C
:1030F0007B1B5B1C98B25346FFF744FD6B1E5B04C1
:103100001A0CA8EB040399B27B1B5B1C98B25346C4
:10311000FFF738FD641E63041A0C08EB050399B22F
:103120003B1B98B25346FFF72DFD63041A0CA8EB26
:10313000050399B23B1B98B25346FFF723FD6D1C64
:103140004D45C7D9BDE8F09F1CB500BF2D480068AC
:1031500040F480702B49086000BF01200321002348
:103160000246CDE90010C102274801F017FB0122F9
:10317000D102254801F006FB6420FEF76FFD00F048
:1031800083FF00F083FBD32000F04AF81F498880BA
:103190000846808847F2967188420ED0042000F0DD
:1031A0003FF81A4988800846808848F25251884280
:1031B00003D147F28970154988801448818814A08A
:1031C000FDF7F8F81148808847F28971884202D1EA
:1031D000FFF758FD07E00D48808847F29671884256
:1031E00001D1FFF735FE00F03FFB0020FFF774FB35
:1031F00001221146094801F0C5FA4FF6FF70FFF7AA
:1032000059FB1CBDE0440258002002582C01002448
:103210004C43442049443A25780D0A0000040258E2
:1032200070B504460025002600221021104801F048
:10323000A9FA002208210F4801F0A4FA204600F064
:103240004FFDFEF739FDFF2000F04AFD0546FF2047
:1032500000F046FD0546FF2000F042FD0646012233
:103260001021034801F08EFA46EA052070BD0000E7
:1032700000100258000802582DE9F04105460024CC
:1032800000277C488079012818D1082D15D2DFE865
:1032900005F00406080A0C0E101206250DE007259D
:1032A0000BE0042509E0052507E0012505E00025E0
:1032B00003E0032501E0022500BF00BF082D1CD25A
:1032C000DFE805F00406090C0F12151800BF14E022
:1032D00044F0800411E044F040040EE044F0C004E7
:1032E0000BE044F0200408E044F0600405E044F002
:1032F000A00402E044F0E00400BF00BF36275D48B0
:10330000808845F21051884200D13F025948808898
:1033100047F29671884201D144F0080421463846AC
:1033200000F0E2FA04F0200068B1524800885149E8
:103330004988884214DA4F48068840884D490880F9
:10334000084646800CE04B4800884A494988884234
:1033500006DD484806884088464908800846468079
:103360004448808845F21051884252D141494889E9
:1033700000F0A8FA002000F09BFA3E494989491C58
:1033800088B200F09FFA002000F092FA394949898A
:10339000891C88B200F096FA36490988491EC1F3A3
:1033A0000F2000F085FA33494989C91C88B200F022
:1033B00089FA30490978491EC8B200F079FA2D49D6
:1033C000888900F07FFA002000F072FA2949898983
:1033D000491C88B200F076FA002000F069FA25490D
:1033E0008989891C88B200F06DFA22494988491EF2
:1033F000C1F30F2000F05CFA1E498989C91C88B20C
:1034000000F060FA1B498978491EC8B200F050FAF2
:103410002DE01849488900F055FA002000F048FADC
:10342000002000F045FA13490988491EC1F30F2016
:1034300000F03EFA0F490978491EC8B200F038FA88
:103440000C49888900F03EFA002000F031FA002093
:1034500000F02EFA07494988491EC1F30F2000F0F9
:1034600027FA04498978491EC8B200F021FABDE85C
:10347000F08100002C01002470B504460D461E4862
:10348000808845F21051884220D11B49488900F0BC
:1034900019FA201200F00CFA17494989491C88B220
:1034A00000F010FAE0B200F003FA1349888900F046
:1034B00009FA281200F0FCF90F498989491C88B2E1
:1034C00000F000FAE8B200F0F3F913E00A49488985
:1034D00000F0F8F9201200F0EBF9E0B200F0E8F9A2
:1034E0000549888900F0EEF9281200F0E1F9E8B208
:1034F00000F0DEF970BD00002C0100242DE9F0473A
:1035000004460D469046994604EB0800401E86B2DC
:1035100005EB0900401E87B23648808845F21051FD
:10352000884244D13349488900F0CCF9201200F098
:10353000BFF930494989491C88B200F0C3F9E0B2AB
:1035400000F0B6F92B494989891C88B200F0BAF914
:10355000301200F0ADF927494989C91C88B200F042
:10356000B1F9F0B200F0A4F92249888900F0AAF973
:10357000281200F09DF91F498989491C88B200F082
:10358000A1F9E8B200F094F91A498989891C88B236
:1035900000F098F9381200F08BF916498989C91C96
:1035A00088B200F08FF9F8B200F082F91FE01149FB
:1035B000488900F087F9201200F07AF9E0B200F0B3
:1035C00077F9301200F074F9F0B200F071F909499E
:1035D000888900F077F9281200F06AF9E8B200F063
:1035E00067F9381200F064F9F8B200F061F9BDE84B
:1035F000F08700002C0100242DE9FC5F80460E4678
:1036000015461C46B3460020019000902046E31763
:1036100004EB5373DB1021464FEAE47C04EB5C7C43
:103620004FEAEC0CA4EBCC0CBCF1000F02D04FF035
:10363000010C01E04FF0000C6344224604EBD27C05
:103640004FEA6C0C03FB0CF3DBB20193A5F12000F5
:10365000C5B20C2C06D0102C0BD0182C0ED0202C60
:1036600018D112E005EB45002D4901EB80000090D8
:1036700012E02C4800EB051000900DE005EBC500B2
:10368000294901EB8000009006E0284800EB8510F6
:10369000009001E0BDE8FC9F00BF00273BE00098E0
:1036A00010F807904FF0000A2FE009F0800028B1D1
:1036B000314640460D9AFFF7D7FA08E00C9830B92A
:1036C0001B48008882B231464046FFF7CDFA4FEAE8
:1036D00049604FEA1069701C86B216484088B042B3
:1036E00000DCD7E7A6EB0B00A0420AD15E4608F14A
:1036F00001001FFA80F80F480088404500DCC9E748
:1037000006E00AF1010000F0FF0ABAF1080FCCDB75
:1037100000BF781CC7B201988742C0DB00BFB9E781
:10372000EC550008605A000850600008AC6D0008B5
:10373000100000242C0100242DE9FC5F04460D46F6
:1037400090469946DDE90D7A0C9E04F0FF0B08EBDC
:1037500004001FFA80F809EB05001FFA80F917E052
:10376000444502DB5C46A81985B24D4500DB15E0F7
:103770000020CDE9000A3A78334629462046FFF773
:103780003BFF304606EBD07104EB61018CB27F1C2D
:1037900038787E2802DC38782028E1DA00BFBDE8DE
:1037A000FC9F000070B505460024002D39D12C483F
:1037B000006840F400502A4908600846006820F478
:1037C000005008602748006840F480502549086090
:1037D00008052449083108600846006840F00700E1
:1037E00008600C0700BF44F0806444F0007444F0AB
:1037F000807400BF44F4800400BF00BF081D046053
:1038000018485030006820F0010016495031086017
:103810001448006840F001001249086000F024F8E4
:103820001DE01048006820F001000E4908600D48B6
:103830000830006820F01F000A4908310860084677
:10384000006840F00F0008600846006840F400403F
:1038500008600448006840F001000249086070BD3B
:10386000984402580034014010B50748808847F258
:103870009671884203D1002000F066FA02E0012030
:1038800000F062FA10BD00002C01002410B50748BA
:10389000808847F29671884203D1032000F054FAE1
:1038A00002E0042000F050FA10BD00002C010024BA
:1038B00001B5BDF800000090BDF80010C8B2FDF7DA
:1038C000F1FE08BD01B5BDF800000090BDF8001084
:1038D000C8B2FDF7CDFE08BD10B50249087AFDF764
:1038E000C7FE10BD2C01002470B504460D46E0B2A1
:1038F000FDF7BEFEE8B2FDF7D5FE70BD1CB500BFFA
:103900001548006840F001001349086000BF00BF7F
:103910000846006840F00200086000BF01200090E7
:1039200000230246082101900C4800F037FF0120D7
:1039300000900023024602210190094800F02EFF6A
:1039400001220821054800F01DFF01220221044840
:1039500000F018FF1CBD0000E044025800000258AF
:10396000000402580EB54FF6FF70FEF7A3FF1F20AC
:1039700007A11022CDE900210290064909881839D3
:1039800088B21346C8220021FFF7D6FE0EBD000004
:10399000525354002C0100240EB5042302220521A9
:1039A000C02000F0B3FF4FF4F070FEF741F94FF480
:1039B000E131782001F076FDFFF7A0FF00F09CF8E0
:1039C000FFF7C2FBFEF70AFF2649086880474FF45D
:1039D000784025A110221346CDE900210290C8228B
:1039E00032211E20FFF7A8FE4FF4784021A11022BB
:1039F0001346CDE900210290C82246211E20FFF780
:103A00009BFE4FF478401EA110221346CDE9002101
:103A10000290C8225A211E20FFF78EFE114890F80E
:103A2000440000F0800060B94FF4784017A11022E4
:103A30001346CDE900210290C8226E211E20FFF717
:103A40007BFE40F2DC50FEF709F9FFF78BFF0548DB
:103A500090F8440000F0800008B1FEF74FF800F045
:103A6000E7F800001800002453544D33324837342F
:103A700037000000544F554348205445535400002C
:103A8000574B5320534D4152540000005072657300
:103A900073204B45593020746F2041646A757374EC
:103AA000000000000146002002E04908421CD0B29C
:103AB0000129FAD1704700000748006820F48030DF
:103AC0000549086004487030006820F00100024990
:103AD000703108607047000024ED00E005200549C2
:103AE000086004487038006840F48030014970393B
:103AF0000860704794ED00E01FB501200022032309
:103B0000CDE901200093039013460246410440078B
:103B100000F052F8012000220323CDE90120009398
:103B2000039013460222C1044FF0105000F044F8F5
:103B3000012000220323CDE90120009303901346C6
:103B40000322C104100700F037F8012000220323EC
:103B5000CDE90120009303901346042201044FF0A5
:103B6000605000F029F800200323CDE900300290D6
:103B7000034605224FF0806103904FF0C04000F0F3
:103B80001BF8012000220323CDE9012000930390BC
:103B90001346062241064FF0504000F00DF8002079
:103BA0000323CDE900300290012307221907039077
:103BB000C80000F001F81FBD2DE9F84F06460D467C
:103BC00017469846DDE90BABDDF82890002400206D
:103BD000009005F01F0000B915B90120BDE8F88F6D
:103BE0002846FFF75FFF401EC0B20090FFF764FF5A
:103BF0000E480760001D066044EA087444EA096440
:103C000000BF44EA8A4444EA4B440D9844EA004425
:103C100000BF009844EA400444F00104034808301F
:103C20000460FFF75BFF0020D8E7000098ED00E09C
:103C300000254DE00020FEF7FBFD044625484168C5
:103C4000002088472348808E00F4004008B32148B4
:103C500080892149098888421EDA1E48008C1E4945
:103C60004988884218DA1B4881891B48008818381F
:103C7000814206DD1748008C102802DAFFF772FE39
:103C80000AE0144A118C90894FF4784201F012F93D
:103C900002E00A20FDF7E2FF012C09D14FF6FF7088
:103CA000FEF708FE00F080FE01F02AFBFFF75AFE47
:103CB000681CC5B2142095FBF0F100FB115038B917
:103CC00000BF0648406980F008000449486100BF11
:103CD000B0E70000180000242C0100240000025866
:103CE00001460020174A126842F00102154B1A6083
:103CF0001A46126842F400721A6000BF114A143268
:103D0000126802F00202002AF8D00E4A2032117026
:103D100000BF0C4A1432126802F00102002AF8D0E7
:103D2000084A30321078074A1832126842F01802F6
:103D3000044B18331A60034A126822F00102014B47
:103D40001A6070470034014000F007000C49096810
:103D500021F001010A4A116009490831096821F07E
:103D6000E041074A083211601146096841EA0071D2
:103D700011600349096841F00101014A116070476F
:103D80000034014010B5024600201F4B1B6843F071
:103D900002031D4C23601C4B303B1B6843F00103A6
:103DA000194C303C236000BF184B1B6803F0010323
:103DB000002BF9D15423164C2360144B083B1B688D
:103DC00043F03D03114C083C236021230F4C143475
:103DD0002360104B0D4C08342360231D1A60002310
:103DE000241F236040F0400000BF00BF40EA812054
:103DF00040F4006040F4005040F4003000BF00BFC9
:103E0000231F186010BD0000D8440258100402405F
:103E100020080240203401402DE9F84305460E46B3
:103E200017469846DDF82090781B401CA8EB060149
:103E3000491C00FB01F4CDF8009000216846FFF713
:103E4000A1FFA8EB0600401C83B2781B401C82B285
:103E500031462846FFF752FB31462846FFF70CFB58
:103E6000FFF73AFD002210212B4800F08BFC0122C5
:103E700008212A4800F086FC0120FFF793FC28481F
:103E8000006840F400702649086033E02548006867
:103E900020F001002349086000BF2248006800F0BC
:103EA00001000028F9D11F480838006840F02000C0
:103EB0001C4908390860B4F5704F07D9A4F570445F
:103EC0004FF470401749091D086005E004F108002F
:103ED0001449091D086000241248006840F00100E0
:103EE0001049086000BF0F481038006800F020003B
:103EF0000028F8D0002CC9D10A48006820F0010041
:103F00000849086001221021034800F03BFC002012
:103F1000FFF748FCBDE8F88300100258000802587B
:103F200000340140100402401CB5002400BF534877
:103F3000006840F400505149086000BF00BF4F487E
:103F40001038006840F010004C491039086000BF7C
:103F500000BF0846006840F01000086000BF00BFC6
:103F60000846006840F01000086000BF00BF084627
:103F7000006840F01000086000BF0120032100230A
:103F80000246CDE9001010213D4800F007FC012059
:103F9000032100230222CDE900100421384800F05B
:103FA000FDFB0120032100230222CDE90010202186
:103FB000334800F0F3FB0120032100230222CDE966
:103FC000001040212E4800F0E9FB052204212C4876
:103FD00000F09CFB05222021294800F097FB0522D8
:103FE0004021274800F092FB2448A038006820F4C4
:103FF000E0202249A03908600846006840F480307B
:1040000008601E485838006840F400501B49583971
:1040100008600846006820F40050086019480068ED
:1040200040F48050174908600805164908310860B7
:104030000846006840F0070008600C0700BF44F025
:10404000806444F0007444F0807400BF44F4800441
:1040500000BF00BF081D04600A485030006820F00F
:1040600001000849503108600648006840F001002E
:1040700004490860FF20FFF733FE1CBDF0440258DE
:1040800000100258003401401CB5FFF74DFF00BF7F
:104090002748006840F004002549086000BF00BFC1
:1040A0000846006840F00200086000BF00BF0846F4
:1040B000006840F08000086000BF01200321002359
:1040C0000246CDE9001008211A4800F067FB0120E4
:1040D000032100230246CDE900100146164800F0F6
:1040E0005DFB0120032100230246CDE900102021C1
:1040F000124800F053FB3220FDF7B0FD01222021D1
:104100000E4800F03FFB0A20FDF7A8FD0022202109
:104110000A4800F037FB3220FDF7A0FD01222021E4
:10412000064800F02FFBC820FDF798FD1CBD0000DD
:10413000E04402580008025800040258001C0258CB
:1041400010B500BF4C48006800F4003000B139E001
:1041500000BF00BF00BFBFF34F8F00BF00BF00BF55
:1041600000BF00BF00BFBFF36F8F00BF00BF00BF25
:1041700000204249086000BF00BF00BFBFF34F8F5F
:1041800000BF00BF00BF00BF00BF00BFBFF36F8F05
:1041900000BF00BF00BF3848006840F40030364917
:1041A000086000BF00BF00BFBFF34F8F00BF00BF5C
:1041B00000BF00BF00BF00BFBFF36F8F00BF00BFD5
:1041C00000BF00BF00BF2C4B1B6803F4803303B15A
:1041D00048E00023284C7034236000BF00BF00BFBC
:1041E000BFF34F8F00BF00BF00BF231F1868C0F38D
:1041F0004E3100BFC0F3C90200BF43F6E07303EACB
:1042000041134FF0404404EA827423431B4C1034A2
:10421000236000BF00BF131EA2F10102EDD10B1EEF
:10422000A1F10101E6D100BF00BF00BFBFF34F8F76
:1042300000BF00BF00BF104B1B6843F480330E4C1F
:10424000236000BF00BF00BFBFF34F8F00BF00BFA0
:1042500000BF00BF00BF00BFBFF36F8F00BF00BF34
:1042600000BF00BF05484C30006840F0040003491F
:104270004C31086010BD000014ED00E050EF00E08C
:104280002DE9F04104460D4616460021002200208B
:104290000027DFF868C4DCF800C02CF4404CDFF8DD
:1042A0005C84C8F800C0C446DCF800C04CF4404C44
:1042B000C8F800C0DFF848C4DCF800C04CF0020CBD
:1042C000DFF83C84C8F800C0DFF838C4DCF800C070
:1042D0004CF0010CDFF82C84C8F800C000BFDFF8F8
:1042E0001CC4DCF800C00CF4005CBCF1000FF6D07C
:1042F000DFF80CC4ACF1F40CDCF800C04CF4803CEA
:10430000DFF8FC83A8F1F408C8F800C000E0491CFD
:10431000DFF8ECC3ACF1F40CDCF800C00CF4003CAA
:10432000BCF1000F03D147F6FF7C6145EFD347F6A0
:10433000FF7C614501D10120DEE1DFF8C4C3ACF1AF
:10434000CC0CDCF800C04CF0020CDFF8B483A8F110
:10435000CC08C8F800C0C446DCF800C04CEA051C14
:10436000C8F800C0DFF898C3ACF1C40CDCF800C09A
:104370006FF3080CDFF88883A8F1C408C8F800C000
:10438000C446DCF800C0A4F101084CEA080CDFF8D0
:104390007083A8F1C408C8F800C0C446DCF800C0A7
:1043A0002CF47E4CC8F800C0C446DCF80080A6F1AE
:1043B000010C48EA4C2CDFF84883A8F1C408C8F87F
:1043C00000C0C446DCF800C02CF4FE0CC8F800C0E5
:1043D000C446DCF80080A3F1010C48EA0C4CDFF87D
:1043E0002083A8F1C408C8F800C0C446DCF800C0A7
:1043F0002CF0FE4CC8F800C0C446DCF800C04CF0FD
:10440000807CC8F800C0A8F1040CDCF800C04CF0B7
:10441000080CA8F10408C8F800C0C446DCF800C0C5
:10442000C8F800C0C446DCF800C04CF4403CC8F8F2
:1044300000C0DFF8CCC2ACF1F40CDCF800C04CF0EA
:10444000807CDFF8BC82A8F1F408C8F800C0002125
:1044500005E0491CB1F5001F01D302200AE0DFF896
:10446000A0C2ACF1F40CDCF800C00CF0007CBCF194
:10447000000FEED000BFDFF888C2ACF1CC0CDCF846
:1044800000C04CF4C83CDFF87882A8F1CC08C8F82A
:1044900000C0DFF86CC2ACF1BC0CDCF800C06FF3FC
:1044A000080CDFF85C82A8F1BC08C8F800C0C4465C
:1044B000DCF800C040F2B7184CEA080CDFF8408284
:1044C000A8F1BC08C8F800C0C446DCF800C02CF451
:1044D0007E4CC8F800C0C446DCF800C04CF4007C38
:1044E000C8F800C0C446DCF800C02CF4FE0CC8F8C4
:1044F00000C0C446DCF800C04CF4803CC8F800C0E2
:10450000C446DCF800C02CF0FE4CC8F800C0C4461D
:10451000DCF800C04CF0807CC8F800C0DFF8E0C1D7
:10452000ACF1C80CDCF800C0DFF8D481A8F1C808F1
:10453000C8F800C0C446DCF800C0C8F800C0C446D3
:10454000DCF800C04CF4002CC8F800C0C446DCF80D
:1045500000C04CF4801CC8F800C0C446DCF800C0A1
:104560004CF4001CC8F800C0DFF894C1ACF1A80CF2
:10457000DCF800C02CF0030CDFF88481A8F1A80857
:10458000C8F800C0C446DCF800C04CF0020CC8F803
:1045900000C0DFF86CC1ACF1F40CDCF800C04CF0EA
:1045A000806CDFF85C81A8F1F408C8F800C0002135
:1045B00005E0491CB1F5001F01D303200AE0DFF834
:1045C00040C1ACF1F40CDCF800C00CF0006CBCF1A4
:1045D000000FEED000BFDFF828C1ACF1DC0CDCF836
:1045E00000C04CF0080CDFF81881A8F1DC08C8F80E
:1045F00000C0C446DCF800C0C8F800C0DFF800C145
:10460000ACF1E40CDCF800C04CF0030CDFF8F080F7
:10461000A8F1E408C8F800C000210DE0DFF8E0C010
:10462000ACF1E40CDCF800C0CCF3C207491CB1F5D6
:10463000001F01D3042001E0032FEFD100BFDFF8FA
:10464000C8C0DCF8002022F00F0242F0040222F081
:10465000300242F02002CCF80020DFF8A4C0ACF118
:10466000DC0CDCF800C04CF0400CDFF89480A8F1C2
:10467000DC08C8F800C008F1040CDCF800C04CF0FD
:10468000400C08F10408C8F800C0C446DCF800C0BB
:104690004CF4806CC8F800C008F1040CDCF800C0D1
:1046A0004CF0400C08F10408C8F800C0DFF850C016
:1046B000ACF1F40CDCF800C04CF0800CDFF840806A
:1046C000A8F1F408C8F800C0DFF834C0DCF800C076
:1046D0004CF0020CDFF82880C8F800C0DFF824C0D6
:1046E000ACF10C0CDCF800C04CF0010CDFF81480CD
:1046F000A8F10C08C8F800C0BDE8F08118480258BD
:10470000F44402582C04005800200052F0B503462F
:1047100000200024002500BF29E0012606FA00F44D
:1047200001EA0405A54221D1C70803F1200656F885
:10473000276047074FEAD76C0F2707FA0CF7BE43ED
:104740004FEAD00C03F1200747F82C60C70803F1AB
:10475000200656F827604707FF0E02FA07F73E4388
:104760004FEAD00C03F1200747F82C60401C1028BA
:10477000D3D3F0BD02461069084008B1012070474C
:104780000020FCE702F001031BB183690B43836146
:1047900003E0836943EA0143836170472DE9F047F1
:1047A00004460D46DDE9087C00210026884600BF4E
:1047B00048E04FF0010909FA01F605EA0608B0459C
:1047C0003FD120684FEA410A4FF0030909FA0AF97C
:1047D00020EA09004FEA410902FA09F949EA000012
:1047E0002060012A01D0022A1BD1A0684FEA410AA9
:1047F0004FF0030909FA0AF920EA09004FEA4109D2
:1048000007FA09F949EA0000A06060684FF0010961
:1048100009FA01F920EA090003FA01F949EA00005E
:104820006060E0684FEA410A4FF0030909FA0AF9AB
:1048300020EA09004FEA410A0CFA0AF949EA0000A5
:10484000E060491C1029B4D3BDE8F0872DE9F041A0
:104850000746884614461D46284600F033F8C5F141
:10486000040007FA00F60F20284100EA080006437A
:1048700006F00F06E21704EBD2625211920002F129
:10488000E022D2F800212146E31704EBD3635B1149
:10489000A4EB431C012303FA0CF31A432046E3174D
:1048A00004EBD3635B119B0003F1E023C3F8002109
:1048B0000348005D40EA061001490855BDE8F08153
:1048C00000E400E00146072323EA01021202054B3F
:1048D00018684FF6FF031840034B18431043014B71
:1048E000186070470CED00E00000FA054A0A520219
:1048F0000243014B1A60704708ED00E0014802498D
:10490000086070470400FA050CED00E0F0B50446BD
:104910000D4616461F462048006820F004001E4938
:1049200008600846006840F00200086000BF1A48AE
:104930000838006800F400500028F8D0012017491A
:1049400008600020154910310860144918310860CA
:10495000091D0860091D0860104928310860091DFB
:1049600008600E49603108600D4800686FF30F0061
:10497000B0F1005F02D201200A4908603B4632468E
:1049800029462046FFF77CFCFFF7DAFB00214FF0B9
:104990000060FFF7ABFFF0BD0C480258004402581E
:1049A0000010005C088100512DE9F04F2DED048BC3
:1049B00089B04FF000080020039000BF4FF6FF7051
:1049C000FDF778FF4FF47840DD4909681022642331
:1049D000CDE900210290A02228210846FEF7ACFE76
:1049E0004FF478421421084600F081FA0020D5499E
:1049F0008886A1E1D348416801208847D148808E4C
:104A000000F44040B0F5804F7ED100200390CD48A7
:104A1000808E20F48040CB4988860846808904A98E
:104A200021F82800C748008C01EB8801488008F174
:104A3000010000F0FF08B8F1060F13D2DFE808F01C
:104A4000120313263C514FF6FF721421084600F062
:104A50004EFABD490988143988B24FF478421421BE
:104A600000F045FA58E1B8490988143988B24FF680
:104A7000FF72142100F03BFAB3484088143881B229
:104A80004FF47842142000F032FA45E1AE484088F5
:104A9000143881B24FF6FF72142000F028FAAA4AA7
:104AA0005288143A91B2A84A1288143A90B24FF43C
:104AB000784200F01CFA2FE14FF6FF70FDF7FAFE86
:104AC000A14AB2F8029009EBD97251109E4AB2F88D
:104AD00000A00AEBDA7250104FF4784200F007FAA7
:104AE0001AE1BDF81400BDF81010401A04B2BDF868
:104AF0001C00BDF81810401A06B2BDF81E10BDF813
:104B00001600081A05B200E007E1BDF81A00BDF86A
:104B10001210401A07B200EE104AB8EEC01B00EEA9
:104B2000106AB8EEC00B81EE002BB0EE428B00EEA7
:104B3000105AB8EEC01B00EE107AB8EEC00B81EE32
:104B4000002BB0EE429BB5EEC08BF1EE10FA03D213
:104B5000B1EE480BB0EE408BB5EEC09BF1EE10FA13
:104B600003D2B1EE490BB0EE409B9FED780BB4EE53
:104B7000C08BF1EE10FA60D39FED760BB4EEC08BD4
:104B8000F1EE10FA59DC9FED710BB4EEC09BF1EE23
:104B900010FA52D39FED6F0BB4EEC09BF1EE10FAFA
:104BA0004BDCB4F1000B01DBDE4601E0CBF1000E83
:104BB000BEF5805F41DAB5F1000A01DBD64601E0BF
:104BC000CAF1000EBEF5805F37DAB6F1000901DBED
:104BD000CE4601E0C9F1000EBEF5805F2DDAB7F1D7
:104BE000000C01DBE64601E0CCF1000EBEF5805F73
:104BF00023DA231E01DB9E4601E0C3F1000EBEF165
:104C0000000F1AD02A1E01DB964601E0C2F1000E09
:104C1000BEF1000F11D0311E01DB8E4601E0C1F163
:104C2000000EBEF1000F08D0381E01DB864601E001
:104C3000C0F1000EBEF1000F1FD14FF00008424A34
:104C4000B2F8029009EBD97251103F4AB2F800A0B5
:104C50000AEBDA7250104FF6FF7200F048F94FF489
:104C600078421421084600F042F9B0EE491BB0EE3C
:104C7000480B04A800F07EF85EE0A01900EE100AD0
:104C8000F8EEC00A304800882838400000EE100ACC
:104C9000B8EEC00A80EE801A2A4880ED0E1AE81994
:104CA00000EE100AF8EEC00A274840882838400075
:104CB00000EE100AB8EEC00A80EE801A214880ED9E
:104CC0000F1ABDF8200000B21E49A1F84000BDF83F
:104CD000220000B2A1F842004FF6FF70FDF7EAFD96
:104CE0001F201EA11022CDE9002102901648438802
:104CF00002886E212320FEF71FFD4FF47A70FCF727
:104D0000ADFF00F0FDFA4FF6FF70FDF7D3FD09B0DF
:104D1000BDEC048BBDE8F08F00BF0A20FCF79EFFBE
:104D20000398401C80B203900398B0F57A7F02DDAF
:104D300000F01AF901E000BF5CE600BF00BFE6E743
:104D40006C850008180000242C0100246666666645
:104D50006666EE3FCDCCCCCCCCCCF03F546F7563C7
:104D6000682053637265656E2041646A75737420B0
:104D70004F4B210070B52DED048B88B00546B0EE89
:104D8000408BB0EE419B002433E035F82430621CA8
:104D90003DA103A8FBF71AFB4FF4784003A91022AA
:104DA000CDE9002102903A484388028804EB840050
:104DB000A02606EB80012820FEF7BEFC05EB840050
:104DC0004388621C33A103A8FBF700FB4FF4784033
:104DD00003A91022CDE9002102902D4843880288C2
:104DE00004EB840006EB80017820FEF7A5FC601C34
:104DF000C4B2052CC9DB4FF6FF7000902448008830
:104E0000401E82B204EB8400A02303EB8001102338
:104E10002820FEF701F953EC182B20A103A8FBF77B
:104E2000D5FA00208DF813004FF4784003A9102222
:104E3000CDE90021029016484388028804EB8400E3
:104E4000A02606EB80012820FEF776FC53EC192BF8
:104E500015A103A8FBF7BAFA00208DF813004FF450
:104E6000784003A91022CDE9002102900848438828
:104E7000028804EB840006EB80017820FEF75CFCDE
:104E800008B0BDEC048B70BD7825643A2564000041
:104E90002C0100247925643A2564000070783A25B5
:104EA000302E32660000000070793A25302E3266CE
:104EB0000000000070B505460E461446A2B2314609
:104EC0002846FDF7D1FEA2B2691C88B23146FDF733
:104ED000CBFEA2B2701C81B22846FDF7C5FEA2B27D
:104EE000731C99B26B1C98B2FDF7BEFE70BDF8B58D
:104EF00004460D461646B0B204F10D018AB21939C6
:104F0000009088B22B462946FDF758FEB0B20090BB
:104F100005F10D0083B2193881B222462046FDF713
:104F20004DFEB2B26B1C99B2631C98B2FDF79CFEA9
:104F3000B2B26B1C99B2631E98B2FDF795FEB2B285
:104F40006B1E99B2631C98B2FDF78EFEB2B26B1E57
:104F500099B2631E98B2FDF787FEB3B206222946C6
:104F60002046FDF7BAFDF8BD70B5084C00250C22AF
:104F700021462820FCF725FC3420FCF734FC0546AC
:104F80000A2D01D1012070BD0020FCE75000002453
:104F90001CB500204A4981F84400084690F84400B6
:104FA0004849897901F001010843454981F84400E5
:104FB000FDF762F858B9444841494860084690F8FE
:104FC000440040F0800081F8440000201CBDFCF744
:104FD000A7FE58B93D483A494860084690F8440051
:104FE00040F0800081F844000020EFE700BF38481F
:104FF000006840F002003649086000BF00BF084664
:10500000006840F00200086000BF00BF084600686A
:1050100040F00200086000BF00BF0846006840F092
:105020000200086000BF00BF0846006840F00200B0
:10503000086000BF0120009000231A462021019043
:105040002448FFF7ABFB0120009000231A464103E0
:1050500001902048FFF7A2FB0120009000230246A8
:10506000C10201901B48FFF799FB0120009000232B
:105070000246810201901748FFF790FB0120009043
:1050800000230246010301901248FFF787FB0C49F9
:105090002031A1F1140000F0B9F8FCF78EFBFFF706
:1050A00063FF08B1002091E74FF6FF70FDF702FCA7
:1050B000FFF77AFC00F024F9FFF756FF012085E79F
:1050C000180000242C01002429220008811E000859
:1050D000E04402580004025870B50646002500243A
:1050E00000224FF480612A48FFF74CFB00224FF466
:1050F00000612748FFF746FB00224FF48051244807
:10510000FFF740FB304600F09FF90620FCF7B0FDAA
:1051100000224FF480611E48FFF734FB0120FCF7AA
:10512000A7FD012291021A48FFF72CFB0120FCF792
:105130009FFD00224FF480611548FFF723FB00BF5D
:105140001BE04FF6FF7000EA440400224FF4806138
:105150000F48FFF717FB0120FCF78AFD012291029F
:105160000B48FFF70FFB4FF400510948FFF702FB14
:1051700008B1601C84B2681CC5B2102DE1DB24119B
:10518000012211030248FFF7FDFA204670BD00001E
:10519000000402582DE9FE4380460027002406E063
:1051A0004046FFF799FF2DF81400601C84B2052CCF
:1051B000F6DB002416E0601C85B20FE03DF8140019
:1051C0003DF81510884207DD3DF814603DF81500E4
:1051D0002DF814002DF81560681C85B2052DEDDB47
:1051E000601C84B2042CE6DB0027012405E03DF8B6
:1051F0001400384487B2601C84B2042CF7DB03200F
:1052000097FBF0F086B23046BDE8FE832DE9F04111
:1052100006460F460D4890F8440000F0010040B1EA
:105220009020FFF7B7FF0546D020FFF7B3FF0446F5
:1052300007E0D020FFF7AEFF05469020FFF7AAFF5A
:10524000044635803C80BDE8F08100001800002451
:105250007FB504460D4602A903A8FFF7D7FF6946AC
:1052600001A8FFF7D3FFBDF80400BDF80C10884279
:1052700006DCBDF80C10BDF80400323081420CDBB6
:10528000BDF80C00BDF80410884237DCBDF80410EE
:10529000BDF80C003230814230DABDF80000BDF8B4
:1052A0000810884206DCBDF80810BDF80000323056
:1052B00081420CDBBDF80800BDF8001088421DDCFF
:1052C000BDF80010BDF808003230814216DABDF892
:1052D0000C10BDF80420881800EBD071C1F34F0109
:1052E0002180BDF80810BDF80020881800EBD071AF
:1052F000C1F34F012980012004B070BD0020FBE7FD
:1053000010B5054C0C2221462820FCF795FA0A21FD
:105310003420FCF7A3FA10BD5000002410B5044659
:1053200020214648FFF726FA002866D12CB14449CF
:10533000A1F11400FFF78CFF4EE04149A1F11400E8
:10534000FFF786FFF0B33E49203989893C4A203A6D
:10535000B2F84020891A09B200EE101AB8EEC00A5D
:105360003749203991ED0E1AC0EE010A35490888F7
:1053700000EBD071491000EE101AB8EEC00A30EE02
:10538000800ABCEEC00A10EE101A2D4A203A918114
:105390001146098CB2F84220891A09B200EE101A9F
:1053A000B8EEC00A2649203991ED0F1AC0EE010A65
:1053B0002449488800EBD071491000EE101AB8EE6D
:1053C000C00A00E008E030EE800ABCEEC00A10EE31
:1053D000101A1B4A203A118419482038808E00F494
:1053E000004020BB4FF440401549203988860846CC
:1053F0008189C183018C418619E011482038808E53
:1054000000F4004040B10E482038808E20F4004067
:105410000B49203988860AE0002109482038C183D9
:1054200041864FF6FF700649203988810884044878
:10543000203890F83400002010BD0000000402580D
:10544000380000242C01002470B50446002500BF5C
:1054500023E004F0800028B10122D1021048FFF7B8
:1054600091F905E000224FF400610D48FFF78AF939
:105470006006040E00224FF480610948FFF782F9AC
:105480000120FCF7F5FB012291020548FFF77AF9AC
:105490000120FCF7EDFB681CC5B2082DD9DB70BDFF
:1054A000000402587CB506460C4600BF324800682E
:1054B00040F001003049086000BF00BF08460068A6
:1054C00040F00100086000BF00BF2B4810300068AA
:1054D00040F0100028491031086000BF0120009002
:1054E00000230222410201902448FFF757F90120CE
:1054F000009000230222810201902048FFF74EF91C
:1055000007224FF400711D48FFF700F907224FF4FE
:1055100080611A48FFF7FAF81948704300EB54000D
:10552000B0FBF4F51748C56000201649086008462E
:10553000006808600846006808600846006808605F
:105540000846006840F0080008600846006840F01F
:10555000040008600846006840F02000086002234C
:10556000252203210846FFF771F90648006840F03C
:105570000100044908607CBDE04402580000025864
:1055800040420F000010014010B500290AD00878F1
:10559000002807D005487844FBF75AF8002801D0C6
:1055A000002010BD0248784410BD000062310000A8
:1055B0005A3100004FF04070E1EE100A7047FBF7DF
:1055C000B1B9000000F80000E00700001F00000073
:1055D00040BC0000E0FF00001FF80000FF070000D3
:1055E0007C7D000007FC000030840000000000000B
:1055F0000000000000000000000000003F4000002C
:1056000000000000000030004000300040000000BA
:1056100009000BC03D000BC03D00090018C024402C
:105620007FE0224031800000180024C01B000D8064
:105630003240018003801C4027401C80074000400E
:1056400010006000000000000000000000000000EA
:1056500000001F80204040200000402020401F808C
:1056600000000000090006001F800600090000007D
:10567000040004003F8004000400000000100060EB
:10568000000000000000000004000400040004000A
:1056900004000000000000400000000000000000C6
:1056A000002001C006003800400000001F8020409C
:1056B000204020401F800000000010403FC00040FC
:1056C0000000000018C02140224024401840000083
:1056D00010802040244024401B80000002000D0068
:1056E00011003FC0014000003C8024402440244081
:1056F000238000001F8024402440344003800000A9
:105700003000200027C03800200000001B8024400B
:10571000244024401B8000001C0022C02240224064
:105720001F80000000000000084000000000000092
:105730000000000004600000000000000000040001
:105740000A001100208040400900090009000900FA
:105750000900000000004040208011000A00040001
:105760001800200023402400180000001F80204063
:10577000274029401F400000004007C039000F00AB
:1057800001C0004020403FC0244024401B80000056
:105790001F802040204020403080000020403FC03B
:1057A000204020401F80000020403FC024402E4069
:1057B00030C0000020403FC024402E0030000000D8
:1057C0000F001080204022403380020020403FC064
:1057D000040004003FC02040204020403FC0204043
:1057E000204000000060202020203FC0200020003A
:1057F00020403FC024400B0030C0204020403FC02C
:1058000020400040004000C03FC03C0003C03C00BE
:105810003FC0000020403FC00C4023003FC020009C
:105820001F802040204020401F80000020403FC0BB
:1058300024402400180000001F802140214020E067
:105840001FA0000020403FC02440260019C0004097
:1058500018C0244024402240318000003000204005
:105860003FC020403000000020003F80004000404A
:105870003F80200020003E0001C0070038002000CB
:10588000380007C03C0007C038000000204039C085
:10589000060039C0204000002000384007C03840D2
:1058A00020000000304021C02640384020C00000C9
:1058B000000000007FE04020402000000000700059
:1058C0000C000380004000000000402040207FE0EA
:1058D0000000000000002000400020000000000048
:1058E0000010001000100010001000100000000058
:1058F000400000000000000000000280054005405C
:1059000003C0004020003FC004400440038000006A
:1059100000000380044004400640000000000380B3
:10592000044024403FC00040000003800540054083
:1059300003400000000004401FC024402440200019
:10594000000002E0055005500650042020403FC0F2
:105950000440040003C000400000044027C0004091
:105960000000000000100010041027E000000000FC
:1059700020403FC00140070004C0044020402040B8
:105980003FC000400040000007C0040007C0040002
:1059900003C00000044007C00440040003C00040EE
:1059A000000003800440044003800000041007F05E
:1059B00004500440038000000000038004400450B1
:1059C00007F00010044007C002400400040000007B
:1059D000000006400540054004C00000000004002F
:1059E0001F80044000400000040007800040044085
:1059F00007C000400400070004C001800600040046
:105A0000060001C0070001C006000000044006C0F7
:105A1000010006C0044000000410071004E00180EB
:105A2000060004000000044005C0064004400000D9
:105A30000000000004007BE04020000000000000A7
:105A40000000FFF000000000000040207BE00400A8
:105A500000000000400080004000200020004000C6
:105A60000000000000000000000000000000000036
:105A70000000000000001FCC000C0000000000002F
:105A800000000800300060000800300060000000E6
:105A9000022003FC1E20022003FC1E200220000026
:105AA00000000E1811043FFF10840C780000000065
:105AB0000F0010840F3800C00778188400780000A9
:105AC00000780F8410C411240E9800E400840008AC
:105AD00008006800700000000000000000000000E6
