:020000040800F2
:10000000800C002441030008BB450008B3450008EC
:10001000B745000839070008A55F00080000000088
:1000200000000000000000000000000089480008F7
:100030003D07000800000000BD4500088B4800088F
:100040005F0300085F0300085F0300085F03000808
:100050005F0300085F0300085F0300085F030008F8
:100060005F0300085F0300085F0300085F030008E8
:100070005F0300085F0300085F0300085F030008D8
:100080005F0300085F0300085F0300085F030008C8
:100090005F0300085F0300085F0300085F030008B8
:1000A0005F0300085F0300085F0300085F030008A8
:1000B0005F0300085F0300085F0300085F03000898
:1000C0005F0300085F0300085F0300085F03000888
:1000D0005F030008955F00085F0300085F030008E6
:1000E0005F0300085F030008000000005F030008D2
:1000F0005F0300085F0300085F0300085F03000858
:100100005F0300085F0300085F0300085F03000847
:100110005F0300085F0300085F0300085F03000837
:100120005F0300085F0300085F0300085F03000827
:100130005F0300085F0300085F0300085F03000817
:100140005F0300085F0300080000000000000000DB
:100150005F0300085F0300085F0300085F030008F7
:100160005F0300085F0300085F0300085F030008E7
:100170005F0300085F0300085F0300080000000041
:100180005F0300085F0300085F0300085F030008C7
:100190005F0300085F0300085F0300085F030008B7
:1001A0005F0300085F0300085F0300085F030008A7
:1001B0005F0300085F0300085F0300085F03000897
:1001C0005F0300085F0300085F0300085F03000887
:1001D0005F0300085F0300085F0300085F03000877
:1001E0005F0300085F0300085F0300085F03000867
:1001F0005F0300085F0300085F0300085F03000857
:100200005F0300085F0300085F0300085F03000846
:10021000BD4900085F0300085F0300085F03000892
:100220005F0300085F0300085F0300085F03000826
:100230005F0300085F0300085F0300085F03000816
:100240005F0300085F0300085F0300085F03000806
:100250005F0300085F0300085F0300085F030008F6
:100260005F0300085F0300085F0300085F030008E6
:100270005F0300085F0300085F0300085F030008D6
:100280005F0300085F0300085F0300080000000030
:100290005F0300085F03000800F002F800F041F877
:1002A0000AA090E8000C82448344AAF10107DA45D1
:1002B00001D100F036F8AFF2090EBAE80F0013F0E2
:1002C000010F18BFFB1A43F00103184784620000B6
:1002D000A4620000103A24BF78C878C1FAD8520747
:1002E00024BF30C830C144BF04680C6070470000B0
:1002F0000023002400250026103A28BF78C1FBD82F
:10030000520728BF30C148BF0B607047642900F016
:10031000F380002070471FB506F000F91FBD10B52F
:1003200010BD00F0D7F91146FFF7F5FF05F0E4FE28
:1003300000F0F5F903B4FFF7F2FF03BC05F050FE3F
:100340000A4880470A4880470A480047FEE7FEE718
:10035000FEE7FEE7FEE7FEE7FEE7FEE7FEE7FEE775
:1003600005480649064A074B704700004107000848
:10037000954800089902000880020024800C00249F
:100380008004002480040024704753EA020C00F02B
:1003900069802DE9F04B4FF00006002B1FBFB3FA28
:1003A00083F503FA05F424FA05F65E4012BF1643FE
:1003B000B2FA82F502FA05F4C5F120051EBF22FA51
:1003C00005FC44EA0C04203556EA044C4FEA144478
:1003D00018BF641C4FF000084FF00009904271EB09
:1003E000030C39D3002919BFB1FA81F701FA07F6D6
:1003F000B0FA80F700FA07F6C7F120071EBF20FA0F
:1004000007FC46EA0C062037B6FBF4FCA7EB050711
:10041000103F07F01F0BCBF120060CFA0BFB2CFA58
:1004200006F644BFB3460026202FA4BF5E464FF019
:10043000000B5BEA060C08BF4FF0010B19EB0B0930
:10044000ABFB027C48EB0608C01B06FB02CC0BFB97
:1004500003CC71EB0C01C1E70B460246414648460E
:10046000BDE8F08B13B54FF000004FF00001AFF383
:100470000080BDE81C4070470FB4044910B503AAC2
:10048000029800F0F9F810BC5DF814FB0C00002491
:100490002DE9F0410E460446002020622046E16826
:1004A000884730B3252805D0D4E901219047206A38
:1004B000401CF2E7E168204600278847050018D075
:1004C000A5F14100192802D820354FF400673246C3
:1004D000294620462760FFF719FF40B1012804D0C4
:1004E000F61D26F007060836D8E7361DD6E728465B
:1004F000DAE7206ABDE8F0812DE9F04106460024E4
:1005000010687529314616A510D0AFF30080002879
:1005100002DA404213A507E031688A0701D512A527
:1005200002E0490704D511A5012401E0AFF30080E2
:1005300000210A2206F1240709E0B0FBF2FCB0FB1F
:10054000F2F302FB1C00303078541846491C002896
:10055000F3D123462A463046BDE8F04100F033B8D7
:10056000000000002D0000002B0000002000000013
:100570004FF0000200B5134694469646203922BF3C
:10058000A0E80C50A0E80C50B1F12001BFF4F7AF87
:10059000090728BFA0E80C5048BF0CC05DF804EB69
:1005A000890028BF40F8042B08BF704748BF20F8D7
:1005B000022B11F0804F18BF00F8012B70477047D5
:1005C0007047704770472DE9F0470D4699469246AF
:1005D000044600F124080168880604D5E06921F08A
:1005E0001001216000E00120A84201DD471B00E06E
:1005F0000027A1697A1902EB0900081AA061207886
:10060000C00602D42046AFF30080002608E0D4E9FB
:1006100001211AF806009047206A401C761C2062CF
:100620004E45F4DB2078C0060AD52046AFF30080A3
:1006300006E0D4E9012130209047206A401C206266
:10064000381EA7F10107F4DC07E0D4E9012118F80E
:1006500005009047206A401C2062281EA5F1010574
:10066000F3DC2046AFF300802078000602D502209C
:10067000BDE8F0870120FBE7074B70B50D467B44D2
:1006800000F011F80446284600F020F810B14FF0B1
:10069000FF3070BD204670BDCB59000001694A1C77
:1006A00002610878704700B58FB0CDE901310021B3
:1006B000059105497944CDE9031011466846FFF7D5
:1006C000E7FE0FB000BD0000E5FFFFFF007B00F07C
:1006D00080007047754600F02BF8AE46050069466D
:1006E000534620F00700854618B020B5FFF738FEC6
:1006F000BDE820404FF000064FF000074FF0000823
:100700004FF0000B21F00701AC46ACE8C009ACE8A3
:10071000C009ACE8C009ACE8C0098D46704710B507
:100720000446AFF300802046BDE81040FFF702BE4C
:10073000004870471C02002400BFFEE7704700001D
:100740000848006820F0040040F0020005490860F5
:1007500000BF04480838006800F400500028F8D0B2
:10076000704700000C4802582DE9F041044600F0A3
:1007700049FD804614B90120BDE8F08194F83500A8
:10078000022808D08020606500BF002084F8340073
:1007900000BF0120F0E7FE492068884249D0FC49AB
:1007A00018312068884244D0F949303120688842A5
:1007B0003FD0F7494831206888423AD0F449603147
:1007C0002068884235D0F24978312068884230D09C
:1007D000EF499031206888422BD0ED49A83120683C
:1007E000884226D0EB492068884222D0E949183156
:1007F000206888421DD0E74930312068884218D0EF
:10080000E44948312068884213D0E24960312068C9
:1008100088420ED0DF4978312068884209D0DD490E
:1008200090312068884204D0DA49A8312068884293
:1008300001D1012000E0002068B12068006820F0AC
:100840001E00216808602068406920F0800021684F
:100850004861256806E02068006820F00E002168E5
:1008600008602568CA492068884270D0C849183194
:10087000206888426BD0C64930312068884266D0F3
:10088000C34948312068884261D0C149603120683D
:1008900088425CD0BE4978312068884257D0BC4934
:1008A00090312068884252D0B949A83120688842E6
:1008B0004DD0B8492068884249D0B64918312068DF
:1008C000884244D0B3493031206888423FD0B14992
:1008D0004831206888423AD0AE4960312068884269
:1008E00035D0AC4978312068884230D0A949903160
:1008F000206888422BD0A749A8312068884226D09A
:10090000A5492068884222D0A34914312068884232
:100910001DD0A14928312068884218D09E493C3119
:100920002068884213D09C495031206888420ED0FC
:10093000994964312068884209D097497831206804
:10094000884204D094498C312068884201D101202A
:1009500000E0002028B1206E006820F48070216E35
:1009600008608B492068884249D08949183120683D
:10097000884244D086493031206888423FD084493B
:100980004831206888423AD08149603120688842E5
:1009900035D07F4978312068884230D07C49903109
:1009A000206888422BD07A49A8312068884226D016
:1009B00078492068884222D07649183120688842D8
:1009C0001DD0744930312068884218D071494831AF
:1009D0002068884213D06F496031206888420ED069
:1009E0006C4978312068884209D06A499031206882
:1009F000884204D06749A8312068884206D120681F
:100A0000006820F001002168086005E020680068A7
:100A100020F001002168086011E000F0F3FBA0EB7A
:100A2000080005280BD920206065032084F83500D4
:100A300000BF002084F8340000BF01209CE6286835
:100A400000F001000028E8D151492068884249D0CF
:100A50004F4918312068884244D04D4930312068D0
:100A600088423FD04A494831206888423AD04849B4
:100A700060312068884235D0454978312068884205
:100A800030D043499031206888422BD04049A8316A
:100A90002068884226D03F492068884222D03D49BC
:100AA0001831206888421DD03A4930312068884288
:100AB00018D0384948312068884213D03549603110
:100AC000206888420ED0334978312068884209D0A6
:100AD000304990312068884204D02E49A8312068DE
:100AE000884201D1012000E0002040B1A66D94F8B9
:100AF0005C0000F01F013F208840B06007E0A76D58
:100B000094F85C0000F01F010120884078602049C3
:100B10002068884276D01E4918312068884271D0FA
:100B20001B493031206888426CD01949483120680F
:100B3000884267D0164960312068884262D01449E3
:100B40007831206888425DD0114990312068884210
:100B500058D00F49A8312068884253D00D492068E9
:100B600088424FD00B491831206888424AD0094941
:100B700030312068884245D0064948312068884293
:100B800040D004496031206888423BD0014905E0EB
:100B900010000240100402400854025878312068C6
:100BA00088422FD02549206888422BD0234918310C
:100BB0002068884226D022492068884222D02049D5
:100BC0001431206888421DD01D4928312068884290
:100BD00018D01B493C312068884213D01849503145
:100BE000206888420ED0164964312068884209D0B6
:100BF000134978312068884204D011498C3120682B
:100C0000884201D1012000E0002068B1D4E9191028
:100C10004860E06E40B1E06E006820F48070E16EE4
:100C20000860D4E91C104860012084F8350000BF3A
:100C3000002084F8340000BF00BF9DE5A0040240FE
:100C40000854025870B504460CB9012070BD94F8E0
:100C50003500022803D0802060650120F6E7DC49DA
:100C60002068884249D0DA4918312068884244D047
:100C7000D7493031206888423FD0D5494831206873
:100C800088423AD0D24960312068884235D0D04974
:100C900078312068884230D0CD4990312068884230
:100CA0002BD0CB49A8312068884226D0C94920687A
:100CB000884222D0C7491831206888421DD0C549D2
:100CC00030312068884218D0C249483120688842B3
:100CD00013D0C0496031206888420ED0BD497831B8
:100CE0002068884209D0BB4990312068884204D0EE
:100CF000B849A8312068884201D1012000E00020D5
:100D0000F0B3042084F83500B149206888424BD004
:100D1000AF4918312068884246D0AD49303120684B
:100D2000884241D0AA494831206888423CD0A8492D
:100D300060312068884237D0A549783120688842E0
:100D400032D0A3499031206888422DD0A049A831E3
:100D50002068884228D09F492068884224D09D4935
:100D60001831206888421FD09A4930312068884263
:100D70001AD0984948312068884215D0954900E03A
:100D800020E06031206888420ED092497831206896
:100D9000884209D08F4990312068884204D08D491B
:100DA000A8312068884206D12068006820F0010040
:100DB0002168086009E12068006820F001002168CE
:100DC000086002E12068006820F00E0021680860D9
:100DD0007F492068884249D07D491831206888427F
:100DE00044D07B493031206888423FD0784948312F
:100DF000206888423AD0764960312068884235D0F0
:100E0000734978312068884230D071499031206828
:100E100088422BD06E49A8312068884226D06D497F
:100E20002068884222D06B491831206888421DD042
:100E3000684930312068884218D0664948312068B6
:100E4000884213D063496031206888420ED06149DE
:100E500078312068884209D05E4990312068884204
:100E600004D05C49A8312068884206D12068006817
:100E700020F001002168086005E02068006820F08B
:100E800001002168086052492068884270D05049AA
:100E90001831206888426BD04D4930312068884233
:100EA00066D04B4948312068884261D0484960315A
:100EB000206888425CD0464978312068884257D003
:100EC000434990312068884252D04149A831206876
:100ED00088424DD03F492068884249D03D49183169
:100EE0002068884244D03B493031206888423FD056
:100EF00038494831206888423AD036496031206804
:100F0000884235D0334978312068884230D0314921
:100F10009031206888422BD02E49A8312068884221
:100F200026D02D492068884222D02B4914312068D0
:100F300088421DD0284928312068884218D0264987
:100F40003C312068884213D02349503120688842C0
:100F50000ED0214964312068884209D01E49783179
:100F60002068884204D01C498C312068884201D115
:100F7000012000E00020D8B1206E006820F48070CD
:100F8000216E0860A56D94F85C0000F01F0101203F
:100F900088406860D4E919104860E06E40B1E06EA6
:100FA000006820F48070E16E0860D4E91C1048608D
:100FB000012084F8350000BF002084F8340000BF11
:100FC000206D10B12046216D884700203EE60000CC
:100FD0001000024010040240085402580348006800
:100FE00040F00100014908607047000020040058EB
:100FF000F8B502460B4600216F4DD7E001278F4020
:101000001E6806EA0704002C72D01E7906F003065B
:10101000012E04D01E7906F00306022E13D190682B
:101020004F000326BE40B0434F00DE68BE40304351
:101030009060506801268E40B0431E79C6F30016BA
:101040008E40304350601E7906F00306032E09D00F
:10105000D0684F000326BE40B0434F009E68BE409C
:101060003043D0601E7906F00306022E13D1CF085C
:1010700002F1200656F827004E07F70E0F26BE4055
:10108000B0434F07FF0E1E69BE403043CF0802F148
:10109000200646F8270010684F000326BE40B043E4
:1010A0001E7906F003064F00BE40304310605E68B4
:1010B00006F44036002E78D000BF404E366846F029
:1010C00002063E4F3E603E46366806F00206009637
:1010D00000BF00BF3A4E8F0856F827008E07370F23
:1010E0000F26BE40B043374EB24202D100262EE05A
:1010F0005BE0354EB24201D1012628E0334EB242C8
:1011000001D1022623E0324EB24201D103261EE075
:10111000304EB24201D1042619E02F4EB24201D125
:10112000052614E02D4EB24201D106260FE02C4ECA
:10113000B24201D107260AE02A4EB24201D1082666
:1011400005E0294EB24201D1092600E00A268F07A8
:101150003F0FBE4030431A4E8F0846F827004FF02D
:10116000B0463068A0435E6806F4801606B120439E
:101170004FF0B04630607068A0435E6806F4001619
:1011800006B120434FF0B04670606868A0435E68C7
:1011900006F4003606B1204368602868A0435E6804
:1011A00006F4803606B120432860491C1E68CE40F4
:1011B000002E7FF423AFF8BD80000058F44402589D
:1011C00008040058000002580004025800080258A1
:1011D000000C02580010025800140258001802585F
:1011E000001C025800200258002402580AB18161F4
:1011F00001E00B048361704701480068000C7047F0
:101200000010005C014800687047000014000024D2
:101210000348006803490978084401490860704799
:10122000140000241C00002410B5052000F0AAF8CA
:1012300001F0C0FB10490968C1F303210F4A515C5A
:1012400001F01F0120FA01F40B48006800F00F00C4
:101250001146085C00F01F0024FA00F008490860FD
:10126000084804600F2000F00FF808B1012010BDFD
:1012700000F036F80020FAE7184402582665000806
:10128000040000240000002470B5044611480078D2
:1012900008B9012070BD0F4800784FF47A71B1FB96
:1012A000F0F00D490968B1FBF0F5284602F0C4F8EA
:1012B00008B10120EEE7102C07D200222146501E73
:1012C00000F023F80548046001E00120E2E7002077
:1012D000E0E700001C0000240000002418000024A7
:1012E00070470146084600280DDB00BF00BF00F034
:1012F0001F0301229A4043099B0003F1E023C3F836
:10130000002100BF00BF00BF70472DE9F05F80469D
:101310000D46164604F048FE074639462A4633462F
:1013200001F00700C0F1070ABAF1040F02D94FF02B
:10133000040A01E0C0F1070AD14600F1040ABAF13B
:10134000070F02D24FF0000A01E0A0F1030AD446D1
:101350004FF0010A0AFA09FAAAF1010A0AEA020A96
:101360000AFA0CFA4FF0010B0BFA0CFBABF1010B74
:101370000BEA030B4AEA0B042146404604F01CFE2C
:10138000BDE8F09F00BF00F00702064B19684FF65A
:10139000FF031940044B0B4343EA0221014B196040
:1013A00000BF70470CED00E00000FA05034800683C
:1013B00040F0807001490860704700000C480258F6
:1013C00010B501F0ADFA05490968C1F30211044AEC
:1013D000515C01F01F01C84010BD000020440258BC
:1013E0002665000870B50146844D2D6805F003039D
:1013F000824D2D68C5F30530804D2D1D2D68C5F338
:1014000000147E4D14352D68C5F3CC0515FB04F58D
:1014100001EE105AB8EE411AF0EE410A00286FD0E2
:1014200023B1012B4ED0022B6BD16BE0734D283DC5
:101430002D68C5F340153DB3704D283D2D68C5F3AB
:10144000C1066F4D25FA06F201EE102AF8EE411A98
:1014500001EE100AB8EE411A81EE812A9FED691A59
:10146000C0EE811A654D10352D68C5F3080501EEF3
:10147000105AB8EE411A31EE811AF7EE001A31EE29
:10148000211A22EE010A1CE001EE100AB8EE411A00
:10149000DFED5D1A81EE812A9FED5A1AC0EE811AA6
:1014A000564D10352D68C5F3080501EE105AB8EEFB
:1014B000411A31EE811AF7EE001A31EE211A22EEAE
:1014C000010A5BE001EE100AB8EE411ADFED4F1A97
:1014D00081EE812A9FED4B1AC0EE811A474D1035DF
:1014E0002D68C5F3080501EE105AB8EE411A31EE29
:1014F000811AF7EE001A31EE211A22EE010A3DE0C0
:1015000077E01DE001EE100AB8EE411A9FED402A87
:10151000C2EE011A9FED3B1A80EE812A374D10353D
:101520002D68C5F3080501EE105AB8EE411A32EEE7
:10153000011AB7EE002A31EE021A21EE810A1DE0EF
:1015400001EE100AB8EE411ADFED301A81EE812A61
:101550009FED2C1AC0EE811A284D10352D68C5F369
:10156000080501EE105AB8EE411A31EE811AF7EE75
:10157000001A31EE211A22EE010A00BF00BF1F4DF2
:1015800010352D68C5F3462501EE105AB8EE411A04
:10159000F7EE001A31EE211AC0EE011ABCEEE11A84
:1015A00081ED001A154D10352D68C5F3064501EE85
:1015B000105AB8EE411AF7EE001A31EE211AC0EEB9
:1015C000011ABCEEE11A81ED011A0C4D10352D689F
:1015D000C5F3066501EE105AB8EE411AF7EE001A8F
:1015E00031EE211AC0EE011ABCEEE11A81ED021AA9
:1015F00003E000250D604D608D6070BD28440258E9
:101600000090D003000000460024744C0024744A6B
:1016100020BCBE4B70B50146844D2D6805F0030318
:10162000824D2D68C5F30550804D2D1D2D68C5F3E5
:1016300000247E4D1C352D68C5F3CC0515FB04F543
:1016400001EE105AB8EE411AF0EE410A00286FD0B0
:1016500023B1012B4ED0022B6BD16BE0734D283D93
:101660002D68C5F340153DB3704D283D2D68C5F379
:10167000C1066F4D25FA06F201EE102AF8EE411A66
:1016800001EE100AB8EE411A81EE812A9FED691A27
:10169000C0EE811A654D18352D68C5F3080501EEB9
:1016A000105AB8EE411A31EE811AF7EE001A31EEF7
:1016B000211A22EE010A1CE001EE100AB8EE411ACE
:1016C000DFED5D1A81EE812A9FED5A1AC0EE811A74
:1016D000564D18352D68C5F3080501EE105AB8EEC1
:1016E000411A31EE811AF7EE001A31EE211A22EE7C
:1016F000010A5BE001EE100AB8EE411ADFED4F1A65
:1017000081EE812A9FED4B1AC0EE811A474D1835A4
:101710002D68C5F3080501EE105AB8EE411A31EEF6
:10172000811AF7EE001A31EE211A22EE010A3DE08D
:1017300077E01DE001EE100AB8EE411A9FED402A55
:10174000C2EE011A9FED3B1A80EE812A374D183503
:101750002D68C5F3080501EE105AB8EE411A32EEB5
:10176000011AB7EE002A31EE021A21EE810A1DE0BD
:1017700001EE100AB8EE411ADFED301A81EE812A2F
:101780009FED2C1AC0EE811A284D18352D68C5F32F
:10179000080501EE105AB8EE411A31EE811AF7EE43
:1017A000001A31EE211A22EE010A00BF00BF1F4DC0
:1017B00018352D68C5F3462501EE105AB8EE411ACA
:1017C000F7EE001A31EE211AC0EE011ABCEEE11A52
:1017D00081ED001A154D18352D68C5F3064501EE4B
:1017E000105AB8EE411AF7EE001A31EE211AC0EE87
:1017F000011ABCEEE11A81ED011A0C4D18352D6865
:10180000C5F3066501EE105AB8EE411AF7EE001A5C
:1018100031EE211AC0EE011ABCEEE11A81ED021A76
:1018200003E000250D604D608D6070BD28440258B6
:101830000090D003000000460024744C0024744A39
:1018400020BCBE4B2DE9F04104460025A8464FF0D0
:101850000062D4E90001104000211346584049407D
:10186000084331D1E06E48B1B0F5801F0DD0B0F51E
:10187000001F11D0B0F5401F16D114E0FB480068DE
:1018800040F40030F949086010E0022104F108003A
:1018900002F096FE054609E0022104F1280002F05C
:1018A00041FF054602E001E0012500BF00BF55B938
:1018B000EE482430006820F44010E16E0843EB4904
:1018C0002431086000E0A8464FF48072D4E900019A
:1018D0001040002113465840494008432ED1E06D86
:1018E00005281BD2DFE800F0030A11181900DF48B1
:1018F000006840F40030DD49086011E0002104F187
:10190000080002F05DFE05460AE0002104F128000F
:1019100002F008FF054603E002E001E0012500BFF8
:1019200000BF55B9D1482430006820F00700E16DB0
:101930000843CE492431086000E0A8464FF4007205
:10194000D4E90001104000211346584049400843A3
:1019500034D1206E802818D003DC40B140281DD13E
:101960000CE0C02818D0B0F5807F17D115E0BF4833
:10197000006840F40030BD49086011E0002104F126
:10198000080002F01DFE05460AE0002104F12800CF
:1019900002F0C8FE054603E002E001E0012500BFB9
:1019A00000BF55B9B1482430006820F4E070216EC2
:1019B0000843AE492431086000E0A8464FF4806235
:1019C000D4E9001011400020134659404040014323
:1019D00039D1D4F8AC00B0F5800F1AD004DC50B186
:1019E000B0F5001F1ED10DE0B0F5C00F18D0B0F556
:1019F000000F17D115E09D48006840F400309B4966
:101A0000086011E0002104F1080002F0D9FD05464C
:101A10000AE0002104F1280002F084FE054603E0FC
:101A200002E001E0012500BF00BF5DB98F482C3006
:101A3000006820F46000D4F8AC1008438B492C31C6
:101A4000086000E0A8464FF40063D4E90010194094
:101A5000002059404040014339D1D4F8B000B0F1E2
:101A6000007F1AD004DC50B1B0F1807F1ED10DE0B0
:101A7000B0F1407F18D0B0F1806F17D115E07B48EE
:101A8000006840F400307949086011E0002104F159
:101A9000080002F095FD05460AE0002104F1280047
:101AA00002F040FE054603E002E001E0012500BF30
:101AB00000BF5DB96D482C30006820F0E060D4F8BC
:101AC000B010084369492C31086000E0A8464FF087
:101AD0000072D4E9000110400021134658404940EB
:101AE000084328D1E06CA8B1102804D0202809D0E0
:101AF000302810D10DE05D48006840F400305B49AB
:101B000008600AE0022104F1080002F059FD0546D0
:101B100003E002E001E0012500BF00BF55B95348D2
:101B20002030006820F03000E16C08434F4920313C
:101B3000086000E0A8464FF48053D4E90010194033
:101B4000002059404040014337D1606EB0F5005F3E
:101B50001AD004DC50B1B0F5805F1ED10DE0B0F5B5
:101B6000405F18D0B0F5804F17D115E03F480068AE
:101B700040F400303D49086011E0002104F1080004
:101B800002F01EFD05460AE0002104F1280002F0E3
:101B9000C9FD054603E002E001E0012500BF00BFEA
:101BA00055B932482430006820F4E040616E0843A3
:101BB0002E492431086000E0A8464FF40053D4E9D0
:101BC00000101940002059404040014335D1A06E1B
:101BD000B0F5403F1ED007DC68B1B0F5803F0BD0B8
:101BE000B0F5003F19D10EE0B0F5802F13D0B0F55D
:101BF000A02F12D110E012E0012104F1080002F040
:101C0000DFFC05460BE0012104F1280002F08AFD0B
:101C1000054604E003E002E001E0012500BF00BF4B
:101C200055B912482430006820F4E020A16E084322
:101C30000E492431086000E0A8464FF48043D4E9FF
:101C400000101940002059404040014338D1D4F8D9
:101C5000B400B0F1405F21D00ADC80B1B0F1805F08
:101C60000ED0B0F1005F1CD111E000002C440258EE
:101C7000B0F1804F13D0B0F1A04F12D110E012E0BC
:101C8000012104F1080002F09BFC05460BE0012154
:101C900004F1280002F046FD054604E003E002E0FE
:101CA00001E0012500BF00BF4DB9F748006820F0F2
:101CB000E040D4F8B4100843F349086000E0A846B7
:101CC0004FF08063D4E90010194000205940404093
:101CD00001431CD1206D48B1B0F5807F07D10121AF
:101CE00004F1080002F06CFC054602E001E0012569
:101CF00000BF00BF55B9E4480C38006820F480707C
:101D0000216D0843E0490C39086000E0A8464FF413
:101D10000043D4E9000118400021584049400843DD
:101D200029D1606FB0B1B0F1805F03D0B0F1005F36
:101D300011D108E0D4482C38006840F40030D24972
:101D40002C39086009E0012104F1080002F038FC98
:101D5000054602E001E0012500BF00BF55B9CA48B1
:101D60000838006820F04050616F0843C6490839C0
:101D7000086000E0A8464FF08072D4E900101140DE
:101D8000002013465940404001432AD1A06CB8B10D
:101D9000012804D002280BD0032812D10FE0BA4842
:101DA0002C38006840F40030B7492C3908600AE04C
:101DB000022104F1080002F003FC054603E002E002
:101DC00001E0012500BF00BF55B9AF480C380068DD
:101DD00020F00300A16C0843AB490C39086000E017
:101DE000A8464FF48002D4E90001104000211346B8
:101DF0005840494008437DD1A448006840F48070B1
:101E0000A2490860FFF7FEF9064606E0FFF7FAF977
:101E1000801B642801D9032505E09C48006800F474
:101E200080700028F2D000BF85BB9748183000684A
:101E300000F44070B4F8B81001F44071884213D037
:101E400091481830006820F440778F4818300068B7
:101E500040F480308C49183108600846006820F44E
:101E60008030086008460760D4F8B800B0F5807F7D
:101E700015D1FFF7C7F9064609E0FFF7C3F9801B44
:101E800041F28831884202D9032507E038E07E48D4
:101E900018300068C0F340000028EED000BF55BBEA
:101EA00000BFB4F8B80000F44070B0F5407F0ED128
:101EB00075484838006820F47C51754AD4F8B80059
:101EC000104041EA101070494839086007E06E4838
:101ED0004838006820F47C506B49483908606A48EB
:101EE00018300068B4F8B810C1F30B010843664914
:101EF000183101E005E001E0086002E0A84600E0DA
:101F0000A8460122D4E90010114000201346594090
:101F10004040014332D1D4F8800018281AD005DCA3
:101F200048B1082808D0102817D10CE0202812D07A
:101F3000282812D110E012E0012104F1080002F07B
:101F40003FFB05460BE0012104F1280002F0EAFB0B
:101F5000054604E003E002E001E0012500BF00BF08
:101F60005DB94948001F006820F03800D4F880109F
:101F700008434549091F086000E0A8460223D4E948
:101F800000011840002158404940084329D1E06F22
:101F9000062816D2DFE800F003040B12131412E037
:101FA000012104F1080002F00BFB05460BE00121C2
:101FB00004F1280002F0B6FB054604E003E002E06D
:101FC00001E0012500BF00BF55B92F48001F006880
:101FD00020F00700E16F08432B49091F086000E06B
:101FE000A8460423D4E90001184000215840494084
:101FF000084329D1D4F89800062816D2DFE800F06B
:1020000003040B12131412E0012104F1080002F082
:10201000D7FA05460BE0012104F1280002F082FB0B
:10202000054604E003E002E001E0012500BF00BF37
:102030004DB91548006820F00700D4F898100843FF
:102040001149086000E0A8462023D4E900011840A7
:1020500000215840494008433CD1D4F89400B0F1E5
:10206000405F25D007DC68B1B0F1805F12D0B0F1DD
:10207000005F20D115E0B0F1804F1AD0B0F1A04F31
:1020800019D117E019E000005844025800480258DE
:10209000FFFCFF0F002104F1080002F091FA054651
:1020A0000BE0022104F1280002F03CFB054604E0AD
:1020B00003E002E001E0012500BF00BF4DB9FE488A
:1020C000006820F0E040D4F894100843FA49086012
:1020D00000E0A8464022D4E9001011400020134639
:1020E00059404040014337D1D4F8A000B0F5406FCB
:1020F0001ED007DC68B1B0F5806F0BD0B0F5006F73
:1021000019D10EE0B0F5805F13D0B0F5A05F12D109
:1021100010E012E0002104F1080002F051FA054637
:102120000BE0022104F1280002F0FCFA054604E06D
:1021300003E002E001E0012500BF00BF5DB9DE4819
:10214000001D006820F4E050D4F8A0100843DA49DC
:10215000091D086000E0A8468022D4E90010114063
:102160000020134659404040014337D1D4F8A40021
:10217000B0F5C04F1ED007DC68B1B0F5005F0BD0E2
:10218000B0F5804F19D10EE0B0F5004F13D0B0F587
:10219000204F12D110E012E0002104F1080002F0FB
:1021A0000FFA05460BE0022104F1280002F0BAFA0A
:1021B000054604E003E002E001E0012500BF00BFA6
:1021C0005DB9BD48001D006820F46040D4F8A4103B
:1021D0000843B949091D086000E0A8460823D4E96E
:1021E00000101940002059404040014315D1D4F857
:1021F0008800B0F5805F07D1022104F1280002F0C9
:1022000091FA08B14FF00108AB48006820F4405043
:10221000D4F888100843A84908601022D4E90001C6
:1022200010400021134658404940084317D1D4F8C4
:102230009C00B0F5807F07D1022104F1280002F054
:1022400071FA08B14FF001089B48001D006820F4A6
:102250004070D4F89C1008439749091D08604FF45A
:102260000022D4E9000110400021134658404940A3
:10227000084329D1D4F8A80030B1B0F5803F0AD086
:10228000B0F5003F0FD10DE0002104F1080002F08D
:1022900097F9054609E0022104F1280002F042FA0C
:1022A000054602E001E0012500BF00BF5DB982489C
:1022B000001D006820F44030D4F8A81008437E497F
:1022C000091D086000E0A8464FF48023D4E90010FF
:1022D000194000205940404001432BD1D4F88C00D4
:1022E000B0F5801F06D0B0F5001F0CD0B0F5401F30
:1022F00011D10FE070482838006840F400306E4972
:102300002839086009E0012104F1280002F00AFAE6
:10231000054602E001E0012500BF00BF4DB9664857
:10232000006820F44010D4F88C100843624908601B
:1023300000E0A8464FF48032D4E9000110400021AB
:10234000134658404940084325D1606D18B1B0F597
:10235000803F10D108E058482838006840F4003029
:1023600055492839086008E0022104F1080002F00C
:1023700027F9054601E0012500BF00BF55B94E48C9
:102380000838006820F48030616D08434A490839F4
:10239000086000E0A8464FF00053D4E9000118405F
:1023A000002158404940084307D1022104F1280088
:1023B00002F0B8F908B14FF001084FF40032D4E947
:1023C000000110400021134658404940084327D1DE
:1023D000D4F88400A0B1B0F5807F06D0B0F5007FBE
:1023E0000CD0B0F5407F0CD109E0334828380068A4
:1023F00040F4003030492839086004E003E002E08E
:1024000001E0012500BF00BF4DB92B48006820F452
:102410004070D4F8841008432749086000E0A846BB
:102420004FF48013D4E90010194000205940404077
:10243000014309D12048001F006820F00040A16F2F
:1024400008431D49091F08604FF08052D4E900106D
:102450001140002013465940404001430AD116481C
:102460004438006820F48040D4F8BC100843124976
:10247000443908604FF40013D4E9000118400021EA
:1024800058404940084309D10B48001F006820F01C
:102490008070216F08430849091F08604FF080438E
:1024A000D4E900011840002158404940084312D1A6
:1024B00000BF0148443801E054440258006820F449
:1024C00000404E49086008460068D4F8C010084330
:1024D0004A49086000BF4FF00042D4E900011040B3
:1024E0000021134658404940084309D143483C3035
:1024F000006820F04050A16D084340493C3108601D
:102500004FF40003D4E90010194000205940404026
:1025100001430AD139484430006820F44000D4F81F
:102520009010084335494431086001220020616859
:10253000114040405140084307D1002104F10800F8
:1025400002F03EF8054605B1A84602220020616867
:10255000114040405140084307D1012104F10800D7
:1025600002F02EF8054605B1A84604220021606855
:10257000104049405040014307D1022104F10800B6
:1025800002F01EF8054605B1A84608220021606841
:10259000104049405040014306D104F1280002F0A8
:1025A000C1F8054605B1A846102200216068104018
:1025B00049405040014307D1012104F1280002F0B5
:1025C000B1F8054605B1A8462023002061681940EE
:1025D000202240405140084307D1022104F1280045
:1025E00002F0A0F8054605B1A846B8F1000F02D1E7
:1025F0000020BDE8F0810120FBE7000010440258F4
:102600002DE9F04104460D4614B90120BDE8F081E2
:10261000BD48006800F00F00A8420ED2BA4800681A
:1026200020F00F002843B84908600846006800F011
:102630000F00A84201D00120E8E7207800F0040054
:1026400004280ED1B1492069096801F0700188425F
:1026500007D9AE48006820F0700021690843AB49F3
:102660000860207800F00800082811D1A749091D4A
:102670006069096801F07001884209D9A348001D0A
:10268000006820F0700061690843A049091D0860D6
:10269000207800F01000102811D19C49091DA06974
:1026A000096801F4E061884209D99848001D006872
:1026B00020F4E060A16908439449091D086020786E
:1026C00000F02000202811D190490831E069096804
:1026D00001F07001884209D98C480830006820F068
:1026E0007000E1690843894908310860207800F0EA
:1026F000020002280ED18549E068096801F00F0147
:10270000884207D98148006820F00F00E16808433B
:102710007E490860207800F00100002850D07B48F6
:10272000006820F47060A168084378490860606818
:10273000022807D1754818380068C0F34040F8B93E
:10274000012063E76068032807D1704818380068E3
:10275000C0F34060A0B9012058E76068012807D1A4
:102760006A4818380068C0F3002048B901204DE7D6
:10277000664818380068C0F3800008B9012045E7B2
:1027800062480838006820F00700616808435F4924
:1027900008390860FEF736FD064608E0FEF732FD10
:1027A000801B41F28831884201D903202EE7574827
:1027B0000838006800F038006168B0EBC10FEDD157
:1027C000207800F0020002280ED15049E068096824
:1027D00001F00F01884207D24C48006820F00F003A
:1027E000E1680843494908604748006800F00F0065
:1027F000A8420ED94448006820F00F0028434249FF
:1028000008600846006800F00F00A84201D00120CF
:10281000FCE6207800F0040004280ED13B49206932
:10282000096801F07001884207D23848006820F03A
:1028300070002169084335490860207800F00800DD
:10284000082811D13149091D6069096801F070013A
:10285000884209D22D48001D006820F0700061698F
:1028600008432A49091D0860207800F0100010284C
:1028700011D12649091DA069096801F4E061884267
:1028800009D22248001D006820F4E060A1690843D5
:102890001E49091D0860207800F02000202811D171
:1028A0001A490831E069096801F07001884209D2CB
:1028B00016480830006820F07000E16908431349A9
:1028C0000831086000F076F810490968C1F3032167
:1028D0000F4A515C01F01F0120FA01F70B48006814
:1028E00000F00F001146085C00F01F0027FA00F00E
:1028F000084908600848076008480068FEF7C4FCFB
:102900008046404682E600000020005218440258EB
:10291000266500080400002400000024180000249C
:1029200010B500F047F80D490968C1F303210C4ABE
:10293000515C01F01F0120FA01F40848006800F022
:102940000F001146085C00F01F0024FA00F0054952
:102950000860054804600846006810BD1844025825
:1029600026650008040000240000002400B5FFF7DD
:10297000D7FF05490968C1F30211044A515C01F00F
:102980001F01C84000BD00001C4402582665000815
:1029900000B5FFF7C5FF05490968C1F30221044AE4
:1029A000515C01F01F01C84000BD00001C440258EA
:1029B00026650008F0B5824E366806F0380636B156
:1029C000082E15D0102E15D0182E7DD114E07C4E77
:1029D000103E3668C6F3401646B1794E103E366852
:1029E000C6F3C107774E26FA07F000E07548E5E028
:1029F0007548E3E07548E1E0714E1836366806F038
:102A000003046F4E18363668C6F305116C4E1C363B
:102A1000366806F001056A4E24363668C6F3CC06E1
:102A200016FB05F601EE106AB8EE410A002971D0D6
:102A300024B1012C50D0022C6DD16DE0604E103EBF
:102A40003668C6F340163EB35D4E103E3668C6F398
:102A5000C1075C4E26FA07F301EE103AF8EE411A70
:102A600001EE101AB8EE411A81EE812A9FED581A34
:102A7000C0EE011A524E20363668C6F3080601EE43
:102A8000106AB8EE411A31EE811AF7EE001A31EEF3
:102A9000211A62EE010A1EE001EE101AB8EE411A88
:102AA000DFED4C1A81EE812A9FED491AC0EE011A22
:102AB000434E20363668C6F3080601EE106AB8EEBB
:102AC000411A31EE811A00E076E0F7EE001A31EE9D
:102AD000211A62EE010A5BE001EE101AB8EE411A0B
:102AE0009FED3D2AC2EE011A9FED391A80EE012AB0
:102AF000334E20363668C6F3080601EE106AB8EE8B
:102B0000411A32EE011AB7EE002A31EE021A61EED6
:102B1000810A3DE04EE01DE001EE101AB8EE411AC8
:102B2000DFED2E1A81EE812A9FED291AC0EE011ADF
:102B3000234E20363668C6F3080601EE106AB8EE5A
:102B4000411A31EE811AF7EE001A31EE211A62EEC7
:102B5000010A1DE001EE101AB8EE411A9FED1E2A7F
:102B6000C2EE011A9FED1A1A80EE012A144E203689
:102B70003668C6F3080601EE106AB8EE411A32EE66
:102B8000011AB7EE002A31EE021A61EE810A00BF87
:102B900000BF0B4E20363668C6F34626721C01EE87
:102BA000102AB8EE411AC0EE811ABCEEE11A11EEFD
:102BB000100A00E0002001E0034800BF00BFF0BDA4
:102BC000104402580090D00300093D0040787D0178
:102BD000000000460024744C0024744A20BCBE4B04
:102BE0002DE9F047044614B90120BDE8F0872078AC
:102BF00000F00100002870D0FA48006800F03808A2
:102C0000F8481830D0F80090B8F1100F06D0B8F19D
:102C1000180F0FD109F0030002280BD1F14810382A
:102C20000068C0F3404000286AD06068002867D17F
:102C30000120DAE700BF6068B0F5803F08D1E948BD
:102C40001038006840F48030E649103908602EE002
:102C5000606868B9E3481038006820F48030E149C2
:102C6000103908600846006820F4802008601EE0E3
:102C70006068B0F5A02F0DD1DA481038006840F434
:102C80008020D849103908600846006840F4803038
:102C900008600CE0D3481038006820F48030D14937
:102CA000103908600846006820F48020086000BFE2
:102CB000606898B1FEF7A6FA054606E0FEF7A2FAAC
:102CC000401B642801D903208FE7C64810380068EC
:102CD000C0F340400028F1D012E012E0FEF792FA73
:102CE000054606E0FEF78EFA401B642801D9032052
:102CF0007BE7BC4810380068C0F340400028F1D1A1
:102D000000BF207800F00200022874D1B5480068A6
:102D100000F03808B3481830D0F80090B8F1000F30
:102D200005D0B8F1180F56D109F00300D0BBAD485B
:102D300010380068C0F3800018B1E06808B90120BD
:102D400053E7A8481038006820F01900E1680843EC
:102D5000A44910390860FEF755FA054606E0FEF76B
:102D600051FA401B022801D903203EE79D48103844
:102D70000068C0F380000028F1D000BFFEF73CFAE5
:102D800041F2030188421AD8206940280BD19548A6
:102D90000C38006820F47C3040F4003091490C3944
:102DA000086017E017E08F480C38006820F47C308A
:102DB000216940EA01308B490C3908600AE08948F2
:102DC0000C38006820F0FE40217C40EA0160854913
:102DD0000C39086066E0E06888B382481038006803
:102DE00020F01900E16808437E4910390860FEF7B9
:102DF00009FA054607E056E0FEF704FA401B0228F0
:102E000001D90320F1E6774810380068C0F380004C
:102E10000028F1D000BFFEF7EFF941F2030188422C
:102E20001AD8206940280BD16E480C38006820F46D
:102E30007C3040F400306B490C39086017E017E033
:102E400068480C38006820F47C30216940EA013081
:102E500064490C3908600AE062480C38006820F0C8
:102E6000FE40217C40EA01605E490C39086019E0AF
:102E70005C481038006820F001005A491039086099
:102E8000FEF7C0F9054606E0FEF7BCF9401B022834
:102E900001D90320A9E6534810380068C0F3800028
:102EA0000028F1D100BF207800F0100010287CD15C
:102EB0004C48006800F038084A481830D0F80090B4
:102EC000B8F1080F06D0B8F1180F3DD109F0030092
:102ED000012839D1434810380068C0F3002020B1E0
:102EE000E069802801D001207FE600BFFEF784F969
:102EF00041F2030188421AD8206A20280AD13948B1
:102F00000C38006820F0F84040F0804035490C391A
:102F1000086018E033480C38006820F0F84094F856
:102F2000201040EA81602F490C3908600BE02D48E1
:102F3000001F006820F07C5094F8201040EA0160E7
:102F40002849091F086066E0E06978B32548103811
:102F5000006840F08000234910390860FEF752F9FC
:102F6000054606E0FEF74EF9401B022801D9032072
:102F70003BE61C4810380068C0F300200028F1D060
:102F800000BFFEF739F941F2030188421CD8206ADC
:102F900020280CD113480C38006820F0F84040F08D
:102FA000804010490C3908601AE035E01CE00D48FB
:102FB0000C38006820F0F84094F8201040EA816056
:102FC00008490C3908600BE00648001F006820F033
:102FD0007C5094F8201040EA01600249091F086003
:102FE00019E0000010440258FA48006820F0800000
:102FF000F8490860FEF706F9054606E0FEF702F913
:10300000401B022801D90320EFE5F2480068C0F315
:1030100000200028F2D100BF207800F00800082826
:1030200036D16069D0B1EB487430006840F00100DF
:10303000E84974310860FEF7E5F8054606E0FEF75A
:10304000E1F8401B022801D90320CEE5E1487430A5
:103050000068C0F340000028F1D019E0DD4874306A
:10306000006820F00100DB4974310860FEF7CAF8FF
:10307000054606E0FEF7C6F8401B022801D90320EA
:10308000B3E5D44874300068C0F340000028F1D1A3
:10309000207800F02000202830D1A069B8B1CD48B8
:1030A000006840F48050CB490860FEF7ABF8054655
:1030B00006E0FEF7A7F8401B022801D9032094E59B
:1030C000C4480068C0F340300028F2D016E0C14880
:1030D000006820F48050BF490860FEF793F8054669
:1030E00006E0FEF78FF8401B022801D903207CE59B
:1030F000B8480068C0F340300028F2D1207800F0D2
:10310000040004287DD1B448006840F48070B249BE
:103110000860FEF777F8054606E0FEF773F8401BF7
:10312000642801D9032060E5AB48006800F4807092
:103130000028F2D000BFA068012808D1A54870304F
:10314000006840F00100A349703108602DE0A068DC
:1031500068B9A0487030006820F001009D497031C6
:1031600008600846006820F0040008601DE0A068C0
:1031700005280DD197487030006840F0040095494B
:10318000703108600846006840F0010008600CE0FB
:1031900090487030006820F001008E49703108605E
:1031A0000846006820F00400086000BFA068A0B1D5
:1031B000FEF728F8054608E0FEF724F8401B41F228
:1031C0008831884201D903200FE5824870300068B9
:1031D000C0F340000028EFD013E0FEF713F80546D7
:1031E00008E0FEF70FF8401B41F28831884201D910
:1031F0000320FAE4774870300068C0F340000028EC
:10320000EFD1606A00287DD072481030006800F06D
:103210003800182877D0606A022875D16D48006898
:1032200020F080706B490860FDF7ECFF054606E072
:10323000FDF7E8FF401B022801D90320D5E46548CB
:103240000068C0F340600028F2D100BFD4E90A1042
:1032500041EA00105F492831096840F2F332914396
:1032600008435C4928310860208E401EC0F30800E6
:10327000616B491E4FF47E4202EA41210843218FCF
:10328000491ED20102EA014108433C21095D491E61
:10329000120202EA016108434E493031086000BF62
:1032A000081F006820F00100091F086049483430F9
:1032B00000684FF6F8718843A16C40EAC1004549A7
:1032C0003431086043482C30006820F00C00216C39
:1032D000084340492C3108600846006820F002008D
:1032E000616C08433B492C3108600846006840F493
:1032F000803008600846006840F4003008600846E6
:10330000006802E093E038E01FE040F480200860AD
:103310000846006840F0010008602E48006840F050
:1033200080702C490860FDF76DFF054606E0FDF74B
:1033300069FF401B022801D9032056E42548006894
:10334000C0F340600028F2D071E02248006820F00D
:10335000807020490860FDF755FF054606E0FDF73F
:1033600051FF401B022801D903203EE419480068A0
:10337000C0F340600028F2D159E0164828300768B1
:10338000144830300668606A012821D007F0030134
:10339000A06A81421CD1C7F30511E06A884217D1A7
:1033A000C6F30801206B401E814211D1606B401EA4
:1033B000C6F3462188420BD1A06B401EC6F30641DE
:1033C000884205D1E06B401EC6F30661884205D0F5
:1033D00001200AE4004402580048025815480068D9
:1033E000C0F3CC07A06CB84221D01248083800685E
:1033F00020F001000F4908390860FDF703FF05467A
:1034000000BFFDF7FFFE401BFBD00A4800684FF6E7
:10341000F8718843A16C40EAC1000649086005487C
:103420000838006840F001000249083908600020AF
:103430004AE400003444025870B504462546681E2C
:10344000B0F1807F01D301200FE0681E4FF0E02132
:1034500048610F214FF0FF3002F0AEFD00204FF029
:10346000E021886107200861002070BD7047704727
:103470007047000010B504462248007800F0800034
:1034800000283ED11F48007800F04000D0B11D4810
:10349000007840F080001B49087000211A4800F0B5
:1034A000F3FC1A49086018480068006A20F00A0016
:1034B00015490968086214480068006A12490968D9
:1034C00008621EE000200F490870104908600D488E
:1034D000007840F040000B49087000200A49096854
:1034E000486209480068006A20F00A000649096835
:1034F000086205480068006A40F002000249096855
:10350000086210BD20000024D00100242400002403
:103510002DE9F04104460D461646002700BF94F8F9
:103520003C00012802D10220BDE8F081012084F88E
:103530003C0000BF96B9EB68D5E90012206801F0A5
:1035400075FC2068806920F00C0021688861206883
:103550008069A96808432168886141E0042E13D17D
:10356000EB68D5E90012206801F0A8FC20688069AA
:1035700020F440602168886120688069A96840EA79
:103580000120216888612BE0082E12D1EB68D5E973
:103590000012206801F0AFFC2068C06920F00C0028
:1035A0002168C8612068C069A96808432168C861AA
:1035B00016E00C2E13D1EB68D5E90012206801F05B
:1035C000B6FC2068C06920F440602168C8612068AA
:1035D000C069A96840EA01202168C86100E00127AC
:1035E00000BF002084F83C0000BF38469CE710B5BF
:1035F00004460CB9012010BD94F83D0028B9002004
:1036000084F83C00204600F029F8022084F83D00B0
:10361000211D206801F0DAF9012084F8480000BF7C
:1036200084F83E0001213F200155402001554120F2
:103630000155422001554320015500BF00BF012024
:1036400084F8440045200155462001554720015586
:1036500000BF012084F83D000020CCE710B586B003
:1036600004461E492068884236D100BF00BF1C486E
:10367000006840F480301A4908600846006800F489
:103680008030009000BF00BF00BF00BF00BF1448E3
:103690001038006840F001001149103908600846F0
:1036A000006800F00100009000BF00BF00BF0420D0
:1036B000019002200290039004900420059001A93B
:1036C0000848FDF795FC032201217420FDF71DFE3B
:1036D0007420FDF706FE00BF06B010BD004001409B
:1036E000F0440258000002582DE9F04304460D460C
:1036F000002715B994F83E0015E0042D02D13F20B3
:10370000005D10E0082D02D14020005D0BE00C2D83
:1037100002D14120005D06E0102D02D14220005D63
:1037200001E04320005D804615B994F844000BE0A9
:10373000042D02D14520005D06E0082D02D146206F
:10374000005D01E04720005D8146B8F1010F02D124
:10375000B9F1010F02D00120BDE8F0831DB90220AC
:1037600084F83E001AE0042D03D102213F200155C8
:1037700014E0082D03D10221402001550EE00C2D4C
:1037800003D102214120015508E0102D03D102216F
:103790004220015502E00221432001551DB90220BB
:1037A00084F844000EE0042D03D102214520015588
:1037B00008E0082D03D102214620015502E0022134
:1037C0004720015535B1042D0BD0082D10D00C2DFC
:1037D0001CD114E02068C06840F002002168C86075
:1037E00016E02068C06840F004002168C8600FE05F
:1037F0002068C06840F008002168C86008E02068C0
:10380000C06840F010002168C86001E0012700BFD7
:1038100000BFA7BB01222946206801F041F91C49DD
:10382000206888421BD02068B0F1804F17D019491A
:103830002068884213D01849206888420FD0174961
:10384000206888420BD016492068884207D0154965
:103850002068884203D014492068884210D120682B
:103860008068124900EA0106062E0FD0B6F5803FA7
:103870000CD02068006840F001002168086005E075
:103880002068006840F0010021680860384663E75E
:10389000000001400004004000080040000C00400F
:1038A00000040140001800400040014007000100F2
:1038B00070B504462068C6682068056905F00200F6
:1038C000022819D106F00200022815D1401F2168F4
:1038D0000861012020772068806900F0030018B19A
:1038E0002046FFF7C7FD05E0204600F0ADF8204672
:1038F00000F0DAF90020207705F00400042819D13F
:1039000006F00400042815D1C04321680861022094
:1039100020772068806900F4407018B12046FFF7D6
:10392000A9FD05E0204600F08FF8204600F0BCF924
:103930000020207705F00800082819D106F00800BB
:10394000082815D1C0432168086104202077206829
:10395000C06900F0030018B12046FFF78BFD05E0B9
:10396000204600F071F8204600F09EF900202077F4
:1039700005F01000102819D106F01000102815D1FC
:10398000C04321680861082020772068C06900F4DE
:10399000407018B12046FFF76DFD05E0204600F0AD
:1039A00053F8204600F080F90020207705F0010050
:1039B00048B106F0010030B16FF0010021680861E4
:1039C000204600F025FA05F08000802804D005F498
:1039D0000050B0F5005F0AD106F08000802806D1C3
:1039E0006FF40250216808612046FFF740FD05F49E
:1039F0008070B0F5807F0AD106F08000802806D163
:103A00006FF48070216808612046FFF72FFD05F0F4
:103A10004000402809D106F04000402805D1C043AD
:103A200021680861204600F048FA05F020002028AF
:103A300009D106F02000202805D1C0432168086183
:103A40002046FFF715FD70BD70472DE9F041044693
:103A50000D461646002700BF94F83C00012802D10D
:103A60000220BDE8F081012084F83C0000BF0C2E4C
:103A700051D005DC4EB1042E1ED0082E7AD133E091
:103A8000102E60D0142EF9D175E02946206801F07F
:103A900019F82068806940F0080021688861206872
:103AA000806920F0040021688861206880692969A4
:103AB00008432168886178E02946206801F058F8B9
:103AC0002068806940F4006021688861206880690E
:103AD00020F480602168886120688069296940EA53
:103AE00001202168886160E02946206801F09AF889
:103AF0002068C06940F008002168C8612068C0697A
:103B000020F004002168C8612068C0692969084361
:103B10002168C86149E02946206801F0DDF8206885
:103B2000C06940F400602168C8612068C06920F461
:103B300080602168C8612068C069296940EA012065
:103B40002168C86131E02946206801F0FFF820684B
:103B5000406D40F00800216848652068406D20F005
:103B60000400216848652068406D29690843216880
:103B700048651AE017E02946206801F01FF920681F
:103B8000406D40F40060216848652068406D20F475
:103B90008060216848652068406D296940EA0120FD
:103BA0002168486501E0012700BF00BF00BF002079
:103BB00084F83C0000BF384653E710B504460CB902
:103BC000012010BD94F83D0028B9002084F83C0085
:103BD000204600F029F8022084F83D00211D2068CD
:103BE00000F0F4FE012084F8480000BF84F83E0095
:103BF00001213F200155402001554120015542201F
:103C000001554320015500BF00BF012084F8440046
:103C100045200155462001554720015500BF012090
:103C200084F83D000020CCE710B586B004461B495F
:103C3000206888422FD100BF00BF1948006840F0BB
:103C40000100174908600846006800F00100009074
:103C500000BF00BF00BF00BF00BF114808300068B0
:103C600040F008000E49083108600846006800F07E
:103C70000800009000BF00BF00BF08200190022094
:103C800002900120039002200490059001A90548AC
:103C9000FDF7AEF900BF06B010BD0000000C0040FB
:103CA000E0440258000002587047000070B5044616
:103CB0000D4615B994F83E0015E0042D02D13F20C1
:103CC000005D10E0082D02D14020005D0BE00C2DBE
:103CD00002D14120005D06E0102D02D14220005D9E
:103CE00001E04320005D012801D0012070BD1DB915
:103CF000022084F83E001AE0042D03D102213F2067
:103D0000015514E0082D03D10221402001550EE099
:103D10000C2D03D102214120015508E0102D03D1C3
:103D200002214220015502E00221432001550122D7
:103D30002946206800F0B4FE2B49206888420FD045
:103D40002A49206888420BD029492068884207D038
:103D500028492068884203D027492068884201D139
:103D6000012000E0002028B12068406C40F40040B1
:103D7000216848641C49206888421BD02068B0F143
:103D8000804F17D01D492068884213D01C492068F5
:103D900088420FD01B49206888420BD01349206805
:103DA000884207D018492068884203D0104920680B
:103DB000884210D120688068144900EA0106062E66
:103DC0000FD0B6F5803F0CD02068006840F00100AD
:103DD0002168086005E02068006840F00100216863
:103DE0000860002082E7000000000140000401405C
:103DF00000400140004401400048014000040040F0
:103E000000080040000C00400018004007000100BE
:103E1000194A016891422DD11849097801F08001B1
:103E200011BB1649097801F04001E9B1134909783D
:103E300001F03F013F2918D111490968096A21F0B1
:103E40000A010F4A126811620D490968096A0C4A91
:103E5000126811620949097841F08001074A11701E
:103E60004FF6FF71074A116004E004490978491CC4
:103E7000024A1170704700000040014020000024F9
:103E8000D0010024240000240246002031B104297E
:103E900007D0082908D00C290CD108E01368586B0A
:103EA00009E01368986B06E01368D86B03E01368A9
:103EB000186C00E000BF00BF704770477047704744
:103EC00070477047704700002DE9F04704462068AE
:103ED000C569206806682068876840F60F0005EA13
:103EE0000009B9F1000F0FD105F0200060B106F014
:103EF000200010B907F0805030B1606F10B120463B
:103F0000616F8847BDE8F087B9F1000F7ED0F848AF
:103F1000384018B9F74830400028F7D005F00100C4
:103F200058B106F4807040B1012021680862D4F8CD
:103F3000900040F00100C4F8900005F0020058B174
:103F400007F0010040B1022021680862D4F8900017
:103F500040F00400C4F8900005F0040058B107F0E8
:103F6000010040B1042021680862D4F8900040F0BC
:103F70000200C4F8900005F0080070B106F02000BF
:103F800010B9DB48384040B1082021680862D4F8F5
:103F9000900040F00800C4F8900005F4006060B1A3
:103FA00006F0806048B14FF4006021680862D4F8E0
:103FB000900040F02000C4F89000D4F89000002851
:103FC00052D005F0200050B106F0200010B907F0E3
:103FD000805020B1606F10B12046616F8847D4F8DF
:103FE00090A02068806800F04000402802D00AF0CD
:103FF000280070B3204601F0B3F82068806800F014
:104000004000402826D100BF00BF00E02DE021681D
:10401000083151E8001F21F040002168083141E8D3
:104020000002002AF1D100BFD4F8800068B1B24884
:10403000D4F880100865D4F88000FCF703FE98B12E
:10404000D4F88000016D88470EE02046FFF73AFF64
:104050000AE003E02046FFF735FF05E02046FFF7C2
:1040600031FF0020C4F890004CE7E06E01287DD1BC
:1040700005F01000002879D006F010000028FAD0D2
:104080001020216808622068806800F04000402805
:104090006DD1D4F880000068984988426BD0D4F87C
:1040A0008000006895491831884264D0D4F88000B7
:1040B00000689249303188425DD0D4F880000068B1
:1040C0008E494831884256D0D4F8800000688B4928
:1040D000603188424FD0D4F8800000688749783139
:1040E000884248D0D4F880000068844990318842E2
:1040F00041D0D4F8800000688049A83188423AD085
:10410000D4F8800000687E49884234D0D4F880001A
:1041100000687B49183188422DD0D4F880000068AF
:1041200077493031884226D0D4F88000006874493D
:10413000483188421FD0D4F880000068704960314F
:10414000884218D0D4F8800000686D4978318842E0
:1041500011D0D4F8800000686949903188420AD0B3
:10416000D4F8800000686649A83102E0CAE07BE02C
:1041700001E0884204D1D4F880000068406803E080
:10418000D4F88000006840681FFA80F8B8F1000F8A
:1041900058D0B4F85C00404554DDA4F85E80D4F8F3
:1041A0008000C069B0F5807F40D000BF00BF2168AB
:1041B00051E8001F21F48070226842E800010029C4
:1041C000F5D100BF00BF00BF2168083151E8001FD2
:1041D00021F001002168083141E80002002AF3D1F2
:1041E00000BF00BF00BF2168083151E8001F21F067
:1041F00040002168083141E80002002AF3D100BFE5
:104200002020C4F88C000020E06600BF00BF2168B9
:1042100051E8001F21F01000226842E80001002947
:10422000F5D100BFD4F88000FCF79EFA0220206789
:10423000B4F85C00B4F85E20801A81B22046FFF723
:104240003DFE10E0B4F85C0040450CD1D4F880008D
:10425000C069B0F5807F06D102202067B4F85C10F9
:104260002046FFF72BFE4DE634F85C0F6188401ABC
:104270001FFA80F860885C3CC8B3B8F1000F36D0F4
:1042800000BF00BF216851E8001F21F49070226830
:1042900042E800010029F5D100BF00BF00BF21683E
:1042A000083151E8001F124AD24301EA0200216896
:1042B000083141E80002002AF1D100BF2020C4F8F3
:1042C0008C000020E066606700BF00BF216851E8F5
:1042D000001F21F01000226842E800010029F5D1FA
:1042E00000BF0220206741462046FFF7E7FD09E6B0
:1042F00001000010200100044D5100081000024090
:104300001004024005F4801050B107F4800038B169
:104310004FF48010216808622046FFF7D2FDF1E5D6
:1043200005F0800058B106F0800010B907F40000D5
:1043300028B1A06F10B12046A16F8847E2E505F0D3
:10434000400030B106F0400018B1204600F03EFFBA
:10435000D8E505F4000030B106F0804018B12046E1
:10436000FFF7AEFDCEE505F0807030B106F00040FD
:1043700018B12046FFF7A3FDC4E500BFC2E510B5A4
:1043800004460CB9012010BDA06900B100E000BFD7
:10439000D4F8880028B9002084F88400204600F072
:1043A0002BF82420C4F888002068006820F0010061
:1043B00021680860A06A10B1204600F0D6FD2046B2
:1043C00001F01EFA012800D1DDE72068406820F4E2
:1043D0009040216848602068806820F02A002168A9
:1043E00088602068006840F001002168086020466D
:1043F00000F037FEC7E7000010B586B004462B4931
:104400002068884250D100BF00BF2948006840F0B2
:104410001000274908600846006800F0100000906E
:1044200000BF00BF00BF00BF00BF214810380068B8
:1044300040F001001E49103908600846006800F08D
:104440000100009000BF00BF00BF00BF00BF0846D2
:10445000006840F0010008600846006800F00100B4
:10446000009000BF00BF00BF4FF400700190022019
:10447000029001200390022004900720059001A9DA
:104480000C48FCF7B5FD4FF48060019007200590C3
:1044900001A90848FCF7ACFD2520FCF722FF032208
:1044A00011462520FCF731FF06B010BD0010014079
:1044B000F04402580000025870B504460D461646F6
:1044C000D4F88C00202821D105B10EB9012070BD8F
:1044D0000020E0660E492068884211D020684068BC
:1044E00000F4000060B100BF00BF216851E8001F68
:1044F00041F08060226842E800010029F5D100BF48
:1045000032462946204601F041FCE0E70220DEE782
:10451000000C005810B504462049206888423BD161
:104520001F48008800F4004088BB1D48008800F444
:10453000804070B11B4800780A2803D00020184939
:10454000088024E01648008840F4004014490880A0
:104550001DE0144800780D2806D11148008840F469
:1045600080400F49088012E00E4800780C49098805
:10457000C1F30D010C4A505409480088401C0849F9
:10458000088008460088C72801DD00200880012235
:1045900004490648FFF790FF10BD000000100140DD
:1045A000100000241200002428000024F000002441
:1045B000704700BFFEE700BFFEE77047704700008E
:1045C0002DE9F04104460E4600275548006800F0EA
:1045D0000300032802D10120BDE8F08150482838AB
:1045E000006820F080604E4928390860FCF70AFE18
:1045F000054606E0FCF706FE401B022801D9032011
:10460000EAE7474828380068C0F3C0600028F1D1C5
:1046100000BF4348006820F47C30216840EA013044
:104620003F490860A088401EC0F30800A168491EE9
:104630004FF47E4202EA41210843A189491ED2017A
:1046400002EA01410843217C491E120202EA01618B
:10465000084333491031086000BF3148001D00682D
:1046600020F0C000616908432D49091D0860084613
:10467000006820F02000A16908432949091D08604D
:104680000846006820F010000860254814300068D3
:104690004FF6F8718843E16940EAC10020491431BE
:1046A00008601F48001D006840F010001C49091DEB
:1046B00008602EB90846006840F40020086012E047
:1046C000012E08D11648001D006840F480101449DE
:1046D000091D086007E01248001D006840F4001042
:1046E0000F49091D08600E482838006840F08060B6
:1046F0000B4928390860FCF785FD054606E0FCF704
:1047000081FD401B022801D9032065E704482838B1
:104710000068C0F3C0600028F1D038465CE70000B4
:10472000284402582DE9F04104460E46002755481A
:10473000006800F00300032802D10120BDE8F081E9
:1047400050482838006820F080504E4928390860C9
:10475000FCF758FD054606E0FCF754FD401B022817
:1047600001D90320EAE7474828380068C0F34070C1
:104770000028F1D100BF4348006820F07C702188F8
:1047800040EA01503F490860A088401EC0F308007D
:10479000A168491E4FF47E4202EA41210843A189E3
:1047A000491ED20102EA01410843217C491E12023E
:1047B00002EA0161084333491831086000BF3148FB
:1047C000001D006820F44060616908432D49091DFF
:1047D00008600846006820F40070A1690843294970
:1047E000091D08600846006820F4807008602548AC
:1047F0001C3000684FF6F8718843E16940EAC10057
:1048000020491C3108601F48001D006840F480707A
:104810001C49091D08602EB90846006840F4800054
:10482000086012E0012E08D11648001D006840F40F
:1048300000001449091D086007E01248001D0068C7
:1048400040F080700F49091D08600E482838006844
:1048500040F080500B4928390860FCF7D3FC05462E
:1048600006E0FCF7CFFC401B022801D9032065E7D6
:10487000044828380068C0F340700028F1D038465A
:104880005CE7000028440258704710B5FCF7C0FCF4
:1048900010BD00003F48006840F470003D490860CA
:1048A0003D48006800F00F00072806D23A4800682B
:1048B00020F00F00C01D384908603848006840F0FB
:1048C000010036490860002034491031086033483F
:1048D000006833490840314908602F48006800F0FB
:1048E0000F00072806D92C48006820F00F00C01DD3
:1048F000294908600020294918310860091D08600D
:10490000091D086027482549283108602648091DE7
:1049100008602648091D08600020091D086023481A
:10492000091D08600020091D08602048091D086055
:104930000020091D08601948006820F480201749EC
:1049400008600020154960310860194800686FF35D
:104950000F00B0F1005F02D20120164908600F4835
:10496000D430006800F4805098B90C48D430006806
:1049700040F480500949D431086043F2D2000E4916
:1049800008600648D430006820F480500349D431D0
:104990000860704788ED00E0002000520044025893
:1049A0007FEDF6EA000202020000FF018002010131
:1049B0000010005C088100510040005210B5024810
:1049C000FEF776FF10BD0000D001002410B502688C
:1049D0002B4B98420ED0B0F1804F0BD0294B984210
:1049E00008D0294B984205D0284B984202D0284B3A
:1049F000984203D122F070024B681A43204B984230
:104A000017D0B0F1804F14D01E4B984211D01E4BDE
:104A100098420ED01D4B98420BD01D4B984208D0A7
:104A20001C4B984205D01C4B984202D01B4B98421D
:104A300003D122F44072CB681A4322F080034C6900
:104A400043EA04028B68C3620B6883620C4B984292
:104A50000BD00F4B984208D00E4B984205D00E4B0E
:104A6000984202D00D4B984201D10B690363036851
:104A700043F00403036001234361026010BD0000A2
:104A8000000001400004004000080040000C00400D
:104A90000004014000400140004401400048014042
:104AA00030B501F01F05012404FA05F3046A9C43A4
:104AB0000462046A01F01F0502FA05F52C43046242
:104AC00030BD000030B5026A056A25F001050562B7
:104AD00043688469204D2C4024F003040D682C4366
:104AE00022F002028D682A431C4DA84200D10FE03B
:104AF0001B4DA84200D10BE01A4DA84200D107E09F
:104B0000194DA84200D103E0184DA84206D100BFBC
:104B100022F00802CD682A4322F004020F4DA84279
:104B20000BD00F4DA84208D00E4DA84205D00E4D17
:104B3000A84202D00D4DA84207D123F4807323F47C
:104B400000734D692B438D692B43436084614D682D
:104B50004563026230BD00008FFFFEFF0000014090
:104B60000004014000400140004401400048014071
:104B700030B5026A056A25F010050562436884694C
:104B8000224D2C4024F440740D6844EA052422F0A0
:104B900020028D6842EA05121D4DA84200D10FE0A7
:104BA0001C4DA84200D10BE01B4DA84200D100BF14
:104BB0001A4DA84200D100BF194DA84207D106E006
:104BC00022F08002CD6842EA051222F04002104D28
:104BD000A8420BD00F4DA84208D00F4DA84205D0D7
:104BE0000E4DA84202D00E4DA84209D123F4806395
:104BF00023F400634D6943EA85038D6943EA850325
:104C0000436084614D688563026230BDFF8FFFFEA3
:104C10000000014000040140004001400044014008
:104C20000048014030B5026A056A25F480750562C6
:104C30004368C469224D2C4024F003040D682C43C2
:104C400022F400728D6842EA05221E4DA84200D16E
:104C50000FE01D4DA84200D10BE01C4DA84200D131
:104C600000BF1B4DA84200D100BF1A4DA84207D17A
:104C700006E022F40062CD6842EA052222F4806256
:104C8000104DA8420BD0104DA84208D00F4DA8429D
:104C900005D00F4DA84202D00E4DA84209D123F4F1
:104CA000805323F400534D6943EA05138D6943EAA9
:104CB00005134360C4614D68C563026230BD0000E6
:104CC0008FFFFEFF00000140000401400040014052
:104CD000004401400048014030B5036A056A25F4EC
:104CE000805505624468C269124D2A4022F4407220
:104CF0000D6842EA052223F400538D6843EA053328
:104D00000D4DA8420BD00D4DA84208D00C4DA84225
:104D100005D00C4DA84202D00B4DA84204D124F47A
:104D200080444D6944EA85144460C2614D6805645D
:104D3000036230BDFF8FFFFE000001400004014010
:104D400000400140004401400048014030B5026A83
:104D5000056A25F4803505624368446D114D2C4089
:104D60000D682C4322F400320D8942EA05420E4DB3
:104D7000A8420BD00D4DA84208D00D4DA84205D039
:104D80000C4DA84202D00C4DA84204D123F480332C
:104D90004D6943EA0523436044654D6885650262B9
:104DA00030BD00008FFFFEFF000001400004014005
:104DB00000400140004401400048014030B5026A13
:104DC000056A25F4801505624368446D114D2C4039
:104DD0000D6844EA052422F400120D8942EA0552C6
:104DE0000D4DA8420BD00D4DA84208D00C4DA84245
:104DF00005D00C4DA84202D00B4DA84204D123F49B
:104E000080234D6943EA8523436044654D68C56549
:104E1000026230BDFF8FFFFE000001400004014030
:104E200000400140004401400048014070B50C467C
:104E30001546026A066A26F0010606628169184E66
:104E4000B04214D0B0F1804F11D0164EB0420ED007
:104E5000154EB0420BD0154EB04208D0144EB042A1
:104E600005D0144EB04202D0134EB04201D10126FB
:104E700000E000261EB121F00301294301E041F0CA
:104E8000010121F0F001F02606EA0316314322F079
:104E90000A0204F00A0632438161026270BD00001A
:104EA000000001400004004000080040000C0040E9
:104EB00000040140001800400040014070B50C465D
:104EC0001546026A066A26F010060662816921F418
:104ED000407141EA052121F470414FF4704606EA21
:104EE0000336314322F0A002A02606EA041632431C
:104EF0008161026270BD70B50C461546026A066A91
:104F000026F480760662C16921F00301294321F06D
:104F1000F001F02606EA0316314322F420624FF432
:104F2000206606EA04263243C161026270BD70B594
:104F30000C461546026A066A26F480560662C16966
:104F400021F4407141EA052121F470414FF470468B
:104F500006EA0336314322F420424FF4204606EAA3
:104F600004363243C161026270BD90F8281001F02E
:104F70000801082907D10168496821F40041826BC2
:104F800011430268516090F8281001F0010139B115
:104F90000168496821F40031C26A11430268516016
:104FA00090F8281001F00201022907D10168496830
:104FB00021F48031026B11430268516090F828108F
:104FC00001F00401042907D10168496821F4802116
:104FD000426B11430268516090F8281001F01001F3
:104FE000102907D10168896821F48051C26B1143EF
:104FF0000268916090F8281001F02001202907D163
:105000000168896821F40051026C114302689160C3
:1050100090F8281001F04001402913D10168496837
:1050200021F48011426C114302685160416CB1F56A
:10503000801F07D10168496821F4C001826C1143C7
:105040000268516090F8281001F08001802907D192
:105050000168496821F40021C26C11430268516063
:10506000704738B504460020C4F89000FCF7CAF831
:1050700005462068006800F00800082821D16FF07C
:105080007E402B4600224FF400110090204600F095
:105090002BFFB0B100BF00BF216851E8001F21F015
:1050A0008000226842E800010029F5D100BF2020DD
:1050B000C4F8880000BF002084F8840000BF0320EB
:1050C00038BD2068006800F00400042830D16FF07B
:1050D0007E402B4600224FF480010090204600F0D5
:1050E00003FF28B300BF00BF216851E8001F21F46F
:1050F0009070226842E800010029F5D100BF00BF8E
:1051000000BF2168083151E8001F21F0010021682B
:10511000083141E80002002AF3D100BF2020C4F882
:105120008C0000BF002084F8840000BF0320C7E784
:105130002020C4F88800C4F88C000020E0662067B6
:1051400000BF84F8840000BF00BFB9E770B5044613
:10515000A56B0020A5F85E002846FEF7B3FE70BDE3
:1051600000BF00BF026852E8002F22F4907103686C
:1051700043E80012002AF5D100BF00BF00BF02685B
:10518000083252E8002F104B02EA0301026808328D
:1051900042E80013002BF2D100BFC16E01290CD1EF
:1051A00000BF00BF026852E8002F22F01001036820
:1051B00043E80012002AF5D100BF2021C0F88C106E
:1051C0000021C16641677047FEFFFFEF10B504463E
:1051D00000BF00BF216851E8001F21F04000226895
:1051E00042E800010029F5D100BF2020C4F8880062
:1051F0000020A0672046FFF7DBF910BD2DE9F04144
:105200000446B4F86070D4F88C0022286ED120686F
:10521000406A86B2A56D06EA07002880A06D801C52
:10522000A065B4F85E00401EA4F85E00B4F85E000D
:10523000002861D100BF00BF216851E8001F21F4A0
:105240009070226842E800010029F5D100BF00BF3C
:1052500000BF2168083151E8001F21F001002168DA
:10526000083141E80002002AF3D100BF2020C4F831
:105270008C0000206067206720492068884211D098
:105280002068406800F4000060B100BF00BF2168E2
:1052900051E8001F21F08060226842E800010029E7
:1052A000F5D100BFE06E01281CD10020E06600BFF0
:1052B00000BF216851E8001F21F01000226842E879
:1052C00000010029F5D100BF2068C069C0F30010BB
:1052D00010B1102021680862B4F85C102046FEF777
:1052E000EDFD09E02046FFF715F905E0206880692B
:1052F00040F0080021688861BDE8F081000C00588A
:105300002DE9F84F0446B4F860B02068C5692068FC
:10531000006800902068D0F808A0D4F88C002228FB
:105320007ED1B4F86890AEE02068406A1FFA80F839
:10533000A76D08EA0B003880A06D801CA065B4F84A
:105340005E00401EA4F85E002068C56905F00700F5
:10535000B0B305F0010060B1009800F4807040B176
:10536000012021680862D4F8900040F00100C4F8E0
:10537000900005F0020058B10AF0010040B102208F
:1053800021680862D4F8900040F00400C4F890004E
:1053900005F0040058B10AF0010040B10420216872
:1053A0000862D4F8900040F00200C4F89000D4F8ED
:1053B000900028B12046FEF785FD0020C4F890003B
:1053C000B4F85E0000285ED100BF00BF216851E83C
:1053D000001F21F48070226842E800010029F5D105
:1053E00000BF00BF00BF2168083151E8001F414ADB
:1053F00001EA02002168083141E80002002AF2D1E6
:1054000000BF2020C4F88C000020606720673A4964
:105410002068884213D02068406800F4000000E053
:105420005FE060B100BF00BF216851E8001F21F0BC
:105430008060226842E800010029F5D100BFE06EDB
:1054400001281CD10020E06600BF00BF216851E8A0
:10545000001F21F01000226842E800010029F5D168
:1054600000BF2068C069C0F3001010B1102021688F
:105470000862B4F85C102046FEF720FD02E02046EA
:10548000FFF748F807E0B9F1000F04D005F020005D
:1054900000287FF449AF00BFB4F85E6006B3B4F8EB
:1054A0006800B04223DD00BF00BF2168083151E829
:1054B000001F21F080502168083141E80002002AD5
:1054C000F3D100BF0D48606700BF00BF216851E8FD
:1054D000001F41F02000226842E800010029F5D1B8
:1054E00005E02068806940F0080021688861BDE817
:1054F000F88F0000FEFFFFEF000C0058FD51000880
:1055000070B50446B4F86060D4F88C0022286FD1DE
:105510002068406A85B2F0B22840A16D0870A06D85
:10552000401CA065B4F85E00401EA4F85E00B4F80C
:105530005E00002862D100BF00BF216851E8001F53
:1055400021F49070226842E800010029F5D100BFE3
:1055500000BF00BF2168083151E8001F21F00100A1
:105560002168083141E80002002AF3D100BF202061
:10557000C4F88C00002060672067214920688842B9
:1055800011D02068406800F4000060B100BF00BF87
:10559000216851E8001F21F08060226842E8000184
:1055A0000029F5D100BFE06E01281CD10020E06683
:1055B00000BF00BF216851E8001F21F010002268E1
:1055C00042E800010029F5D100BF2068C069C0F39E
:1055D000001010B1102021680862B4F85C10204659
:1055E000FEF76CFC0AE02046FEF794FF06E0FFE7BA
:1055F0002068806940F008002168886170BD000063
:10560000000C00582DE9F05F0446B4F860A0206853
:10561000C5692068D0F800B02068D0F80890D4F8A8
:105620008C0022287ED1B4F86880ADE02068406A02
:1056300087B20AF0FF003840A16D0870A06D401CD1
:10564000A065B4F85E00401EA4F85E002068C5693D
:1056500005F00700A8B305F0010058B10BF4807005
:1056600040B1012021680862D4F8900040F00100A8
:10567000C4F8900005F0020058B109F0010040B1F3
:10568000022021680862D4F8900040F00400C4F8B9
:10569000900005F0040058B109F0010040B1042069
:1056A00021680862D4F8900040F00200C4F890002D
:1056B000D4F8900028B12046FEF704FC0020C4F87E
:1056C0009000B4F85E0000285ED100BF00BF2168E2
:1056D00051E8001F21F48070226842E8000100298F
:1056E000F5D100BF00BF00BF2168083151E8001F9D
:1056F000404A01EA02002168083141E80002002A1C
:10570000F2D100BF2020C4F88C0000206067206721
:1057100039492068884213D02068406800F40000AE
:1057200070B100E05EE000BF00BF216851E8001FDB
:1057300021F08060226842E800010029F5D100BF15
:10574000E06E01281CD10020E06600BF00BF216888
:1057500051E8001F21F01000226842E800010029F2
:10576000F5D100BF2068C069C0F3001010B110204F
:1057700021680862B4F85C102046FEF79FFB02E047
:105780002046FEF7C7FE07E0B8F1000F04D005F091
:10579000200000287FF44AAF00BFB4F85E6006B373
:1057A000B4F86800B04223DD00BF00BF21680831B3
:1057B00051E8001F21F080502168083141E80002C3
:1057C000002AF3D100BF0D48606700BF00BF216809
:1057D00051E8001F41F02000226842E80001002942
:1057E000F5D105E02068806940F0080021688861F3
:1057F000BDE8F09FFEFFFFEF000C005801550008C8
:105800002DE9F04F89B0054600200890F849286836
:10581000884200D100E000BF2969A868084369698F
:105820000843E96940EA010828680068F14908402E
:1058300040EA0800296808602868406820F4405061
:10584000E968084329684860D5F81880E84928685D
:10585000884202D0286A40EA080828688068E64939
:10586000084040EA0800296888602868C06A20F07B
:105870000F00696A08432968C86200BFDF492868C9
:10588000884220D1DE48006800F03800182811D086
:1058900005DC48B1082809D0102811D108E02028DB
:1058A0000AD028280CD109E001240BE0042409E0E7
:1058B000082407E0102405E0202403E0402401E050
:1058C000802400BFF8E0CF492868884219D1CC482D
:1058D000006800F00700062810D2DFE800F003059A
:1058E00007090B0D00240BE0042409E0082407E05D
:1058F000102405E0202403E0402401E0802400BFC0
:10590000DAE0C1492868884219D1BD48006800F032
:105910000700062810D2DFE800F0030507090B0D89
:1059200000240BE0042409E0082407E0102405E02B
:10593000202403E0402401E0802400BFBCE0B34900
:105940002868884219D1AE48006800F00700062890
:1059500010D2DFE800F0030507090B0D00240BE06F
:10596000042409E0082407E0102405E0202403E0D3
:10597000402401E0802400BF9EE0A54928688842B9
:1059800019D19F48006800F00700062810D2DFE810
:1059900000F0030507090B0D00240BE0042409E0C7
:1059A000082407E0102405E0202403E0402401E05F
:1059B000802400BF80E097492868884220D1904821
:1059C000006800F03800182811D005DC48B108281C
:1059D00009D0102811D108E020280AD028280CD19D
:1059E00009E001240BE0042409E0082407E0102466
:1059F00005E0202403E0402401E0802400BF5BE0B8
:105A000085492868884219D17D48006800F0070060
:105A1000062810D2DFE800F0030507090B0D00246B
:105A20000BE0042409E0082407E0102405E020240A
:105A300003E0402401E0802400BF3DE0774928686E
:105A4000884219D16E48006800F00700062810D27D
:105A5000DFE800F0030507090B0D00240BE0042428
:105A600009E0082407E0102405E0202403E0402496
:105A700001E0802400BF1FE05D49286888421AD1F8
:105A80005F48001D006800F00700062810D2DFE81C
:105A900000F0030507090B0D02240BE0042409E0C4
:105AA000082407E0102405E0202403E0402401E05E
:105AB000802400BF00E0802400BF4D492868884250
:105AC0007DD1102C1AD006DC022C09D0042C0BD06E
:105AD000082C29D10DE0202C21D0402C24D120E00D
