:020000040800F2
:10000000A89E072499030008D57000084F6E0008C9
:1000100035700008210C00089D96000800000000C3
:10002000000000000000000000000000158400082F
:10003000850C000800000000D77000081784000835
:10004000B7030008B7030008B7030008B7030008A8
:10005000B7030008B7030008B7030008B703000898
:10006000B7030008B7030008B7030008B703000888
:10007000B7030008B7030008B7030008B703000878
:10008000B7030008B7030008B7030008B703000868
:10009000B7030008B7030008B7030008B703000858
:1000A000B7030008B7030008B7030008B703000848
:1000B000B7030008B703000849850008B703000824
:1000C000B7030008B7030008B7030008B703000828
:1000D000B70300088D960008B7030008B7030008AF
:1000E000B7030008B703000800000000B7030008CA
:1000F000B7030008B7030008B7030008B7030008F8
:10010000B7030008B7030008B7030008B7030008E7
:10011000B7030008B7030008B7030008B7030008D7
:10012000B7030008B7030008B7030008B7030008C7
:10013000B7030008B7030008B7030008B7030008B7
:10014000B7030008B703000800000000000000002B
:10015000B7030008B7030008B7030008B703000897
:10016000B7030008B7030008B7030008B703000887
:10017000B7030008B7030008B70300080000000039
:10018000B7030008B7030008B7030008B703000867
:10019000B7030008B7030008B7030008B703000857
:1001A000B7030008B7030008B7030008B703000847
:1001B000B7030008B7030008B7030008B703000837
:1001C000B7030008B7030008B7030008B703000827
:1001D000B7030008B7030008B7030008B703000817
:1001E000B7030008B7030008B7030008B703000807
:1001F000B7030008B7030008B7030008B7030008F7
:10020000B7030008B7030008B7030008B7030008E6
:10021000B7030008B7030008B7030008B7030008D6
:10022000B7030008B7030008B7030008B7030008C6
:10023000B7030008B7030008B7030008B7030008B6
:10024000B7030008B7030008B7030008B7030008A6
:10025000B7030008B7030008B7030008B703000896
:10026000B7030008B7030008B7030008B703000886
:10027000B7030008B7030008B7030008B703000876
:10028000B7030008B7030008B70300080000000028
:10029000B7030008B703000800F002F800F06DF89B
:1002A0000AA090E8000C82448344AAF10107DA45D1
:1002B00001D100F062F8AFF2090EBAE80F0013F0B6
:1002C000010F18BFFB1A43F001031847705B0100D0
:1002D000905B01000A444FF0000C10F8013B13F052
:1002E000070408BF10F8014B1D1108BF10F8015B8F
:1002F000641E05D010F8016B641E01F8016BF9D182
:1003000013F0080F1EBF10F8014BAD1C0C1B09D1D8
:100310006D1E58BF01F801CBFAD505E014F8016B4A
:1003200001F8016B6D1EF9D59142D6D370470000DC
:100330000023002400250026103A28BF78C1FBD8EE
:10034000520728BF30C148BF0B607047642900F0D6
:100350001B81752900F01881782900F051816329EB
:1003600000F0F283732900F0F783002070471FB577
:1003700010F053FC1FBD10B510BD00F01FFC11465E
:10038000FFF7F5FF0CF016FE00F03DFC03B4FFF79D
:10039000F2FF03BC09F0A7F90A4880470A488047E2
:1003A0000A480047FEE7FEE7FEE7FEE7FEE7FEE756
:1003B000FEE7FEE7FEE7FEE705480649064A074B6B
:1003C00070470000890C0008218400089902000889
:1003D000A8940724A89E0724A8960724A896072473
:1003E000704753EA020C00F069802DE9F04B4FF0A2
:1003F0000006002B1FBFB3FA83F503FA05F424FAB5
:1004000005F65E4012BF1643B2FA82F502FA05F411
:10041000C5F120051EBF22FA05FC44EA0C04203574
:1004200056EA044C4FEA144418BF641C4FF000080D
:100430004FF00009904271EB030C39D3002919BF2A
:10044000B1FA81F701FA07F6B0FA80F700FA07F679
:10045000C7F120071EBF20FA07FC46EA0C0620372A
:10046000B6FBF4FCA7EB0507103F07F01F0BCBF121
:1004700020060CFA0BFB2CFA06F644BFB346002606
:10048000202FA4BF5E464FF0000B5BEA060C08BFAE
:100490004FF0010B19EB0B09ABFB027C48EB060894
:1004A000C01B06FB02CC0BFB03CC71EB0C01C1E7BC
:1004B0000B46024641464846BDE8F08B13B54FF067
:1004C00000004FF00001AFF30080BDE81C40704712
:1004D0000FB4044910B503AA029800F041FB10BC08
:1004E0005DF814FB0C00002470B5044685690068B3
:1004F000C10601D5302600E02026C00707D070BD18
:10050000D4E9012130469047206A401C20626D1ECC
:10051000F6D570BD70B5044685690078C00707D16F
:1005200070BDD4E9012120209047206A401C206240
:100530006D1EF6D570BD70B50C460546012A05D076
:100540002878800600D5EA69002302E0012305E04F
:100550005B1C934202D2E05C0028F9D1A869E6183E
:10056000C01AA861286A184428622846FFF7BCFF11
:1005700004E0D5E9012114F8010B9047B442F8D307
:100580002846FFF7C7FF70BD2DE9F041064600245D
:1005900010687529314616A510D0AFF300800028E9
:1005A00002DA404213A507E031688A0701D512A597
:1005B00002E0490704D511A5012401E0AFF3008052
:1005C00000210A2206F1240709E0B0FBF2FCB0FB8F
:1005D000F2F302FB1C00303078541846491C002806
:1005E000F3D123462A463046BDE8F04100F049BA2F
:1005F000000000002D0000002B0000002000000083
:1006000070B504460D4621461068AFF3008021887E
:10061000090502D50F4A7A4402E00E4A7A440E32A6
:10062000002104F1240305E000F00F060009965DA7
:100630005E54491C0028F7D120780023000704D518
:10064000702D02D009B1022311322046BDE870405E
:1006500000F017BA1A5501002DE9F05F89460446EB
:100660004FF0000ADFF874B1FB44C0F820A0204628
:10067000E1688847002874D0252806D0D4E90121F4
:100680009047206A401C2062F1E700265F46204622
:10069000E16888472028054607DB312D05D2781907
:1006A00010F8200C08B10643F1E7B00701D526F099
:1006B0000406C4F81CA00027C4F818A02A2D09D0ED
:1006C000284609F009F838B304EB8708303DC8F82C
:1006D000185019E059F8041B204604EB8702916179
:1006E000E1688847012F054618D1E069002820DA23
:1006F00026F020061DE0D8F8180000EB800005EB7E
:1007000040003038C8F818002046E16888470546A0
:1007100008F0E2FF0028EED1012F0AD02E2D08D1DB
:100720002046E16888477F1C0546022F46F02006D8
:10073000C4DBA069002803DA404246F00106A0614C
:10074000F00701D026F010066C2D0BD0682D09D0D3
:100750004C2D39D06A2D35D0742D35D07A2D33D02B
:1007600016E038E0E1682F4620468847B842054643
:1007700009D16C2F26D04FF48060E16806432046F3
:100780008847054604E06C2F1AD04FF4807006436A
:100790000DB3A5F14100192802D8203546F40066B2
:1007A0004A462946204626604E46FFF7CFFD80B1D7
:1007B00001280BD0F61D26F0070000F1080956E7C6
:1007C0004020E4E78020D8E70020D6E706F10409BE
:1007D0004DE7284652E7206ABDE8F09FF05401003B
:1007E000401ECAB210F8011F8A4202D00029F9D176
:1007F0000020704740EA010310B59B070FD1042A7F
:100800000DD310C808C9121F9C42F8D020BA19BADB
:10081000884201D9012010BD4FF0FF3010BD1AB140
:10082000D30703D0521C07E0002010BD10F8013B95
:1008300011F8014B1B1B07D110F8013B11F8014BBC
:100840001B1B01D1921EF1D1184610BD40EA0103D5
:10085000024630B59B0710D14FF0013400E008C2CA
:1008600008C91D1B9D4315EAC41FF8D013F0FF01F2
:1008700002F8011B0DD01B0AF8E711F8013B002B11
:1008800002F8013B05D011F8013B002B02F8013BB7
:10089000F3D130BD10B5431C02E010F8011B71B15B
:1008A0008107FAD14FF0013202C88C1A8C4314EA46
:1008B000C211F9D0C01A0A0603D0C01E10BDC01A5A
:1008C00010BD0A0401D0801E10BD0902FCD0401EDC
:1008D00010BD421E12F8013F002BFBD111F8013B65
:1008E000002B02F8013BF9D17047032A40F2308017
:1008F00010F0030C00F0158011F8013BBCF1020F61
:10090000624498BF11F801CB00F8013B38BF11F8E1
:10091000013BA2F1040298BF00F801CB38BF00F8F8
:10092000013B11F0030300F02580083AC0F0088075
:1009300051F8043B083A51F804CBA0E80810F5E759
:10094000121D5CBF51F8043B40F8043BAFF300803C
:10095000D20724BF11F8013B11F801CB48BF11F8B1
:10096000012B24BF00F8013B00F801CB48BF00F881
:10097000012B704710B5203AC0F00B80B1E8185039
:10098000203AA0E81850B1E81850A0E81850BFF479
:10099000F5AF5FEA027C24BFB1E81850A0E8185018
:1009A00044BF18C918C0BDE810405FEA827C24BF6C
:1009B00051F8043B40F8043B08BF7047D20728BFFA
:1009C00031F8023B48BF11F8012B28BF20F8023B49
:1009D00048BF00F8012B704702F0FF0343EA0322EF
:1009E00042EA024200F002B84FF000020429C0F0CF
:1009F000128010F0030C00F01B80CCF1040CBCF151
:100A0000020F18BF00F8012BA8BF20F8022BA1EBA2
:100A10000C0100F00DB85FEAC17C24BF00F8012B87
:100A200000F8012B48BF00F8012B70474FF000027F
:100A300000B5134694469646203922BFA0E80C50D4
:100A4000A0E80C50B1F12001BFF4F7AF090728BFAF
:100A5000A0E80C5048BF0CC05DF804EB890028BF2B
:100A600040F8042B08BF704748BF20F8022B11F054
:100A7000804F18BF00F8012B7047704770477047D0
:100A800070472DE9F0470D4699469246044600F11D
:100A900024080168880604D5E06921F0100121606E
:100AA00000E00120A84201DD471B00E00027A1690A
:100AB0007A1902EB0900081AA0612078C00602D456
:100AC0002046FFF711FD002608E0D4E901211AF8BD
:100AD00006009047206A401C761C20624E45F4DBDD
:100AE0002078C0060AD52046FFF7FEFC06E0D4E9D0
:100AF000012130209047206A401C2062381EA7F157
:100B00000107F4DC07E0D4E9012118F8050090475B
:100B1000206A401C2062281EA5F10105F3DC204656
:100B2000FFF7F8FC2078000602D50220BDE8F08728
:100B30000120FBE710B5436913B1AFF3008001E07A
:100B4000FFF7F9FC012010BD127800F124010A70B2
:100B500000224A700122EDE711684FF0FF32E9E709
:100B6000074B70B50D467B4400F011F8044628464B
:100B700000F020F810B14FF0FF3070BD204670BD7E
:100B80003FB2000001694A1C02610878704700B555
:100B90008FB0CDE901310021059105497944CDE9B6
:100BA000031011466846FFF757FD0FB000BD000067
:100BB000E5FFFFFF007B00F080007047754600F006
:100BC0002BF8AE4605006946534620F007008546DF
:100BD00018B020B5FFF7F0FBBDE820404FF000064D
:100BE0004FF000074FF000084FF0000B21F0070115
:100BF000AC46ACE8C009ACE8C009ACE8C009ACE858
:100C0000C0098D46704710B50446AFF300802046FA
:100C1000BDE81040FFF7BABB004870474494072472
:100C200000BFFEE730B5039C42EA811545EA032583
:100C300045EA0445C56630BD2DE9F04704460D463A
:100C400016461F46DDF8208001F064FA814609E06F
:100C500001F060FAA0EB0900B0F57A7F02D9032019
:100C6000BDE8F0872068406F00F001000028EFD059
:100C700046EA851040EA072040EA08402168C86635
:100C80000020EDE7704700000848006820F00400ED
:100C900040F002000549086000BF044808380068B9
:100CA00000F400500028F8D0704700000C480258AB
:100CB00002460868B0B9D1E901031843CB6818436C
:100CC0000B6918434B6918438B691843CB69184368
:100CD0000B6A18434B6A184313686FF30E031843EB
:100CE000106019E0D1E9070318434B6A18431368F1
:100CF00023F4F84318431060D1E901031843CB688B
:100D000018430B6918434B6918438B6918435368A0
:100D10006FF30E031843506000207047024650697D
:100D200043F6FE73984340EA41005061002070474B
:100D300010B50346D1E9000420438C68641E40EAE4
:100D40004410CC6840EA44201C696FF3150420432A
:100D50001861002010BD000030B50346FAB90868DC
:100D6000401E4C68641E40EA04148868401E44EA31
:100D70000024C868401E44EA0034088A401E44EA41
:100D80000044888A401E44EA0054087E401E44EA1B
:100D900000609C6804F070442043986022E0C868BA
:100DA000401E0403888A401E44EA00509C680E4D91
:100DB0002C40204398600868401E4C68641E40EA3E
:100DC00004148868401E44EA0024088A401E44EA4D
:100DD0000044087E401E44EA0060DC6804F0704471
:100DE0002043D860002030BDFF0F0FFF2DE9F041F8
:100DF000044601F08FF9804614B90120BDE8F08166
:100E000094F83500022808D08020606500BF0020DB
:100E100084F8340000BF0120F0E7FE4920688842D2
:100E200049D0FC4918312068884244D0F949303112
:100E3000206888423FD0F7494831206888423AD03C
:100E4000F44960312068884235D0F2497831206811
:100E5000884230D0EF499031206888422BD0ED494C
:100E6000A8312068884226D0EB492068884222D0E9
:100E7000E9491831206888421DD0E749303120689F
:100E8000884218D0E44948312068884213D0E249AA
:100E90006031206888420ED0DF497831206888426E
:100EA00009D0DD4990312068884204D0DA49A83160
:100EB0002068884201D1012000E0002068B120684C
:100EC000006820F01E00216808602068406920F05A
:100ED000800021684861256806E02068006820F0ED
:100EE0000E00216808602568CA492068884270D0D1
:100EF000C8491831206888426BD0C6493031206813
:100F0000884266D0C34948312068884261D0C149CF
:100F10006031206888425CD0BE49783120688842C0
:100F200057D0BC4990312068884252D0B949A83185
:100F3000206888424DD0B8492068884249D0B649D7
:100F400018312068884244D0B34930312068884243
:100F50003FD0B1494831206888423AD0AE4960312B
:100F60002068884235D0AC4978312068884230D03A
:100F7000A9499031206888422BD0A749A831206820
:100F8000884226D0A5492068884222D0A34914313E
:100F9000206888421DD0A14928312068884218D095
:100FA0009E493C312068884213D09C4950312068CA
:100FB00088420ED0994964312068884209D0974907
:100FC00078312068884204D094498C312068884266
:100FD00001D1012000E0002028B1206E006820F43B
:100FE0008070216E08608B492068884249D0894909
:100FF00018312068884244D08649303120688842C0
:101000003FD084494831206888423AD081496031D4
:101010002068884235D07F4978312068884230D0B6
:101020007C499031206888422BD07A49A8312068C9
:10103000884226D078492068884222D076491831E3
:10104000206888421DD0744930312068884218D009
:10105000714948312068884213D06F496031206857
:1010600088420ED06C4978312068884209D06A499C
:1010700090312068884204D06749A83120688842AE
:1010800006D12068006820F001002168086005E0B2
:101090002068006820F001002168086011E001F07C
:1010A00039F8A0EB080005280BD920206065032043
:1010B00084F8350000BF002084F8340000BF012010
:1010C0009CE6286800F001000028E8D1514920681A
:1010D000884249D04F4918312068884244D04D4950
:1010E0003031206888423FD04A49483120688842E0
:1010F0003AD0484960312068884235D04549783136
:101100002068884230D043499031206888422BD0F3
:101110004049A8312068884226D03F49206888424B
:1011200022D03D491831206888421DD03A493031DB
:101130002068884218D0384948312068884213D046
:1011400035496031206888420ED0334978312068B3
:10115000884209D0304990312068884204D02E4915
:10116000A8312068884201D1012000E0002040B170
:10117000A66D94F85C0000F01F013F208840B0602D
:1011800007E0A76D94F85C0000F01F010120884083
:10119000786020492068884276D01E49183120683E
:1011A000884271D01B493031206888426CD019497F
:1011B00048312068884267D01649603120688842EB
:1011C00062D014497831206888425DD0114990314D
:1011D0002068884258D00F49A8312068884253D0EF
:1011E0000D49206888424FD00B4918312068884249
:1011F0004AD0094930312068884245D006494831F3
:101200002068884240D004496031206888423BD041
:10121000014905E010000240100402400854025841
:101220007831206888422FD02549206888422BD009
:10123000234918312068884226D0224920688842F4
:1012400022D020491431206888421DD01D49283100
:101250002068884218D01B493C312068884213D04E
:1012600018495031206888420ED0164964312068F0
:10127000884209D0134978312068884204D0114946
:101280008C312068884201D1012000E0002068B143
:10129000D4E919104860E06E40B1E06E006820F4B7
:1012A0008070E16E0860D4E91C104860012084F869
:1012B000350000BF002084F8340000BF00BF9DE56A
:1012C000A00402400854025870B504460CB901202D
:1012D00070BD94F83500022803D08020606501209D
:1012E000F6E7DC492068884249D0DA49183120689D
:1012F000884244D0D7493031206888423FD0D54910
:101300004831206888423AD0D2496031206888420A
:1013100035D0D04978312068884230D0CD499031DD
:10132000206888422BD0CB49A8312068884226D03B
:10133000C9492068884222D0C749183120688842AC
:101340001DD0C54930312068884218D0C249483183
:101350002068884213D0C0496031206888420ED08E
:10136000BD4978312068884209D0BB499031206856
:10137000884204D0B849A8312068884201D10120B0
:1013800000E00020F0B3042084F83500B149206863
:1013900088424BD0AF4918312068884246D0AD49C9
:1013A00030312068884241D0AA49483120688842BB
:1013B0003CD0A84960312068884237D0A5497831AF
:1013C0002068884232D0A3499031206888422DD0CD
:1013D000A049A8312068884228D09F4920688842C7
:1013E00024D09D491831206888421FD09A49303155
:1013F000206888421AD0984948312068884215D020
:10140000954900E020E06031206888420ED0924982
:1014100078312068884209D08F499031206888420D
:1014200004D08D49A8312068884206D12068006820
:1014300020F001002168086009E12068006820F0C0
:1014400001002168086002E12068006820F00E00B9
:10145000216808607F492068884249D07D49183159
:101460002068884244D07B493031206888423FD090
:1014700078494831206888423AD0764960312068FE
:10148000884235D0734978312068884230D071491C
:101490009031206888422BD06E49A831206888425C
:1014A00026D06D492068884222D06B4918312068C7
:1014B00088421DD0684930312068884218D066497A
:1014C00048312068884213D06349603120688842DF
:1014D0000ED0614978312068884209D05E49903148
:1014E0002068884204D05C49A8312068884206D12F
:1014F0002068006820F001002168086005E020688D
:10150000006820F001002168086052492068884284
:1015100070D050491831206888426BD04D49303125
:101520002068884266D04B4948312068884261D0A3
:1015300048496031206888425CD04649783120684B
:10154000884257D0434990312068884252D041495F
:10155000A831206888424DD03F492068884249D050
:101560003D4918312068884244D03B4930312068D9
:1015700088423FD038494831206888423AD03649BD
:1015800060312068884235D03349783120688842FC
:1015900030D031499031206888422BD02E49A83173
:1015A0002068884226D02D492068884222D02B49C5
:1015B0001431206888421DD028492831206888428B
:1015C00018D026493C312068884213D02349503135
:1015D000206888420ED0214964312068884209D0B1
:1015E0001E4978312068884204D01C498C3120681B
:1015F000884201D1012000E00020D8B1206E0068AF
:1016000020F48070216E0860A56D94F85C0000F0F5
:101610001F01012088406860D4E919104860E06E1D
:1016200040B1E06E006820F48070E16E0860D4E99B
:101630001C104860012084F8350000BF002084F8A9
:10164000340000BF206D10B12046216D8847002076
:101650003EE6000010000240100402400854025808
:10166000024600BF107C012801D1022070470120F2
:10167000107400BF1068C06A20F01F001368D862A1
:101680001068C06A08431368D86200BF0020107455
:1016900000BF00BFEAE7024600BF107C012801D16D
:1016A000022070470120107400BF4868032800D151
:1016B00000BF1068406B20F0010013685863106889
:1016C000D0F8000420F001001368C3F8000410688B
:1016D000806B20F00300136898631068806BCB6800
:1016E0001843136898631068C06B6FF30D0013689C
:1016F000D8631068C06B0B6918431368D86310680F
:10170000006C6FF30C00136818641068006C4B6970
:101710001843136818641068406C6FF30C0013686A
:1017200058641068406C8B691843136858641068DB
:10173000C06820F003001368D8601068C0680B68A8
:1017400018431368D8601068406920F007001368D8
:101750005861D1E908301843CB69184313685B69B5
:101760001843136858611068006920F00F0013686F
:101770001861106800694B68184313681861106895
:10178000D0F8000420F00E001368C3F800041068BD
:10179000D0F800044B6840EA43001368C3F8000423
:1017A000486803280BD11068006920F48070136822
:1017B0001861106800698B68184313681861106815
:1017C000806C6FF30B00136898641068806C8B6AF0
:1017D0001843136898641068C06C6FF30B001368AB
:1017E000D8641068C06CCB6A18431368D86410685A
:1017F000006D6FF30E00136818651068006D0B6BB9
:101800001843136818651068406D6FF3090013687A
:1018100058651068406D4B6B184313685865106825
:10182000806D6FF30900136898651068806D8B6B8D
:101830001843136898651068C06D6FF3090013684A
:10184000D8651068C06DCB6B18431368D8651068F5
:10185000006E6FF30D00136818661068006E0B6C55
:101860001843136818661068806B20F400401368F2
:1018700098631068806B4B6C18431368986310680A
:10188000806920F47F001368986110688069B1F85E
:10189000483040EA0340136898611068806920F07E
:1018A000FF001368986110688069CB6C1843136857
:1018B00098611068806B20F400501368986310687A
:1018C000806B0B6D1843136898631068806B20F46D
:1018D0008050136898631068806B4B6D18431368D1
:1018E00098631068806B20F4006013689863106838
:1018F000806B8B6D1843136898631068806B20F4BD
:101900008060136898631068806BCB6D1843136810
:1019100098631068806B20F40070136898631068F7
:10192000806B0B6E1843136898631068806B20F40B
:101930008070136898631068806B4B6E184313684F
:1019400098631068806B20F4804013689863106877
:10195000806B8B6E18431368986300BF002010746F
:1019600000BF00BF9DE600002DE9F84304460D4688
:1019700014B90120BDE8F883607C10B9204600F05E
:10198000A1F90320607400BF002000902068D0F807
:10199000300440F080702168C1F830042068D0F82D
:1019A000300400F08070009000BF00BF00F0B2FB78
:1019B000064607E000F0AEFB801BB0F57A7F01D948
:1019C0000320D7E72068D0F80C0400F480500028EA
:1019D000F0D02068D0F830047F4908402168C1F871
:1019E000300428688000696840EAC120298940EAFB
:1019F00001402168D1F8301408432168C1F830044F
:101A000000BF002000902068D0F8300440F00100B2
:101A10002168C1F830042068D0F8300400F00100DB
:101A2000009000BF00BF012000F048FA00F072FBF8
:101A3000064607E000F06EFB801BB0F57A7F01D907
:101A4000032097E72068D0F80C0400F48070002889
:101A5000F0D000BF002000902068406840F00100F6
:101A6000216848602068406800F00100009000BFD5
:101A700000BF2068806820F0FF002168886020682F
:101A80008068A1680843216888602068D0F8A000B9
:101A900040F002002168C1F8A0002068D0F8A00042
:101AA00040F004002168C1F8A0002068D0F8A4002C
:101AB00020F003002168C1F8A4002068D0F8A40039
:101AC000E16808432168C1F8A40000F023FB064642
:101AD0002068D0F8A40000F00300A0B90BE000F0EB
:101AE00019FB801BB0F57A7F05D900BF0020207458
:101AF00000BF03203EE72068D0F8B00000F01400DB
:101B00001428ECD113E00BE000F004FB801BB0F5CF
:101B10007A7F05D900BF0020207400BF032029E789
:101B20002068D0F8B00000F094009428ECD16868E8
:101B300008B1686800E001208046284808FB00F0F2
:101B4000297A01F0030201219140484346F2A8128C
:101B500029685143B0FBF1F72068D0F8180420F051
:101B60003F002168C1F818042068D0F818043843F1
:101B70002168C1F8180400202168C1F8C4000021C0
:101B80002068C0F8C8100020A06100BF0090206845
:101B9000406820F00100216848602068406800F03B
:101BA0000100009000BF00BF2068D0F8940020F032
:101BB00003002168C1F894002068D0F8940061689F
:101BC00041F0010108432168C1F8940000206061E0
:101BD000012060740020CDE60386FCFF00093D0073
:101BE0002DE9FF4F81B004461F46DDF83CA000BF41
:101BF000207C012803D1022005B0BDE8F08F012030
:101C0000207400BF00F086FA83460CE000F082FAF0
:101C1000A0EB0B00B0F57A7F05D900BF002020743F
:101C200000BF0320E8E72068406F00F001000028B3
:101C3000ECD0DDF83880032F01D2384600E00320D5
:101C40000646002507E01AF80500E900083188403B
:101C500040EA08086D1CB542F5D32068C0F87080D2
:101C6000A7EB0609B24419E0B9F1040F01D24846C6
:101C700000E0042006464FF00008002506E01AF8B0
:101C80000500E900884040EA08086D1CB542F6D31B
:101C90002068C0F87080A9EB0609B244B9F1000FC2
:101CA000E2D1781CC0F30720791CCBB200902068E9
:101CB000DDE90212FEF7B6FF00BF0020207400BF6E
:101CC00000BF99E770472DE9FF4F85B00446924663
:101CD0009B46149F129ECDF810A05D4600BF207C4D
:101CE000012803D1022009B0BDE8F08F0120207443
:101CF00000BF022D0FD9C5F30720EBB237220090A9
:101D000020460699FEF798FF28B100BF00202074F6
:101D100000BF0120E7E7062E08D1002000902068D0
:101D20003246139B0699FEF77DFF26E0042E08D16C
:101D3000002000900023324620680699FEF772FFCB
:101D40001BE0142E08D1002000903B78324620681A
:101D50000699FEF767FF10E0242E08D178780090EE
:101D60003B78324620680699FEF75CFF05E000BF2D
:101D70000020207400BF0120B5E700F0CBF98046B9
:101D80003FE02068406F00F01000D8B92068006F75
:101D90000390042D01D2284600E0042002904FF069
:101DA00000090CE04FEAC9010398C840C1B2049889
:101DB00001700498401C04906D1E09F101090298FD
:101DC0008145EFD300F0A6F9A0EB0800B0F57A7FCB
:101DD00005D900BF0020207400BF032083E72068DE
:101DE000406F00F0400060B92068D0F8C00000F0FB
:101DF0002000202805D100BF0020207400BF012052
:101E000071E7002DBDDC00BF0020207400BF00BFC3
:101E100069E72DE9F84304460E4617469846DDF873
:101E2000209000BF207C012802D10220BDE8F88369
:101E30000120207400BF43463A4631462046CDF883
:101E40000090FEF7F9FE054600BF0020207400BF99
:101E50002846EBE708B5014600BF087C012801D100
:101E6000022008BD0120087400BF00BF00200090C0
:101E70000868406840F001000A68506008684068DF
:101E800000F00100009000BF00BF00BF00200090E4
:101E90000868D0F8040440F008000A68C2F8040496
:101EA0000868D0F8040400F00800009000BF00BFEC
:101EB00000BF0020087400BF00BFD2E710B5044681
:101EC000A0B208F003F810BD0348006840F001001C
:101ED000014908607047000020040058F8B5024628
:101EE0000B4600216F4DD7E001278F401E6806EAA0
:101EF0000704002C72D01E7906F00306012E04D0D0
:101F00001E7906F00306022E13D190684F000326B7
:101F1000BE40B0434F00DE68BE4030439060506822
:101F200001268E40B0431E79C6F300168E40304322
:101F300050601E7906F00306032E09D0D0684F00CA
:101F40000326BE40B0434F009E68BE403043D06081
:101F50001E7906F00306022E13D1CF0802F12006E7
:101F600056F827004E07F70E0F26BE40B0434F0726
:101F7000FF0E1E69BE403043CF0802F1200646F82E
:101F8000270010684F000326BE40B0431E7906F0BC
:101F900003064F00BE40304310605E6806F44036D2
:101FA000002E78D000BF404E366846F002063E4F05
:101FB0003E603E46366806F00206009600BF00BF4F
:101FC0003A4E8F0856F827008E07370F0F26BE406F
:101FD000B043374EB24202D100262EE05BE0354ED0
:101FE000B24201D1012628E0334EB24201D102268D
:101FF00023E0324EB24201D103261EE0304EB242FF
:1020000001D1042619E02F4EB24201D1052614E079
:102010002D4EB24201D106260FE02C4EB24201D124
:1020200007260AE02A4EB24201D1082605E0294ED1
:10203000B24201D1092600E00A268F073F0FBE40B9
:1020400030431A4E8F0846F827004FF0B0463068EC
:10205000A0435E6806F4801606B120434FF0B046F8
:1020600030607068A0435E6806F4001606B1204335
:102070004FF0B04670606868A0435E6806F40036B2
:1020800006B1204368602868A0435E6806F4803685
:1020900006B120432860491C1E68CE40002E7FF404
:1020A00023AFF8BD80000058F444025808040058DB
:1020B000000002580004025800080258000C0258A0
:1020C000001002580014025800180258001C025850
:1020D0000020025800240258024613690B400BB13D
:1020E000012000E00020704710B5426921EA020398
:1020F00002EA010443EA0443836110BD0AB181612D
:1021000001E00B048361704701480068000C7047D0
:102110000010005C014800687047000014000024B3
:10212000034800680349097808440149086070477A
:10213000140000241C00002410B5052000F036FB1C
:1021400002F0F4FD10490968C1F303210F4A515C04
:1021500001F01F0120FA01F40B48006800F00F00A5
:102160001146085C00F01F0024FA00F008490860DE
:10217000084804600F2000F00FF808B1012010BDDE
:1021800000F0C2FA0020FAE718440258240C0108B3
:10219000040000240000002470B5044611480078B3
:1021A00008B9012070BD0F4800784FF47A71B1FB77
:1021B000F0F00D490968B1FBF0F5284604F020FA6B
:1021C00008B10120EEE7102C07D200222146501E54
:1021D00000F0AFFA0548046001E00120E2E70020CA
:1021E000E0E700001C000024000000241800002488
:1021F00070B504460E46154600BF94F8A0000128AD
:1022000001D1022070BD012084F8A00000BF02208F
:1022100084F8A10005EB850101EBC50204F138014A
:1022200001EB820034223146FEF7A4FB2A463146F8
:10223000204604F00EFE01202168486284F8A100C7
:1022400000BF002084F8A00000BF00BFDAE770B52F
:1022500004460CB9012070BD94F8A10028B90020F3
:1022600084F8A000204600F057F8022084F8A1006E
:102270002068806920F0704021688861D4E90101FC
:102280000843E168084321690843216889690843D4
:1022900021688861A08A0504A069284321688860B4
:1022A000A08B0504206A28432168C860A08C05041F
:1022B000A06A284321680861A08D0504206B28438B
:1022C0002168486194F83500050294F83600060448
:1022D0002068C06A00F07F402168C86246EA0500B5
:1022E00094F8341008432168C96A08432168C86219
:1022F0002068406B40F006002168486320688069D0
:1023000040F00100216888610020C4F8A400012089
:1023100084F8A10000209EE710B586B0044600BFF7
:102320008A48006840F0080088490860084600684C
:1023300000F00800009000BF00BF00BF83481038C5
:10234000006840F0100081491039086008460068B4
:1023500000F01000009000BF00BF7D48808844F26C
:10236000423188421DD07A48808847F284018842F1
:1023700017D07748808847F21601884211D07448F8
:10238000808845F2715188420BD07148808844F2B0
:102390008431884205D06E48808841F21801884215
:1023A0007ED100BF00BF6948001F006840F00200F6
:1023B0006649091F08600846006800F002000090A6
:1023C00000BF00BF00BF00BF00BF0846006840F06C
:1023D000800008600846006800F08000009000BFA0
:1023E00000BF00BF00BF00BF0846006840F4806027
:1023F00008600846006800F48060009000BF00BFDD
:1024000000BF00BF00BF0846006840F4807008604D
:102410000846006800F48070009000BF00BF00BF55
:1024200000BF00BF0846006840F48070086008469E
:10243000006800F48070009000BF00BF00BF00BFC4
:1024400000BF0846006840F48070086008460068D5
:1024500000F48070009000BF00BF00BF0120019019
:10246000029003900320049001A93A48FFF736FD3B
:102470002020019001A93848FFF730FD802001900D
:102480000220029000200390032004900E2005906B
:1024900001A93248FFF722FD4FF40050019000E0FF
:1024A00051E001A92E48FFF719FD4FF4805001902B
:1024B00001A92B48FFF712FD4FF48040019001A9BC
:1024C0002748FFF70BFD00BF2048001F006840F4BD
:1024D00080701E49091F08600846006800F480707B
:1024E000009000BF00BF00BF0846006840F40070C5
:1024F00008600846006800F40070009000BF00BF4C
:1025000000BF0846006840F4806008600846006824
:1025100000F48060009000BF00BF4FF400400190C5
:102520000E20059001A90E48FFF7D8FC4FF6FF706A
:10253000019001A90B48FFF7D1FC7F20019001A970
:102540000648FFF7CBFC06B010BD0000E44402587B
:102550002800002400040258001C025800280258D9
:1025600000200258002402582DE9F04104460E468E
:102570001746984600BF94F8A000012802D1022017
:10258000BDE8F081012084F8A00000BF022084F89B
:10259000A10008EB880000EBC80104F1380000EB53
:1025A00081052E60A86A30446860AF60E86A3844EC
:1025B000E86042462946204604F04BFC0120216891
:1025C000486284F8A10000BF002084F8A00000BF8A
:1025D00000BFD5E72DE9F04104460E461746984660
:1025E00000BF94F8A000012802D10220BDE8F081CC
:1025F000012084F8A00000BF022084F8A10008EBAD
:10260000880000EBC80104F1380000EB8105286860
:1026100030446860A8683844E860AE62EF624246C1
:102620002946204604F015FC01202168486284F800
:10263000A10000BF002084F8A00000BF00BFD5E7C4
:102640004178154A116014490831096821F00101E7
:10265000114A08321160121F41681160017B09079D
:10266000C27A41EA0261827A41EAC241427B41EA8E
:102670008241827B41EA4241C27B41EA0241427A85
:1026800041EA0221027A41EA420102781143024AF8
:10269000083211607047000098ED00E000BF00BFF5
:1026A00000BFBFF35F8F00BF00BF00BF05480068D9
:1026B00020F480300349086000200249703108602E
:1026C0007047000024ED00E040F001010D4A116068
:1026D0000C497039096841F480310A4A703A116036
:1026E00000BF00BF00BFBFF34F8F00BF00BF00BFE0
:1026F00000BF00BF00BFBFF36F8F00BF00BF00BFB0
:102700007047000094ED00E070470146084600283D
:102710000DDB00BF00BF00F01F0301229A404309F8
:102720009B0003F1E023C3F8002100BF00BF00BFFE
:1027300070472DE9F05F80460D46164606F0B0FF63
:10274000074639462A46334601F00700C0F1070A1A
:10275000BAF1040F02D94FF0040A01E0C0F1070AF0
:10276000D14600F1040ABAF1070F02D24FF0000A75
:1027700001E0A0F1030AD4464FF0010A0AFA09FA6F
:10278000AAF1010A0AEA020A0AFA0CFA4FF0010B4E
:102790000BFA0CFBABF1010B0BEA030B4AEA0B043F
:1027A0002146404606F084FFBDE8F09F00BF00F0E0
:1027B0000702064B19684FF6FF031940044B0B4301
:1027C00043EA0221014B196000BF70470CED00E0A5
:1027D0000000FA050348006840F080700149086075
:1027E000704700000C4802582DE9F84304460D4696
:1027F0001746FFF78FFC8046A86900B100BFE86963
:1028000000B100BF286A00B100BF00BF94F84000CB
:10281000012802D10220BDE8F883012084F840009D
:1028200000BF94F84100012828D1002060640220F4
:1028300084F841004346002220212046009704F0FE
:102840004CFD0646DEB900222946204604F044FC31
:10285000686A78B94346012202212046009704F0B5
:102860003CFD06465EB902202168C860012084F85C
:10287000410004E0012084F8410000E0022600BF8E
:10288000002084F8400000BF3046C4E7F8B5044695
:10289000FFF740FC06460CB90120F8BD206A40282D
:1028A00000D000BF94F8410038B9204600F046F847
:1028B00041F28831204600F063F92068006820F476
:1028C000F851A068401E41EA002021680860A06C11
:1028D0003346002220210090204604F0FEFC0546ED
:1028E00035BB2179E06840EA0160E1690843216A6B
:1028F0000843216809680F4A1140084321680860AD
:10290000208A616941EA0040A16908432168496859
:10291000094A11400843216848602068006840F077
:1029200001002168086000206064012084F84100F3
:102930002846B2E72FFFFF00FEF8E0FF10B586B093
:10294000044600BF5248006840F480405049086087
:102950000846006800F48040009000BF00BF00BF40
:1029600000BF4B480C30006840F0200048490C3153
:1029700008600846006800F02000009000BF00BF1B
:1029800000BF00BF00BF0846006840F0400008607C
:102990000846006800F04000009000BF00BF00BF84
:1029A00000BF00BF0846006840F0200008600846ED
:1029B000006800F02000009000BF00BF00BF00BF13
:1029C00000BF0846006840F0200008600846006824
:1029D00000F02000009000BF00BF00BF00BF00BF9C
:1029E0000846006840F0200008600846006800F0D3
:1029F0002000009000BF00BF00BF00BF00BF08461E
:102A0000006840F0200008600846006800F02000E0
:102A1000009000BF00BF00BF4FF480600190022013
:102A2000029001200390032004900920059001A941
:102A30001848FFF753FA402001900A20059001A999
:102A40001548FFF74BFA4FF4807001900A2005906B
:102A500001A91048FFF742FA4FF4007001900A20D4
:102A6000059001A90B48FFF739FA80200190092051
:102A7000059001A90748FFF731FA4020019009208D
:102A8000059001A90348FFF729FA06B010BD000020
:102A9000D444025800140258001802582DE9F84F87
:102AA00004460E4617460025FFF734FB8046206893
:102AB000D0F81890206800F1200A00BF94F8400078
:102AC000012802D10220BDE8F88F012084F84000DF
:102AD00000BF94F8410001284AD100206064002E14
:102AE00040D0222084F8410020680069401CA06387
:102AF00020680069401C606326632068406920F0FC
:102B0000406040F08060216848612068C0F81890FB
:102B100013E04346012206212046009704F0DDFB26
:102B2000054605B10CE09AF80000216B0870206B97
:102B3000401C2063A06B401EA063A06B0028E8D15E
:102B400000BF5DB94346012202212046009704F0F0
:102B5000C4FB054615B902202168C860012084F82D
:102B6000410006E0606C40F008006064012500E070
:102B7000022500BF002084F8400000BF2846A2E7DD
:102B8000816470472DE9F84304460E461746002538
:102B9000FFF7C0FA8046206800F1200900BF94F8D2
:102BA0004000012802D10220BDE8F883012084F80A
:102BB000400000BF94F84100012845D10020606426
:102BC000002E3BD0122084F8410020680069401C90
:102BD000E06220680069401CA0626662206840696B
:102BE00020F040602168486113E04346012204213F
:102BF0002046009704F071FB054605B10CE0606AC1
:102C0000007889F80000606A401C6062E06A401E3B
:102C1000E062E06A0028E8D100BF5DB943460122C6
:102C200002212046009704F058FB054615B9022002
:102C30002168C860012084F8410006E0606C40F023
:102C400008006064012500E0022500BF002084F830
:102C5000400000BF2846A7E710B502F01DF805495F
:102C60000968C1F30211044A515C01F01F01C84018
:102C700010BD000020440258240C010870B5014624
:102C8000844D2D6805F00303824D2D68C5F30510B2
:102C9000804D2D1D2D6805F001047E4D0C352D68ED
:102CA000C5F3CC0515FB04F501EE105AB8EE411A38
:102CB000F0EE410A00286FD023B1012B4ED0022B39
:102CC0006BD16BE0734D283D2D68C5F340153DB3C6
:102CD000704D283D2D68C5F3C1066F4D25FA06F2EB
:102CE00001EE102AF8EE411A01EE100AB8EE411A70
:102CF00081EE812A9FED691AC0EE811A654D083573
:102D00002D68C5F3080501EE105AB8EE411A31EEF0
:102D1000811AF7EE001A31EE211A22EE010A1CE0A8
:102D200001EE100AB8EE411ADFED5D1A81EE812A3C
:102D30009FED5A1AC0EE811A564D08352D68C5F31D
:102D4000080501EE105AB8EE411A31EE811AF7EE7D
:102D5000001A31EE211A22EE010A5BE001EE100AA0
:102D6000B8EE411ADFED4F1A81EE812A9FED4B1A22
:102D7000C0EE811A474D08352D68C5F3080501EEF0
:102D8000105AB8EE411A31EE811AF7EE001A31EE00
:102D9000211A22EE010A3DE077E01DE001EE100A63
:102DA000B8EE411A9FED402AC2EE011A9FED3B1A80
:102DB00080EE812A374D08352D68C5F3080501EEF0
:102DC000105AB8EE411A32EE011AB7EE002A31EE6F
:102DD000021A21EE810A1DE001EE100AB8EE411A36
:102DE000DFED2F1A81EE812A9FED2C1AC0EE811A99
:102DF000284D08352D68C5F3080501EE105AB8EEC8
:102E0000411A31EE811AF7EE001A31EE211A22EE44
:102E1000010A00BF00BF1F4D08352D68C5F34625C8
:102E200001EE105AB8EE411AF7EE001A31EE211AEF
:102E3000C0EE011ABCEEE11A81ED001A154D0835FD
:102E40002D68C5F3064501EE105AB8EE411AF7EEAB
:102E5000001A31EE211AC0EE011ABCEEE11A81ED22
:102E6000011A0C4D08352D68C5F3066501EE105AA0
:102E7000B8EE411AF7EE001A31EE211AC0EE011A2F
:102E8000BCEEE11A81ED021A03E000250D604D60F1
:102E90008D6070BD284402580090D00300000046A9
:102EA0000024744C0024744A20BCBE4B70B501460B
:102EB000844D2D6805F00303824D2D68C5F3053060
:102EC000804D2D1D2D68C5F300147E4D14352D68E1
:102ED000C5F3CC0515FB04F501EE105AB8EE411A06
:102EE000F0EE410A00286FD023B1012B4ED0022B07
:102EF0006BD16BE0734D283D2D68C5F340153DB394
:102F0000704D283D2D68C5F3C1066F4D25FA06F2B8
:102F100001EE102AF8EE411A01EE100AB8EE411A3D
:102F200081EE812A9FED691AC0EE811A654D103538
:102F30002D68C5F3080501EE105AB8EE411A31EEBE
:102F4000811AF7EE001A31EE211A22EE010A1CE076
:102F500001EE100AB8EE411ADFED5D1A81EE812A0A
:102F60009FED5A1AC0EE811A564D10352D68C5F3E3
:102F7000080501EE105AB8EE411A31EE811AF7EE4B
:102F8000001A31EE211A22EE010A5BE001EE100A6E
:102F9000B8EE411ADFED4F1A81EE812A9FED4B1AF0
:102FA000C0EE811A474D10352D68C5F3080501EEB6
:102FB000105AB8EE411A31EE811AF7EE001A31EECE
:102FC000211A22EE010A3DE077E01DE001EE100A31
:102FD000B8EE411A9FED402AC2EE011A9FED3B1A4E
:102FE00080EE812A374D10352D68C5F3080501EEB6
:102FF000105AB8EE411A32EE011AB7EE002A31EE3D
:10300000021A21EE810A1DE001EE100AB8EE411A03
:10301000DFED301A81EE812A9FED2C1AC0EE811A65
:10302000284D10352D68C5F3080501EE105AB8EE8D
:10303000411A31EE811AF7EE001A31EE211A22EE12
:10304000010A00BF00BF1F4D10352D68C5F346258E
:1030500001EE105AB8EE411AF7EE001A31EE211ABD
:10306000C0EE011ABCEEE11A81ED001A154D1035C3
:103070002D68C5F3064501EE105AB8EE411AF7EE79
:10308000001A31EE211AC0EE011ABCEEE11A81EDF0
:10309000011A0C4D10352D68C5F3066501EE105A66
:1030A000B8EE411AF7EE001A31EE211AC0EE011AFD
:1030B000BCEEE11A81ED021A03E000250D604D60BF
:1030C0008D6070BD284402580090D0030000004677
:1030D0000024744C0024744A20BCBE4B70B50146D9
:1030E000844D2D6805F00303824D2D68C5F305500E
:1030F000804D2D1D2D68C5F300247E4D1C352D6897
:10310000C5F3CC0515FB04F501EE105AB8EE411AD3
:10311000F0EE410A00286FD023B1012B4ED0022BD4
:103120006BD16BE0734D283D2D68C5F340153DB361
:10313000704D283D2D68C5F3C1066F4D25FA06F286
:1031400001EE102AF8EE411A01EE100AB8EE411A0B
:1031500081EE812A9FED691AC0EE811A654D1835FE
:103160002D68C5F3080501EE105AB8EE411A31EE8C
:10317000811AF7EE001A31EE211A22EE010A1CE044
:1031800001EE100AB8EE411ADFED5D1A81EE812AD8
:103190009FED5A1AC0EE811A564D18352D68C5F3A9
:1031A000080501EE105AB8EE411A31EE811AF7EE19
:1031B000001A31EE211A22EE010A5BE001EE100A3C
:1031C000B8EE411ADFED4F1A81EE812A9FED4B1ABE
:1031D000C0EE811A474D18352D68C5F3080501EE7C
:1031E000105AB8EE411A31EE811AF7EE001A31EE9C
:1031F000211A22EE010A3DE077E01DE001EE100AFF
:10320000B8EE411A9FED402AC2EE011A9FED3B1A1B
:1032100080EE812A374D18352D68C5F3080501EE7B
:10322000105AB8EE411A32EE011AB7EE002A31EE0A
:10323000021A21EE810A1DE001EE100AB8EE411AD1
:10324000DFED301A81EE812A9FED2C1AC0EE811A33
:10325000284D18352D68C5F3080501EE105AB8EE53
:10326000411A31EE811AF7EE001A31EE211A22EEE0
:10327000010A00BF00BF1F4D18352D68C5F3462554
:1032800001EE105AB8EE411AF7EE001A31EE211A8B
:10329000C0EE011ABCEEE11A81ED001A154D183589
:1032A0002D68C5F3064501EE105AB8EE411AF7EE47
:1032B000001A31EE211AC0EE011ABCEEE11A81EDBE
:1032C000011A0C4D18352D68C5F3066501EE105A2C
:1032D000B8EE411AF7EE001A31EE211AC0EE011ACB
:1032E000BCEEE11A81ED021A03E000250D604D608D
:1032F0008D6070BD284402580090D0030000004645
:103300000024744C0024744A20BCBE4B2DE9F043C9
:1033100089B006460F464FF4807186EA01003843B3
:1033200070D1F748006800F00709B9F1050F65D2C0
:10333000DFE809F0031221623000F14850380068DC
:1033400000F00070B0F1007F04D106A8FFF796FCF2
:10335000079C00E0002453E0E9485038006800F082
:103360000060B0F1006F04D103A8FFF79FFD039C3C
:1033700000E0002444E0E2485038006800F00050CB
:10338000B0F1005F04D16846FFF7A8FE009C00E0A2
:10339000002435E0DA48001F006800F04055D848A6
:1033A0005038006800F00400042809D145B9D44819
:1033B00050380068C0F3C101D24820FA01F41AE085
:1033C000CF485038006800F48070B0F5807F04D199
:1033D000B5F1805F01D1CC4C0DE0C9485038006890
:1033E00000F40030B0F5003F04D1B5F1005F01D129
:1033F000C64C00E0002403E0C54C01E0002400BFFF
:10340000D4E3FFE74FF4007186EA010038437AD134
:10341000BB48006800F4E079B9F1800F2CD006DCDD
:10342000B9F1000F0AD0B9F1400F69D115E0B9F137
:10343000C00F63D0B9F5807F62D12CE0B04850381E
:10344000006800F00070B0F1007F04D106A8FFF71B
:1034500015FC079C00E0002454E0A948503800689F
:1034600000F00060B0F1006F04D103A8FFF71EFD6B
:10347000039C00E0002445E0A1485038006800F0BB
:103480000050B0F1005F04D16846FFF727FE009CB2
:1034900000E0002436E09A48001F006800F0405524
:1034A00097485038006800F00400042809D145B955
:1034B000934850380068C0F3C101924820FA01F4E3
:1034C0001BE08F485038006800F48070B0F5807FB2
:1034D00004D1B5F1805F01D18B4C0EE088485038A3
:1034E000006800F40030B0F5003F05D1B5F1005F91
:1034F00002D1864C01E006E0002403E0844C01E0A8
:10350000002400BF52E34FF4806186EA0100384393
:103510007BD17B480830006800F46009B9F5800F62
:103520002CD006DCB9F1000F0AD0B9F5001F69D123
:1035300015E0B9F5C00F63D0B9F5000F62D12CE0EA
:103540006F485038006800F00070B0F1007F04D17F
:1035500006A8FFF793FB079C00E0002454E06848AE
:103560005038006800F00060B0F1006F04D103A88B
:10357000FFF79CFC039C00E0002445E060485038C5
:10358000006800F00050B0F1005F04D16846FFF71A
:10359000A5FD009C00E0002436E05948001F0068AB
:1035A00000F0405556485038006800F004000428E8
:1035B00009D145B9524850380068C0F3C10151489B
:1035C00020FA01F41BE04E485038006800F4807087
:1035D000B0F5807F04D1B5F1805F01D14A4C0EE097
:1035E00047485038006800F40030B0F5003F05D17E
:1035F000B5F1005F02D1454C01E006E0002403E094
:10360000434C01E0002400BFD0E24FF4006186EAA1
:103610000100384373D13A480830006800F0E0698F
:10362000B9F1007F2CD006DCB9F1000F0AD0B9F156
:10363000807F75D115E0B9F1407F6FD0B9F1806F0F
:103640006ED12CE02E485038006800F00070B0F1C8
:10365000007F04D106A8FFF711FB079C00E00024BF
:1036600060E027485038006800F00060B0F1006F5B
:1036700004D103A8FFF71AFC039C00E0002451E0EA
:103680001F485038006800F00050B0F1005F04D1CE
:103690006846FFF723FD009C00E0002442E0184844
:1036A000001F006800F0405515485038006800F0D1
:1036B0000400042809D145B9114850380068C0F306
:1036C000C101104820FA01F427E00D485038006885
:1036D00000F48070B0F5807F04D1B5F1805F01D136
:1036E000094C1AE006485038006800F40030B0F584
:1036F000003F11D1B5F1005F0ED1044C0DE012E096
:10370000504402580090D00300093D0040787D01EC
:103710000080BB0004E001E0002403E0F74C01E07E
:10372000002400BF42E24FF4805186EA0100384392
:103730007AD1F348006800F4E048B8F5005F2CD077
:1037400006DCB8F1000F0AD0B8F5805F69D115E04A
:10375000B8F5405F63D0B8F5804F62D12CE0E848FF
:103760005038006800F00070B0F1007F04D106A866
:10377000FFF784FA079C00E0002454E0E04850384A
:10378000006800F00060B0F1006F04D103A8FFF7FB
:103790008DFB039C00E0002445E0D94850380068C8
:1037A00000F00050B0F1005F04D16846FFF796FCCE
:1037B000009C00E0002436E0D148001F006800F0C3
:1037C0004055CF485038006800F00400042809D163
:1037D00045B9CB4850380068C0F3C101C94820FA48
:1037E00001F41BE0C6485038006800F48070B0F562
:1037F000807F04D1B5F1805F01D1C34C0EE0C04899
:103800005038006800F40030B0F5003F05D1B5F144
:10381000005F02D1BD4C01E006E0002403E0B74C9C
:1038200001E0002400BFC1E14FF4005186EA01002D
:10383000384367D1B248006800F4E028B8F5403F4B
:1038400033D009DCB8F1000F0DD0B8F5803F0ED0B1
:10385000B8F5003F53D119E0B8F5802F37D0B8F54F
:10386000A02F4CD13FE001F03DFA044649E0A448C6
:103870005038006800F00060B0F1006F04D103A878
:10388000FFF714FB049C00E000243AE09C48503809
:10389000006800F00050B0F1005F04D16846FFF707
:1038A0001DFC019C00E000242BE095485038006886
:1038B00000F00400042808D1914850380068C0F393
:1038C000C101904820FA01F400E0002419E08C487E
:1038D0005038006800F48070B0F5807F01D18A4CC8
:1038E00000E000240DE086485038006800F4003005
:1038F000B0F5003F01D1854C00E0002401E0002438
:1039000000BF53E14FF4002186EA0100384361D142
:103910007B480830006800F44038B8F1000F06D04A
:10392000B8F5803F12D0B8F5003F50D11DE0744883
:103930005038006800F00060B0F1006F04D103A8B7
:10394000FFF7B4FA039C00E0002442E06C485038D2
:10395000006800F00050B0F1005F04D16846FFF746
:10396000BDFB029C00E0002433E06548001F0068B6
:1039700000F0405562485038006800F00400042808
:1039800009D145B95E4850380068C0F3C1015D48AF
:1039900020FA01F41AE05A485038006800F48070A8
:1039A000B0F5807F04D1B5F1805F01D1564C0DE0B8
:1039B00053485038006800F40030B0F5003F04D19F
:1039C000B5F1005F01D1514C00E0002401E000247A
:1039D00000BFEBE04FF4803186EA010038432CD180
:1039E0004748001F006800F48038B8F1000F03D08A
:1039F000B8F5803F1ED10EE041485038006800F015
:103A00000070B0F1007F04D106A8FFF737F9079CDA
:103A100000E0002410E03A485038006800F00060F0
:103A2000B0F1006F04D103A8FFF740FA059C00E055
:103A3000002401E0002400BFB8E04FF4804186EA92
:103A40000100384372D12E480830006800F0E04889
:103A5000B8F1405F33D009DCB8F1000F0DD0B8F1F8
:103A6000805F0ED0B8F1005F5DD119E0B8F1804FF2
:103A700037D0B8F1A04F56D14AE0FFF7EDF8044631
:103A800053E01F485038006800F00060B0F1006F4C
:103A900004D103A8FFF70AFA049C00E0002444E0E4
:103AA00017485038006800F00050B0F1005F04D1B2
:103AB0006846FFF713FB019C00E0002435E0104846
:103AC0005038006800F00400042808D10C48503831
:103AD0000068C0F3C1010B4820FA01F400E00024A3
:103AE00023E007485038006800F48070B0F5807F0C
:103AF00001D1054C00E0002417E017E00080BB0076
:103B0000504402580090D00300093D0040787D01E8
:103B10002848006800F40030B0F5003F01D1264C81
:103B200000E0002401E0002400BF3FE04FF400412A
:103B300086EA0100384338D11E485030006800F052
:103B40004058B8F1000F06D0B8F1805F0ED0B8F140
:103B5000005F27D118E01748006800F40030B0F586
:103B6000003F01D1144C00E000241DE01148006822
:103B700000F00070B0F1007F04D106A8FFF77EF8D6
:103B8000079C00E000240FE00A48006800F0006095
:103B9000B0F1006F04D103A8FFF788F9049C00E09E
:103BA000002401E0002400BF00E00024204609B00A
:103BB000BDE8F0830044025840787D012DE9F041D2
:103BC00004460025A8464FF00062D4E900011040E9
:103BD0000021134658404940084331D1E06E48B1B6
:103BE000B0F5801F0DD0B0F5001F11D0B0F5401F0B
:103BF00016D114E0FB48006840F40030F949086031
:103C000010E0022104F1080003F08EFB054609E0F4
:103C1000022104F1280003F039FC054602E001E02E
:103C2000012500BF00BF55B9EE482430006820F4DC
:103C30004010E16E0843EB492431086000E0A846DB
:103C40004FF48072D4E9000110400021134658401F
:103C5000494008432ED1E06D05281BD2DFE800F073
:103C6000030A11181900DF48006840F40030DD49EC
:103C7000086011E0002104F1080003F055FB05463F
:103C80000AE0002104F1280003F000FC054603E0EF
:103C900002E001E0012500BF00BF55B9D148243042
:103CA000006820F00700E16D0843CE492431086028
:103CB00000E0A8464FF40072D4E900011040002152
:103CC000134658404940084334D1206E802818D00C
:103CD00003DC40B140281DD10CE0C02818D0B0F55D
:103CE000807F17D115E0BF48006840F40030BD491F
:103CF000086011E0002104F1080003F015FB0546FF
:103D00000AE0002104F1280003F0C0FB054603E0AF
:103D100002E001E0012500BF00BF55B9B1482430E1
:103D2000006820F4E070216E0843AE492431086039
:103D300000E0A8464FF48062D4E900101140002052
:103D4000134659404040014339D1D4F8AC00B0F596
:103D5000800F1AD004DC50B1B0F5001F1ED10DE069
:103D6000B0F5C00F18D0B0F5000F17D115E09D4881
:103D7000006840F400309B49086011E0002104F124
:103D8000080003F0D1FA05460AE0002104F12800FA
:103D900003F07CFB054603E002E001E0012500BFE3
:103DA00000BF5DB98F482C30006820F46000D4F863
:103DB000AC1008438B492C31086000E0A8464FF452
:103DC0000063D4E9001019400020594040400143ED
:103DD00039D1D4F8B000B0F1007F1AD004DC50B172
:103DE000B0F1807F1ED10DE0B0F1407F18D0B0F16E
:103DF000806F17D115E07B48006840F400307949A6
:103E0000086011E0002104F1080003F08DFA054676
:103E10000AE0002104F1280003F038FB054603E026
:103E200002E001E0012500BF00BF5DB96D482C3004
:103E3000006820F0E060D4F8B010084369492C31E4
:103E4000086000E0A8464FF00072D4E9000110407D
:103E50000021134658404940084328D1E06CA8B1DE
:103E6000102804D0202809D0302810D10DE05D485A
:103E7000006840F400305B4908600AE0022104F168
:103E8000080003F051FA054603E002E001E00125D5
:103E900000BF00BF55B953482030006820F0300003
:103EA000E16C08434F492031086000E0A8464FF418
:103EB0008053D4E90010194000205940404001438C
:103EC00037D1606EB0F5005F1AD004DC50B1B0F5A8
:103ED000805F1ED10DE0B0F5405F18D0B0F5804F87
:103EE00017D115E03F48006840F400303D490860B4
:103EF00011E0002104F1080003F016FA05460AE07B
:103F0000002104F1280003F0C1FA054603E002E0B5
:103F100001E0012500BF00BF55B9324824300068D8
:103F200020F4E040616E08432E492431086000E02F
:103F3000A8464FF40053D4E900101940002059401E
:103F40004040014335D1A06EB0F5403F1ED007DCA4
:103F500068B1B0F5803F0BD0B0F5003F19D10EE04D
:103F6000B0F5802F13D0B0F5A02F12D110E012E0E1
:103F7000012104F1080003F0D7F905460BE0012107
:103F800004F1280003F082FA054604E003E002E0B1
:103F900001E0012500BF00BF55B912482430006878
:103FA00020F4E020A16E08430E492431086000E0AF
:103FB000A8464FF48043D4E900101940002059402E
:103FC0004040014338D1D4F8B400B0F1405F21D073
:103FD0000ADC80B1B0F1805F0ED0B0F1005F1CD17F
:103FE00011E000002C440258B0F1804F13D0B0F122
:103FF000A04F12D110E012E0012104F1080003F0FB
:1040000093F905460BE0012104F1280003F03EFA84
:10401000054604E003E002E001E0012500BF00BF27
:104020004DB9F748006820F0E040D4F8B4100843D8
:10403000F349086000E0A8464FF08063D4E900101F
:10404000194000205940404001431CD1206D48B127
:10405000B0F5807F07D1012104F1080003F064F975
:10406000054602E001E0012500BF00BF55B9E44864
:104070000C38006820F48070216D0843E0490C3949
:10408000086000E0A8464FF40043D4E9000118405E
:10409000002158404940084329D1606FB0B1B0F1C8
:1040A000805F03D0B0F1005F11D108E0D4482C3814
:1040B000006840F40030D2492C39086009E0012141
:1040C00004F1080003F030F9054602E001E00125A3
:1040D00000BF00BF55B9CA480838006820F04050FA
:1040E000616F0843C6490839086000E0A8464FF0F0
:1040F0008072D4E90010114000201346594040401E
:1041000001432AD1A06CB8B1012804D002280BD0F9
:10411000032812D10FE0BA482C38006840F4003070
:10412000B7492C3908600AE0022104F1080003F0C5
:10413000FBF8054603E002E001E0012500BF00BFF7
:1041400055B9AF480C38006820F00300A16C084353
:10415000AB490C39086000E0A8464FF48002D4E96E
:1041600000011040002113465840494008437DD1CA
:10417000A448006840F48070A2490860FDF7CAFFB7
:10418000064606E0FDF7C6FF801B642801D903251B
:1041900005E09C48006800F480700028F2D000BF61
:1041A00085BB97481830006800F44070B4F8B81028
:1041B00001F44071884213D091481830006820F40F
:1041C00040778F481830006840F480308C491831AF
:1041D00008600846006820F48030086008460760E0
:1041E000D4F8B800B0F5807F15D1FDF793FF0646EF
:1041F00009E0FDF78FFF801B41F28831884202D928
:10420000032507E038E07E4818300068C0F340001E
:104210000028EED000BF55BB00BFB4F8B80000F4D2
:104220004070B0F5407F0ED175484838006820F4E2
:104230007C51754AD4F8B800104041EA101070491A
:104240004839086007E06E484838006820F47C5020
:104250006B49483908606A4818300068B4F8B810EB
:10426000C1F30B0108436649183101E005E001E0A4
:10427000086002E0A84600E0A8460122D4E9001048
:1042800011400020134659404040014332D1D4F838
:10429000800018281AD005DC48B1082808D010285A
:1042A00017D10CE0202812D0282812D110E012E0FB
:1042B000012104F1080003F037F805460BE0012165
:1042C00004F1280003F0E2F8054604E003E002E010
:1042D00001E0012500BF00BF5DB94948001F00682B
:1042E00020F03800D4F8801008434549091F0860C1
:1042F00000E0A8460223D4E90001184000215840FC
:104300004940084329D1E06F062816D2DFE800F0C3
:1043100003040B12131412E0012104F1080003F04E
:1043200003F805460BE0012104F1280003F0AEF884
:10433000054604E003E002E001E0012500BF00BF04
:1043400055B92F48001F006820F00700E16F0843AF
:104350002B49091F086000E0A8460423D4E90001A6
:104360001840002158404940084329D1D4F898000A
:10437000062816D2DFE800F003040B12131412E033
:10438000012104F1080002F0CFFF05460BE00121F6
:1043900004F1280003F07AF8054604E003E002E0A7
:1043A00001E0012500BF00BF4DB91548006820F0AD
:1043B0000700D4F8981008431149086000E0A846A7
:1043C0002023D4E900011840002158404940084307
:1043D0003CD1D4F89400B0F1405F25D007DC68B13F
:1043E000B0F1805F12D0B0F1005F20D115E0B0F1E4
:1043F000804F1AD0B0F1A04F19D117E019E000009A
:104400005844025800480258FFFCFF0F002104F1F5
:10441000080002F089FF05460BE0022104F12800A4
:1044200003F034F8054604E003E002E001E0012572
:1044300000BF00BF4DB9FE48006820F0E040D4F84E
:1044400094100843FA49086000E0A8464022D4E9E5
:10445000001011400020134659404040014337D11D
:10446000D4F8A000B0F5406F1ED007DC68B1B0F5FD
:10447000806F0BD0B0F5006F19D10EE0B0F5805F02
:1044800013D0B0F5A05F12D110E012E0002104F1CA
:10449000080002F049FF05460BE0022104F1280064
:1044A00002F0F4FF054604E003E002E001E001252C
:1044B00000BF00BF5DB9DE48001D006820F4E05079
:1044C000D4F8A0100843DA49091D086000E0A846A6
:1044D0008022D4E90010114000201346594040408A
:1044E000014337D1D4F8A400B0F5C04F1ED007DC8B
:1044F00068B1B0F5005F0BD0B0F5804F19D10EE078
:10450000B0F5004F13D0B0F5204F12D110E012E0FB
:10451000002104F1080002F007FF05460BE002212C
:1045200004F1280002F0B2FF054604E003E002E0D7
:1045300001E0012500BF00BF5DB9BD48001D006856
:1045400020F46040D4F8A4100843B949091D08605C
:1045500000E0A8460823D4E9001019400020594083
:104560004040014315D1D4F88800B0F5805F07D1F1
:10457000022104F1280002F089FF08B14FF0010880
:10458000AB48006820F44050D4F888100843A8498C
:1045900008601022D4E90001104000211346584061
:1045A0004940084317D1D4F89C00B0F5807F07D16B
:1045B000022104F1280002F069FF08B14FF0010860
:1045C0009B48001D006820F44070D4F89C100843FC
:1045D0009749091D08604FF40022D4E900011040FA
:1045E0000021134658404940084329D1D4F8A80077
:1045F00030B1B0F5803F0AD0B0F5003F0FD10DE0EB
:10460000002104F1080002F08FFE054609E00221B6
:1046100004F1280002F03AFF054602E001E001251E
:1046200000BF00BF5DB98248001D006820F4403023
:10463000D4F8A81008437E49091D086000E0A84688
:104640004FF48023D4E90010194000205940404025
:1046500001432BD1D4F88C00B0F5801F06D0B0F503
:10466000001F0CD0B0F5401F11D10FE07048283862
:10467000006840F400306E492839086009E00121E3
:1046800004F1280002F002FF054602E001E00125E6
:1046900000BF00BF4DB96648006820F44010D4F850
:1046A0008C1008436249086000E0A8464FF480324D
:1046B000D4E9000110400021134658404940084306
:1046C00025D1606D18B1B0F5803F10D108E0584891
:1046D0002838006840F4003055492839086008E05F
:1046E000022104F1080002F01FFE054601E0012549
:1046F00000BF00BF55B94E480838006820F480302C
:10470000616D08434A490839086000E0A8464FF047
:104710000053D4E9000118400021584049400843A3
:1047200007D1022104F1280002F0B0FE08B14FF0D9
:1047300001084FF40032D4E9000110400021134673
:1047400058404940084327D1D4F88400A0B1B0F5BF
:10475000807F06D0B0F5007F0CD0B0F5407F0CD143
:1047600009E033482838006840F4003030492839DF
:10477000086004E003E002E001E0012500BF00BFA3
:104780004DB92B48006820F44070D4F884100843D9
:104790002749086000E0A8464FF48013D4E90010D0
:1047A0001940002059404040014309D12048001FD2
:1047B000006820F00040A16F08431D49091F0860F0
:1047C0004FF08052D4E900101140002013465940A8
:1047D000404001430AD116484438006820F4804024
:1047E000D4F8BC1008431249443908604FF4001350
:1047F000D4E900011840002158404940084309D13C
:104800000B48001F006820F08070216F08430849A2
:10481000091F08604FF08043D4E9000118400021CF
:1048200058404940084312D100BF0148443801E0D4
:1048300054440258006820F400404E49086008467D
:104840000068D4F8C01008434A49086000BF4FF020
:104850000042D4E90001104000211346584049406D
:10486000084309D143483C30006820F04050A16D16
:10487000084340493C3108604FF40003D4E900107C
:10488000194000205940404001430AD13948443082
:10489000006820F44000D4F89010084335494431B2
:1048A00008600122002061681140404051400843E7
:1048B00007D1002104F1080002F036FD054605B1DC
:1048C000A846022200206168114040405140084340
:1048D00007D1012104F1080002F026FD054605B1CB
:1048E000A84604220021606810404940504001431E
:1048F00007D1022104F1080002F016FD054605B1BA
:10490000A8460822002160681040494050400143F9
:1049100006D104F1280002F0B9FD054605B1A8460C
:10492000102200216068104049405040014307D1E7
:10493000012104F1280002F0A9FD054605B1A846B1
:104940002023002061681940202240405140084344
:1049500007D1022104F1280002F098FD054605B1B7
:10496000A846B8F1000F02D10020BDE8F081012077
:10497000FBE70000104402582DE9F04104460D46C3
:1049800014B90120BDE8F081BD48006800F00F00B7
:10499000A8420ED2BA48006820F00F002843B84958
:1049A00008600846006800F00F00A84201D001200E
:1049B000E8E7207800F0040004280ED1B14920690E
:1049C000096801F07001884207D9AE48006820F0FC
:1049D000700021690843AB490860207800F00800A6
:1049E000082811D1A749091D6069096801F0700103
:1049F000884209D9A348001D006820F07000616951
:104A00000843A049091D0860207800F01000102814
:104A100011D19C49091DA069096801F4E06188422F
:104A200009D99848001D006820F4E060A169084396
:104A30009449091D0860207800F02000202811D139
:104A400090490831E069096801F07001884209D98C
:104A50008C480830006820F07000E16908438949FB
:104A600008310860207800F0020002280ED1854944
:104A7000E068096801F00F01884207D981480068A1
:104A800020F00F00E16808437E490860207800F0BC
:104A90000100002850D07B48006820F47060A168B5
:104AA0000843784908606068022807D175481838BB
:104AB0000068C0F34040F8B9012063E7606803284C
:104AC00007D1704818380068C0F34060A0B90120D1
:104AD00058E76068012807D16A4818380068C0F3B1
:104AE000002048B901204DE7664818380068C0F337
:104AF000800008B9012045E762480838006820F0C6
:104B00000700616808435F4908390860FDF702FB48
:104B1000064608E0FDF7FEFA801B41F28831884224
:104B200001D903202EE757480838006800F0380004
:104B30006168B0EBC10FEDD1207800F002000228CF
:104B40000ED15049E068096801F00F01884207D290
:104B50004C48006820F00F00E168084349490860AC
:104B60004748006800F00F00A8420ED9444800688A
:104B700020F00F002843424908600846006800F012
:104B80000F00A84201D00120FCE6207800F00400CC
:104B900004280ED13B492069096801F07001884260
:104BA00007D23848006820F0700021690843354971
:104BB0000860207800F00800082811D13149091D4B
:104BC0006069096801F07001884209D22D48001D12
:104BD000006820F07000616908432A49091D0860D7
:104BE000207800F01000102811D12649091DA06975
:104BF000096801F4E061884209D22248001D00687A
:104C000020F4E060A16908431E49091D086020786E
:104C100000F02000202811D11A490831E069096804
:104C200001F07001884209D216480830006820F06F
:104C30007000E169084313490831086000F076F814
:104C400010490968C1F303210F4A515C01F01F01AB
:104C500020FA01F70B48006800F00F001146085CCD
:104C600000F01F0027FA00F00849086008480760B4
:104C700008480068FDF790FA8046404682E600004A
:104C80000020005218440258240C0108040000249B
:104C9000000000241800002410B500F047F80D496A
:104CA0000968C1F303210C4A515C01F01F0120FA8D
:104CB00001F40848006800F00F001146085C00F09D
:104CC0001F0024FA00F00549086005480460084602
:104CD000006810BD18440258240C01080400002488
:104CE0000000002400B5FFF7D7FF05490968C1F3AC
:104CF0000211044A515C01F01F01C84000BD0000D0
:104D00001C440258240C010800B5FFF7C5FF0549F3
:104D10000968C1F30221044A515C01F01F01C84037
:104D200000BD00001C440258240C0108F0B5824E5E
:104D3000366806F0380636B1082E15D0102E15D07C
:104D4000182E7DD114E07C4E103E3668C6F3401616
:104D500046B1794E103E3668C6F3C107774E26FA43
:104D600007F000E07548E5E07548E3E07548E1E0EC
:104D7000714E1836366806F003046F4E18363668E2
:104D8000C6F305116C4E1C36366806F001056A4EF6
:104D900024363668C6F3CC0616FB05F601EE106A1B
:104DA000B8EE410A002971D024B1012C50D0022C58
:104DB0006DD16DE0604E103E3668C6F340163EB3CE
:104DC0005D4E103E3668C6F3C1075C4E26FA07F307
:104DD00001EE103AF8EE411A01EE101AB8EE411A3F
:104DE00081EE812A9FED581AC0EE011A524E2036EC
:104DF0003668C6F3080601EE106AB8EE411A31EEC5
:104E0000811AF7EE001A31EE211A62EE010A1EE055
:104E100001EE101AB8EE411ADFED4C1A81EE812A2C
:104E20009FED491AC0EE011A434E20363668C6F38C
:104E3000080601EE106AB8EE411A31EE811A00E060
:104E400076E0F7EE001A31EE211A62EE010A5BE01D
:104E500001EE101AB8EE411A9FED3D2AC2EE011A7A
:104E60009FED391A80EE012A334E20363668C6F39C
:104E7000080601EE106AB8EE411A32EE011AB7EEDA
:104E8000002A31EE021A61EE810A3DE04EE01DE09B
:104E900001EE101AB8EE411ADFED2E1A81EE812ACA
:104EA0009FED291AC0EE011A234E20363668C6F34C
:104EB000080601EE106AB8EE411A31EE811AF7EEDB
:104EC000001A31EE211A62EE010A1DE001EE101AFD
:104ED000B8EE411A9FED1E2AC2EE011A9FED1A1A72
:104EE00080EE012A144E20363668C6F3080601EE1D
:104EF000106AB8EE411A32EE011AB7EE002A31EE0E
:104F0000021A61EE810A00BF00BF0B4E20363668E0
:104F1000C6F34626721C01EE102AB8EE411AC0EE06
:104F2000811ABCEEE11A11EE100A00E0002001E047
:104F3000034800BF00BFF0BD104402580090D003EA
:104F400000093D0040787D01000000460024744CBB
:104F50000024744A20BCBE4B2DE9F047044614B926
:104F60000120BDE8F087207800F00100002870D013
:104F7000FA48006800F03808F8481830D0F8009077
:104F8000B8F1100F06D0B8F1180F0FD109F00300D7
:104F900002280BD1F14810380068C0F340400028C7
:104FA0006AD06068002867D10120DAE700BF606836
:104FB000B0F5803F08D1E9481038006840F48030EF
:104FC000E649103908602EE0606868B9E348103897
:104FD000006820F48030E149103908600846006814
:104FE00020F4802008601EE06068B0F5A02F0DD18D
:104FF000DA481038006840F48020D8491039086039
:105000000846006840F4803008600CE0D34810384F
:10501000006820F48030D1491039086008460068E3
:1050200020F48020086000BF606898B1FDF772F836
:10503000054606E0FDF76EF8401B642801D9032001
:105040008FE7C64810380068C0F340400028F1D010
:1050500012E012E0FDF75EF8054606E0FDF75AF8AB
:10506000401B642801D903207BE7BC481038006846
:10507000C0F340400028F1D100BF207800F00200CA
:10508000022874D1B548006800F03808B3481830D9
:10509000D0F80090B8F1000F05D0B8F1180F56D134
:1050A00009F00300D0BBAD4810380068C0F38000A1
:1050B00018B1E06808B9012053E7A8481038006823
:1050C00020F01900E1680843A44910390860FDF791
:1050D00021F8054606E0FDF71DF8401B022801D91E
:1050E00003203EE79D4810380068C0F38000002888
:1050F000F1D000BFFDF708F841F2030188421AD849
:10510000206940280BD195480C38006820F47C3089
:1051100040F4003091490C39086017E017E08F48DF
:105120000C38006820F47C30216940EA01308B495A
:105130000C3908600AE089480C38006820F0FE400D
:10514000217C40EA016085490C39086066E0E0682E
:1051500088B382481038006820F01900E1680843DD
:105160007E4910390860FCF7D5FF054607E056E098
:10517000FCF7D0FF401B022801D90320F1E6774855
:1051800010380068C0F380000028F1D000BFFCF7A1
:10519000BBFF41F2030188421AD8206940280BD195
:1051A0006E480C38006820F47C3040F400306B49C5
:1051B0000C39086017E017E068480C38006820F4E4
:1051C0007C30216940EA013064490C3908600AE00A
:1051D00062480C38006820F0FE40217C40EA016003
:1051E0005E490C39086019E05C481038006820F00E
:1051F00001005A4910390860FCF78CFF054606E0AB
:10520000FCF788FF401B022801D90320A9E6534878
:1052100010380068C0F380000028F1D100BF20786A
:1052200000F0100010287CD14C48006800F03808CD
:105230004A481830D0F80090B8F1080F06D0B8F1FD
:10524000180F3DD109F00300012839D14348103827
:105250000068C0F3002020B1E069802801D001205F
:105260007FE600BFFCF750FF41F2030188421AD8E5
:10527000206A20280AD139480C38006820F0F8400C
:1052800040F0804035490C39086018E033480C384C
:10529000006820F0F84094F8201040EA81602F491F
:1052A0000C3908600BE02D48001F006820F07C508E
:1052B00094F8201040EA01602849091F086066E060
:1052C000E06978B325481038006840F08000234931
:1052D00010390860FCF71EFF054606E0FCF71AFFD0
:1052E000401B022801D903203BE61C481038006807
:1052F000C0F300200028F1D000BFFCF705FF41F209
:10530000030188421CD8206A20280CD113480C388D
:10531000006820F0F84040F0804010490C390860E7
:105320001AE035E01CE00D480C38006820F0F84029
:1053300094F8201040EA816008490C3908600BE0BD
:105340000648001F006820F07C5094F8201040EAC6
:1053500001600249091F086019E00000104402586A
:10536000FA48006820F08000F8490860FCF7D2FE97
:10537000054606E0FCF7CEFE401B022801D90320BB
:10538000EFE5F2480068C0F300200028F2D100BF2A
:10539000207800F00800082836D16069D0B1EB48C9
:1053A0007430006840F00100E84974310860FCF78F
:1053B000B1FE054606E0FCF7ADFE401B022801D910
:1053C0000320CEE5E14874300068C0F340000028B7
:1053D000F1D019E0DD487430006820F00100DB49AD
:1053E00074310860FCF796FE054606E0FCF792FE75
:1053F000401B022801D90320B3E5D448743000686B
:10540000C0F340000028F1D1207800F020002028CF
:1054100030D1A069B8B1CD48006840F48050CB4984
:105420000860FCF777FE054606E0FCF773FE401BBC
:10543000022801D9032094E5C4480068C0F3403035
:105440000028F2D016E0C148006820F48050BF491F
:105450000860FCF75FFE054606E0FCF75BFE401BBC
:10546000022801D903207CE5B8480068C0F3403029
:105470000028F2D1207800F0040004287DD1B4483F
:10548000006840F48070B2490860FCF743FE0546AE
:1054900006E0FCF73FFE401B642801D9032060E5CD
:1054A000AB48006800F480700028F2D000BFA0680C
:1054B000012808D1A5487030006840F00100A349D8
:1054C000703108602DE0A06868B9A04870300068AD
:1054D00020F001009D49703108600846006820F006
:1054E000040008601DE0A06805280DD197487030C1
:1054F000006840F004009549703108600846006873
:1055000040F0010008600CE090487030006820F026
:1055100001008E49703108600846006820F00400E0
:10552000086000BFA068A0B1FCF7F4FD054608E0E4
:10553000FCF7F0FD401B41F28831884201D903207D
:105540000FE5824870300068C0F340000028EFD0BB
:1055500013E0FCF7DFFD054608E0FCF7DBFD401B30
:1055600041F28831884201D90320FAE4774870304B
:105570000068C0F340000028EFD1606A00287DD0A9
:1055800072481030006800F03800182877D0606A40
:10559000022875D16D48006820F080706B49086062
:1055A000FCF7B8FD054606E0FCF7B4FD401B0228F9
:1055B00001D90320D5E465480068C0F340600028A5
:1055C000F2D100BFD4E90A1041EA00105F49283146
:1055D000096840F2F332914308435C49283108607E
:1055E000208E401EC0F30800616B491E4FF47E42BE
:1055F00002EA41210843218F491ED20102EA0141FA
:1056000008433C21095D491E120202EA0161084378
:105610004E493031086000BF081F006820F00100CB
:10562000091F08604948343000684FF6F871884314
:10563000A16C40EAC10045493431086043482C3030
:10564000006820F00C00216C084340492C310860B0
:105650000846006820F00200616C08433B492C3189
:1056600008600846006840F480300860084600681A
:1056700040F4003008600846006802E093E038E03B
:105680001FE040F4802008600846006840F00100F8
:1056900008602E48006840F080702C490860FCF7D4
:1056A00039FD054606E0FCF735FD401B022801D90F
:1056B000032056E425480068C0F340600028F2D07B
:1056C00071E02248006820F0807020490860FCF7F3
:1056D00021FD054606E0FCF71DFD401B022801D90F
:1056E00003203EE419480068C0F340600028F2D16E
:1056F00059E0164828300768144830300668606A58
:10570000012821D007F00301A06A81421CD1C7F310
:105710000511E06A884217D1C6F30801206B401ECC
:10572000814211D1606B401EC6F3462188420BD1E5
:10573000A06B401EC6F30641884205D1E06B401EB7
:10574000C6F30661884205D001200AE400440258ED
:105750000048025815480068C0F3CC07A06CB84256
:1057600021D012480838006820F001000F4908399C
:105770000860FCF7CFFC054600BFFCF7CBFC401BE4
:10578000FBD00A4800684FF6F8718843A16C40EAE4
:10579000C1000649086005480838006840F001006B
:1057A00002490839086000204AE4000034440258E5
:1057B00070B504460D460CB9012070BD94F82C005C
:1057C00028B9002084F82D00204600F019F80220A6
:1057D00084F82C00211D2068FBF76AFA2946D4E9D9
:1057E0000002FBF7B9FA0548006840F000400349A1
:1057F0000860012084F82C000020DEE70040005201
:1058000010B586B0044600BF5248006840F480508E
:10581000504908600846006800F48050009000BFBE
:1058200000BF00BF4B480C30006840F004004949FD
:105830000C3108600846006800F00400009000BFCA
:1058400000BF00BF0846006840F008000860084636
:10585000006800F00800009000BF00BF00BF0846CD
:10586000006840F0100008600846006800F0100072
:10587000009000BF00BF00BF0846006840F0200055
:1058800008600846006800F02000009000BF00BFDC
:1058900000BF0846006840F0400008600846006805
:1058A00000F04000009000BF00BF00BF0846006845
:1058B00040F0800008600846006800F0800000901A
:1058C00000BF00BF00BF0846006840F48070086059
:1058D0000846006800F48070009000BF00BF0120FF
:1058E00001900220029001200390032004900C20DC
:1058F000059001A91848FCF7F1FA4CF203700190E9
:1059000001A91648FCF7EAFA4FF68370019001A945
:105910001348FCF7E3FA4FF63F00019001A9114844
:10592000FCF7DCFA48F23310019001A90E48FCF7AD
:10593000D5FA4FF6C070019001A90C48FCF7CEFAD9
:1059400040F2FF60019001A90948FCF7C7FA06B0D0
:1059500010BD0000D444025800080258000C025840
:10596000001002580014025800180258001C025877
:105970000020025870B504460D4694F82C00022809
:1059800000D170BD94F82C0001280AD1022084F8BF
:105990002C0029462068FBF7C1F9012084F82C006F
:1059A00001E00120EDE70020EBE72DE9F04104469E
:1059B0000E46174694F82C50022D02D10220BDE865
:1059C000F081012D01D0052D12D1022084F82C0088
:1059D0003A4631462068FBF7ABF93068022803D11C
:1059E000052084F82C0005E0012084F82C0001E05B
:1059F0000120E4E70020E2E72DE9F04188B0044609
:105A00000F464FF00008032084F83000A06B0328F5
:105A100020D0B7F5004F04D1606B40F08050606338
:105A20001CE0B7F5804F07D1204602F0BFFC0646C8
:105A3000606B3043606311E03FB9204602F082FCA6
:105A40000646606B3043606308E0606B40F00060C6
:105A5000606303E0606B40F080506063606B28B16E
:105A60004248216888634FF0010869E04FF48030B4
:105A70000021FDF74BFC0546002D5BD060680390CC
:105A8000A06804900597206906903948B5FBF0F1AD
:105A90006069814202D86069079041E0A06DB0F56D
:105AA000007F02D1606907903AE0A06DB0F5807F79
:105AB0001BD1606950B92E48854204D94000B5FB1E
:105AC000F0F007902CE06069079029E060694000E1
:105AD000B5FBF0F02649884204D94800B5FBF0F048
