:020000040800F2
:10000000400B002441030008550300085703000873
:10001000590300085B0300085D03000800000000AE
:100020000000000000000000000000005F03000866
:100030006103000800000000630300086503000876
:1000400067030008670300086703000867030008E8
:1000500067030008670300086703000867030008D8
:1000600067030008670300086703000867030008C8
:1000700067030008670300086703000867030008B8
:1000800067030008670300086703000867030008A8
:100090006703000867030008670300086703000898
:1000A0006703000867030008670300086703000888
:1000B0006703000867030008670300086703000878
:1000C0006703000867030008670300086703000868
:1000D00067030008E10600086703000867030008DB
:1000E00067030008670300080000000067030008BA
:1000F0006703000867030008670300086703000838
:100100006703000867030008670300086703000827
:100110006703000867030008670300086703000817
:100120006703000867030008670300086703000807
:1001300067030008670300086703000867030008F7
:1001400067030008670300080000000000000000CB
:1001500067030008670300086703000867030008D7
:1001600067030008670300086703000867030008C7
:100170006703000867030008670300080000000029
:1001800067030008670300086703000867030008A7
:100190006703000867030008670300086703000897
:1001A0006703000867030008670300086703000887
:1001B0006703000867030008670300086703000877
:1001C0006703000867030008670300086703000867
:1001D0006703000867030008670300086703000857
:1001E0006703000867030008670300086703000847
:1001F0006703000867030008670300086703000837
:100200006703000867030008670300086703000826
:100210000506000867030008670300086703000875
:100220006703000867030008670300086703000806
:1002300067030008670300086703000867030008F6
:1002400067030008670300086703000867030008E6
:1002500067030008670300086703000867030008D6
:1002600067030008670300086703000867030008C6
:1002700067030008670300086703000867030008B6
:100280006703000867030008670300080000000018
:10029000670300086703000800F002F800F041F867
:1002A0000AA090E8000C82448344AAF10107DA45D1
:1002B00001D100F036F8AFF2090EBAE80F0013F0E2
:1002C000010F18BFFB1A43F001031847B0110000DB
:1002D000D0110000103A24BF78C878C1FAD852076C
:1002E00024BF30C830C144BF04680C6070470000B0
:1002F0000023002400250026103A28BF78C1FBD82F
:10030000520728BF30C148BF0B607047642900F016
:100310007F80002070471FB501F0AAF81FBD10B5FF
:1003200010BD00F03DF91146FFF7F5FF00F0A6FA09
:1003300000F05BF903B4FFF7F2FF03BC00F016FA1C
:10034000DFF83000016841F470010160BFF34F8FA6
:1003500009480047FEE7FEE7FEE7FEE7FEE7FEE7A7
:10036000FEE7FEE7FEE7FEE704480549054A064BBF
:100370007047000088ED00E0990200084001002469
:10038000400B002440030024400300247047000079
:100390000FB4044910B503AA029800F0D3F810BCBA
:1003A0005DF814FB040000242DE9F0410E460446DC
:1003B000002020622046E168884730B3252805D018
:1003C000D4E901219047206A401CF2E7E168204609
:1003D00000278847050018D0A5F14100192802D848
:1003E00020354FF400673246294620462760FFF744
:1003F0008DFF40B1012804D0F61D26F0070608360F
:10040000D8E7361DD6E72846DAE7206ABDE8F0814E
:100410002DE9F0410646002410687529314616A5DD
:1004200010D0AFF30080002802DA404213A507E0A5
:1004300031688A0701D512A502E0490704D511A544
:10044000012401E0AFF3008000210A2206F1240715
:1004500009E0B0FBF2FCB0FBF2F302FB1C00303011
:1004600078541846491C0028F3D123462A463046C2
:10047000BDE8F04100F00CB8000000002D000000C5
:100480002B00000020000000704770477047704745
:100490002DE9F0470D4699469246044600F124089E
:1004A0000168880604D5E06921F01001216000E0B0
:1004B0000120A84201DD471B00E00027A1697A194D
:1004C00002EB0900081AA0612078C00602D4204679
:1004D000AFF30080002608E0D4E901211AF80600F5
:1004E0009047206A401C761C20624E45F4DB207841
:1004F000C0060AD52046AFF3008006E0D4E901210A
:1005000030209047206A401C2062381EA7F1010766
:10051000F4DC07E0D4E9012118F805009047206ACF
:10052000401C2062281EA5F10105F3DC2046AFF334
:1005300000802078000602D50220BDE8F087012067
:10054000FBE70000074B70B50D467B4400F011F847
:100550000446284600F020F810B14FF0FF3070BD7F
:10056000204670BDAB02000001694A1C0261087898
:10057000704700B58FB0CDE90131002105910549E3
:100580007944CDE9031011466846FFF70DFF0FB01F
:1005900000BD0000E5FFFFFF007B00F0800070471A
:1005A000754600F02BF8AE4605006946534620F02C
:1005B0000700854618B020B5FFF7D6FEBDE82040FD
:1005C0004FF000064FF000074FF000084FF0000B0F
:1005D00021F00701AC46ACE8C009ACE8C009ACE8C2
:1005E000C009ACE8C0098D46704710B50446AFF3AA
:1005F00000802046BDE81040FFF79CBE00487047D1
:10060000DC00002410B5334A126991B20120324A4D
:10061000127802F08002002A58D101F0010222B3C0
:100620002D4A127802F04002FAB12B4A127802F0F9
:100630003F023F2A14D1274A126A431E9B005B1CCB
:1006400001249C40A243234B1A62234A127842F0B1
:100650008002214B1A704FF6FF72204B1A6004E0A3
:100660001D4A1278521C1C4B1A70012282400A400B
:1006700062B3194A127802F04002A2B1164A127807
:1006800042F08002144B1A70124A526B134B1A60DC
:10069000104A126A431E9B005B1C01249C40A2432B
:1006A0000C4B1A6212E000220C4B1A6040220A4BDB
:1006B0001A700022074B5A621A46126A431E9B00A8
:1006C0005B1C01249C402243024B1A620022014B16
:1006D0001A6110BD004001400C00002410000024ED
:1006E0001F49C96901F0200109B31D49496AC8B20F
:1006F0001C49098801F40041C9B91A49098801F463
:10070000804161B10A2803D00021164A118020E0FF
:100710001449098841F40041124A118019E00D285A
:1007200006D11049098841F480410E4A118010E039
:100730000C490988C1F30D010B4A50540949098835
:10074000491C084A118011460988C72901DD00218A
:1007500011800349096A41F00801014A116270479A
:1007600000100140080000241400002400BF70475E
:100770004FF0E021096941F004014FF0E0221161DE
:10078000054908601146096941F0010111616FF0E6
:100790007F415161704700000000002410B50446FD
:1007A0004FF47A7104FB01F000F002F810BD000074
:1007B00070B5034600224FF0E02675690D4E36688D
:1007C00003FB06F44FF0E026B16910E04FF0E0269D
:1007D000B06988420BD0884202D20E1A324402E03D
:1007E0002E1A0E4432440146A24200D300E0EDE747
:1007F00000BF70BD0000002400BF054AD26902F0AE
:100800004002002AF9D0C2B2014B9A627047000040
:10081000001001401CB500BF1548006840F0010001
:100820001349086000BF00BF0846006840F002009E
:10083000086000BF012000900023024608210190BB
:100840000C4800F07DFB01200090002302460221AD
:100850000190094800F074FB01220821054800F0CE
:1008600063FB01220221044800F05EFB1CBD000076
:10087000E0440258000002580004025800240423F7
:1008800002220521C02000F00BFC4FF4F070FFF7AE
:100890006FFF4FF4E131782000F078FDFFF7BAFFE9
:1008A000EF2140F2F31000F0E3FCEF214FF6FF7070
:1008B00000F044FC22E012480068401C1049086027
:1008C00008460068B0F5967F01D1002008600D4809
:1008D000007800F0800070B10A48007800F03F0412
:1008E0002404094800680444214608A0FFF750FD8D
:1008F0000020044908700A20FFF750FFDBE70000E2
:10090000400C00400C0000241000002448494748D7
:100910003A25642075730D0A0000000010B500BF71
:100920004C48006800F4003000B139E000BF00BF5F
:1009300000BFBFF34F8F00BF00BF00BF00BF00BFAD
:1009400000BFBFF36F8F00BF00BF00BF0020424950
:10095000086000BF00BF00BFBFF34F8F00BF00BFE4
:1009600000BF00BF00BF00BFBFF36F8F00BF00BF5D
:1009700000BF3848006840F400303649086000BFC6
:1009800000BF00BFBFF34F8F00BF00BF00BF00BF5D
:1009900000BF00BFBFF36F8F00BF00BF00BF00BF2D
:1009A00000BF2C4B1B6803F4803303B148E00023E5
:1009B000284C7034236000BF00BF00BFBFF34F8FCF
:1009C00000BF00BF00BF231F1868C0F34E3100BF37
:1009D000C0F3C90200BF43F6E07303EA41134FF0CE
:1009E000404404EA827423431B4C1034236000BF4C
:1009F00000BF131EA2F10102EDD10B1EA1F10101F6
:100A0000E6D100BF00BF00BFBFF34F8F00BF00BFE4
:100A100000BF104B1B6843F480330E4C236000BFB3
:100A200000BF00BFBFF34F8F00BF00BF00BF00BFBC
:100A300000BF00BFBFF36F8F00BF00BF00BF00BF8C
:100A400005484C30006840F0040003494C31086010
:100A500010BD000014ED00E050EF00E02DE9F04182
:100A600004460D4616460021002200200027DFF82C
:100A700040C4DCF800C02CF4404CDFF83484C8F8E3
:100A800000C0C446DCF800C04CF4404CC8F800C0BC
:100A9000DFF820C4DCF800C04CF0020CDFF814844E
:100AA000C8F800C0DFF810C4DCF800C04CF0010C3E
:100AB000DFF80484C8F800C000BFDFF8F4C3DCF836
:100AC00000C00CF4005CBCF1000FF6D0DFF8E4C30A
:100AD000ACF1F40CDCF800C04CF4803CDFF8D483BB
:100AE000A8F1F408C8F800C000E0491CDFF8C4C34E
:100AF000ACF1F40CDCF800C00CF4003CBCF1000FCD
:100B000003D147F6FF7C6145EFD347F6FF7C614593
:100B100001D10120C9E1DFF89CC3ACF1CC0CDCF8B9
:100B200000C04CF0020CDFF88C83A8F1CC08C8F8A8
:100B300000C0C446DCF800C04CEA051CC8F800C080
:100B4000DFF870C3ACF1C40CDCF800C06FF3080C24
:100B5000DFF86083A8F1C408C8F800C0C446DCF818
:100B600000C0A4F101084CEA080CDFF84883A8F1A2
:100B7000C408C8F800C0C446DCF800C02CF47E4CA1
:100B8000C8F800C0C446DCF80080A6F1010C48EAB1
:100B90004C2CDFF82083A8F1C408C8F800C0C44674
:100BA000DCF800C02CF4FE0CC8F800C0C446DCF829
:100BB0000080A3F1010C48EA0C4CDFF8F882A8F1A0
:100BC000C408C8F800C0C446DCF800C02CF0FE4CD5
:100BD000C8F800C0C446DCF800C04CF0807CC8F8FF
:100BE00000C0A8F1040CDCF800C04CF0080CA8F11F
:100BF0000408C8F800C0C446DCF800C0C8F800C04B
:100C0000C446DCF800C04CF4403CC8F800C0DFF833
:100C1000A4C2ACF1F40CDCF800C04CF0807CDFF82E
:100C20009482A8F1F408C8F800C0002105E0491C2E
:100C3000B1F5001F01D302200AE0DFF878C2ACF161
:100C4000F40CDCF800C00CF0007CBCF1000FEED01E
:100C500000BFDFF860C2ACF1CC0CDCF800C04CF493
:100C6000C83CDFF85082A8F1CC08C8F800C0DFF813
:100C700044C2ACF1BC0CDCF800C06FF3080CDFF828
:100C80003482A8F1BC08C8F800C0C446DCF800C033
:100C900040F2B7184CEA080CDFF81882A8F1BC083B
:100CA000C8F800C0C446DCF800C02CF47E4CC8F87C
:100CB00000C0C446DCF800C04CF4007CC8F800C09A
:100CC000C446DCF800C02CF0FE4CC8F800C0C44696
:100CD000DCF800C04CF0807CC8F800C0DFF8D4C15C
:100CE000ACF1C80CDCF800C0DFF8C881A8F1C80876
:100CF000C8F800C0C446DCF800C0C8F800C0C4464C
:100D0000DCF800C04CF4002CC8F800C0C446DCF885
:100D100000C04CF4001CC8F800C0DFF898C1ACF16A
:100D2000A80CDCF800C02CF0030CDFF88881A8F1D7
:100D3000A808C8F800C0C446DCF800C04CF0020C9B
:100D4000C8F800C0DFF86CC1ACF1F40CDCF800C0EE
:100D50004CF0806CDFF85C81A8F1F408C8F800C0A2
:100D6000002105E0491CB1F5001F01D303200AE072
:100D7000DFF840C1ACF1F40CDCF800C00CF0006C02
:100D8000BCF1000FEED000BFDFF828C1ACF1DC0CE5
:100D9000DCF800C04CF0080CDFF81881A8F1DC0882
:100DA000C8F800C0C446DCF800C0C8F800C0DFF8CE
:100DB00004C1ACF1E40CDCF800C04CF0030CDFF82B
:100DC000F480A8F1E408C8F800C000210DE0DFF8C5
:100DD000E4C0ACF1E40CDCF800C0CCF3C207491C61
:100DE000B1F5001F01D3042001E0032FEFD100BFB4
:100DF000DFF8C8C0DCF8002022F00F0242F0040245
:100E000022F0300242F02002CCF80020DFF8A4C02B
:100E1000ACF1DC0CDCF800C04CF0400CDFF8948046
:100E2000A8F1DC08C8F800C008F1040CDCF800C028
:100E30004CF0400C08F10408C8F800C0C446DCF8C7
:100E400000C04CF4806CC8F800C008F1040CDCF859
:100E500000C04CF0400C08F10408C8F800C0DFF8EE
:100E600054C0ACF1F40CDCF800C04CF0800CDFF89E
:100E70004480A8F1F408C8F800C0DFF838C0DCF8F6
:100E800000C04CF0020CDFF82C80C8F800C0DFF87E
:100E900028C0ACF10C0CDCF800C04CF0010CDFF801
:100EA0001880A8F10C08C8F800C0BDE8F081000067
:100EB00018480258F44402582C04005800200052EC
:100EC000F0B5034600200024002500BF29E00126DC
:100ED00006FA00F401EA0405A54221D1C70803F18E
:100EE000200656F8276047074FEAD76C0F2707FA06
:100EF0000CF7BE434FEAD00C03F1200747F82C60F3
:100F0000C70803F1200656F827604707FF0E02FACC
:100F100007F73E434FEAD00C03F1200747F82C6057
:100F2000401C1028D3D3F0BD02F001031BB183692C
:100F30000B43836103E0836943EA014383617047A4
:100F40002DE9F04704460D46DDE9087C0021002626
:100F5000884600BF48E04FF0010909FA01F605EAAA
:100F60000608B0453FD120684FEA410A4FF0030917
:100F700009FA0AF920EA09004FEA410902FA09F9D7
:100F800049EA00002060012A01D0022A1BD1A06892
:100F90004FEA410A4FF0030909FA0AF920EA090069
:100FA0004FEA410907FA09F949EA0000A0606068C0
:100FB0004FF0010909FA01F920EA090003FA01F9E1
:100FC00049EA00006060E0684FEA410A4FF0030917
:100FD00009FA0AF920EA09004FEA410A0CFA0AF96B
:100FE00049EA0000E060491C1029B4D3BDE8F0874D
:100FF0002DE9F0410746884614461D46284600F074
:1010000033F8C5F1040007FA00F60F20284100EA82
:101010000800064306F00F06E21704EBD2625211F5
:10102000920002F1E022D2F800212146E31704EBFE
:10103000D3635B11A4EB431C012303FA0CF31A43A3
:101040002046E31704EBD3635B119B0003F1E0231D
:10105000C3F800210348005D40EA06100149085525
:10106000BDE8F08100E400E00146072323EA010225
:101070001202054B18684FF6FF031840034B184344
:101080001043014B186070470CED00E00000FA05BA
:101090004A0A52020243014B1A60704708ED00E011
:1010A000F0B504460D4616461F462048006820F05D
:1010B00004001E4908600846006840F0020008600D
:1010C00000BF1A480838006800F400500028F8D023
:1010D00001201749086000201549103108601449A3
:1010E00018310860091D0860091D08601049283181
:1010F0000860091D08600E49603108600D480068ED
:101100006FF30F00B0F1005F02D201200A490860BE
:101110003B46324629462046FFF7A0FCFFF7FEFB80
:1011200000214FF00060FFF7B3FFF0BD0C480258FC
:10113000004402580010005C088100517CB505464F
:101140000E46012400BF4748006840F001004549B1
:10115000086000BF00BF43481030006840F4803092
:1011600040491031086000BF0220012100230246DF
:10117000CDE9001004213C48FFF7E2FE04221146AD
:101180003948FFF79DFE3948C5628662022C1CDC97
:101190008069611ECA00012191400843334988617A
:1011A00008468069611EC900891C00228A401043DC
:1011B0002E49886108468069611EC900091D002208
:1011C0008A401043294988611EE0042C1CDC274812
:1011D000C069E11ECA000121914008432349C8614A
:1011E0000846C069E11EC900891C00228A401043DC
:1011F0001E49C8610846C069E11EC900091D0022D8
:101200008A4010431949C8611848006A611E8A0063
:10121000012191400843154908620846006A611E91
:101220008900491C00228A40104310490862084680
:10123000406940F0010048610846C06840F0020083
:10124000C8600846C06840F00100C86008460068F1
:1012500040F0010008600223742203210120FFF7FF
:10126000C7FE7CBDE0440258000002580040014027
:101270007CB505460E46042400BF4148006840F096
:1012800001003F49086000BF00BF3D4808300068CA
:1012900040F008003A490831086000BF0120009082
:1012A00000230222082101903648FFF749FE02225E
:1012B00008213448FFF704FE33480560001F06602C
:1012C00031481830006840F400402F491831086058
:1012D000022C17DC2C4814380068611EC900091D57
:1012E00006228A40104328491439086008460068DD
:1012F000611EC900C91C01228A40104322491439C9
:10130000086018E0042C16DC1F4810380068E11E45
:10131000C900091D06228A4010431B491039086084
:1013200008460068E11EC900C91C01228A4010431A
:1013300015491039086014480C380068611E8A008D
:1013400001219140084310490C39086008460068A3
:10135000611E8900491C01228A4010430A490C3948
:10136000086009482C38006840F0800006492C3994
:1013700008600846006840F0010008607CBD00007D
:10138000E0440258000002582C0C00407CB5064690
:101390000C4600BF3248006840F001003049086048
:1013A00000BF00BF0846006840F00100086000BFB1
:1013B00000BF2B481030006840F010002849103161
:1013C000086000BF0120009000230222410201902A
:1013D0002448FFF7B5FD012000900023022281027E
:1013E00001902048FFF7ACFD07224FF400711D4823
:1013F000FFF766FD07224FF480611A48FFF760FD92
:101400001948704300EB5400B0FBF4F51748C56071
:101410000020164908600846006808600846006811
:1014200008600846006808600846006840F0080048
:1014300008600846006840F004000860084600683C
:1014400040F0200008600223252203210846FFF710
:10145000CFFD0648006840F00100044908607CBDEB
:10146000E04402580000025840420F0000100140C2
:101470004FF04070E1EE100A704700009C14000825
:101480000000002414000000D4020008B01400087A
:10149000140000242C0B0000F002000800000000E3
:1014A000000000000000000000000000000000003C
:040000050800029954
:00000001FF
